:020000021000EC
:10C0000000FD0120ED6103001562030017620300CB
:10C01000196203001B6203001D62030000000000A0
:10C020000000000000000000000000001F6203008C
:10C030002162030000000000236203002562030068
:10C0400027620300276203002762030027620300C0
:10C0500027620300276203005DD501002762030009
:10C060002762030027620300C9B2020027620300AF
:10C070002762030027620300276203002762030090
:10C080002762030071490300FD5D0200276203007F
:10C09000414A0300276203001116020027620300D1
:10C0A0002762030027620300276203002762030060
:10C0B0002762030027620300000000000000000068
:10C0C0002762030027620300276203002762030040
:10C0D0002762030027620300276203002762030030
:10C0E00027620300000000000000000000000000C4
:10C0F0000000000027620300000000002762030028
:10C10000000000000000000000000000000000002F
:10C11000000000000000000000000000000000001F
:10C12000000000000000000000000000000000000F
:10C1300000000000000000000000000000000000FF
:10C1400000000000000000000000000000000000EF
:10C1500000000000000000000000000000000000DF
:10C1600000000000000000000000000000000000CF
:10C1700000000000000000000000000000000000BF
:10C1800000000000000000000000000000000000AF
:10C19000000000000000000000000000000000009F
:10C1A000000000000000000000000000000000008F
:10C1B000000000000000000000000000000000007F
:10C1C000000000000000000000000000000000006F
:10C1D000000000000000000000000000000000005F
:10C1E000000000000000000000000000000000004F
:10C1F000000000000000000000000000000000003F
:10C2000010B5054C237833B9044B13B10448AFF390
:10C2100000800123237010BD882000200000000052
:10C220008C92030008B5034B1BB103490348AFF3DD
:10C23000008008BD000000008C2000208C920300CC
:10C24000154B002B08BF134B9D46A3F5803A0021E8
:10C250008B460F461348144A121A1BF0C9FB0F4BAA
:10C26000002B00D098470E4B002B00D098470020A1
:10C27000002104000D000D48002802D00C48AFF347
:10C2800000801BF067FB2000290000F04DFD1BF033
:10C290004DFB00BF0000080000FD01200000000071
:10C2A0000000000088200020D44B00200000000087
:10C2B000000000003FDF704741DF704730B52D4B75
:10C2C00014461B68526887B00D4603F4804352B38E
:10C2D000F3B1294B1B68032B1ADD2F2127481BF0D4
:10C2E00057FCB8B12F2125481BF052FC411C244BB0
:10C2F0006268D3F80435049262780392227802923D
:10C300006A8801921F4A00920420B1220AF092FD2D
:10C3100007B030BD5C2119481BF03AFC08B15C2124
:10C32000E1E71649E3E7002BF2D0134B1B68032B20
:10C33000EEDD2F2111481BF02BFC90B12F210F486F
:10C340001BF026FC411C0E4B2278D3F804350292D8
:10C350006A8801920C4A00920420B6220AF06AFD13
:10C36000D6E75C2105481BF013FC08B15C21E6E729
:10C370000249E8E7BC1F0020B81F0020477C0300EB
:10C38000001001406F7C0300C17C030010B54F4AD0
:10C390004F4C137886B0591C11708DF80D30322136
:10C3A0006423CDE9043123688DF80C0058041AD5B4
:10C3B000484B1B68032B16DD2F2147481BF0E8FB79
:10C3C00000283DD02F2144481BF0E2FB411C434B89
:10C3D0009DF80C20D3F804350192414A00920420C4
:10C3E000E1220AF027FD022304AA03A93D4811F027
:10C3F00067FB072841D02CD878B304285FD1236885
:10C400005A0416D5334B1B68002B12DD2F213248FE
:10C410001BF0BEFB40B32F212F481BF0B9FB411C82
:10C420002E4B314AD3F804350092F52201200AF050
:10C4300001FD062232214FF4F03000F0F9FF11E047
:10C440005C2125481BF0A4FB08B15C21BBE7224915
:10C45000BDE70828D3D01128D0E79DF80C100D2097
:10C4600000F0D0FF06B010BD5C211B481BF090FB14
:10C4700008B15C21D0E71849D2E723685B04D8D51E
:10C48000144B1B68002BD4DD2F2113481BF080FBBD
:10C4900060B12F2110481BF07BFB411C0F4B134A4E
:10C4A000D3F80435009240F20312BFE75C210A483A
:10C4B0001BF06EFB08B15C21ECE70749EEE7064A8A
:10C4C0004FF4857119F0BDFECCE700BFFC200020C1
:10C4D000BC1F0020B81F0020477C03000010014053
:10C4E0009F7F0300A4200020BA7F0300D37F0300B6
:10C4F0000020FFF74BBF000007B5174B1B685B041C
:10C5000016D5164B1B68032B12DD2F2114481BF088
:10C510003FFBC0B12F2112481BF03AFB411C114BCD
:10C52000114AD3F8043500920420C4220AF082FC98
:10C530000322C8214FF4F03000F07AFF03B05DF819
:10C5400004EB00F0C1BD5C2105481BF021FB08B1E4
:10C550005C21E0E70249E2E7BC1F0020B81F002091
:10C56000477C030000100140557F030030B58A4C22
:10C5700023685A0487B0054618D5884B1B68032BDF
:10C5800014DD2F2186481BF003FB78B32F2184484C
:10C590001BF0FEFA411C834B834AD3F8043500920A
:10C5A000019540F24D1204200AF044FC00F08AFD8F
:10C5B00070BB23685B0417D5784B1B68012B13DD18
:10C5C0002F2177481BF0E4FAC8B12F2174481BF0E3
:10C5D000DFFA411C734B754AD3F8043500920220F0
:10C5E00040F251120AF026FC07B030BD5C216C48C5
:10C5F0001BF0CEFA08B15C21C9E76949CBE75C21A1
:10C6000067481BF0C5FA08B15C21DFE76449E1E740
:10C61000674818F013FC20B1614A40F2551119F037
:10C6200010FE032DE0D8DFE815F0040017001D0010
:10C630001B010120FFF7AAFE00224FF420315C48C5
:10C6400018F0B4FB0028CFD0554A4FF4AF7107B0B3
:10C65000BDE8304019F0F5BD002007B0BDE830401E
:10C66000FFF794BE0DF0B2FC2368002840F0A880CC
:10C670005D0417D5494B1B68032B13DD2F21484858
:10C680001BF086FA80B32F2145481BF081FA411C2C
:10C69000444B484AD3F804350092042040F211126A
:10C6A0000AF0C8FB9DF81430042262F3061303F06D
:10C6B000F303022262F301038DF8143006AA42F25A
:10C6C00010730493642342F80C3D4FF47A7307CA45
:10C6D0000DF082FB07283DD008280ED0002883D01B
:10C6E0002F4A40F22F11B2E75C212D481BF050FA7F
:10C6F00008B15C21C8E72A49CAE72368580417D55E
:10C70000264B1B68002B13DD2F2125481BF040FA18
:10C71000B8B12F2122481BF03BFA411C214B264A7D
:10C72000D3F80435009240F2211201200AF082FB76
:10C73000062232214FF4F03007B0BDE8304000F05F
:10C7400077BE5C2116481BF023FA08B15C21E1E7B3
:10C750001349E3E723685904EAD5104B1B68002B03
:10C76000E6DD2F210E481BF013FA60B12F210C4893
:10C770001BF00EFA411C0B4B104AD3F80435009203
:10C780004FF49472D1E75C2105481BF001FA08B11F
:10C790005C21ECE70249EEE7BC1F0020B81F002037
:10C7A000477C030000100140B97D0300CC7D0300ED
:10C7B000DC200020EC7D0300207E0300417E03008E
:10C7C0005A0417D52B4B1B68032B13DD2F212A4846
:10C7D0001BF0DEF970B32F2127481BF0D9F9411C5B
:10C7E000264B274AD3F80435009204204FF49B725D
:10C7F0000AF020FB0DF0D8FB00283FF4F5AE082826
:10C800002AD123685B0493D51A4B1B68002B8FDD5C
:10C810002F2119481BF0BCF9A8B12F2116481BF095
:10C82000B7F9411C154B174AD3F80435009240F272
:10C830003F127AE75C2110481BF0AAF908B15C218D
:10C84000CAE70D49CCE75C210B481BF0A1F908B100
:10C850005C21E3E70849E5E7074A4FF4A371F6E6F0
:10C8600010F0E2FF00F0E4FB07B0BDE83040FFF756
:10C8700043BE00BFB81F0020477C030000100140EA
:10C88000757E0300987E03003038032801D8FFF737
:10C890006DBE704703781C2B01D1FFF72DBE70478A
:10C8A0007FB50378153B0446052B00F29080DFE846
:10C8B00013F006008E0099007200BF00ED008F4D4E
:10C8C0002A68530400F1040619D58D4B1B68032B0D
:10C8D00015DD2F218B481BF05BF918B32F218948F8
:10C8E0001BF056F9411C884BA288D3F804350192FD
:10C8F000864A009204204FF4CA720AF09BFA30462E
:10C900000DF0BCFA0828044615D8072815D20028CF
:10C910005DD07C4A40F2A911204604B0BDE87040C9
:10C9200019F08FBC5C2177481BF032F908B15C210B
:10C93000D5E77449D7E70E28EBD12B685D0418D5ED
:10C940006F4B1B68002B14DD2F216E481BF020F964
:10C95000C0B12F216B481BF01BF9411C6A4B6C4A7C
:10C96000D3F804350092019440F2A11201200AF09C
:10C9700061FA062232214FF4F03004B0BDE8704075
:10C9800000F056BD5C215F481BF002F908B15C2144
:10C99000E0E75C49E2E7594B1B68580417D5584B50
:10C9A0001B68032B13DD2F2156481BF0F1F880B1D3
:10C9B0002F2154481BF0ECF8411C534B554AD3F837
:10C9C00004350092042040F2B1120AF033FA04B0A8
:10C9D00070BD5C214B481BF0DBF808B15C21E8E737
:10C9E0004849EAE7454B1B685904C2D5444B1B68CC
:10C9F000032BBEDD2F2143481BF0CAF878B12F214D
:10CA000040481BF0C5F8411C3F4B434AD3F804355E
:10CA10000092042040F2B5120AF00CFAA9E75C215A
:10CA200038481BF0B5F808B15C21E9E73549EBE778
:10CA3000324B1B685A0419D5314B1B68032B15DD8B
:10CA40002F2130481BF0A4F8B8B12F212D481BF03E
:10CA50009FF8411C2C4B2289D3F8043501922F4AB0
:10CA60000092042040F2C3120AF0E4F901210E20E2
:10CA700004B0BDE8704000F0C5BC5C2121481BF04B
:10CA800087F808B15C21E1E71E49E3E71B4B1B680F
:10CA90005B041BD51A4B1B68032B17DD2F2119488C
:10CAA0001BF076F800B32F2116481BF071F8411CDB
:10CAB000154BA27AD3F80435029222890192184AC2
:10CAC000009204204FF4E9720AF0B4F90E2000211C
:10CAD00000F098FC134818F0B1F900283FF477AF44
:10CAE000084A4FF4EC7118E75C2106481BF050F837
:10CAF00008B15C21D8E70349DAE700BFBC1F00207A
:10CB0000B81F0020477C030000100140EA7C0300AE
:10CB10000D7D03002B7D03004B7D0300657D03002D
:10CB20008A7D0300DC20002007B51E4B1B685B04D8
:10CB300017D51D4B1B68032B13DD2F211B481BF042
:10CB400027F818B32F2119481BF022F8411C184B65
:10CB5000184AD3F804350092042040F2E3120AF098
:10CB600069F91548154B036301210023836280F89E
:10CB70002C3080F82D3010F077FF80B10B4A4FF445
:10CB8000F57103B05DF804EB19F05BBB5C2107485D
:10CB90001AF0FEFF08B15C21D5E70449D7E703B0DE
:10CBA0005DF804FBBC1F0020B81F0020477C030079
:10CBB00000100140357F0300A4200020B87E030050
:10CBC00010B5044600214FF4F03004EB840400F06B
:10CBD00025FC620032214FF4C030BDE8104000F067
:10CBE00027BC00F057BC00001FB5304C226852042F
:10CBF00017D52F4B1B68032B13DD2F212D481AF05F
:10CC0000C7FF002840D02F212A481AF0C1FF411C3D
:10CC1000294B2A4AD3F80435009204208D220AF0C9
:10CC200009F904F05DF804F083F803A816F03AFD62
:10CC300023685B0419D51E4B1B68032B15DD2F21C0
:10CC40001C481AF0A5FF40B32F211A481AF0A0FF84
:10CC5000411C194BBDF80C20D3F804350192184A39
:10CC6000009204209A220AF0E5F800F013FC00215B
:10CC70004FF4F03000F0D2FB0422C8214FF4F03022
:10CC800000F0D6FB04B010BD5C210A481AF080FF0A
:10CC900008B15C21B8E70749BAE75C2105481AF0FA
:10CCA00077FF08B15C21D0E70249D2E7BC1F002022
:10CCB000B81F0020477C0300001001406E7F030076
:10CCC000887F030007B5134B1B685B0416D5124B16
:10CCD0001B68012B12DD2F2110481AF059FF80B17B
:10CCE0002F210E481AF054FF411C0D4B0D4AD3F86A
:10CCF000043500920220A6220AF09CF803B05DF8E9
:10CD000004FB5C2105481AF043FF08B15C21E8E709
:10CD10000249EAE7BC1F0020B81F0020477C03003F
:10CD200000100140287C030000B56B4C6B4A8DB0AD
:10CD300004214FF4C0400AF061F82268520419D56A
:10CD4000674B1B68032B15DD2F2166481AF020FF67
:10CD5000002800F0A8802F2162481AF019FF411C1A
:10CD6000614B624AD3F80435009204204FF40572F7
:10CD70000AF060F817F0AEFF20B15A4A40F21621CF
:10CD800019F05FFA00F096FB594800F0BFFB20B1A4
:10CD9000544A40F21D2119F054FA03F087FF03F0C2
:10CDA0009FFF03F0C5FF0021202203A81AF020FEF8
:10CDB00001238DF80C3007238DF80F3006238DF8F2
:10CDC00014304C4B07934C494C4B0B9303A800F089
:10CDD0003BF9E8B10B2878D123685B0418D5404BA8
:10CDE0001B68032B14DD2F213E481AF0D1FE0028CA
:10CDF00062D02F213B481AF0CBFE411C3A4B404AEF
:10CE0000D3F80435009204204FF4FE720AF012F8B1
:10CE10003C4807F02BFF0120FFF74CFA20B1314AC4
:10CE200040F22E2119F00DFA0CF0B4FF64213648BF
:10CE300000F088FA354A3648002117F0A5FF20B1E6
:10CE4000284A40F23A2119F0FCF92B4B1B7883B9A0
:10CE5000304D0FCD03AC0FC495E8030084E8030008
:10CE600003A800F021FA20B11E4A4FF4127119F004
:10CE7000E8F904F099FE00F0A1FB00F05BF820B1A6
:10CE8000184A40F24D2119F0DCF900214FF4F0303E
:10CE900000F0C4FA0222C8214FF4F03000F0C8FAC2
:10CEA000FFF70AFAFCE75C210E481AF071FE08B1A0
:10CEB0005C2151E70B4953E75C210A481AF068FEF0
:10CEC00008B15C2196E7074998E7064A40F201213C
:10CED00019F0B7F99CE700BFBC1F0020D16D02001C
:10CEE000B81F0020477C030000100140C87E0300EB
:10CEF0006DC5010095C80100D820002029CB010094
:10CF0000E77E0300601F002089C80100F1C4010012
:10CF1000C47E0300107C030010B504460AF0D2FC66
:10CF200038B123780E2B04D10020BDE8104007F063
:10CF3000F7BE10BD08B517F0C9FC20B110F008F914
:10CF400008B110F087F8BDE8084007F023BE0000E4
:10CF500070B5837DC27D86B043EA0223ADF81430FC
:10CF60000446022305A80E46ADF8163016F064FB01
:10CF70000546002845D104AA2146208A16F02AFD3C
:10CF8000054600283DD10DF112033246BDF81010C0
:10CF9000E08A16F0A7FF0546002832D1217ED4F89A
:10CFA000120001F0010107F09BFA10B1784604F07D
:10CFB000C3FDBDF8120013F0B3F8054608BB174BCC
:10CFC0001B681B031DD5164B1B68062B19DD2F2173
:10CFD00014481AF0DDFDB8B12F2112481AF0D8FD1F
:10CFE000411C227E104B02F00102D3F8043502925C
:10CFF000D4F8122001920D4A00920720C62209F0AF
:10D0000019FF284606B070BD5C2106481AF0C0FD25
:10D0100008B15C21E1E70349E3E700BFBC1F002042
:10D02000B81F00201480030000100140338003006B
:10D0300008B508F0C3F914F089FC16F05BFABDE8F6
:10D04000084007F03BB8000073B50E460546A0B394
:10D0500007F03AFD044668BB16F0D6FA14F0D2FC8D
:10D06000286913F02DF8044620BB2B7F0193AB6990
:10D07000009301466B691248592213F0EDFA0446F9
:10D08000C0B92B6A03B198470BF0A6FF16F0E4F97C
:10D09000054614F0C9F90B2D01D00B2802D1FFF77A
:10D0A000C7FF0B2417F012FC054608B10FF090FFE4
:10D0B00006B13570204602B070BD0E24FAE700BFFD
:10D0C0000021002017F002BC08B50AF0FBFB20B1DC
:10D0D0000020BDE8084007F023BE0248BDE8084034
:10D0E00007F0C4BD6C1F002030B5274D297885B0EE
:10D0F00019B1012803D003283FD005B030BD04ACDE
:10D10000002344F8083D214604F020F908B119F045
:10D110008BF8204604F07EF908B119F085F804A9CF
:10D12000012341F8043D0DF1060016F0BDFE08B1E3
:10D1300019F07AF8BDF8060016F0D3FB0DF10501E1
:10D1400016F0DAFC08B119F06FF80FF041FF9DF806
:10D150000510002010F09CFB10B1784604F0ECFCA8
:10D1600007F018FD08B119F05FF800232B70074B8A
:10D170001B68002BC1D09847BFE704F0B3F9002823
:10D18000BBD019F051F8B8E75A2100205C210020EB
:10D1900008B503781C2B0CD1064B1B784BB104F05F
:10D1A000DDF908B119F040F80348BDE8084007F080
:10D1B0005FBD08BD5A210020781F002010B5074927
:10D1C000074818F00BFA024638B9064906480969BB
:10D1D0000223BDE8104018F01ABA10BD74210020D7
:10D1E000182300205C210020E421002010B50378E2
:10D1F000023B082B4AD8DFE803F01E0512494938E4
:10D2000049493F00224B5B68002B3FD0007A002841
:10D210003CD0204A01211170BDE8104018471C4B3A
:10D220009B68002B32D01B4A117879B30021117012
:10D23000BDE810401847184B1A784AB9144BDB6800
:10D2400013B114490A709847BDE81040FFF7B6BF04
:10D25000124B134801221A7007F008FD07F0EEFC8C
:10D26000A0B1BDE8104018F0DFBF094B0D48596967
:10D27000102218F011FAF3E7D0E90210FFF768FE68
:10D2800008B118F0D1FF044B01221A7010BD00BF85
:10D290005C21002058210020592100205A21002023
:10D2A000781F0020E421002070B5184A184E5168FC
:10D2B000044686B0106803AB03C31189927A1980C3
:10D2C0009A700FCC35460FC594E8030085E803003B
:10D2D0007369C3B10F4B00930F4A1049104803AB59
:10D2E00018F04EF968B90F4818F07AFE48B90D48A1
:10D2F00018F0A8FE01460A4818F05CF908B9FFF7D3
:10D300005DFF06B070BD0720FBE700BF5380030040
:10D310005C210020EDD101007421002018230020A1
:10D32000E42100209421002010B5054C226832B180
:10D3300019F0B8F8002802DB23689847F8E710BD19
:10D3400058230020154B164A10B50C4618600121D1
:10D35000144817F019FD18B1134A4A2118F071FF4B
:10D36000610C0023E00341F26F728B4208BF8242DE
:10D3700010D24FF47A7200231AF058F901460022B5
:10D380000A4817F013FD38B1074A4B21BDE8104099
:10D3900018F057BF0521F2E710BD00BF5823002049
:10D3A00029D3010060800300648003005C23002017
:10D3B00070B5104C206808B918F036FF4FF0A04542
:10D3C0000D4ED5F8043532685340C5F8043523684E
:10D3D000013B236063B9094817F030FD3268D5F886
:10D3E000043523EA0203064A12681343C5F80435DC
:10D3F00070BD00BF7C2300208023002084230020F8
:10D40000AC230020012303FA00F04FF0A04311B138
:10D41000C3F80C057047C3F8080570474FF0A043E8
:10D4200011B1C3F80C057047C3F808057047000038
:10D43000F8B52AB3132923D9124B134D5200013AE0
:10D440004FF0A0441A602860D4F8043518400F4B00
:10D450004FF4FA76186000274FF40040E0FB0167B4
:10D460004FF47A720023304639461AF0DFF8002272
:10D470000146074817F09AFC10B92B68C4F80C3520
:10D48000F8BD00BF7C23002080230020AC230020B7
:10D490008423002008B5054817F0D0FC044B1A6817
:10D4A0004FF0A043C3F8082508BD00BF8423002027
:10D4B0008023002008B54FF0A04303224FF4005111
:10D4C000C3F83427C3F808154FF48041C3F8382750
:10D4D000C3F808154FF40041C3F83C27C3F80815FA
:10D4E000C3F840274FF48032C3F808250121054ACC
:10D4F000054817F049FC18B1BDE8084018F094BE83
:10D5000008BD00BFB1D3010088800300D8B10F4B24
:10D510000F4A18604FF0A0430020C3F82C27C3F82F
:10D520003027C3F86027C3F864270A4B4FF0004246
:10D53000C3F80423C3F87C01074BC02283F80623F9
:10D5400040221A6070470E20704700BFA4230020BD
:10D550000C0003000060004000E100E0124B70B5D9
:10D560000024124E124DC3F87C414FF0A043A15D40
:10D57000D3F8102501238B40934311D00D49D5F8E2
:10D5800004250B68981A48BFD01A43F233339842E7
:10D5900006D9D5F804350B60074B20461B68984721
:10D5A0000134042CE1D170BD006000408C80030088
:10D5B00000100140A8230020A423002070B50446D9
:10D5C000CEB0002864D03C4D2A6852042FD53B4B86
:10D5D0001B68032B2BDD3A4B0DAE19680023E25C70
:10D5E000100902F00F02085C06F81300885C06EBD5
:10D5F00043020133102B5070F1D100232F21314809
:10D6000086F820301AF0C4FA002843D02F212D4884
:10D610001AF0BEFA411C2C4B2C4AD3F80435019267
:10D620002B4A009202964122042009F003FC2B6849
:10D630005B042DD5214B1B68032B29DD2F212148AD
:10D640001AF0A6FA00282ED02F211E481AF0A0FAB0
:10D65000411C1D4BE27BD3F804350B92A27B0A924E
:10D66000627B0992227B0892E27A0792A27A069262
:10D67000627A0592227A0492E2880392A288029248
:10D6800022680192134A00920420462209F0D2FB3C
:10D690004EB070BD5C210B481AF07AFA08B15C21DB
:10D6A000B5E70849B7E75C2106481AF071FA08B1F6
:10D6B0005C21CAE70349CCE7BC1F0020B81F00204B
:10D6C000C01F00209080030000100140B8800300BC
:10D6D000CA800300D2800300ADDF7047AEDF704721
:10D6E000B0DF70473CDF70473DDF704770B50446E0
:10D6F00088B028B10388112B1CD003D8102B15D06B
:10D7000008B070BD512B1DD0532BF9D12D4DC288BF
:10D71000EB889A42F4D12B7E002BF1D000F01EF959
:10D720000028EDD06B6902209847E9E78288254BF5
:10D730009A80E5E7234B81889A889142E0D14FF6A1
:10D74000FF72F5E71F4D8288AB889A42D8D186795F
:10D75000022ED5D10289EB889A42D1D1837B043B3A
:10D76000022BCDD9102200210DEB02001AF040F956
:10D7700001AB02AA6989A8888DF81060029603930C
:10D78000FFF7AAFFD8B9184604F0D0F8B8B19DF851
:10D79000163043F001038DF816300023ADF8143035
:10D7A00004A9A888FFF79CFF1128F9D0BDF8143010
:10D7B000002BA5D104F1080000F07CF8A0E740F2AE
:10D7C000FD13EBE7B023002030B587B005460C46CB
:10D7D0001022002102A81AF00BF90323ADF8023041
:10D7E00020238DF804300F4B8DF80550DA88ADF802
:10D7F000082002228DF80A200022ADF80C200DF13D
:10D800000202049202A901AA98888DF806400592A6
:10D81000FFF764FF20B9BDF80230032B18BF0C20BE
:10D8200007B030BDB023002010B54FF0FF3100200D
:10D83000FFF75AFF044658B9B121FFF753FF0446DA
:10D8400030B9044B01205B699847022001F04CF984
:10D85000204610BDB023002070B514490B6823B3D7
:10D860004B6813B30831984708281ED0104C236822
:10D87000254658B9587601210220FFF7A5FFA0B12F
:10D8800023685B690320BDE87040184700225A7680
:10D8900006210220FFF798FF18B1236803205B6977
:10D8A00098472B6802205B69EDE770BDEC230020F0
:10D8B000E823002070B50546007B254C012803D0E5
:10D8C000022825D0022117E023685E7E56B106218A
:10D8D000FFF77AFF002835D023685B690320BDE895
:10D8E0007040184718760146FFF76EFF50B3236863
:10D8F00011281E7627D00421287BFFF765FF18B179
:10D90000236803205B699847236802205B69E6E788
:10D910006A7B531E132B18D80E4E05F10E01301DD5
:10D920001AF05BF86B7BB36123685B7E002BE2D15E
:10D930000949304651F8083B98470028DBD1236855
:10D9400001225A7670BD0621D6E70521D4E700BF33
:10D95000E8230020CC230020EC23002008B5044B52
:10D960001B6800205B699847BDE80840FFF75CBF73
:10D97000E8230020F7B5174601900E4691B1019CAF
:10D980006CB100252C46294601A800F0D5F918B144
:10D990003946A8B2B04701340135142DF3D12046E1
:10D9A00003B0F0BD0C46FAE70AB100F0A4B900F0EC
:10D9B000B9B973B50191019C06466CB100252C469E
:10D9C000294601A800F0B8F918B106EB4403013468
:10D9D0009D800135142DF3D13046346002B070BD06
:10D9E0002DE9F04303888488103B8DB005460A2B4F
:10D9F0001ED8DFE803F006431D1D1D1D1D1D1D6300
:10DA00004800334EB3680CA8DB4340F8303D56F86D
:10DA1000041F03F05BFF009901A8FFF7CAFF00276E
:10DA2000019B9F4207D3132C18D9042018F0FCFB4C
:10DA30000DB0BDE8F08301AB03EB47034FF00008E6
:10DA4000B3F8049006EB0800494608F1040800F01A
:10DA500069F9B8F1780FF5D10137E1E721461D48A2
:10DA600000F049F921461C4800F045F9EB7B012BF9
:10DA7000DED02146194800F03EF9D9E72146154885
:10DA800000F050F9D4E7057A15482D09032D94BF0D
:10DA9000002201222146FFF787FF022D94BF0022BA
:10DAA000012221460F48FFF77FFF012D0E4894BF4A
:10DAB000002201222146FFF777FFB9E7037A002B06
:10DAC000B6D1427A0648C2F3C0022146F3E700BF4E
:10DAD000F823002000240020FC2300200424002040
:10DAE000102400200C2400200824002013280146C4
:10DAF00002D8024800F020B900207047FC23002023
:10DB0000FFF7F4BF10B50446FFF7F0FF38B1214628
:10DB1000034800F011F9002814BF0220012010BDB5
:10DB20000024002010B50446FFF7E0FF28B121468D
:10DB30000248BDE8104000F0FFB810BD08240020E6
:10DB400010B50446FFF7D2FF28B121460248BDE8D0
:10DB5000104000F0F1B810BD0C24002010B50446B0
:10DB6000FFF7C4FF28B121460248BDE8104000F08D
:10DB7000E3B810BD1024002070B50A4D06462846B3
:10DB80000C4600F0D9F858B13046FFF7AFFF38B176
:10DB9000E01D314605EB8000BDE8704000F0CCB8D8
:10DBA000002070BDF8230020F8B50B4D064628462E
:10DBB0000C46174600F0C0F860B13046FFF796FFFC
:10DBC00040B1E01D3A46314605EB8000BDE8F84023
:10DBD000FFF7EABEF8BD00BFF8230020F8B50A4CF5
:10DBE00005460E4601462046174600F0A5F848B106
:10DBF000063504EB85043A4660683146BDE8F840D6
:10DC0000FFF7B8BEF8BD00BFF823002037B550E8D5
:10DC1000013F9DB2C48925448489A54228BF2D1B9C
:10DC20000489A54202BFBFF32F8F002207E0C5EA97
:10DC3000030540E80154002CE9D14FF001028DF8B2
:10DC400003200193019B9DF803200B6002F0FF036A
:10DC500022B10B880068184403B030BD1846FBE7BA
:10DC60000A884B889A4209D150E8012FC2EA024241
:10DC700040E80123002BF7D10120704700207047B6
:10DC800037B550E8023F1FFAA3F5C488A54202BF8A
:10DC9000BFF32F8F00220DE0C48925448489A5425B
:10DCA00028BF2D1BC3EA054540E80254002CE8D1EB
:10DCB0004FF001028DF803200193019B9DF8032092
:10DCC0000B6002F0FF0322B14B880068184403B0D8
:10DCD00030BD1846FBE70A884B889A4209D150E8C4
:10DCE000022FC2EA224240E80223002BF7D1012092
:10DCF00070470020704701F01F024B09012191403D
:10DD000000EB830003F0D7BD4B0910B501F01F04F1
:10DD10000121A14000EB830003F0C2FDE04000F0D0
:10DD2000010010BD01F01F0301229A404B0900EBD6
:10DD30008300D14303F0CABD4B0901F01F0150F825
:10DD40002300C84000F0010070472DE9F0474E1E47
:10DD5000760980460F460136002558F8254008EB25
:10DD6000850AE44394FAA4F4B4FA84F44FEA45191A
:10DD7000202C06D10135AE42EFD83C462046BDE806
:10DD8000F0874C44A742F5D921464046FFF7BCFF37
:10DD90000028F3D0DAF80040E44394FAA4F4B4FA8B
:10DDA00084F4E5E770B5064E0546002456F82430A5
:10DDB0000BB1284698470134042CF7D170BD00BF41
:10DDC00080240020033080B240F2FE33984230B508
:10DDD0001FD8134B1A783AB91C895D892C44044426
:10DDE000A4B2B4F5806F0AD91A7DAAB99A8BDC8BDC
:10DDF0002244024492B2B2F5806F0DD801220A800B
:10DE00001446142202FB04335A891044588100201E
:10DE100030BD48F20860FBE748F20660F8E700BF53
:10DE2000B42400200B4A0C4B5188142000FB013114
:10DE3000CB6833B90420496810700122074800F00C
:10DE40003EBD05230649137002238B800122002367
:10DE50000968F3E798240020B424002070200020F3
:10DE6000F024002007B5002305490093054A0968FE
:10DE70000548082300F0F5FC03B05DF804FB00BF83
:10DE8000F0240020208103007020002007B500232B
:10DE9000009301460823034A034800F0E2FC03B064
:10DEA0005DF804FB188103007020002013B50023E7
:10DEB0000C46009301460423074A084800F0D1FCB1
:10DEC00038B9074B142202FB04340123237402B037
:10DED00010BD48F20D60FAE71481030070200020A5
:10DEE000B424002037B50A480A4B42689C88196858
:10DEF00053880325033305709BB2002000909B00DC
:10DF000001EB8401044800F0ACFC03B030BD00BF5D
:10DF100098240020F02400207020002010B5014635
:10DF20000448FFF773FE1C220446002119F060FD2F
:10DF3000204610BDDC2400204388033300EB83031C
:10DF400099420BD382884FF6FF739A4208D0038818
:10DF500033B18068431C58425841704702207047D3
:10DF60000120704770B5144A142303FB00200B688E
:10DF700044680D4604F580569BB15C88033403EB7E
:10DF80008404B4420BD22368013308D031462046C2
:10DF9000FFF7D2FF012809D005D30228F1D10020D4
:10DFA00003E00834EDE72C60012070BD6388033383
:10DFB00004EB8304E5E700BFB424002073B5436895
:10DFC00005460C4673B3254AD1688B422AD31269A1
:10DFD000934227D813F0030224D1214900890989EB
:10DFE00088421FD12868996888421BD11D4948681A
:10DFF000834203D900F5805083420ED38A6993424D
:10E000000DD902F58052934209D2012323800020CA
:10E01000B0FA80F0400902B070BD1346F6E748F24E
:10E020000960F5E7002323801E462388012B01D9D0
:10E030000020F0E7019601A92088FFF793FF18B9A7
:10E04000238801332380F0E7019B2A689968914275
:10E05000F1D16B60024B1B892B81DCE77020002023
:10E0600098240020B42400202DE9F8431C46204BBE
:10E070001B7806460F461546002B33D0002A34D0B5
:10E08000002C32D0DFF870804FF01409A388012BE8
:10E0900002D948F209601BE009FB03F318F80330CA
:10E0A000C3B1A3880133A380F0E723681EB1998828
:10E0B000328891420ED11FB119883A88914209D114
:10E0C0009B682B6023686B600A4B1B892B810020A7
:10E0D000BDE8F8832146A088FFF744FF0028E4D17B
:10E0E0002060DEE748F20160F2E748F20460EFE703
:10E0F0009024002098240020B424002008B5074B69
:10E10000191D5888FFF72EFF18B1BDE80840FFF72A
:10E11000E9BEBDE80840FFF785BE00BF9824002097
:10E120002DE9F04FA34FDFF8B09289B00646B8460C
:10E130003B6823B94946A048FFF7A2FD3860D8F8EC
:10E14000005029784B1E052B00F21781DFE813F0F1
:10E150000600780078000B010B0165012EB1974B8A
:10E1600000225A604FF4064425E02B79032B1DD87A
:10E17000DFE803F01502434E91490B78022B084665
:10E1800032D00B7D022B4FF001032FD114225343C9
:10E19000C2180020C8545068FFF778FE03E001233E
:10E1A0002B71FFF75FFE002800F0D780834B002221
:10E1B0005A6048F20D641422002103A819F018FCDB
:10E1C00041F61D539C4208BF0024D8F80030049447
:10E1D0001A78023A042A00F2D981DFE812F0BA0173
:10E1E000C601E901F101F8010023CFE7734A13707A
:10E1F0000023536041F61D54DDE772497248002345
:10E2000002222B718A800122096800F058FBCAE7BC
:10E210006C4C00262E712068694DFFF737FE6B4B62
:10E22000D4F800C05A8814235343EA18EE545168B6
:10E230002160A188C2F804C011810222A280B2E745
:10E24000B5F814A0AA7DDFF878B11423AEB1022A84
:10E2500006D903FB0AB3EA88198903320A441A81F2
:10E26000142303FB0ABAEB88BAF80A20C3F57F43EC
:10E27000FD331344AAF80A3074E703FB0AB3188984
:10E280005C6804EB8004062A05D8DFE802F0284F1A
:10E2900037451E5B690048F20E64AB7D022B07D93F
:10E2A000142202FB0AB2EB88118903330B44138159
:10E2B000142303FB0ABAEB88BAF80A20C3F57F439C
:10E2C000FD331344AAF80A3075E741484149002359
:10E2D0004360AB690360FFF771FE00285CD0022346
:10E2E000AB75002300930423EA182146364800F05A
:10E2F000B8FA002831D048F20D64CEE72B69002B24
:10E300000CBF01230323AB750023009305F10C021E
:10E31000042304F10801E9E70123AB750022EB882F
:10E3200000929B002A6904F10C01DFE7032914BF66
:10E3300006230523AB7500230093042305F108028F
:10E34000E118D3E70623AB75224B1988204B586898
:10E35000FFF7ACFD044600289FD109B0BDE8F08F5F
:10E3600041F61D5499E7002E7FF4FCAE2B79012B6A
:10E3700034D005D3022B3FF43DAF48F20E641AE7C8
:10E3800002232B71CDE904660DF10A01EB680393BA
:10E3900003A8FFF713FE10B948F209640BE70498CD
:10E3A000BDF80A108388EB8003882B81FFF77EFD80
:10E3B000044628E0B0240020DC2400209024002023
:10E3C000B4240020F0240020702000209824002095
:10E3D00074240020F8240020A8240020DFF80CA2D8
:10E3E00003AA53463146A81DFFF73EFE044670B906
:10E3F000BAF804100498FFF759FD044648F209637F
:10E400009C423FF4F7AE002C7FF4D5AEA5E708227E
:10E410003146504619F0ECFAF0E7002E7FF4A2AE38
:10E420006D4B1A7BB2B11E731A78013A062AA4D832
:10E4300001A151F822F000BFDFE4010005E5010071
:10E4400023E5010029E501007BE301002FE5010040
:10E4500045E501001A78072AE6D801A151F822F013
:10E4600081E4010029E4010029E40100A7E401009E
:10E47000BBE40100DBE40100DBE40100A3E40100F4
:10E480001A89564901321A8100225A801A730A7871
:10E49000B2FA82F252099A720A7DB2FA82F25209F3
:10E4A000DA72012207E04E4958688A8840880332B0
:10E4B00002448A8002221A70B6E7484C5A884849BA
:10E4C000142505FB02420868546850608888108152
:10E4D00002228A800C600622EDE70722EBE79A7A97
:10E4E00032B9DA7A8AB900221A705A805A6081E603
:10E4F0003A4900229A72CA68002AF2D1097C00299E
:10E50000EFD05A80FFF7FAFD52E70022DA72334A61
:10E51000116A0029E7D192F82420002AE3D00122D1
:10E52000EFE7FFF7DFFC43E7FFF77CFC40E706225D
:10E530001A702A4A5B88142101FB03235868FFF7ED
:10E54000A5FC35E707221A7000225A60FFF78AFC03
:10E550002EE701228DF80C201A89ADF818209A8830
:10E56000ADF81A20DB68059310E002228DF80C202C
:10E570001A89ADF818209A88ADF81A20DA68059241
:10E580009B7D9A1F534253418DF81C3003A8FFF71F
:10E5900009FC002649461348C8F80060FFF79BFBBA
:10E5A0000121114803F0B3F900287FF4C1ADD4E68E
:10E5B00003228DF80C20DA88ADF818201A89CFE7ED
:10E5C00004228DF80C20DB88ADF81830DEE7052337
:10E5D0008DF80C30DAE700BF98240020B424002026
:10E5E000F0240020DC240020EC240020FC24002067
:10E5F0004068FFF795BD000008B50121044803F00D
:10E6000070F918B9BDE80840FFF78ABD08BD00BF22
:10E61000EC2400202DE9F3419846364B1B78064642
:10E620000D46002B5AD000295BD009884FF6FF73A6
:10E63000994259D06B88002B56D06B689B0756D1F6
:10E640004AB92F890DF102013846FFF7BBFB30B103
:10E6500002B0BDE8F08113885788ADF8023001A8F8
:10E66000FFF75CFC044660B9BDF80230224A142171
:10E6700001FB032358890338C01B588148F2076007
:10E68000E6E780F8008000238375BDF802308382BE
:10E690006B6803610121194803F02EF9E0602B88B3
:10E6A00023816B88A380B8F1030F04BF0423A375F3
:10E6B000E78004BF3368A3610025658101A9104884
:10E6C000FFF7CEFA36B17560E36833600D4BB57273
:10E6D0001B893381FFF790FF0020B9E748F2016002
:10E6E000B6E748F20460B3E748F20360B0E748F2E7
:10E6F0000260ADE790240020B4240020AC24002068
:10E70000DC2400209824002073B50D460446C8B1CF
:10E71000C1B10DF10601FFF751FCB0B10C4BBDF8D2
:10E7200006006668142202FB003001210C3003F061
:10E73000E3F82E6063680C336B600123A372002042
:10E7400002B070BD48F20460FAE748F20960F7E7EA
:10E75000B424002013B50446A8B10DF10601FFF75B
:10E760002DFC98B10C4ABDF80630142101FB03239F
:10E77000DA6872B1A27A62B1DA680020013ADA602E
:10E78000A07202B010BD48F20460FAE748F20960D6
:10E79000F7E748F20560F4E7B424002002230022E2
:10E7A000FFF738BF18B103230022FFF733BF48F249
:10E7B0000460704713B5114B1B780446ABB14FF69C
:10E7C000FF73984214D001A8FFF7A8FB98B1052366
:10E7D000037001230371C48001A90948FFF740FABF
:10E7E000FFF70AFF002002B010BD48F20160FAE70F
:10E7F00048F20360F7E748F20760F4E7902400204E
:10E80000DC24002007B5ADF8060002A820F8041D9E
:10E8100001460DF10600FFF727FC03B05DF804FB8D
:10E8200013B502AC134624F8020D0A460020214617
:10E83000FFF71AFC02B010BD13B502AC134624F862
:10E84000020D0A4620460021FFF70EFC02B010BD63
:10E8500020B119B103680B600020704748F20460D2
:10E8600070472DE9F04108B302B3D0F800E0BEF1E3
:10E87000000F1ED0FBB14768D7F80480B3FBF8F750
:10E8800008FB1737BFB942EA010C1CF0030F14D183
:10E89000C768B94211D34C1E05691C44AC420CD860
:10E8A000DEF80C40A446BDE8F04160470E20BDE80C
:10E8B000F0810820FBE70920F9E71020F7E7F0B521
:10E8C000D8B1D0F800C0BCF1000F18D0CAB1476869
:10E8D000D7F800E00EF1FF370F4214D1C768B942F4
:10E8E00011D34C1E05690EFB0244AC420BD8DCF878
:10E8F0001040A446BDE8F04060470E20F0BD08205F
:10E90000FCE70920FAE71020F8E729DF704728DF45
:10E91000704770B50568AB6886B004460E4673B1A3
:10E9200014220021684619F063F8A368059323793F
:10E93000019633B1012B0ED0AB686846984706B0FC
:10E9400070BD01238DF8003023690293E3680393BF
:10E9500063690493F0E702238DF80030E3681B033A
:10E960000293F5E7034B187A0122B0FA80F05A744B
:10E97000400970471425002070B5244D244E2B7A91
:10E980002C463BB923492448FFF77AF9306008B98F
:10E99000686070BD0223237233681A7972B1012A4C
:10E9A00024D018460321FFF7B4FF002323726360CD
:10E9B00018491948BDE87040FFF78DB9D3E9052023
:10E9C000121AB2F5805F28BF4FF48052D3E90315C5
:10E9D0009208012A014438BF01222844FFF795FF1D
:10E9E00050B11128DDD101232372D2E7D3E903020C
:10E9F0001044FFF78CFFF3E7237C002BC9D10146BD
:10EA0000BDE87040022000F009B800BF14250020C6
:10EA10002C250020282500200425002038B5831E41
:10EA2000012B45D8234C237A002B41D0022B09D14E
:10EA3000032830D0204B00221B68E2601A793AB1DB
:10EA4000012A22D0637C7BBBBDE83840FFF794BF2E
:10EA5000D3E905128D1AB5F5805F94BF521902F5FE
:10EA600080529A619142EDD102284FF0000308BF15
:10EA700019462372104B18BF0D211868FFF749FF84
:10EA80000E490F48FFF727F9DCE71A6901321A61CE
:10EA90005B699A42E7E7E3680133082B01D8E3603A
:10EAA000D0E70023E360DFE7BDE8384002F086BD31
:10EAB00038BD00BF142500202C250020282500206B
:10EAC0000425002000F0FD03012B08D1044B002297
:10EAD0005A74421E504250411874FFF74DBF7047A0
:10EAE0001425002033DF704770B5224C0546012104
:10EAF000204602F0CBFEBFF35F8F264638B9042DC7
:10EB00000AD01D4B1A781AB1BFF35F8F206070BD19
:10EB10001A4A157001221A70194C184D636828782A
:10EB20007BB90238012813D8BFF34F8F1549164B14
:10EB3000CA6802F4E0621343CB60BFF34F8F00BF9B
:10EB4000FDE71B68984788B1204602F0A5FBE5E782
:10EB500002F044FD08B1FFF7C5FF4FF080430122EA
:10EB6000C3F80025BFF34F8F20BFFDE7BFF35F8FD2
:10EB70003060CCE73C2500203925002038250020D6
:10EB80003025002000ED00E00400FA05A0DF70470A
:10EB9000A1DF7047ADDF7047B3DF7047B4DF704768
:10EBA00010B50446408800F021FCA0802046BDE856
:10EBB000104000F0ABBD30B587B005460C461422BE
:10EBC000002101A818F014FF072301A88DF80430D4
:10EBD000ADF806500394FFF7E3FF07B030BD000027
:10EBE00030B587B005461422002101A818F000FFB7
:10EBF0004FF6FF739D42ADF806501AD0284600F03C
:10EC00000AFB0B2804461DD005D8A0B12146284692
:10EC1000FFF7D1FF05E0112805D043F20203984227
:10EC2000F4D1002200E00122074B28461978FEF7B4
:10EC3000BBFF07B030BD0E2301A88DF80430FFF7ED
:10EC4000AFFFEEE70F23F7E747250020FFF7C8BF28
:10EC5000024B034918780022FEF7C0BF4925002067
:10EC600065EC01002DE9F0433E4D89B0297804465A
:10EC7000FEF782FFA846064600286BD1204600F02A
:10EC800019FB0828014622D006D888B106284AD0A8
:10EC90002046FFF790FF09E043F20203984205D0B7
:10ECA00043F20143984258D01128F1D1012345E0A5
:10ECB0003146142203A818F09BFE102303A88DF8F8
:10ECC0000C30ADF80E400126FFF76AFFEEE70DF1BC
:10ECD0000600FFF761FF012533464FF0020902AF3E
:10ECE000BDF80620AA421ED9002239462846CDE9A1
:10ECF0000397FFF753FFB0B9BDF808203BB942F6C0
:10ED00000523D21A534253410135ADB2E8E742F62A
:10ED100002118A42F8D101AA0492294603AA204688
:10ED2000FFF738FF30B1204600F060FB00F0DCFA5E
:10ED3000002303E0BDF80420002AF4D01A460A4B51
:10ED400020461978FEF730FF324698F8001020462A
:10ED5000FEF72AFF09B0BDE8F0832046FFF740FF29
:10ED6000A4E700BF4A2500204925002013B504462A
:10ED700000F03CFB00236A46092100F058FE0528FC
:10ED800005D1044B012219782046FEF70DFF02B091
:10ED900010BD00BF4525002008B5084B084918786C
:10EDA0000022FEF71BFF024630B9064B06491878D1
:10EDB000BDE80840FEF712BF08BD00BF482500208F
:10EDC00015EE010045250020CDED010013B504220C
:10EDD00004460021684618F00BFE0C4A42F6A623B2
:10EDE0001068ADF800300190012301AA6946204661
:10EDF0008DF80230FFF7CAFE28B91A46044B2046A8
:10EE00001978FEF7D1FE02B010BD00BF28810300C3
:10EE10004425002030B5012187B005461C4802F08A
:10EE200035FD0446BFF35F8F00BB284600F0AEF906
:10EE3000112801461CD005D860B12846FFF7BBFE5B
:10EE4000002405E0862815D043F202039842F4D14D
:10EE5000224601E0012402460E4B28461978FEF7AF
:10EE6000A3FE1CB9BFF35F8F094B1C6007B030BD18
:10EE70000122F1E71422214601A818F0B9FD06236A
:10EE800001A88DF80430ADF80650FFF789FEDFE7E2
:10EE9000402500204825002038B503780446A3B952
:10EEA0004088FFF79DFE6588284600F0F1F928B1FB
:10EEB000064B012219782846FEF776FE6088FFF798
:10EEC00055FFBDE83840FFF767BF38BD4925002032
:10EED00037B50378082B044630D1427A72BB057AE5
:10EEE000072D1BD0082D2DD0012D27D16A4629468C
:10EEF000808800F091FF08BB019B1B78F3B1A088CC
:10EF000000F0A2FA4FF6FF73984217D0114B2A4631
:10EF10001978FEF749FEFFF79BFE0FE0808800F0AE
:10EF200093FA4FF6FF739842044607D00A4B01222A
:10EF30001978FEF739FE2046FFF718FFFFF72CFF80
:10EF400003B030BD054B19680129F7D1BFF35F8FBE
:10EF50001A60F3E7492500204825002040250020BD
:10EF600073B501230024ADF800300923CDF8024029
:10EF70008DF802300B4BADF8064022460E4619784C
:10EF80000546FEF711FE084B08492846A64208BF71
:10EF90001946019100F02AFA2246694600F0B4FDB4
:10EFA00002B070BD452500202C8103003081030094
:10EFB00070B503888488502B86B0054637D00DD8AD
:10EFC000352B47D0362B62D03E4B3F491878002274
:10EFD000FEF704FEFFF73CFE06B070BD522B22D0B8
:10EFE000542BF1D11422002101A818F001FD1123A6
:10EFF00020468DF80430ADF8064000F0F7F9ADF882
:10F00000080000F071F9314B204619780022FEF714
:10F01000CBFD2F4B204600221978FEF7C5FD01A835
:10F02000FFF7BEFDD0E72046FFF7DAFDCCE7037B14
:10F03000012BC9D1827A012AC6D1018942F6021375
:10F040009942C1D1234B20461978FEF7ADFDFFF759
:10F05000A3FEB9E7204E20463178FEF78DFD00284B
:10F06000B2D0002231782046FEF79EFDEA883ABBF6
:10F07000AB89012B24D1E9892046FFF789FDF8B936
:10F080001A46164B20461978FEF78EFD9CE7134E64
:10F0900020463178FEF770FD002895D031780022A7
:10F0A0002046FEF781FDE98851B9EB89012B03D198
:10F0B000297C003118BF01212046FFF751FF83E76B
:10F0C0000021F9E7472500204DEC01004A250020EA
:10F0D0004925002048250020442500204625002001
:10F0E000AFDF7047B1DF7047B2DF7047B3DF704703
:10F0F00010B50446808800F0A7F960802046BDE87E
:10F10000104000F005BB0000F0B5184B184C93E818
:10F11000030089B001AE86E803004FF6FF77208830
:10F12000B8421CD00022314600F0EEFC0546C0B1CA
:10F130001422002103A818F05BFC2388ADF81030DE
:10F14000112D0CD0862D0CBF0623072303A80EBF5C
:10F150008DF80C308DF80C300595FFF7C9FF09B01C
:10F16000F0BD208800F027FD2080D8E7348103001F
:10F170004C250020044B1A884FF6FF739A4201D0A9
:10F18000FFF7C2BF704700BF4C2500202DE9F743B1
:10F19000804600F02BF94FF6FF739842064637D0B1
:10F1A00001224FF003096B4608213046571C00F03E
:10F1B00037FEBFB2054630BB01990A46032342F829
:10F1C000049B06314046FFF78FFF044648B932469C
:10F1D0000821304600F0AFFE0446204603B0BDE8EB
:10F1E000F0830C280DD0052800D12C46082130468C
:10F1F00000F076FE002818BF03243A46002DD2D135
:10F20000EBE70125F2E7072814BF04460C24E4E7E6
:10F2100043F20204E1E72DE9F341804600F0E6F80D
:10F220004FF6FF73984217D1002403252646012785
:10F230002B46224631464046FFF754FF042820D093
:10F24000082823D00B281DD115F002030FD18EB949
:10F25000A4B902B0BDE8F0816A46082100F0DCFDE7
:10F260000028E1D1019B9E1D9C881D68DFE70125D8
:10F270000027DDE703251C461E46F9E70325344633
:10F28000F6E71120002F08BF0B20E2E70020F9E786
:10F290001FB50DF10703039300F0A8F802AA01219E
:10F2A00000F0BAFD20B9039B187805B05DF804FBA7
:10F2B0000020FAE738B504460A48FFF717FF70B98F
:10F2C000084B43F203054FF6FF7219882046FFF7FB
:10F2D00007FFA84204D11A8801321A80F3E70320FD
:10F2E00038BD00BF4E25002013B5074A044692E8FA
:10F2F00003006B4683E8030000221946204600F015
:10F3000003FC02B010BD00BF3C81030046DF704724
:10F31000421E00F10F0312F8010F10B99A42FAD100
:10F3200070470120704708B570B171B103780A7851
:10F33000534013F0FE0F08D106220131013018F0BE
:10F340003DFBB0FA80F0400908BD0020FCE72DE944
:10F35000F04700F101084F1C06460D4600F1110967
:10F3600001F1110A10223946404618F027FB0446E5
:10F37000E0B94046FFF7CCFF18B13846FFF7C8FFA9
:10F38000044651464846FFF7CEFF737C03F0FC036A
:10F39000042B04D06B7C03F0FC03042B02D1201C53
:10F3A00018BF012000F00100BDE8F0870024E8E765
:10F3B00030B585B004460D4600F070FB02AA0DF191
:10F3C0000601072000F072FB10B94FF6FF700BE04A
:10F3D000BDF80630AB42F1D003992046FFF7B7FFE6
:10F3E0000028EBD0BDF8060005B030BD132810B5DD
:10F3F000044602D94FF6FF7010BDFEF777FB0028D8
:10F40000F8D00A206043014B185AF5E75025002038
:10F41000132838B504460D4602D943F2020038BD20
:10F42000FEF764FB0028F8D006480A2303FB04001B
:10F4300050F8023F2B608388AB808379AB7100204A
:10F44000EDE700BF502500204FF6FF7398422DE9ED
:10F45000F04106460CD00C4F00244FF00A0808FB80
:10F4600004F3A5B2DB5BB34205D00134142CF6D112
:10F470004FF6FF7504E02846FEF738FB0028F4D06D
:10F480002846BDE8F08100BF50250020038843B91D
:10F49000821C00F10A0312F8010B10B99A42FAD14A
:10F4A00070470120704710B50446FFF7EFFF58B1D1
:10F4B00022880B889A4208D108220231A01C18F039
:10F4C0007DFAB0FA80F0400910BD0020FCE71FB5BE
:10F4D000044600F0E3FA02AA0DF10601072000F04D
:10F4E000E5FA10B94FF6FF7007E003992046463160
:10F4F000FFF7D9FF18B1BDF8060004B010BD03999D
:10F5000020462A31FFF7CFFF0028E4D0F3E70000C0
:10F5100013289FBF0A235843014B1952704700BF5D
:10F520005025002038B50546FFF78EFF04462846D3
:10F5300000F0E0FC38B9132C05D80A236343024AD3
:10F540004FF6FF71D15238BD5025002030B58DB037
:10F5500014460D4600F110030DF1FF3213F8011DA2
:10F5600002F8011F9842F9D10D22002104A818F0D9
:10F570003FFA2B788DF81F306B788DF81E30684677
:10F58000AB788DF81D30FFF7C1FE9DF82F3023704A
:10F590009DF82E3063709DF82D30A3700DB030BDF6
:10F5A00030B5037803F0FE03042B85B004460D4606
:10F5B00018D1411C032201A818F00FFA0322211DC3
:10F5C00003A818F00AFA02AA03A92846FFF7BEFF0B
:10F5D000032202A901A818F0F1F9B0FA80F040095D
:10F5E00005B030BD0020FBE730B50388102B91B08B
:10F5F00052D1041D0FCC06AD0FC50FCC0FC594E83A
:10F60000030010AC85E8030014F8243D03F0FE036A
:10F61000062B4BD000F042FA9DF81C305B08012B02
:10F620003CD9022B42D101AA0DF10201072000F0C2
:10F630003DFA00283AD0029920460131FFF7B0FF89
:10F640000028F0D005E0029920461131FFF76BFE4B
:10F6500020B3BDF80230BDF8181016480A224A43FC
:10F6600085188352AA1C0798C5F80200A588A079BE
:10F67000958090714FF6FF7293420DD010ACADF8AB
:10F680000830002304F83C3D2046ADF8061000F099
:10F6900041F82046FFF700FC11B030BD01AA0DF182
:10F6A0000201072000F002FA0028CCD14FF6FF73C8
:10F6B000D1E700BF50250020F8B5074D074F06469B
:10F6C00000242B78A34200DCF8BD57F824303046E4
:10F6D00098470134F5E700BF2F26002020260020A0
:10F6E00010B5074B1B7804464BB1FFF77DFF204652
:10F6F00001F0D2F92046BDE81040FFF759BC10BD1B
:10F700002E26002008B1FFF7D7BF7047FFF7D4BF00
:10F71000FFF7D2BFFFF7D0BF2DE9F04F87B0CDE99B
:10F7200000232D4B1B7882468946002B52D04FF682
:10F73000FF7000F040FA00250423CDE902530DF1DB
:10F74000100B02AB05935A4603AB06210446049501
:10F7500000F06DF9072839D04FF6FF76B0464FF02C
:10F76000FF37F0B1052825D04FF6FF739C422FD10B
:10F77000A04529D0A6420CBF05200020BAF1000FF9
:10F7800001D0AAF80080B9F1000F01D0C9F80050EB
:10F79000009B03B11E80019B03B11F6007B0BDE851
:10F7A000F08F029BAB4224BFA0461D46BB423CBF2C
:10F7B00026461F46204600F0FEF903AB5A460621B6
:10F7C000044600F034F9CCE70520D7E70520E5E74B
:10F7D0000320E3E70820E1E72E26002038B50C4C93
:10F7E0000C4D00231A4621462846FFF795FF0528B1
:10F7F0000AD14FF6FF732B8000232360431F58422A
:10F800005841054B187038BD0028F7D10120F8E7A2
:10F81000182600202C26002030260020F0B50446B3
:10F8200087B08088FFF710FE23786080083B032BA9
:10F8300020D8DFE803F002213166637A5BB93F4AE2
:10F84000116851B1E068814207D113603C4AA18838
:10F850001180E3600EE0012B0CD13A4B1B784BB1C9
:10F86000374BA2881B889A4204D1237A062B01D1F8
:10F87000FFF7B4FF20465DE0637A002BFAD12F4AF0
:10F8800011680029F6D0E0688142F3D12E49136057
:10F890000A68013A0A60DCE72C4F3B7873B901250E
:10F8A000284B1B7833B1264BA2881B889A4201D182
:10F8B000FFF794FF002DDDD107B0F0BD4FF6FF70CC
:10F8C00000F079F94FF6FF7398420546E7D100F052
:10F8D00074F9A8420646E2D100251422294601A85F
:10F8E0003D7018F085F80C2320468DF80430ADF8F3
:10F8F0000860ADF80660FFF7DFFE01A8FFF7DCFE49
:10F90000CEE7124B1A78002AB4D00021142201A8A5
:10F91000197018F06DF80D238DF804304FF6FF7351
:10F92000ADF80830ADF806302046A3680393FFF722
:10F93000C3FE01A8FFF7C0FEBEE700BF34260020CB
:10F940002C26002030260020182600201C2600200F
:10F95000012804D0043805288CBF002001207047FE
:10F960004FF6FF73438000F0E5B900002DE9F04148
:10F97000214E8AB0002108226846317018F038F80C
:10F980004FF6FF7000F082FB4FF6FF78044648F216
:10F990000967444513D0A4F58045ADB26A4602A973
:10F9A0002846FEF749FFB8420CD02846FEF702FF72
:10F9B00048F20763984205460CD1012333700AB020
:10F9C000BDE8F081204600F005FB204600F05EFB1C
:10F9D0000446DEE7002DF2D0142200210DEB0200D8
:10F9E00018F006F8072305A88DF81430ADF8184074
:10F9F0000795FFF7B5FFE2E74026002073B5044600
:10FA00000D46164600210822684617F0F1FFA5F5BD
:10FA10008041A4F580406B46324689B280B2FEF741
:10FA2000F1FE002814BF0520002002B070BDF0B523
:10FA3000FF2887B004460D4617461E462BD80846B9
:10FA4000FFF786FF38B303AA2046FFF7D7FF18B1A8
:10FA50000524204607B0F0BD01A903A8FEF754FE17
:10FA600004460028F4D1019BBD705D883D80029959
:10FA700026B9796003A8FEF76DFEEAE73668786874
:10FA8000AD00AE4228BF2E46324617F0A6FFB54263
:10FA9000F0D90C24DDE70724DBE700000822002171
:10FAA000014817F0A5BF00BF38260020F0B587B089
:10FAB00007460E461546FFF74BFF0446F8B1A7F57B
:10FAC0008040104A03A980B2FEF7AAFE18B10024B4
:10FAD000204607B0F0BD01A903A8FEF715FE0028D7
:10FAE000F5D1019BAF705A882A80029A6A609B8880
:10FAF00003F58043338003A8FEF72CFEE8E70124DA
:10FB0000E6E700BF3826002030B5FF2887B003465F
:10FB10000C4615463CD889780846FFF719FF00289F
:10FB200036D0A3F58042ADF80020A1F58042ADF8B3
:10FB300002206268019222880292184603AAFFF707
:10FB40005DFF0528694603A80AD1FEF727FE48F2A3
:10FB500006639842044610D005D890B103240DE006
:10FB6000FEF720FEF3E748F20763984203D048F21D
:10FB70000D639842F2D1112400E08624204607B09C
:10FB800030BD002DFAD0294603A8FEF761FEF5E747
:10FB90000724F3E74FF6FF7000F004BAFF2808B51A
:10FBA00005D800F005FAFFF7E1FE002008BD0720A8
:10FBB000FCE700F023BA00F04FBA00F067BA00008B
:10FBC0000A68084B70B50C25032A01D9002006E00D
:10FBD00005FB02F4E65A864202D10A60181970BD8C
:10FBE0000132F1E75426002073B502AC002344F83B
:10FBF000043D0E4605462146FFF7E2FF38B1837803
:10FC0000B34206D1837A9B0703D143680BB902B094
:10FC100070BD019B0133019321462846ECE710B5E6
:10FC20000446FFF7FBFD204600F012FF2046FFF7D9
:10FC3000A1FA2046BDE81040FFF74AB970B50F4E53
:10FC400004460025237AAB420FD84FF6FF7323807A
:10FC5000A370FF236372A37A03F0FD036FF3000325
:10FC6000A37200232372636070BD617A2944C9B214
:10FC7000304600F02AFA0135E4E700BF44260020B0
:10FC800013B50023CDE9003304468378417A274831
:10FC90008DF8023000F000FAF0B1237AA2788DF8E6
:10FCA000022003EB83039B00ADF80030531E01904C
:10FCB000072B08D8DFE803F0120707070712041420
:10FCC0001423ADF80030221D69462088FFF71CFF81
:10FCD00007281DD008D8A8B1032019E00123F0E7B8
:10FCE000838809339B08ECE7112813D08628F3D1C9
:10FCF000A37A03F0FD0343F00103A3720C4B01222E
:10FD00001A7005E0A37A60F3410360F30003A37265
:10FD100002B010BDA37A43F002036FF30003A37295
:10FD2000034B01221A700020F2E700BF4426002096
:10FD3000412600202DE9F047354AC16886B00546C6
:10FD400000230C24174604FB03204668B14203D06D
:10FD50000133042BF7D100202B782E4E092B10D025
:10FD6000132B4CD0082B01D0002406E06C7A002C19
:10FD7000FAD10028F8D0FFF761FF2846FFF74FFFC0
:10FD80000BE06C7A002CEFD100283AD0837A4460E3
:10FD900043F00203837201233370337863B3002589
:10FDA00035704FF00C084FF0010A08FB05739A7A82
:10FDB000C2F340030BB9D20725D586F800A003B9DA
:10FDC0000CB308FB05794846FFF75AFFD8B14FF648
:10FDD000FF738628ADF80630B9F80030ADF808306A
:10FDE00016BF03900623072301A80CBF8DF804302B
:10FDF0008DF80430FFF713FF06B0BDE8F08701244B
:10FE0000BBE70446B9E70135042DCED1F4E700BFC6
:10FE100054260020412600200023FFF708BE0000E2
:10FE20002DE9F04180460E4614461F46002B4ED069
:10FE3000CB1F012B4ED8531E032B4BD8FFF7D4FEFC
:10FE4000054610BBFF214FF6FF70FFF7CDFE0546BC
:10FE5000C8B1A0F8008086706B7AFF2B1AD12146BA
:10FE60001E4800F04AF9FF2868722DD14FF6FF7343
:10FE70002B80AB7AA87003F0FD036FF30003AB7225
:10FE800000232B726B60112022E0037AA342E3D09F
:10FE90000F201DE04FF000082C72697A0F4800F027
:10FEA000FBF8C8B104EB84042401A4B2A408BE701A
:10FEB00078603C80B8F1000F04D0082E02D1A40075
:10FEC000063C8480002003E04FF00108E4E70E20A8
:10FED000BDE8F0810720FBE70320F9E74426002076
:10FEE00008B5FFF781FE18B1FFF7A8FE002008BD96
:10FEF0000520FCE737B502AC002344F8043D054675
:10FF00002146FFF75DFE30B92846FFF747FE50B1A6
:10FF1000072808D006E081782846FFF7E1FF20B1E6
:10FF2000052802D0032003B030BD019B01330193AB
:10FF300021462846E5E7CB1F012B70B506460C4647
:10FF4000154601D9072070BD1046FFF732FE002884
:10FF5000F8D021463046FFF747FE28B1058084706F
:10FF6000BDE87040FFF78CBE0520ECE710B54FF6FA
:10FF7000FF7304469C4208460AD14FF48071FDF796
:10FF8000E4FE84B2B4F5807F09D14FF6FF7406E039
:10FF9000FF2CFAD82146FDF7B7FE0028F5D1204600
:10FFA00010BD00000149FFF7E1BF00BF842600201B
:10FFB0004FF6FF73984210B5044606D00449FFF788
:10FFC000D5FF231A5842584110BD0020FCE700BF5E
:10FFD000A4260020FF2810B5044609D8014605488C
:10FFE000FDF7A0FE21460448BDE81040FDF79ABE8B
:10FFF00010BD00BF84260020A4260020FF28014653
:020000022000DC
:1000000002D80248FDF798BE0020704784260020E1
:10001000FF28014602D80248FDF78EBE0020704737
:10002000A42600204FF6FF73984270B518BF441CF9
:100030000E4614BFA4B20024A5B2FF2D02D94FF67C
:10004000FF7506E021463046FDF776FE01340028B4
:10005000F2D0284670BD000070B50B490A4EFFF77C
:10006000E1FF4FF6FF750446AC4201D1204670BD5A
:100070002046FFF7CDFF0028F8D020463146FFF795
:10008000D1FF0446F0E700BF842600200149FFF7B6
:10009000C9BF00BFA426002038B50C46054608B9E4
:1000A000002038BD0368002BFAD040680028F7D044
:1000B000FF29F5D0BFF35F8FFDF73EFE0028EFD09C
:1000C000EB68286803FB0400EBE738B50D460446EF
:1000D00090B1036883B1406870B1FF290CD0BFF3C1
:1000E0005F8FFDF729FE38B16068BFF35F8F294647
:1000F000BDE83840FDF716BE38BD2DE9F041884611
:10010000064618B9FF242046BDE8F0810368002B9D
:10011000F8D04368002BF5D00027FF24B368FDB268
:10012000AB42EFD929467068FDF7EEFDBFF35F8F54
:1001300040B9FF2C08BF2C462D1B01354545E2D0A8
:100140000137EBE7FF2C07D1FF24F9E721463046C2
:10015000FFF7BBFF0134E4B2A542F7D8F4E77EDF36
:1001600070477FDF704786DF704710B504464088D0
:10017000FFF73CF9A0802046BDE8104000F02ABC03
:1001800010B586B004461422002101A817F030FCF7
:1001900004230DEB03008DF80430ADF80640FFF7A3
:1001A000E4FF06B010BD30B587B005460C461422FA
:1001B000002101A817F01CFC072301A88DF80430CA
:1001C000ADF806500394FFF7D0FF07B030BD000034
:1001D000F0B587B004460F4616460021142201A848
:1001E0001D4617F005FC03238DF80430094BADF8CC
:1001F0000640002219788DF80C702046ADF80E608C
:100200008DF81050FDF7D0FC01A8FFF7AEFF07B046
:10021000F0BD00BF851F00207FB502238DF804309C
:100220000388ADF8063043798DF80D1013F0040FF4
:1002300014BF0123022301A88DF80C30FFF795FFAE
:1002400007B05DF804FB000030B5114B0A1C87B005
:100250000C4618BF012219780546FDF7A5FC631E60
:100260005A425A410B4B28461978FDF79DFC14223F
:10027000002101A817F0BCFB012301A88DF8043070
:10028000ADF806508DF80C40FFF76FFF07B030BD9A
:10029000871F0020861F00202DE9F041154B0D46D9
:1002A000197804461646FDF767FC0146F0B1124B7B
:1002B00020461978FDF760FC002804F580704FF0A7
:1002C000070180B214BF01270227FFF709FE01468C
:1002D00020B1052802D02046FFF765FF33462A46A5
:1002E00039462046BDE8F041FFF772BF33462A4643
:1002F000F7E700BF871F0020861F00202DE9F0418F
:100300008AB00F4690460446FDF7FAFB20220646C7
:10031000002102A817F06CFB012E1FD1364B0022E2
:1003200019782046FDF740FC002F5DD02046FFF7EE
:100330005DF84FF6FF73984215D100253B78DB0737
:1003400025D42E4BCDF814800993012E51D102AB48
:100350003A4629462046FFF704FF26E0002E45D105
:1003600043F2020021E0012EE7D1234D20462978F7
:10037000FDF702FC0028E0D12046FFF701FF2978B5
:100380002046FDF7F9FB0028D7D18525D6E7852D36
:10039000DBD004F580706B460122072180B2FFF7A5
:1003A0003FFD112801D018B103200AB0BDE8F0814B
:1003B00001465022019817F01BFB019B1E7001990A
:1003C000CDF8148001F13403029301F11803069370
:1003D0004B1C07931131094B09932046FFF718F87E
:1003E0000028B2D00820E0E78525B0E7002F9DD196
:1003F000852502AB0022ACE7841F0020C426002024
:1004000038B505460C46FDF77BFB012808D154B1F1
:1004100021462846FFF7A3FE042808BF112038BD57
:1004200043F20200FBE72046F9E700002DE9F04720
:100430000388113B88B00446092B73D8DFE813F01A
:100440000A0072001F004700720072007200720002
:100450009F002A01037A85883D2BA54B28461978F1
:1004600041F23D0418BF4FF48854FDF785FB002886
:1004700058D0002221462846FFF70EFF52E0808820
:10048000FDF73EFB012802460FD1237AA58813F021
:10049000010F974B0CBF0226012619782846FDF75D
:1004A00083FB31462846FFF7CFFE34F8045F142261
:1004B000002103A817F09CFA043405238DF80C30B2
:1004C000ADF80E50059403A8FFF74FFE2AE000F1A7
:1004D00010063046FEF7FBFF4FF6FF7398420546C5
:1004E000A08822D1FEF782FF0546814BA7881978A4
:1004F00001223846FDF758FB00213846FFF7A4FEDD
:100500004FF6FF739D4214D10025002329461A4659
:10051000A088FFF728FE0828014603D010B3A08862
:10052000FFF741FE08B0BDE8F0872946FEF7F0FF6F
:10053000DBE703AA07212846FFF76EFC0028E3D17A
:10054000A37ED907E0D5049D95F84430DA0701D59C
:100550003435DAE7314605F14600FEF7A4FF0028FE
:10056000F6D1D1E7A37EDB07DCD5002DDAD1A08858
:100570002B4641F206022946FFF72AFED2E75C4BE2
:10058000067A19788788002E77D100F10408324660
:100590003846FDF709FB617A11F0040103D14046AA
:1005A000FFF73AFEBEE707F580791FFA89F901AB3C
:1005B000012207214846FFF733FC054628B10146D2
:1005C0003846FFF7F0FD3146E9E73846FEF70EFF03
:1005D0004FF6FF739842044682462ED10146029898
:1005E000FEF7E6FE50450446064676D0DFF808A141
:1005F00001463846FEF78CFF9AF800103846FDF7A2
:10060000BBFA0646C8B93846FFF7BAFD9AF800109B
:100610003846FDF7B1FA01460028C0D0072122462E
:100620004846FFF788FC014648B90121B7E7214653
:100630003846FEF76DFF0126F0E72E46EEE78628E6
:100640000DD11422002103A817F0D2F9062303A824
:100650008DF80C30ADF80E70FFF787FDE5E73846F2
:10066000FFF7A1FD00214046FFF7D6FD002E3FF425
:1006700059AF2046FEF756FF54E7447A384604F057
:100680000304FDF779FA00283FF44CAF22463146C7
:100690003846F1E6174B80881978FDF76DFA054664
:1006A00000287FF43FAFA088FDF73CFA0146A08800
:1006B00019B9012341F206025EE70D4B2A4619786B
:1006C000FDF772FA02238DF80C30A388ADF80E30D6
:1006D0008DF814508DF81550F5E6FFF75BFAB0422F
:1006E0000446A4D104213846FFF75DFD294656E7AC
:1006F000851F0020871F0020841F002070B515462D
:100700000E4614220021044617F072F92846FEF71F
:100710006DFE2670A0806580204670BDFEF7F2BF9A
:1007200030B531F0080387B00C4615461BD01129AF
:1007300019D00D2902461AD1032101A8FFF7DEFFC7
:100740009DB12B7813F0010F0CBF022301238DF80C
:100750000C3000238DF8103041F20113ADF80E304B
:1007600001A8FFF7DBFF07B030BD0223EFE7072149
:1007700001A8FFF7C3FF0394F2E700002DE9F0435F
:10078000054689B0914698460E4601BB2C4BCDE9F3
:1007900004111B68039303AC94E807006F4687E8D5
:1007A00007002A4605212046FFF7A8FF2046CDE98D
:1007B0000567FFF7B3FF234B009F1B7843B99DF8F4
:1007C00009302BB90526304609B0BDE8F083002773
:1007D0004A4639462846FFF713FEA0F111035A4254
:1007E0005A41194B044619782846FDF7DDF90B2CC0
:1007F00023D00CD80CB3082C1FD00326B8F1000F5F
:10080000E1D03A4621462846FFF78AFFDBE7112C64
:1008100005D043F202039C420FD00D2CECE70B4BAA
:10082000324619782846FDF7BFF9094B4A46197830
:100830002846FDF7B9F90026E0E72646DEE700BFC7
:100840000C270020082700208A1F0020891F002075
:10085000881F002070B5094B19780446FDF78CF904
:10086000074B054619782046FDF786F92A460146CA
:1008700001232046BDE87040FFF780BF881F00209D
:10088000891F00202DE9F0411B4B88B00027CDE9DE
:1008900004771B68039303AD0446884695E8070078
:1008A0006E4686E80700224605212846FFF726FF08
:1008B0002846CDE90586FFF731FF104B00991A68ED
:1008C0002046FFF71BFDA0F111035A425A410C4B81
:1008D000054619782046FDF767F90A4B3A4619781C
:1008E0002046FDF761F9009A29462046FFF718FFD8
:1008F00008B0BDE8F08100BF0C27002004270020CD
:100900008B1F00208A1F00200021FFF7BBBFF7B517
:1009100005460C46002943D0FDF7F4F806460028AA
:1009200040D02846FEF762FDB31E5E425E414FF6A0
:10093000FF722378821A18BF012266F3000362F364
:10094000C303237007462846FDF7ECF8237860F3CD
:10095000410323702846FDF7F3F8237860F3820300
:1009600023702846FDF7FAF80646B8B92846FDF781
:10097000D9F850B16A4607213846FFF74DFA58B901
:10098000019B93F8440000F00100237860F3041306
:100990002370002003B0F0BD3046F6E70120F4E7F5
:1009A0000E20F7E743F20200F4E713B50C4602A964
:1009B000E02301F8043DFFF7AAFF9DF80420237807
:1009C00028B993430CBF0120002002B010BD0020C5
:1009D000FBE7000037B50378052B044605D0122B42
:1009E00009D02046FFF79AFE03E081684088FFF7B0
:1009F00049FF03B030BD154B1A6812B34088FDF7AC
:100A000091F800250146F0B1227A2B46C2F340014D
:100A100061F38203C2F3000161F3C303C2F38002F6
:100A200002A962F3041301F8043D6088FFF7BDFFDB
:100A300080F00102D2B2294601236088FFF79EFEB2
:100A4000CFE70121F8E70246F6E700BF0C270020B8
:100A500008B50378083BDBB20B2B14D8012202FA4D
:100A600003F340F60F0213420DD0074B07491878E5
:100A70000022FDF7B3F8064B064918780022BDE8BE
:100A80000840FDF7ABB808BD8B1F00200909020024
:100A90008A1F00205508020008B5FFF7C7FC074B66
:100AA000074918780022FDF799F8064B064918788F
:100AB0000022BDE80840FDF791B800BF8B1F002061
:100AC000090902008A1F00205508020072DF7047E2
:100AD00073DF704774DF7047F0B52F4CA3B0054645
:100AE0000E46174600211022204616F081FF2B48A3
:100AF0002B4A03782B49C3EB431C62440133614406
:100B000003F00103A2601F2203702160A280A28172
:100B100000213C2204A816F06BFF062301AA8DF8E1
:100B200013300E9201233C22002113A88DF80230CD
:100B3000ADF820308DF83C30ADF80050CDF824D021
:100B4000ADF80450ADF80870039616F051FF02237B
:100B5000221D21688DF84C3004A800F0CBF908B1B3
:100B600015F062FB104AA16813A800F0C3F908B1A0
:100B700015F05AFB0D4A08490D48FFF7A7FF082852
:100B800004D1002204490A48FFF7A0FF08B115F07C
:100B90004BFB23B0F0BD00BF5027002010270020E2
:100BA00060270020112700205C270020901F0020D4
:100BB0008C1F0020B0F5202F0AD20A23B0FBF3F3DC
:100BC00010B1002B08BF0123034A93819160704745
:100BD0004FF6FF73F8E700BF901F002008B5064BE3
:100BE00001211878FFF774FF08B115F01DFB0020F4
:100BF000BDE8084004F034BE8C1F002008B5054B4A
:100C00001878FFF767FF18B1BDE8084015F00CBB76
:100C100008BD00BF8C1F002076DF70477ADF704769
:100C20007CDF704715F000BB04F024B807B50378EB
:100C30004BB93B214088FFF7EFFF08B303B05DF8E5
:100C400004EB15F0F1BA012B1AD1134B1B685B04AE
:100C500016D5124B1B68032B12DD2F21104816F0FE
:100C600097FF80B12F210E4816F092FF411C0D4BCB
:100C70000D4AD3F8043500920420682206F0DAF811
:100C800003B05DF804FB5C21054816F081FF08B154
:100C90005C21E8E70249EAE7BC1F0020B81F0020FA
:100CA00062810300001001409281030013B500F03F
:100CB00019FC08B115F0B8FA02AC002344F8043D61
:100CC0000120214600F042FB08B115F0ADFA2046A4
:100CD00000F0A0FB08B115F0A7FA02B010BD0000AB
:100CE0001FB504AC1123104804F80C3D16F048FF62
:100CF0000D4982B22046FFF793FF08B115F094FA30
:100D000008220DEB0200002116F072FE074A4FF098
:100D1000C87302A8CDE90223FFF780FF08B115F0E0
:100D200083FA04B010BD00BF4C8103007800C800F6
:100D300010B58AB001AC08220021204616F058FEFA
:100D4000124A4FF0C873CDE9012300211C2203A8E9
:100D500016F04EFE4FF4803340F6CD41CDE904133A
:100D600003238DF818300023ADF81A308DF81C30AD
:100D7000074B089303A8074B0394099300F04CFD1D
:100D800008B115F051FA0AB010BD00BF7800C800D4
:100D90002D0C0200250C020070B5EFF3108672B620
:100DA0000C4A946801239CB993600B4B0B4DD3F80C
:100DB000801029401160C3F88050D3F8841051602E
:100DC0004FF0FF32C3F88420047006B962B670BDDC
:100DD0000370FAE7284B002000E100E0FC06FFBDAD
:100DE00010B5084B9A685AB150B9EFF3108172B63A
:100DF000054A1C6814605C685460986001B962B66A
:100E000010BD00BF284B002000E100E06DDF7047FF
:100E100079DF70477DDF704764DF70472DE9F74F5A
:100E20000C9CBDF834B02788002580468A46914640
:100E30002E46B8F80020B2420BDC35B12288013AC8
:100E4000D21B92B2FF2A39D8DA55002003B0BDE890
:100E5000F08FD8F8042052F82600019000220DF1FE
:100E6000030101A8FFF7D8FF0028EFD19DF8032068
:100E70004A4521D12288002D14BF0020022002EB18
:100E800009010144594519DC3DB9013292B2228071
:100E900003F802A022880132228022880DF103018A
:100EA0001A4401A8FFF7B8FF0028CFD121889DF888
:100EB00003200A44228001250136BAE70C20C5E749
:100EC0002DE9F341089CBDF824501746CDE90045B3
:100ED00002220646FFF7A2FF48B9102239463046E3
:100EE000CDE9084502B0BDE8F041FFF797BF02B079
:100EF000BDE8F0812DE9F04F00231688138090F8AB
:100F00002D3085B007460D46144653B3082E01D840
:100F10000C2026E102A8FFF779FF002840F021818C
:100F200013880822CA54238801339BB21B222380D2
:100F3000CA542088013080B2208006220DF10901B8
:100F4000284416F04AFD23889DF8082006339BB2FA
:100F500012F0FE0218BF01222380EA5423880133D5
:100F60002380BB78FBB123880433B342D0D802A8D6
:100F7000FFF74EFF002840F0F48023880322EA5454
:100F8000238801339BB219222380EA542388BDF8B9
:100F9000082001339BB2E9182380EA54120A4A70F0
:100FA000238802332380FA789AB12388D91CB1426E
:100FB000AED80221E954238801339BB2012123805A
:100FC000E95423880B449BB22380EA5423880B44C2
:100FD00023807A68AAB12388D91CB14298D802210B
:100FE00092F90020E954238801339BB20A2123801F
:100FF000E954238801339BB22380EA5423880133C8
:1010000023803B89002B40F0A0803B8A5BB1CDE977
:1010100000462B460722032107F11000FFF750FF7F
:10102000002840F09E803B8B5BB1CDE900462B460B
:101030001522142107F11800FFF742FF002840F0A5
:1010400090803A6A002A40F08F80D7F82480B8F167
:10105000000F30D0B8F804302188981C8A1C024454
:10106000B2423FF655AFFE283FF652AF03336B5402
:10107000238801339BB2FF222380EA542388013363
:101080009BB22380B8F80020EA54E918120A4A708B
:101090002088023080B22080B8F804205AB1D8F8F5
:1010A000081000296AD0284416F097FC2388B8F865
:1010B00004201344238097F82C30002B40F09980B3
:1010C000387800284DD03B88012B57D021888A1CC6
:1010D000B2423FF61DAF012805D17B7802330B44A5
:1010E0009E42FFF415AF023E761A04A9B6B221F86B
:1010F000086DA818FFF78EFE98BB3978BDF8082058
:10110000022900F0BB807B78934202D3B24240F2C6
:10111000B380012940F0B4809BB29E42C0F0B08001
:10112000ADF808300821BDF80830FE2B3FF6F0AED0
:1011300022880133AB542288013292B22280A95412
:1011400022881344238000200BE0CDE900462B4683
:101150000622022107F10800FFF7B2FE00283FF443
:1011600054AF05B0BDE8F08FB4F800C00CF1060331
:10117000B3423FF6CDAE1188052901D80720F0E72C
:101180006FF4486E01EB0E039BB24FF27D3E734548
:10119000F4D95388052BF1D96FF44860181880B240
:1011A0007045EBD94FF6FF70814203D0834201D0E6
:1011B0009942E3D8052305F80C30238801339BB20C
:1011C00012212380E954238801339BB223801188A4
:1011D000E954E818090A4170238802339BB223803E
:1011E0005288EA54E918120A4A702388023323808D
:1011F0002BE7BB6A002BC1D04FF000094FF00C0A5F
:101200004FF0160B97F82C305FFA89F293427FF675
:1012100057AFB96A0AFB02F201EB0208B8F80430D2
:10122000981CFE283FF674AE208803332B54238885
:1012300001339BB2238005F803B0238801339BB2AE
:1012400023808A5AEA54E918120A4A702088023028
:1012500080B22080B8F804205AB1D8F808100029CC
:101260008CD0284416F0B9FB2388B8F80420134426
:10127000238009F10109C5E7092154E7B242FBD9EE
:10128000ADF808604EE701600B6843604A6893421E
:1012900004BF002343607047436843B1026891680C
:1012A0000B4443605268934204BF0023436070477D
:1012B0004BDF70471FB50D4C01A8FFF7F9FF70B960
:1012C000214602A8FFF7DFFF039B002BF4D0019813
:1012D000D3E90021904702A8FFF7DEFFF4E70528D5
:1012E00001D014F0A1FF04B010BD00BFC081030005
:1012F00060DF704769DF704761DF704730B5114BC1
:101300001B78A9B0E3B1104D94240DF1020103A89C
:10131000ADF80240FFF7F0FF70B9294601A8FFF7CA
:10132000B2FF029B002BF0D003A8D3E90021904725
:1013300001A8FFF7B1FFF4E7052801D014F074FF0E
:1013400029B030BD9E270020CC8103007FB5064622
:101350000C46002959D02E4B0B600C22002101A80D
:1013600016F046FB012506232268ADF8083001A9D6
:1013700020208DF804608DF80650FFF7BBFF0C228B
:10138000002101A816F034FB22688DF8055001A950
:101390004020FFF7AFFF0C22002101A816F028FB28
:1013A00045232268ADF8063001A923208DF804609A
:1013B000FFF7A0FF0C22002101A816F019FB2268FC
:1013C0008DF8045001A92846FFF794FF0C22002154
:1013D00001A816F00DFB4FF4B0632268019301A938
:1013E000A120FFF787FF0C22002101A816F000FBC7
:1013F0009DF8043022682B4301A9A0208DF8043009
:10140000FFF778FF002004B070BD0E20FBE700BF9F
:10141000601F002008B5FFF76BFF10B9014B0122D8
:101420001A7008BD9E27002010DF704711DF70473B
:1014300013B5044609496846FFF725FF019808B926
:1014400002B010BDD0E900312046984718B1684677
:10145000FFF722FFF2E71120F2E700BFDC81030073
:1014600013B5044607496846FFF70DFF019B0BB90A
:1014700002B010BD2046D3E9002190476846FFF72F
:101480000BFFF3E7F4810300064B9A6822B11A6858
:1014900022F480021A607047034B4FF48002C3F8B5
:1014A00080207047284B002000E100E00B4991F8B4
:1014B00016335A09EC231341DB0706D5084B9A680B
:1014C0003AB94FF480030B60704742F2020014F007
:1014D000ABBE1A6842F480021A60704700E100E077
:1014E000284B0020F7B5184F3C785CBB174E012500
:1014F00020463570FFF79CFF112820D02046FFF7CB
:10150000AFFF134B1868019002A800F8054DFFF7D4
:1015100043FC104901A8FFF787FF0446B0FA80F0AA
:10152000400938709DF80300FFF75AFC3CB90A4B9C
:1015300034701C70FFF7BAFF2846FFF791FF204672
:1015400003B0F0BD0824FAE7A02700209F27002061
:10155000D881030039190200A1270020F7B5154FE3
:101560003B7813B3144E01203070FFF761FF112850
:101570004FF000051BD00220FFF772FF02A800F811
:10158000015DFFF709FCFFF751FF04469DF80700D6
:101590003D70FFF725FC2CB93470FFF775FF032071
:1015A000FFF75EFF204603B0F0BD0824FAE72C46A3
:1015B000F8E700BFA02700209F270020054B1B78DD
:1015C00033B1054B1B780BB1FFF7C8BFFFF78ABFDC
:1015D000082070479F270020A0270020014B187883
:1015E000704700BFA027002007B508496846FFF7ED
:1015F0004AFE019B13B903B05DF804FBD3E9002058
:1016000090476846FFF748FEF3E700BFE881030014
:10161000FFF7EABF75DF704776DF70477ADF704704
:101620007BDF7047034B1A8882420CBF18460020AC
:10163000704700BFC0270020024B9B6903B11847C9
:10164000704700BFA427002037B585B22846FFF7B2
:10165000E9FF034670B1164C017A227B91420BD20E
:1016600000F10A012846FFF7D5FFE8B1112801D0A3
:10167000FFF7E2FF03B030BD237C0022027243B1CA
:101680003B212846FFF7C8FF30F0080301D0FFF7E1
:10169000D3FF6369002BEDD000228DF80420ADF854
:1016A000065001A89847E5E71A7A01321A72E1E775
:1016B000A427002013B50B46497A0F4C024669B99E
:1016C000D4E901101C7A002C18BF0146586813F0A9
:1016D0006DFB08B1FFF7B0FF02B010BD0021197219
:1016E0006369002BF8D00121ADF806008DF80410D5
:1016F00001A89847F0E700BFA427002030B58388F1
:101700000588B3F5FA7F24BF6FF4F9729C184A88F4
:1017100038BF002495420CD84088904209D38A886B
:10172000A24206D303F2F310904234BF00200120FE
:1017300030BD0020FCE7000070B50388112B014686
:1017400048D002D8102B1ED070BD122B52D0502B77
:10175000FAD12F4BC288DB899A42F5D1038A022B3A
:10176000F2D186883046FFF75DFF05460028EBD0B2
:1017700001F1120000F0D6F830BB686813F05EFB90
:101780000028E1D009E0C37B012BDDD14FF6FF70CB
:10179000FFF748FF054620B90420BDE87040FFF779
:1017A0004BBF8E881B4A0680002303721368C5F85E
:1017B0000A300A30536843601031FFF79FFF144B23
:1017C0006872DB89002BBFD129463046BDE87040E6
:1017D000FFF770BF8088FFF725FF04460028B3D0CD
:1017E000406813F02BFB08B1FFF726FF4FF6FF739D
:1017F0002380A9E786883046FFF714FF05460028B6
:10180000A2D008310A30FFF779FF6872DCE700BF29
:10181000A4270020D4270020F8B5064650B305467B
:101820000FCD154F3C460FC495E8070084E807002C
:101830003068124B3B60B8B1FFF7F0FEC8B93168B1
:101840000A681A604A685A600D480E4A4FF6FF73DC
:1018500003800D4B40F8043F002113F095FA002857
:1018600014BF0320002004E01846FFF7D9FE00282B
:10187000EAD0F8BD0E20FCE7A4270020D4270020E2
:10188000C027002049160200DC27002050E8002F66
:101890000B4640E8003C9CF0000FF7D11046704723
:1018A00050E8002F42EA010340E8003C9CF0000FA2
:1018B000F6D11046704750E8003F43EA010240E885
:1018C000002C9CF0000FF6D11046704750E8003F06
:1018D00003EA010240E8002C9CF0000FF6D110460C
:1018E000704750E8002F02EB010340E8003C9CF0F9
:1018F000000FF6D11046704750E8003F03EB01029D
:1019000040E8002C9CF0000FF6D11046704750E8DC
:10191000003FA3EB010240E8002C9CF0000FF6D141
:1019200010467047007800F0010070470078C0F35F
:10193000400070470620704730B5754B14461B6851
:1019400041F20102904287B00D4603F480437ED0FD
:101950001ED8012845D0002B5DD06E4B1B68002B94
:1019600059DD2F216C4816F013F9002800F0C480CF
:101970002F21694816F00CF9411C684B684AD3F8CE
:101980000435009201957B22012005F053FA42E0D4
:1019900044F20102904200F0858044F2020290423B
:1019A000D9D1002B37D05B4B1B68002B33DD2F21A7
:1019B000594816F0EDF800286BD02F21564816F044
:1019C000E7F8411C554B2288D3F80435039262682E
:1019D000CDE90152534A009201206C2205F02AFA07
:1019E00019E0C3B14B4B1B68002B14DD2F214A4873
:1019F00016F0CEF810B32F21474816F0C9F8411C55
:101A0000464B494AD3F804350092CDE9015460228F
:101A1000012005F00FFA4FF0A0434FF4F032C3F865
:101A20001825C3F80C25EFF3108372B64DF6AD6C94
:101A30003E4A1378002B68D107B030BD5C21364890
:101A400016F0A6F808B15C21D6E73349D8E7002B99
:101A5000E1D0304B1B68002BDDDD2F212E4816F026
:101A600097F868B12F212C4816F092F8411C2B4BA7
:101A70002F4AD3F804350092CDE901546322C7E719
:101A80005C21254816F084F808B15C21EBE7224977
:101A9000EDE75C21204816F07BF808B15C218DE76A
:101AA0001D498FE7002BB6D01A4B1B68002BB2DD07
:101AB0002F21194816F06CF8A8B12F21164816F0FE
:101AC00067F8411C154B2268D3F80435049262680C
