:020000022000DC
:1060000000FD002041DF030069DF03006BDF0300B8
:106010006DDF03006FDF030071DF0300000000008D
:1060200000000000000000000000000073DF03001B
:1060300075DF03000000000077DF030079DF030055
:106040007BDF03007BDF03007BDF03007BDF0300DC
:106050007BDF03007BDF0300498302007BDF03005B
:106060007BDF0300097F0200A51C03007BDF030028
:106070007BDF03007BDF03007BDF03007BDF0300AC
:106080007BDF03008DB40300C9D502007BDF030072
:106090005DB503007BDF0300F18F02007BDF0300AF
:1060A0007BDF03007BDF03007BDF03007BDF03007C
:1060B0007BDF03007BDF0300000000000000000026
:1060C0007BDF03007BDF03007BDF03007BDF03005C
:1060D0007BDF03007BDF03007BDF030000000000A9
:1060E00000000000000000000000000000000000B0
:1060F00000000000000000000000000000000000A0
:10610000000000000000000000000000000000008F
:10611000000000000000000000000000000000007F
:10612000000000000000000000000000000000006F
:10613000000000000000000000000000000000005F
:10614000000000000000000000000000000000004F
:10615000000000000000000000000000000000003F
:10616000000000000000000000000000000000002F
:10617000000000000000000000000000000000001F
:10618000000000000000000000000000000000000F
:1061900000000000000000000000000000000000FF
:1061A00000000000000000000000000000000000EF
:1061B00000000000000000000000000000000000DF
:1061C00000000000000000000000000000000000CF
:1061D00000000000000000000000000000000000BF
:1061E00000000000000000000000000000000000AF
:1061F000000000000000000000000000000000009F
:1062000010B5054C237833B9044B13B10448AFF3F0
:1062100000800123237010BD802F002000000000AB
:106220006413040008B5034B1BB103490348AFF3E3
:10623000008008BD00000000842F002064130400CB
:10624000154B002B08BF134B9D46A3F5803A002148
:106250008B460F461348144A121A19F0C7FA0F4B0F
:10626000002B00D098470E4B002B00D09847002001
:10627000002104000D000D48002802D00C48AFF3A7
:10628000008019F065FA2000290000F00FFA19F0DB
:106290004BFA00BF0000080000FD002000000000D5
:1062A00000000000802F002068590020000000003E
:1062B0000000000041DF7047014B1B680B807047F6
:1062C000C42F002007B5194B1B685B0416D5184B6B
:1062D0001B68032B12DD2F21164819F057FBC8B19C
:1062E0002F21144819F052FB411C134B134AD3F8C9
:1062F000043500920420EC2208F05EF900211048D9
:1063000000F048FF78B10B4A832103B05DF804EB3D
:1063100017F041BE5C21074819F038FB08B15C2139
:10632000DFE70449E1E703B05DF804FBD82E002065
:10633000D42E002057FB03000010014092FB030005
:10634000F02D002007B5144B1B685B0416D5134BCA
:106350001B68032B12DD2F21114819F017FB90B198
:106360002F210F4819F012FB411C0E4B0E4AD3F897
:106370000435009204208A2208F01EF903B05DF86B
:1063800004EB01F001B85C21054819F0FFFA08B1EF
:106390005C21E6E70249E8E7D82E0020D42E002051
:1063A00057FB030000100140B2FB030003781C2BD5
:1063B00001D1FFF7C7BF70471FB52A4C22685204AE
:1063C00017D5294B1B68032B13DD2F21274819F004
:1063D000DDFA002833D02F21244819F0D7FA411CC8
:1063E000234B244AD3F8043500920420DC2208F021
:1063F000E3F802F075F902F09BF903A813F062FFCD
:1064000023685B0419D5184B1B68032B15DD2F215E
:10641000164819F0BBFAD8B12F21144819F0B6FA72
:10642000411C134BBDF80C20D3F804350192124ADD
:1064300000920420E72208F0BFF804B010BD5C21F0
:106440000A4819F0A3FA08B15C21C5E70749C7E774
:106450005C21064819F09AFA08B15C21DDE703498E
:10646000DFE700BFD82E0020D42E002057FB03000A
:1064700000100140CBFB0300E5FB03002DE9F043D6
:10648000A0F13005042D85B020D8704C2368580445
:1064900017D56F4B1B68032B13DD2F216D4819F0A7
:1064A00075FAB0B12F216B4819F070FA411C6A4B94
:1064B0006A4AD3F80435009201959922042008F025
:1064C0007BF8012D70D00DD3032D77D005B0BDE83A
:1064D000F0835C215F4819F059FA08B15C21E2E7CA
:1064E0005C49E4E75E4A5F4913688B42B8BF0B46DC
:1064F0000B445B4F1360B7F900205B4802F5004383
:106500005A4A128800215A434FF6FF7392FBF3F266
:1065100092B201F0BDF9564800F020FE23685B04FA
:106520008046D3D54A4E3268032A40F38B802F2110
:10653000484819F02BFA002872D02F21454819F04D
:1065400025FA451C444B4848D3F804953F68002180
:1065500001F04EFA474B0093CDE901704B46C9223A
:106560002946042008F028F8B8F1000FAED02368BF
:106570005A04ABD53368012BA8DD2F21354819F01B
:1065800005FA002855D02F21324819F0FFF9411C97
:10659000314B394AD3F804350092CDF80480CC222F
:1065A000022008F009F891E72D4A136843F6FF71BD
:1065B0008B42A8BF0B4603F580439AE700F0E2FE4A
:1065C00040B10DF001FE00F093FE05B0BDE8F043D0
:1065D000FFF7B8BE236859047FF578AF1C4B1B68E2
:1065E000032B7FF773AF2F211A4819F0CFF970B141
:1065F0002F21184819F0CAF9411C174B1F4AD3F82C
:10660000043500920420BB2207F0D6FF5EE75C2130
:10661000104819F0BBF908B15C21EAE70D49ECE735
:106620005C210C4819F0B2F908B15C2186E7094DEC
:1066300088E75C21074819F0A9F908B15C21A3E7B4
:106640000449A5E7B8F1000F94D13FE7D82E002008
:10665000D42E002057FB0300001001402CFA030049
:10666000C42F002000C0FFFF24FA0300C02F002029
:10667000F02D002076FA030090FA03003FFA0300A1
:10668000074B08481960084B1A8801F500414A4336
:106690004FF6FF7192FBF1F2002192B201F0F8B8CF
:1066A000C42F002024FA0300C02F002000B5704C36
:1066B000704A8DB0042146F2010007F061FF2368A3
:1066C0005A0419D56C4B1B68032B15DD2F216B4821
:1066D00019F05CF9002800F0A9802F21674819F013
:1066E00055F9411C664B674AD3F8043500920420E3
:1066F00040F20B1207F060FF15F07AF820B15F4A04
:1067000040F20D1117F047FC01F0D0FF01F0E8FF57
:1067100002F00EF80021202203A819F067F80123E7
:106720008DF80C3007238DF80F3006238DF81430C8
:10673000554B07935549564B0B9303A800F0E4FDC6
:10674000E8B10B2840F0848023685B0417D54A4BDE
:106750001B68032B13DD2F21484819F017F9002877
:106760006DD02F21454819F011F9411C444B494A7D
:10677000D3F8043500920420FF2207F01DFF002209
:106780004549464801F03EF908B117F0F7FB434888
:1067900001F034F92268424B12F4804F18801C46F5
:1067A0001AD0354B1B68032B16DD2F21334819F007
:1067B000EDF8002852D02F21304819F0E7F8411C9D
:1067C0002F4B2288D3F804350192364A00920420D8
:1067D00040F21B1207F0F0FE6421334800F01CFF6A
:1067E0002A4B1B7883B9314D0FCD03AC0FC495E80C
:1067F000030084E8030003A800F0B6FE20B11F4A9E
:106800004FF4977117F0C7FB244801F043FA02F0E8
:106810006BFE00F037FF00F0EDFC20B1174A40F2AC
:10682000351117F0B8FBFFF745FDFCE75C21134875
:1068300019F0ACF808B15C2150E7104952E75C212F
:106840000E4819F0A3F808B15C218BE70B498DE7DE
:106850000A4A4FF4827117F09EFB90E75C210748CB
:1068600019F094F808B15C21A6E70449A8E700BF35
:10687000D82E002055E50200D42E002057FB03003F
:1068800000100140CCFA0300AD6302009C2F0020F1
:10689000C5620200F6FA0300882E002024FA0300E5
:1068A000C02F002044FB03007D6402000CFA0300AB
:1068B000024B53F820300846184700BF08FD03007C
:1068C000024B53F820300846184700BF18FD03005C
:1068D000C06F003018BF0120704713B50446303038
:1068E00010F05AFD0023A36794F88030022BB4F80F
:1068F000763018BFA4F87430B4F87420ADF80230C4
:10690000694600232046ADF80020019310F018FCE2
:10691000A36EB4F974102046984702B010BD70B54C
:1069200090F88030022B064615D0303010F009FD6B
:106930004FF47A73A0FB034503FB0155B06FE20BE4
:10694000EB0B00218B4242EA454208BF82422CBF3A
:106950000120002070BD0020FCE700002DE9F74F6A
:1069600090F88030022B044600F1300557D0B0F982
:106970008860B0F97600871B284610F0E2FC4FF4DF
:106980007A73A0FB03AB03FB01BB4FEADA3343EAA4
:106990004B434FEAE77903FB09F14FEADB3207FB90
:1069A0000212A3FB070111440023A26F18F0E8FCB8
:1069B0003044A4F87400A36EB4F9741020469847CC
:1069C0002B4B1B685B0427D52A4B1B68042B23DD4C
:1069D0002F21294818F0DAFF00283FD02F21264820
:1069E00018F0D4FF441C254B2846D3F8046510F05A
:1069F000A8FC4FF47A75A0FB057805FB0188FA0B1B
:106A000042EA48421E4B019200934FF4A172334672
:106A10002146052007F0D0FD03B0BDE8F08FB0F8A7
:106A20008680284610F08DFC4FF47A73A0FB036734
:106A300003FB0177F30BB4F9846043EA4743FA0B95
:106A4000F71703FB07F102FB0612A3FB0601114433
:106A50000023A26F18F094FC4044AAE75C2106488A
:106A600018F094FF08B15C21B9E7034CBBE700BF05
:106A7000D82E0020D42E0020D2FC030000100140AC
:106A8000F5FC03002DE977482E4B1B685B04044698
:106A9000154617D52C4B1B68032B13DD2F212B48D4
:106AA00018F074FF30B32F21284818F06FFF411CF5
:106AB000274B284AD3F804350092042040F28F1265
:106AC00007F07AFDE36E04F1740120469847B4F9AB
:106AD00074302B80B4F976306B8094F88030022BC0
:106AE00011D1A36F003318BF01235B426B6003B069
:106AF000BDE870885C21154818F048FF08B15C219A
:106B0000D2E71249D4E794F8913003F0FF020BB9B1
:106B10006A60ECE794F89130A66F012B01D16E60AA
:106B2000E5E704F1300010F00CFC4FF47A74A0FBA0
:106B300004BC04FB01CC4FEADB3242EA4C42B61AF9
:106B4000EDE700BFD82E0020D42E0020D2FC030099
:106B500000100140C2FD03002DE9F34890F8803099
:106B60000446022B0CBFB0F98400D4F8840018F05E
:106B7000D7FD054610B9784602F07EFCA06F4FF4B1
:106B80007A712A460023A0FB010118F049FC5F4DF1
:106B900000292B6808BFB0F57A7F06460F4603F43C
:106BA00080436AD2C3B15A4B1B68032B14DD2F21DB
:106BB000584818F0EBFE002856D02F21554818F001
:106BC000E5FE411C544B554AD3F80435009204208D
:106BD0004FF48D7207F0F0FC21220023C4E90E234C
:106BE0002B685A041AD54A4B1B68032B16DD2F213C
:106BF000484818F0CBFE002876D02F21454818F0E1
:106C0000C5FE411C444BA26BD3F804350192444AA3
:106C1000009204204FF4927207F0CEFC204601232C
:106C200000F8303F10F090FBD8B12B685B0418D50A
:106C3000374B1B68002B14DD2F21364818F0A6FEB9
:106C400000285AD02F21334818F0A0FE411C324BA7
:106C5000344AD3F804350092012040F22B1207F099
:106C6000ABFC02B0BDE8F0885C212A4818F08EFE2B
:106C700008B15C21A2E72749A4E7BBB1244B1B68FC
:106C8000032B13DD2F21234818F080FE18B32F218A
:106C9000204818F07BFE411C1F4B234AD3F80435D3
:106CA000009204204FF4907207F086FC4FEAC73C34
:106CB0004CEA564C4FEAC63B1C4E1D4A1BEB0600E5
:106CC0004FF000074FF000034CEB070118F0A8FB52
:106CD000C4E90E0184E75C210E4818F057FE08B1A4
:106CE0005C21D5E70B49D7E75C210A4818F04EFE36
:106CF00008B15C2182E7074984E75C21054818F068
:106D000045FE08B15C219EE70249A0E7D82E00208D
:106D1000D42E0020D2FC0300001001404AFC0300E6
:106D200093FC0300B0FC03006BFC030020A10700F0
:106D300040420F00024603218C3009F08ABE000059
:106D40007FB5089D04461646002B52D1C367036FDA
:106D5000002B50D1A367B6F90030002BCCBF47F60B
:106D6000FF734FF40043A4F87630B6F90030A4F86E
:106D70008430B4F87430A4F88630022384F880306C
:106D8000224B1B685B041FD5214B1B68032B1BDDAB
:106D90002F21204818F0FAFD00282ED02F211D4861
:106DA00018F0F4FD411C1C4BA26FD3F8043503927C
:106DB000E26F0292B6F900200192184A0092042074
:106DC00040F2492207F0F8FB2246022104F18C0030
:106DD00009F03FFE5DB1B4F974302B80B4F9763020
:106DE0006B80A36F003318BF01235B426B6004B05C
:106DF00070BD5A68C2671B68ACE75C21054818F093
:106E0000C5FD08B15C21CAE70249CCE7D82E0020B5
:106E1000D42E0020D2FC030000100140CDFD030061
:106E200030B587B004460A9D002B49D1C367036F74
:106E3000002B47D1A367B2F90030A4F876300022C6
:106E400084F88020B4F97420A4F888209B1AC4F830
:106E50008430224B1B685B0421D5214B1B68032B1C
:106E60001DDD2F211F4818F091FD68B32F211D480B
:106E700018F08CFD411C1C4BD4F88420D3F8043549
:106E80000492A26F0392E26F0292B4F9762001920B
:106E9000164A0092042040F2D11207F08DFB2246E0
:106EA000002104F18C0009F0D4FD3DB1B4F9743037
:106EB0002B80B4F976306B80A36F6B6007B030BD68
:106EC0005968C1671B68B5E75C21064818F05EFD8C
:106ED00008B15C21CBE70349CDE700BFD82E0020E5
:106EE000D42E0020D2FC030000100140FBFD030063
:106EF0002DE9FF410A9E04469046002B40F0988001
:106F0000C367036F002B40F09580A367012384F8CB
:106F10008030D8F80050584F6B429BB204F1040007
:106F2000ADB258BF5D4210F0B1F9002840F08D803D
:106F30003B6859041BD5514B1B68032B17DD2F21D0
:106F40004F4818F023FD002876D02F214C4818F028
:106F50001DFD411C4B4B98F80420D3F804350192D9
:106F6000494A0092042040F2012207F025FBB4F8C0
:106F70008830C4F884502B44A4F876303B685A0417
:106F80001FD53E4B1B68032B1BDD2F213C4818F0FF
:106F9000FDFC00285ED02F21394818F0F7FC411C79
:106FA000384BA26FD3F804350392E26F0292D8F8FF
:106FB00000200192354A009204204FF4037207F03A
:106FC000FBFA3B685B0421D52C4B1B68032B1DDDB2
:106FD0002F212B4818F0DAFC002844D02F21284814
:106FE00018F0D4FC411C274BB4F97620D3F80435B3
:106FF0000392B4F974200292B4F988200192244AD1
:107000000092042040F20F2207F0D6FA2246012116
:1070100004F18C0009F01DFD3EB1B4F974303380E9
:10702000B4F976307380A36F736004B0BDE8F0816B
:107030005A68C2671B6868E75C21114818F0A6FC13
:1070400008B15C2182E70E4984E7B4F87430A4F8F3
:1070500088308CE75C210A4818F098FC08B15C2164
:107060009AE707499CE75C21054818F08FFC08B1B6
:107070005C21B4E70249B6E7D82E0020D42E0020C8
:10708000D2FC03000010014024FD030056FD030064
:107090007FFD030090F88030012B03D9022B0BD029
:1070A00000207047836F013B0333F9D8D0F8840088
:1070B000003018BF01207047836F013B0333EFD8C6
:1070C000B0F98400F4E7000073B50023C66F80F8C0
:1070D000303004464FF400454FF4FA7000214FF46D
:1070E0007A720023E5FB060118F09AF9C4E90E0153
:1070F00004F1300010F028F9D0B1134B1B685B0489
:1071000016D5124B1B68002B12DD2F21104818F0EA
:107110003DFC78B12F210E4818F038FC411C0D4B76
:107120000D4AD3F8043500920120FB2207F044FAFF
:1071300002B070BD5C21064818F028FC08B15C2143
:10714000E9E70349EBE700BFD82E0020D42E00204A
:10715000D2FC0300001001402CFC030013B50446D0
:10716000C36E00F17401984704F1300010F014F977
:10717000B4F97420A4F876200023C4E91E336946CC
:107180002046ADF80020ADF8022001930FF0D8FFA3
:1071900002B010BD10B50446B0B1836EA3B1C36E8A
:1071A00093B10A4BC3620FF09FFF70B9084B246480
:1071B00004F18C006364074909F018FC04F1300005
:1071C000BDE8104010F0FAB80E2010BD84FE030098
:1071D000356D020074FE030010B5044607F034FF5D
:1071E00038B123780E2B04D10020BDE8104005F003
:1071F00073B910BD08B514F0F7F820B10CF078FCA5
:1072000008B10CF0F7FBBDE8084005F099B80000A4
:1072100070B5837DC27D86B043EA0223ADF8143099
:107220000446012305A80E46ADF8163013F014F8F5
:107230000546002845D104AA2146208A13F0F0F91A
:10724000054600283DD10DF112033246BDF810105D
:10725000E08A13F0F7FB0546002832D1217ED4F8EE
:10726000120001F0010104F013FD10B1784602F0A4
:1072700003F9BDF812000FF01DFB054608BB174BC4
:107280001B681B031DD5164B1B68062B19DD2F2110
:10729000144818F07BFBB8B12F21124818F076FB88
:1072A000411C227E104B02F00102D3F804350292F9
:1072B000D4F8122001920D4A00920720C62207F04E
:1072C0007BF9284606B070BD5C21064818F05EFBCD
:1072D00008B15C21E1E70349E3E700BFD82E0020B5
:1072E000D42E002094FE030000100140B3FE0300E2
:1072F00008B505F049FC11F079F912F0EFFEBDE890
:10730000084004F0C1BA000073B50E460546A0B3AC
:1073100004F0B2FF044668BB12F08AFF11F0AEF928
:1073200028690FF097FA044620BB2B7F0193AB69C5
:10733000009301466B69124859220FF043FD044641
:10734000C0B92B6A03B1984709F014FA12F062FE33
:10735000054610F0C5FE0B2D01D00B2802D1FFF71A
:10736000C7FF0B2414F040F8054608B10CF000FBF1
:1073700006B13570204602B070BD0E24FAE700BF9A
:10738000C82F002014F030B808B507F05DFE20B11A
:107390000020BDE8084005F09FB80248BDE808405D
:1073A00005F03CB89C2E002030B5274D297885B0DB
:1073B00019B1012803D003283FD005B030BD04AC7B
:1073C000002344F8083D214601F0C0FC08B116F046
:1073D000D5FD204601F024FD08B116F0CFFD04A92B
:1073E000012341F8043D0DF1060013F0FDFA08B148
:1073F00016F0C4FDBDF8060013F082F80DF105018A
:1074000013F0A0F908B116F0B9FD0CF0B1FA9DF82F
:10741000051000200CF00CFF10B1784602F02CF89B
:1074200004F08EFF08B116F0A9FD00232B70074B66
:107430001B68002BC1D09847BFE701F059FD002819
:10744000BBD016F09BFDB8E722300020243000208E
:1074500008B503781C2B0CD1064B1B784BB101F0FF
:1074600083FD08B116F08AFD0348BDE8084004F02A
:10747000D7BF08BD22300020A82E002010B5074934
:10748000074814F043FE024638B906490648096920
:107490000323BDE8104014F052BE10BD3C30002064
:1074A000A8330020243000207432002010B5037867
:1074B000023B082B4AD8DFE803F01E051249493881
:1074C00049493F00224B5B68002B3FD0007A0028DF
:1074D0003CD0204A01211170BDE8104018471C4BD8
:1074E0009B68002B32D01B4A117879B300211170B0
:1074F000BDE810401847184B1A784AB9144BDB689E
:1075000013B114490A709847BDE81040FFF7B6BFA1
:10751000124B134801221A7004F080FF04F066FF3A
:10752000A0B1BDE8104016F029BD094B0D485969BE
:10753000102214F049FEF3E7D0E90210FFF768FECD
:1075400008B116F01BFD044B01221A7010BD00BFDC
:107550002430002020300020213000202230002064
:10756000A82E00207432002070B51C4A1C4E5168B1
:10757000044686B0106803AB03C31189927A198060
:107580009A700FCC35460FC594E8030085E80300D8
:10759000736903B3134B0093134A1449144803ABA4
:1075A00014F086FDA8B9134816F0B4F90146104846
:1075B00014F098FD68B9104816F01EFB48B90E4843
:1075C00016F04CFB01460A4814F08CFD08B9FFF791
:1075D00055FF06B070BD0720FBE700BFD3FE0300D8
:1075E00024300020AD7402003C300020A83300207D
:1075F000743200205C3000202432002010B5054C8D
:10760000226832B116F0F8FD002802DB23689847A3
:10761000F8E710BDE8330020154B164A10B50C46AC
:1076200018600121144814F03DF918B1134A4A2199
:1076300016F0B1FC610C0023E00341F26F728B4243
:1076400008BF824210D24FF47A72002317F0E8FE8E
:10765000014600220A4814F037F938B1074A4B2195
:10766000BDE8104016F097BC0521F2E710BD00BF41
:10767000E8330020FD750200E0FE0300E4FE030095
:10768000EC33002070B50446CEB0002864D03C4DE9
:107690002A6852042FD53B4B1B68032B2BDD3A4B3A
:1076A0000DAE19680023E25C100902F00F02085CBD
:1076B00006F81300885C06EB43020133102B507070
:1076C000F1D100232F21314886F8203018F05EF9DF
:1076D000002843D02F212D4818F058F9411C2C4B7D
:1076E0002C4AD3F8043501922B4A0092029641228B
:1076F000042006F061FF2B685B042DD5214B1B682D
:10770000032B29DD2F21214818F040F900282ED025
:107710002F211E4818F03AF9411C1D4BE27BD3F88B
:1077200004350B92A27B0A92627B0992227B08921B
:10773000E27A0792A27A0692627A0592227A0492FB
:10774000E2880392A288029222680192134A009270
:107750000420462206F030FF4EB070BD5C210B487D
:1077600018F014F908B15C21B5E70849B7E75C21C6
:10777000064818F00BF908B15C21CAE70349CCE7C9
:10778000D82E0020D42E0020DC2E002007FF03007E
:10779000001001402FFF030041FF030049FF0300D9
:1077A0002DE9F8430468054694F8200000F008FC31
:1077B00004F11807FF264FF0FF394FF00008207A38
:1077C000FF2802D000F0FCFB2672607AFF2802D06E
:1077D00000F0F6FB66722068431C03D000F03CFD0D
:1077E000C4F8009084F80B800C34BC42E7D1686880
:1077F000BDE8F84300F00EBB2DE9F041134DDFF872
:1078000050800E460024012705EB41052B5D5BB13E
:107810002B5D013BDBB22B552B5D93B958F826301D
:107820001B683046DB6998474CB167B1084B53F889
:10783000263002215868BDE8F04100F05DBB01240C
:10784000E4E70027F0E7BDE8F08100BFB058002072
:107850000C34002040680C4902798B5CDBB2FF2BB2
:107860000DD0FE2B0DD0006803F5A87350F823301F
:10787000064850F82200984203D1FF238B54002081
:1078800070470120704700BF2034002028340020BA
:107890002DE9F74F0368904693F82120022A044609
:1078A0000F4640F09B800C254D435A195268904575
:1078B00009D1DB691BB9002003B0BDE8F08F426835
:1078C00010799847F7E7FFF7C5FF8346002840F097
:1078D00087806368DFF814911B79FE2209F8032082
:1078E000266896F8200000F0C5FBCA46B8F1000FE4
:1078F0001FD13544687A00F0BDFB287A00F0A2FB66
:1079000063681B79FF2209F803200C2303FB076639
:10791000C6F804802368DB69002BCCD063681A7931
:10792000304B03EB42030221D955606800F0D0FAD6
:10793000C1E7B169884507D335441FFA81F8287A31
:1079400000F098FB687AD9E707EB47094FEA890905
:1079500006EB090360685A6891423AD0002A38D091
:10796000904536D25B46032100F080FA636896F8B2
:1079700020B01B6856F80900354403F5A67301933F
:10798000AB7A1BB300F0BAFC02460199584600F0EE
:1079900039FB96F8200000F055FB63681B790AF864
:1079A000037063681A79104B43F822800C2505FB9D
:1079B0000765002342463946606800F057FA287A86
:1079C00000F040FB687A00F03DFB9EE700F088FC89
:1079D000DAE70379FF220AF80320E7E708206BE7DC
:1079E000112069E7B05800202834002020340020FE
:1079F00002680C2303FB0121888870470368188BF9
:107A0000704700002DE9F04F89B004460492894682
:107A1000002900F02E81066896F82130002B40F0F6
:107A20002A8100F049FD08B1852821D100F0A8FB8A
:107A300000B3924B1B6803F0F003302B20D10023DE
:107A40008F4A00211370FF234FF0FF3286F8203059
:107A5000F172337273723260F17532757375F26060
:107A600006F1200000F078FA60B12046FFF798FE9A
:107A700004271AE000F04EFB0028DAD0032714E0B8
:107A80000123DDE707464FF00C0A59F827B0FBB297
:107A9000BBF1FF3F039300F08580256895F8211026
:107AA00049B108272046FFF77BFE384609B0BDE8FC
:107AB000F08F0127E9E709EB07030AFB07F81B7AB8
:107AC000029305EB0803029A59609A724FF0030380
:107AD0008DF818302368434406A99B7AB3FA83F3E0
:107AE0005B098DF81930584601238DF81A3005933B
:107AF00000F050FBA0B9059B029945F808B003FAC5
:107B00000BF34FF0A042002900F0A580C2F80C351D
:107B10000AFB07FB0BF10800284400F01DFA08B12E
:107B20000427BFE70BF10900284400F015FA0028EC
:107B3000F6D105EB0B030593187A00F09BFA059B31
:107B4000587A00F097FA029B55F80800002B00F0D5
:107B5000858000F0D3FB834655F8080000F0C0FB99
:107B600063680AFB07551B6807F1500103EB8101AD
:107B700080465A46287A00F045FA6368687A1968A0
:107B8000424601F5A47100F03DFA0123EB726368EF
:107B90003C4A1B79039902EB430320460022DA5545
:107BA000FFF776FE002F84D0D9F810200023B2F51D
:107BB000805F01D3092B59D1314A127812B1002BC1
:107BC00008BF01238DF8183000238DF819308DF887
:107BD0001A3060682C4A07238DF81B30037907930D
:107BE00006A900F091F8074600287FF45BAF6368B0
:107BF000D9F810201B68D3F81055EDB2100FC5F15D
:107C00002001120100FA01F1A5F1200322FA05F585
:107C100020FA03F30D431D43B56160684FF001087E
:107C200000F020F904232A4602216068CDF8008084
:107C300000F037F90221606800F05EF9049BF361FF
:107C40006368124A1B7986F8218042F82340104A63
:107C5000FF21D15429E7C2F8083559E700F040FB6D
:107C6000834655F8080000F049FB79E752080133D4
:107C70009DE70B2719E7082717E700BFE80F00F07B
:107C80003C340020B0580020F97702000C3400206A
:107C9000203400202DE9F0470768DFF868900026BF
:107CA00004463D46B0464FF00C0A63681B7909EB69
:107CB000430303F80680EB7A73B1236828680AFB54
:107CC0000633997AB1FA81F1490900F025FB286859
:107CD00000F0F4FAC5F804800C357EB16368084AF8
:107CE0001B79FF21D154606800F0BCF8606800F097
:107CF00077F8022387F82130BDE8F0870126D4E722
:107D000020340020B0580020F7B50579314C0C26FE
:107D10006E43A7193B7A002B5AD1A2514A687A6068
:107D20009C46467902685F1CDBB29E4246D8120B25
:107D300053B2CE78284F002BAEBF03F1604302F060
:107D40000F02264B4FEA4616F6B2AABF03F561436F
:107D50009E5483F8006303681B0B5EB27609012210
:107D600003F01F0302FA03F347F8263007684B7845
:107D7000D7F8046503F0030326F003063343C7F87E
:107D8000043507688B78D7F8086503F0030326F0FD
:107D900003063343C7F8083506680B78D6F8100594
:107DA00003F00F0320F00F010B43C6F810350C232E
:107DB00003FB05440020227203B0F0BD9B0003F5D5
:107DC000A07342F803C0D3580193019B3B46A8E738
:107DD0000820F1E74034002000E100E014ED00E06D
:107DE000036801221A600379034A0C2101FB032373
:107DF00002221A72704700BF403400200368044911
:107E000001221A6103790C2000FB03131A727047D8
:107E10004034002038B503681B0B5AB201215209C7
:107E200003F01F0301FA03F320320C4941F822301A
:107E300003680025D3F80022C3F8005203684FF00E
:107E4000FF320446C3F80823FFF7D8FF2379044A1A
:107E50000C2101FB03231D7238BD00BF00E100E0CF
:107E60004034002003680122DA60704773B54FF494
:107E700080348C4005688BB18B0003F5A07300261D
:107E8000EE50EB580193019B0368C3F80443036869
:107E900001F5A87143F8212002B070BDC5F8084370
:107EA000F5E7F0B407689DF810C0D7F8004240F23B
:107EB00001158D4024EA0504C7F800420568D5F88D
:107EC00000422343C5F80032F0BC6346FFF7CEBF43
:107ED0008B0013B503F5A07302689BB20024D45045
:107EE000D3580193019B02684FF4803303FA01F1E8
:107EF000C2F8041302B010BD02684FF4803303FAD5
:107F000001F1C2F808137047F7B5104E104F114D2C
:107F10000024A3199B001A6892B1D7F804134FF4F8
:107F20008032A2400A420BD000221A601B680193E3
:107F300004F150008000019B80B2D5E900319847E0
:107F40000134042CE5D103B0F0BD00BF5024001073
:107F500000900040403400202DE9F74F4FF0000919
:107F6000154D164E07464FF0040AC8465FFA89FBC6
:107F700001240DF1070004FA0BF48DF8078000F0DE
:107F80000BFC2C4208D0336814EA030201BF2343E0
:107F9000336087F800B092469DF8070000F020FC9F
:107FA000BAF1000F03D0A54309F10109DED1504613
:107FB00003B0BDE8F08F00BFFFFF01004C3400208C
:107FC00037B501258540C5F31003A3B10B4B02A8BB
:107FD0000024C3F8085500F8014D00F0DDFB084A05
:107FE0009DF80700136823EA0505156000F0F8FB0B
:107FF000204603B030BD0720FBE700BF00F0014082
:108000004C34002010B5A1B19AB101238340C3F3D1
:10801000100484B10A4C246823420ED0C00000F141
:10802000804000F5F830C0F81015C0F81425002085
:1080300010BD0E20FCE70720FAE70820F8E700BF94
:108040004C340020012303FA00F0430C5B044BB9CD
:1080500018B1064B1B68184206D0054BC3F804053F
:108060000020704707207047082070474C340020DC
:1080700000F00140012303FA00F0430C5B044BB90C
:1080800018B1064B1B68184206D0054BC3F808050B
:108090000020704707207047082070474C340020AC
:1080A00000F0014000F1804000F5C040002382B0A4
:1080B000036003680193019B02B07047800000F1E8
:1080C000A040D0F8003723F44033C0F80037D0F890
:1080D000003743EA0141C0F800177047054B4FF0E5
:1080E000FF32072843F8202084BF1B1883F83C2068
:1080F000704700BF50340020C208054900F0070057
:1081000001238340885C20EA03008854704700BF45
:108110009534002010B5164C94F8493033BBFF213C
:10812000E2180133202B82F82410F9D10021C8B2C3
:10813000FFF7D4FF01310929F9D1042200210D48AC
:1081400017F054FB0C4BC02283F8062340221A6020
:108150004FF4BE70FFF7A6FF084B4FF00042C3F884
:108160000423012384F84930002010BD0820FCE7D7
:10817000503400209534002000E100E00060004011
:10818000034B93F84900003018BF0120704700BF2F
:108190005034002030B52E4C231893F9242001329E
:1081A00053D18A78002A4CD0002354F8235001354B
:1081B0004FEA830240D1251802F1804285F824302D
:1081C000002502F5C04244F82350D2F810550B7830
:1081D0004C7825F498151B04240525F4F85504F46F
:1081E000801403F44033C2F8105523430402D2F83C
:1081F000105504F4F85423432B43C2F810354A7841
:108200000123012A4FF0A04203FA00F30CBFC2F889
:108210000835C2F80C3500F5E073032142F823104D
:10822000C2080C49012300F0070003FA00F08B5C40
:1082300018438854002003E00133082BB5D10420F3
:1082400030BDFE2283F82420D9E70820F8E700BFDC
:10825000503400209534002038B516490D180446D6
:1082600095F82400072809D8FFF738FF95F924303E
:10827000114A03F5A273002042F823000B19FF22D4
:1082800001EBD40183F8242091F84520012304F068
:1082900007018B401A420BD004F5E0724FF0A04367
:1082A000022143F822102046BDE83840FFF724BFE2
:1082B00038BD00BF5034002000600040074B184418
:1082C00090F924309B0003F1804303F5C043D3F8B9
:1082D000102542F00302C3F81025704750340020E7
:1082E000054B184490F924000C308000C0B200F116
:1082F000804000F5C040704750340020054B1844C2
:1083000090F9240018308000C0B200F1804000F5E0
:10831000C0407047503400200A4B1844003190F997
:1083200024304FEA830303F1804303F5C04318BFB1
:108330000121D3F8102522F4801242EA0152C3F839
:1083400010257047503400202DE9F04385B00024FB
:10835000544A554E554D019401211368A2F5C04071
:10836000012B80B206D1D6F804330B4202D0FFF7BE
:1083700099FE0C430432AA424FEA4101EDD14C4B25
:108380001B68012B0AD14FF4BE70FFF78BFE4FF034
:10839000A04344F00044D3F81035019314F0FF0FCC
:1083A0001AD0444F01260025344210D0AB0003F10F
:1083B000804303F5C043D3F81005D3F8101557F8E0
:1083C0002530C0F30420C1F3014103B198470135C2
:1083D000082D4FEA4606E7D1002C2EDA00224FF096
:1083E000FF33CDE90223DFF8CC80012702AE98F9F4
:1083F0004430DAB2013322F0C0041ED004A8E108F0
:1084000000EB010C02F007031CF8040C07FA03F35D
:10841000184212D008EB0400920990F9240058F891
:1084200020509DB9032A08D112E04FF001091146EE
:108430002046A847B9F1000F23D105B0BDE8F0836D
:108440000229FAD1032A27D1114615E0032A02D1C5
:10845000705C184370544FF0A04004F5E07150F880
:1084600021101CF80C0C1842C1F30141E8D103297A
:10847000E3D1032A10D102212046FFF71FFE002D71
:10848000D3D14FF0A043019AD3F810359342D4D002
:108490000193029B0393AAE7002DCED04FF0000971
:1084A000C5E700BF0061004000600040206100405F
:1084B0007C61004050340020034B187810B9012231
:1084C0001A707047852070479C34002072DF704717
:1084D00073DF704774DF7047F0B52F4CA3B00546CB
:1084E0000E46174600211022204617F07FF92B4830
:1084F0002B4A03782B49C3EB431C6244013361448C
:1085000003F00103A2601F2203702160A280A281F8
:1085100000213C2204A817F069F9062301AA8DF86E
:1085200013300E9201233C22002113A88DF8023053
:10853000ADF820308DF83C30ADF80050CDF824D0A7
:10854000ADF80450ADF80870039617F04FF9022308
:10855000221D21688DF84C3004A800F0CBF908B139
:1085600015F00CFD104AA16813A800F0C3F908B17A
:1085700015F004FD0D4A08490D48FFF7A7FF08282C
:1085800004D1002204490A48FFF7A0FF08B115F002
:10859000F5FC23B0F0BD00BFDC3400209D3400208A
:1085A000EC3400209E340020E8340020B82E002057
:1085B000B42E0020B0F5202F0AD20A23B0FBF3F32B
:1085C00010B1002B08BF0123034A938191607047CB
:1085D0004FF6FF73F8E700BFB82E002008B5064B32
:1085E00001211878FFF774FF08B115F0C7FC0020CF
:1085F000BDE8084004F01ABDB42E002008B5054BB4
:108600001878FFF767FF18B1BDE8084015F0B6BC51
:1086100008BD00BFB42E002076DF70477ADF7047B8
:108620007CDF704715F0AABC03F0FCBE07B50378E9
:108630004BB93B214088FFF7EFFF08B303B05DF86B
:1086400004EB15F09BBC012B1AD1134B1B685B0488
:1086500016D5124B1B68032B12DD2F21104817F083
:1086600095F980B12F210E4817F090F9411C0D4B60
:108670000D4AD3F8043500920420682205F09CFFCF
:1086800003B05DF804FB5C21054817F07FF908B1E1
:108690005C21E8E70249EAE7D82E0020D42E00202A
:1086A000A3FF030000100140D3FF030013B500F047
:1086B0001FFC08B115F062FC02AC002344F8043D35
:1086C0000120214600F042FB08B115F057FC20467E
:1086D00000F0A6FB08B115F051FC02B010BD00007F
:1086E0001FB504AC1123104804F80C3D17F046F9EF
:1086F0000D4982B22046FFF793FF08B115F03EFC0A
:1087000008220DEB0200002117F070F8074A4FF025
:10871000C87302A8CDE90223FFF780FF08B115F066
:108720002DFC04B010BD00BF89FF03007800C80015
:1087300010B58AB001AC08220021204617F056F887
:10874000124A4FF0C873CDE9012300211C2203A86F
:1087500017F04CF84FF4803340F6CD41CDE90413C7
:1087600003238DF818300023ADF81A308DF81C3033
:10877000074B089303A8074B0394099300F03CFDB3
:1087800008B115F0FBFB0AB010BD00BF7800C800AF
:108790002D8602002586020070B5EFF3108672B6B2
:1087A0000C4A946801239CB993600B4B0B4DD3F892
:1087B000801029401160C3F88050D3F884105160B4
:1087C0004FF0FF32C3F88420047006B962B670BD62
:1087D0000370FAE7BC58002000E100E0FC06FFBD92
:1087E00010B5084B9A685AB150B9EFF3108172B6C0
:1087F000054A1C6814605C685460986001B962B6F0
:1088000010BD00BFBC58002000E100E06DDF7047E4
:1088100079DF70477DDF704764DF70472DE9F74FE0
:108820000C9CBDF834B02788002580468A469146C6
:108830002E46B8F80020B2420BDC35B12288013A4E
:10884000D21B92B2FF2A39D8DA55002003B0BDE816
:10885000F08FD8F8042052F82600019000220DF184
:10886000030101A8FFF7D8FF0028EFD19DF80320EE
:108870004A4521D12288002D14BF0020022002EB9E
:1088800009010144594519DC3DB9013292B22280F7
:1088900003F802A022880132228022880DF1030110
:1088A0001A4401A8FFF7B8FF0028CFD121889DF80E
:1088B00003200A44228001250136BAE70C20C5E7CF
:1088C0002DE9F341089CBDF824501746CDE9004539
:1088D00002220646FFF7A2FF48B910223946304669
:1088E000CDE9084502B0BDE8F041FFF797BF02B0FF
:1088F000BDE8F0812DE9F04F00231688138090F831
:108900002D3085B007460D46144653B3082E01D8C6
:108910000C2026E102A8FFF779FF002840F0218112
:1089200013880822CA54238801339BB21B22238058
:10893000CA542088013080B2208006220DF109013E
:10894000284416F048FF23889DF8082006339BB280
:1089500012F0FE0218BF01222380EA54238801335B
:108960002380BB78FBB123880433B342D0D802A85C
:10897000FFF74EFF002840F0F48023880322EA54DA
:10898000238801339BB219222380EA542388BDF83F
:10899000082001339BB2E9182380EA54120A4A7076
:1089A000238802332380FA789AB12388D91CB142F4
:1089B000AED80221E954238801339BB201212380E0
:1089C000E95423880B449BB22380EA5423880B4448
:1089D00023807A68AAB12388D91CB14298D8022191
:1089E00092F90020E954238801339BB20A212380A5
:1089F000E954238801339BB22380EA54238801334E
:108A000023803B89002B40F0A0803B8A5BB1CDE9FD
:108A100000462B460722032107F11000FFF750FF05
:108A2000002840F09E803B8B5BB1CDE900462B4691
:108A30001522142107F11800FFF742FF002840F02B
:108A400090803A6A002A40F08F80D7F82480B8F1ED
:108A5000000F30D0B8F804302188981C8A1C0244DA
:108A6000B2423FF655AFFE283FF652AF03336B5488
:108A7000238801339BB2FF222380EA5423880133E9
:108A80009BB22380B8F80020EA54E918120A4A7011
:108A90002088023080B22080B8F804205AB1D8F87B
:108AA000081000296AD0284416F095FE2388B8F8EB
:108AB00004201344238097F82C30002B40F0998039
:108AC000387800284DD03B88012B57D021888A1C4C
:108AD000B2423FF61DAF012805D17B7802330B442B
:108AE0009E42FFF415AF023E761A04A9B6B221F8F1
:108AF000086DA818FFF78EFE98BB3978BDF80820DE
:108B0000022900F0BB807B78934202D3B24240F24C
:108B1000B380012940F0B4809BB29E42C0F0B08087
:108B2000ADF808300821BDF80830FE2B3FF6F0AE56
:108B300022880133AB542288013292B22280A95498
:108B400022881344238000200BE0CDE900462B4609
:108B50000622022107F10800FFF7B2FE00283FF4C9
:108B600054AF05B0BDE8F08FB4F800C00CF10603B7
:108B7000B3423FF6CDAE1188052901D80720F0E7B2
:108B80006FF4486E01EB0E039BB24FF27D3E7345CE
:108B9000F4D95388052BF1D96FF44860181880B2C6
:108BA0007045EBD94FF6FF70814203D0834201D06C
:108BB0009942E3D8052305F80C30238801339BB292
:108BC00012212380E954238801339BB2238011882A
:108BD000E954E818090A4170238802339BB22380C4
:108BE0005288EA54E918120A4A7023880233238013
:108BF0002BE7BB6A002BC1D04FF000094FF00C0AE5
:108C00004FF0160B97F82C305FFA89F293427FF6FB
:108C100057AFB96A0AFB02F201EB0208B8F8043058
:108C2000981CFE283FF674AE208803332B5423880B
:108C300001339BB2238005F803B0238801339BB234
:108C400023808A5AEA54E918120A4A7020880230AE
:108C500080B22080B8F804205AB1D8F80810002952
:108C60008CD0284416F0B7FD2388B8F804201344AC
:108C7000238009F10109C5E7092154E7B242FBD974
:108C8000ADF808604EE701600B6843604A689342A4
:108C900004BF002343607047436843B10268916892
:108CA0000B4443605268934204BF00234360704703
:108CB0004BDF70471FB50D4C01A8FFF7F9FF70B9E6
:108CC000214602A8FFF7DFFF039B002BF4D0019899
:108CD000D3E90021904702A8FFF7DEFFF4E705285B
:108CE00001D015F04BF904B010BD00BF0000040026
:108CF00060DF704769DF704761DF704730B5114B47
:108D00001B78A9B0E3B1104D94240DF1020103A822
:108D1000ADF80240FFF7F0FF70B9294601A8FFF750
:108D2000B2FF029B002BF0D003A8D3E900219047AB
:108D300001A8FFF7B1FFF4E7052801D015F01EF9EF
:108D400029B030BD2A3500200C000400F0B50746DC
:108D500085B00D4600295ED0304B0B600C220021FF
:108D600001A816F043FD012606232A68ADF8083055
:108D700001A920208DF804708DF80660FFF7BAFF76
:108D80000C22002101A816F031FD00242A688DF87C
:108D9000056001A940208DF806408DF80740FFF7D7
:108DA000A9FF0C22214601A816F020FD45232A68C0
:108DB000ADF8063001A923208DF80470FFF79AFF63
:108DC0000C22214601A816F011FD2A688DF80440F6
:108DD00001A93046FFF78EFF0C22214601A816F0AC
:108DE00005FD4FF4B0632A68019301A9A120FFF7A4
:108DF00081FF0C22214601A816F0F8FC9DF80430F2
:108E00002A68334301A9A0208DF80430FFF772FFD0
:108E1000204605B0F0BD0E20FBE700BFF02D00207E
:108E200008B5FFF765FF10B9014B01221A7008BDA4
:108E30002A35002010DF704711DF704713B5044654
:108E400009496846FFF71FFF019808B902B010BD35
:108E5000D0E900312046984718B16846FFF71CFF5B
:108E6000F2E71120F2E700BF1C00040013B504462E
:108E700007496846FFF707FF019B0BB902B010BD19
:108E80002046D3E9002190476846FFF705FFF3E746
:108E900034000400064B9A6822B11A6822F480025A
:108EA0001A607047034B4FF48002C3F8802070476C
:108EB000BC58002000E100E00B4991F816335A0934
:108EC000EC231341DB0706D5084B9A683AB94FF4F7
:108ED00080030B60704742F2020015F04FB81A6829
:108EE00042F480021A60704700E100E0BC580020A4
:108EF000F7B5184F3C785CBB174E012520463570FE
:108F0000FFF79CFF112820D02046FFF7AFFF134B3F
:108F10001868019002A800F8054DFFF73DFC1049C4
:108F200001A8FFF787FF0446B0FA80F040093870C7
:108F30009DF80300FFF754FC3CB90A4B34701C70D9
:108F4000FFF7BAFF2846FFF791FF204603B0F0BDB8
:108F50000824FAE72C3500202B35002018000400E7
:108F6000799202002D350020F7B5154F3B7813B3E9
:108F7000144E01203070FFF761FF11284FF00005FB
:108F80001BD00220FFF772FF02A800F8015DFFF777
:108F900003FCFFF751FF04469DF807003D70FFF703
:108FA0001FFC2CB93470FFF775FF0320FFF75EFF3D
:108FB000204603B0F0BD0824FAE72C46F8E700BFCE
:108FC0002C3500202B35002007B508496846FFF7EF
:108FD0005AFE019B13B903B05DF804FBD3E90020EE
:108FE00090476846FFF758FEF3E700BF28000400EB
:108FF000FFF7EABF75DF704776DF70477ADF7047AB
:109000007BDF7047034B1A8882420CBF1846002052
:10901000704700BF4C350020024B9B6903B11847D5
:10902000704700BF3035002037B585B22846FFF7BE
:10903000E9FF034670B1164C017A227B91420BD2B4
:1090400000F10A012846FFF7D5FFE8B1112801D049
:10905000FFF7E2FF03B030BD237C0022027243B170
:109060003B212846FFF7C8FF30F0080301D0FFF787
:10907000D3FF6369002BEDD000228DF80420ADF8FA
:10908000065001A89847E5E71A7A01321A72E1E71B
:109090003035002013B50B46497A0F4C024669B9AA
:1090A000D4E901101C7A002C18BF0146586812F050
:1090B0000BFC08B1FFF7B0FF02B010BD0021197220
:1090C0006369002BF8D00121ADF806008DF804107B
:1090D00001A89847F0E700BF3035002030B58388FD
:1090E0000588B3F5FA7F24BF6FF4F9729C184A889B
:1090F00038BF002495420CD84088904209D38A8812
:10910000A24206D303F2F310904234BF00200120A4
:1091100030BD0020FCE7000070B50388112B01462C
:1091200048D002D8102B1ED070BD122B52D0502B1D
:10913000FAD12F4BC288DB899A42F5D1038A022BE0
:10914000F2D186883046FFF75DFF05460028EBD058
:1091500001F1120000F08AF830BB686812F0FCFBE5
:109160000028E1D009E0C37B012BDDD14FF6FF7071
:10917000FFF748FF054620B90420BDE87040FFF71F
:109180004BBF8E881B4A0680002303721368C5F804
:109190000A300A30536843601031FFF79FFF144BC9
:1091A0006872DB89002BBFD129463046BDE870408C
:1091B000FFF770BF8088FFF725FF04460028B3D073
:1091C000406812F0C9FB08B1FFF726FF4FF6FF73A6
:1091D0002380A9E786883046FFF714FF054600285C
:1091E000A2D008310A30FFF779FF6872DCE700BFD0
:1091F0003035002060350020F8B5064650B30546EE
:109200000FCD154F3C460FC495E8070084E80700D2
:109210003068124B3B60B8B1FFF7F0FEC8B9316857
:109220000A681A604A685A600D480E4A4FF6FF7382
:1092300003800D4B40F8043F002112F033FB00285F
:1092400014BF0320002004E01846FFF7D9FE0028D1
:10925000EAD0F8BD0E20FCE7303500206035002054
:109260004C3500202990020068350020007800F07D
:10927000010070470620704730B5754B14461B68D7
:1092800041F20102904287B00D4603F480437ED044
:109290001ED8012845D0002B5DD06E4B1B68002BDB
:1092A00059DD2F216C4816F071FB002800F0C480B6
:1092B0002F21694816F06AFB411C684B684AD3F8B5
:1092C0000435009201957B22012005F075F942E0FA
:1092D00044F20102904200F0858044F20202904282
:1092E000D9D1002B37D05B4B1B68002B33DD2F21EE
:1092F000594816F04BFB00286BD02F21564816F02A
:1093000045FB411C554B2288D3F804350392626813
:10931000CDE90152534A009201206C2205F04CF92C
:1093200019E0C3B14B4B1B68002B14DD2F214A48B9
:1093300016F02CFB10B32F21474816F027FB411CD9
:10934000464B494AD3F804350092CDE901546022D6
:10935000012005F031F94FF0A0434FF4F012C3F8AB
:109360001825C3F80C25EFF3108372B64DF6AD6CDB
:109370003E4A1378002B68D107B030BD5C213648D7
:1093800016F004FB08B15C21D6E73349D8E7002B7F
:10939000E1D0304B1B68002BDDDD2F212E4816F06D
:1093A000F5FA68B12F212C4816F0F0FA411C2B4B2E
:1093B0002F4AD3F804350092CDE901546322C7E760
:1093C0005C21254816F0E2FA08B15C21EBE722495E
:1093D000EDE75C21204816F0D9FA08B15C218DE751
:1093E0001D498FE7002BB6D01A4B1B68002BB2DD4E
:1093F0002F21194816F0CAFAA8B12F21164816F0E5
:10940000C5FA411C154B2268D3F8043504926268F2
:10941000CDE90252A2680192164A009201207722F9
:1094200005F0CAF897E75C210B4816F0AFFA08B1CF
:109430005C21E3E70849E5E75C21074816F0A6FA56
:1094400008B15C2135E7044937E730BF91E700BF39
:10945000D82E0020D42E002040000400001001402F
:10946000E4000400A400040068000400D02E0020E2
:1094700082000400C300040007B50023ADF80030EB
:109480000146054B01936A4644F20200FFF7F4FEE1
:1094900003B05DF804FB00BFCCFD030001461022C1
:1094A000014816F098B900BF8835002010B50B4C64
:1094B0000B490822204616F08EF90822A018094907
:1094C00016F089F9E379042262F30713E371237A32
:1094D000022262F38713237210BD00BF883500207B
:1094E00060000010A400001000487047883500207C
:1094F000064B002203F580715A805A6003F8082B4E
:109500008B42F9D1024B1A60704700BF983500209A
:1095100098360020F0B50C4B0C4C1B6806462022F8
:109520007BB1013B14F8330050B104EBC3056F88E5
:10953000B74202D16D688D4202D0013AF0D1104697
:10954000F0BD1F23EEE700BF9836002098350020BD
:1095500030B5084A084C136804EBC3056960012163
:1095600004F833100B44202B08BF002368801360DD
:1095700030BD00BF9836002098350020C0F30C03A2
:109580008B42084438BFA0F50050C01A7047000055
:10959000F0B50D4B0D4A1E6800218E4212D01568A1
:1095A00000230AE052F8044C04EBC30714F83340DC
:1095B000844201D17868F0BD01339D42F2D101317E
:1095C0000832EAE70020F6E7243700202C37002095
:1095D00000B58DB048B9991C07D0012101A88DF8BC
:1095E0000410CDE9023201F03BFA034B186803F096
:1095F00015FF0DB05DF804FB3037002010B503787F
:10960000044613B97846FFF737FF607A431C012000
:109610009840013810BD2DE9F0410E468EB0154638
:109620001C46074610B97846FFF726FF16B978465C
:10963000FFF722FF636AA27802330593E378A2F171
:109640000800002B14BF012102210DF10408424241
:109650004241434604F10C0004F013F8A3788DF85E
:109660003430237BADF82050022B16FA85F5CDE976
:1096700006870B960C950FD1236913B97846FFF72F
:10968000FBFE23690993102305A8ADF8283003F0E9
:10969000F4FF0EB0BDE8F0810023F5E7B2F5C07F1E
:1096A0002DE9F04781468846174602D97846FFF7EC
:1096B000E3FE244B002570229A4602FB053494F801
:1096C000486046B9384607F0D8FEE06638B900244D
:1096D0002046BDE8F0870135042DEED1F7E73022B2
:1096E0004946204616F077F8B8F1010FE664A4F871
:1096F0004A701DD1144B84F852601B7D84F85130A0
:1097000084F8536084F85060D9F8283063656FF0AE
:109710000103A3620D4BA4F85860A36324640120E5
:1097200002F066FA702303FB05A585F84880CFE7B1
:109730006FF00103A362064BA36584F8686024669A
:10974000044BEAE74C370020343700204D9C0200E0
:109750009DA40200459C020010B50446C06E07F0AF
:109760008EFE04F1300003F083F894F84830022BA9
:1097700003D104F1500003F07BF820467022002151
:1097800016F034F8002084F84800BDE8104002F0DC
:109790002FBA10B590F84830012B8CB0044602D097
:1097A0007846FFF769FE01238DF8043001A8636D48
:1097B000029301F055F92046FFF7CEFF0CB010BD23
:1097C000037BD3B190F91620002A18DBC27D5AB171
:1097D000022B12D090F90330002B10DB8378002B82
:1097E0000CBF002007207047C2780AB9012B06D1B0
:1097F000037833B98378042BF2E7102070470720F1
:1098000070470020704700001FB500220B468DF8FE
:109810000F2028B30230086018460DF10F0103F045
:109820002EFF9DF80F30DBB1144B1B685B0717D57B
:10983000134B1B68032B13DD2F21124816F0A6F8DB
:1098400098B12F210F4816F0A1F8411C0E4B0F4A7A
:10985000D3F804350092042040F2064204F0ACFE36
:109860009DF80F0005B05DF804FB5C21054816F07B
:109870008DF808B15C21E5E70249E7E7D82E002022
:10988000D42E002051010400001001406E0104009C
:1098900070B504468CB02378808AD4E90612E3B10F
:1098A000E38805F027FE0546A0B12C22002101A87F
:1098B000A68AE46915F09AFF0F238DF804304FF063
:1098C000000364F3000301A8ADF808608DF80A30C6
:1098D00001F0C6F828460CB070BD05F007FEE2E7BF
:1098E0002DE9F04F99461378D2F81880F3B0074667
:1098F0008A46144623B1D1884046FFF73FFE906167
:10990000E378A278002BA2F1080003AD14BF012177
:10991000022104F10C0642422B464241304603F03C
:10992000B0FEA278C4F81880CDE908571FFA8AF56E
:10993000AB1A9BB21F44ADF82830E3780E974FF076
:10994000000812AF0D978DF83C20ADF83080002B49
:1099500065D04FF0100B04F1240A237BC4F8248057
:10996000022B02BF2369ADF830B00B93206A217936
:10997000524611F095FB606A30BB237B022B05D168
:109980003146E08911F04EFC0028E6D1374B1B68C8
:109990005B0741D5364B1B68052B3DDD2F21354834
:1099A00015F0F4FF002858D02F21324815F0EEFFB3
:1099B000411C314B314AD3F804350092062040F265
:1099C000F26204F0F9FD27E007A9FFF71DFF002868
:1099D000CCD02046FFF75CFFF0B9A2780B908DF851
:1099E0001C0096E80300A38AADF82A30AD1A0CAB30
:1099F00001228DF8282083E80300A37D8DF84030F4
:109A0000236A0E9307A8636A0897ADF824500F9352
:109A1000CDF8449001F024F873B0BDE8F08F227BBC
:109A2000012AB3D1A046E089B4F814A048F8243F35
:109A3000414611F07BFB07A9606AFFF7E5FE0028AD
:109A4000C7D160624146504611F070FB07A9606AB9
:109A5000FFF7DAFE002899D0BBE75C21054815F036
:109A600095FF08B15C21A0E70249A2E7D82E0020AB
:109A7000D42E002051010400001001403F020400D8
:109A8000C37D0A7830B5002B3DD0C37822F07F0229
:109A900003F07F031A430A700B78027803F07F0308
:109AA00043EAC2130B70037863B38378083B5A42CE
:109AB0005A414B7803F07F0343EAC2134B708A7814
:109AC000C58802F00302C5F3861442EA850223F03A
:109AD0007F032343D2B28A704B70CB78057A03F0B0
:109AE0001F03C5F3C10422F0030243EA45132243D6
:109AF000DBB2CB708A70427A23F01F0302F01F02A0
:109B00001343CB7030BDC47822F0400343EA841382
:109B1000DBB20B70027923F03F0302F03F021343E4
:109B20000B70B9E738B590F84830012B044602D0E5
:109B30007846FFF7A1FC02F0DBFE237B074A012BEE
:109B400005BFD2E90315A37DD16805FB03110144CC
:109B500004F13000BDE8384002F0A1BE34370020E7
:109B6000F0B50D4691B0044610B97846FFF784FC75
:109B700094F84830022B19D1E188A069FFF7FEFC68
:109B8000E1690A061618284A4FEA112343F1000733
:109B9000136830465E1C166003F00703234A1B015E
:109BA0003946D618A78AD752C6E902012C220021CD
:109BB00005A8666D15F01AFE102305A88DF814305F
:109BC00006968DF81C5000F04BFF2046FFF7C4FDB1
:109BD000174B1B685B071BD5164B1B68032B17DD48
:109BE0002F21154815F0D2FEA0B12F21124815F0F3
:109BF000CDFE411C114BD3F80435029594F8482052
:109C000001920F4A009204204FF4FA7204F0D4FC3F
:109C100011B0F0BD5C21084815F0B8FE08B15C2118
:109C2000E4E70549E6E700BF20370020A036002022
:109C3000D82E0020D42E0020510104000010014035
:109C40002001040008460021FFF78ABF10B591F8F3
:109C50004830012B0C4602D07846FFF70DFC94F8F3
:109C600051305BB1013B84F85130002384F850300F
:109C7000084BBDE81040186803F0D0BB217B0129D8
:109C8000204603D1BDE81040FFF76ABFBDE8104091
:109C9000FFF77FBD303700202DE9F04F044689B033
:109CA0000F4609B100230B6004F10C0394F85050E7
:109CB00001934FF001084FF0000B627AAA4203D2E1
:109CC000002009B0BDE8F08FE16C08FA05F30B4203
:109CD00059D1E37D2572002B0CBF0C260826954236
:109CE00006FB05FA237808BFB4F84A608DF818B06F
:109CF00008BFA6EB0A06002B14BF4FF004094FF073
:109D0000010906EB09030493019B0293A36A0393E1
:109D100002A8E36A059303F04EFE0028D1D1079B09
:109D2000994445B994F853302BB9A36984F853800A
:109D3000C3F30C03E380E37D8BB994F8523073B91D
:109D400015B17846FFF798FBB4F84A10A2788A1A42
:109D5000E16E23460846FFF75EFC84F852800799BF
:109D60002046FFF78DFEE16E32465144484615F01D
:109D700032FD02A803F040FE17B13B6801333B609F
:109D80006B1C84F850300135EDB296E72DE9F043B5
:109D900007468FB01046884615469946FFF778FD6E
:109DA0000446002860D1EE78002E40F0AE80B8F175
:109DB000060F59D138787A78DFF8A8C1830103F407
:109DC000FE5343EA9203D7F802204FF0700812BA0C
:109DD000674608FB04C696F84810012925D1B6F855
:109DE00014E0E9898E4520D1F18899421DD1B6F859
:109DF00058E0A98ABEF1000F01D08E4515D110F0B0
:109E0000800F4FF070033BD003FB0473A3F858108E
:109E1000702303FB0474E56C1543E564002A61D1EB
:109E200003213046FFF79CFE1EE00134042CD0D104
:109E3000464B1B685B0717D5454B1B68012B13DD91
:109E40002F21444815F0A2FD88B12F21414815F07B
:109E50009DFD411C404B414AD3F80435009202203D
:109E60004FF4CD6204F0A8FB0FB0BDE8F0835C2195
:109E7000384815F08BFD08B15C21E7E73549E9E783
:109E800003FB0473DB898B42C2D0304B1B685A073B
:109E9000EAD52F4B1B68012BE6DD2F212D4815F04D
:109EA00075FDB0B12F212B4815F070FD411C2A4BD8
:109EB000AA8AD3F804350292702202FB04740220AD
:109EC000E2890192264A00924FF4CE6204F074FBBC
:109ED000CAE75C211F4815F059FD08B15C21E2E793
:109EE0001C49E4E73046FFF789FB854203D1304641
:109EF000FFF74FFCB8E7002184F850103046FFF719
:109F0000CBFE3046FFF70EFEAEE73046FFF740FBD4
:109F100003460028A8D005F10C012A6A0B9203C958
:109F2000AA8AADF8222009AA82E80300AA7D8DF84A
:109F300030202A788DF82020EA6A8DF81460CDE967
:109F400006780D92494605A898478DE7D82E00203F
:109F5000D42E0020510104000010014081010400B2
:109F6000AF0104004C370020F0B5C37D1546827860
:109F7000002B2A4414BF4FF480734FF4C0739342F4
:109F8000C7B00E4679D3404C0023E11891F84870D1
:109F9000012F08D1B1F814C0878ABC4503D1CF89FD
:109FA000C1898F426BD07033B3F5E07FEDD10121D1
:109FB000FFF774FB0446002863D02A463146C06E82
:109FC00015F009FC002304A920460493FFF764FE62
:109FD00030F0040506464BD1049B13B12046FFF731
:109FE000A1FD2A4B1B685B0728D5294B1B68032B57
:109FF00024DDB4F84A10274B8029186828BF802137
:10A00000002305AE8B421CD100222F21224806F8E6
:10A01000132015F0BBFC10B32F211F4815F0B6FC20
:10A02000411C1E4B1E4AD3F8043501921D4A009272
:10A03000029640F25552042004F0BEFA284647B07A
:10A04000F0BDE26ED25C170902F00F02C75D06F8A0
:10A050001370875C06EB430201335770D2E75C2133
:10A060000D4815F093FC08B15C21D6E70A49D8E702
:10A070002046FFF771FB3546E0E70925DEE70825B6
:10A08000DCE70425DAE700BF4C370020D82E00209B
:10A09000D42E0020DC2E00205101040000100140CD
:10A0A0004301040041FF03002DE9F041044686B05E
:10A0B000808A0F46164602F041F8012844D1204616
:10A0C000FFF77EFB054638B923784BB13246394657
:10A0D0002046FFF749FF0546284606B0BDE8F08157
:10A0E000E27DA378002A334414BF0B220F2293424F
:10A0F00028D80133029304F10C030093A36A01935F
:10A100008DF81000E36A0393684603F054FC05469B
:10A110000028E1D10599204601F10108FFF7B0FCC4
:10A12000E37D43B132463946404615F054FB68465C
:10A1300003F062FCD0E72346324641463846FFF73B
:10A140006AFAF4E70925C7E71025C5E710B54FF40B
:10A15000E0720021134815F049FB002405F0ACFA29
:10A16000114B12481C602146802215F03FFB104B1A
:10A170001049114A11489C75C3E9001210494CF26C
:10A180005032C3E902211A6140F604029A8203F0B8
:10A1900027F90C4B18600C4B0C481C60BDE81040B4
:10A1A00005F094BB4C37002020370020A03600205B
:10A1B0003437002080969800F049020095A90200EB
:10A1C00020A107003037002024370020D19502005D
:10A1D00005F084B930B504468DB0002860D003691D
:10A1E000002B5DD0C369002B5AD08569002D57D054
:10A1F0005A788DF804201A780993838A82F0010234
:10A200000B2B8DF80320027B3AD90121022A8DF80D
:10A21000001001D1234A927D002A3BD1042213442D
:10A220008DF802200B330C2293FBF2F3013B8DF8E7
:10A23000093000238DF8083094E8030000238DF8DE
:10A24000173003AB83E803002389ADF81430A37AF9
:10A250008DF81630236A0A932046DF2308950B9366
:10A2600011F09EF828B12378012B0CBF2023FF2387
:10A270000B93A28A21696846FFF716FF0DB030BD27
:10A28000C17A0029C1D1012A0CBF012200228DF818
:10A29000002001D10822C2E704238DF80230CBE769
:10A2A0000E20EBE73437002070B50E4690B0044620
:10A2B000002862D04368002B5FD08569002D5CD0F8
:10A2C00003788DF8133000230D9383680B2B94BF14
:10A2D000027B012202F001018DF8101000218DF89F
:10A2E000121032B10733DB08013B8DF819308DF8BD
:10A2F000181004F1100292E8030001238DF82730B2
:10A3000007AB83E80300E389ADF82430237F8DF8A1
:10A310002630236A0C95CDE90E63194B1B685B0749
:10A320001BD5184B1B68062B17DD2F21164815F07F
:10A330002DFBC8B12F21144815F028FB411C134BED
:10A34000A269D3F80435029222780192104A009251
:10A35000072040F2F57204F02FF9D4E9011204A8A5
:10A36000FFF7A2FE10B070BD5C21074815F00EFB90
:10A3700008B15C21DFE70449E1E70E20F2E700BF06
:10A38000D82E0020D42E00205101040000100140DE
:10A39000F001040070B5037B012B8EB004460D461E
:10A3A0006DD1384B1B68980518D5374B1B68032BAC
:10A3B00014DD2F21354815F0E9FA002853D02F215C
:10A3C000324815F0E3FA411C314B324AD3F80435D8
:10A3D0000092042040F2622204F0EEF802AE0B225A
:10A3E0000021304615F002FA9DF80920E3888DF827
:10A3F0000D5002F0030242EA83028DF809202A0E72
:10A400008DF80A202A0C8DF80B202A0A8DF80C20D2
:10A4100062780696911E4A424A41C3F3861343EA84
:10A42000C2138DF808300623079301238DF82430DA
:10A43000A38AADF8263000230A938DF814308DF8E6
:10A440002030E389ADF82230E36A0D93A37D226AC0
:10A450000B928BB96FF0010105A88DF83030FFF732
:10A4600023FF0EB070BD5C21084815F08FFA08B1CB
:10A470005C21A5E70549A7E7074B5B7DEAE70020DC
:10A48000EFE700BFD82E0020D42E00205101040099
:10A4900000100140100104003437002010B591F87D
:10A4A0004830022B0C4602D07846FEF7E5FF022327
:10A4B00084F8683094F84830022B06D1E16C2046CD
:10A4C000FFF768FF08B984F8680010BD2DE9F04F68
:10A4D0000D469FB0144698460646002800F04C8270
:10A4E000002A00F0498221B9092738461FB0BDE88B
:10A4F000F08F1822214615A815F06DF93378002049
:10A5000059B2CA0F81428DF84820ACBF0122042203
:10A5100095428DF84900E7D39DF85F70EFB103F0E5
:10A520007F0381428DF84B308DF84A002EDA727825
:10A53000B378920102F4FE5242EA9302ADF84E2043
:10A54000DB00F27803F0180343EA521302F01F0213
:10A550008DF850308DF8512018E0C3F38010002999
:10A5600003F03F038DF84B008DF84C3008DA96F974
:10A570000130002BACBF042308238DF84A30D6E706
:10A5800004231A4495428DF84A30ADD300231B931F
:10A5900098F80030032B02D97846FEF76DFF98F843
:10A5A0000020AB4BBDF85C0053F822301D9301F046
:10A5B000C5FD012840F0E28112A8FFF701F9074626
:10A5C000002892D10146082205A815F00FF905A927
:10A5D000608810F027FE28B19DF8493043F0010350
:10A5E0008DF84930D4E90312208904F0AFFF002828
:10A5F00057D19DF84930002B3FF477AF13F001039A
:10A600001CBF069A16929DF84820002A00F0A281ED
:10A61000BDF84E101898FEF7B1FF199B4FEA036979
:10A620004FEA132A19EB00034AF10004CDE9023482
:10A63000BDF85C00874C00210B5B834209D1631895
:10A64000D3E90223DDE9029A9A4508BF91453FF418
:10A650004CAF10318029EFD17F4A0023702101FBDC
:10A66000032494F848C0BCF1020F23D1B4F814C0FD
:10A6700084451FD1E188A069FEF780FFE1690A06E1
:10A6800012EB00094FEA112343F1000ADDE902232E
:10A690009A4508BF914531D205212046FFF760FA5F
:10A6A0000BE09DF8493003F0FE038DF84930002B94
:10A6B0009FD11AE70133042BD1D1BDF84E30BDF83C
:10A6C0005C00DDE9181204F069FF002800F0D28078
:10A6D000BDF84E30BDF85C00DDE9181204F092FFC1
:10A6E00000283FF402AF12A8FEF788FF014612A827
:10A6F000FFF750FE12A8FFF7CBF8F6E6DDE90223DC
:10A70000534508BF4A45FFF4F0AE544B1B685B0746
:10A710001CD5534B1B68032B18DD2F21514815F016
:10A7200035F9002800F0FC802F214E4815F02EF955
:10A73000411C4D4B9DF85020D3F8043501924B4AF3
:10A74000009204204FF4657203F036FF94F848300D
:10A75000022B02D07846FEF78FFEDFF81491D9F86D
:10A7600000A002F0C5F80AEB000104F1300002F08D
:10A7700096F8237B012B1AD194F86830BBB994F872
:10A780004830022B02D07846FEF776FED9E9013236
:10A7900099F8151002FB013902F0AAF800EB090143
:10A7A00004F1500002F07BF8012384F868309DF832
:10A7B0005010E36C01228A4013427FF496AE13439B
:10A7C000E3649DF85F30627A002B0CBF4FF00C09F8
:10A7D0004FF008098A42A5F1040509FB01F940F090
:10A7E000A88009EB0503A4F84A30A269189B9A4295
:10A7F0000BD20DF1540EBEE80F0004F10C0CACE8C6
:10A800000F009EE803008CE80300E06E2A46311D2D
:10A81000484414F0E0FF2046E56CFEF7EFFE854269
:10A820007FF463AEE16C2046FFF7B4FD6378DA078E
:10A830000AD5E37DE06EB4F84A10002B00F0858065
:10A8400043462246FFF7A2FA2046FEF785FF4CE674
:10A8500000010400A03600204C370020D82E002034
:10A86000D42E002051010400001001402F020400EA
:10A87000343700209DF85F209DF85130002A0CBF2E
:10A880000C24082403FB04440CBF4FF4C0734FF4A2
:10A8900080739C4228D93A4B1B6859077FF525AE37
:10A8A000384B1B68002B7FF720AE2F21364815F060
:10A8B0006DF880B12F21344815F068F8411C334BF6
:10A8C000334AD3F80435009201944FF45C720120AE
:10A8D00003F072FE09E65C212B4815F057F808B129
:10A8E0005C21E8E72849EAE72246022112A8FEF7A0
:10A8F000D5FE044600287FF408AF014612A8FFF7F2
:10A9000049FD2C22214607A814F070FF10238DF872
:10A910001C3007A802238DF8243000F0A1F8E4E5EC
:10A920005C21194815F032F808B15C21FDE61649A2
:10A93000FFE6002B0CBF0C2308239D423FF455AFCC
:10A9400004212046FFF70CF9CFE543462246FEF7E7
:10A95000C7FF79E7002B3FF4C8AD9DF85F30701C4E
:10A96000691E23B1434612AAFFF710FABDE543461C
:10A9700012AAFEF7B5FFB8E50E27B6E51027B4E535
:10A98000D82E0020D42E00205101040000100140D8
:10A990001B0204002DE9F341194E00243746A0465E
:10A9A000351995F84830012B0CD102A9284641F8F9
:10A9B000048DFFF771F9042801D0019B13B12846DB
:10A9C000FFF7B0F87034B4F5E07FE9D100257C19C9
:10A9D00094F84830022B0AD194F86830022B06D143
:10A9E000E16C2046FFF7D6FC08B984F868007035A2
:10A9F000B5F5E07FEBD1012002B0BDE8F08100BFEA
:10AA00004C3700202DE9F04188460746E8B1124E48
:10AA10003468C4B92546454507D1104BC3E90075D4
:10AA2000012333602046BDE8F08107EBC5035B6876
:10AA30005BB117F83500030609D450B1FEF7A8FD45
:10AA400038B90135E7E70424ECE70E24EAE70B24E4
:10AA5000E8E70F24E6E700BF24370020283700206E
:10AA6000F8B5074610B97846FEF706FD0F4E346874
:10AA700094B10F4D01232B7023791BB954F8043C7A
:10AA8000384698472468002CF6D12B78022B03D146
:10AA90003168064C09B92970F8BD0B790E6813B1FD
:10AAA000204603F00FFD3146F4E700BF10390020C7
:10AAB0000C39002010B5044610B97846FEF7DCFCCE
:10AAC00000232372211D0248BDE8104003F0D9BCC9
:10AAD0001039002010B5044610B97846FEF7CCFCBA
:10AAE000074A1378013B012B04D80223137001237A
:10AAF000237210BD211D0348BDE8104003F0E2BCE5
:10AB00000C390020103900200B888268D25A073295
:10AB100022F00302134402889BB2043A934288BF96
:10AB200000230B80704713B58368CB1A02A921F864
:10AB3000023DFFF7E9FFBDF806308068184402B017
:10AB400010BD70B5064615460C4611BB7846FEF79B
:10AB500093FCFEB17846FEF78FFC6B1E2344B3F1E5
:10AB6000005F34D94FF08052D2F80C2102F5002258
:10AB7000B3EB822F2ED2042D02D87846FEF77CFC50
:10AB800035800023043D7380B380B4602580A370BA
:10AB900070BD10B97846FEF76FFCB4F1005F12D9B2
:10ABA0004FF08053D3F80C3103F50023B4EB832F1F
:10ABB000D3D34FF08053D3F80C3103F50053B4EBEB
:10ABC000832FC7D2C9E7B4F5000FF2D8C2E7B3F5B7
:10ABD000000F08D94FF08052D2F80C2102F5005234
:10ABE000B3EB822FC7D37846FEF746FCC3E738B5F0
:10ABF000044610B97846FEF73FFC6288A368134408
:10AC00009B78012B02D17846FEF736FCEFF31085D6
:10AC100072B6A268A18811448B78032B0AD1204612
:10AC2000FFF781FFA368C31A63800023837005B90F
:10AC300062B638BD002393706380A380F7E7F8B550
:10AC40000E461546044610B97846FEF715FC16B9AF
:10AC50007846FEF711FC6288A36813449B78012BA9
:10AC600002D17846FEF708FC002D37D02388043B3C
:10AC70009BB29D4232D8EFF3108772B66188A388E9
:10AC8000EA1D22F00302994292B204D25B1A9A4260
:10AC900010DD042016E018D92088401A904209D20D
:10ACA0009A42F6D8032881BFA3685B1804229A70E1
:10ACB000002363806288A1688B188D5201229A70EC
:10ACC0000020336007B962B6F8BDA26813449B78D0
:10ACD000002BDED193706380A380EBE70920F3E7BC
:10ACE000F8B50D461646044610B97846FEF7C4FB83
:10ACF00015B97846FEF7C0FBAB78012B02D0784639
:10AD0000FEF7BAFB2B88B34202D27846FEF7B4FBBB
:10AD100016B97846FEF7B0FBEFF3108772B6022340
:10AD2000AB70E1182E802046FFF7EEFE6288A38804
:10AD300093421FBFA3689B1800229A7007B962B69E
:10AD4000F8BD70B50D46044610B97846FEF794FB81
:10AD500015B97846FEF790FBEFF3108672B6A2881D
:10AD6000A36813449A78042A06D1211D2046FFF7D0
:10AD7000CBFEA288A36813449A78022A03D0032A40
:10AD800008D0052003E003229A702B60002006B94A
:10AD900062B670BD7846FEF76FFBF7E738B504463C
:10ADA00010B97846FEF768FBEFF3108572B6A088FD
:10ADB000A16801448B78042B03D12046FFF7B3FE32
:10ADC00001468878831E5842584105B962B638BD9D
:10ADD00038B5044610B97846FEF74EFBEFF3108500
:10ADE00072B6A088A16801448878C31E012B05D9DA
:10ADF000831E5842584105B962B638BD2046FFF758
:10AE000092FE0146F0E7F8B50D46044610B97846C3
:10AE1000FEF732FB15B97846FEF72EFBEFF31086EE
:10AE200072B6AB78012B19D0032B22D1A288A3686C
:10AE300013449D4202D07846FEF71EFB0027AF70F8
:10AE4000211D2046FFF760FEA288A36813449B786B
:10AE5000042B00D1A78006B962B6F8BD6288A3684A
:10AE600013449D4202D07846FEF706FB0023AB70E8
:10AE7000F1E77846FEF700FBEDE710B5EFF310843D
:10AE800072B68288816811448B78042B02D1FFF757
:10AE90004AFE01468878B0FA80F0400904B962B6EB
:10AEA00010BD037942799B1A03F57F2303F6FF73E4
:10AEB00000EB03307047000010B5054884681C2281
:10AEC000002114F093FC2046BDE8104004F0CCB8FB
:10AED0001439002070B5194CE36813B97846FEF7B1
:10AEE000CBFA237E13B17846FEF7C6FA6368092BC6
:10AEF00002D97846FEF7C0FA114D0026636855F86E
:10AF000023309847022811D003280DD0012810D1F2
:10AF100063680133092B636002D97846FEF7ACFA07
:10AF2000237E002BEAD004E06660F9E7237E0BB1B4
:10AF3000207070BDBDE87040FFF7BEBF143900201F
:10AF4000C402040010B50388044613B97846FEF71E
:10AF500093FA2088074B04EB800030EA030203D009
:10AF60006288B2F5FE4F04D11C4004F5805420786D
:10AF7000204410BD00F0FFFF70B504460E4647F6B2
:10AF8000FE65FFF7DFFFB04207D2844205D2438857
:10AF9000013B9BB2AB42F4D870BD0020FCE700003F
:10AFA0000B78032B094B04BF00221A761A78012A6A
:10AFB00003D11B7E43B9FFF78DBF022A04D10B7862
:10AFC000032B01D1FFF778BF704700BF1439002071
:10AFD00010B50C4CE3681878002203F58051184432
:10AFE00004F038FC50B9E1680846FFF75AFF814287
:10AFF00006D001F58051E160032010BD0120FCE77F
:10B000000220FAE7143900201FB50A4B02221B6800
:10B010008DF800200193084A4FF4805369460120BF
:10B02000029300F0CDFFB0FA80F0400905B05DF862
:10B0300004FB00BF34390020303900201FB5012344
:10B04000CDE902210190054A8DF800306946184685
:10B0500000F0B6FF05B05DF804FB00BF30390020FA
:10B060002DE9F047254BD86802794179013A9142A0
:10B070001E4603D101205876BDE8F08700F58053C5
:10B080001F491C781C440B6813F8045F1D44FFF72C
:10B0900008FF6388013B9BB247F6FE62934200F5CE
:10B0A0008057884604D920463946FFF765FF044695
:10B0B000DFF850A04FF001092CB9B4FA84F4640908
:10B0C00074760120D8E7D8F800106288284601F588
:10B0D000805104F0BFFB05460028EED00422514603
:10B0E000204686F81890FFF7A9FF28B92046394670
:10B0F000FFF742FF0446DFE70020BDE714390020D8
:10B10000343900206C04040038B5104CE36818781A
:10B110004FF6FF7203F58051184404F09BFB88B191
:10B12000E36819780B4498420CD0657E0849094BB6
:10B130000422002D08BF1946FFF780FF20B9012027
:10B14000207638BD0120FCE70020FAE71439002002
:10B15000740404007004040070B50C4D0C4EE968D2
:10B1600030680C7804302246FFF768FF58B933681E
:10B1700004F0FC0404341C44EB686C611A7813443A
:10B180002B61012070BD0020FCE700BF14390020B6
:10B190003439002008B5054B054918680422FFF72B
:10B1A0004DFFB0FA80F0400908BD00BF34390020DF
:10B1B0002039002010B5074B074C1968E06840F6AD
:10B1C000FC720431FFF73AFF10B90120207610BD60
:10B1D0000020FCE7343900201439002010B50C4C55
:10B1E000E1680846FFF75DFE81420AD1094B0A4932
:10B1F00018680422FFF722FF40B9012323760220BA
:10B2000010BD01F58051E1600320F9E70020F7E768
:10B210001439002034390020383900202DE9F74F47
:10B22000324C236913B97846FEF726F9636913B9DE
:10B230007846FEF721F9DFF8B89047F6FE6A6369B1
:10B24000D4E9030603EA0908A8EB0308FFF729FE7F
:10B250007388013B9BB2534508F5805800F5805B2D
:10B2600006D930465946FFF787FE0646002835D0F6
:10B27000354600275D4519D22A8807EB82029045A2
:10B2800009D986EA050313EA090F04D16B88013B4B
:10B290009BB2534502D957B9012318E028460192C1
:10B2A000FFF750FE019A05461746E3E7E7B13A4635
:10B2B00031466069FFF7C2FE90B963691F44676158
:10B2C00015B97846FEF7D8F82561002335B16988AD
:10B2D00047F6FF72914201D0002BB0D0012000E070
:10B2E000002003B0BDE8F08F0123EFE71439002000
:10B2F00000F0FFFF1FB50A4B0222DB688DF800202B
:10B300000193084A4FF4805369460120029300F0EC
:10B3100057FEB0FA80F0400905B05DF804FB00BFAD
:10B3200014390020303900201FB540F6F8731B682F
:10B330005A1C0CD1374B1A68013202D01A68002A05
:10B3400054D14FF08052516913694B4303E0002BF5
:10B35000F7D0A3F58053304CA3F5805323602F4BD7
:10B360001B68DB0223D52E4B1B68062B1FDD2F210C
:10B370002C4814F00BFB00283AD02F21294814F058
:10B3800005FB411C40F6F872274B1268D3F80435D0
:10B39000501C08BF1F4A206808BF1268CDE9012071
:10B3A000224A009207204FF41A7203F005F923682D
:10B3B00019684B1E03332BD8C1F30B0343BB1C4A44
:10B3C0001C48D160012111701B491376537693609C
:10B3D00051F82340844214D153600120174900F0F2
:10B3E000DFFDFFF777FD012004B010BD1B68B0E75B
:10B3F0005C210C4814F0CAFA08B15C21BEE7094987
:10B40000C0E701330A2BE3D17846FEF735F8E4E7CD
:10B410000020E9E71410001034390020D82E002055
:10B42000D42E0020680204000010014090020400A5
:10B4300014390020F5B20200C4020400A1AF0200DA
:10B4400010B5044610B97846FEF716F8094B18787F
:10B4500060B1E068D9684379A0EB0333994206D321
:10B46000FFF71FFD81428CBF0020012010BD00208E
:10B47000FCE700BF14390020024B1878003018BFD9
:10B48000012070471439002038B50E4C237805464A
:10B4900013B17846FDF7F0FF2B78032B02D07846E6
:10B4A000FDF7EAFFEB68E360012000230649A56091
:10B4B000636023762070637600F072FDBDE838404B
:10B4C000FFF708BD14390020A1AF0200014B186836
:10B4D000704700BF3439002010B5044610B97846D3
:10B4E000FDF7CAFF63681BB123680BB1A36813B9EA
:10B4F0007846FDF7C1FFA3685A1E1A4202D078466B
:10B50000FDF7BAFF0023C4E9033310BD70B50E4642
:10B510000446F0B18368F3B1EFF3108572B6D0E959
:10B520000331994203D105B962B605250FE04EB14A
:10B530008368013B0B40D0E90012304602FB031147
:10B5400014F049F923690133236135B962B62846FD
:10B5500070BD0E25FBE70925F9E70025F7E7000098
:10B56000024AD2F80034002BFBD0704700E00140C3
:10B57000C0F30B0310B5E3B9E9B1104C0223C4F8D2
:10B580000435FFF7EDFF01F6FF7121F47F6121F033
:10B590000F010144884205D10020C4F80405FFF7DB
:10B5A000DFFF10BDC4F80805FFF7DAFF00F5805093
:10B5B000F0E71020F5E70920F3E700BF00E00140C5
:10B5C00070B540EA010414F003041BD1E2B1950701
:10B5D0001AD10E4E0123C6F804359508FFF7C0FFB7
:10B5E000AC4205D10020C6F80405FFF7B9FF70BDD5
:10B5F00051F824305A1C03D040F82430FFF7B0FF34
:10B600000134EDE71020F2E70920F0E700E0014007
:10B6100041F2826398429DBF024B1878C0F3C0008C
:10B6200001207047C339002013B50190000C012898
:10B630000C4602D07846FDF71FFF084A08492368E8
:10B6400013600B7843F001030B7083F00203C3F324
:10B6500040030020137102B010BD00BFBC390020B0
:10B66000C339002013B50190000C02280C4602D00B
:10B670007846FDF701FF084B22681A6022791A719B
:10B68000064A002058719871D871137843F002036C
:10B69000137002B010BD00BFB4390020C3390020C0
:10B6A00007B50190000C032802D07846FDF7E4FEB0
:10B6B00003480522002103B05DF804EB14F096B8AE
:10B6C000BC39002007B50190000C042802D0784650
:10B6D000FDF7D2FE03480822002103B05DF804EB19
:10B6E00014F084B8B439002013B50190000C03287D
:10B6F0000C4602D07846FDF7BFFE044905222046DD
:10B7000002B0BDE8104014F066B800BFBC3900209C
:10B7100013B50190000C03280C4602D07846FDF7C3
:10B72000ABFE05222146054814F055F8044A13786B
:10B73000002043F00103137002B010BDBC3900209B
:10B74000C339002013B50190000C04280C4602D028
:10B750007846FDF791FE04490822204602B0BDE874
:10B76000104014F038B800BFB439002013B5019070
:10B77000000C04280C4602D07846FDF77DFE082216
:10B780002146054814F027F8044A1378002043F0B6
:10B790000203137002B010BDB4390020C339002079
:10B7A00000B50A4B1A7B9B688DB0012A08BF03F1D4
:10B7B000FF3303900CA80493022300F82C3D8DF86E
:10B7C0000820FFF74DF90DB05DF804FB6839002043
:10B7D000074A1378590709D50178122906D1054976
:10B7E000086805496FF3820348601370704700BF13
:10B7F000C3390020BC390020683900201FB50F492B
:10B800000B785A0717D40E4A526802F50052B2F16B
:10B81000807F02920FD80B4A43F0040312780B701A
:10B820004FF4403002A98DF80C2005F007F810B154
:10B830007846FDF721FE05B05DF804FBC339002012
:10B8400068390020C43900201FB5002303930C4B36
:10B850009A6802920B4A1B7B8DF80C3013780133E7
:10B86000DBB202A94FF4802013708DF80F3004F082
:10B87000E5FF10B17846FDF7FFFD05B05DF804FB6C
:10B8800068390020C439002007B54FF4403005F076
:10B8900033F84FF4802005F02FF8142200210648D9
:10B8A00013F0A4FF054B1A786FF345121A7003B01A
:10B8B0005DF804EBFFF7A2BF68390020C339002010
:10B8C00010B50C4C14220021204613F08FFF01F01C
:10B8D0000FF8094B094A0A499A600022C3E903128A
:10B8E00058605A61074B6260197862F3C30119709E
:10B8F00010BD00BF683900204439002061BA020041
:10B9000000879303C339002037B5244D2B78DB061D
:10B910002BD42348234B036000F080FD2248234BA7
:10B92000036000F07BFD2B7813F020020ED103F0B2
:10B930000303032B1E4C1AD02260A26022732282C2
:10B94000FFF782FF23686360FFF758FF4FF48030F2
:10B9500004F0D2FF4FF4003004F0CEFF154800F0A1
:10B9600065FF2B7843F010032B7003B030BD124BF2
:10B970001A68A2601A7922739879597941EA0021EC
:10B980002182D9790D4B19700D4B1879884202D05C
:10B990000AB92260D6E71B682360D3E7C3390020C9
:10B9A0005C390020FDBA0200A8390020D1B702009E
:10B9B0006839002044390020B4390020C4390020FF
:10B9C000BC39002010B501F09BFC0D4A137BA3B9D4
:10B9D000947B94B9108AFFF71BFE70B10123137397
:10B9E0009368148201339360FFF72EFF2046FFF720
:10B9F000D7FE01F0C5FC204610BD0824F9E700BFC2
:10BA00006839002010B501F07BFC144A547B9CB1CE
:10BA1000917B09BB108AFFF7FBFD044660B1137BE5
:10BA200051732BB1012B0BD07846FDF725FD03E0B8
:10BA3000FFF7C8FF0028F7D101F0A2FC204610BD97
:10BA40000846C2E9001111731182FFF7A9FEFFF742
:10BA5000FBFEFFF7D3FEEFE70024EDE76839002097
:10BA60001FB5244C227B2AB1012A0FD07846FDF75E
:10BA700003FD1CE0208AFFF7CBFDC0B1FFF7C2FF3A
:10BA8000638A0BB1013B638204B010BD218A084672
:10BA9000FFF7BEFD58B142F2B013994288BF6273FE
:10BAA000FFF7B0FF0028EBD1637B002BE8D1238A9E
:10BAB00001339BB21E2118462382B3FBF1F201FB36
:10BAC00012339BB2002BDBD1A3680293237B8DF84A
:10BAD0000C30094BADF80D001B788DF80F3002A922
