:020000022000DC
:1070000000FD032005B603002DB603002FB60300D4
:1070100031B6030033B6030035B6030000000000AC
:1070200000000000000000000000000037B6030070
:1070300039B60300000000003BB603003DB6030074
:107040003FB603003FB603003FB603003FB6030060
:107050003FB603003FB60300197902003FB60300B4
:107060003FB603003FB6030065A003003FB6030030
:107070003FB603003FB603003FB603003FB6030030
:107080003FB6030035AF03001D5C03003FB60300AD
:1070900005B003003FB60300DD7D02003FB60300EC
:1070A0003FB603003FB603003FB603003FB6030000
:1070B0003FB603003FB603000000000000000000E0
:1070C0003FB603003FB603003FB603003FB60300E0
:1070D0003FB603003FB603003FB603003FB60300D0
:1070E0003FB603003FB603003FB6030000000000B8
:1070F000000000003FB60300000000003FB60300A0
:10710000000000000000000000000000000000007F
:10711000000000000000000000000000000000006F
:10712000000000000000000000000000000000005F
:10713000000000000000000000000000000000004F
:10714000000000000000000000000000000000003F
:10715000000000000000000000000000000000002F
:10716000000000000000000000000000000000001F
:10717000000000000000000000000000000000000F
:1071800000000000000000000000000000000000FF
:1071900000000000000000000000000000000000EF
:1071A00000000000000000000000000000000000DF
:1071B00000000000000000000000000000000000CF
:1071C00000000000000000000000000000000000BF
:1071D00000000000000000000000000000000000AF
:1071E000000000000000000000000000000000009F
:1071F000000000000000000000000000000000008F
:1072000010B5054C237833B9044B13B10448AFF3E0
:1072100000800123237010BDB82E00200000000064
:10722000D0E4030008B5034B1BB103490348AFF397
:10723000008008BD00000000BC2E0020D0E4030048
:10724000154B002B08BF134B9D46A3F5803A002138
:107250008B460F461348144A121A15F073FD0F4B54
:10726000002B00D098470E4B002B00D098470020F1
:10727000002104000D000D48002802D00C48AFF397
:10728000008015F011FD2000290000F009F915F02B
:10729000F7FC00BF0000080000FD03200000000014
:1072A00000000000B82E0020C055002000000000A3
:1072B0000000000041DF704707B503781C2B2ED17A
:1072C000184B1B685B0416D5174B1B68032B12DD8C
:1072D0002F21164815F006FEC0B12F21134815F0D6
:1072E00001FE411C124B134AD3F8043500920420CE
:1072F00091220FF0FDFB0322C8214FF4F03000F083
:10730000ADFA03B05DF804EB0AF01EBC5C2107483F
:1073100015F0E8FD08B15C21E0E70449E2E703B0BD
:107320005DF804FB282E0020242E00207CCF0300D3
:107330000010014097CF03007FB50378093B044656
:10734000042B64D8DFE803F081858E030300007905
:10735000022804F105055CD004286CD1B4F8132090
:10736000B4F809309A425BD1D4F80F20D4F8053034
:107370009A4255D1D4F81530D4F80B2093422CBF43
:1073800000230123002B56D003A902A80AF0ECFB2E
:1073900018B13B4A5C2114F060F93A4A029B3A4E1C
:1073A00013443A4A5B08934224BF03F6FF731E401E
:1073B000374B1B683CBF02F6FF7216405B0417D5C3
:1073C000344B1B68032B13DD2F212D4815F08AFD4C
:1073D00040B32F212A4815F085FD411C2E4B2F4A22
:1073E000D3F80435009201966D2204200FF080FB43
:1073F0003246294620790AF039F918B1204A71211C
:1074000014F02BF900214FF4F03000F01DFA04B015
:1074100070BDE27B63799A4202D1237CA279ADE709
:107420000023AFE75C21164815F05CFD08B15C2134
:10743000D0E71349D2E729460AF064F90028E6D0DC
:107440000F4A772114F009F9E1E701214FF42040B8
:10745000DBE700214FF4F03000F0F6F901214FF4A2
:10746000C040D2E74FF4F030002100F0EDF9207970
:107470000AF07CF90028CAD0014A8621E2E700BF61
:107480007CCF03000070020000F0FFFFF8E703006C
:10749000282E0020242E00200010014056D003008A
:1074A00000B58DB013F0F8FE18B1714ABE2114F08A
:1074B000D4F8704E00F004FA4CF287006E4A0421B2
:1074C0000FF0FAFA3368580418D56C4B1B68032B7D
:1074D00014DD2F21664815F005FD002800F09E8080
:1074E0002F21634815F0FEFC411C654B654AD3F81B
:1074F000043500920420C2220FF0FAFA00F0D0FA0C
:107500000021242203A815F01DFC01238DF80C3066
:1075100007238DF80F3006238DF814305A495B4B42
:10752000079303A80AF0D6FAE8B10B2840F0888048
:107530003368590417D5514B1B68032B13DD2F21DA
:107540004B4815F0CFFC002871D02F21484815F08A
:10755000C9FC411C4A4B4E4AD3F804350092042022
:10756000AC220FF0C5FA4B484B4B03600DF0A6FA66
:1075700033685A0417D5414B1B68032B13DD2F21A9
:107580003B4815F0AFFC00285FD02F21384815F09C
:10759000A9FC411C3A4B414AD3F80435009204201F
:1075A000C8220FF0A5FA384B1B787BB93C4D0FCDA4
:1075B00003AC0FC495E8030084E8030003A800F0BF
:1075C000DDF818B12A4AD92114F047F80AF00CFB6B
:1075D00000F0D2F90AF000FA18B1254AE32114F0BC
:1075E0003CF833685B0416D5244B1B68032B12DD73
:1075F0002F211F4815F076FC80B32F211C4815F071
:1076000071FC411C1E4B274AD3F80435009204201C
:10761000E5220FF06DFAFFF74DFEFCE75C21144800
:1076200015F060FC08B15C215BE711495DE75C2166
:107630000F4815F057FC08B15C2187E70C4989E732
:107640000B4AB12114F009F88DE75C21084815F0C8
:1076500049FC08B15C2199E705499BE75C21044896
:1076600015F040FC08B15C21C8E70149CAE700BF3A
:107670007CCF0300282E00208D6A0300242E0020DA
:1076800000100140B0CF0300D42E0020B9720200D8
:10769000D8CF0300D82E00203973020026D0030073
:1076A00064CF030040D0030010B50749074807F036
:1076B00033FC024638B90649064809690123BDE88A
:1076C000104007F042BC10BD002F00201C320020EB
:1076D000E82E0020E830002010B50378023B082B8C
:1076E0002CD8DFE803F01B05102B2B2C2B2B38009C
:1076F0001E4B5B6813B3007A00B31D4A0121117061
:10770000BDE810401847194B9B68BBB1184A117867
:10771000A1B100211170BDE810401847154B1A782F
:10772000124B42B9DB6813B111490A709847BDE8A2
:107730001040FFF7B9BF1B68002BECD110BD0B4BFD
:107740000D485969102207F045FC0028F6D0BDE825
:10775000104013F075BFD0E902100AF03FF908B1EC
:1077600013F06EFF034B01221A70E7E7E82E0020AA
:10777000E42E0020E52E0020E830002070B5164AE7
:10778000164E5168044686B0106803AB03C31189D6
:10779000927A19809A700FCC35460FC594E8030091
:1077A00085E803007369A3B10D4B00930D4A0E49A0
:1077B0000E4803AB07F082FB48B90D4808F0B0FF54
:1077C00001460A4807F094FB08B9FFF76DFF06B0C1
:1077D00070BD0720FBE700BFA6D00300E82E002005
:1077E000D9760200002F00201C320020E830002053
:1077F000202F002070B5104C206808B913F020FF2E
:107800004FF0A0450D4ED5F8043532685340C5F809
:1078100004352368013B236063B9094813F0F0FD88
:107820003268D5F8043523EA0203064A1268134386
:10783000C5F8043570BD00BF5C3200206032002006
:10784000643200208C3200204FF0A04311B1C3F805
:107850000C057047C3F8080570470000F8B52AB357
:10786000132923D9124B134D5200013A4FF0A04473
:107870001A602860D4F8043518400F4B4FF4FA769C
:10788000186000274FF40040E0FB01674FF47A7264
:1078900000233046394615F073F8002201460748A8
:1078A00013F066FD10B92B68C4F80C35F8BD00BFA5
:1078B0005C320020603200208C32002064320020D4
:1078C00008B54FF0A04303224FF40051C3F834270A
:1078D000C3F808154FF48041C3F83827C3F80815DA
:1078E0004FF40041C3F83C27C3F80815C3F84027FC
:1078F0004FF48032C3F808250121054A054813F0EA
:1079000025FD18B1BDE8084013F09ABE08BD00BFC0
:10791000F5770200B4D00300124B70B50024124E6C
:10792000124DC3F87C414FF0A043A15DD3F8102560
:1079300001238B40934311D00D49D5F804250B68E2
:10794000981A48BFD01A43F23333984206D9D5F873
:1079500004350B60074B20461B6898470134042C04
:10796000E1D170BD00600040B8D0030000100140BC
:10797000883200208432002070B50446CEB0002842
:1079800064D03C4D2A6852042FD53B4B1B68032B17
:107990002BDD3A4B0DAE19680023E25C100902F0B2
:1079A0000F02085C06F81300885C06EB4302013303
:1079B000102B5070F1D100232F21314886F8203050
:1079C00015F090FA002843D02F212D4815F08AFA9F
:1079D000411C2C4B2C4AD3F8043501922B4A0092BF
:1079E0000296412204200FF083F82B685B042DD50A
:1079F000214B1B68032B29DD2F21214815F072FA3A
:107A000000282ED02F211E4815F06CFA411C1D4B6A
:107A1000E27BD3F804350B92A27B0A92627B099237
:107A2000227B0892E27A0792A27A0692627A059203
:107A3000227A0492E2880392A2880292226801923A
:107A4000134A0092042046220FF052F84EB070BD47
:107A50005C210B4815F046FA08B15C21B5E70849EE
:107A6000B7E75C21064815F03DFA08B15C21CAE78A
:107A70000349CCE7282E0020242E00202C2E0020A5
:107A8000BCD0030000100140E4D00300F6D0030096
:107A9000FED0030060DF704769DF70470DF010B85B
:107AA00010B588B000F04AF908B113F0C9FD2B4BAE
:107AB0000393039B04930C22002105A815F042F9BF
:107AC0000023049A8DF8143005A90120FFF7E4FF84
:107AD00008B113F0B5FD0C22002105A815F032F90C
:107AE000F823049A059305A9A120FFF7D5FF08B153
:107AF00013F0A6FD04A8FFF7CDFF039B049A9A425A
:107B000004461CD0164B1B685B0418D5154B1B682C
:107B1000012B14DD2F21144815F0E4F9A8B12F2111
:107B2000114815F0DFF9411C104B049AD3F80435C5
:107B300001920F4A00920220A2220EF0D9FF14B146
:107B4000204613F07DFD08B010BD5C21064815F0FD
:107B5000C9F908B15C21E3E70349E5E7002E0020FD
:107B6000282E0020242E00203ED1030000100140CA
:107B70006ED1030070B5EFF3108672B60C4A9468AC
:107B800001239CB993600B4B0B4DD3F88010294017
:107B90001160C3F88050D3F8841051604FF0FF3269
:107BA000C3F88420047006B962B670BD0370FAE7AA
:107BB0001055002000E100E0FC06FFBD10B5084BA9
:107BC0009A685AB150B9EFF3108172B6054A1C6831
:107BD00014605C685460986001B962B610BD00BF63
:107BE0001055002000E100E001600B6843604A6826
:107BF000934204BF002343607047436843B1026867
:107C000091680B4443605268934204BF0023436071
:107C100070474BDF704700001FB50D4C01A8FFF700
:107C2000F8FF70B9214602A8FFF7DEFF039B002B87
:107C3000F4D00198D3E90021904702A8FFF7DDFFB7
:107C4000F4E7052801D013F0FBFC04B010BD00BF21
:107C5000A8D1030061DF704730B5114B1B7891B09C
:107C6000E3B1104D34240DF1020103A8ADF8024038
:107C7000FFF7F0FF70B9294601A8FFF7B5FF029B97
:107C8000002BF0D003A8D3E90021904701A8FFF70B
:107C9000B4FFF4E7052801D013F0D2FC11B030BDD9
:107CA00090320020B4D1030010DF704713B50446B2
:107CB00009496846FFF798FF019808B902B010BD5E
:107CC000D0E900312046984718B16846FFF795FF84
:107CD000F2E71120F2E700BFC4D1030013B5044658
:107CE00007496846FFF780FF019B0BB902B010BD42
:107CF0002046D3E9002190476846FFF77EFFF3E76F
:107D0000DCD103000B4991F816335A09EC231341D7
:107D1000DB0706D5084B9A683AB94FF480030B602D
:107D2000704742F2020013F08BBC1A6842F48002E2
:107D30001A60704700E100E010550020F7B5184FB9
:107D40003C785CBB174E012520463570FFF7AEFF2F
:107D5000112820D02046FFF7C1FF134B186801906F
:107D600002A800F8054DFFF705FF104901A8FFF72D
:107D70009BFF0446B0FA80F0400938709DF803007C
:107D8000FFF71CFF3CB90A4B34701C70FFF7BAFFB9
:107D90002846FFF7A3FF204603B0F0BD0824FAE70A
:107DA0009232002091320020C0D1030099170300C5
:107DB0009332002007B508496846FFF715FF019B7D
:107DC00013B903B05DF804FBD3E90020904768467F
:107DD000FFF713FFF3E700BFD0D10300FFF7EABFBF
:107DE00038B5837803F003020446032A22D8DFE87B
:107DF00002F00214191D9B08154A16481268134414
:107E00000268A3600021EAB195685D1B002D16DAB7
:107E1000D1B91146E160046038BD9B0803EB8303D0
:107E20005B00E9E79B0864225343E5E79B0841F2C6
:107E30007072F9E7784609F0AFFD0023DCE71146E0
:107E4000D268E0E70029E5D0CC60E260E4E700BF5B
:107E5000AC320020B432002008B5032809D8DFE88E
:107E600000F00D020406064808BD0648FCE7064877
:107E7000FAE7784609F090FD0020F5E70348F3E7BC
:107E800040420F00809698000046C323A086010060
:107E90002DE9F041574D2B78A3B1574B574E5C68F5
:107EA0000DF064F8241A3078FFF7D6FF3278544B7F
:107EB000001B002A40D14CF2503290423CD91A6843
:107EC00001321A60DFF84881D8F80020002A00F05B
:107ED00087804A4E9378307803F003038342344618
:107EE00064DD474B97681B68FB1A464F5F43FFF7FB
:107EF000B3FFD8F80030B7FBF0F09F78C7F3010765
:107F0000FBB2022B1FD031D8012B47D10A22B0FB84
:107F1000F2F302FB1300002840D10DF027F800F522
:107F2000742101F5107137702B78002B50D0324836
:107F3000BDE8F0410CF0F1BF1A683249B0FBF1F036
:107F400010441860BEE7337863B96422B0FBF2F3E3
:107F500002FB130010BB0DF009F82B49022301446A
:107F60002370E1E7012B19D10A22EFE7337863B9D7
:107F700041F27072B0FBF2F302FB130070B90CF027
:107F8000F5FF224903230144EAE7012B02D14FF414
:107F90001672EFE7022B01D13C22EBE70CF0E6FF73
:107FA00006462078FFF758FF3118BDE70CF0DEFFDA
:107FB000D8F800300446987800F00300FFF74CFF33
:107FC000D8F800309B78C3F3010321183370ABE776
:107FD0000948012341602B70BDE8F0410CF064BFFB
:107FE0002B7823B10448BDE8F0410CF07FBFBDE819
:107FF000F08100BFB032002094320020B132002066
:10800000AC320020A0860100809698000046C32371
:10801000B43200202DE9F341244B1B78032B2AD8DE
:10802000DFE803F0021B1F23214A136801331360AA
:10803000204B214E1E4D00221A70B04634683CB1D0
:10804000A3682A6893421AD02A689B1A002B16DB71
:10805000FFF71EFF02B0BDE8F081154A13680A332E
:10806000E5E7134A13686433E1E7114A136803F53F
:10807000BB531033DBE7784609F08EFCD8E727883E
:10808000E368C8F8003002A9002341F8043D3846EF
:1080900001F0BEFC10B1784609F07EFC38466368FA
:1080A000019998472046FFF79BFEC7E7B1320020B1
:1080B000AC320020B0320020B432002010B5084CA1
:1080C00018220021204614F03DFE064B064AA3600C
:1080D00000231360054A1360054A137010BD00BFEA
:1080E0009432002015800200AC320020B43200200F
:1080F000B0320020F8B50F461646044610B978464F
:1081000009F04AFC124D0DF025FC2B6800220BB142
:10811000A34216D1A17867F3010166F38701A1702C
:108120009BB1DB6882B92B602EB12046FFF758FE69
:108130002B689C4201D1FFF7ABFEBDE8F8400DF083
:1081400049BC1A46DB68E2E7D360002EF5D0ECE7C5
:10815000B43200200A4B93F8390093F85D2080F088
:108160000100404280B24AB14FF6FF72904204D003
:10817000586D1B6BC01AC00F70470120704700BFBD
:10818000B832002038B5154C242303FB00430546C4
:1081900093F8393013B9784609F0FEFBB4F8603033
:1081A00013B9784609F0F8FB242202FB05430021AD
:1081B00083F83910B4F86030013B9BB2A4F860300A
:1081C0001BB94FF6FF73A4F8623002FB0544A06AA6
:1081D00011F035FB0023A36238BD00BFB832002088
:1081E0002DE9F84F2C4DB5F86030064613B97846A6
:1081F00009F0D2FB294C06F57A7B00274FF00109E4
:1082000048F2111A637C1FFA87F8C3B1A368A3EB85
:108210000B03002B13DAA3882268A4F11001404657
:1082200000F0D6FE102827D809FA00F313EA0A0F47
:1082300025D11B4A13421ED04046FFF7A3FF24342A
:10824000BFB1FFF787FFB5F86030A5F862000BB348
:10825000012802D9784609F09FFBB5F86230242244
:1082600002FB03531B6B9A1B48BFF21AEA60BDE87E
:10827000F88F0127C6E710B1784609F08DFB237C03
:10828000013BDBB22374002BD6D0D4E90232134475
:10829000A360D4E7EB60EAE7B8320020E0320020C8
:1082A000A002010010B5064C64220021204614F003
:1082B00049FD044BA3604FF6FF73A4F8623010BD74
:1082C000B8320020E18102002DE9F047012806467E
:1082D000884617469A46BDF8209002D9784609F09C
:1082E0005BFBB8F1000F02D1784609F055FB17B9D6
:1082F000784609F051FB98F800305B0702D17846C8
:1083000009F04AFBBAF1000F02D1784609F044FBAC
:10831000B9F1000F02D1784609F03EFB274C242327
:1083200003FB064393F8393013B13046FFF72AFFB9
:108330000CF01CFE844697E80F00242505FB06453B
:1083400005F1180E8EE80F00C5F828A0A5F82C90AE
:1083500098F80030C3F3020385F8383098F800002D
:10836000C3084CF2503003FB0000012385F839307C
:10837000B4F860306863604401332863A4F8603067
:10838000FFF7E8FEB4F86230834201D19E4213D178
:108390004FF6FF739842A4F8620002D1784609F0C4
:1083A000FBFAB4F862300548242202FB0344216B37
:1083B000BDE8F0470CF0B1BDBDE8F087B832002051
:1083C0004A09012301F01F0103FA01F150F822309C
:1083D000194214BF0120002070474FF6FF72B2EB24
:1083E000104F82B083B215D113F47F4007D003F44D
:1083F0004043B3F5004F14BF0020012006E023F0F6
:108400007F022AB97F3B18BF0123184602B070478C
:108410000346FAE723F03F03C02BECE701289FBF98
:10842000054B382202FB003090F8340094BF00F076
:1084300001000020704700BF60330020C0F30F43ED
:10844000A3F540539BB2012B13B512D80B4A1078F9
:1084500010F004000FD10A4A096802EBC304C943B3
:10846000616012F8331021F0060102F8331002B0F7
:1084700010BD0520FBE70020F9E700BFD233002044
:10848000D433002013B50190000C01280C4602D013
:10849000784609F081FA012363800223A3802380B8
:1084A00002B010BD37B5C0F30F44A4F54054A4B2D8
:1084B000012C01900D4602D9784609F06DFA044866
:1084C00000EBC4046368DB432B6003B030BD00BF26
:1084D000D433002070B51C460B89B3F5BE7F05462A
:1084E000164606D3092323602068B0FA80F04009BD
:1084F00070BDFFF793FF28B10C48382303FB05003C
:1085000083890BB10523EEE73EB982884FF6FF73EE
:108510009A4206D0C2889A4203D00868FFF75DFFEE
:1085200008B90723DFE70023DDE700BF6033002041
:1085300037B5040CB4F5805F01900D4602D0784643
:1085400009F02AFA064BA4F58054A4B206210222AF
:1085500001FB0431284603B0BDE8304014F0E7BB0E
:108560004A33002037B5C0F30F44A4F50054A4B239
:10857000012C01900D4602D9784609F00DFA054B01
:108580003821142201FB0431284603B0BDE83040F5
:1085900014F0CDBB6033002037B5C0F30F44A4F511
:1085A0000054A4B2012C019014D80C4B187810F090
:1085B00004050DD10A48382303FB04041422204685
:1085C00014F0B5FB94F8343023F0060384F834300B
:1085D000002000E0052003B030BD00BFD2330020F2
:1085E0006033002010B50E4C70220021204614F09C
:1085F000A9FB062200210B4814F0A4FB1022002145
:10860000094814F09FFB4FF0FF31084A61600123D5
:10861000E260A384E1636264A4F85C3010BD00BF33
:10862000603300204A330020D4330020FFFF0200D3
:108630002DE9F04FD5B0044607A80F46049299469D
:10864000BDF8786102F068FB6F4BBDF81E10049A0C
:10865000382000FB0430B0F80C80414505D84FF0BD
:10866000100A504655B0BDE8F08FBDF81C100491BB
:1086700008AD002A00F0938002F10C0103C9B2F8A2
:108680001EB0B2F824A0127F85E80300002A00F093
:108690009680382202FB0434647CFF2C01D15B4BB2
:1086A0001C78B9F1000F02D1784609F075F916B9B6
:1086B000784609F071F90AAB184624220021059387
:1086C00014F040FB504610AA594603F01FF9059BD1
:1086D00082460028C5D1049A9C7295E80300904414
:1086E000BA7ADA72FA7A1A7383E80300FA68A3F89E
:1086F000088051461846C3F810909E821A620CF00A
:10870000DBF982460028ACD1414C226892041AD58C
:10871000404B1B68042B16DD2F213F4814F0E2FB71
:1087200000284ED02F213C4814F0DCFB411C3B4B71
:108730003A88D3F804350192394A0092052040F274
:10874000A9120EF0D5F923689B048AD5314B1B681A
:10875000042B86DD334B802E196828BF802600232A
:1087600013ACB34236D100222F212B4804F813203A
:1087700014F0B8FB00283BD02F21274814F0B2FB9F
:10878000411C264B284AD3F804350192274A00920F
:1087900002944FF4D57205200EF0AAF961E7B0F803
:1087A00004B0C0880593294602F030FB48BB6A88B4
:1087B000002A3FF454AF4FF6FF7A059B69E7144651
:1087C0006FE75C21144814F08DFB08B15C21AAE727
:1087D0001149ACE719F80320100902F00F02085CF8
:1087E00004F81300885C04EB430201335070B8E7CF
:1087F0005C21094814F076FB08B15C21BDE706490D
:10880000BFE74FF0050A2CE760330020002E002060
:10881000282E0020242E002088D2030000100140C2
:10882000A4D203002C2E0020B8D20300F6D00300FF
:1088300013B50190000C01280C4602D0784609F0CF
:10884000ABF86388012B0DD1A388022B0AD12388B2
:10885000022B07D1044A137843F001031370002060
:1088600002B010BD0B20FBE7D233002037B50190DA
:10887000000CB0F5805F0FD1094B187810F004049C
:1088800008D1084D0222284614F051FA6B7923F0E2
:1088900006036B71002000E0052003B030BD00BF6F
:1088A000D23300204A33002007B5104B1B785B07FA
:1088B00009D40F4A12F8303043F0040302F8303084
:1088C00003B05DF804FB00F540500223ADF804301E
:1088D000ADF80600019810F08BFA0028F0D0784629
:1088E00003B05DF804EB09F057B800BFD2330020A5
:1088F000D433002007B5124B1B7813F0040F114B33
:1089000008D113F8302042F0020203F8302003B0FF
:108910005DF804FB03EBC003022200F540505B68E6
:10892000ADF80420ADF80600DB43694601980093DA
:1089300010F000FA0028EAD0784609F02DF8E6E7B2
:10894000D2330020D433002007B5134B13491B78D2
:1089500013F0040F0BD1382303FB001090F83430D0
:1089600043F0020380F8343003B05DF804FB0223C7
:10897000ADF8043000F50053ADF80630382303FBA2
:108980000011019810F0D6F90028EDD0784603B018
:108990005DF804EB09F000B8D2330020603300200A
:1089A00007B50C4B1B785B0707D40B4A537943F090
:1089B0000203537103B05DF804FB0749074810F048
:1089C000B9F90028F6D0784603B05DF804EB08F05A
:1089D000E3BF00BFD23300204A3300200200001062
:1089E0004A0901F01F034FF0FF31994050F822303F
:1089F000194009D04B420B4004495943C90E044B5E
:108A0000585C00EB421070471820704731B57C0766
:108A100068D203002DE9F04F85B081469246984612
:108A20000E9F0D4611B9784608F0B6FF03AB5246CB
:108A300029464846FFF74EFD18B9039805B0BDE832
:108A4000F08F69882B884FF6FF72914230D1B3F5D1
:108A5000807F34BF4FF0010B4FF0020B2E895E4434
:108A6000B6B2304610F0E9FE044680B36A882B881F
:108A70004FF6FF708242D9B21DD06270120A217087
:108A8000A2702A89696804EB0B0014F050F9009673
:108A90002346524629464846FFF7CAFD039018B9B7
:108AA000B8F1000F00D077B9204610F0C8FEC4E737
:108AB0004FF0030BD2E713F47F4F1DBF1B0A237047
:108AC00061702170DDE7C8F800403E80B6E7042001
:108AD000B4E700002DE9F04F504E337813F0020751
:108AE00085B003D00B2005B0BDE8F08F13F0010F67
:108AF0004B4C18D0A0464FF6FF79BB46B8F80C3067
:108B00004B450CD0B8F8060048455ED1B8F80E5079
:108B1000022D5FD1382303FB074383F812B008F11D
:108B20003808002F4FD033783E4D43F004033370A4
:108B30002B7813F0040064D1990701D5FFF7DAFE12
:108B40002B7823F006032B702B7A5A075DD5012072
:108B5000FFF7AAFE2B7A23F006032B72324D6B79B6
:108B6000980701D5FFF71CFF6B7923F002036B71A7
:108B700094F83430990702D50020FFF7E5FE94F809
:108B8000343023F0020384F8343094F86C309A07C0
:108B900002D50120FFF7D8FE94F86C3023F00203D1
:108BA00084F86C303378DB0735D4204802900223F8
:108BB00002A9ADF80C3010F0BDF810B1784608F0FD
:108BC000EBFE05208FE7012798E702F0B9F80028AF
:108BD0009CD087E7134B03EBC505043500212846DD
:108BE000FFF7FEFE1828824694D01FFA8AF002F0A2
:108BF000F1F800287FF476AF0AF101011729EED9C8
:108C000088E70020FFF750FE9AE79F07A2D50120D2
:108C1000FFF770FE9EE7002065E700BFD23300201B
:108C200060330020D43300204A33002002000100CA
:108C30002DE9F04F00F114048FB00546204603F0F3
:108C4000B5F88146002876D04FF6FF73ADF8323084
:108C50002B7D012B72D10DA802F05EF8EB8ABDF8D6
:108C600034209B1A9BB209934E46554C4FF0000A94
:108C7000002E7CD0A788099BFA1A5742574194F8D6
:108C80002C30E98B03F0010320460A93FFF798FB91
:108C900029880B90A28C68884FF00008904576D305
:108CA0004FF00008C346474B1B689B0425D5464B35
:108CB0001B68062B21DD2F21444814F013F90028EE
:108CC00075D02F21414814F00DF9411C0B9A404BEF
:108CD000D3F80435CDF818B0CDE904720A9A03929E
:108CE00034F8062C029234F8082C0192394A00928A
:108CF000072040F21C420DF0FBFE0A9BBBB1B7B14E
:108D00000B9BA3B1BBF1000F11D02B7D012B1FFAE0
:108D10008AF704D1A26A2946384601F001F8236A8D
:108D2000A26A03EBC80329465B6838469847383483
:108D3000BAF1000F18D00FB0BDE8F08FEB8A043302
:108D40009BB2032B0AD90DF13201204602F0BAF88A
:108D500040B1784608F020FE002686E7002306464C
:108D6000099382E7064680E74FF0010A80E7E08832
:108D700001280AD8184BBDF8321003EBC0000430AC
:108D8000FFF71EFB00F0010779E73046FAE7236A98
:108D900003EBC80C33F838308B4203D1BCF80230F7
:108DA000834202D008F1010878E7CB467BE75C21DB
:108DB000064814F097F808B15C2183E7034985E77A
:108DC00068330020282E0020242E002088D20300A3
:108DD00000100140F8D10300D43300202DE9F04306
:108DE00003681D7805F0C002402AD1B004460FD0B8
:108DF00003D86AB10026354610E0802A00F09D8035
:108E0000C02AF7D19A785E78ADB246EA022605E02C
:108E1000ADB27F2D00F08E804FF6FF765A4B1A6868
:108E200012F4005F984619D0584B1B68042B15DDCF
:108E30002F21574814F056F8002800F082802F2187
:108E4000534814F04FF8411C524B534AD3F80435A1
:108E500000920195FD2205200DF04AFEE06902F026
:108E60009FF88146A06902F087F84FF6FF739E4293
:108E7000ADF81450ADF8166027686BD1FF2D8CBF8C
:108E8000022301234FF6FF721F4496420697A388E0
:108E900062D1FF2D8CBF022201229B1A227A8DF80B
:108EA00020206289ADF82220E2680992227C8DF8A8
:108EB0002820628AADF82A2062690B9294F820205B
:108EC0008DF83020626A0D92D8F80020ADF832900B
:108ED0009BB29204ADF81C30ADF8380027D52B4A70
:108EE0001268042A23DD2D4A802B106828BF8023B6
:108EF00000220FAC9A4231D100232F21244804F8DC
:108F0000123013F0EFFF002835D02F21204813F046
:108F1000E9FF411C1F4B224AD3F804350192214A34
:108F2000009202944FF48A7205200DF0E1FD05A82D
:108F3000FFF77EFE51B0BDE8F0835B7843EA05257C
:108F40006AE75C21124813F0CDFF08B15C2177E796
:108F50000F4979E7032395E703229EE7B95C0D09E2
:108F600001F00F01455D04F81250455C04EB42012D
:108F700001324D70BEE75C21054813F0B3FF08B124
:108F80005C21C3E70249C5E7282E0020242E0020DB
:108F900088D20300001001404DD203002C2E002087
:108FA00060D20300F6D00300037813B1142B03D072
:108FB00070470430FFF712BFC388022B01BF034A7A
:108FC000137843F002031370704700BFD2330020C0
:108FD000F0B5064685B014461D4681B17AB173B12D
:108FE00003AB0022FFF776FA10B9039805B0F0BD85
:108FF0000095234600223046FFF71AFBF6E70E20C5
:10900000F4E7000007B5FFF7EDFA00F0CBFE174AD2
:10901000137803F0FC036FF382031370144B18688A
:109020000FF0E6FE134801900FF0E2FE43F2010359
:10903000ADF8063001980FF0DBFE4FF48053ADF829
:10904000063001980FF0D4FE4FF40053ADF806300F
:1090500001980FF0CDFE42F20103ADF80630019801
:1090600003B05DF804EB0FF0C3BE00BFD2330020A5
:10907000E8D103000200003008B5FFF7B3FA094851
:10908000094B03600BF01AFD00F07EFEFFF716F8A7
:10909000FFF708F9054A137803F0FC036FF3820326
:1090A000137008BD54330020A98F0200D233002072
:1090B0002DE9F0410D460446002800F0BE8000294D
:1090C00000F0BB80C3681BB18368002B00F0B58043
:1090D0004FF6FF732B80E3681BB9A368002B40F0A9
:1090E000AE80A388002B40F0AC8002F083FE10B16C
:1090F0000F20BDE8F081564BA788062202FB0732FD
:109100009178D278D14219466AD1D4E902870026F3
:10911000B74240F08B802A884E4E4FF6FF739A423A
:1091200043D196F8343013F0010305D096F86C3033
:10913000DB0700F18A80012338222B8002FB0363C6
:109140004FF6FF70D8802B8802FB036398802B8832
:10915000A78802FB03639F812B88678802FB036358
:109160005F802B8827885343F7522B8802FB0362CA
:1091700050742288A38882424FF0060202FB031338
:109180000BBF9A78DA78013201320CBF9A70DA702C
:109190002B88382202FB036393F8342042F001024B
:1091A00083F834202888FFF7CFFB2B8821693822E9
:1091B00002FB0363002019632B88A16802FB036391
:1091C00099622B88E16802FB036399852B886169AA
:1091D00002FB036399612B8802FB0366B38288E775
:1091E0001C4B2288B3F80CC06688BC4507D1B3F885
:1091F00002C0B44503D1B3F800C094450CD0B3F815
:109200004400B84281D1588FB0427FF47EAF188FAE
:1092100090427FF47AAF01203822288002FB003090
:1092200090F83430DA077FF570AF61E758F8360010
:10923000FFF7D3F838B101366AE70E2059E7092065
:1092400057E7052055E7072053E7042051E700BF03
:109250004A330020603300207FB505460E4619B31F
:109260000DF10A030022009303ABADF80A20FFF7CB
:10927000D1FB044688B90D48039B38226A43811804
:10928000C97C49070CD002F11301BDF80A200092F5
:10929000014432462846FFF717F8204604B070BD57
:1092A000184610F0CCFAF8E70E24F6E760330020F9
:1092B00013B514460A4639B134B100230093214650
:1092C000FFF7A8FB02B010BD0E20FBE710B5044667
:1092D000FFF7A4F870B117290ED8084A382303FB0A
:1092E0000423DA888A4203D0D9802046FFF72CFB7A
:1092F000002000E0052010BD0720FCE760330020BF
:1093000010B5044651B1FFF789F848B1054B382232
:1093100002FB04340020E3880B8010BD0E20FCE724
:109320000520FAE760330020012838B51BD80F4B21
:10933000382202FB003292F83440E40713D5D27C85
:1093400001F0070402F00705A54204D1C1F3C404EB
:10935000B4EBD20F05D0382202FB0033D974FFF7EB
:10936000F3FA002000E0052038BD00BF6033002084
:1093700069B101280DD8084B382202FB003090F863
:109380003430DB0705D5C37C0B70002070470E20FE
:1093900070470520704700BF6033002038B5044691
:1093A000154699B192B1FFF739F888B10A483823C8
:1093B00003FB040083696BB1837CC3F301030B706F
:1093C000837CC3F385032B70002038BD0E20FCE79F
:1093D0000520FAE70620F8E7603300202DE9F34185
:1093E0000DF107020DF106010546FFF7D7FF10B199
:1093F000784608F0D1FA284E9DF807709DF80610BF
:10940000382303FB05633C46B3F82480032923D8A3
:10941000DFE801F005021A1E07EB87046400B4FBC5
:10942000F8F3092B1CD8002F33D0012B38BF0123B0
:10943000DFB20021382000FB05603A461430FEF709
:1094400059FE02B0BDE8F081642417FB04F4E6E79E
:1094500041F270747C43E2E7784608F09DFADEE75B
:10946000632B05D80A220121B3FBF2F3DFB2E1E757
:1094700041F26F72934295BF642241F27072B3FB66
:10948000F2F3B3FBF2F399BFDFB20221DFB20321A3
:10949000D0E73946CEE700BF60330020012810B581
:1094A0000FD80B4A382404FB002393F83420D2074A
:1094B00007D59A693AB141B19984FFF78FFF00202F
:1094C00010BD0520FCE70620FAE70720F8E700BFFB
:1094D00060330020012838B5044629D8174B3820BE
:1094E00000FB043090F8345015F0010F1D461FD0DA
:1094F0008369FBB13F2A1FD803291DD8837CB2EBB7
:10950000930F03D103F003038B420FD0382303FBE7
:109510000453987C62F38700024661F301022046FF
:109520009A74FFF75BFF2046FFF70EFA002000E079
:10953000052038BD0620FCE70720FAE7603300204D
:1095400038B5044602F056FC18BB2046FEF766FF0D
:1095500008B3134D382202FB0452D289022A16D1D5
:10956000104A137813F0010003D0137AD90714D4EA
:10957000012043F0010302F83030382303FB045389
:1095800080B2D881FFF7B6F92046FFF7DDF9002059
:1095900038BD0F20FCE70520FAE70420F8E700BFFC
:1095A00060330020D43300202DE9F0410446884682
:1095B000FEF734FFD0B1114B382202FB0434E689A8
:1095C000022E16D0172916D80D4FF500043578193C
:1095D000FEF7F6FE40B9012303FA08F17B590B436D
:1095E0007B513046FFF786F9002000E00520BDE8FA
:1095F000F0810620FBE70720F9E700BF6033002079
:10960000D4330020F8B504460F46FEF707FFD8B163
:10961000104B382202FB0434E589022D16D017299D
:1096200016D80D4EEC0004343019FEF7C9FE50B1C7
:10963000012303FA07F13359284623EA0103335182
:10964000FFF758F90020F8BD0520FCE70620FAE7EF
:109650000720F8E760330020D43300202DE9F843D9
:10966000064615460F4641B33AB3FEF7D7FE30B370
:10967000164B382202FB0636F389022B21D0002438
:10968000DFF84C90B5F800802C80F08901280ED8C6
:1096900009EBC00021460430FEF792FE38B12B885A
:1096A000984510D927F813402B8801332B800134BB
:1096B000182CEAD10020BDE8F8830E20FBE7052036
:1096C000F9E70620F7E70920F5E700BF603300203F
:1096D000D43300202DE9F04107468846FEF79EFE70
:1096E000A0B1082915D838250B4E7D4308357019CF
:1096F000FEF766FE40B9012303FA08F173593846B4
:109700000B437351FFF720F9002000E00520BDE86E
:10971000F0810720FBE700BF60330020F8B5064664
:109720000F46FEF77BFEA8B1082915D838240B4D4B
:10973000744308342819FEF743FE50B1012303FA9D
:1097400007F12B59304623EA01032B51FFF7FCF8B0
:109750000020F8BD0520FCE70720FAE76033002071
:109760002DE9F041064615460F46F9B1F2B1FEF774
:1097700055FEE8B1104BB5F800803822002402FBFA
:1097800006362C80083621463046FEF719FE38B1E1
:109790002B8898450ED927F813402B8801332B804E
:1097A0000134082CEFD10020BDE8F0810E20FBE74A
:1097B0000520F9E70920F7E76033002010B50446DB
:1097C000FEF72CFE70B108290ED8084A382303FB97
:1097D00004239A888A4203D099802046FFF7B4F880
:1097E000002000E0052010BD0720FCE760330020CA
:1097F00010B5044651B1FEF711FE48B1054B3822B1
:1098000002FB04340020A3880B8010BD0E20FCE76F
:109810000520FAE760330020030605D4012803D0B1
:10982000024B18700020704707207047002E002060
:10983000014B1878704700BF002E002010B5044679
:10984000FEF7ECFD60B1074A382303FB04231A7CC2
:109850008A4203D019742046FFF776F8002000E012
:10986000052010BD6033002010B5044651B1FEF74D
:10987000D5FD48B1054B382202FB04340020237C7F
:109880000B7010BD0E20FCE70520FAE760330020C6
:1098900010B50446FEF7C2FD80B181F080037E2B37
:1098A0000ED9084A382303FB04235A7C8A4203D08A
:1098B00059742046FFF748F8002000E0052010BD4D
:1098C0000720FCE76033002010B5044651B1FEF7D5
:1098D000A5FD48B1054B382202FB04340020637C0F
:1098E0000B7010BD0E20FCE70520FAE76033002066
:1098F00021B128B9034B1B880B8070470E2070479D
:10990000052070474A33002021B128B9034B9B78CA
:109910000B7070470E207047052070474A330020B7
:1099200021B128B9034BDB780B7070470E207047CC
:10993000052070474A33002010B5044661B1FEF798
:109940006DFD58B1064B382060431A1852884A8082
:109950001B5A0B80002010BD0E20FCE70520FAE703
:109960006033002073B5019112B310B1052002B02D
:1099700070BD4FF6FF730F4913808B89BDF804400B
:10998000BDF8065008462BB94E88AE4202D1098870
:10999000A1420AD0B0F84430002BE7D1438FAB424C
:1099A000E4D1038FA342E1D1012313800020DEE73D
:1099B0000E20DCE760330020F0B509B302B308BB2A
:1099C000124E1588108002236FF037071088A842C6
:1099D0001AD207FB036494F8A4C01CF0010F09D04D
:1099E000B4F87C4034B9C3F1020421F81040108867
:1099F00001301080012B01D10020F0BD0123E5E7EB
:109A00000E20FAE70520F8E70920F6E7603300208A
:109A100010B5044651B1FEF701FD48B1054B38229F
:109A200002FB04340020236B0B6010BD0E20FCE70A
:109A30000520FAE760330020F8B50746FEF7EEFC94
:109A400000B33825104C7D43002205F11400114667
:109A500066192044FEF74EFB384600F0E9F9F0881D
:109A600001F08EF94FF0FF33736005F110032344CA
:109A700000245C709C70DC703846B475FEF764FF9F
:109A80002046F8BD0520FCE760330020082837B5E4
:109A900005461CD80DF106010020FFF7A9FE28B9E4
:109AA000BDF80630AB4201D1FFF7C6FF0DF106014C
:109AB0000120FFF79DFE044658B9BDF80630AB42C1
:109AC00002D10120FFF7B8FF204603B030BD0724C4
:109AD000FAE70024F8E700002DE9F04F5A4DB5F8F9
:109AE000703085B0804613B9784607F055FF574C63
:109AF000DFF86CA14FF6FF7308F57A79A5F872309C
:109B0000002604F1040B94F82830CBB1A369A3EB31
:109B10000903002B19DA002384F82830B5F87030D7
:109B2000013BA5F8703003A92088FFF771FF10B141
:109B3000784607F031FFE3690399208801229847AE
:109B40002C34002E50D10126DDE7236AA3EB090255
:109B5000002A66DAA5F872602C2101FB06B1208884
:109B6000FFF77AFB0746E8B1DAF800309B0417D517
:109B7000374B1B68042B13DD2F21364813F0B2F945
:109B8000E8B12F21334813F0ADF9411C324B334A71
:109B9000D3F8043500920197802205200CF0A8FF2D
:109BA000082F15D1D4E908231A445B0022626362AE
:109BB000A269236AD31A002BC2DA2262C0E75C21B1
:109BC000244813F08FF908B15C21DBE72149DDE778
:109BD000042F01D00F2F20D12C2303FB0656B36B8B
:109BE00003F51C434033B363B5F870304BB3B5F89D
:109BF0007230012B02D9784607F0CEFEB5F87230EC
:109C00002C2202FB03539B6BB3EB080248BFA8EB6B
:109C10000302EA6005B0BDE8F08F784607F0BCFEAD
:109C2000C6E7B5F872204FF6FF718A4206D02C21A4
:109C300001FB0252926B9B1A002B81DAA5F872602D
:109C40007EE7EB60E6E700BFE83300200034002049
:109C5000242E0020C0D2030000100140E5D20300F2
:109C6000282E002038B52C4C2C2303FB004305463E
:109C700093F8403013B9784607F08EFEB4F8703090
:109C800013B9784607F088FE2C2202FB0542002318
:109C900082F84030B4F87030013B9BB2A4F87030C9
:109CA000A3B3B4F87230AB4235D1926B1B4B134463
:109CB00094F84020EAB1A26BD11A0029B8BF13462C
:109CC0004FF6FF72B8BF002294F86C10A1B1616E1C
:109CD000CB1A002B10DA0123A4F87230B4F87230DA
:109CE0000D482C2202FB0344A16BBDE838400BF069
:109CF00014B94FF6FF72E7E74FF6FF739A42A4F8E4
:109D00007220EBD1784607F047FEE7E70248BDE84E
:109D100038400BF0EBB838BDE833002000879303E0
:109D20000128F8B505460E46174602D9784607F0D1
:109D300033FE0BF00FFE134B93F8402012B11A8B39
:109D4000AA421DD093F86C20B2B1B3F84420AA42C5
:109D500012D101202C2404FB00343388A28D9A42B6
:109D60000AD1E28D73889A4206D1FFF77BFF636BBD
:109D70000022394628469847BDE8F8400BF02ABE35
:109D80000020E7E7E833002010B5044C74220021DE
:109D9000204612F0D7FF024BA36010BDE83300202D
:109DA000D99A020073B51F4C0BF0D4FDB4F8703093
:109DB0002BB100232046A4F870300BF097F894F8EC
:109DC00040307BB1258B1848666B00212C2212F0A5
:109DD000B9FF01A92846FFF71BFEF0B9022201993D
:109DE0002846B04794F86C309BB1B4F844500F4803
:109DF000246E00212C2212F0A5FF01A92846FFF7AE
:109E000007FE10B1784607F0C7FD022201992846E7
:109E1000A0470BF0DFFD02B070BD784607F0BCFD37
:109E2000DCE700BFE8330020003400202C340020A1
:109E3000012873B505462DD8174C0BF08BFD94F80F
:109E4000403013B1238BAB4220D094F86C30FBB17F
:109E5000B4F84430AB421BD101263046FFF702FF75
:109E600001A92846FFF7D4FD10B1784607F094FD0C
:109E70002C2303FB06440222636B01992846984772
:109E800000240BF0A7FD204602B070BD0026E4E7D9
:109E90000524F6E70524F6E7E83300204A09012304
:109EA00001F01F0103FA01F150F82230194214BFEA
:109EB0000120002070474A09012301F01F0103FA25
:109EC00001F150F822300B4340F822307047000077
:109ED000A0F1100189B2072902D80248FFF7DEBFBE
:109EE00000207047643400202DE9F0474FF6FF73DF
:109EF000DFF84080DFF840900B8007460D460024D5
:109F00001E464FF0AC0A21464046FFF7C7FF40B15E
:109F10000AFB04F333F80930BB4206D12C80BDE8BC
:109F2000F0872B88B34208BF2C800134042CEAD17F
:109F30000020F4E794360020983600202DE9F04701
:109F40004FF6FF73DFF84080DFF840900B80074644
:109F50000D4600241E464FF02A0A21464046FFF7D0
:109F60009DFF40B10AFB04F333F80930BB4206D130
:109F70002C80BDE8F0872B88B34208BF2C800134C9
:109F8000082CEAD10020F4E7A8340020AC340020EB
:109F900013B50190000C01280C4602D0784607F05A
:109FA000FBFC042323800123A380082363802381F7
:109FB0001023E38002B010BD37B5C0F30F44A4F501
:109FC0008054A4B20F2C01900D4602D9784607F0B8
:109FD000E3FC21460648FFF761FF10B9784607F019
:109FE000DBFC044B33F824302B8003B030BD00BFC2
:109FF0005C3400206834002010B5044610B978465F
:10A0000007F0CAFC0A4B002293F8421090B269B1E3
:10A01000A3420AD003F121018C4206D00132042A66
:10A0200003F1AC03F0D14FF6FF7010BDA342F4E78B
:10A03000BA36002013B50190000C02280C4602D05D
:10A04000784607F0A9FC074B1B68DB0702D478466B
:10A0500007F0A2FC04490422204602B0BDE81040EB
:10A0600012F065BE603400208036002037B5C0F3A2
:10A070000F44A4F50054A4B2072C01900D4602D958
:10A08000784607F089FC21460948FFF707FF10B919
:10A09000784607F081FC0749142000FB04111022C8
:10A0A0000431284603B0BDE8304012F040BE00BF86
:10A0B000643400204839002073B5040CB4F5A04F77
:10A0C00001900D4602D0784607F066FCA4F5A04446
:10A0D000A4B221460B48FFF7E1FE10B9784607F01D
:10A0E0005BFC16235C43084EA11D10223144281D41
:10A0F00012F01DFE325B2A8033195B886B8002B040
:10A1000070BD00BFFC35002000360020F8B5A1F17D
:10A11000100514246C430B4F0646201D31461022B7
:10A12000384412F004FE391930460CF00FFC10B11F
:10A13000784607F031FC29460348BDE8F840FFF7B0
:10A14000BABE00BF483900206434002073B5050C46
:10A150000E46A5F5005189B2072901900CD8084890
:10A16000FFF79CFE30B9A5F5FF51103989B2304692
:10A17000FFF7CCFF002000E0052002B070BD00BF5B
:10A1800064340020F7B5C0F30F44A4F54054A5B2E1
:10A19000032D01900E4602D9784607F0FDFB002101
:10A1A0002422304612F0CEFD29461348FFF776FEF2
:10A1B00010B9784607F0F0FBAC24104F6C433D1902
:10A1C0003B5B338095F86430B370A11C1022394496
:10A1D000F01C12F0ACFD95F8643053B104F112019B
:10A1E0001022394406F1130003B0BDE8F04012F02C
:10A1F0009EBD03B0F0BD00BF94360020983600200D
:10A2000073B5C0F30F44A4F58044A5B2072D0190A7
:10A210000E4602D9784607F0BFFB002126223046C1
:10A2200012F090FD29461248FFF738FE10B9784623
:10A2300007F0B2FB2A246C430E4DA11D10222944C5
:10A24000701D12F074FD2A5B32802B195A887280BF
:10A250009B7D337153B104F119011022294406F199
:10A26000150002B0BDE8704012F061BD02B070BDD3
:10A27000A8340020AC3400202DE9F0411E4CAC2560
:10A280005543164605F16803621923440F46936748
:10A29000804610B9194B01221A7005F122012144A0
:10A2A00038460CF01AFB10B1784607F075FB05F143
:10A2B0007C01214438460CF021FB10B1784607F0B0
:10A2C0006BFBA81C39461022204412F030FD05F12A
:10A2D000120010220021204412F034FDAC237343FD
:10A2E000E21824F80380002382F8643031460448E1
:10A2F000BDE8F041FFF7DFBD983600207E36002034
:10A300009436002037B5C0F30F440D4604F5405491
:10A31000A4B20190224628880331FFF7ADFF074819
:10A32000AB78AC2202FB0404054A84F8643013784D
:10A33000002043F00403137003B030BD98360020B2
:10A34000903600202DE9F8432A255D43144C9146B0
:10A350000746A81D10220E4620444946984612F092
:10A36000E6FC05F1190000211022204412F0EAFC5D
:10A37000691D214448460CF0A7FA10B1784607F051
:10A380000BFB2A2202FB08F2A31800211971997510
:10A390005E80A75241460348BDE8F843FFF78BBDF6
:10A3A000AC340020A8340020F7B5C0F30F44A4F566
:10A3B0008044A4B2072C01900D462ED8214618489F
:10A3C000FFF76CFD10B1002003B0F0BD154F698898
:10A3D00028882A2623466A1D6643FFF7B3FFBB1968
:10A3E0002A799A752B79002BEDD0153506F11900D5
:10A3F00029461022384412F09AFC06F1180139441B
:10A4000028460CF061FA10B1784607F0C5FA2A2008
:10A4100000FB04742379E375D5E70520D4E700BF7A
:10A42000A8340020AC3400202DE9F3410190000C49
:10A4300000F50054A4B2072C0E4632D900F5805026
:10A4400084B2072C2FD80125194A137843F004034E
:10A450001370308871882346321DFFF773FF2A2757
:10A4600014486743C31980469D75F5B1143607F14A
:10A47000190031461022404412F059FC07F118012E
:10A48000414430460CF020FA10B1784607F084FAC7
:10A490002A2000FB048400202379E37502B0BDE884
:10A4A000F0810025D0E70520F8E72846F6E700BF51
:10A4B00090360020AC34002073B5064610460C469A
:10A4C0001546FFF7EBFC10B9784607F065FA012353
:10A4D0002644ADF80430ADF8066001980EF088FC13
:10A4E00010B1784607F058FA6209012304F01F04FE
:10A4F00003FA04F455F8223023EA040345F8223025
:10A5000002B070BD2DE9F0474FF6FF73DFF84C80C5
:10A51000DFF84CA00B8007460D4600244FF01409CD
:10A5200021464046FFF7BAFC064650B92A884FF646
:10A53000FF739A4200D12C800134082CF0D1002600
:10A5400008E01022394609FB04A012F0E1FB0028C4
:10A55000F2D12C803046BDE8F08700BF6434002083
:10A560004C39002001460148FFF798BC5C340020BC
:10A5700013B50190000C01280C4602D0784607F074
:10A580000BFA2388042B13D1A388012B10D16388E5
:10A59000082B0DD12389082B0AD1E388102B07D172
:10A5A000044A137843F001031370002002B010BD79
:10A5B0000B20FBE79036002008B528B9784607F055
:10A5C000EBF94FF6FF700BE0064B9842F9D303F519
:10A5D00001729042F5D8C01AAC23B0FBF3F080B200
:10A5E00008BD00BF0C37002008B528B9784607F031
:10A5F000D3F94FF6FF7008BD0A4B984209D303F513
:10A600009372904205D8C01A2A23B0FBF3F080B2AF
:10A61000F1E7054A4FF6FF73904214BF1846082031
:10A62000E9E700BFB03400200436002037B50190C0
:10A63000000C02280D4602D0784607F0ADF9084C10
:10A640002368DB0708D404222946064812F06FFB72
:10A65000236843F001032360002003B030BD00BF36
:10A660006034002080360020F7B5C0F30F44A4F515
:10A670004054A4B2032C01900D4628D82146154819
:10A68000FFF70CFC10B1002003B0F0BD2246E91C1E
:10A690002888114FFFF7F0FDAC214C43AB783A19F5
:10A6A00082F86430002BEED0133504F112002946F5
:10A6B00010223844433412F03AFB391928460CF082
:10A6C0000CF90028DFD0784607F066F9DBE70520B3
:10A6D000DAE700BF943600209836002037B5002313
:10A6E000054610460C46ADF80030FFF7D7FB10B911
:10A6F000784607F051F901232C44ADF80430ADF849
:10A700000640694601980EF015FB10B1784607F037
:10A7100043F903B030BD00002DE9F74F8046924663
:10A720000E46002951D00AF087F80228814627D02A
:10A7300020F00207FBB2012B22D14FF6FF74334BFE
:10A74000334A0025A3465C450ED1104629460193A5
:10A750000092FFF7A3FBDDE9002328B9ACB2013575
:10A76000102DF0D1002305E033F825104145F6D136
:10A77000ACB20123BAF1000F04D1B9F1030F26D016
:10A7800010201FE0FFB2012FFAD19BB94FF6FF72E4
:10A79000944221D01D4A1E4822F8248002EB8402F4
:10A7A00021465380FFF787FB194A21464FF480501A
:10A7B000FFF794FF154B348003EB8404A378013337
:10A7C000A370002003B0BDE8F08F0E20FAE7ABB90C
:10A7D0004FF6FF72944201D10420F3E70B4A0C4874
:10A7E00022F8248002EB840221465380FFF763FBAA
:10A7F000074A21464FF48050FFF770FF034B348027
:10A8000003EB8404E3780133E370DAE76834002073
:10A810005C3400202DE9F3414FF6FF770E461446D5
:10A82000ADF80670804650B349B30DF10601FFF74D
:10A8300069FEBDF8063003F11005ADB260B9BB4248
:10A840001FD029464046FFF761FC0F4ABDF80610AD
:10A850004FF40050FFF742FFBDF806300B4A358039
:10A86000142101FB032334B9DA780132DA700020B5
:10A8700002B0BDE8F0819A7801329A70F7E70E20B5
:10A88000F6E70420F4E700BF6434002048390020D4
:10A8900041090B4A00F01F004FF0FF33834052F88C
:10A8A0002100034009D05A421A40064B5343DB0EA5
:10A8B000054AD05C00EB411070470420704700BF90
:10A8C0009436002031B57C078BD303004FF6FF731D
:10A8D0000B80084B1B6813F0010307D0064B1B8845
:10A8E000834205D108230B800120704708220A808B
:10A8F00000207047FC350020003600200F2810B5DE
:10A90000044602D8FFF72EFE28B92046FFF7E0FAEA
:10A9100000F0010010BD0120FAE700000F2838B553
:10A92000044613D8FFF71EFE80B1144B03EB8402DC
:10A93000907848B9D578FDB923F82450104A2146BB
:10A940004FF48050FFF7B8FD002015E02046FFF7D8
:10A95000BFFA80B1A4F1100189B20A4A14234B4313
:10A96000D418A0780028EFD1E4782CB9D4524FF451
:10A970000050054AE6E7052038BD00BF68340020D6
:10A980005C34002048390020643400202DE9F34174
:10A990000190000CB0F5A04F19D10F4E346814F09F
:10A9A000010412D10D4D0F88B1F80280102204313C
:10A9B000A81D12F0BCF90123214630466C712B71A1
:10A9C000A5F802802F80FFF776FA002000E005202E
:10A9D00002B0BDE8F08100BFFC3500200036002049
:10A9E00073B5C0F30F44A4F58054A4B20F2C0190AA
:10A9F0000E4611D821460A48FFF750FA50B9094BC4
:10AA0000328823F8242003EB84032146588004482D
:10AA1000FFF751FA002000E0052002B070BD00BF32
:10AA20005C340020683400200388012B15D1438852
:10AA3000A3F54052032A04D8142902D1A3F5C04338
:10AA400007E0A3F58042072A07D8242903D1A3F5FC
:10AA5000A043438001E01429F0D070477FB52C4A11
:10AA6000137813F0020451D1D90712D4294A10687F
:10AA70005168128901AB03C301A94FF001101A807C
:10AA80000EF058F910B1784606F086FF052004B0A4
:10AA900070BD13F00400FAD064F3820313701E4DEE
:10AAA0001E4B019321462846FFF7F8F968B1A6B27C
:10AAB00006F54053ADF8063001980EF099F92A4694
:10AAC00031464FF44050FFF709FE0134042CE9D120
:10AAD0004FF48043124DADF806300024214628463D
:10AAE000FFF7DCF968B1A6B206F58043ADF8063091
:10AAF00001980EF07DF92A4631464FF48040FFF769
:10AB0000EDFD0134082CE9D10020C0E70B20BEE7A1
:10AB10009036002008D30300943600200100003056
:10AB2000A834002037B5002349481946C218043319
:10AB3000402BD1709170F9D1002346491C46CA18A8
:10AB40001433A02BD4709470F9D104220021424810
:10AB500012F0F8F804220021404812F0F3F8042221
:10AB600000213F4812F0EEF8042200213D4812F087
:10AB7000E9F8042200213C4812F0E4F80021042204
:10AB80003A4812F0DFF83A4B3A4A1C805C803A4B64
:10AB90001C70137803F0FE0364F341031370374B0A
:10ABA00018680EF025F9364B18680EF021F90123CC
:10ABB000ADF804304FF4805441F21005ADF8064072
:10ABC00001340198A4B20EF013F9AC42F6D14FF45F
:10ABD000005442F20805ADF8064001340198A4B2D1
:10ABE0000EF006F9AC42F6D14FF44053ADF8063002
:10ABF00001980EF0FDF843F20103ADF8063001981C
:10AC00000EF0F6F843F20203ADF8063001980EF0AC
:10AC1000EFF843F20303ADF8063001980EF0E8F8C0
:10AC20004FF4804444F20805ADF806400134019821
:10AC3000A4B20EF0DDF8AC42F6D14FF4A043ADF86B
:10AC40000630019803B0BDE830400EF0D1B800BF27
:10AC50006834002048390020603400205C34002033
:10AC60006434002094360020A8340020FC350020F5
:10AC700080360020903600207E36002012D303005C
:10AC800016D30300064808B5064B036009F016FF0B
:10AC9000054A137803F0FD036FF30003137008BD3A
:10ACA00084360020C9B302009036002070B50546F6
:10ACB00010B9784606F070FE154E306810F00104A9
:10ACC00023D128886B880344984201DB0B2070BD98
:10ACD00009F0B2FD0128F9D128886B8818440138A1
:10ACE00080B209F0A9FD0128F0D13368094843F08A
:10ACF000010304222946336012F019F8022032467B
:10AD00002146FFF7EBFC2046E1E70F20DFE700BF1D
:10AD1000603400208036002010B5044610B9784613
:10AD200006F03AFE204604220249BDE8104011F028
:10AD3000FEBF00BF803600200122FFF7EDBC0000FF
:10AD400010B50446FFF7DAFD78B10F2C89BF084B28
:10AD5000084B103C14228CBF02FB043403EB840428
:10AD60000020A3780133A37010BD0520FCE700BFCD
:10AD700048390020683400200122FFF74BBD000055
:10AD80000F2810B504460DD8FFF7ECFB50B10C4B63
:10AD900003EB84039A78013A9A702046BDE810408C
:10ADA000FFF7BCBD2046FFF793F830B1054AA4F188
:10ADB0001003142101FB0323ECE7052010BD00BFA5
:10ADC00068340020483900200022FFF7A5BC00228B
:10ADD000FFF720BD10B50446FFF790FD78B10F2CAA
:10ADE00089BF084B084B103C14228CBF02FB043473
:10ADF00003EB84040020E3780133E37010BD0520E9
:10AE0000FCE700BF483900206834002038B505460B
:10AE10000C4609B30F280ED8FFF7A4FB58B1104B0E
:10AE200033F82520628033F8250009F005FD2070F5
:10AE30000020606038BD2846FFF74AF870B114233F
:10AE4000103D084A5D430020535B63800435154480
:10AE5000022365602370EDE70E20EBE70520E9E7AC
:10AE6000683400204839002013B50446FFF746FD3A
:10AE700008B369462046FFF7C9FFC0B99DF8003006
:10AE8000032B0BD10D4B03EB8403DA789AB1013A13
:10AE9000DA702046FFF742FD02B010BD022B08D148
:10AEA000074AA4F11003142101FB0323EDE700205E
:10AEB000F2E70F20F0E70520EEE700BF683400203E
:10AEC000483900202DE9F7430D46044600283CD0C0
:10AED00000293AD0408809F0AFFC022824D003288A
:10AEE00001D0012833D14FF6FF73DFF86880DFF817
:10AEF000689067882B8000241E4621464046FEF756
:10AF0000CDFF40B139F82430BB4208D12C8000205D
:10AF100003B0BDE8F0832B88B34208BF2C80013416
:10AF2000102CEAD10520F3E760684FF6FF73ADF807
:10AF3000063050B10DF10601FFF7E4FA0028F1D018
:10AF4000BDF8063010332B80E1E70E20E0E710203B
:10AF5000DEE700BF5C3400206834002007B50DF147
:10AF60000601FEF7C1FF20B1BDF8060003B05DF891
:10AF700004FB4FF6FF70F9E708B1FFF73DB84FF655
:10AF8000FF70704707B50DF10601FEF7D7FF20B13E
:10AF9000BDF8060003B05DF804FB4FF6FF70F9E75B
:10AFA00008B1FFF721BB4FF6FF70704738B5044674
:10AFB0000D4669B107280DD801460748FEF76EFF18
:10AFC00040B12A206043054B1B5A2B80002038BD1E
:10AFD0000E20FCE70520FAE7A8340020AC3400205E
:10AFE000082870B504460E463CD8002938D00828F9
:10AFF00021D001461C48FEF751FF002832D01B4DDE
:10B000002A2303FB04535B88032B02D9784606F0FE
:10B01000C3FC2A2303FB045315485988FEF73EFF5F
:10B0200010B9784606F0B8FC2A2303FB0454638861
:10B030003380002070BD0F4B1B68DB0712D50E4C10
:10B040006388032B02D9784606F0A6FC618808487D
:10B05000FEF724FF0028EAD1784606F09DFCE6E7DB
:10B060000E20E7E70520E5E7A8340020AC340020F7
:10B0700094360020FC35002000360020F0B507464D
:10B08000C7B015460E46002970D0002A6ED0B0F524
:10B09000805F6DD21146FEF727FF2A88044670B103
:10B0A0003648AC2303FB020031461022023011F077
:10B0B0002FFE00280CBF03200F2047B0F0BD4FF635
:10B0C000FF739A4256D031463846FFF7D5F82C4ADE
:10B0D00029884FF44050FFF701FB284B2988AC2208
:10B0E00002FB013138468C3109F0EFFC254B186822
:10B0F00010F48020E1D0244B1B68062B3CDD234B51
:10B100001A68204605AC335C190903F00F03515C43
:10B1100004F81010D15C04EB400301301028597082
:10B12000F1D100232F211A4884F8203011F0DAFEE3
:10B1300098B12F21164811F0D5FE411C154B164A27
:10B14000D3F804350192154A0092072002944FF477
:10B1500013620BF0CDFC0020AFE75C210C4811F02E
:10B16000C1FE08B15C21E5E70949E7E70E20A4E745
:10B170000720A2E70420A0E720469EE7983600209B
:10B1800094360020282E0020242E00202C2E002073
:10B1900054D30300001001407ED30300F6D0030017
:10B1A000032838B504460D460DD801460748FEF77A
:10B1B00075FE40B1064BAC2202FB0434002094F82B
:10B1C00064302B7038BD0520FCE700BF94360020AA
:10B1D000983600202DE9F0410646884600294CD0DB
:10B1E00003284CD801462748FEF758FE002846D0D1
:10B1F000254BAC2474431A191D4692F8642062B1A1
:10B20000012A07D104F1120010224146184411F01E
:10B210007FFD00B10820BDE8F08104F112071F4452
:10B2200041461022384611F082FD04F143012944C1
:10B2300040460BF052FB10B1784606F0ADFB04F12E
:10B240009401294438460BF059FB10B1784606F0BA
:10B25000A3FBAC237343E918012281F8642004F1B5
:10B26000A401E85A294409F047F84FF44050054A30
:10B270003146FFF733FA0020CDE70E20CBE705205B
:10B28000C9E700BF9436002098360020032810B587
:10B2900004461DD801461048FEF700FEC0B10F4815
:10B2A000AC236343C11891F86420012A12D1022211
:10B2B00081F8642003F1A4010144C05A09F01CF88C
:10B2C0004FF44050044A2146FFF708FA002010BD11
:10B2D0000520FCE70820FAE7943600209836002085
:10B2E00003282DE9F843074660D801463148FEF7A8
:10B2F000D5FD00285AD0304DAC247C4305EB040822
:10B3000098F86430002B53D004F11201A01C1022D5
:10B310002944284411F00BFD04F1430104F12200FB
:10B3200021222944284411F002FD04F1940104F182
:10B330007C0018222944284411F0F9FC002604F16D
:10B340008C0188F864603246285BDFF878802944F5
:10B3500008F0D2FF3446194EA8F1130921463046B1
:10B36000FEF79CFDB0B12A20154D604305446B8863
:10B37000BB420FD1AB7D6BB108EB000112224844F8
:10B3800011F0D5FC0023AB753246A1B24FF48040DA
:10B39000FFF7A4F90134082CE0D14FF44050054ADE
:10B3A0003946FFF79BF90020BDE8F8830520FBE74D
:10B3B0000820F9E79436002098360020A8340020B1
:10B3C000AC340020C334002070B50378042B02D0C5
:10B3D000142B20D070BDD0E90146457E2046FFF7F2
:10B3E000EBF84FF6FF729042F4D02034A642F1D130
:10B3F0000D4AAC2101FB002393F864302DB1012BE1
:10B40000E8D1BDE87040FFF741BF002BE2D0BDE8B6
:10B410007040FFF765BFC388012B01BF034A137853
:10B4200043F002031370D5E79836002090360020D1
:10B430002DE9F0470D46064600B3F9B10024DFF8C8
:10B440004480DFF844900F680C604FF0AC0A21464E
:10B450004046FEF723FD58B12B689F4210D00AFBEF
:10B4600004F232F8092026F813202B6801332B60F0
:10B470000134042CEBD10020BDE8F0870E20FBE75F
:10B480000920F9E794360020983600202DE9F04F86
:10B490008246C9B0884699461746002A00F0868041
:10B4A000002B00F0838009F0C7F9012883467FD183
:10B4B000B8F1030F7ED841464248FEF7EFFC002862
:10B4C00078D00DF11A015046FFF700FA0446002823
:10B4D00072D1BDF81A504FF6FF739D426ED0083DF1
:10B4E0001626394B05936E43B01D10223946184479
:10B4F00011F01DFC059B354823F806A09A19294632
:10B50000547182F804B0A2F80280FEF7D4FCBDF8B2
:10B510001A102E4A08394FF4A04089B2FFF7DEF81E
:10B52000BDF81A30A9F80030294B186810F48020B3
:10B5300030D0284B1B68062B42DD274B1A6820466B
:10B5400007AC3B5C190903F00F03515C04F81010C1
:10B55000D15C04EB4003013010285970F1D1002375
:10B560002F211E4884F8203011F0BCFCA8B12F21F7
:10B570001A4811F0B7FC411C194B1A4AD3F804358C
:10B580000192194A0092072002944FF423620BF0B3
:10B59000AFFA002049B0BDE8F08F5C210F4811F0F0
:10B5A000A1FC08B15C21E3E70C49E5E70E20F1E7D7
:10B5B0001020EFE70520EDE70F20EBE70420E9E797
:10B5C0002046E7E79436002000360020FC350020B6
:10B5D000282E0020242E00202C2E002054D30300DF
:10B5E0000010014047D30300F6D003002DE9F041DD
:10B5F0000746C6B088461E461546002A71D0002B65
:10B600006FD003296FD83C48FEF748FC00286AD069
:10B61000B7F5805F69D231463846FEF78FFC338834
:10B62000044678B135482A2202FB0300294610223D
:10B63000063011F06DFB00280CBF03200F2046B030
:10B64000BDE8F0814FF6FF72934250D02A46414642
:10B650003846FEF777FE4FF48040294A3188FFF7DD
:10B660003DF8284B186810F48020E8D0264B1B6862
:10B67000062B3EDD254B1A68204605AC2B5C1909CC
:10B6800003F00F03515C04F81010D15C04EB40038D
:10B69000013010285970F1D100232F211C4884F863
:10B6A000203011F01FFC98B12F21194811F01AFC1D
:10B6B000411C184B184AD3F804350192174A0092DE
:10B6C0000720029440F67F220BF012FA0020B6E722
:10B6D0005C210F4811F006FC08B15C21E5E70C493C
:10B6E000E7E70E20ABE70520A9E70720A7E704203E
:10B6F000A5E72046A3E700BF94360020AC34002025
:10B70000A8340020282E0020242E00202C2E0020DB
:10B7100054D30300001001403AD30300F6D00300D5
:10B72000F8B505460E4600293DD007283DD801460C
:10B730001F48FEF7B3FB002837D01E481E492A24B5
:10B740006C430319AC275A8807FB0212074692F88C
:10B750006420012A09D104F119010844997D31B10D
:10B760001022314611F0D4FA00B10820F8BD9A75C4
:10B770003146102211F0DBFA04F118013944304649
:10B780000BF0A2F810B1784606F006F92A2303FB65
:10B7900005734FF480401A79DA752946044AFEF79A
:10B7A0009DFF0020E2E70E20E0E70520DEE700BF76
:10B7B000A8340020AC34002098360020072810B5AB
:10B7C00004460CD801460748FEF768FB38B14FF431
:10B7D0008040044A2146FEF76FFE002010BD052080
:10B7E000FCE700BFA834002003282DE9F0410546FE
:10B7F0003ED801462048FEF751FB002838D00020F3
:10B80000FFF746F8002404282AD1012C32D01B4E21
:10B810001B4F00244FF02A0821463046FEF73EFB1E
:10B8200058B108FB04735B88AB4206D1A0B2FFF7A6
:10B83000C5FF10B1784606F0AFF80134082CEBD103
:10B84000AC236B430F4AD35A0BB90F4A13704FF412
:10B850004050094A2946FEF72FFE0020BDE8F0813E
:10B860000130032804F10104CFD8FFF711F8CAE72B
:10B870000520F3E70F20F1E794360020A8340020DC
:10B88000AC340020983600207E3600202DE9F84F99
:10B89000064615460F4669B362B303282CD8014605
:10B8A0001748FEF7FBFA38B30024DFF858A0DFF89A
:10B8B0005880D5F800902C604FF02A0B2146504656
:10B8C000FEF7ECFA80B10BFB04F208EB02035B8895
:10B8D000B34209D12B68994510D032F8082027F8D7
:10B8E00013202B6801332B600134082CE6D1002093
:10B8F000BDE8F88F0E20FBE70520F9E70920F7E700
:10B9000094360020A8340020AC34002070B50646E0
:10B910000C461546002A45D0082945D812BF2448B0
:10B9200024480021FEF7BAFA00283DD04FF6FF73F5
:10B930009E4207D1082C17BF1F4A204B2A2303FB26
:10B9400004235E88032E31D831461D48FEF7A6FA3F
:10B9500060B3082C1B4923D0AC2303FB0613164A03
:10B9600093F86430022B08D12A236343D018807DDA
:10B9700018B1173313446B6004E02A2303FB04243B
:10B9800004346C60AC2303FB06F00B1893F86430AE
:10B99000022B0CBF4330223008442860002070BDC9
:10B9A000094BE8E70E20FAE70520F8E70820F6E75C
:10B9B000A8340020FC350020AC34002000360020E4
:10B9C00094360020983600200436002038B50D4605
:10B9D000FFF7C4FA044675B103280ED8014608489B
:10B9E000FEF75CFA48B1074BAC2202FB0434223468
:10B9F0002C60002038BD0E20FCE70520FAE700BFD0
:10BA000094360020983600202DE9F84307469046EA
:10BA10000E4611B9784605F0BFFFB8F1000F02D10C
:10BA2000784605F0B9FF306807F07F0730BB002487
:10BA300000233360C8F800301B4BDFF87090AC2552
:10BA400005FB0435A3B2032B16D821464846FEF762
:10BA500025FA00B395F8643095F8220005F122012B
:10BA6000ABB1874205F1430395F8432016D1BA42A2
:10BA70000FD13160C8F80030BDE8F883FEF7BCFA9A
:10BA80004FF6FF739842D2D0441CA4B2D0E787424D
:10BA900001D1316005E0AC350134D3E79742FAD1EA
:10BAA00033600023E6E700BF98360020943600207C
:10BAB0002DE9F04704468846164612B9784605F047
:10BAC0006BFF14B9784605F067FF2046FFF754FA7C
:10BAD0004FF6FF739842074603D100233360BDE859
:10BAE000F087306800B3FEF77FFD441C1148DFF893
:10BAF00048A02A2505FB040505358146072CECD80E
:10BB000021465046FEF7CAF980B135F8033CBB42E6
:10BB10000CD12B7888EA03039B0607D12A2000FB6F
:10BB2000049404343460DAE70446DFE701342A354C
:10BB3000E4E700BFAC340020A834002038B5044648
:10BB40000D4611B9784605F027FF34B1044B33F8A0
:10BB5000042BA2420CBF1C4600242C6038BD00BF41
:10BB6000003600202DE9F04707469146884611B976
:10BB7000784605F011FFB9F1000F02D1784605F0C3
:10BB80000BFFD8F8000000284CD0FEF715FD441C30
:10BB9000254EDFF89CA0AC2505FB04658C353BE009
:10BBA00021465046FEF77AF9A0B315F8283C4BB968
:10BBB0004FB108222946384611F0AAF8B0FA80F0B1
:10BBC000400901E0CFB9012020B3184B1B78FBB12D
:10BBD000AC236343F35AB3FA83F35B09AC204443C9
:10BBE00032197434264482F87430C8F8006092F830
:10BBF000643089F80030BDE8F087082229463846CD
:10BC000011F086F80028DED0082205F11801D2E7ED
:10BC10000123E3E70134AC35032CC1D90023C8F874
:10BC20000030E8E70446B3E7983600207E3600206F
:10BC3000943600202DE9F74306460C4608F0FCFD3B
:10BC400002285FD0032818D0012801D0002011E07D
:10BC5000484B1B6813F00103F8D0474B1A889642F3
:10BC6000F4D35B8813449E424FF00003EEDA668003
:10BC70002070636003B0BDE8F08300236360A6F525
:10BC80007F43FC3B66802070032B16D801A252F83C
:10BC900023F000BF4DBC02004DBC0200A5BC020059
:10BCA00001BD020001A901200DF075FD10B178461B
:10BCB00005F072FE9DF80400DCE74FF6FF752F4F8C
:10BCC000DFF8C0900024A84645450FD121464846DC
:10BCD000FEF7E4F850B9A5B20134102CF4D10CF001
:10BCE000C5FB4088831B58425841C3E737F82420DE
:10BCF000B2424FEA8403EFD13B44DB78002BEBD018
:10BD00000120B7E76068E8B94FF6FF73ADF804307B
:10BD1000BDF80450DFF87080194F072D4FF6FF7300
:10BD200094BF01350025ADF804304FF01409082DFB
:10BD30008CD029464046FEF7B1F848B9ADF804501A
:10BD40000135F4E701A9FEF7DDFB0028DCD0DFE7D1
:10BD500009FB05F3DA5BB242F2D1FA18D278002A75
:10BD60003FF474AF043302221F4466802270676080
:10BD700080E700BF60340020803600206834002057
:10BD8000483900205C3400206434002038B50C466B
:10BD9000054600B111B9784605F0FEFD024B1A8840
:10BDA0002A805B88238038BD8036002007B5037861
:10BDB000022B0AD0032B01D0012B17D169464088F2
:10BDC000FFF738FF03B05DF804FB69464068FEF7F3
:10BDD00099FB0028F6D0BDF80030054A142101FB7C
:10BDE0000323D878003018BF0120EBE70020E9E7F3
:10BDF0004839002007B501A8FEF78EFFBDF8040002
:10BE0000003018BF012003B05DF804FB2DE9F04FAE
:10BE10000C4689B0814600B111B9784605F0BCFDE9
:10BE20002388152B02D8784605F0B6FD4FF6FF7231
:10BE30004FF42013CDE905230025012305A90A228B
:10BE40004846ADF81C30ADF8065010F070FF0A23DC
:10BE500023800DF10E012846FDF756FD10B17846FE
:10BE600005F09AFD0DF10F010020FDF759FD10B10D
:10BE7000784605F091FD03A90020FDF739FD10B1CA
:10BE8000784605F089FD08AA02230DF1080822F87A
:10BE90001A3D41460020FDF78FFD10B1784605F0B0
:10BEA0007BFD2088042203A9484410F040FF268827
:10BEB0009DF80E300436B6B2268053B10027BDF887
:10BEC00006A03D464FF6FF7B574515D323881D44FA
:10BED00025809DF80F3063B12388BDF806700026D9
:10BEE000994435464FF6FF7ABE421DD323881D4440
:10BEF000258009B0BDE8F08F04A938F81700FDF7D8
:10BF00001BFD10B1784605F047FDBDF810305B45CC
:10BF100008D1A81902220DF11201484410F007FFC0
:10BF20000235ADB20137CFE704A938F81600FDF7A6
:10BF300003FD10B1784605F02FFDBDF810305345D4
:10BF40000FD0022204A909EB050010F0F0FEA81C96
:10BF500002220DF1120119FA80F010F0E8FE04350A
:10BF6000ADB20136C0E70000024B1B6803B11847B1
:10BF7000704700BFE839002013B5044601A8FEF75A
:10BF8000CBFEBDF80400001B18BF4FF0FF3080B29D
:10BF900002B010BD37B504460CF06CFA054600231C
:10BFA00001A80093FEF7B8FE6946288AFFF70EFD48
:10BFB00030B9009B6360BDF80430238003B030BD0E
:10BFC0000520FBE71FB50193BDF81830ADF8083028
:10BFD0000023ADF800208DF80A304FF6FF720223DF
:10BFE000ADF802208DF80B306A46079B0393FDF7EE
:10BFF0005FF905B05DF804FB7FB505460E460020ED
:10C0000003A98DF808000DF0C6FB10B1784605F0C5
:10C01000C3FC9DF80D309DF80820013B0A2104ACBB
:10C0200063F30202BDF80E30B3FBF1F3013B63F39F
:10C03000C70204F8082D08F049FD01230190009380
:10C0400048F22502234631462846FFF7BBFF04B0DD
:10C0500070BD7FB50B89012B06460D4631D14C686A
:10C060008DF804302378C3F3020301338DF80530D3
:10C070002378DA080A2302FB0333142BB8BF1423F6
:10C0800001A90020ADF806300DF074FB10B1784620
:10C0900005F082FC30462946FFF7AEFF0023CDE9CC
:10C0A000023311238DF808302378C3F302038DF88F
:10C0B0000C30237802A8C3F3C4038DF80D30FFF7CA
:10C0C00053FF04B070BD0B890BB9FFF795BF7047E4
:10C0D00037B504460D4608F0F9FC084B1860084BCC
:10C0E00001221A7000230190009348F24A02294667
:10C0F0002046FFF767FF03B030BD00BFF0390020D6
:10C10000EC39002030B50B89032B85B005460C4671
:10C1100018D14B689A78012A14D800228DF80C2087
:10C120001B88ADF80D3002238DF80F3008F0CEFCDF
:10C1300004230190009348F2480203AB21462846AD
:10C14000FFF740FF05B030BD30B585B004460D4661
:10C150008DF80C20ADF80D3008F0B8FC03230190E9
:10C16000009348F2440203AB29462046FFF72AFF1A
:10C1700005B030BD30B585B004460D46002303A997
:10C180000120ADF808300DF006FB10B1784605F03F
:10C1900003FC9DF80C308DF808309DF80D309DF8AB
:10C1A0000920013B63F30202BDF80E308DF809202F
:10C1B000142B15D1D2B212F0070111D161F3C702CD
:10C1C0008DF8092008F082FC02230190009348F2C8
:10C1D000280202AB29462046FFF7F4FE05B030BD29
:10C1E0000A22B3FBF2F39DF80920013B63F3C70277
:10C1F000E6E77FB50B89022B05460E463ED14C681B
:10C200002378012B3AD803F001038DF804306378CA
:10C21000C3F3020301338DF80530637883BB142325
:10C22000ADF80630BDF80630142B38BF142301A931
:10C230000120ADF806300DF09DFA10B1784605F0FA
:10C24000ABFB28463146FFF795FF0023CDE90233CB
:10C2500012238DF8083023785A1E534253418DF82B
:10C260000C306378C3F302038DF80D30637802A8B5
:10C27000C3F3C4038DF80E30FFF776FE04B070BD33
:10C28000DB08013303EB83035B00C9E70B890BB9C0
:10C29000FFF770BF704770B586B00D46ADF80F3030
:10C2A0009DF82C30ADF80D2000218B4204460A98F1
:10C2B0008DF80C1014BF07260926CDF8110008F0E0
:10C2C00005FC03ABCDE9006048F21F022946204679
:10C2D000FFF778FE06B070BD30B587B00446039313
:10C2E00006AB8DF8142033F80C2DADF815209B7893
:10C2F0008DF817300D4608F0E9FB042301900093F8
:10C3000048F2030205AB29462046FFF75BFE07B063
:10C3100030BD2DE9F0430B89022B87B081460C46D6
:10C3200038D14B681F88C7F30B00FEF717FEA38CAC
:10C330008342804631D13B460C2221464846FFF7D6
:10C3400003FF27E036F81500FEF71CFE26F815005F
:10C350000135019BAB42F5D82EE036F81500FDF70C
:10C3600095FB10B1784605F017FB0135019BAB42F8
:10C37000F3D83B46484600222146FFF7E5FE00235E
:10C3800002937360304619238DF80830ADF80C80A5
:10C39000FFF7EAFD07B0BDE8F0834FF6FF73984260
:10C3A00002AEE6D006AA082342F8143D3146FFF754
:10C3B0006DFA05460028CCD04046FFF715FA054631
:10C3C0000028D3D00F28B6D03B460422B5E70000A2
:10C3D000F0B50B89122B85B007460D4625D14E6866
:10C3E0000A88344648F2400334F8020B9A42C0F3FC
:10C3F0000B001CD121460DF10602FEF73FFE18236B
:10C4000004460F2C8DF80830BDF80630ADF80C301E
:10C4100096BF0C4B10221A5D338829463846FFF729
:10C4200093FE14B902A8FFF79FFD05B0F0BDFEF71B
:10C4300095FD2146ADF80600FEF7CCFE1A23044612
:10C44000DFE700BFABD303002DE9F0431F460B88A5
:10C4500047F6E57843449BB2102B87B005460C465F
:10C46000164656D84FF0010909FA03F313F0EF010D
:10C470001BD113F4803060D15B044AD501460522FC
:10C4800003A810F05FFC63688DF80C701A88ADF893
:10C490000D205B88ADF80F3008F018FB05230093E2
:10C4A000019003AB48F22A022FE00922002103A8E1
:10C4B00010F048FC23888DF80C7043449BB2072B86
:10C4C0000AD809FA03F313F00B0F09D113F0040291
:10C4D0002DD113F0E00F1FD1784605F05DFA09E089
:10C4E00063681A88ADF80D205A88ADF80F205B6894
:10C4F000CDF81130002E14BF0726092608F0E6FA01
:10C50000CDE9006003AB48F21F0221462846FFF741
:10C5100059FD07B0BDE8F083636833F8121BADF82E
:10C520000D108DF80F208DF810201B68E0E7636870
:10C5300033F8022BADF80D20F7E7072203A810F01F
:10C5400001FC63688DF80C701A88ADF80D209A888C
:10C55000ADF811205B88ADF80F3008F0B7FA07236B
:10C560000093019003AB48F22C02CEE773B502AA08
:10C57000022322F8063D01A90646FDF76FF80628BA
:10C5800025D010B1784605F007FA0025BDF8022045
:10C59000ABB29A4202D8002002B070BDACB26400C7
:10C5A00002AB2344304633F8041CFDF72BF810B1DE
:10C5B000784605F0F1F902AB1C4434F8040CFEF7A0
:10C5C00053FC10B1784605F0E7F90135DEE70820A5
:10C5D000E2E72DE9F0438DB01C46154606460F46AE
:10C5E000092200210DF1250010F0ACFB00230DF114
:10C5F0000B0120468DF82030ADF82150FDF734F9BD
:10C6000010B1784605F0C8F99DF826309DF80B204A
:10C6100062F304136FF3471305A920468DF8263003
:10C62000FDF78AF910B1784605F0B6F9BDF8145057
:10C63000BDF816304FF6FF7295420DF10E012046FF
:10C640000EBFADF82A30ADF82C30ADF82A50FCF70B
:10C6500057FE10B1784605F09FF9BDF80E004FF671
:10C66000FF73984218D100238DF823308DF82430C1
:10C670004FF6FF739D4214BF0E250C2508F026FAD5
:10C6800008ABCDE9005048F2190239463046FFF7B1
:10C6900099FC0DB0BDE8F08306A9FEF7B7FB10B119
:10C6A000784605F079F9BDF81A30ADF8233004A9C1
:10C6B0002046FDF79DF805288046D4D0002848D1B3
:10C6C0000DF11201BDF81000FEF770FC052881463F
:10C6D00004D18DF823808DF82480C9E70028C7D1C4
:10C6E0009DF812308DF825309DF8133003F00F02BD
:10C6F0009DF8263023F00F0313430DF12701204648
:10C700008DF82630FDF7E0F80122494603A810F025
:10C7100019FB0DF10D0203A92046FCF73FFE9DF821
:10C720000C209DF80D3002A943EA821320468DF8B3
:10C730002830FCF71DFE9DF808209DF82930C2F333
:10C74000020161F30203D20862F3C7038DF82930B6
:10C750008EE7784605F020F98AE7F0B50B89032BC0
:10C7600087B007460C4619D14D6804238DF80C306C
:10C770002B88ADF80D3000238DF80F302888C0F3DA
:10C780000B00FEF7EBFB0DF10B010646FEF708FD73
:10C79000D0B9AB78022B03D0032B32D007B0F0BD59
:10C7A0009DF80B305A1E012AF8D8012B06D13046CD
:10C7B000FEF76CFD10B1784605F0EEF800238DF819
:10C7C0000C3002238DF80F3008F080F9042301901B
:10C7D000009348F2170203AB21463846FFF7F2FBFD
:10C7E0009DF80C30002BD9D1CDE9043308238DF806
:10C7F000103004A89DF80F308DF81430FFF7B4FB0B
:10C80000CCE79DF80B30032BC8D033B13046FEF790
:10C8100067FD10B1784605F0BFF800238DF80C30A5
:10C82000D0E770B50D89012D86B006460C461ED1A5
:10C830004B6818788DF80F00FCF7EEFFB8B90523A8
:10C84000CDE904008DF8103004A89DF80F308DF864
:10C850001430FFF789FB08F039F90DF10F03CDE92A
:10C86000005048F20E0221463046FFF7ABFB06B0FF
:10C8700070BD7FB50E4605460BF0E0FF04AC04F832
:10C88000040D08F023F901230190009348F20B02F4
:10C89000234631462846FFF795FB04B070BD0B894F
:10C8A0000BB9FFF7E6BF704770B50B89092B8CB049
:10C8B00006460D465CD14C682388ADF81C30A37841
:10C8C0002BB1102B56D8013B012202FA03F3089337
:10C8D000E37843B1112B9DBF03F1FF33012202FA2C
:10C8E00003F34FF0FF33099323798DF82830B4F820
:10C8F000053003F00F03ADF82A30B4F80730ADF877
:10C900002C30B4F80700FEF729FB4FF6FF7398426E
:10C9100037D104238DF810302388ADF81130E37837
:10C920008DF81430A3788DF8133023798DF81530F5
:10C93000B4F8053003F00F03ADF81630B4F8073043
:10C94000ADF8183008F0C2F80A23019000930622CF
:10C9500004AB29463046FFF735FB9DF810303BB954
:10C9600014238DF8083002A807AB0393FFF7FCFAF5
:10C970000CB070BDFF2B4FF6FF7318BF4FF0FF33A5
:10C98000A5E707A80BF07AFD00280CBF00230F23B2
:10C99000C0E7000037B50378012B03D00E2B1DD064
:10C9A00003B030BD154B42681B689A42F8D1144C55
:10C9B0002378012BF4D105F081F80AF0E1FD10B9DC
:10C9C00002232370ECE700251C236846CDE90055BF
:10C9D0008DF80030FFF7C8FA2570E1E7084D2B7895
:10C9E000022BDDD100241C236846CDE900448DF8DC
:10C9F0000030FFF7B9FA2C70D2E700BFF039002001
:10CA0000EC39002030B50B89022B85B005460C4669
:10CA100014D14A6800218DF80C101288ADF80D2051
:10CA20008DF80F3008F052F804230190009348F27B
:10CA3000480203AB21462846FFF7C4FA05B030BDD3
:10CA40007FB504AC022304F8043D05460E4608F009
:10CA50003DF801230190009348F214022346314629
:10CA60002846FFF7AFFA04B070BD0A89012A05D144
:10CA70004B681B78012B01D8FFF7E2BF70470B8989
:10CA80000BB9FFF7DDBF70477FB504AC022304F894
:10CA9000043D05460E4608F019F801230190009365
:10CAA00048F21102234631462846FFF78BFA04B0BC
:10CAB00070BD0A89012A05D14B681B78012B01D86A
:10CAC000FFF7E2BF70470B890BB9FFF7DDBF704777
:10CAD00070B50B8988B006460D46FBB908A904233A
