:020000022000DC
:1060000000FD00201DA7030045A7030047A70300CC
:1060100049A703004BA703004DA7030000000000A1
:106020000000000000000000000000004FA7030077
:1060300051A703000000000053A7030055A7030069
:1060400057A7030057A7030057A7030057A703004C
:1060500057A7030057A703001969020057A70300B9
:1060600057A7030057A703008590030057A7030015
:1060700057A7030057A7030057A7030057A703001C
:1060800057A70300559F0300394C030057A703008F
:1060900025A0030057A70300DD6D020057A70300EA
:1060A00057A7030057A7030057A7030057A70300EC
:1060B00057A7030057A703000000000000000000DE
:1060C00057A7030057A7030057A7030057A70300CC
:1060D00057A7030057A7030057A7030000000000BD
:1060E00000000000000000000000000000000000B0
:1060F00000000000000000000000000000000000A0
:10610000000000000000000000000000000000008F
:10611000000000000000000000000000000000007F
:10612000000000000000000000000000000000006F
:10613000000000000000000000000000000000005F
:10614000000000000000000000000000000000004F
:10615000000000000000000000000000000000003F
:10616000000000000000000000000000000000002F
:10617000000000000000000000000000000000001F
:10618000000000000000000000000000000000000F
:1061900000000000000000000000000000000000FF
:1061A00000000000000000000000000000000000EF
:1061B00000000000000000000000000000000000DF
:1061C00000000000000000000000000000000000CF
:1061D00000000000000000000000000000000000BF
:1061E00000000000000000000000000000000000AF
:1061F000000000000000000000000000000000009F
:1062000010B5054C237833B9044B13B10448AFF3F0
:1062100000800123237010BDA82E00200000000084
:10622000F0D5030008B5034B1BB103490348AFF396
:10623000008008BD00000000AC2E0020F0D5030057
:10624000154B002B08BF134B9D46A3F5803A002148
:106250008B460F461348144A121A15F0FFFD0F4BD8
:10626000002B00D098470E4B002B00D09847002001
:10627000002104000D000D48002802D00C48AFF3A7
:10628000008015F09DFD2000290000F009F915F0AF
:1062900083FD00BF0000080000FD0020000000009A
:1062A00000000000A82E0020B055002000000000D3
:1062B0000000000041DF704707B503781C2B2ED18A
:1062C000184B1B685B0416D5174B1B68032B12DD9C
:1062D0002F21164815F092FEC0B12F21134815F05A
:1062E0008DFE411C124B134AD3F804350092042052
:1062F00091220FF00BFC0322C8214FF4F01000F0A4
:10630000ADFA03B05DF804EB0AF01EBC5C2107484F
:1063100015F074FE08B15C21E0E70449E2E703B040
:106320005DF804FB182E0020142E002094C00300FA
:1063300000100140AFC003007FB50378093B04465D
:10634000042B64D8DFE803F081858E030300007915
:10635000022804F105055CD004286CD1B4F81320A0
:10636000B4F809309A425BD1D4F80F20D4F8053044
:106370009A4255D1D4F81530D4F80B2093422CBF53
:1063800000230123002B56D003A902A80AF0ECFB3E
:1063900018B13B4A5C2114F0ECF93A4A029B3A4EA0
:1063A00013443A4A5B08934224BF03F6FF731E402E
:1063B000374B1B683CBF02F6FF7216405B0417D5D3
:1063C000344B1B68032B13DD2F212D4815F016FECF
:1063D00040B32F212A4815F011FE411C2E4B2F4AA5
:1063E000D3F80435009201966D2204200FF08EFB45
:1063F0003246294620790AF039F918B1204A71212C
:1064000014F0B7F900214FF4F01000F01DFA04B0B9
:1064100070BDE27B63799A4202D1237CA279ADE719
:106420000023AFE75C21164815F0E8FD08B15C21B8
:10643000D0E71349D2E729460AF064F90028E6D0EC
:106440000F4A772114F095F9E1E701214FF420205C
:10645000DBE700214FF4F01000F0F6F901214FF4D2
:10646000C020D2E74FF4F010002100F0EDF92079C0
:106470000AF07CF90028CAD0014A8621E2E700BF71
:1064800094C003000060020000F0FFFF18D9030071
:10649000182E0020142E0020001001406EC10300B1
:1064A00000B58DB013F008FF18B1714ABE2114F089
:1064B00060F9704E00F004FA4CF287006E4A042135
:1064C0000FF008FB3368580418D56C4B1B68032B7E
:1064D00014DD2F21664815F091FD002800F09E8004
:1064E0002F21634815F08AFD411C654B654AD3F89E
:1064F000043500920420C2220FF008FB00F0D0FA0D
:106500000021242203A815F0A9FC01238DF80C30EA
:1065100007238DF80F3006238DF814305A495B4B52
:10652000079303A80AF0D6FAE8B10B2840F0888058
:106530003368590417D5514B1B68032B13DD2F21EA
:106540004B4815F05BFD002871D02F21484815F00D
:1065500055FD411C4A4B4E4AD3F8043500920420A5
:10656000AC220FF0D3FA4B484B4B03600DF0A6FA68
:1065700033685A0417D5414B1B68032B13DD2F21B9
:106580003B4815F03BFD00285FD02F21384815F01F
:1065900035FD411C3A4B414AD3F8043500920420A2
:1065A000C8220FF0B3FA384B1B787BB93C4D0FCDA6
:1065B00003AC0FC495E8030084E8030003A800F0CF
:1065C000DDF818B12A4AD92114F0D3F80AF00CFBEF
:1065D00000F0D2F90AF000FA18B1254AE32114F0CC
:1065E000C8F833685B0416D5244B1B68032B12DDF7
:1065F0002F211F4815F002FD80B32F211C4815F0F4
:10660000FDFC411C1E4B274AD3F8043500920420A0
:10661000E5220FF07BFAFFF74DFEFCE75C21144802
:1066200015F0ECFC08B15C215BE711495DE75C21EA
:106630000F4815F0E3FC08B15C2187E70C4989E7B6
:106640000B4AB12114F095F88DE75C21084815F04C
:10665000D5FC08B15C2199E705499BE75C2104481A
:1066600015F0CCFC08B15C21C8E70149CAE700BFBE
:1066700094C00300182E0020A95A0300142E0020F5
:1066800000100140C8C00300C42E0020B9620200FF
:10669000F0C00300C82E0020396302003EC1030091
:1066A0007CC0030058C1030010B50749074807F034
:1066B00033FC024638B90649064809690123BDE89A
:1066C000104007F042BC10BDF02E00200C3200201C
:1066D000D82E0020D830002010B50378023B082BBC
:1066E0002CD8DFE803F01B05102B2B2C2B2B3800AC
:1066F0001E4B5B6813B3007A00B31D4A0121117071
:10670000BDE810401847194B9B68BBB1184A117877
:10671000A1B100211170BDE810401847154B1A783F
:10672000124B42B9DB6813B111490A709847BDE8B2
:106730001040FFF7B9BF1B68002BECD110BD0B4B0D
:106740000D485969102207F045FC0028F6D0BDE835
:10675000104014F001B8D0E902100AF03FF908B176
:1067600013F0FAFF034B01221A70E7E7D82E00203E
:10677000D42E0020D52E0020D830002070B5164A27
:10678000164E5168044686B0106803AB03C31189E6
:10679000927A19809A700FCC35460FC594E80300A1
:1067A00085E803007369A3B10D4B00930D4A0E49B0
:1067B0000E4803AB07F082FB48B90D4808F0B0FF64
:1067C00001460A4807F094FB08B9FFF76DFF06B0D1
:1067D00070BD0720FBE700BFBEC10300D82E00201C
:1067E000D9660200F02E00200C320020D8300020A4
:1067F000102F002070B5104C206808B913F0ACFFC2
:106800004FF0A0450D4ED5F8043532685340C5F819
:1068100004352368013B236063B9094813F000FE87
:106820003268D5F8043523EA0203064A1268134396
:10683000C5F8043570BD00BF4C3200205032002036
:10684000543200207C3200204FF0A04311B1C3F835
:106850000C057047C3F8080570470000F8B52AB367
:10686000132923D9124B134D5200013A4FF0A04483
:106870001A602860D4F8043518400F4B4FF4FA76AC
:10688000186000274FF40040E0FB01674FF47A7274
:1068900000233046394615F0FFF80022014607482C
:1068A00013F076FD10B92B68C4F80C35F8BD00BFA5
:1068B0004C320020503200207C3200205432002024
:1068C00008B54FF0A04303224FF40031C3F844272A
:1068D000C3F808154FF48021C3F84827C3F80815FA
:1068E0004FF40021C3F84C27C3F80815C3F850270C
:1068F0004FF48012C3F808250121054A054813F01A
:1069000035FD18B1BDE8084013F026BF08BD00BF33
:10691000F5670200CCC10300124B70B50024124E83
:10692000124DC3F87C414FF0A043A15DD3F8102570
:1069300001238B40934311D00D49D5F804250B68F2
:10694000981A48BFD01A43F23333984206D9D5F883
:1069500004350B60074B20461B6898470134042C14
:10696000E1D170BD00600040D0C1030000100140C3
:10697000783200207432002070B50446CEB0002872
:1069800064D03C4D2A6852042FD53B4B1B68032B27
:106990002BDD3A4B0DAE19680023E25C100902F0C2
:1069A0000F02085C06F81300885C06EB4302013313
:1069B000102B5070F1D100232F21314886F8203060
:1069C00015F01CFB002843D02F212D4815F016FB95
:1069D000411C2C4B2C4AD3F8043501922B4A0092CF
:1069E0000296412204200FF091F82B685B042DD50C
:1069F000214B1B68032B29DD2F21214815F0FEFABE
:106A000000282ED02F211E4815F0F8FA411C1D4BEE
:106A1000E27BD3F804350B92A27B0A92627B099247
:106A2000227B0892E27A0792A27A0692627A059213
:106A3000227A0492E2880392A2880292226801924A
:106A4000134A0092042046220FF060F84EB070BD49
:106A50005C210B4815F0D2FA08B15C21B5E7084972
:106A6000B7E75C21064815F0C9FA08B15C21CAE70E
:106A70000349CCE7182E0020142E00201C2E0020E5
:106A8000D4C1030000100140FCC103000EC203008A
:106A900016C2030060DF704769DF70470DF010B861
:106AA00010B588B000F04AF908B113F055FE2B4B31
:106AB0000393039B04930C22002105A815F0CEF943
:106AC0000023049A8DF8143005A90120FFF7E4FF94
:106AD00008B113F041FE0C22002105A815F0BEF903
:106AE000F823049A059305A9A120FFF7D5FF08B163
:106AF00013F032FE04A8FFF7CDFF039B049A9A42DD
:106B000004461CD0164B1B685B0418D5154B1B683C
:106B1000012B14DD2F21144815F070FAA8B12F2194
:106B2000114815F06BFA411C104B049AD3F8043548
:106B300001920F4A00920220A2220EF0E7FF14B148
:106B4000204613F009FE08B010BD5C21064815F080
:106B500055FA08B15C21E3E70349E5E7F02D002091
:106B6000182E0020142E002056C2030000100140F1
:106B700086C2030070B5EFF3108672B60C4A9468B3
:106B800001239CB993600B4B0B4DD3F88010294027
:106B90001160C3F88050D3F8841051604FF0FF3279
:106BA000C3F88420047006B962B670BD0370FAE7BA
:106BB0000055002000E100E0FC06FFBD10B5084BC9
:106BC0009A685AB150B9EFF3108172B6054A1C6841
:106BD00014605C685460986001B962B610BD00BF73
:106BE0000055002000E100E001600B6843604A6846
:106BF000934204BF002343607047436843B1026877
:106C000091680B4443605268934204BF0023436081
:106C100070474BDF704700001FB50D4C01A8FFF710
:106C2000F8FF70B9214602A8FFF7DEFF039B002B97
:106C3000F4D00198D3E90021904702A8FFF7DDFFC7
:106C4000F4E7052801D013F087FD04B010BD00BFA4
:106C5000C0C2030061DF704730B5114B1B7891B0A3
:106C6000E3B1104D34240DF1020103A8ADF8024048
:106C7000FFF7F0FF70B9294601A8FFF7B5FF029BA7
:106C8000002BF0D003A8D3E90021904701A8FFF71B
:106C9000B4FFF4E7052801D013F05EFD11B030BD5C
:106CA00080320020CCC2030010DF704713B50446C9
:106CB00009496846FFF798FF019808B902B010BD6E
:106CC000D0E900312046984718B16846FFF795FF94
:106CD000F2E71120F2E700BFDCC2030013B504465F
:106CE00007496846FFF780FF019B0BB902B010BD52
:106CF0002046D3E9002190476846FFF77EFFF3E77F
:106D0000F4C203000B4991F816335A09EC231341DE
:106D1000DB0706D5084B9A683AB94FF480030B603D
:106D2000704742F2020013F017BD1A6842F4800265
:106D30001A60704700E100E000550020F7B5184FD9
:106D40003C785CBB174E012520463570FFF7AEFF3F
:106D5000112820D02046FFF7C1FF134B186801907F
:106D600002A800F8054DFFF705FF104901A8FFF73D
:106D70009BFF0446B0FA80F0400938709DF803008C
:106D8000FFF71CFF3CB90A4B34701C70FFF7BAFFC9
:106D90002846FFF7A3FF204603B0F0BD0824FAE71A
:106DA0008232002081320020D8C2030099070300FC
:106DB0008332002007B508496846FFF715FF019B9D
:106DC00013B903B05DF804FBD3E90020904768468F
:106DD000FFF713FFF3E700BFE8C20300FFF7EABFC6
:106DE00038B5837803F003020446032A22D8DFE88B
:106DF00002F00214191D9B08154A16481268134424
:106E00000268A3600021EAB195685D1B002D16DAC7
:106E1000D1B91146E160046038BD9B0803EB8303E0
:106E20005B00E9E79B0864225343E5E79B0841F2D6
:106E30007072F9E7784609F0AFFD0023DCE71146F0
:106E4000D268E0E70029E5D0CC60E260E4E700BF6B
:106E50009C320020A432002008B5032809D8DFE8BE
:106E600000F00D020406064808BD0648FCE7064887
:106E7000FAE7784609F090FD0020F5E70348F3E7CC
:106E800040420F00809698000046C323A086010070
:106E90002DE9F041574D2B78A3B1574B574E5C6805
:106EA0000DF072F8241A3078FFF7D6FF3278544B81
:106EB000001B002A40D14CF2503290423CD91A6853
:106EC00001321A60DFF84881D8F80020002A00F06B
:106ED00087804A4E9378307803F003038342344628
:106EE00064DD474B97681B68FB1A464F5F43FFF70B
:106EF000B3FFD8F80030B7FBF0F09F78C7F3010775
:106F0000FBB2022B1FD031D8012B47D10A22B0FB94
:106F1000F2F302FB1300002840D10DF035F800F524
:106F2000742101F5107137702B78002B50D0324846
:106F3000BDE8F0410CF0FFBF1A683249B0FBF1F038
:106F400010441860BEE7337863B96422B0FBF2F3F3
:106F500002FB130010BB0DF017F82B49022301446C
:106F60002370E1E7012B19D10A22EFE7337863B9E7
:106F700041F27072B0FBF2F302FB130070B90DF036
:106F800003F8224903230144EAE7012B02D14FF41D
:106F90001672EFE7022B01D13C22EBE70CF0F4FF75
:106FA00006462078FFF758FF3118BDE70CF0ECFFDC
:106FB000D8F800300446987800F00300FFF74CFF43
:106FC000D8F800309B78C3F3010321183370ABE786
:106FD0000948012341602B70BDE8F0410CF072BFFD
:106FE0002B7823B10448BDE8F0410CF08DBFBDE81B
:106FF000F08100BFA032002084320020A1320020A6
:107000009C320020A0860100809698000046C32391
:10701000A43200202DE9F341244B1B78032B2AD8FE
:10702000DFE803F0021B1F23214A136801331360BA
:10703000204B214E1E4D00221A70B04634683CB1E0
:10704000A3682A6893421AD02A689B1A002B16DB81
:10705000FFF71EFF02B0BDE8F081154A13680A333E
:10706000E5E7134A13686433E1E7114A136803F54F
:10707000BB531033DBE7784609F08EFCD8E727884E
:10708000E368C8F8003002A9002341F8043D3846FF
:1070900001F0BEFC10B1784609F07EFC384663680A
:1070A000019998472046FFF79BFEC7E7A1320020D1
:1070B0009C320020A0320020A432002010B5084CE1
:1070C00018220021204614F0C9FE064B064AA36090
:1070D00000231360054A1360054A137010BD00BFFA
:1070E00084320020157002009C320020A43200205F
:1070F000A0320020F8B50F461646044610B978466F
:1071000009F04AFC124D0DF033FC2B6800220BB144
:10711000A34216D1A17867F3010166F38701A1703C
:107120009BB1DB6882B92B602EB12046FFF758FE79
:107130002B689C4201D1FFF7ABFEBDE8F8400DF093
:1071400057BC1A46DB68E2E7D360002EF5D0ECE7C7
:10715000A43200200A4B93F8390093F85D2080F0A8
:107160000100404280B24AB14FF6FF72904204D013
:10717000586D1B6BC01AC00F70470120704700BFCD
:10718000A832002038B5154C242303FB00430546E4
:1071900093F8393013B9784609F0FEFBB4F8603043
:1071A00013B9784609F0F8FB242202FB05430021BD
:1071B00083F83910B4F86030013B9BB2A4F860301A
:1071C0001BB94FF6FF73A4F8623002FB0544A06AB6
:1071D00011F045FB0023A36238BD00BFA832002098
:1071E0002DE9F84F2C4DB5F86030064613B97846B6
:1071F00009F0D2FB294C06F57A7B00274FF00109F4
:1072000048F2111A637C1FFA87F8C3B1A368A3EB95
:107210000B03002B13DAA3882268A4F11001404667
:1072200000F0D6FE102827D809FA00F313EA0A0F57
:1072300025D11B4A13421ED04046FFF7A3FF24343A
:10724000BFB1FFF787FFB5F86030A5F862000BB358
:10725000012802D9784609F09FFBB5F86230242254
:1072600002FB03531B6B9A1B48BFF21AEA60BDE88E
:10727000F88F0127C6E710B1784609F08DFB237C13
:10728000013BDBB22374002BD6D0D4E90232134485
:10729000A360D4E7EB60EAE7A8320020D0320020F8
:1072A000A002010010B5064C64220021204614F013
:1072B000D5FD044BA3604FF6FF73A4F8623010BDF8
:1072C000A8320020E17102002DE9F04701280646AE
:1072D000884617469A46BDF8209002D9784609F0AC
:1072E0005BFBB8F1000F02D1784609F055FB17B9E6
:1072F000784609F051FB98F800305B0702D17846D8
:1073000009F04AFBBAF1000F02D1784609F044FBBC
:10731000B9F1000F02D1784609F03EFB274C242337
:1073200003FB064393F8393013B13046FFF72AFFC9
:107330000CF02AFE844697E80F00242505FB06453D
:1073400005F1180E8EE80F00C5F828A0A5F82C90BE
:1073500098F80030C3F3020385F8383098F800003D
:10736000C3084CF2503003FB0000012385F839308C
:10737000B4F860306863604401332863A4F8603077
:10738000FFF7E8FEB4F86230834201D19E4213D188
:107390004FF6FF739842A4F8620002D1784609F0D4
:1073A000FBFAB4F862300548242202FB0344216B47
:1073B000BDE8F0470CF0BFBDBDE8F087A832002063
:1073C0004A09012301F01F0103FA01F150F82230AC
:1073D000194214BF0120002070474FF6FF72B2EB34
:1073E000104F82B083B215D113F47F4007D003F45D
:1073F0004043B3F5004F14BF0020012006E023F006
:107400007F022AB97F3B18BF0123184602B070479C
:107410000346FAE723F03F03C02BECE701289FBFA8
:10742000054B382202FB003090F8340094BF00F086
:1074300001000020704700BF50330020C0F30F430D
:10744000A3F540539BB2012B13B512D80B4A107809
:1074500010F004000FD10A4A096802EBC304C943C3
:10746000616012F8331021F0060102F8331002B007
:1074700010BD0520FBE70020F9E700BFC233002064
:10748000C433002013B50190000C01280C4602D033
:10749000784609F081FA012363800223A3802380C8
:1074A00002B010BD37B5C0F30F44A4F54054A4B2E8
:1074B000012C01900D4602D9784609F06DFA044876
:1074C00000EBC4046368DB432B6003B030BD00BF36
:1074D000C433002070B51C460B89B3F5BE7F05464A
:1074E000164606D3092323602068B0FA80F04009CD
:1074F00070BDFFF793FF28B10C48382303FB05004C
:1075000083890BB10523EEE73EB982884FF6FF73FE
:107510009A4206D0C2889A4203D00868FFF75DFFFE
:1075200008B90723DFE70023DDE700BF5033002061
:1075300037B5040CB4F5805F01900D4602D0784653
:1075400009F02AFA064BA4F58054A4B206210222BF
:1075500001FB0431284603B0BDE8304014F073BC91
:107560003A33002037B5C0F30F44A4F50054A4B259
:10757000012C01900D4602D9784609F00DFA054B11
:107580003821142201FB0431284603B0BDE8304005
:1075900014F059BC5033002037B5C0F30F44A4F5A4
:1075A0000054A4B2012C019014D80C4B187810F0A0
:1075B00004050DD10A48382303FB04041422204695
:1075C00014F041FC94F8343023F0060384F834308E
:1075D000002000E0052003B030BD00BFC233002012
:1075E0005033002010B50E4C70220021204614F0BC
:1075F00035FC062200210B4814F030FC102200213B
:10760000094814F02BFC4FF0FF31084A6160012358
:10761000E260A384E1636264A4F85C3010BD00BF43
:10762000503300203A330020C4330020FFFF020013
:107630002DE9F04FD5B0044607A80F4604929946AD
:10764000BDF8786102F068FB6F4BBDF81E10049A1C
:10765000382000FB0430B0F80C80414505D84FF0CD
:10766000100A504655B0BDE8F08FBDF81C100491CB
:1076700008AD002A00F0938002F10C0103C9B2F8B2
:107680001EB0B2F824A0127F85E80300002A00F0A3
:107690009680382202FB0434647CFF2C01D15B4BC2
:1076A0001C78B9F1000F02D1784609F075F916B9C6
:1076B000784609F071F90AAB184624220021059397
:1076C00014F0CCFB504610AA594603F01FF9059B55
:1076D00082460028C5D1049A9C7295E80300904424
:1076E000BA7ADA72FA7A1A7383E80300FA68A3F8AE
:1076F000088051461846C3F810909E821A620CF01A
:10770000DBF982460028ACD1414C226892041AD59C
:10771000404B1B68042B16DD2F213F4814F06EFCF4
:1077200000284ED02F213C4814F068FC411C3B4BF4
:107730003A88D3F804350192394A0092052040F284
:10774000A9120EF0E3F923689B048AD5314B1B681C
:10775000042B86DD334B802E196828BF802600233A
:1077600013ACB34236D100222F212B4804F813204A
:1077700014F044FC00283BD02F21274814F03EFC95
:10778000411C264B284AD3F804350192274A00921F
:1077900002944FF4D57205200EF0B8F961E7B0F805
:1077A00004B0C0880593294602F030FB48BB6A88C4
:1077B000002A3FF454AF4FF6FF7A059B69E7144661
:1077C0006FE75C21144814F019FC08B15C21AAE7AA
:1077D0001149ACE719F80320100902F00F02085C08
:1077E00004F81300885C04EB430201335070B8E7DF
:1077F0005C21094814F002FC08B15C21BDE7064990
:10780000BFE74FF0050A2CE750330020F02D002091
:10781000182E0020142E0020A0C3030000100140E9
:10782000BCC303001C2E0020D0C303000EC2030003
:1078300013B50190000C01280C4602D0784609F0DF
:10784000ABF86388012B0DD1A388022B0AD12388C2
:10785000022B07D1044A137843F001031370002070
:1078600002B010BD0B20FBE7C233002037B50190FA
:10787000000CB0F5805F0FD1094B187810F00404AC
:1078800008D1084D0222284614F0DDFA6B7923F066
:1078900006036B71002000E0052003B030BD00BF7F
:1078A000C23300203A33002007B5104B1B785B072A
:1078B00009D40F4A12F8303043F0040302F8303094
:1078C00003B05DF804FB00F540500223ADF804302E
:1078D000ADF80600019810F099FA0028F0D078462B
:1078E00003B05DF804EB09F057B800BFC2330020C5
:1078F000C433002007B5124B1B7813F0040F114B53
:1079000008D113F8302042F0020203F8302003B00F
:107910005DF804FB03EBC003022200F540505B68F6
:10792000ADF80420ADF80600DB43694601980093EA
:1079300010F00EFA0028EAD0784609F02DF8E6E7B4
:10794000C2330020C433002007B5134B13491B7802
:1079500013F0040F0BD1382303FB001090F83430E0
:1079600043F0020380F8343003B05DF804FB0223D7
:10797000ADF8043000F50053ADF80630382303FBB2
:107980000011019810F0E4F90028EDD0784603B01A
:107990005DF804EB09F000B8C2330020503300203A
:1079A00007B50C4B1B785B0707D40B4A537943F0A0
:1079B0000203537103B05DF804FB0749074810F058
:1079C000C7F90028F6D0784603B05DF804EB08F05C
:1079D000E3BF00BFC23300203A3300200200001092
:1079E0004A0901F01F034FF0FF31994050F822304F
:1079F000194009D04B420B4004495943C90E044B6E
:107A0000585C00EB421070471820704731B57C0776
:107A100080C303002DE9F04F85B081469246984619
:107A20000E9F0D4611B9784608F0B6FF03AB5246DB
:107A300029464846FFF74EFD18B9039805B0BDE842
:107A4000F08F69882B884FF6FF72914230D1B3F5E1
:107A5000807F34BF4FF0010B4FF0020B2E895E4444
:107A6000B6B2304610F0F9FE044680B36A882B881F
:107A70004FF6FF708242D9B21DD06270120A217097
:107A8000A2702A89696804EB0B0014F0DCF90096F7
:107A90002346524629464846FFF7CAFD039018B9C7
:107AA000B8F1000F00D077B9204610F0D8FEC4E737
:107AB0004FF0030BD2E713F47F4F1DBF1B0A237057
:107AC00061702170DDE7C8F800403E80B6E7042011
:107AD000B4E700002DE9F04F504E337813F0020761
:107AE00085B003D00B2005B0BDE8F08F13F0010F77
:107AF0004B4C18D0A0464FF6FF79BB46B8F80C3077
:107B00004B450CD0B8F8060048455ED1B8F80E5089
:107B1000022D5FD1382303FB074383F812B008F12D
:107B20003808002F4FD033783E4D43F004033370B4
:107B30002B7813F0040064D1990701D5FFF7DAFE22
:107B40002B7823F006032B702B7A5A075DD5012082
:107B5000FFF7AAFE2B7A23F006032B72324D6B79C6
:107B6000980701D5FFF71CFF6B7923F002036B71B7
:107B700094F83430990702D50020FFF7E5FE94F819
:107B8000343023F0020384F8343094F86C309A07D0
:107B900002D50120FFF7D8FE94F86C3023F00203E1
:107BA00084F86C303378DB0735D420480290022308
:107BB00002A9ADF80C3010F0CBF810B1784608F0FF
:107BC000EBFE05208FE7012798E702F0B9F80028BF
:107BD0009CD087E7134B03EBC505043500212846ED
:107BE000FFF7FEFE1828824694D01FFA8AF002F0B2
:107BF000F1F800287FF476AF0AF101011729EED9D8
:107C000088E70020FFF750FE9AE79F07A2D50120E2
:107C1000FFF770FE9EE7002065E700BFC23300203B
:107C200050330020C43300203A330020020001000A
:107C30002DE9F04F00F114048FB00546204603F003
:107C4000B5F88146002876D04FF6FF73ADF8323094
:107C50002B7D012B72D10DA802F05EF8EB8ABDF8E6
:107C600034209B1A9BB209934E46554C4FF0000AA4
:107C7000002E7CD0A788099BFA1A5742574194F8E6
:107C80002C30E98B03F0010320460A93FFF798FBA1
:107C900029880B90A28C68884FF00008904576D315
:107CA0004FF00008C346474B1B689B0425D5464B45
:107CB0001B68062B21DD2F21444814F09FF9002872
:107CC00075D02F21414814F099F9411C0B9A404B73
:107CD000D3F80435CDF818B0CDE904720A9A0392AE
:107CE00034F8062C029234F8082C0192394A00929A
:107CF000072040F21C420DF009FF0A9BBBB1B7B14F
:107D00000B9BA3B1BBF1000F11D02B7D012B1FFAF0
:107D10008AF704D1A26A2946384601F001F8236A9D
:107D2000A26A03EBC80329465B6838469847383493
:107D3000BAF1000F18D00FB0BDE8F08FEB8A043312
:107D40009BB2032B0AD90DF13201204602F0BAF89A
:107D500040B1784608F020FE002686E7002306465C
:107D6000099382E7064680E74FF0010A80E7E08842
:107D700001280AD8184BBDF8321003EBC0000430BC
:107D8000FFF71EFB00F0010779E73046FAE7236AA8
:107D900003EBC80C33F838308B4203D1BCF8023007
:107DA000834202D008F1010878E7CB467BE75C21EB
:107DB000064814F023F908B15C2183E7034985E7FD
:107DC00058330020182E0020142E0020A0C30300DA
:107DD0000010014010C30300C43300202DE9F0431C
:107DE00003681D7805F0C002402AD1B004460FD0C8
:107DF00003D86AB10026354610E0802A00F09D8045
:107E0000C02AF7D19A785E78ADB246EA022605E03C
:107E1000ADB27F2D00F08E804FF6FF765A4B1A6878
:107E200012F4005F984619D0584B1B68042B15DDDF
:107E30002F21574814F0E2F8002800F082802F210B
:107E4000534814F0DBF8411C524B534AD3F8043525
:107E500000920195FD2205200DF058FEE06902F028
:107E60009FF88146A06902F087F84FF6FF739E42A3
:107E7000ADF81450ADF8166027686BD1FF2D8CBF9C
:107E8000022301234FF6FF721F4496420697A388F0
:107E900062D1FF2D8CBF022201229B1A227A8DF81B
:107EA00020206289ADF82220E2680992227C8DF8B8
:107EB0002820628AADF82A2062690B9294F820206B
:107EC0008DF83020626A0D92D8F80020ADF832901B
:107ED0009BB29204ADF81C30ADF8380027D52B4A80
:107EE0001268042A23DD2D4A802B106828BF8023C6
:107EF00000220FAC9A4231D100232F21244804F8EC
:107F0000123014F07BF8002835D02F21204814F0CF
:107F100075F8411C1F4B224AD3F804350192214ABF
:107F2000009202944FF48A7205200DF0EFFD05A82F
:107F3000FFF77EFE51B0BDE8F0835B7843EA05258C
:107F40006AE75C21124814F059F808B15C2177E720
:107F50000F4979E7032395E703229EE7B95C0D09F2
:107F600001F00F01455D04F81250455C04EB42013D
:107F700001324D70BEE75C21054814F03FF808B1AE
:107F80005C21C3E70249C5E7182E0020142E00200B
:107F9000A0C303000010014065C303001C2E002095
:107FA00078C303000EC20300037813B1142B03D06F
:107FB00070470430FFF712BFC388022B01BF034A8A
:107FC000137843F002031370704700BFC2330020E0
:107FD000F0B5064685B014461D4681B17AB173B13D
:107FE00003AB0022FFF776FA10B9039805B0F0BD95
:107FF0000095234600223046FFF71AFBF6E70E20D5
:10800000F4E7000007B5FFF7EDFA00F0CBFE174AE2
:10801000137803F0FC036FF382031370144B18689A
:108020000FF0F4FE134801900FF0F0FE43F201034D
:10803000ADF8063001980FF0E9FE4FF48053ADF82B
:10804000063001980FF0E2FE4FF40053ADF8063011
:1080500001980FF0DBFE42F20103ADF80630019803
:1080600003B05DF804EB0FF0D1BE00BFC2330020B7
:1080700000C303000200003008B5FFF7B3FA094857
:10808000094B03600BF01AFD00F07EFEFFF716F8B7
:10809000FFF708F9054A137803F0FC036FF3820336
:1080A000137008BD44330020A97F0200C2330020B2
:1080B0002DE9F0410D460446002800F0BE8000295D
:1080C00000F0BB80C3681BB18368002B00F0B58053
:1080D0004FF6FF732B80E3681BB9A368002B40F0B9
:1080E000AE80A388002B40F0AC8002F083FE10B17C
:1080F0000F20BDE8F081564BA788062202FB07320D
:108100009178D278D14219466AD1D4E90287002603
:10811000B74240F08B802A884E4E4FF6FF739A424A
:1081200043D196F8343013F0010305D096F86C3043
:10813000DB0700F18A80012338222B8002FB0363D6
:108140004FF6FF70D8802B8802FB036398802B8842
:10815000A78802FB03639F812B88678802FB036368
:108160005F802B8827885343F7522B8802FB0362DA
:1081700050742288A38882424FF0060202FB031348
:108180000BBF9A78DA78013201320CBF9A70DA703C
:108190002B88382202FB036393F8342042F001025B
:1081A00083F834202888FFF7CFFB2B8821693822F9
:1081B00002FB0363002019632B88A16802FB0363A1
:1081C00099622B88E16802FB036399852B886169BA
:1081D00002FB036399612B8802FB0366B38288E785
:1081E0001C4B2288B3F80CC06688BC4507D1B3F895
:1081F00002C0B44503D1B3F800C094450CD0B3F825
:108200004400B84281D1588FB0427FF47EAF188FBE
:1082100090427FF47AAF01203822288002FB0030A0
:1082200090F83430DA077FF570AF61E758F8360020
:10823000FFF7D3F838B101366AE70E2059E7092075
:1082400057E7052055E7072053E7042051E700BF13
:108250003A330020503300207FB505460E4619B34F
:108260000DF10A030022009303ABADF80A20FFF7DB
:10827000D1FB044688B90D48039B38226A43811814
:10828000C97C49070CD002F11301BDF80A20009205
:10829000014432462846FFF717F8204604B070BD67
:1082A000184610F0DCFAF8E70E24F6E75033002009
:1082B00013B514460A4639B134B100230093214660
:1082C000FFF7A8FB02B010BD0E20FBE710B5044677
:1082D000FFF7A4F870B117290ED8084A382303FB1A
:1082E0000423DA888A4203D0D9802046FFF72CFB8A
:1082F000002000E0052010BD0720FCE750330020DF
:1083000010B5044651B1FFF789F848B1054B382242
:1083100002FB04340020E3880B8010BD0E20FCE734
:108320000520FAE750330020012838B51BD80F4B41
:10833000382202FB003292F83440E40713D5D27C95
:1083400001F0070402F00705A54204D1C1F3C404FB
:10835000B4EBD20F05D0382202FB0033D974FFF7FB
:10836000F3FA002000E0052038BD00BF50330020A4
:1083700069B101280DD8084B382202FB003090F873
:108380003430DB0705D5C37C0B70002070470E200E
:1083900070470520704700BF5033002038B50446B1
:1083A000154699B192B1FFF739F888B10A483823D8
:1083B00003FB040083696BB1837CC3F301030B707F
:1083C000837CC3F385032B70002038BD0E20FCE7AF
:1083D0000520FAE70620F8E7503300202DE9F341A5
:1083E0000DF107020DF106010546FFF7D7FF10B1A9
:1083F000784608F0D1FA284E9DF807709DF80610CF
:10840000382303FB05633C46B3F82480032923D8B3
:10841000DFE801F005021A1E07EB87046400B4FBD5
:10842000F8F3092B1CD8002F33D0012B38BF0123C0
:10843000DFB20021382000FB05603A461430FEF719
:1084400059FE02B0BDE8F081642417FB04F4E6E7AE
:1084500041F270747C43E2E7784608F09DFADEE76B
:10846000632B05D80A220121B3FBF2F3DFB2E1E767
:1084700041F26F72934295BF642241F27072B3FB76
:10848000F2F3B3FBF2F399BFDFB20221DFB20321B3
:10849000D0E73946CEE700BF50330020012810B5A1
:1084A0000FD80B4A382404FB002393F83420D2075A
:1084B00007D59A693AB141B19984FFF78FFF00203F
:1084C00010BD0520FCE70620FAE70720F8E700BF0B
:1084D00050330020012838B5044629D8174B3820DE
:1084E00000FB043090F8345015F0010F1D461FD0EA
:1084F0008369FBB13F2A1FD803291DD8837CB2EBC7
:10850000930F03D103F003038B420FD0382303FBF7
:108510000453987C62F38700024661F3010220460F
:108520009A74FFF75BFF2046FFF70EFA002000E089
:10853000052038BD0620FCE70720FAE7503300206D
:1085400038B5044602F056FC18BB2046FEF766FF1D
:1085500008B3134D382202FB0452D289022A16D1E5
:10856000104A137813F0010003D0137AD90714D4FA
:10857000012043F0010302F83030382303FB045399
:1085800080B2D881FFF7B6F92046FFF7DDF9002069
:1085900038BD0F20FCE70520FAE70420F8E700BF0C
:1085A00050330020C43300202DE9F04104468846B2
:1085B000FEF734FFD0B1114B382202FB0434E689B8
:1085C000022E16D0172916D80D4FF500043578194C
:1085D000FEF7F6FE40B9012303FA08F17B590B437D
:1085E0007B513046FFF786F9002000E00520BDE80A
:1085F000F0810620FBE70720F9E700BF5033002099
:10860000C4330020F8B504460F46FEF707FFD8B183
:10861000104B382202FB0434E589022D16D01729AD
:1086200016D80D4EEC0004343019FEF7C9FE50B1D7
:10863000012303FA07F13359284623EA0103335192
:10864000FFF758F90020F8BD0520FCE70620FAE7FF
:108650000720F8E750330020C43300202DE9F84309
:10866000064615460F4641B33AB3FEF7D7FE30B380
:10867000164B382202FB0636F389022B21D0002448
:10868000DFF84C90B5F800802C80F08901280ED8D6
:1086900009EBC00021460430FEF792FE38B12B886A
:1086A000984510D927F813402B8801332B800134CB
:1086B000182CEAD10020BDE8F8830E20FBE7052046
:1086C000F9E70620F7E70920F5E700BF503300205F
:1086D000C43300202DE9F04107468846FEF79EFE90
:1086E000A0B1082915D838250B4E7D4308357019DF
:1086F000FEF766FE40B9012303FA08F173593846C4
:108700000B437351FFF720F9002000E00520BDE87E
:10871000F0810720FBE700BF50330020F8B5064684
:108720000F46FEF77BFEA8B1082915D838240B4D5B
:10873000744308342819FEF743FE50B1012303FAAD
:1087400007F12B59304623EA01032B51FFF7FCF8C0
:108750000020F8BD0520FCE70720FAE75033002091
:108760002DE9F041064615460F46F9B1F2B1FEF784
:1087700055FEE8B1104BB5F800803822002402FB0A
:1087800006362C80083621463046FEF719FE38B1F1
:108790002B8898450ED927F813402B8801332B805E
:1087A0000134082CEFD10020BDE8F0810E20FBE75A
:1087B0000520F9E70920F7E75033002010B50446FB
:1087C000FEF72CFE70B108290ED8084A382303FBA7
:1087D00004239A888A4203D099802046FFF7B4F890
:1087E000002000E0052010BD0720FCE750330020EA
:1087F00010B5044651B1FEF711FE48B1054B3822C1
:1088000002FB04340020A3880B8010BD0E20FCE77F
:108810000520FAE750330020030605D4012803D0D1
:10882000024B18700020704707207047F02D002081
:10883000014B1878704700BFF02D002010B504469A
:10884000FEF7ECFD60B1074A382303FB04231A7CD2
:108850008A4203D019742046FFF776F8002000E022
:10886000052010BD5033002010B5044651B1FEF76D
:10887000D5FD48B1054B382202FB04340020237C8F
:108880000B7010BD0E20FCE70520FAE750330020E6
:1088900010B50446FEF7C2FD80B181F080037E2B47
:1088A0000ED9084A382303FB04235A7C8A4203D09A
:1088B00059742046FFF748F8002000E0052010BD5D
:1088C0000720FCE75033002010B5044651B1FEF7F5
:1088D000A5FD48B1054B382202FB04340020637C1F
:1088E0000B7010BD0E20FCE70520FAE75033002086
:1088F00021B128B9034B1B880B8070470E207047AD
:10890000052070473A33002021B128B9034B9B78EA
:108910000B7070470E207047052070473A330020D7
:1089200021B128B9034BDB780B7070470E207047DC
:10893000052070473A33002010B5044661B1FEF7B8
:108940006DFD58B1064B382060431A1852884A8092
:108950001B5A0B80002010BD0E20FCE70520FAE713
:108960005033002073B5019112B310B1052002B04D
:1089700070BD4FF6FF730F4913808B89BDF804401B
:10898000BDF8065008462BB94E88AE4202D1098880
:10899000A1420AD0B0F84430002BE7D1438FAB425C
:1089A000E4D1038FA342E1D1012313800020DEE74D
:1089B0000E20DCE750330020F0B509B302B308BB4A
:1089C000124E1588108002236FF037071088A842D6
:1089D0001AD207FB036494F8A4C01CF0010F09D05D
:1089E000B4F87C4034B9C3F1020421F81040108877
:1089F00001301080012B01D10020F0BD0123E5E7FB
:108A00000E20FAE70520F8E70920F6E750330020AA
:108A100010B5044651B1FEF701FD48B1054B3822AF
:108A200002FB04340020236B0B6010BD0E20FCE71A
:108A30000520FAE750330020F8B50746FEF7EEFCB4
:108A400000B33825104C7D43002205F11400114677
:108A500066192044FEF74EFB384600F0E9F9F0882D
:108A600001F08EF94FF0FF33736005F110032344DA
:108A700000245C709C70DC703846B475FEF764FFAF
:108A80002046F8BD0520FCE750330020082837B504
:108A900005461CD80DF106010020FFF7A9FE28B9F4
:108AA000BDF80630AB4201D1FFF7C6FF0DF106015C
:108AB0000120FFF79DFE044658B9BDF80630AB42D1
:108AC00002D10120FFF7B8FF204603B030BD0724D4
:108AD000FAE70024F8E700002DE9F04F5A4DB5F809
:108AE000703085B0804613B9784607F055FF574C73
:108AF000DFF86CA14FF6FF7308F57A79A5F87230AC
:108B0000002604F1040B94F82830CBB1A369A3EB41
:108B10000903002B19DA002384F82830B5F87030E7
:108B2000013BA5F8703003A92088FFF771FF10B151
:108B3000784607F031FFE3690399208801229847BE
:108B40002C34002E50D10126DDE7236AA3EB090265
:108B5000002A66DAA5F872602C2101FB06B1208894
:108B6000FFF77AFB0746E8B1DAF800309B0417D527
:108B7000374B1B68042B13DD2F21364813F03EFAC8
:108B8000E8B12F21334813F039FA411C324B334AF4
:108B9000D3F8043500920197802205200CF0B6FF2F
:108BA000082F15D1D4E908231A445B0022626362BE
:108BB000A269236AD31A002BC2DA2262C0E75C21C1
:108BC000244813F01BFA08B15C21DBE72149DDE7FB
:108BD000042F01D00F2F20D12C2303FB0656B36B9B
:108BE00003F51C434033B363B5F870304BB3B5F8AD
:108BF0007230012B02D9784607F0CEFEB5F87230FC
:108C00002C2202FB03539B6BB3EB080248BFA8EB7B
:108C10000302EA6005B0BDE8F08F784607F0BCFEBD
:108C2000C6E7B5F872204FF6FF718A4206D02C21B4
:108C300001FB0252926B9B1A002B81DAA5F872603D
:108C40007EE7EB60E6E700BFD8330020F03300207A
:108C5000142E0020D8C3030000100140FDC3030000
:108C6000182E002038B52C4C2C2303FB004305465E
:108C700093F8403013B9784607F08EFEB4F87030A0
:108C800013B9784607F088FE2C2202FB0542002328
:108C900082F84030B4F87030013B9BB2A4F87030D9
:108CA000A3B3B4F87230AB4235D1926B1B4B134473
:108CB00094F84020EAB1A26BD11A0029B8BF13463C
:108CC0004FF6FF72B8BF002294F86C10A1B1616E2C
:108CD000CB1A002B10DA0123A4F87230B4F87230EA
:108CE0000D482C2202FB0344A16BBDE838400BF079
:108CF00022B94FF6FF72E7E74FF6FF739A42A4F8E6
:108D00007220EBD1784607F047FEE7E70248BDE85E
:108D100038400BF0F9B838BDD833002000879303F2
:108D20000128F8B505460E46174602D9784607F0E1
:108D300033FE0BF01DFE134B93F8402012B11A8B3B
:108D4000AA421DD093F86C20B2B1B3F84420AA42D5
:108D500012D101202C2404FB00343388A28D9A42C6
:108D60000AD1E28D73889A4206D1FFF77BFF636BCD
:108D70000022394628469847BDE8F8400BF038BE37
:108D80000020E7E7D833002010B5044C74220021FE
:108D9000204613F063F8024BA36010BDD8330020C7
:108DA000D98A020073B51F4C0BF0E2FDB4F87030A5
:108DB0002BB100232046A4F870300BF0A5F894F8EE
:108DC00040307BB1258B1848666B00212C2213F0B4
:108DD00045F801A92846FFF71BFEF0B902220199C8
:108DE0002846B04794F86C309BB1B4F844500F4813
:108DF000246E00212C2213F031F801A92846FFF738
:108E000007FE10B1784607F0C7FD022201992846F7
:108E1000A0470BF0EDFD02B070BD784607F0BCFD39
:108E2000DCE700BFD8330020F03300201C340020E2
:108E3000012873B505462DD8174C0BF099FD94F811
:108E4000403013B1238BAB4220D094F86C30FBB18F
:108E5000B4F84430AB421BD101263046FFF702FF85
:108E600001A92846FFF7D4FD10B1784607F094FD1C
:108E70002C2303FB06440222636B01992846984782
:108E800000240BF0B5FD204602B070BD0026E4E7DB
:108E90000524F6E70524F6E7D83300204A09012324
:108EA00001F01F0103FA01F150F82230194214BFFA
:108EB0000120002070474A09012301F01F0103FA35
:108EC00001F150F822300B4340F822307047000087
:108ED000A0F1100189B2072902D80248FFF7DEBFCE
:108EE00000207047543400202DE9F0474FF6FF73FF
:108EF000DFF84080DFF840900B8007460D460024E5
:108F00001E464FF0AC0A21464046FFF7C7FF40B16E
:108F10000AFB04F333F80930BB4206D12C80BDE8CC
:108F2000F0872B88B34208BF2C800134042CEAD18F
:108F30000020F4E784360020883600202DE9F04731
:108F40004FF6FF73DFF84080DFF840900B80074654
:108F50000D4600241E464FF02A0A21464046FFF7E0
:108F60009DFF40B10AFB04F333F80930BB4206D140
:108F70002C80BDE8F0872B88B34208BF2C800134D9
:108F8000082CEAD10020F4E7983400209C3400201B
:108F900013B50190000C01280C4602D0784607F06A
:108FA000FBFC042323800123A38008236380238107
:108FB0001023E38002B010BD37B5C0F30F44A4F511
:108FC0008054A4B20F2C01900D4602D9784607F0C8
:108FD000E3FC21460648FFF761FF10B9784607F029
:108FE000DBFC044B33F824302B8003B030BD00BFD2
:108FF0004C3400205834002010B5044610B978468F
:1090000007F0CAFC0A4B002293F8421090B269B1F3
:10901000A3420AD003F121018C4206D00132042A76
:1090200003F1AC03F0D14FF6FF7010BDA342F4E79B
:10903000AA36002013B50190000C02280C4602D07D
:10904000784607F0A9FC074B1B68DB0702D478467B
:1090500007F0A2FC04490422204602B0BDE81040FB
:1090600012F0F1BE503400207036002037B5C0F346
:109070000F44A4F50054A4B2072C01900D4602D968
:10908000784607F089FC21460948FFF707FF10B929
:10909000784607F081FC0749142000FB04111022D8
:1090A0000431284603B0BDE8304012F0CCBE00BF0A
:1090B000543400203839002073B5040CB4F5A04FA7
:1090C00001900D4602D0784607F066FCA4F5A04456
:1090D000A4B221460B48FFF7E1FE10B9784607F02D
:1090E0005BFC16235C43084EA11D10223144281D51
:1090F00012F0A9FE325B2A8033195B886B8002B0C4
:1091000070BD00BFEC350020F0350020F8B5A1F1AE
:10911000100514246C430B4F0646201D31461022C7
:10912000384412F090FE391930460CF01DFC10B195
:10913000784607F031FC29460348BDE8F840FFF7C0
:10914000BABE00BF383900205434002073B5050C76
:109150000E46A5F5005189B2072901900CD80848A0
:10916000FFF79CFE30B9A5F5FF51103989B23046A2
:10917000FFF7CCFF002000E0052002B070BD00BF6B
:1091800054340020F7B5C0F30F44A4F54054A5B201
:10919000032D01900E4602D9784607F0FDFB002111
:1091A0002422304612F05AFE29461348FFF776FE75
:1091B00010B9784607F0F0FBAC24104F6C433D1912
:1091C0003B5B338095F86430B370A11C10223944A6
:1091D000F01C12F038FE95F8643053B104F112011E
:1091E0001022394406F1130003B0BDE8F04012F03C
:1091F0002ABE03B0F0BD00BF8436002088360020B0
:1092000073B5C0F30F44A4F58044A5B2072D0190B7
:109210000E4602D9784607F0BFFB002126223046D1
:1092200012F01CFE29461248FFF738FE10B97846A6
:1092300007F0B2FB2A246C430E4DA11D10222944D5
:10924000701D12F000FE2A5B32802B195A88728042
:109250009B7D337153B104F119011022294406F1A9
:10926000150002B0BDE8704012F0EDBD02B070BD57
:10927000983400209C3400202DE9F0411E4CAC2590
:109280005543164605F16803621923440F46936758
:10929000804610B9194B01221A7005F122012144B0
:1092A00038460CF028FB10B1784607F075FB05F145
:1092B0007C01214438460CF02FFB10B1784607F0B2
:1092C0006BFBA81C39461022204412F0BCFD05F1AE
:1092D000120010220021204412F0C0FDAC23734381
:1092E000E21824F80380002382F8643031460448F1
:1092F000BDE8F041FFF7DFBD883600206E36002064
:109300008436002037B5C0F30F440D4604F54054B1
:10931000A4B20190224628880331FFF7ADFF074829
:10932000AB78AC2202FB0404054A84F8643013785D
:10933000002043F00403137003B030BD88360020D2
:10934000803600202DE9F8432A255D43144C9146D0
:109350000746A81D10220E4620444946984612F0A2
:1093600072FD05F1190000211022204412F076FD53
:10937000691D214448460CF0B5FA10B1784607F053
:109380000BFB2A2202FB08F2A31800211971997520
:109390005E80A75241460348BDE8F843FFF78BBD06
:1093A0009C34002098340020F7B5C0F30F44A4F596
:1093B0008044A4B2072C01900D462ED821461848AF
:1093C000FFF76CFD10B1002003B0F0BD154F6988A8
:1093D00028882A2623466A1D6643FFF7B3FFBB1978
:1093E0002A799A752B79002BEDD0153506F11900E5
:1093F00029461022384412F026FD06F1180139449E
:1094000028460CF06FFA10B1784607F0C5FA2A200A
:1094100000FB04742379E375D5E70520D4E700BF8A
:10942000983400209C3400202DE9F3410190000C79
:1094300000F50054A4B2072C0E4632D900F5805036
:1094400084B2072C2FD80125194A137843F004035E
:109450001370308871882346321DFFF773FF2A2767
:1094600014486743C31980469D75F5B1143607F15A
:10947000190031461022404412F0E5FC07F11801B2
:10948000414430460CF02EFA10B1784607F084FAC9
:109490002A2000FB048400202379E37502B0BDE894
:1094A000F0810025D0E70520F8E72846F6E700BF61
:1094B000803600209C34002073B5064610460C46CA
:1094C0001546FFF7EBFC10B9784607F065FA012363
:1094D0002644ADF80430ADF8066001980EF096FC15
:1094E00010B1784607F058FA6209012304F01F040E
:1094F00003FA04F455F8223023EA040345F8223035
:1095000002B070BD2DE9F0474FF6FF73DFF84C80D5
:10951000DFF84CA00B8007460D4600244FF01409DD
:1095200021464046FFF7BAFC064650B92A884FF656
:10953000FF739A4200D12C800134082CF0D1002610
:1095400008E01022394609FB04A012F06DFC002847
:10955000F2D12C803046BDE8F08700BF54340020A3
:109560003C39002001460148FFF798BC4C340020EC
:1095700013B50190000C01280C4602D0784607F084
:109580000BFA2388042B13D1A388012B10D16388F5
:10959000082B0DD12389082B0AD1E388102B07D182
:1095A000044A137843F001031370002002B010BD89
:1095B0000B20FBE78036002008B528B9784607F075
:1095C000EBF94FF6FF700BE0064B9842F9D303F529
:1095D00001729042F5D8C01AAC23B0FBF3F080B210
:1095E00008BD00BFFC36002008B528B9784607F052
:1095F000D3F94FF6FF7008BD0A4B984209D303F523
:109600009372904205D8C01A2A23B0FBF3F080B2BF
:10961000F1E7054A4FF6FF73904214BF1846082041
:10962000E9E700BFA0340020F435002037B50190F1
:10963000000C02280D4602D0784607F0ADF9084C20
:109640002368DB0708D404222946064812F0FBFBF6
:10965000236843F001032360002003B030BD00BF46
:109660005034002070360020F7B5C0F30F44A4F545
:109670004054A4B2032C01900D4628D82146154829
:10968000FFF70CFC10B1002003B0F0BD2246E91C2E
:109690002888114FFFF7F0FDAC214C43AB783A1905
:1096A00082F86430002BEED0133504F11200294605
:1096B00010223844433412F0C6FB391928460CF006
:1096C0001AF90028DFD0784607F066F9DBE70520B5
:1096D000DAE700BF843600208836002037B5002343
:1096E000054610460C46ADF80030FFF7D7FB10B921
:1096F000784607F051F901232C44ADF80430ADF859
:109700000640694601980EF023FB10B1784607F039
:1097100043F903B030BD00002DE9F74F8046924673
:109720000E46002951D00AF087F80228814627D03A
:1097300020F00207FBB2012B22D14FF6FF74334B0E
:10974000334A0025A3465C450ED1104629460193B5
:109750000092FFF7A3FBDDE9002328B9ACB2013585
:10976000102DF0D1002305E033F825104145F6D146
:10977000ACB20123BAF1000F04D1B9F1030F26D026
:1097800010201FE0FFB2012FFAD19BB94FF6FF72F4
:10979000944221D01D4A1E4822F8248002EB840204
:1097A00021465380FFF787FB194A21464FF480502A
:1097B000FFF794FF154B348003EB8404A378013347
:1097C000A370002003B0BDE8F08F0E20FAE7ABB91C
:1097D0004FF6FF72944201D10420F3E70B4A0C4884
:1097E00022F8248002EB840221465380FFF763FBBA
:1097F000074A21464FF48050FFF770FF034B348037
:1098000003EB8404E3780133E370DAE75834002093
:109810004C3400202DE9F3414FF6FF770E461446F5
:10982000ADF80670804650B349B30DF10601FFF75D
:1098300069FEBDF8063003F11005ADB260B9BB4258
:109840001FD029464046FFF761FC0F4ABDF80610BD
:109850004FF40050FFF742FFBDF806300B4A358049
:10986000142101FB032334B9DA780132DA700020C5
:1098700002B0BDE8F0819A7801329A70F7E70E20C5
:10988000F6E70420F4E700BF543400203839002004
:1098900041090B4A00F01F004FF0FF33834052F89C
:1098A0002100034009D05A421A40064B5343DB0EB5
:1098B000054AD05C00EB411070470420704700BFA0
:1098C0008436002031B57C07A3C403004FF6FF7334
:1098D0000B80084B1B6813F0010307D0064B1B8855
:1098E000834205D108230B800120704708220A809B
:1098F00000207047EC350020F03500200F2810B50F
:10990000044602D8FFF72EFE28B92046FFF7E0FAFA
:1099100000F0010010BD0120FAE700000F2838B563
:10992000044613D8FFF71EFE80B1144B03EB8402EC
:10993000907848B9D578FDB923F82450104A2146CB
:109940004FF48050FFF7B8FD002015E02046FFF7E8
:10995000BFFA80B1A4F1100189B20A4A14234B4323
:10996000D418A0780028EFD1E4782CB9D4524FF461
:109970000050054AE6E7052038BD00BF58340020F6
:109980004C34002038390020543400202DE9F341B4
:109990000190000CB0F5A04F19D10F4E346814F0AF
:1099A000010412D10D4D0F88B1F80280102204314C
:1099B000A81D12F048FA0123214630466C712B7124
:1099C000A5F802802F80FFF776FA002000E005203E
:1099D00002B0BDE8F08100BFEC350020F03500207A
:1099E00073B5C0F30F44A4F58054A4B20F2C0190BA
:1099F0000E4611D821460A48FFF750FA50B9094BD4
:109A0000328823F8242003EB84032146588004483D
:109A1000FFF751FA002000E0052002B070BD00BF42
:109A20004C340020583400200388012B15D1438882
:109A3000A3F54052032A04D8142902D1A3F5C04348
:109A400007E0A3F58042072A07D8242903D1A3F50C
:109A5000A043438001E01429F0D070477FB52C4A21
:109A6000137813F0020451D1D90712D4294A10688F
:109A70005168128901AB03C301A94FF001101A808C
:109A80000EF066F910B1784606F086FF052004B0A6
:109A900070BD13F00400FAD064F3820313701E4DFE
:109AA0001E4B019321462846FFF7F8F968B1A6B28C
:109AB00006F54053ADF8063001980EF0A7F92A4696
:109AC00031464FF44050FFF709FE0134042CE9D130
:109AD0004FF48043124DADF806300024214628464D
:109AE000FFF7DCF968B1A6B206F58043ADF80630A1
:109AF00001980EF08BF92A4631464FF48040FFF76B
:109B0000EDFD0134082CE9D10020C0E70B20BEE7B1
:109B10008036002020C4030084360020010000307D
:109B20009834002037B5002349481946C218043339
:109B3000402BD1709170F9D1002346491C46CA18B8
:109B40001433A02BD4709470F9D104220021424820
:109B500012F084F904220021404812F07FF9042217
:109B600000213F4812F07AF9042200213D4812F00A
:109B700075F9042200213C4812F070F900210422FA
:109B80003A4812F06BF93A4B3A4A1C805C803A4BE7
:109B90001C70137803F0FE0364F341031370374B1A
:109BA00018680EF033F9364B18680EF02FF90123C0
:109BB000ADF804304FF4805441F21005ADF8064082
:109BC00001340198A4B20EF021F9AC42F6D14FF461
:109BD000005442F20805ADF8064001340198A4B2E1
:109BE0000EF014F9AC42F6D14FF44053ADF8063004
:109BF00001980EF00BF943F20103ADF8063001981D
:109C00000EF004F943F20203ADF8063001980EF0AD
:109C1000FDF843F20303ADF8063001980EF0F6F8B4
:109C20004FF4804444F20805ADF806400134019831
:109C3000A4B20EF0EBF8AC42F6D14FF4A043ADF86D
:109C40000630019803B0BDE830400EF0DFB800BF29
:109C50005834002038390020503400204C34002083
:109C6000543400208436002098340020EC35002045
:109C700070360020803600206E3600202AC4030093
:109C80002EC40300064808B5064B036009F016FF12
:109C9000054A137803F0FD036FF30003137008BD4A
:109CA00074360020C9A302008036002070B5054636
:109CB00010B9784606F070FE154E306810F00104B9
:109CC00023D128886B880344984201DB0B2070BDA8
:109CD00009F0B2FD0128F9D128886B8818440138B1
:109CE00080B209F0A9FD0128F0D13368094843F09A
:109CF000010304222946336012F0A5F802203246FF
:109D00002146FFF7EBFC2046E1E70F20DFE700BF2D
:109D1000503400207036002010B5044610B9784643
:109D200006F03AFE204604220249BDE8104012F037
:109D30008AB800BF703600200122FFF7EDBC00009A
:109D400010B50446FFF7DAFD78B10F2C89BF084B38
:109D5000084B103C14228CBF02FB043403EB840438
:109D60000020A3780133A37010BD0520FCE700BFDD
:109D700038390020583400200122FFF74BBD000085
:109D80000F2810B504460DD8FFF7ECFB50B10C4B73
:109D900003EB84039A78013A9A702046BDE810409C
:109DA000FFF7BCBD2046FFF793F830B1054AA4F198
:109DB0001003142101FB0323ECE7052010BD00BFB5
:109DC00058340020383900200022FFF7A5BC0022BB
:109DD000FFF720BD10B50446FFF790FD78B10F2CBA
:109DE00089BF084B084B103C14228CBF02FB043483
:109DF00003EB84040020E3780133E37010BD0520F9
:109E0000FCE700BF383900205834002038B505463B
:109E10000C4609B30F280ED8FFF7A4FB58B1104B1E
:109E200033F82520628033F8250009F005FD207005
:109E30000020606038BD2846FFF74AF870B114234F
:109E4000103D084A5D430020535B63800435154490
:109E5000022365602370EDE70E20EBE70520E9E7BC
:109E6000583400203839002013B50446FFF746FD6A
:109E700008B369462046FFF7C9FFC0B99DF8003016
:109E8000032B0BD10D4B03EB8403DA789AB1013A23
:109E9000DA702046FFF742FD02B010BD022B08D158
:109EA000074AA4F11003142101FB0323EDE700206E
:109EB000F2E70F20F0E70520EEE700BF583400205E
:109EC000383900202DE9F7430D46044600283CD0E0
:109ED00000293AD0408809F0AFFC022824D003289A
:109EE00001D0012833D14FF6FF73DFF86880DFF827
:109EF000689067882B8000241E4621464046FEF766
:109F0000CDFF40B139F82430BB4208D12C8000206D
:109F100003B0BDE8F0832B88B34208BF2C80013426
:109F2000102CEAD10520F3E760684FF6FF73ADF817
:109F3000063050B10DF10601FFF7E4FA0028F1D028
:109F4000BDF8063010332B80E1E70E20E0E710204B
:109F5000DEE700BF4C3400205834002007B50DF177
:109F60000601FEF7C1FF20B1BDF8060003B05DF8A1
:109F700004FB4FF6FF70F9E708B1FFF73DB84FF665
:109F8000FF70704707B50DF10601FEF7D7FF20B14E
:109F9000BDF8060003B05DF804FB4FF6FF70F9E76B
:109FA00008B1FFF721BB4FF6FF70704738B5044684
:109FB0000D4669B107280DD801460748FEF76EFF28
:109FC00040B12A206043054B1B5A2B80002038BD2E
:109FD0000E20FCE70520FAE7983400209C3400208E
:109FE000082870B504460E463CD8002938D0082809
:109FF00021D001461C48FEF751FF002832D01B4DEE
:10A000002A2303FB04535B88032B02D9784606F00E
:10A01000C3FC2A2303FB045315485988FEF73EFF6F
:10A0200010B9784606F0B8FC2A2303FB0454638871
:10A030003380002070BD0F4B1B68DB0712D50E4C20
:10A040006388032B02D9784606F0A6FC618808488D
:10A05000FEF724FF0028EAD1784606F09DFCE6E7EB
:10A060000E20E7E70520E5E7983400209C34002027
:10A0700084360020EC350020F0350020F0B507468E
:10A08000C7B015460E46002970D0002A6ED0B0F534
:10A09000805F6DD21146FEF727FF2A88044670B113
:10A0A0003648AC2303FB020031461022023011F087
:10A0B000BBFE00280CBF03200F2047B0F0BD4FF6B9
:10A0C000FF739A4256D031463846FFF7D5F82C4AEE
:10A0D00029884FF44050FFF701FB284B2988AC2218
:10A0E00002FB013138468C3109F0EFFC254B186832
:10A0F00010F48020E1D0244B1B68062B3CDD234B61
:10A100001A68204605AC335C190903F00F03515C53
:10A1100004F81010D15C04EB400301301028597092
:10A12000F1D100232F211A4884F8203011F066FF66
:10A1300098B12F21164811F061FF411C154B164AAA
:10A14000D3F804350192154A0092072002944FF487
:10A1500013620BF0DBFC0020AFE75C210C4811F030
:10A160004DFF08B15C21E5E70949E7E70E20A4E7C8
:10A170000720A2E70420A0E720469EE788360020BB
:10A1800084360020182E0020142E00201C2E0020C3
:10A190006CC403000010014096C403000EC203000B
:10A1A000032838B504460D460DD801460748FEF78A
:10A1B00075FE40B1064BAC2202FB0434002094F83B
:10A1C00064302B7038BD0520FCE700BF84360020CA
:10A1D000883600202DE9F0410646884600294CD0FB
:10A1E00003284CD801462748FEF758FE002846D0E1
:10A1F000254BAC2474431A191D4692F8642062B1B1
:10A20000012A07D104F1120010224146184411F02E
:10A210000BFE00B10820BDE8F08104F112071F44D5
:10A2200041461022384611F00EFE04F14301294444
:10A2300040460BF060FB10B1784606F0ADFB04F130
:10A240009401294438460BF067FB10B1784606F0BC
:10A25000A3FBAC237343E918012281F8642004F1C5
:10A26000A401E85A294409F047F84FF44050054A40
:10A270003146FFF733FA0020CDE70E20CBE705206B
:10A28000C9E700BF8436002088360020032810B5B7
:10A2900004461DD801461048FEF700FEC0B10F4825
:10A2A000AC236343C11891F86420012A12D1022221
:10A2B00081F8642003F1A4010144C05A09F01CF89C
:10A2C0004FF44050044A2146FFF708FA002010BD21
:10A2D0000520FCE70820FAE78436002088360020B5
:10A2E00003282DE9F843074660D801463148FEF7B8
:10A2F000D5FD00285AD0304DAC247C4305EB040832
:10A3000098F86430002B53D004F11201A01C1022E5
:10A310002944284411F097FD04F1430104F122007F
:10A3200021222944284411F08EFD04F1940104F106
:10A330007C0018222944284411F085FD002604F1F0
:10A340008C0188F864603246285BDFF87880294405
:10A3500008F0D2FF3446194EA8F1130921463046C1
:10A36000FEF79CFDB0B12A20154D604305446B8873
:10A37000BB420FD1AB7D6BB108EB00011222484408
:10A3800011F061FD0023AB753246A1B24FF480405D
:10A39000FFF7A4F90134082CE0D14FF44050054AEE
:10A3A0003946FFF79BF90020BDE8F8830520FBE75D
:10A3B0000820F9E7843600208836002098340020F1
:10A3C0009C340020B334002070B50378042B02D0F5
:10A3D000142B20D070BDD0E90146457E2046FFF702
:10A3E000EBF84FF6FF729042F4D02034A642F1D140
:10A3F0000D4AAC2101FB002393F864302DB1012BF1
:10A40000E8D1BDE87040FFF741BF002BE2D0BDE8C6
:10A410007040FFF765BFC388012B01BF034A137863
:10A4200043F002031370D5E7883600208036002001
:10A430002DE9F0470D46064600B3F9B10024DFF8D8
:10A440004480DFF844900F680C604FF0AC0A21465E
:10A450004046FEF723FD58B12B689F4210D00AFBFF
:10A4600004F232F8092026F813202B6801332B6000
:10A470000134042CEBD10020BDE8F0870E20FBE76F
:10A480000920F9E784360020883600202DE9F04FB6
:10A490008246C9B0884699461746002A00F0868051
:10A4A000002B00F0838009F0C7F9012883467FD193
:10A4B000B8F1030F7ED841464248FEF7EFFC002872
:10A4C00078D00DF11A015046FFF700FA0446002833
:10A4D00072D1BDF81A504FF6FF739D426ED0083D01
:10A4E0001626394B05936E43B01D10223946184489
:10A4F00011F0A9FC059B354823F806A09A192946B6
:10A50000547182F804B0A2F80280FEF7D4FCBDF8C2
:10A510001A102E4A08394FF4A04089B2FFF7DEF82E
:10A52000BDF81A30A9F80030294B186810F48020C3
:10A5300030D0284B1B68062B42DD274B1A6820467B
:10A5400007AC3B5C190903F00F03515C04F81010D1
:10A55000D15C04EB4003013010285970F1D1002385
:10A560002F211E4884F8203011F048FDA8B12F217A
:10A570001A4811F043FD411C194B1A4AD3F804350F
:10A580000192194A0092072002944FF423620BF0C3
:10A59000BDFA002049B0BDE8F08F5C210F4811F0F2
:10A5A0002DFD08B15C21E3E70C49E5E70E20F1E75A
:10A5B0001020EFE70520EDE70F20EBE70420E9E7A7
:10A5C0002046E7E784360020F0350020EC350020F7
:10A5D000182E0020142E00201C2E00206CC4030016
:10A5E000001001405FC403000EC203002DE9F041DA
:10A5F0000746C6B088461E461546002A71D0002B75
:10A600006FD003296FD83C48FEF748FC00286AD079
:10A61000B7F5805F69D231463846FEF78FFC338844
:10A62000044678B135482A2202FB0300294610224D
:10A63000063011F0F9FB00280CBF03200F2046B0B4
:10A64000BDE8F0814FF6FF72934250D02A46414652
:10A650003846FEF777FE4FF48040294A3188FFF7ED
:10A660003DF8284B186810F48020E8D0264B1B6872
:10A67000062B3EDD254B1A68204605AC2B5C1909DC
:10A6800003F00F03515C04F81010D15C04EB40039D
:10A69000013010285970F1D100232F211C4884F873
:10A6A000203011F0ABFC98B12F21194811F0A6FC15
:10A6B000411C184B184AD3F804350192174A0092EE
:10A6C0000720029440F67F220BF020FA0020B6E724
:10A6D0005C210F4811F092FC08B15C21E5E70C49C0
:10A6E000E7E70E20ABE70520A9E70720A7E704204E
:10A6F000A5E72046A3E700BF843600209C34002055
:10A7000098340020182E0020142E00201C2E00202B
:10A710006CC403000010014052C403000EC20300C9
:10A72000F8B505460E4600293DD007283DD801461C
:10A730001F48FEF7B3FB002837D01E481E492A24C5
:10A740006C430319AC275A8807FB0212074692F89C
:10A750006420012A09D104F119010844997D31B11D
:10A760001022314611F060FB00B10820F8BD9A7547
:10A770003146102211F067FB04F1180139443046CC
:10A780000BF0B0F810B1784606F006F92A2303FB67
:10A7900005734FF480401A79DA752946044AFEF7AA
:10A7A0009DFF0020E2E70E20E0E70520DEE700BF86
:10A7B000983400209C34002088360020072810B5EB
:10A7C00004460CD801460748FEF768FB38B14FF441
:10A7D0008040044A2146FEF76FFE002010BD052090
:10A7E000FCE700BF9834002003282DE9F04105461E
:10A7F0003ED801462048FEF751FB002838D0002003
:10A80000FFF746F8002404282AD1012C32D01B4E31
:10A810001B4F00244FF02A0821463046FEF73EFB2E
:10A8200058B108FB04735B88AB4206D1A0B2FFF7B6
:10A83000C5FF10B1784606F0AFF80134082CEBD113
:10A84000AC236B430F4AD35A0BB90F4A13704FF422
:10A850004050094A2946FEF72FFE0020BDE8F0814E
:10A860000130032804F10104CFD8FFF711F8CAE73B
:10A870000520F3E70F20F1E784360020983400200C
:10A880009C340020883600206E3600202DE9F84FD9
:10A89000064615460F4669B362B303282CD8014615
:10A8A0001748FEF7FBFA38B30024DFF858A0DFF8AA
:10A8B0005880D5F800902C604FF02A0B2146504666
:10A8C000FEF7ECFA80B10BFB04F208EB02035B88A5
:10A8D000B34209D12B68994510D032F8082027F8E7
:10A8E00013202B6801332B600134082CE6D10020A3
:10A8F000BDE8F88F0E20FBE70520F9E70920F7E710
:10A9000084360020983400209C34002070B5064620
:10A910000C461546002A45D0082945D812BF2448C0
:10A9200024480021FEF7BAFA00283DD04FF6FF7305
:10A930009E4207D1082C17BF1F4A204B2A2303FB36
:10A9400004235E88032E31D831461D48FEF7A6FA4F
:10A9500060B3082C1B4923D0AC2303FB0613164A13
:10A9600093F86430022B08D12A236343D018807DEA
:10A9700018B1173313446B6004E02A2303FB04244B
:10A9800004346C60AC2303FB06F00B1893F86430BE
:10A99000022B0CBF4330223008442860002070BDD9
:10A9A000094BE8E70E20FAE70520F8E70820F6E76C
:10A9B00098340020EC3500209C340020F035002035
:10A9C0008436002088360020F435002038B50D4646
:10A9D000FFF7C4FA044675B103280ED801460848AB
:10A9E000FEF75CFA48B1074BAC2202FB0434223478
:10A9F0002C60002038BD0E20FCE70520FAE700BFE0
:10AA000084360020883600202DE9F843074690461A
:10AA10000E4611B9784605F0BFFFB8F1000F02D11C
:10AA2000784605F0B9FF306807F07F0730BB002497
:10AA300000233360C8F800301B4BDFF87090AC2562
:10AA400005FB0435A3B2032B16D821464846FEF772
:10AA500025FA00B395F8643095F8220005F122013B
:10AA6000ABB1874205F1430395F8432016D1BA42B2
:10AA70000FD13160C8F80030BDE8F883FEF7BCFAAA
:10AA80004FF6FF739842D2D0441CA4B2D0E787425D
:10AA900001D1316005E0AC350134D3E79742FAD1FA
:10AAA00033600023E6E700BF8836002084360020AC
:10AAB0002DE9F04704468846164612B9784605F057
:10AAC0006BFF14B9784605F067FF2046FFF754FA8C
:10AAD0004FF6FF739842074603D100233360BDE869
:10AAE000F087306800B3FEF77FFD441C1148DFF8A3
:10AAF00048A02A2505FB040505358146072CECD81E
:10AB000021465046FEF7CAF980B135F8033CBB42F6
:10AB10000CD12B7888EA03039B0607D12A2000FB7F
:10AB2000049404343460DAE70446DFE701342A355C
:10AB3000E4E700BF9C3400209834002038B5044678
:10AB40000D4611B9784605F027FF34B1044B33F8B0
:10AB5000042BA2420CBF1C4600242C6038BD00BF51
:10AB6000F03500202DE9F04707469146884611B997
:10AB7000784605F011FFB9F1000F02D1784605F0D3
:10AB80000BFFD8F8000000284CD0FEF715FD441C40
:10AB9000254EDFF89CA0AC2505FB04658C353BE019
:10ABA00021465046FEF77AF9A0B315F8283C4BB978
:10ABB0004FB108222946384611F036F9B0FA80F034
:10ABC000400901E0CFB9012020B3184B1B78FBB13D
:10ABD000AC236343F35AB3FA83F35B09AC204443D9
:10ABE00032197434264482F87430C8F8006092F840
:10ABF000643089F80030BDE8F087082229463846DD
:10AC000011F012F90028DED0082205F11801D2E770
:10AC10000123E3E70134AC35032CC1D90023C8F884
:10AC20000030E8E70446B3E7883600206E3600209F
:10AC3000843600202DE9F74306460C4608F0FCFD5B
:10AC400002285FD0032818D0012801D0002011E08D
:10AC5000484B1B6813F00103F8D0474B1A88964203
:10AC6000F4D35B8813449E424FF00003EEDA668013
:10AC70002070636003B0BDE8F08300236360A6F535
:10AC80007F43FC3B66802070032B16D801A252F84C
:10AC900023F000BF4DAC02004DAC0200A5AC020099
:10ACA00001AD020001A901200DF085FD10B178462B
:10ACB00005F072FE9DF80400DCE74FF6FF752F4F9C
:10ACC000DFF8C0900024A84645450FD121464846EC
:10ACD000FEF7E4F850B9A5B20134102CF4D10CF011
:10ACE000D3FB4088831B58425841C3E737F82420E0
:10ACF000B2424FEA8403EFD13B44DB78002BEBD028
:10AD00000120B7E76068E8B94FF6FF73ADF804308B
:10AD1000BDF80450DFF87080194F072D4FF6FF7310
:10AD200094BF01350025ADF804304FF01409082D0B
:10AD30008CD029464046FEF7B1F848B9ADF804502A
:10AD40000135F4E701A9FEF7DDFB0028DCD0DFE7E1
:10AD500009FB05F3DA5BB242F2D1FA18D278002A85
:10AD60003FF474AF043302221F4466802270676090
:10AD700080E700BF50340020703600205834002097
:10AD8000383900204C3400205434002038B50C46AB
:10AD9000054600B111B9784605F0FEFD024B1A8850
:10ADA0002A805B88238038BD7036002007B5037881
:10ADB000022B0AD0032B01D0012B17D16946408802
:10ADC000FFF738FF03B05DF804FB69464068FEF703
:10ADD00099FB0028F6D0BDF80030054A142101FB8C
:10ADE0000323D878003018BF0120EBE70020E9E703
:10ADF0003839002007B501A8FEF78EFFBDF8040022
:10AE0000003018BF012003B05DF804FB2DE9F04FBE
:10AE10000C4689B0814600B111B9784605F0BCFDF9
:10AE20002388152B02D8784605F0B6FD4FF6FF7241
:10AE30004FF42013CDE905230025012305A90A229B
:10AE40004846ADF81C30ADF8065010F0FCFF0A2360
:10AE500023800DF10E012846FDF756FD10B178460E
:10AE600005F09AFD0DF10F010020FDF759FD10B11D
:10AE7000784605F091FD03A90020FDF739FD10B1DA
:10AE8000784605F089FD08AA02230DF1080822F88A
:10AE90001A3D41460020FDF78FFD10B1784605F0C0
:10AEA0007BFD2088042203A9484410F0CCFF2688AB
:10AEB0009DF80E300436B6B2268053B10027BDF897
:10AEC00006A03D464FF6FF7B574515D323881D440A
:10AED00025809DF80F3063B12388BDF806700026E9
:10AEE000994435464FF6FF7ABE421DD323881D4450
:10AEF000258009B0BDE8F08F04A938F81700FDF7E8
:10AF00001BFD10B1784605F047FDBDF810305B45DC
:10AF100008D1A81902220DF11201484410F093FF44
:10AF20000235ADB20137CFE704A938F81600FDF7B6
:10AF300003FD10B1784605F02FFDBDF810305345E4
:10AF40000FD0022204A909EB050010F07CFFA81C19
:10AF500002220DF1120119FA80F010F074FF04358D
:10AF6000ADB20136C0E70000024B1B6803B11847C1
:10AF7000704700BFD839002013B5044601A8FEF77A
:10AF8000CBFEBDF80400001B18BF4FF0FF3080B2AD
:10AF900002B010BD37B504460CF07AFA054600231E
:10AFA00001A80093FEF7B8FE6946288AFFF70EFD58
:10AFB00030B9009B6360BDF80430238003B030BD1E
:10AFC0000520FBE71FB50193BDF81830ADF8083038
:10AFD0000023ADF800208DF80A304FF6FF720223EF
:10AFE000ADF802208DF80B306A46079B0393FDF7FE
:10AFF0005FF905B05DF804FB7FB505460E460020FD
:10B0000003A98DF808000DF0D6FB10B1784605F0C5
:10B01000C3FC9DF80D309DF80820013B0A2104ACCB
:10B0200063F30202BDF80E30B3FBF1F3013B63F3AF
:10B03000C70204F8082D08F049FD01230190009390
:10B0400048F22502234631462846FFF7BBFF04B0ED
:10B0500070BD7FB50B89012B06460D4631D14C687A
:10B060008DF804302378C3F3020301338DF80530E3
:10B070002378DA080A2302FB0333142BB8BF142306
:10B0800001A90020ADF806300DF084FB10B1784620
:10B0900005F082FC30462946FFF7AEFF0023CDE9DC
:10B0A000023311238DF808302378C3F302038DF89F
:10B0B0000C30237802A8C3F3C4038DF80D30FFF7DA
:10B0C00053FF04B070BD0B890BB9FFF795BF7047F4
:10B0D00037B504460D4608F0F9FC084B1860084BDC
:10B0E00001221A7000230190009348F24A02294677
:10B0F0002046FFF767FF03B030BD00BFE0390020F6
:10B10000DC39002030B50B89032B85B005460C4691
:10B1100018D14B689A78012A14D800228DF80C2097
:10B120001B88ADF80D3002238DF80F3008F0CEFCEF
:10B1300004230190009348F2480203AB21462846BD
:10B14000FFF740FF05B030BD30B585B004460D4671
:10B150008DF80C20ADF80D3008F0B8FC03230190F9
:10B16000009348F2440203AB29462046FFF72AFF2A
:10B1700005B030BD30B585B004460D46002303A9A7
:10B180000120ADF808300DF016FB10B1784605F03F
:10B1900003FC9DF80C308DF808309DF80D309DF8BB
:10B1A0000920013B63F30202BDF80E308DF809203F
:10B1B000142B15D1D2B212F0070111D161F3C702DD
:10B1C0008DF8092008F082FC02230190009348F2D8
:10B1D000280202AB29462046FFF7F4FE05B030BD39
:10B1E0000A22B3FBF2F39DF80920013B63F3C70287
:10B1F000E6E77FB50B89022B05460E463ED14C682B
:10B200002378012B3AD803F001038DF804306378DA
:10B21000C3F3020301338DF80530637883BB142335
:10B22000ADF80630BDF80630142B38BF142301A941
:10B230000120ADF806300DF0ADFA10B1784605F0FA
:10B24000ABFB28463146FFF795FF0023CDE90233DB
:10B2500012238DF8083023785A1E534253418DF83B
:10B260000C306378C3F302038DF80D30637802A8C5
:10B27000C3F3C4038DF80E30FFF776FE04B070BD43
:10B28000DB08013303EB83035B00C9E70B890BB9D0
:10B29000FFF770BF704770B586B00D46ADF80F3040
:10B2A0009DF82C30ADF80D2000218B4204460A9801
:10B2B0008DF80C1014BF07260926CDF8110008F0F0
:10B2C00005FC03ABCDE9006048F21F022946204689
:10B2D000FFF778FE06B070BD30B587B00446039323
:10B2E00006AB8DF8142033F80C2DADF815209B78A3
:10B2F0008DF817300D4608F0E9FB04230190009308
:10B3000048F2030205AB29462046FFF75BFE07B073
:10B3100030BD2DE9F0430B89022B87B081460C46E6
:10B3200038D14B681F88C7F30B00FEF717FEA38CBC
:10B330008342804631D13B460C2221464846FFF7E6
:10B3400003FF27E036F81500FEF71CFE26F815006F
:10B350000135019BAB42F5D82EE036F81500FDF71C
:10B3600095FB10B1784605F017FB0135019BAB4208
:10B37000F3D83B46484600222146FFF7E5FE00236E
:10B3800002937360304619238DF80830ADF80C80B5
:10B39000FFF7EAFD07B0BDE8F0834FF6FF73984270
:10B3A00002AEE6D006AA082342F8143D3146FFF764
:10B3B0006DFA05460028CCD04046FFF715FA054641
:10B3C0000028D3D00F28B6D03B460422B5E70000B2
:10B3D000F0B50B89122B85B007460D4625D14E6876
:10B3E0000A88344648F2400334F8020B9A42C0F30C
:10B3F0000B001CD121460DF10602FEF73FFE18237B
:10B4000004460F2C8DF80830BDF80630ADF80C302E
:10B4100096BF0C4B10221A5D338829463846FFF739
:10B4200093FE14B902A8FFF79FFD05B0F0BDFEF72B
:10B4300095FD2146ADF80600FEF7CCFE1A23044622
:10B44000DFE700BFC3C403002DE9F0431F460B88AC
:10B4500047F6E57843449BB2102B87B005460C466F
:10B46000164656D84FF0010909FA03F313F0EF011D
:10B470001BD113F4803060D15B044AD5014605220C
:10B4800003A810F0EBFC63688DF80C701A88ADF817
:10B490000D205B88ADF80F3008F018FB05230093F2
:10B4A000019003AB48F22A022FE00922002103A8F1
:10B4B00010F0D4FC23888DF80C7043449BB2072B0A
:10B4C0000AD809FA03F313F00B0F09D113F00402A1
:10B4D0002DD113F0E00F1FD1784605F05DFA09E099
:10B4E00063681A88ADF80D205A88ADF80F205B68A4
:10B4F000CDF81130002E14BF0726092608F0E6FA11
:10B50000CDE9006003AB48F21F0221462846FFF751
:10B5100059FD07B0BDE8F083636833F8121BADF83E
:10B520000D108DF80F208DF810201B68E0E7636880
:10B5300033F8022BADF80D20F7E7072203A810F02F
:10B540008DFC63688DF80C701A88ADF80D209A8810
:10B55000ADF811205B88ADF80F3008F0B7FA07237B
:10B560000093019003AB48F22C02CEE773B502AA18
:10B57000022322F8063D01A90646FDF76FF80628CA
:10B5800025D010B1784605F007FA0025BDF8022055
:10B59000ABB29A4202D8002002B070BDACB26400D7
:10B5A00002AB2344304633F8041CFDF72BF810B1EE
:10B5B000784605F0F1F902AB1C4434F8040CFEF7B0
:10B5C00053FC10B1784605F0E7F90135DEE70820B5
:10B5D000E2E72DE9F0438DB01C46154606460F46BE
:10B5E000092200210DF1250010F038FC00230DF197
:10B5F0000B0120468DF82030ADF82150FDF734F9CD
:10B6000010B1784605F0C8F99DF826309DF80B205A
:10B6100062F304136FF3471305A920468DF8263013
:10B62000FDF78AF910B1784605F0B6F9BDF8145067
:10B63000BDF816304FF6FF7295420DF10E0120460F
:10B640000EBFADF82A30ADF82C30ADF82A50FCF71B
:10B6500057FE10B1784605F09FF9BDF80E004FF681
:10B66000FF73984218D100238DF823308DF82430D1
:10B670004FF6FF739D4214BF0E250C2508F026FAE5
:10B6800008ABCDE9005048F2190239463046FFF7C1
:10B6900099FC0DB0BDE8F08306A9FEF7B7FB10B129
:10B6A000784605F079F9BDF81A30ADF8233004A9D1
:10B6B0002046FDF79DF805288046D4D0002848D1C3
:10B6C0000DF11201BDF81000FEF770FC052881464F
:10B6D00004D18DF823808DF82480C9E70028C7D1D4
:10B6E0009DF812308DF825309DF8133003F00F02CD
:10B6F0009DF8263023F00F0313430DF12701204658
:10B700008DF82630FDF7E0F80122494603A810F035
:10B71000A5FB0DF10D0203A92046FCF73FFE9DF8A5
:10B720000C209DF80D3002A943EA821320468DF8C3
:10B730002830FCF71DFE9DF808209DF82930C2F343
:10B74000020161F30203D20862F3C7038DF82930C6
:10B750008EE7784605F020F98AE7F0B50B89032BD0
:10B7600087B007460C4619D14D6804238DF80C307C
:10B770002B88ADF80D3000238DF80F302888C0F3EA
:10B780000B00FEF7EBFB0DF10B010646FEF708FD83
:10B79000D0B9AB78022B03D0032B32D007B0F0BD69
:10B7A0009DF80B305A1E012AF8D8012B06D13046DD
:10B7B000FEF76CFD10B1784605F0EEF800238DF829
:10B7C0000C3002238DF80F3008F080F9042301902B
:10B7D000009348F2170203AB21463846FFF7F2FB0D
:10B7E0009DF80C30002BD9D1CDE9043308238DF816
:10B7F000103004A89DF80F308DF81430FFF7B4FB1B
:10B80000CCE79DF80B30032BC8D033B13046FEF7A0
:10B8100067FD10B1784605F0BFF800238DF80C30B5
:10B82000D0E770B50D89012D86B006460C461ED1B5
:10B830004B6818788DF80F00FCF7EEFFB8B90523B8
:10B84000CDE904008DF8103004A89DF80F308DF874
:10B850001430FFF789FB08F039F90DF10F03CDE93A
:10B86000005048F20E0221463046FFF7ABFB06B00F
:10B8700070BD7FB50E4605460BF0EEFF04AC04F834
:10B88000040D08F023F901230190009348F20B0204
:10B89000234631462846FFF795FB04B070BD0B895F
:10B8A0000BB9FFF7E6BF704770B50B89092B8CB059
:10B8B00006460D465CD14C682388ADF81C30A37851
:10B8C0002BB1102B56D8013B012202FA03F3089347
:10B8D000E37843B1112B9DBF03F1FF33012202FA3C
:10B8E00003F34FF0FF33099323798DF82830B4F830
:10B8F000053003F00F03ADF82A30B4F80730ADF887
:10B900002C30B4F80700FEF729FB4FF6FF7398427E
:10B9100037D104238DF810302388ADF81130E37847
:10B920008DF81430A3788DF8133023798DF8153005
:10B93000B4F8053003F00F03ADF81630B4F8073053
:10B94000ADF8183008F0C2F80A23019000930622DF
:10B9500004AB29463046FFF735FB9DF810303BB964
:10B9600014238DF8083002A807AB0393FFF7FCFA05
:10B970000CB070BDFF2B4FF6FF7318BF4FF0FF33B5
:10B98000A5E707A80BF088FD00280CBF00230F23B4
:10B99000C0E7000037B50378012B03D00E2B1DD074
:10B9A00003B030BD154B42681B689A42F8D1144C65
:10B9B0002378012BF4D105F081F80AF0EFFD10B9DE
:10B9C00002232370ECE700251C236846CDE90055CF
:10B9D0008DF80030FFF7C8FA2570E1E7084D2B78A5
:10B9E000022BDDD100241C236846CDE900448DF8EC
:10B9F0000030FFF7B9FA2C70D2E700BFE039002021
:10BA0000DC39002030B50B89022B85B005460C4689
:10BA100014D14A6800218DF80C101288ADF80D2061
:10BA20008DF80F3008F052F804230190009348F28B
:10BA3000480203AB21462846FFF7C4FA05B030BDE3
:10BA40007FB504AC022304F8043D05460E4608F019
:10BA50003DF801230190009348F214022346314639
:10BA60002846FFF7AFFA04B070BD0A89012A05D154
:10BA70004B681B78012B01D8FFF7E2BF70470B8999
:10BA80000BB9FFF7DDBF70477FB504AC022304F8A4
:10BA9000043D05460E4608F019F801230190009375
:10BAA00048F21102234631462846FFF78BFA04B0CC
:10BAB00070BD0A89012A05D14B681B78012B01D87A
:10BAC000FFF7E2BF70470B890BB9FFF7DDBF704787
:10BAD00070B50B8988B006460D46FBB908A904234A
