:020000021000EC
:10C0000000FD012071290300992903009B290300E9
:10C010009D2903009F290300A129030000000000BF
:10C02000000000000000000000000000A329030041
:10C03000A529030000000000A7290300A929030087
:10C04000AB290300AB29030005C80100AB2903009D
:10C05000AB290300AB29030069E80100AB29030009
:10C06000AB290300AB290300CD130300AB29030068
:10C07000AB290300AB290300AB290300AB29030064
:10C08000AB290300E522030025CF0200AB29030002
:10C09000B5230300AB2903002DED0100AB290300FC
:10C0A000AB290300AB290300AB290300AB29030034
:10C0B000AB290300AB2903000000000000000000D2
:10C0C000AB290300AB290300AB290300AB29030014
:10C0D000AB290300AB290300AB290300AB29030004
:10C0E000AB29030000000000000000000000000079
:10C0F00000000000AB29030000000000AB29030092
:10C10000000000000000000000000000000000002F
:10C11000000000000000000000000000000000001F
:10C12000000000000000000000000000000000000F
:10C1300000000000000000000000000000000000FF
:10C1400000000000000000000000000000000000EF
:10C1500000000000000000000000000000000000DF
:10C1600000000000000000000000000000000000CF
:10C1700000000000000000000000000000000000BF
:10C1800000000000000000000000000000000000AF
:10C19000000000000000000000000000000000009F
:10C1A000000000000000000000000000000000008F
:10C1B000000000000000000000000000000000007F
:10C1C000000000000000000000000000000000006F
:10C1D000000000000000000000000000000000005F
:10C1E000000000000000000000000000000000004F
:10C1F000000000000000000000000000000000003F
:10C2000010B5054C237833B9044B13B10448AFF390
:10C2100000800123237010BD1820002000000000C2
:10C22000705B030008B5034B1BB103490348AFF330
:10C23000008008BD000000001C200020705B03008F
:10C24000154B002B08BF134B9D46A3F5803A0021E8
:10C250008B460F461348144A121A17F029FF0F4B4A
:10C26000002B00D098470E4B002B00D098470020A1
:10C27000002104000D000D48002802D00C48AFF347
:10C28000008017F0C7FE2000290000F009F917F020
:10C29000ADFE00BF0000080000FD0120000000000E
:10C2A000000000001820002048530020000000007B
:10C2B0000000000041DF704707B503781C2B2ED12A
:10C2C000184B1B685B0416D5174B1B68032B12DD3C
:10C2D0002F21164817F0BCFFC0B12F21134817F0CB
:10C2E000B7FF411C124B134AD3F8043500920420C7
:10C2F000912211F081FD0322C8214FF4F03002F0A9
:10C3000055FA03B05DF804EB0CF014BD5C2107484E
:10C3100017F09EFF08B15C21E0E70449E2E703B0B3
:10C320005DF804FB881F0020841F0020E842030002
:10C3300000100140034303007FB50378093B044626
:10C34000042B64D8DFE803F081858E0303000079B5
:10C35000022804F105055CD004286CD1B4F8132040
:10C36000B4F809309A425BD1D4F80F20D4F80530E4
:10C370009A4255D1D4F81530D4F80B2093422CBFF3
:10C3800000230123002B56D003A902A80CF0E2FCE5
:10C3900018B13B4A5C2116F016FB3A4A029B3A4E12
:10C3A00013443A4A5B08934224BF03F6FF731E40CE
:10C3B000374B1B683CBF02F6FF7216405B0417D573
:10C3C000344B1B68032B13DD2F212D4817F040FF42
:10C3D00040B32F212A4817F03BFF411C2E4B2F4A18
:10C3E000D3F80435009201966D22042011F004FD6B
:10C3F0003246294620790CF001FA18B1204A712101
:10C4000016F0E1FA00214FF4F03002F0C5F904B063
:10C4100070BDE27B63799A4202D1237CA279ADE7B9
:10C420000023AFE75C21164817F012FF08B15C212A
:10C43000D0E71349D2E729460CF02CFA0028E6D0C1
:10C440000F4A772116F0BFFAE1E701214FF42040AF
:10C45000DBE700214FF4F03002F09EF901214FF4A8
:10C46000C040D2E74FF4F030002102F095F9207976
:10C470000CF072FA0028CAD0014A8621E2E700BF18
:10C48000E842030000C0010000F0FFFF985E0300D7
:10C49000881F0020841F002000100140E04303009B
:10C4A00000B58DB016F0D0F818B18C4ABE2116F048
:10C4B0008AFA8B4E02F0ACF98A4A04214CF28700CA
:10C4C00011F07EFC33685C0418D5874B1B68032B86
:10C4D00014DD2F21814817F0BBFE002800F0CB802F
:10C4E0002F217E4817F0B4FE411C804B804AD3F8C0
:10C4F000043500920420C22211F07EFC02F078FA8A
:10C500000021242203A817F0D3FD01238DF80C305D
:10C5100007238DF80F3006238DF814307549764BBC
:10C52000079303A80CF0CCFBF0B10B2840F0B580CA
:10C530003368580418D56C4B1B68032B14DD2F216E
:10C54000664817F085FE002800F09E802F21634882
:10C5500017F07EFE411C654B684AD3F80435009203
:10C560000420AC2211F048FC002002F00BF818B1B6
:10C570005A4AB52116F027FA6148624B03600FF062
:10C58000F9FB3368590418D5574B1B68032B14DD8E
:10C590002F21524817F05CFE002800F083802F21E5
:10C5A0004E4817F055FE411C504B574AD3F80435FE
:10C5B00000920420C82211F01FFC4E4B1B787BB95F
:10C5C000524D0FCD03AC0FC495E8030084E803007F
:10C5D00003A802F07BF818B1404AD92116F0F3F90C
:10C5E00033685A0417D5404B1B68032B13DD2F21EA
:10C5F0003A4817F02DFE00285DD02F21374817F05C
:10C6000027FE411C394B424AD3F8043500920420DE
:10C61000DD2211F0F1FB01F0D0FF18B12F4ADE212D
:10C6200016F0D1F90CF0D6FB02F04EF90CF0CAFA74
:10C6300018B12A4AE32116F0C6F933685B0417D50E
:10C64000294B1B68032B13DD2F21244817F000FE14
:10C65000002839D02F21214817F0FAFD411C234B27
:10C660002C4AD3F8043500920420E52211F0C4FBD3
:10C67000FFF720FEFCE75C21184817F0E9FD08B140
:10C680005C212EE7154930E75C21144817F0E0FDE6
:10C6900008B15C215BE711495DE7104AB12116F052
:10C6A00092F961E75C210D4817F0D2FD08B15C21D9
:10C6B00076E70A4978E75C21084817F0C9FD08B118
:10C6C0005C219BE705499DE75C21044817F0C0FD0C
:10C6D00008B15C21BFE70149C1E700BFE8420300A0
:10C6E000881F002095DD0200841F002000100140FB
:10C6F0001C43030034200020B9C20100444303005E
:10C700003820002039C3010092430300D0420300C7
:10C71000AC430300CA430300002839D0002937D0B6
:10C720001C4B18601C4B19604FF0A0430C22C3F83F
:10C7300020274021C3F81C270322C3F81827C3F879
:10C740000815C3F81427154B0622C3F80C25082238
:10C75000C3F814250722C3F810250522C3F80825BD
:10C7600001210F4AC3F86C158420C3F82425042244
:10C77000C3F80025C3F804030020C3F80801C3F878
:10C780001C011960074BC02183F802131A6070471F
:10C790000E207047482000204C2000200020004040
:10C7A00000E0D70100E100E070B5124D124E134CCD
:10C7B00029783368002011B1D4F808216AB9D4F877
:10C7C0001C31ABB10023C4F81C31D4F81C310C4B24
:10C7D0001B686BB1BDE870401847C4F80801D4F875
:10C7E0000821002BE7D0D4F81805C0B29847DFE73E
:10C7F00070BD00BF442000204820002000200040E1
:10C800004C200020FFF7D0BF014B1870704700BFCD
:10C810004420002038B50B4D2B788BB90A4C0B48BF
:10C8200021460DF0FAFE58B923681979084B012208
:10C830002A70C3F81C1507490A80C3F81C019A60C6
:10C84000012038BD702200208C2400207C24002090
:10C85000002000405020002070B5174C237813B9F9
:10C8600078460CF08FF9154D296849B9144B01220F
:10C87000DA602170134BBDE87040186810F07CBA84
:10C88000114A08791388461CB3420BD101330F4873
:10C8900013800DF024FF0A4A002301212B60D16090
:10C8A0002370E7E7834206DC194401331380044B0D
:10C8B0000979C3F81C1570BD702200208C2400205B
:10C8C0000020004054200020502000207C24002024
:10C8D00008B54FF40272114911480DF09EFD11493F
:10C8E00011484FF402720DF098FD10491048FFF7FF
:10C8F00013FF10B178460CF045F90120FFF784FFD3
:10C900000C4A0D48002313700C4A13800C4A138004
:10C9100010F014FA0B4B186008BD00BF7422002001
:10C920007C2400205A2000206422002059C80100E5
:10C93000E9C901007022002015C801007222002000
:10C94000502000205420002037B5421C04460D46DC
:10C9500092B201A904480DF0DEFD18B9019B1A1D21
:10C960002A601C7103B030BD7C24002038B5044619
:10C9700010B978460CF006F9251FAB78012B02D0D0
:10C9800078460CF0FFF8227834F8043C9A4202D939
:10C9900078460CF0F7F810F061F9074B186810F0C2
:10C9A000EBF934F8042C054829460DF005FEBDE8E6
:10C9B000384010F093B900BF542000207C240020A0
:10C9C00013B5044601A90320FFF7BEFF48B9019A39
:10C9D00084235370019A9470019AD3700198FFF7E1
:10C9E000C5FF02B010BD00002DE9F041294A1388AF
:10C9F000074690461BB1013B1380BDE8F081264DF0
:10CA00002B8873BB254E348804B9441C012C07D8ED
:10CA1000013CA8F800400020BDE8F041FFF7D0BF7E
:10CA20001F480DF0EAFC8442F2D8B4F5807FEFD8BD
:10CA3000DFF870801A48224641460DF06CFD28B19F
:10CA400034800020BDE8F041FFF7DEBE338843B1FB
:10CA50002B88D8F8002030801A44013C013314712F
:10CA60002B80104C2B882168CA18013317710A7962
:10CA70009BB2013293422B80BFD1002BBDD00A88DC
:10CA8000074800260DF098FD266000F01BFB2E8065
:10CA9000B3E700BF5820002090240020722200201D
:10CAA000642200208824002013B5044601A90B4805
:10CAB0000DF0B3FD78B90199204631F8042B17F039
:10CAC000ECFA019905480DF00AFE0120FFF79CFEE3
:10CAD000012002B010BD0020FBE700BF642200204F
:10CAE00070B5044615461E46084649B900F002FBDB
:10CAF00033462A4601462046BDE8704000F030BB70
:10CB000000F0F8FA00231A46F4E770B445780023E1
:10CB1000934204D100231A468221284612E011F8DC
:10CB20003360AE4201EBC30412D1637802789342C2
:10CB300004D2A17801330B449A4206DD00231A4641
:10CB40008421304670BC00F00BBB636870BC184792
:10CB50000133DDE730B5C1B040ACFA2324F8FC3D29
:10CB6000054622460DF10601408803F0E1FE6D788E
:10CB7000034608B109280AD1184600F0BBFAFC2385
:10CB800022460146284600F0EBFA41B030BD00F0E5
:10CB9000B1FA00231A46F4E713B5044601AA416826
:10CBA000408803F09BFE0223014601AA6078FFF74C
:10CBB00097FF02B010BD13B5044601A9408803F0E9
:10CBC00077FE042301460DEB03026078FFF788FF30
:10CBD00002B010BD13B5044601A9408803F05CFE05
:10CBE0000123014601AA6078FFF77AFF02B010BD69
:10CBF00013B5044601A9408803F042FE0123014613
:10CC000001AA6078FFF76CFF02B010BD13B50446AF
:10CC100001A9408803F028FE0223014601AA60789A
:10CC2000FFF75EFF02B010BD10B504468188408852
:10CC300003F006FE647800F05DFA002301461A4610
:10CC40002046BDE8104000F08BBA13B5044601A998
:10CC5000408803F0E1FD0123014601AA6078FFF757
:10CC60003FFF02B010BD10B504460179408803F0C3
:10CC7000B7FD647800F03EFA002301461A462046CC
:10CC8000BDE8104000F06CBA13B5044601A9408815
:10CC900003F056FD0223014601AA6078FFF720FF4A
:10CCA00002B010BD10B504468188408803F02EFD07
:10CCB000647800F01FFA002301461A462046BDE8BA
:10CCC000104000F04DBA30B5C1B040AC7D2324F81F
:10CCD000FC3D054622460DF10601408803F0E8FCC4
:10CCE0006D78034608B109280AD1184600F002FA07
:10CCF000FC2322460146284600F032FA41B030BDFE
:10CD000000F0F8F900231A46F4E710B504468188CC
:10CD1000408803F0ABFC647800F0ECF90023014696
:10CD20001A462046BDE8104000F01ABA10B5044675
:10CD30008188408803F076FC647800F0DBF90023FA
:10CD400001461A462046BDE8104000F009BA30B549
:10CD5000C1B040ACFA2324F8FC3D054622460DF153
:10CD60000601408803F022FC6D78034608B10928CB
:10CD70000AD1184600F0BEF9FC2322460146284697
:10CD800000F0EEF941B030BD00F0B4F900231A46CE
:10CD9000F4E710B504468188408803F0DBFB647833
:10CDA00000F0A8F9002301461A462046BDE81040CD
:10CDB00000F0D6B910B504468188408803F09CFB8A
:10CDC000647800F097F9002301461A462046BDE832
:10CDD000104000F0C5B913B504460DF1050201A9D4
:10CDE000408803F083FA0223014601AA6078FFF726
:10CDF00077FE02B010BD10B5044642790179408833
:10CE000003F010FB647800F075F9002301461A4620
:10CE10002046BDE8104000F0A3B913B5044601A9AF
:10CE2000408803F015FA0223014601AA6078FFF753
:10CE300057FE02B010BD10B504468188408803F04B
:10CE4000EDF9647800F056F9002301461A462046B1
:10CE5000BDE8104000F084B910B54378F42B0446C7
:10CE600002D978460BF08EFE204615220249BDE815
:10CE70001040FFF74ABE00BF3044030010B504461F
:10CE80004078452886B00FD842281DD240281BD0B4
:10CE9000412820D040381F2802D978460BF072FE76
:10CEA00000231A46822139E053282ED05428F1D18C
:10CEB0002378012B12D10BF08DFF1022014602A81E
:10CEC00017F0EBF810231EE000231A46822100F031
:10CED00047F906B010BD2378012B03D000231A4672
:10CEE0008421F4E7684614F0FFF89DF8003006222C
:10CEF000C3F346030DF101010DF109008DF808306F
:10CF000017F0CBF8072302AA07E02378112BE5D10D
:10CF1000A01C0BF039FF00231A4600216078D6E7E9
:10CF200010B504464078782811D12046002210F828
:10CF3000021B01390BF0F2FB647800F0DBF80023F0
:10CF400001461A462046BDE8104000F009B900230A
:10CF50001A468221F7E7000038B5054D2C782CB928
:10CF6000FFF7B6FC01232B70204638BD0820FCE7F4
:10CF70009324002010B50B4B1B78022B10D1FFF728
:10CF8000E3FC0428044604D0092802D020B9204636
:10CF900010BD01F0EDFAFAE778460BF0F3FDF6E785
:10CFA0000824F4E79324002010B5064B1B78022BCD
:10CFB000044602D078460BF0E5FD2046BDE810405F
:10CFC000FFF7D4BC932400207FB5374D2B78012B7D
:10CFD00025D0364B1B681A0416D5354B1B68012B20
:10CFE00012DD2F21334817F033F978B12F21314862
:10CFF00017F02EF9411C304B304AD3F8043500921B
:10D000000220992210F0F8FE08242EE05C21294825
:10D0100017F01EF908B15C21E9E72649EBE7022683
:10D0200003A904202E70FFF7A5FF044648B31F4B49
:10D030001B681B0417D51E4B1B68002B13DD2F210B
:10D040001C4817F005F998B12F211A4817F000F97C
:10D05000411C194B1A4AD3F8043500920194A322BB
:10D06000012010F0C9FE01232B70204604B070BDD2
:10D070005C21104817F0ECF808B15C21E5E70D4998
:10D08000E7E7039B81225A70039B9E704FF0804319
:10D09000039AD3F8003403F00803D3700398FE23F7
:10D0A0000371FFF781FFE0E793240020881F002031
:10D0B000841F002037450300001001405345030042
:10D0C0006445030038B5084C25785DB9074B1B78DB
:10D0D000022B07D101232946054823700FF0A4FD38
:10D0E00000B1257038BD00BF922400209324002099
:10D0F000B9D10100092823D009D8032826D001D8A6
:10D1000018B97047072819D016D9832070470E2800
:10D110001CD008D80B2815D0F7D30C2810D00D2818
:10D1200012D08020704710280CD005D311280FD0C2
:10D1300043F201039842F4D18E2070478520704756
:10D140008420704787207047932070478120704764
:10D1500086207047014B1878704700BF9324002049
:10D16000F7B507460E461C461546EAB1F3B1114B1A
:10D170001B78022B16D1E01C01A980B2FFF7FAFE42
:10D1800080B9019B84225A70019B9F70019BDE70C5
:10D190002DB1019822462946043016F07EFF0198F1
:10D1A000FFF702FF03B0F0BD002BE0D078460BF094
:10D1B000E9FCDCE79324002070B5274B274C284D71
:10D1C000284E0022C2B01A7002A8FFF76DFC08B901
:10D1D00042B070BD9DF80910002314F83300884256
:10D1E0004FEAC30207D822445078884203D35368D9
:10D1F00002A89847E8E70133092BEED12B681B04FE
:10D2000018D5194B1B68012B14DD2F21174817F077
:10D210001FF8B8B12F21154817F01AF8411C9DF8D6
:10D220000920D6F804350192114A00920220812289
:10D2300010F0E2FD00231A4682219DF80900FFF755
:10D240008FFFC1E75C21094817F002F808B15C21A3
:10D25000E1E70649E3E700BF92240020D844030039
:10D26000881F002000100140841F00203745030064
:10D2700020450300064B984206D003F59A73984266
:10D2800004D10120C0B270470020FBE7FF207047A7
:10D290004428002037B5037804460C2B73D8DFE808
:10D2A00013F00D003300420074007D00E300F7002E
:10D2B000B600720052008600CB000C01844B1B7834
:10D2C000002B60D001A91A20FFF754FE00285AD184
:10D2D000019BC0225A70019D1022211DA81C16F02E
:10D2E000DCFEE36993F90D30AB74237DEB74E369E5
:10D2F0009B7BC3F346032B75E16906220F3105F1D1
:10D30000150016F0CAFE3BE001A90220FFF732FE2D
:10D31000002838D1019BC1225A706068FFF7AAFF2C
:10D32000019B98702CE001A90320FFF723FE50BB5E
:10D33000019BC2225A706068019AFFF79BFF9070B0
:10D34000237AD3701CE001A90B20FFF713FED0B99C
:10D35000019BC3225A706068019AFFF78BFF90709F
:10D36000237AD370E37A1371237B5371637B9371B8
:10D37000E389A2F80730237C5372B4F8113053814B
:10D380000198FFF711FE03B030BD01A90320FFF79C
:10D39000F1FD0028F7D1019BC422CBE701A90220AF
:10D3A000FFF7E8FD0028EED1019BCA22B4E701A9EE
:10D3B0002C20FFF7DFFD0028E5D1019BC5225A7024
:10D3C0006068019DFFF756FFA870E368D3F812303C
:10D3D000C5F80330E368DB8AA5F80930E3681B8AE7
:10D3E000A5F80730E3681B7EC3F30003EB72E36824
:10D3F0001B7EC3F340032B731022A16805F10D00BF
:10D4000016F04BFE1022E16805F11D0079E701A935
:10D410000520FFF7AFFD01460028B4D1019BC622CD
:10D420005A706068019AFFF725FF0123D37090704E
:10D43000117110235371A3E701A96220FFF79AFD30
:10D440000028A0D1019BC7225A706068019DFFF798
:10D4500011FFA8704022A168E81C16F01EFE2022D1
:10D46000E16805F143004CE701A91320FFF782FDB5
:10D47000002888D1019BC8225A706068019DFFF77F
:10D48000F9FEA870237AEB70627AE168281D38E70C
:10D4900001A90520FFF76EFD00287FF474AF019B02
:10D4A000C6225A706068019AFFF7E4FE0323907069
:10D4B000D370237A1371637ABCE701A90320FFF7C5
:10D4C00059FD00287FF45FAF019BC92232E700BFFE
:10D4D000F72A002007B5244B1B681B0418D5234BE3
:10D4E0001B68032B14DD2F21214816F0B1FE002804
:10D4F00030D02F211E4816F0ABFE411C1D4B1E4A9A
:10D50000D3F804350092042040F20B1210F074FCA2
:10D510001A491B4808F022FD10B178460BF032FB87
:10D5200018480AF07BF90146174808F003FD10B1CE
:10D5300078460BF027FB15480AF070F901461448AD
:10D5400008F0F8FC10B178460BF01CFB002003B08B
:10D550005DF804FB5C21064816F07AFE08B15C21F8
:10D56000C8E70349CAE700BF881F0020841F0020C6
:10D570009A45030000100140C34503002428002001
:10D58000B72A002094240020442800205C26002094
:10D590007829002070B54378613B8AB00446092B96
:10D5A0007FD8DFE813F00A0022002E0082007E0000
:10D5B0009900B000C900DE00EA007B4B1A7832B156
:10D5C00000231A4683216120FFF7CAFD69E001228A
:10D5D00076481A7008F0D9FD10B178460BF0D2FAEF
:10D5E00000231A4619466078EEE76F4A13781BB994
:10D5F0001A4683216220E7E70025157008F0CDFD6B
:10D60000EEE78378012B4ED81922002103A816F0EB
:10D610004FFD102204F1130103A816F03EFD022273
:10D6200004F1230107A816F038FD042204F12501B6
:10D630000DF11E0016F031FD022204F129010DF159
:10D64000220016F02AFD94F82B209DF82430A078B3
:10D65000574D584962F3000394F82C2062F34103BC
:10D660008DF824304FF49A76504B0093524A534B26
:10D6700006FB005008F044FC50B9A07894F82D2027
:10D6800001230093E11C03AB06FB005008F0C4FC2F
:10D69000A3788DF80C300146012303AA6320FFF71D
:10D6A0001FFA0AB070BD0B20F2E7404B0093424ACC
:10D6B000424B40493E4808F023FC28B90246014647
:10D6C00001233B4808F063FC6478FFF713FD002357
:10D6D00001461A46204677E78578012D11D8C17892
:10D6E0004379027932484FF49A7606FB050008F038
:10D6F000BFFC01460AAAA37802F81C3D662001235C
:10D70000CDE70B21F6E78378012B13D80146284893
:10D7100011F8032B4FF49A75023AD2B205FB0300BD
:10D7200008F0B2FC01460AAAA37802F81C3D672063
:10D730000123B4E70B21F6E78378012B0FD81C4AAD
:10D74000C11C4FF49A7000FB032008F017FD01463E
:10D750000AAAA37802F81C3D682001239FE70B2149
:10D76000F6E7811C2022144816F097FC402204F1B1
:10D770002201104816F091FC32E7104A83781370AA
:10D780000023937001215170C178D170017911711A
:10D79000017A1172B0F80910A2F80910417951719B
:10D7A000C188D1801DE700BFF72A002095D2010073
:10D7B00044280020B72A002024280020AC2A00207A
:10D7C00013B50378073B0446062B29D8DFE803F09E
:10D7D000334F5D7590042A0001A91620FFF7CAFB9C
:10D7E000F0B9019BA5225A70019B22799A702346B9
:10D7F000019853F8052FC0F803205A68C0F8072095
:10D800001B89A0F80B30019854F80F3FC0F80D3079
:10D810006368C0F811302389A0F81530FFF7C4FB06
:10D8200002B010BD01A91620FFF7A4FB0028F7D114
:10D83000019BA622D7E701A90D20FFF79BFB00283B
:10D84000EED1019BA0225A70019B22799A70234647
:10D85000019853F8052FC0F803205A68C0F8072034
:10D860001B89A0F80B300198E37B4373D6E701A92D
:10D870000220FFF77FFB0028D2D1019BA1225A7022
:10D88000019B22799A700198C8E701A90D20FFF742
:10D8900071FB0028C4D1019BA2225A70019B2279FE
:10D8A0009A70019B6279DA70019854F8063F4360E0
:10D8B0006368836023898381B0E701A90E20FFF7A5
:10D8C00059FB0028ACD1019BA3225A70019B2279FD
:10D8D0009A70019B6279DA702346019853F8062FFB
:10D8E00042605A6882601B898381237C837395E739
:10D8F00001A91520FFF73EFB002891D1019BA4222E
:10D900005A70019B22799A702346019853F8052F8B
:10D91000C0F803205A68C0F807201B89A0F80B3014
:10D9200001982369C0F80D306369C0F81130237E77
:10D93000437573E70248034B03600EF01BBA00BF48
:10D94000F82A0020C1D7010010B504464078A0F1A4
:10D95000D003062B8AB00BD84E4A2178D25C914274
:10D9600006D000231A468421FFF7FAFB0AB010BD47
:10D97000062B00F28280DFE803F0040D14191C402E
:10D980004C000AF05BFC6478FFF7B4FB00231A46F6
:10D99000014630E0D4F80D20A078E11C0AF02EFFFB
:10D9A000F1E7E11CA0780AF075FFECE70AF0A6FFAA
:10D9B000E9E76946A0780AF0B7FF647801460028D5
:10D9C000E2D19DF800308DF814300AAB53F8272DC2
:10D9D000CDF815205A681B89ADF81D309DF80B3025
:10D9E0008DF81F30039B0893049B09931423CDF8F3
:10D9F00019200DEB03022046B6E72378022B04D052
:10DA000000231A468421D520AEE7A0780AF0A4FFAF
:10DA1000B9E72378012B04D000231A468421D620AD
:10DA2000A2E700210A220DF1020016F041FB684630
:10DA30000AF02AFC647801460028A5D19DF8003040
:10DA40008DF814309DF801308DF81530DDF8023076
:10DA5000CDF81630DDF80630CDF81A30BDF80A30B2
:10DA6000ADF81E309DF80C308DF820309DF80D304B
:10DA70008DF8213005AA0E23BDE73030C0B20F2843
:10DA800002D978460BF07EF800231A46822160788E
:10DA90006AE700BFE5450300F8B503780446052BA7
:10DAA00000F29880DFE803F0038A556596750789D0
:10DAB000494EEB2F384628BFEB201430314680B258
:10DAC000FFF758FA002840F0858035682389A5F8CB
:10DAD0001330237D012B2FD1D0236B70E38AAB80D1
:10DAE000E3896B80206A04F04FFAE880E06904F073
:10DAF00037FA288194F82430AB72A36A9B7BC3F376
:10DB00004603EB72A16A06220F3105F10C0016F0F4
:10DB1000C4FAA36A93F90D30AB7447B1EB2F3A46C0
:10DB2000616828BFEB2205F1150016F0B6FA3068DF
:10DB3000BDE8F840FFF738BAD1236B70291D04F116
:10DB4000140004F0B3F90028CAD078460BF01AF894
:10DB5000C6E7214D05202946FFF70CFA002839D1E8
:10DB60002B68D3225A702B68E268C3F80220286819
:10DB7000DEE7194D04202946FFF7FCF950BB2B685E
:10DB8000D4225A702B68A2885A802868237B03719C
:10DB9000CEE7114D07202946FFF7ECF9D0B92B68E5
:10DBA000D8225A702B6822799A702B686279DA70C1
:10DBB0002868E38883802389C380B9E7064D052060
:10DBC0002946FFF7D7F928B92B68D2225A702B685B
:10DBD0006268CAE7F8BD00BF102B002010B50446EC
:10DBE000408807F029FB002301461A466078BDE80B
:10DBF0001040FEF775BF07B502AA102322F8043DB6
:10DC0000002102234078FEF76BFF03B05DF804FBB0
:10DC100007B502AA012322F8043D0021022340781F
:10DC2000FEF75EFF03B05DF804FB07B502AA082308
:10DC300022F8043D002102234078FEF751FF03B093
:10DC40005DF804FBFFF7F1BF07B502AA042322F831
:10DC5000043D002102234078FEF742FF03B05DF847
:10DC600004FB10B5044602F075F903F017FF0DF040
:10DC70009FFA002360781A461946BDE81040FFF766
:10DC80006FBA13B50446684604F002F8BDF80030D8
:10DC9000ADF80430BDF80230ADF8063004230DEBCA
:10DCA000030200216078FEF71BFF02B010BD10B523
:10DCB0008CB000210446242203A816F0F9F90EF0D6
:10DCC00061F803A90190E08804F05CF8002839D1DC
:10DCD00002A803F0DDFFA288BDF808108A423AD3FB
:10DCE000BDF80A300B449A4235DA09AA61884FF62A
:10DCF000FF7004F019FE28BB6279237943EA0223FE
:10DD0000ADF81430237A8DF81630637A003318BFDB
:10DD100001238DF81730A37A8DF8183023780B2B58
:10DD200083BF0B3B04F10C02ADF82030079098BF85
:10DD3000ADF82000019B88BF0792002103A80B9338
:10DD40000EF016F8042301460DEB03026078FEF78F
:10DD5000C7FE0CB010BD1020F4E710B5C0B07E2394
:10DD60000446694601A8009304F068F8009B014648
:10DD7000607833B15B009BB201AAFEF7B1FE40B000
:10DD800010BD1A46F9E730B589B0694604464088A7
:10DD900003F0F8FF16220546002102A816F088F9C4
:10DDA0000DBBA378E27843EA0223ADF80830684659
:10DDB0009DF800308DF80A3005F006F80199BDF89D
:10DDC00002308DF80B00ADF80C3071B110220DF15E
:10DDD0000E0016F062F9162302AA29466078FEF7B3
:10DDE0007FFE09B030BD0023F6E70623F4E713B544
:10DDF0000446408803F080FFE278A37843EA0223D8
:10DE000002AA014622F8043D60780223FEF768FE6C
:10DE100002B010BD13B504460DF10601023003F047
:10DE200067FF02AABDF8063022F8043D014602232E
:10DE30006078FEF755FE02B010BD13B504460DF133
:10DE40000601408803F034FF02AABDF8063022F82C
:10DE5000043D014602236078FEF742FE02B010BD89
:10DE600013B50446408803F0BBFFE278A37843EA89
:10DE7000022302AA014622F8043D60780223FEF73D
:10DE80002FFE02B010BD13B504460DF1060102309D
:10DE900003F059FF02AABDF8063022F8043D0146FE
:10DEA00002236078FEF71CFE02B010BD13B50446D5
:10DEB0000DF10601408803F043FF02AABDF80630C9
:10DEC00022F8043D014602236078FEF709FE02B005
:10DED00010BD13B5C278837843EA0223ADF804304D
:10DEE00042790379044643EA022301A8ADF80630DB
:10DEF00003F098FE002301461A466078FEF7F0FD15
:10DF000002B010BD13B50446408804F063FBE2780C
:10DF1000A37843EA022302AA014622F8043D60786E
:10DF20000223FEF7DDFD02B010BD13B5821D0446CD
:10DF300001AB8188408804F09DFA0223014601AAC2
:10DF40006078FEF7CDFD02B010BD30B5C1B07D23C5
:10DF5000009340AC05460DF10601408824F8FC0D05
:10DF60006A4604F0A1FC009B0146687823B91A4672
:10DF7000FEF7B6FD41B030BD01335B009BB22246D7
:10DF8000F6E713B50446408804F026FCE278A3784F
:10DF900043EA022302AA014622F8043D60780223E4
:10DFA000FEF79EFD02B010BD13B50446011D40886A
:10DFB00004F0C4FBE278A37843EA022302AA0146F4
:10DFC00022F8043D60780223FEF78AFD02B010BDFE
:10DFD00013B5821D04460DF106038188408804F0C4
:10DFE00013FB02AABDF8063022F8043D01460223C5
:10DFF0006078FEF775FD02B010BD10B5C0B07E238D
:10E000000446694601A8009304F006FA009B014605
:10E01000607823B91A46FEF763FD40B010BD5B007F
:10E020009BB201AAF7E713B50446408804F0EAFB67
:10E03000E278A37843EA022302AA014622F8043DCB
:10E0400060780223FEF74CFD02B010BD13B5044604
:10E05000011D408804F0B2F8E278A37843EA022375
:10E0600002AA014622F8043D60780223FEF738FD3B
:10E0700002B010BD13B504460DF10602011D408823
:10E0800003F0F0FF02AABDF8063022F8043D014675
:10E0900002236078FEF724FD02B010BD10B544786D
:10E0A0000DF050FE002301461A462046BDE8104000
:10E0B000FEF716BD10B544780DF0EEFD00230146C5
:10E0C0001A462046BDE81040FEF70ABD0248034B41
:10E0D00003600DF04FBE00BF042B002099DA010051
:10E0E00070B543787033DBB21F2B054602D97846F2
:10E0F0000AF048FD6878AD2806D900231A46822127
:10E10000BDE87040FFF72CB8A0F190060E4C14F853
:10E110003620824202D078460AF034FD04EBC60372
:10E1200029785A788A4204D298780132024491427E
:10E1300004DD00231A4684216878E1E728465B68FD
:10E14000BDE87040184700BFEC45030038B50D4CE2
:10E15000636805460BB9002038BD0422214615F03E
:10E160008DFF58B12369002BF5D0042204F10C0176
:10E17000284615F083FF0028EDD101200C2303FB76
:10E180000040E9E7142B002070B5C0B00546694691
:10E19000408802F08DFB0446E0B96846FFF7D6FFE1
:10E1A000B8B140AE836806F8FC4DA81C31469847CC
:10E1B0009DF8043004466BB16C78FEF79BFF9DF828
:10E1C00004300146013332462046FEF7C9FF40B015
:10E1D00070BD052420466D78FEF78CFF00230146B4
:10E1E0001A462846F1E737B5851C04462846FFF74E
:10E1F000ADFF0023ADF8043080B143680DF1060196
:10E2000028469847BDF80630ADF804300146022391
:10E2100001AA6078FEF764FC03B030BD0521F6E783
:10E2200030B51B4DC1B00446FA22002101A815F0FB
:10E230003FFF6B68F3B104220DEB0203981C2946E3
:10E2400015F02BFFBDF804002B69013080B2ADF84A
:10E2500004007BB13D2819D801AB03EB80000422F8
:10E2600005F10C01023015F018FFBDF80430013340
:10E27000ADF804300021BDF8043060789B00023313
:10E280009BB201AAFEF72CFC41B030BD0C21F2E795
:10E29000142B002010B54378FF2B044602D178469A
:10E2A0000AF070FC204603220249BDE81040FEF748
:10E2B0002CBC00BFDC46030010B50422044600213C
:10E2C000054815F0F5FE002360781A461946BDE8AA
:10E2D0001040FEF745BF00BF682C002013B5042294
:10E2E000044600210DEB020015F0E2FE054B6078BC
:10E2F0001B68019304230DEB03020021FEF730FF9E
:10E3000002B010BD682C002007B502AA0A2322F82B
:10E31000043D002102234078FEF722FF03B05DF8A0
:10E3200004FB00231A4682214078FEF719BFFFF74D
:10E33000F8BF000037B58478054684BBD0F80510D7
:10E34000184812F094FE05222146684615F0B0FEEA
:10E3500029799DF80330224641FA02F0C00708D51A
:10E3600002AC581C234402F1250403F8084CC3B244
:10E3700001240132032AEFD10CB18DF80330094892
:10E38000694612F026FE00206C78FEF7B3FE0023EB
:10E3900001461A462046FEF7E3FE03B030BD0720D3
:10E3A000F2E700BF302B002070B584780546BCB979
:10E3B0000D4E3378012B15D1301D12F085FEAA7851
:10E3C0004FF49E7353432046F4546C78FEF792FE4C
:10E3D000002301461A462046BDE87040FEF7C0BE45
:10E3E0000720F2E70820F0E72C2B00202DE9F04170
:10E3F000847805465CBB0678DFF85C80023E3146D7
:10E4000008F1040012F06FFD074610B3FF230371FB
:10E410003246E91C113015F040FEA8784FF49E7684
:10E4200006FB00800430394612F098FDAB785E435D
:10E43000012308F8063020466C78FEF75BFE0023C7
:10E4400001461A462046BDE8F041FEF789BE072086
:10E45000F2E70420F0E700BF2C2B002010B50446A3
:10E4600001200DF0DDFC002360781A468E21BDE806
:10E470001040FEF775BE13B5044601A90078FEF7FB
:10E4800079FD60B9019B82225A70019810F8022B25
:10E49000A11C013A15F001FE0198FEF785FD02B0BE
:10E4A00010BD00002DE9F7438578044645B10023EF
:10E4B0001A4685216078FEF753FE03B0BDE8F0836D
:10E4C000194E8DF800508DF80250A6F178074FF0E4
:10E4D000010897F87B30AB4210D87B6F4FF47A720B
:10E4E00003F5FA73B3FBF2F3CDF8033097F82C3051
:10E4F0008DF801306A4607230021DBE73378253B9E
:10E50000022BB14602D978460AF03CFB99F800305C
:10E510009DF80220253B08FA03F3134301368DF8DA
:10E5200002300135D5E700BFA42B002010B5064A04
:10E53000141D20469C23A032002112F0F1FD20463C
:10E54000BDE8104012F0B2BC2C2B002010B543786F
:10E550001F2B044602D978460AF014FB20460B22F2
:10E560000249BDE81040FEF7D0BA00BFF4460300F0
:10E57000034A1368591C1CBF01331360704700BF66
:10E58000682C002038B50546FEF7E4FD98B9FEF783
:10E59000A1FF044668B9FEF7DFFC044648B9FFF75F
:10E5A000C5FFFFF793FDFFF7C5F915B1284600F049
:10E5B00007F8204638BD0824FBE7FEF705BD00003C
:10E5C000014B1860704700BF6C2C002010B5094B40
:10E5D0001B6804465BB110F8021B01399847002301
:10E5E0001A4619466078BDE81040FEF7B9BD1A46D4
:10E5F0008E21F7E76C2C002010B50749074807F07B
:10E60000ADFC024638B90649064809690123BDE850
:10E61000104007F0BCBC10BD8C2C0020A82F00209F
:10E62000742C0020742E002010B50378023B082BB8
:10E630002CD8DFE803F01B05102B2B2C2B2B3800DC
:10E640001E4B5B6813B3007A00B31D4A01211170A1
:10E65000BDE810401847194B9B68BBB1184A1178A8
:10E66000A1B100211170BDE810401847154B1A7870
:10E67000124B42B9DB6813B111490A709847BDE8E3
:10E680001040FFF7B9BF1B68002BECD110BD0B4B3E
:10E690000D485969102207F0F7FC0028F6D0BDE8B4
:10E6A000104014F083B9D0E902100AF08DFA08B1D5
:10E6B00014F07CF9034B01221A70E7E7742C002058
:10E6C000702C0020712C0020742E002070B5164A8A
:10E6D000164E5168044686B0106803AB03C3118917
:10E6E000927A19809A700FCC35460FC594E80300D2
:10E6F00085E803007369A3B10D4B00930D4A0E49E1
:10E700000E4803AB07F0FCFB48B90D4809F086F84A
:10E7100001460A4807F00EFC08B9FFF76DFF06B086
:10E7200070BD0720FBE700BF4C470300742C00209E
:10E7300029E601008C2C0020A82F0020742E002038
:10E74000AC2C002070B5104C206808B914F02EF9DC
:10E750004FF0A0450D4ED5F8043532685340C5F84A
:10E7600004352368013B236063B9094814F020F89D
:10E770003268D5F8043523EA0203064A12681343C7
:10E78000C5F8043570BD00BFE82F0020EC2F002035
:10E79000F02F0020183000204FF0A04311B1C3F833
:10E7A0000C057047C3F8080570470000F8B52AB398
:10E7B000132923D9124B134D5200013A4FF0A044B4
:10E7C0001A602860D4F8043518400F4B4FF4FA76DD
:10E7D000186000274FF40040E0FB01674FF47A72A5
:10E7E00000233046394615F081FA002201460748D9
:10E7F00013F096FF10B92B68C4F80C35F8BD00BFB4
:10E80000E82F0020EC2F002018300020F02F0020EF
:10E8100008B54FF0A04303224FF40051C3F834274A
:10E82000C3F808154FF48041C3F83827C3F808151A
:10E830004FF40041C3F83C27C3F80815C3F840273C
:10E840004FF48032C3F808250121054A054813F02A
:10E8500055FF18B1BDE8084014F0A8B808BD00BFC6
:10E8600045E7010058470300124B70B50024124ED3
:10E87000124DC3F87C414FF0A043A15DD3F81025A1
:10E8800001238B40934311D00D49D5F804250B6823
:10E89000981A48BFD01A43F23333984206D9D5F8B4
:10E8A00004350B60074B20461B6898470134042C45
:10E8B000E1D170BD006000405C47030000100140E2
:10E8C000143000201030002070B50446CEB000286F
:10E8D00064D03C4D2A6852042FD53B4B1B68032B58
:10E8E0002BDD3A4B0DAE19680023E25C100902F0F3
:10E8F0000F02085C06F81300885C06EB4302013344
:10E90000102B5070F1D100232F21314886F8203090
:10E9100015F09EFC002843D02F212D4815F098FCBF
:10E92000411C2C4B2C4AD3F8043501922B4A0092FF
:10E930000296412204200FF05FFA2B685B042DD56C
:10E94000214B1B68032B29DD2F21214815F080FC6A
:10E9500000282ED02F211E4815F07AFC411C1D4B9B
:10E96000E27BD3F804350B92A27B0A92627B099278
:10E97000227B0892E27A0792A27A0692627A059244
:10E98000227A0492E2880392A2880292226801927B
:10E99000134A0092042046220FF02EFA4EB070BDAA
:10E9A0005C210B4815F054FC08B15C21B5E708491F
:10E9B000B7E75C21064815F04BFC08B15C21CAE7BB
:10E9C0000349CCE7881F0020841F00208C1F0020F3
:10E9D0006047030000100140884703009A47030086
:10E9E000A247030060DF704769DF70470DF0C4B9CC
:10E9F00010B588B000F04AF908B113F0D7FF2B4BDF
:10EA00000393039B04930C22002105A815F050FBEF
:10EA10000023049A8DF8143005A90120FFF7E4FFC4
:10EA200008B113F0C3FF0C22002105A815F040FB2C
:10EA3000F823049A059305A9A120FFF7D5FF08B193
:10EA400013F0B4FF04A8FFF7CDFF039B049A9A428A
:10EA500004461CD0164B1B685B0418D5154B1B686D
:10EA6000012B14DD2F21144815F0F2FBA8B12F2142
:10EA7000114815F0EDFB411C104B049AD3F80435F6
:10EA800001920F4A00920220A2220FF0B5F914B1B0
:10EA9000204613F08BFF08B010BD5C21064815F02E
:10EAA000D7FB08B15C21E3E70349E5E7601F0020DD
:10EAB000881F0020841F0020E2470300001001404F
:10EAC0001248030070B5EFF3108672B60C4A9468D2
:10EAD00001239CB993600B4B0B4DD3F88010294058
:10EAE0001160C3F88050D3F8841051604FF0FF32AA
:10EAF000C3F88420047006B962B670BD0370FAE7EB
:10EB00009852002000E100E0FC06FFBD10B5084B64
:10EB10009A685AB150B9EFF3108172B6054A1C6871
:10EB200014605C685460986001B962B610BD00BFA3
:10EB30009852002000E100E001600B6843604A68E1
:10EB4000934204BF002343607047436843B10268A7
:10EB500091680B4443605268934204BF00234360B2
:10EB600070474BDF704700001FB50D4C01A8FFF741
:10EB7000F8FF70B9214602A8FFF7DEFF039B002BC8
:10EB8000F4D00198D3E90021904702A8FFF7DDFFF8
:10EB9000F4E7052801D013F009FF04B010BD00BF51
:10EBA0004C48030061DF704730B5114B1B7891B0C2
:10EBB000E3B1104D34240DF1020103A8ADF8024079
:10EBC000FFF7F0FF70B9294601A8FFF7B5FF029BD8
:10EBD000002BF0D003A8D3E90021904701A8FFF74C
:10EBE000B4FFF4E7052801D013F0E0FE11B030BD0A
:10EBF0001C3000205848030010DF704713B504464E
:10EC000009496846FFF798FF019808B902B010BD9E
:10EC1000D0E900312046984718B16846FFF795FFC4
:10EC2000F2E71120F2E700BF6848030013B504467D
:10EC300007496846FFF780FF019B0BB902B010BD82
:10EC40002046D3E9002190476846FFF77EFFF3E7AF
:10EC5000804803000B4991F816335A09EC231341FD
:10EC6000DB0706D5084B9A683AB94FF480030B606E
:10EC7000704742F2020013F099BE1A6842F4800213
:10EC80001A60704700E100E098520020F7B5184F75
:10EC90003C785CBB174E012520463570FFF7AEFF70
:10ECA000112820D02046FFF7C1FF134B18680190B0
:10ECB00002A800F8054DFFF705FF104901A8FFF76E
:10ECC0009BFF0446B0FA80F0400938709DF80300BD
:10ECD000FFF71CFF3CB90A4B34701C70FFF7BAFFFA
:10ECE0002846FFF7A3FF204603B0F0BD0824FAE74B
:10ECF0001E3000201D30002064480300858902007A
:10ED00001F30002007B508496846FFF715FF019B33
:10ED100013B903B05DF804FBD3E9002090476846BF
:10ED2000FFF713FFF3E700BF74480300FFF7EABFE4
:10ED300038B5837803F003020446032A22D8DFE8BB
:10ED400002F00214191D9B08154A16481268134454
:10ED50000268A3600021EAB195685D1B002D16DAF8
:10ED6000D1B91146E160046038BD9B0803EB830311
:10ED70005B00E9E79B0864225343E5E79B0841F207
:10ED80007072F9E7784609F0FDFE0023DCE71146D2
:10ED9000D268E0E70029E5D0CC60E260E4E700BF9C
:10EDA000383000204030002008B5032809D8DFE8BB
:10EDB00000F00D020406064808BD0648FCE70648B8
:10EDC000FAE7784609F0DEFE0020F5E70348F3E7AE
:10EDD00040420F00809698000046C323A0860100A1
:10EDE0002DE9F041574D2B78A3B1574B574E5C6836
:10EDF0000DF018FA241A3078FFF7D6FF3278544B0A
:10EE0000001B002A40D14CF2503290423CD91A6883
:10EE100001321A60DFF84881D8F80020002A00F09B
:10EE200087804A4E9378307803F003038342344658
:10EE300064DD474B97681B68FB1A464F5F43FFF73B
:10EE4000B3FFD8F80030B7FBF0F09F78C7F30107A5
:10EE5000FBB2022B1FD031D8012B47D10A22B0FBC5
:10EE6000F2F302FB1300002840D10DF0DBF900F5AE
:10EE7000742101F5107137702B78002B50D0324877
:10EE8000BDE8F0410DF0A5B91A683249B0FBF1F0C8
:10EE900010441860BEE7337863B96422B0FBF2F324
:10EEA00002FB130010BB0DF0BDF92B4902230144F6
:10EEB0002370E1E7012B19D10A22EFE7337863B918
:10EEC00041F27072B0FBF2F302FB130070B90DF067
:10EED000A9F9224903230144EAE7012B02D14FF4A7
:10EEE0001672EFE7022B01D13C22EBE70DF09AF905
:10EEF00006462078FFF758FF3118BDE70DF092F96C
:10EF0000D8F800300446987800F00300FFF74CFF73
:10EF1000D8F800309B78C3F3010321183370ABE7B6
:10EF20000948012341602B70BDE8F0410DF018B98C
:10EF30002B7823B10448BDE8F0410DF033B9BDE8AA
:10EF4000F08100BF3C300020203000203D30002008
:10EF500038300020A0860100809698000046C32328
:10EF6000403000202DE9F341244B1B78032B2AD895
:10EF7000DFE803F0021B1F23214A136801331360EB
:10EF8000204B214E1E4D00221A70B04634683CB111
:10EF9000A3682A6893421AD02A689B1A002B16DBB2
:10EFA000FFF71EFF02B0BDE8F081154A13680A336F
:10EFB000E5E7134A13686433E1E7114A136803F580
:10EFC000BB531033DBE7784609F0DCFDD8E7278830
:10EFD000E368C8F8003002A9002341F8043D384630
:10EFE00001F0D2FC10B1784609F0CCFD38466368D8
:10EFF000019998472046FFF79BFEC7E73D30002068
:10F00000383000203C3000204030002010B5084C43
:10F0100018220021204615F04BF8064B064AA36043
:10F0200000231360054A1360054A137010BD00BF2A
:10F030002030002065EF01003830002040300020F3
:10F040003C300020F8B50F461646044610B9784605
:10F0500009F098FD124D0DF001FE2B6800220BB156
:10F06000A34216D1A17867F3010166F38701A1706D
:10F070009BB1DB6882B92B602EB12046FFF758FEAA
:10F080002B689C4201D1FFF7ABFEBDE8F8400DF0C4
:10F0900025BE1A46DB68E2E7D360002EF5D0ECE728
:10F0A000403000200A4B93F8390093F85D2080F03F
:10F0B0000100404280B24AB14FF6FF72904204D044
:10F0C000586D1B6BC01AC00F70470120704700BFFE
:10F0D0004430002038B5154C242303FB004305467B
:10F0E00093F8393013B9784609F04CFDB4F8603024
:10F0F00013B9784609F046FD242202FB054300219E
:10F1000083F83910B4F86030013B9BB2A4F860304A
:10F110001BB94FF6FF73A4F8623002FB0544A06AE6
:10F1200011F011FD0023A36238BD00BF4430002060
:10F130002DE9F84F2C4DB5F86030064613B97846E6
:10F1400009F020FD294C06F57A7B00274FF00109D4
:10F1500048F2111A637C1FFA87F8C3B1A368A3EBC6
:10F160000B03002B13DAA3882268A4F11001404698
:10F1700000F0D6FE102827D809FA00F313EA0A0F88
:10F1800025D11B4A13421ED04046FFF7A3FF24346B
:10F19000BFB1FFF787FFB5F86030A5F862000BB389
:10F1A000012802D9784609F0EDFCB5F86230242236
:10F1B00002FB03531B6B9A1B48BFF21AEA60BDE8BF
:10F1C000F88F0127C6E710B1784609F0DBFC237CF5
:10F1D000013BDBB22374002BD6D0D4E902321344B6
:10F1E000A360D4E7EB60EAE7443000206C300020F5
:10F1F000A002010010B5064C64220021204614F044
:10F2000057FF044BA3604FF6FF73A4F8623010BDA4
:10F210004430002031F101002DE9F0470128064675
:10F22000884617469A46BDF8209002D9784609F0DC
:10F23000A9FCB8F1000F02D1784609F0A3FC17B978
:10F24000784609F09FFC98F800305B0702D17846B9
:10F2500009F098FCBAF1000F02D1784609F092FC4F
:10F26000B9F1000F02D1784609F08CFC274C242319
:10F2700003FB064393F8393013B13046FFF72AFFFA
:10F280000CF0D0FF844697E80F00242505FB0645C7
:10F2900005F1180E8EE80F00C5F828A0A5F82C90EF
:10F2A00098F80030C3F3020385F8383098F800006E
:10F2B000C3084CF2503003FB0000012385F83930BD
:10F2C000B4F860306863604401332863A4F86030A8
:10F2D000FFF7E8FEB4F86230834201D19E4213D1B9
:10F2E0004FF6FF739842A4F8620002D1784609F005
:10F2F00049FCB4F862300548242202FB0344216B28
:10F30000BDE8F0470CF065BFBDE8F0874430002051
:10F310004A09012301F01F0103FA01F150F82230DC
:10F32000194214BF0120002070474FF6FF72B2EB64
:10F33000104F82B083B215D113F47F4007D003F48D
:10F340004043B3F5004F14BF0020012006E023F036
:10F350007F022AB97F3B18BF0123184602B07047CD
:10F360000346FAE723F03F03C02BECE701289FBFD9
:10F37000054B382202FB003090F8340094BF00F0B7
:10F3800001000020704700BFEC300020C0F30F43A5
:10F39000A3F540539BB2012B13B512D80B4A10783A
:10F3A00010F004000FD10A4A096802EBC304C943F4
:10F3B000616012F8331021F0060102F8331002B038
:10F3C00010BD0520FBE70020F9E700BF5E310020FB
:10F3D0006031002013B50190000C01280C4602D0CA
:10F3E000784609F0CFFB012363800223A3802380AA
:10F3F00002B010BD37B5C0F30F44A4F54054A4B219
:10F40000012C01900D4602D9784609F0BBFB044857
:10F4100000EBC4046368DB432B6003B030BD00BF66
:10F420006031002070B51C460B89B3F5BE7F0546E0
:10F43000164606D3092323602068B0FA80F04009FD
:10F4400070BDFFF793FF28B10C48382303FB05007C
:10F4500083890BB10523EEE73EB982884FF6FF732F
:10F460009A4206D0C2889A4203D00868FFF75DFF2F
:10F4700008B90723DFE70023DDE700BFEC300020F9
:10F4800037B5040CB4F5805F01900D4602D0784684
:10F4900009F078FB064BA4F58054A4B206210222A1
:10F4A00001FB0431284603B0BDE8304014F0F5BD3F
:10F4B000D630002037B5C0F30F44A4F50054A4B2F1
:10F4C000012C01900D4602D9784609F05BFB054BF3
:10F4D0003821142201FB0431284603B0BDE8304036
:10F4E00014F0DBBDEC30002037B5C0F30F44A4F5B9
:10F4F0000054A4B2012C019014D80C4B187810F0D1
:10F5000004050DD10A48382303FB040414222046C5
:10F5100014F0C3FD94F8343023F0060384F834303B
:10F52000002000E0052003B030BD00BF5E310020A8
:10F53000EC30002010B50E4C70220021204614F053
:10F54000B7FD062200210B4814F0B2FD1022002165
:10F55000094814F0ADFD4FF0FF31084A6160012306
:10F56000E260A384E1636264A4F85C3010BD00BF74
:10F57000EC300020D630002060310020FFFF020078
:10F580002DE9F04FD5B0044607A80F4604929946DE
:10F59000BDF8786102F07CFB6F4BBDF81E10049A39
:10F5A000382000FB0430B0F80C80414505D84FF0FE
:10F5B000100A504655B0BDE8F08FBDF81C100491FC
:10F5C00008AD002A00F0938002F10C0103C9B2F8E3
:10F5D0001EB0B2F824A0127F85E80300002A00F0D4
:10F5E0009680382202FB0434647CFF2C01D15B4BF3
:10F5F0001C78B9F1000F02D1784609F0C3FA16B9A8
:10F60000784609F0BFFA0AAB184624220021059378
:10F6100014F04EFD504610AA594603F085F9059B9B
:10F6200082460028C5D1049A9C7295E80300904454
:10F63000BA7ADA72FA7A1A7383E80300FA68A3F8DE
:10F64000088051461846C3F810909E821A620CF04A
:10F650008FFB82460028ACD1414C226892041AD517
:10F66000404B1B68042B16DD2F213F4814F0F0FDA2
:10F6700000284ED02F213C4814F0EAFD411C3B4BA2
:10F680003A88D3F804350192394A0092052040F2B5
:10F69000A9120EF0B1FB23689B048AD5314B1B687D
:10F6A000042B86DD334B802E196828BF802600236B
:10F6B00013ACB34236D100222F212B4804F813207B
:10F6C00014F0C6FD00283BD02F21274814F0C0FDC0
:10F6D000411C264B284AD3F804350192274A009250
:10F6E00002944FF4D57205200EF086FB61E7B0F866
:10F6F00004B0C0880593294602F044FB48BB6A88E1
:10F70000002A3FF454AF4FF6FF7A059B69E7144691
:10F710006FE75C21144814F09BFD08B15C21AAE757
:10F720001149ACE719F80320100902F00F02085C38
:10F7300004F81300885C04EB430201335070B8E70F
:10F740005C21094814F084FD08B15C21BDE706493D
:10F75000BFE74FF0050A2CE7EC300020601F0020C7
:10F76000881F0020841F00202C4903000010014046
:10F77000484903008C1F00205C4903009A4703009E
:10F7800013B50190000C01280C4602D0784609F010
:10F79000F9F96388012B0DD1A388022B0AD12388A4
:10F7A000022B07D1044A137843F0010313700020A1
:10F7B00002B010BD0B20FBE75E31002037B5019091
:10F7C000000CB0F5805F0FD1094B187810F00404DD
:10F7D00008D1084D0222284614F05FFC6B7923F013
:10F7E00006036B71002000E0052003B030BD00BFB0
:10F7F0005E310020D630002007B5104B1B785B0728
:10F8000009D40F4A12F8303043F0040302F83030C4
:10F8100003B05DF804FB00F540500223ADF804305E
:10F82000ADF80600019810F067FC0028F0D078468B
:10F8300003B05DF804EB09F0A5B900BF5E3100200C
:10F840006031002007B5124B1B7813F0040F114BE9
:10F8500008D113F8302042F0020203F8302003B040
:10F860005DF804FB03EBC003022200F540505B6827
:10F87000ADF80420ADF80600DB436946019800931B
:10F8800010F0DCFB0028EAD0784609F07BF9E6E7C7
:10F890005E3100206031002007B5134B13491B78FF
:10F8A00013F0040F0BD1382303FB001090F8343011
:10F8B00043F0020380F8343003B05DF804FB022308
:10F8C000ADF8043000F50053ADF80630382303FBE3
:10F8D0000011019810F0B2FB0028EDD0784603B07B
:10F8E0005DF804EB09F04EB95E310020EC300020E9
:10F8F00007B50C4B1B785B0707D40B4A537943F0D1
:10F900000203537103B05DF804FB0749074810F088
:10F9100095FB0028F6D0784603B05DF804EB09F0BB
:10F9200031B900BF5E310020D63000200200001047
:10F930004A0901F01F034FF0FF31994050F822307F
:10F94000194009D04B420B4004495943C90E044B9E
:10F95000585C00EB421070471820704731B57C07A7
:10F960000C4903002DE9F04F85B081469246984638
:10F970000E9F0D4611B9784609F004F903AB5246C3
:10F9800029464846FFF74EFD18B9039805B0BDE873
:10F99000F08F69882B884FF6FF72914230D1B3F512
:10F9A000807F34BF4FF0010B4FF0020B2E895E4475
:10F9B000B6B2304611F0C5F8044680B36A882B8889
:10F9C0004FF6FF708242D9B21DD06270120A2170C8
:10F9D000A2702A89696804EB0B0014F05EFB0096A4
:10F9E0002346524629464846FFF7CAFD039018B9F8
:10F9F000B8F1000F00D077B9204611F0A4F8C4E7A1
:10FA00004FF0030BD2E713F47F4F1DBF1B0A237087
:10FA100061702170DDE7C8F800403E80B6E7042041
:10FA2000B4E700002DE9F04F504E337813F0020791
:10FA300085B003D00B2005B0BDE8F08F13F0010FA7
:10FA40004B4C18D0A0464FF6FF79BB46B8F80C30A7
:10FA50004B450CD0B8F8060048455ED1B8F80E50BA
:10FA6000022D5FD1382303FB074383F812B008F15E
:10FA70003808002F4FD033783E4D43F004033370E5
:10FA80002B7813F0040064D1990701D5FFF7DAFE53
:10FA90002B7823F006032B702B7A5A075DD50120B3
:10FAA000FFF7AAFE2B7A23F006032B72324D6B79F7
:10FAB000980701D5FFF71CFF6B7923F002036B71E8
:10FAC00094F83430990702D50020FFF7E5FE94F84A
:10FAD000343023F0020384F8343094F86C309A0701
:10FAE00002D50120FFF7D8FE94F86C3023F0020312
:10FAF00084F86C303378DB0735D420480290022339
:10FB000002A9ADF80C3010F099FA10B1784609F05E
:10FB100039F805208FE7012798E702F0CDF8002893
:10FB20009CD087E7134B03EBC5050435002128461D
:10FB3000FFF7FEFE1828824694D01FFA8AF002F0E2
:10FB400005F900287FF476AF0AF101011729EED9F3
:10FB500088E70020FFF750FE9AE79F07A2D5012013
:10FB6000FFF770FE9EE7002065E700BF5E310020D2
:10FB7000EC30002060310020D6300020020001006F
:10FB80002DE9F04F00F114048FB00546204603F034
:10FB90001BF98146002876D04FF6FF73ADF832305E
:10FBA0002B7D012B72D10DA802F072F8EB8ABDF803
:10FBB00034209B1A9BB209934E46554C4FF0000AD5
:10FBC000002E7CD0A788099BFA1A5742574194F817
:10FBD0002C30E98B03F0010320460A93FFF798FBD2
:10FBE00029880B90A28C68884FF00008904576D346
:10FBF0004FF00008C346474B1B689B0425D5464B76
:10FC00001B68062B21DD2F21444814F021FB00281E
:10FC100075D02F21414814F01BFB411C0B9A404B1F
:10FC2000D3F80435CDF818B0CDE904720A9A0392DE
:10FC300034F8062C029234F8082C0192394A0092CA
:10FC4000072040F21C420EF0D7F80A9BBBB1B7B1B7
:10FC50000B9BA3B1BBF1000F11D02B7D012B1FFA21
:10FC60008AF704D1A26A2946384601F015F8236ABA
:10FC7000A26A03EBC80329465B68384698473834C4
:10FC8000BAF1000F18D00FB0BDE8F08FEB8A043343
:10FC90009BB2032B0AD90DF13201204602F006F97E
:10FCA00040B1784608F06EFF002686E7002306463E
:10FCB000099382E7064680E74FF0010A80E7E08873
:10FCC00001280AD8184BBDF8321003EBC0000430ED
:10FCD000FFF71EFB00F0010779E73046FAE7236AD9
:10FCE00003EBC80C33F838308B4203D1BCF8023038
:10FCF000834202D008F1010878E7CB467BE75C211C
:10FD0000064814F0A5FA08B15C2183E7034985E7AA
:10FD1000F4300020881F0020841F00202C4903009D
:10FD2000001001409C480300603100202DE9F043A1
:10FD300003681D7805F0C002402AD1B004460FD0F8
:10FD400003D86AB10026354610E0802A00F09D8075
:10FD5000C02AF7D19A785E78ADB246EA022605E06D
:10FD6000ADB27F2D00F08E804FF6FF765A4B1A68A9
:10FD700012F4005F984619D0584B1B68042B15DD10
:10FD80002F21574814F064FA002800F082802F21B8
:10FD9000534814F05DFA411C524B534AD3F80435D2
:10FDA00000920195FD2205200EF026F8E06902F090
:10FDB000EBF88146A06902F0D3F84FF6FF739E423C
:10FDC000ADF81450ADF8166027686BD1FF2D8CBFCD
:10FDD000022301234FF6FF721F4496420697A38821
:10FDE00062D1FF2D8CBF022201229B1A227A8DF84C
:10FDF00020206289ADF82220E2680992227C8DF8E9
:10FE00002820628AADF82A2062690B9294F820209B
:10FE10008DF83020626A0D92D8F80020ADF832904B
:10FE20009BB29204ADF81C30ADF8380027D52B4AB0
:10FE30001268042A23DD2D4A802B106828BF8023F6
:10FE400000220FAC9A4231D100232F21244804F81C
:10FE5000123014F0FDF9002835D02F21204814F07D
:10FE6000F7F9411C1F4B224AD3F804350192214A6D
:10FE7000009202944FF48A7205200DF0BDFF05A890
:10FE8000FFF77EFE51B0BDE8F0835B7843EA0525BD
:10FE90006AE75C21124814F0DBF908B15C2177E7CE
:10FEA0000F4979E7032395E703229EE7B95C0D0923
:10FEB00001F00F01455D04F81250455C04EB42016E
:10FEC00001324D70BEE75C21054814F0C1F908B15C
:10FED0005C21C3E70249C5E7881F0020841F00207A
:10FEE0002C49030000100140F14803008C1F002042
:10FEF000044903009A470300037813B1142B03D07D
:10FF000070470430FFF712BFC388022B01BF034ABA
:10FF1000137843F002031370704700BF5E31002076
:10FF2000F0B5064685B014461D4681B17AB173B16D
:10FF300003AB0022FFF776FA10B9039805B0F0BDC5
:10FF40000095234600223046FFF71AFBF6E70E2005
:10FF5000F4E7000007B5FFF7EDFA00F0DFFE174AFF
:10FF6000137803F0FC036FF382031370144B1868CB
:10FF700010F0C2F81348019010F0BEF843F20103EC
:10FF8000ADF80630019810F0B7F84FF48053ADF893
:10FF90000630019810F0B0F84FF40053ADF8063079
:10FFA000019810F0A9F842F20103ADF8063001986B
:10FFB00003B05DF804EB10F09FB800BF5E31002085
:10FFC0008C4803000200003008B5FFF7B3FA094877
:10FFD000094B03600BF0CEFE00F092FEFFF716F81F
:10FFE000FFF708F9054A137803F0FC036FF3820367
:10FFF000137008BDE0300020F9FE01005E310020E2
:020000022000DC
:100000002DE9F0410D460446002800F0BE8000298D
:1000100000F0BB80C3681BB18368002B00F0B58083
:100020004FF6FF732B80E3681BB9A368002B40F0E9
:10003000AE80A388002B40F0AC8002F0E9FE10B146
:100040000F20BDE8F081564BA788062202FB07323D
:100050009178D278D14219466AD1D4E90287002634
:10006000B74240F08B802A884E4E4FF6FF739A427B
:1000700043D196F8343013F0010305D096F86C3074
:10008000DB0700F18A80012338222B8002FB036307
:100090004FF6FF70D8802B8802FB036398802B8873
:1000A000A78802FB03639F812B88678802FB036399
:1000B0005F802B8827885343F7522B8802FB03620B
:1000C00050742288A38882424FF0060202FB031379
:1000D0000BBF9A78DA78013201320CBF9A70DA706D
:1000E0002B88382202FB036393F8342042F001028C
:1000F00083F834202888FFF7CFFB2B88216938222A
:1001000002FB0363002019632B88A16802FB0363D1
:1001100099622B88E16802FB036399852B886169EA
:1001200002FB036399612B8802FB0366B38288E7B5
:100130001C4B2288B3F80CC06688BC4507D1B3F8C5
:1001400002C0B44503D1B3F800C094450CD0B3F855
:100150004400B84281D1588FB0427FF47EAF188FEF
:1001600090427FF47AAF01203822288002FB0030D1
:1001700090F83430DA077FF570AF61E758F8360051
:10018000FFF7D3F838B101366AE70E2059E70920A6
:1001900057E7052055E7072053E7042051E700BF44
:1001A000D6300020EC3000207FB505460E4619B34E
:1001B0000DF10A030022009303ABADF80A20FFF70C
:1001C000D1FB044688B90D48039B38226A43811845
:1001D000C97C49070CD002F11301BDF80A20009236
:1001E000014432462846FFF717F8204604B070BD98
:1001F000184610F0A8FCF8E70E24F6E7EC300020D3
:1002000013B514460A4639B134B100230093214690
:10021000FFF7A8FB02B010BD0E20FBE710B50446A7
:10022000FFF7A4F870B117290ED8084A382303FB4A
:100230000423DA888A4203D0D9802046FFF72CFBBA
:10024000002000E0052010BD0720FCE7EC30002076
:1002500010B5044651B1FFF789F848B1054B382273
:1002600002FB04340020E3880B8010BD0E20FCE765
:100270000520FAE7EC300020012838B51BD80F4BD9
:10028000382202FB003292F83440E40713D5D27CC6
:1002900001F0070402F00705A54204D1C1F3C4042C
:1002A000B4EBD20F05D0382202FB0033D974FFF72C
:1002B000F3FA002000E0052038BD00BFEC3000203C
:1002C00069B101280DD8084B382202FB003090F8A4
:1002D0003430DB0705D5C37C0B70002070470E203F
:1002E00070470520704700BFEC30002038B5044649
:1002F000154699B192B1FFF739F888B10A48382309
:1003000003FB040083696BB1837CC3F301030B70AF
:10031000837CC3F385032B70002038BD0E20FCE7DF
:100320000520FAE70620F8E7EC3000202DE9F3413C
:100330000DF107020DF106010546FFF7D7FF10B1D9
:10034000784608F01FFC284E9DF807709DF80610AF
:10035000382303FB05633C46B3F82480032923D8E4
:10036000DFE801F005021A1E07EB87046400B4FB06
:10037000F8F3092B1CD8002F33D0012B38BF0123F1
:10038000DFB20021382000FB05603A461430FEF74A
:1003900059FE02B0BDE8F081642417FB04F4E6E7DF
:1003A00041F270747C43E2E7784608F0EBFBDEE74D
:1003B000632B05D80A220121B3FBF2F3DFB2E1E798
:1003C00041F26F72934295BF642241F27072B3FBA7
:1003D000F2F3B3FBF2F399BFDFB20221DFB20321E4
:1003E000D0E73946CEE700BFEC300020012810B539
:1003F0000FD80B4A382404FB002393F83420D2078B
:1004000007D59A693AB141B19984FFF78FFF00206F
:1004100010BD0520FCE70620FAE70720F8E700BF3B
:10042000EC300020012838B5044629D8174B382075
:1004300000FB043090F8345015F0010F1D461FD01A
:100440008369FBB13F2A1FD803291DD8837CB2EBF7
:10045000930F03D103F003038B420FD0382303FB28
:100460000453987C62F38700024661F30102204640
:100470009A74FFF75BFF2046FFF70EFA002000E0BA
:10048000052038BD0620FCE70720FAE7EC30002005
:1004900038B5044602F0BCFC18BB2046FEF766FFE8
:1004A00008B3134D382202FB0452D289022A16D116
:1004B000104A137813F0010003D0137AD90714D42B
:1004C000012043F0010302F83030382303FB0453CA
:1004D00080B2D881FFF7B6F92046FFF7DDF900209A
:1004E00038BD0F20FCE70520FAE70420F8E700BF3D
:1004F000EC300020603100202DE9F04104468846B0
:10050000FEF734FFD0B1114B382202FB0434E689E8
:10051000022E16D0172916D80D4FF500043578197C
:10052000FEF7F6FE40B9012303FA08F17B590B43AD
:100530007B513046FFF786F9002000E00520BDE83A
:10054000F0810620FBE70720F9E700BFEC30002030
:1005500060310020F8B504460F46FEF707FFD8B11A
:10056000104B382202FB0434E589022D16D01729DE
:1005700016D80D4EEC0004343019FEF7C9FE50B108
:10058000012303FA07F13359284623EA01033351C3
:10059000FFF758F90020F8BD0520FCE70620FAE730
:1005A0000720F8E7EC300020603100202DE9F84307
:1005B000064615460F4641B33AB3FEF7D7FE30B3B1
:1005C000164B382202FB0636F389022B21D0002479
:1005D000DFF84C90B5F800802C80F08901280ED807
:1005E00009EBC00021460430FEF792FE38B12B889B
:1005F000984510D927F813402B8801332B800134FC
:10060000182CEAD10020BDE8F8830E20FBE7052076
:10061000F9E70620F7E70920F5E700BFEC300020F6
:10062000603100202DE9F04107468846FEF79EFE26
:10063000A0B1082915D838250B4E7D43083570190F
:10064000FEF766FE40B9012303FA08F173593846F4
:100650000B437351FFF720F9002000E00520BDE8AF
:10066000F0810720FBE700BFEC300020F8B506461C
:100670000F46FEF77BFEA8B1082915D838240B4D8C
:10068000744308342819FEF743FE50B1012303FADE
:1006900007F12B59304623EA01032B51FFF7FCF8F1
:1006A0000020F8BD0520FCE70720FAE7EC30002029
:1006B0002DE9F041064615460F46F9B1F2B1FEF7B5
:1006C00055FEE8B1104BB5F800803822002402FB3B
:1006D00006362C80083621463046FEF719FE38B122
:1006E0002B8898450ED927F813402B8801332B808F
:1006F0000134082CEFD10020BDE8F0810E20FBE78B
:100700000520F9E70920F7E7EC30002010B5044692
:10071000FEF72CFE70B108290ED8084A382303FBD7
:1007200004239A888A4203D099802046FFF7B4F8C0
:10073000002000E0052010BD0720FCE7EC30002081
:1007400010B5044651B1FEF711FE48B1054B3822F1
:1007500002FB04340020A3880B8010BD0E20FCE7B0
:100760000520FAE7EC300020030605D4012803D069
:10077000024B18700020704707207047601F002050
:10078000014B1878704700BF601F002010B5044669
:10079000FEF7ECFD60B1074A382303FB04231A7C03
:1007A0008A4203D019742046FFF776F8002000E053
:1007B000052010BDEC30002010B5044651B1FEF705
:1007C000D5FD48B1054B382202FB04340020237CC0
:1007D0000B7010BD0E20FCE70520FAE7EC3000207E
:1007E00010B50446FEF7C2FD80B181F080037E2B78
:1007F0000ED9084A382303FB04235A7C8A4203D0CB
:1008000059742046FFF748F8002000E0052010BD8D
:100810000720FCE7EC30002010B5044651B1FEF78C
:10082000A5FD48B1054B382202FB04340020637C4F
:100830000B7010BD0E20FCE70520FAE7EC3000201D
:1008400010B5044660B9074B1A888A4206D05A7917
:10085000198042F001025A71FFF74AF8204600E081
:10086000052010BDD630002021B128B9034B1B88CC
:100870000B8070470E20704705207047D63000204F
:1008800021B128B9034B9B780B7070470E2070473D
:1008900005207047D630002021B128B9034BDB7802
:1008A0000B7070470E20704705207047D63000202F
:1008B00010B5044661B1FEF759FD58B1064B38201A
:1008C00060431A1852884A801B5A0B80002010BDC2
:1008D0000E20FCE70520FAE7EC30002073B501910B
:1008E00012B310B1052002B070BD4FF6FF730F496F
:1008F00013808B89BDF80440BDF8065008462BB91B
:100900004E88AE4202D10988A1420AD0B0F84430E4
:10091000002BE7D1438FAB42E4D1038FA342E1D157
:10092000012313800020DEE70E20DCE7EC300020FE
:10093000F0B509B302B308BB124E1588108002232C
:100940006FF037071088A8421AD207FB036494F8A7
:10095000A4C01CF0010F09D0B4F87C4034B9C3F135
:10096000020421F81040108801301080012B01D1C1
:100970000020F0BD0123E5E70E20FAE70520F8E7A7
:100980000920F6E7EC30002010B5044651B1FEF71F
:10099000EDFC48B1054B382202FB04340020236BE8
:1009A0000B6010BD0E20FCE70520FAE7EC300020BC
:1009B000F8B50746FEF7DAFC00B33825104C7D4346
:1009C000002205F11400114666192044FEF73AFB97
:1009D000384600F0E9F9F08801F08EF94FF0FF3366
:1009E000736005F11003234400245C709C70DC707C
:1009F0003846B475FEF750FF2046F8BD0520FCE7E9
:100A0000EC300020082837B505461CD80DF106014A
:100A10000020FFF795FE28B9BDF80630AB4201D1A2
:100A2000FFF7C6FF0DF106010120FFF789FE04461E
:100A300058B9BDF80630AB4202D10120FFF7B8FF2C
:100A4000204603B030BD0724FAE70024F8E7000091
:100A50002DE9F04F5A4DB5F8703085B0804613B986
:100A6000784608F08FF8574CDFF86CA14FF6FF730B
:100A700008F57A79A5F87230002604F1040B94F891
:100A80002830CBB1A369A3EB0903002B19DA0023AB
:100A900084F82830B5F87030013BA5F8703003A910
:100AA0002088FFF771FF10B1784608F06BF8E36912
:100AB00003992088012298472C34002E50D101261A
:100AC000DDE7236AA3EB0902002A66DAA5F8726063
:100AD0002C2101FB06B12088FFF766FB0746E8B131
:100AE000DAF800309B0417D5374B1B68042B13DD55
:100AF0002F21364813F0ACFBE8B12F21334813F017
:100B0000A7FB411C324B334AD3F8043500920197BE
:100B1000802205200DF070F9082F15D1D4E90823A3
:100B20001A445B0022626362A269236AD31A002B13
:100B3000C2DA2262C0E75C21244813F089FB08B1C5
:100B40005C21DBE72149DDE7042F01D00F2F20D105
:100B50002C2303FB0656B36B03F51C434033B363EE
:100B6000B5F870304BB3B5F87230012B02D9784626
:100B700008F008F8B5F872302C2202FB03539B6B87
:100B8000B3EB080248BFA8EB0302EA6005B0BDE87A
:100B9000F08F784607F0F6FFC6E7B5F872204FF6FB
:100BA000FF718A4206D02C2101FB0252926B9B1AE4
:100BB000002B81DAA5F872607EE7EB60E6E700BF04
:100BC000743100208C310020841F00206449030010
:100BD0000010014089490300881F002038B52C4CC3
:100BE0002C2303FB0043054693F8403013B97846A5
:100BF00007F0C8FFB4F8703013B9784607F0C2FFA9
:100C00002C2202FB0542002382F84030B4F87030F9
:100C1000013B9BB2A4F87030A3B3B4F87230AB427E
:100C200035D1926B1B4B134494F84020EAB1A26B70
:100C3000D11A0029B8BF13464FF6FF72B8BF002281
:100C400094F86C10A1B1616ECB1A002B10DA01235D
:100C5000A4F87230B4F872300D482C2202FB034421
:100C6000A16BBDE838400BF0B4BA4FF6FF72E7E76E
:100C70004FF6FF739A42A4F87220EBD1784607F042
:100C800081FFE7E70248BDE838400BF08BBA38BD7A
:100C900074310020008793030128F8B505460E46FD
:100CA000174602D9784607F06DFF0BF0D7FF134BBC
:100CB00093F8402012B11A8BAA421DD093F86C20F1
:100CC000B2B1B3F84420AA4212D101202C2404FB73
:100CD00000343388A28D9A420AD1E28D73889A42F9
:100CE00006D1FFF77BFF636B002239462846984701
:100CF000BDE8F8400BF0F2BF0020E7E774310020B8
:100D000010B5044C74220021204613F0D1F9024B97
:100D1000A36010BD74310020510A020073B51F4C4E
:100D20000BF09CFFB4F870302BB100232046A4F8E0
:100D300070300BF037FA94F840307BB1258B1848AF
:100D4000666B00212C2213F0B3F901A92846FFF7A6
:100D50001BFEF0B9022201992846B04794F86C3086
:100D60009BB1B4F844500F48246E00212C2213F09C
:100D70009FF901A92846FFF707FE10B1784607F052
:100D800001FF022201992846A0470BF0A7FF02B0FD
:100D900070BD784607F0F6FEDCE700BF7431002036
:100DA0008C310020B8310020012873B505462DD8BC
:100DB000174C0BF053FF94F8403013B1238BAB4228
:100DC00020D094F86C30FBB1B4F84430AB421BD166
:100DD00001263046FFF702FF01A92846FFF7D4FDA0
:100DE00010B1784607F0CEFE2C2303FB0644022206
:100DF000636B01992846984700240BF06FFF20464B
:100E000002B070BD0026E4E70524F6E70524F6E706
:100E1000743100204A09012301F01F0103FA01F196
:100E200050F82230194214BF0120002070474A09AF
:100E3000012301F01F0103FA01F150F822300B43A6
:100E400040F8223070470000A0F1100189B2072954
:100E500002D80248FFF7DEBF00207047F0310020C3
:100E60002DE9F0474FF6FF73DFF84080DFF8409040
:100E70000B8007460D4600241E464FF0AC0A214663
:100E80004046FFF7C7FF40B10AFB04F333F80930CF
:100E9000BB4206D12C80BDE8F0872B88B34208BF47
:100EA0002C800134042CEAD10020F4E72034002007
:100EB000243400202DE9F0474FF6FF73DFF840801F
:100EC000DFF840900B8007460D4600241E464FF089
:100ED0002A0A21464046FFF79DFF40B10AFB04F372
:100EE00033F80930BB4206D12C80BDE8F0872B884F
:100EF000B34208BF2C800134082CEAD10020F4E76B
:100F0000343200203832002013B50190000C012843
:100F10000C4602D0784607F035FE042323800123D7
:100F2000A3800823638023811023E38002B010BDD7
:100F300037B5C0F30F44A4F58054A4B20F2C019030
:100F40000D4602D9784607F01DFE21460648FFF7F8
:100F500061FF10B9784607F015FE044B33F82430D2
:100F60002B8003B030BD00BFE8310020F4310020F9
:100F700010B5044610B9784607F004FE0A4B00226B
:100F800093F8421090B269B1A3420AD003F1210153
:100F90008C4206D00132042A03F1AC03F0D14FF6A3
:100FA000FF7010BDA342F4E74634002013B5019052
:100FB000000C02280C4602D0784607F0E3FD074BF0
:100FC0001B68DB0702D4784607F0DCFD04490422E5
:100FD000204602B0BDE8104013F05FB8EC310020AD
:100FE0000C34002037B5C0F30F44A4F50054A4B26C
:100FF000072C01900D4602D9784607F0C3FD214623
:101000000948FFF707FF10B9784607F0BBFD07490D
:10101000142000FB041110220431284603B0BDE85F
:10102000304013F03AB800BFF0310020D436002031
:1010300073B5040CB4F5A04F01900D4602D078466C
:1010400007F0A0FDA4F5A044A4B221460B48FFF789
:10105000E1FE10B9784607F095FD16235C43084E73
:10106000A11D10223144281D13F017F8325B2A808D
:1010700033195B886B8002B070BD00BF88330020DD
:101080008C330020F8B5A1F1100514246C430B4FEC
:101090000646201D31461022384412F0FEFF391951
:1010A00030460CF0D7FD10B1784607F06BFD2946AD
:1010B0000348BDE8F840FFF7BABE00BFD4360020B1
:1010C000F031002073B5050C0E46A5F5005189B22C
:1010D000072901900CD80848FFF79CFE30B9A5F508
:1010E000FF51103989B23046FFF7CCFF002000E0F5
:1010F000052002B070BD00BFF0310020F7B5C0F38D
:101100000F44A4F54054A5B2032D01900E4602D918
:10111000784607F037FD00212422304612F0C8FF40
:1011200029461348FFF776FE10B9784607F02AFDE6
:10113000AC24104F6C433D193B5B338095F8643011
:10114000B370A11C10223944F01C12F0A6FF95F8D0
:10115000643053B104F112011022394406F1130036
:1011600003B0BDE8F04012F098BF03B0F0BD00BF7F
:10117000203400202434002073B5C0F30F44A4F5BC
:101180008044A5B2072D01900E4602D9784607F09B
:10119000F9FC00212622304612F08AFF2946124827
:1011A000FFF738FE10B9784607F0ECFC2A246C43B0
:1011B0000E4DA11D10222944701D12F06EFF2A5BF6
:1011C00032802B195A8872809B7D337153B104F1A0
:1011D00019011022294406F1150002B0BDE8704043
:1011E00012F05BBF02B070BD3432002038320020F4
:1011F0002DE9F0411E4CAC255543164605F1680318
:10120000621923440F469367804610B9194B012297
:101210001A7005F12201214438460CF0E2FC10B1AD
:10122000784607F0AFFC05F17C01214438460CF00C
:10123000E9FC10B1784607F0A5FCA81C394610223D
:10124000204412F02AFF05F1120010220021204450
:1012500012F02EFFAC237343E21824F8038000231E
:1012600082F8643031460448BDE8F041FFF7DFBD45
:10127000243400200A3400202034002037B5C0F385
:101280000F440D4604F54054A4B20190224628882C
:101290000331FFF7ADFF0748AB78AC2202FB040433
:1012A000054A84F864301378002043F00403137077
:1012B00003B030BD243400201C3400202DE9F84355
:1012C0002A255D43144C91460746A81D10220E4660
:1012D00020444946984612F0E0FE05F1190000212D
:1012E0001022204412F0E4FE691D214448460CF00F
:1012F0006FFC10B1784607F045FC2A2202FB08F289
:10130000A3180021197199755E80A75241460348C0
:10131000BDE8F843FFF78BBD38320020343200209F
:10132000F7B5C0F30F44A4F58044A4B2072C019094
:101330000D462ED821461848FFF76CFD10B100204D
:1013400003B0F0BD154F698828882A2623466A1DF8
:101350006643FFF7B3FFBB192A799A752B79002BE7
:10136000EDD0153506F1190029461022384412F047
:1013700094FE06F11801394428460CF029FC10B1FE
:10138000784607F0FFFB2A2000FB04742379E375FD
:10139000D5E70520D4E700BF3432002038320020E2
:1013A0002DE9F3410190000C00F50054A4B2072C84
:1013B0000E4632D900F5805084B2072C2FD8012573
:1013C000194A137843F00403137030887188234658
:1013D000321DFFF773FF2A2714486743C31980465D
:1013E0009D75F5B1143607F11900314610224044BD
:1013F00012F053FE07F11801414430460CF0E8FBAF
:1014000010B1784607F0BEFB2A2000FB04840020C0
:101410002379E37502B0BDE8F0810025D0E705200F
:10142000F8E72846F6E700BF1C34002038320020D9
:1014300073B5064610460C461546FFF7EBFC10B98F
:10144000784607F09FFB01232644ADF80430ADF841
:10145000066001980EF050FE10B1784607F092FB3E
:101460006209012304F01F0403FA04F455F8223042
:1014700023EA040345F8223002B070BD2DE9F0479D
:101480004FF6FF73DFF84C80DFF84CA00B80074667
:101490000D4600244FF0140921464046FFF7BAFCE0
:1014A000064650B92A884FF6FF739A4200D12C8025
:1014B0000134082CF0D1002608E01022394609FB3F
:1014C00004A012F0DBFD0028F2D12C803046BDE8EC
:1014D000F08700BFF0310020D836002001460148D7
:1014E000FFF798BCE831002013B50190000C0128EB
:1014F0000C4602D0784607F045FB2388042B13D115
:10150000A388012B10D16388082B0DD12389082BC8
:101510000AD1E388102B07D1044A137843F0010362
:101520001370002002B010BD0B20FBE71C3400201C
:1015300008B528B9784607F025FB4FF6FF700BE099
:10154000064B9842F9D303F501729042F5D8C01AC0
:10155000AC23B0FBF3F080B208BD00BF983400208C
:1015600008B528B9784607F00DFB4FF6FF7008BDA7
:101570000A4B984209D303F59372904205D8C01ADA
:101580002A23B0FBF3F080B2F1E7054A4FF6FF7370
:10159000904214BF18460820E9E700BF3C32002003
:1015A0009033002037B50190000C02280D4602D080
:1015B000784607F0E7FA084C2368DB0708D40422D2
:1015C0002946064812F069FD236843F001032360B1
:1015D000002003B030BD00BFEC3100200C340020EF
:1015E000F7B5C0F30F44A4F54054A4B2032C019006
:1015F0000D4628D821461548FFF70CFC10B10020F5
:1016000003B0F0BD2246E91C2888114FFFF7F0FD1A
:10161000AC214C43AB783A1982F86430002BEED001
:10162000133504F11200294610223844433412F0D5
:1016300034FD391928460CF0D4FA0028DFD078465A
:1016400007F0A0FADBE70520DAE700BF203400202E
:101650002434002037B50023054610460C46ADF86B
:101660000030FFF7D7FB10B9784607F08BFA01235B
:101670002C44ADF80430ADF80640694601980EF0F0
:10168000DDFC10B1784607F07DFA03B030BD0000F4
:101690002DE9F74F804692460E46002951D00AF0B8
:1016A000F9F90228814627D020F00207FBB2012B6E
:1016B00022D14FF6FF74334B334A0025A3465C45D5
:1016C0000ED11046294601930092FFF7A3FBDDE9F6
:1016D000002328B9ACB20135102DF0D1002305E06C
:1016E00033F825104145F6D1ACB20123BAF1000F11
:1016F00004D1B9F1030F26D010201FE0FFB2012F53
:10170000FAD19BB94FF6FF72944221D01D4A1E4870
:1017100022F8248002EB840221465380FFF787FBE6
:10172000194A21464FF48050FFF794FF154B34803F
:1017300003EB8404A3780133A370002003B0BDE859
:10174000F08F0E20FAE7ABB94FF6FF72944201D149
:101750000420F3E70B4A0C4822F8248002EB8402B1
:1017600021465380FFF763FB074A21464FF4805020
:10177000FFF770FF034B348003EB8404E3780133FD
:10178000E370DAE7F4310020E83100202DE9F3417D
:101790004FF6FF770E461446ADF80670804650B3FC
:1017A00049B30DF10601FFF769FEBDF8063003F1FC
:1017B0001005ADB260B9BB421FD029464046FFF7C5
:1017C00061FC0F4ABDF806104FF40050FFF742FFCE
:1017D000BDF806300B4A3580142101FB032334B9D0
:1017E000DA780132DA70002002B0BDE8F0819A7830
:1017F00001329A70F7E70E20F6E70420F4E700BF05
:10180000F0310020D436002041090B4A00F01F00BF
:101810004FF0FF33834052F82100034009D05A4271
:101820001A40064B5343DB0E054AD05C00EB4110D7
:1018300070470420704700BF2034002031B57C077A
:101840002F4A03004FF6FF730B80084B1B6813F001
:10185000010307D0064B1B88834205D108230B8068
:101860000120704708220A8000207047883300203A
:101870008C3300200F2810B5044602D8FFF72EFE47
:1018800028B92046FFF7E0FA00F0010010BD012062
:10189000FAE700000F2838B5044613D8FFF71EFEFC
:1018A00080B1144B03EB8402907848B9D578FDB928
:1018B00023F82450104A21464FF48050FFF7B8FD1A
:1018C000002015E02046FFF7BFFA80B1A4F1100117
:1018D00089B20A4A14234B43D418A0780028EFD1C8
:1018E000E4782CB9D4524FF40050054AE6E70520BD
:1018F00038BD00BFF4310020E8310020D43600208C
:10190000F03100202DE9F3410190000CB0F5A04F1B
:1019100019D10F4E346814F0010412D10D4D0F8807
:10192000B1F8028010220431A81D12F0B6FB012389
:10193000214630466C712B71A5F802802F80FFF78D
:1019400076FA002000E0052002B0BDE8F08100BF7B
:10195000883300208C33002073B5C0F30F44A4F506
:101960008054A4B20F2C01900E4611D821460A488B
:10197000FFF750FA50B9094B328823F8242003EBC3
:101980008403214658800448FFF751FA002000E004
:10199000052002B070BD00BFE8310020F431002006
:1019A0000388012B15D14388A3F54052032A04D89C
:1019B000142902D1A3F5C04307E0A3F58042072A0A
:1019C00007D8242903D1A3F5A043438001E01429BB
:1019D000F0D070477FB52C4A137813F0020451D130
:1019E000D90712D4294A10685168128901AB03C380
:1019F00001A94FF001101A800EF020FB10B17846BB
:101A000007F0C0F8052004B070BD13F00400FAD050
:101A100064F3820313701E4D1E4B0193214628462A
:101A2000FFF7F8F968B1A6B206F54053ADF80630F5
:101A300001980EF061FB2A4631464FF44050FFF703
:101A400009FE0134042CE9D14FF48043124DADF866
:101A50000630002421462846FFF7DCF968B1A6B21B
:101A600006F58043ADF8063001980EF045FB2A4696
:101A700031464FF48040FFF7EDFD0134082CE9D1E9
:101A80000020C0E70B20BEE71C340020AC49030057
:101A900020340020010000303432002037B500230C
:101AA00049481946C2180433402BD1709170F9D1BE
:101AB000002346491C46CA181433A02BD4709470D6
:101AC000F9D104220021424812F0F2FA0422002146
