:020000022000DC
:1060000000FD002071970300999703009B97030000
:106010009D9703009F970300A197030000000000D5
:10602000000000000000000000000000A397030033
:10603000A597030000000000A7970300A99703009D
:10604000AB970300AB970300AB970300AB9703003C
:10605000AB970300AB970300CD6B0200AB97030037
:10606000AB970300AB970300D9800300AB97030005
:10607000AB970300AB970300AB970300AB9703000C
:10608000AB970300A98F0300B53C0300AB97030057
:1060900079900300AB97030091700200AB97030067
:1060A000AB970300AB970300AB970300AB970300DC
:1060B000AB970300AB970300000000000000000056
:1060C000AB970300AB970300AB970300AB970300BC
:1060D000AB970300AB970300AB97030000000000F1
:1060E00000000000000000000000000000000000B0
:1060F00000000000000000000000000000000000A0
:10610000000000000000000000000000000000008F
:10611000000000000000000000000000000000007F
:10612000000000000000000000000000000000006F
:10613000000000000000000000000000000000005F
:10614000000000000000000000000000000000004F
:10615000000000000000000000000000000000003F
:10616000000000000000000000000000000000002F
:10617000000000000000000000000000000000001F
:10618000000000000000000000000000000000000F
:1061900000000000000000000000000000000000FF
:1061A00000000000000000000000000000000000EF
:1061B00000000000000000000000000000000000DF
:1061C00000000000000000000000000000000000CF
:1061D00000000000000000000000000000000000BF
:1061E00000000000000000000000000000000000AF
:1061F000000000000000000000000000000000009F
:1062000010B5054C237833B9044B13B10448AFF3F0
:1062100000800123237010BDA02E0020000000008C
:1062200014CC030008B5034B1BB103490348AFF37B
:10623000008008BD00000000A42E002014CC030044
:10624000154B002B08BF134B9D46A3F5803A002148
:106250008B460F461348144A121A14F029FE0F4BAE
:10626000002B00D098470E4B002B00D09847002001
:10627000002104000D000D48002802D00C48AFF3A7
:10628000008014F0C7FD2000290000F051F914F03F
:10629000ADFD00BF0000080000FD00200000000070
:1062A00000000000A02E00209454002000000000F8
:1062B0000000000041DF7047F0B54FF0A0434FF4FD
:1062C00000320024C3F80825C3F80C458268EBB0FF
:1062D000117D92F90D300691D17C0591917C04914C
:1062E000517C0391117C0291D17B01910178009145
:1062F00009AE054652682849304614F099FE274BEE
:106300001B685B0425D5264B1B68032B21DD6978B0
:10631000244B8029186828BF8021234629AC8B4252
:1063200022D100222F21204804F8132014F0B0FEBF
:1063300040B32F211C4814F0ABFE411C1B4B1C4AE0
:10634000D3F804350092CDE90164572204200EF001
:106350001BFC4FF0A0434FF40032C3F80C25002281
:10636000C3F808256BB0F0BD6A68D25C170902F06B
:106370000F02C75D04F81370875C04EB430201331E
:106380005770CCE75C21084814F082FE08B15C210C
:10639000D0E70549D2E700BF48B90300142E00201A
:1063A000102E0020182E002027B9030000100140F5
:1063B0008FB9030007B503781C2B2ED1184B1B682F
:1063C0005B0416D5174B1B68032B12DD2F211648D3
:1063D00014F05EFEC0B12F21134814F059FE411C89
:1063E000124B134AD3F80435009204208C220EF08D
:1063F000CBFB0322C8214FF4F01000F079FB03B06F
:106400005DF804EB00F08ABA5C21074814F040FE06
:1064100008B15C21E0E70449E2E703B05DF804FB62
:10642000142E0020102E002027B903000010014078
:1064300022B8030010B5044600214FF4F01004EB1D
:10644000840400F04BFB620032214FF4C010BDE821
:10645000104000F04DBB00F07DBB00001FB52E4C7E
:106460002268520417D52D4B1B68032B13DD2F21F7
:106470002B4814F00DFE00283CD02F21284814F0A2
:1064800007FE411C274B284AD3F80435009204200C
:10649000A9220EF079FB03A803F098FD23685B04A2
:1064A00019D51E4B1B68032B15DD2F211C4814F03A
:1064B000EFFD40B32F211A4814F0EAFD411C194B9F
:1064C000BDF80C20D3F804350192184A009204203C
:1064D000AD220EF059FB00F03DFB00214FF4F0100F
:1064E00000F0FCFA0422C8214FF4F01000F000FB89
:1064F00004B010BD5C210A4814F0CAFD08B15C214B
:10650000BCE70749BEE75C21054814F0C1FD08B1AE
:106510005C21D0E70249D2E7142E0020102E002083
:1065200027B9030000100140F6B8030010B90300BA
:1065300000B58DB012F0EAFE18B1854AD62113F0ED
:1065400042F9844E00F016FB4FF48040824A042149
:106550000EF0FEFA3368580418D5804B1B68032BE5
:1065600014DD2F217A4814F093FD002800F0C78035
:106570002F21774814F08CFD411C794B794AD3F8D0
:10658000043500920420DA220EF0FEFA00F0E2FB5D
:106590000021242203A814F08BFC01238DF80C3079
:1065A00007238DF80F3006238DF814306E496F4B9A
:1065B000079303A800F078F9F0B10B2840F0B18000
:1065C0003368590418D5654B1B68032B14DD2F2144
:1065D0005F4814F05DFD002800F09A802F215C4890
:1065E00014F056FD411C5E4B614AD3F8043500920D
:1065F0000420C1220EF0C8FA5E480CF09DFA402338
:106600005D4A5E48002111F011FC33685A0418D528
:10661000524B1B68032B14DD2F214D4814F038FD1D
:10662000002800F083802F21494814F031FD411CDF
:106630004B4B534AD3F8043500920420E0220EF06D
:10664000A3FA494B1B787BB94E4D0FCD03AC0FC459
:1066500095E8030084E8030003A800F0D9F918B115
:106660003B4AF12113F0AFF8092011F0BFF943487C
:1066700011F0D2FA1221414811F0EBFA044650B160
:1066800041491222113014F008FCFF2323712146E6
:106690003A4811F019FB09F0F5FA00F0C7FA00F0DA
:1066A00085F818B12A4AFB2113F08DF833685B0492
:1066B00017D52A4B1B68032B13DD2F21244814F018
:1066C000E7FC00283BD02F21214814F0E1FC411CBD
:1066D000234B2E4AD3F8043500920420FD220EF0FD
:1066E00053FA00214FF4F01000F0F8F90222C8210B
:1066F0004FF4F01000F0FCF9FFF7DCFDFCE75C2143
:10670000134814F0C5FC08B15C2132E7104934E7A6
:106710005C210F4814F0BCFC08B15C215FE70C4918
:1067200061E70B4AC62113F04EF865E75C21084883
:1067300014F0AEFC08B15C2176E7054978E75C21EE
:10674000034814F0A5FC08B15C21BDE70049BFE790
:1067500027B90300142E0020254B0300102E002023
:10676000001001403BB80300982F0020B5630200E1
:1067700066B80300B9620200BC2E0020FC2E002087
:10678000B4B80300F8B7030010B80300CEB8030094
:1067900010B504460EF040FF38B123780E2B04D11B
:1067A0000020BDE810400CF021BA10BD0CF064B917
:1067B00070B5837DC27D86B043EA0223ADF8143004
:1067C0000446012305A80E46ADF8163003F0C8FBB9
:1067D0000546002845D104AA2146208A03F0A8FDD9
:1067E000054600283DD10DF112033246BDF81010C8
:1067F000E08A03F0A5FF0546002832D1217ED4F8B7
:10680000120001F001010BF0F7FD10B1784604F021
:1068100059FDBDF8120006F06FFF054608BB174B87
:106820001B681B031DD5164B1B68062B19DD2F217A
:10683000144814F02DFCB8B12F21124814F028FC94
:10684000411C227E104B02F00102D3F80435029263
:10685000D4F8122001920D4A00920720C6220EF0B1
:1068600093F9284606B070BD5C21064814F010FC70
:1068700008B15C21E1E70349E3E700BF142E0020E3
:10688000102E0020BFB9030000100140DEB9030044
:1068900008B50CF003FD01F00FFD03F09DFABDE813
:1068A00008400BF0A5BB000073B50E46054688B343
:1068B0000CF07EF8044650BB03F03EFB01F036FDC1
:1068C000286906F0E9FE044608BB2B7F0193AB69FB
:1068D000009301466B6910484FF6FF7207F094F978
:1068E0000446A0B92B6A03B1984710F00BFA03F0E5
:1068F0000FFA054601F048FA0B2D01D00B2802D102
:10690000FFF7C6FF0B2404F0CFFB06B13070204622
:1069100002B070BD0E24FAE79C2F002008B50EF0DF
:106920007BFE20B10020BDE808400CF05FB90248B2
:10693000BDE808400CF0F8B8F02D002010B507496C
:10694000074807F057FD024638B906490648096965
:106950000123BDE8104007F066BD10BD10300020D7
:106960002C330020F82F0020F831002010B50378D8
:10697000023B082B2CD8DFE803F01B05102B2B2C37
:106980002B2B38001E4B5B6813B3007A00B31D4AF3
:1069900001211170BDE810401847194B9B68BBB12D
:1069A000184A1178A1B100211170BDE810401847B4
:1069B000154B1A78124B42B9DB6813B111490A70B2
:1069C0009847BDE81040FFF7B9BF1B68002BECD11A
:1069D00010BD0B4B0D485969102207F069FD0028C6
:1069E000F6D0BDE8104012F0E1BED0E90210FFF78A
:1069F000DFFE08B112F0DAFE034B01221A70E7E75E
:106A0000F82F0020F42F0020F52F0020F83100206F
:106A100070B5164A164E5168044686B0106803AB2E
:106A200003C31189927A19809A700FCC35460FC52D
:106A300094E8030085E803007369A3B10D4B00934C
:106A40000D4A0E490E4803AB07F0A6FC48B90D48A5
:106A500009F0D4F801460A4807F0B8FC08B9FFF776
:106A60006DFF06B070BD0720FBE700BFFEB9030055
:106A7000F82F00206D690200103000202C33002018
:106A8000F83100203030002070B5104C206808B973
:106A900012F08CFE4FF0A0450D4ED5F8043532684B
:106AA0005340C5F804352368013B236063B90948A6
:106AB00012F0E0FC3268D5F8043523EA0203064AF6
:106AC00012681343C5F8043570BD00BF6C33002055
:106AD00070330020743300209C3300204FF0A0431B
:106AE00011B1C3F80C057047C3F8080570470000E2
:106AF000F8B52AB3132923D9124B134D5200013A8A
:106B00004FF0A0441A602860D4F8043518400F4BA9
:106B10004FF4FA76186000274FF40040E0FB01675D
:106B20004FF47A7200233046394613F0DFFF00221B
:106B30000146074812F056FC10B92B68C4F80C3512
:106B4000F8BD00BF6C330020703300209C33002060
:106B50007433002008B5054812F08CFC044B1A6809
:106B60004FF0A043C3F8082508BD00BF74330020D0
:106B70007033002008B54FF0A04303224FF40031DA
:106B8000C3F84427C3F808154FF48021C3F84827F9
:106B9000C3F808154FF40021C3F84C27C3F80815B3
:106BA000C3F850274FF48012C3F808250121054A85
:106BB000054812F005FC18B1BDE8084012F0F6BD1A
:106BC00008BD00BF896A02000CBA0300124B70B501
:106BD0000024124E124DC3F87C414FF0A043A15D3A
:106BE000D3F8102501238B40934311D00D49D5F8DC
:106BF00004250B68981A48BFD01A43F233339842E1
:106C000006D9D5F804350B60074B20461B6898471A
:106C10000134042CE1D170BD0060004010BA0300C3
:106C200000100140983300209433002070B50446D2
:106C3000CEB0002864D03C4D2A6852042FD53B4B7F
:106C40001B68032B2BDD3A4B0DAE19680023E25C69
:106C5000100902F00F02085C06F81300885C06EBCE
:106C600043020133102B5070F1D100232F21314802
:106C700086F8203014F00CFA002843D02F212D483C
:106C800014F006FA411C2C4B2C4AD3F8043501921F
:106C90002B4A00920296412204200DF075FF2B68CA
:106CA0005B042DD5214B1B68032B29DD2F212148A7
:106CB00014F0EEF900282ED02F211E4814F0E8F928
:106CC000411C1D4BE27BD3F804350B92A27B0A9248
:106CD000627B0992227B0892E27A0792A27A06925C
:106CE000627A0592227A0492E2880392A288029242
:106CF00022680192134A0092042046220DF044FFBC
:106D00004EB070BD5C210B4814F0C2F908B15C2193
:106D1000B5E70849B7E75C21064814F0B9F908B1AE
:106D20005C21CAE70349CCE7142E0020102E002076
:106D3000182E002014BA0300001001403CBA0300D2
:106D40008FB903004EBA030060DF704769DF7047F8
:106D50000BF0ECBE10B588B000F04AF908B112F0A3
:106D600025FD2B4B0393039B04930C22002105A8C4
:106D700014F09EF80023049A8DF8143005A9012020
:106D8000FFF7E4FF08B112F011FD0C22002105A865
:106D900014F08EF8F823049A059305A9A120FFF7B3
:106DA000D5FF08B112F002FD04A8FFF7CDFF039B49
:106DB000049A9A4204461CD0164B1B685B0418D5F3
:106DC000154B1B68012B14DD2F21144814F060F9BA
:106DD000A8B12F21114814F05BF9411C104B049A03
:106DE000D3F8043501920F4A00920220A2220DF03E
:106DF000CBFE14B1204612F0D9FC08B010BD5C21C6
:106E0000064814F045F908B15C21E3E70349E5E7DA
:106E1000F02D0020142E0020102E00208EBA03002A
:106E200000100140BEBA030070B5EFF3108672B6D1
:106E30000C4A946801239CB993600B4B0B4DD3F81B
:106E4000801029401160C3F88050D3F8841051603D
:106E50004FF0FF32C3F88420047006B962B670BDEB
:106E60000370FAE7E853002000E100E0FC06FFBDF4
:106E700010B5084B9A685AB150B9EFF3108172B649
:106E8000054A1C6814605C685460986001B962B679
:106E900010BD00BFE853002000E100E001600B6876
:106EA00043604A68934204BF0023436070474368CD
:106EB00043B1026891680B4443605268934204BF37
:106EC0000023436070474BDF704700001FB50D4C37
:106ED00001A8FFF7F8FF70B9214602A8FFF7DEFF0F
:106EE000039B002BF4D00198D3E90021904702A81E
:106EF000FFF7DDFFF4E7052801D012F057FC04B0DE
:106F000010BD00BFF8BA030061DF704730B5114B08
:106F10001B7891B0E3B1104D34240DF1020103A8A8
:106F2000ADF80240FFF7F0FF70B9294601A8FFF75E
:106F3000B5FF029B002BF0D003A8D3E900219047B6
:106F400001A8FFF7B4FFF4E7052801D012F02EFCEA
:106F500011B030BDA033002004BB030010DF704728
:106F600013B5044609496846FFF798FF019808B928
:106F700002B010BDD0E900312046984718B16846EC
:106F8000FFF795FFF2E71120F2E700BF14BB030003
:106F900013B5044607496846FFF780FF019B0BB90C
:106FA00002B010BD2046D3E9002190476846FFF7A4
:106FB0007EFFF3E72CBB03000B4991F816335A0907
:106FC000EC231341DB0706D5084B9A683AB94FF416
:106FD00080030B60704742F2020012F0E7BB1A68B0
:106FE00042F480021A60704700E100E0E85300209C
:106FF000F7B5184F3C785CBB174E0125204635701D
:10700000FFF7AEFF112820D02046FFF7C1FF134B3A
:107010001868019002A800F8054DFFF705FF104918
:1070200001A8FFF79BFF0446B0FA80F040093870D2
:107030009DF80300FFF71CFF3CB90A4B34701C702D
:10704000FFF7BAFF2846FFF7A3FF204603B0F0BDC5
:107050000824FAE7A2330020A133002010BB03006C
:10706000C5B00200A333002007B508496846FFF702
:1070700015FF019B13B903B05DF804FBD3E90020B1
:1070800090476846FFF713FFF3E700BF20BB0300FC
:10709000FFF7EABF38B5837803F003020446032AFA
:1070A00022D8DFE802F00214191D9B08154A164881
:1070B000126813440268A3600021EAB195685D1B61
:1070C000002D16DAD1B91146E160046038BD9B0885
:1070D00003EB83035B00E9E79B0864225343E5E786
:1070E0009B0841F27072F9E7784604F0EBF8002350
:1070F000DCE71146D268E0E70029E5D0CC60E26029
:10710000E4E700BFBC330020C433002008B50328E7
:1071100009D8DFE800F00D020406064808BD06485D
:10712000FCE70648FAE7784604F0CCF80020F5E7DB
:107130000348F3E740420F00809698000046C323BF
:10714000A08601002DE9F041574D2B78A3B1574B94
:10715000574E5C680BF056FF241A3078FFF7D6FFC5
:107160003278544B001B002A40D14CF250329042EE
:107170003CD91A6801321A60DFF84881D8F800203B
:10718000002A00F087804A4E9378307803F003039A
:107190008342344664DD474B97681B68FB1A464FB1
:1071A0005F43FFF7B3FFD8F80030B7FBF0F09F78EC
:1071B000C7F30107FBB2022B1FD031D8012B47D1F7
:1071C0000A22B0FBF2F302FB1300002840D10BF0BF
:1071D00019FF00F5742101F5107137702B78002B21
:1071E00050D03248BDE8F0410BF0E3BE1A68324996
:1071F000B0FBF1F010441860BEE7337863B9642245
:10720000B0FBF2F302FB130010BB0BF0FBFE2B49AB
:10721000022301442370E1E7012B19D10A22EFE791
:10722000337863B941F27072B0FBF2F302FB1300E2
:1072300070B90BF0E7FE224903230144EAE7012B72
:1072400002D14FF41672EFE7022B01D13C22EBE79B
:107250000BF0D8FE06462078FFF758FF3118BDE73F
:107260000BF0D0FED8F800300446987800F0030008
:10727000FFF74CFFD8F800309B78C3F301032118C7
:107280003370ABE70948012341602B70BDE8F04142
:107290000BF056BE2B7823B10448BDE8F0410BF04B
:1072A00071BEBDE8F08100BFC0330020A4330020D0
:1072B000C1330020BC330020A086010080969800D6
:1072C0000046C323C43300202DE9F341244B1B782F
:1072D000032B2AD8DFE803F0021B1F23214A13687F
:1072E00001331360204B214E1E4D00221A70B04610
:1072F00034683CB1A3682A6893421AD02A689B1A62
:10730000002B16DBFFF71EFF02B0BDE8F081154A27
:1073100013680A33E5E7134A13686433E1E7114A57
:10732000136803F5BB531033DBE7784603F0CAFF5D
:10733000D8E72788E368C8F8003002A9002341F89D
:10734000043D384601F0BEFC10B1784603F0BAFFA8
:1073500038466368019998472046FFF79BFEC7E7C8
:10736000C1330020BC330020C0330020C4330020D0
:1073700010B5084C18220021204613F099FD064B49
:10738000064AA36000231360054A1360054A137080
:1073900010BD00BFA4330020C9720200BC3300201E
:1073A000C4330020C0330020F8B50F46164604460B
:1073B00010B9784603F086FF124D0CF017FB2B68CE
:1073C00000220BB1A34216D1A17867F3010166F345
:1073D0008701A1709BB1DB6882B92B602EB120467A
:1073E000FFF758FE2B689C4201D1FFF7ABFEBDE8CA
:1073F000F8400CF03BBB1A46DB68E2E7D360002E96
:10740000F5D0ECE7C43300200A4B93F8390093F829
:107410005D2080F00100404280B24AB14FF6FF7219
:10742000904204D0586D1B6BC01AC00F70470120EA
:10743000704700BFC833002038B5154C242303FB28
:107440000043054693F8393013B9784603F03AFF04
:10745000B4F8603013B9784603F034FF242202FBFD
:107460000543002183F83910B4F86030013B9BB22A
:10747000A4F860301BB94FF6FF73A4F8623002FB2A
:107480000544A06A10F015FA0023A36238BD00BFBE
:10749000C83300202DE9F84F2C4DB5F86030064672
:1074A00013B9784603F00EFF294C06F57A7B0027C6
:1074B0004FF0010948F2111A637C1FFA87F8C3B133
:1074C000A368A3EB0B03002B13DAA3882268A4F1B3
:1074D0001001404600F0D6FE102827D809FA00F324
:1074E00013EA0A0F25D11B4A13421ED04046FFF76C
:1074F000A3FF2434BFB1FFF787FFB5F86030A5F8CC
:1075000062000BB3012802D9784603F0DBFEB5F820
:107510006230242202FB03531B6B9A1B48BFF21AF2
:10752000EA60BDE8F88F0127C6E710B1784603F09E
:10753000C9FE237C013BDBB22374002BD6D0D4E9F7
:1075400002321344A360D4E7EB60EAE7C8330020BB
:10755000F0330020A002010010B5064C6422002187
:10756000204613F0A5FC044BA3604FF6FF73A4F86C
:10757000623010BDC8330020957402002DE9F04739
:1075800001280646884617469A46BDF8209002D93B
:10759000784603F097FEB8F1000F02D1784603F069
:1075A00091FE17B9784603F08DFE98F800305B071E
:1075B00002D1784603F086FEBAF1000F02D1784678
:1075C00003F080FEB9F1000F02D1784603F07AFE95
:1075D000274C242303FB064393F8393013B130467C
:1075E000FFF72AFF0BF00EFD844697E80F002425D5
:1075F00005FB064505F1180E8EE80F00C5F828A01A
:10760000A5F82C9098F80030C3F3020385F83830C1
:1076100098F80000C3084CF2503003FB000001232F
:1076200085F83930B4F8603068636044013328630A
:10763000A4F86030FFF7E8FEB4F86230834201D16D
:107640009E4213D14FF6FF739842A4F8620002D114
:10765000784603F037FEB4F862300548242202FB76
:107660000344216BBDE8F0470BF0A3BCBDE8F087F5
:10767000C83300204A09012301F01F0103FA01F178
:1076800050F82230194214BF0120002070474FF6F5
:10769000FF72B2EB104F82B083B215D113F47F406A
:1076A00007D003F44043B3F5004F14BF002001207E
:1076B00006E023F07F022AB97F3B18BF012318465A
:1076C00002B070470346FAE723F03F03C02BECE714
:1076D00001289FBF054B382202FB003090F8340090
:1076E00094BF00F001000020704700BF70340020FC
:1076F000C0F30F43A3F540539BB2012B13B512D82F
:107700000B4A107810F004000FD10A4A096802EB06
:10771000C304C943616012F8331021F0060102F876
:10772000331002B010BD0520FBE70020F9E700BFD1
:10773000E2340020E434002013B50190000C01284D
:107740000C4602D0784603F0BDFD0123638002237E
:10775000A380238002B010BD37B5C0F30F44A4F559
:107760004054A4B2012C01900D4602D9784603F092
:10777000A9FD044800EBC4046368DB432B6003B03D
:1077800030BD00BFE434002070B51C460B89B3F552
:10779000BE7F0546164606D3092323602068B0FA4B
:1077A00080F0400970BDFFF793FF28B10C483823E3
:1077B00003FB050083890BB10523EEE73EB9828800
:1077C0004FF6FF739A4206D0C2889A4203D00868E7
:1077D000FFF75DFF08B90723DFE70023DDE700BF00
:1077E0007034002037B5040CB4F5805F01900D466D
:1077F00002D0784603F066FD064BA4F58054A4B28F
:107800000621022201FB0431284603B0BDE83040C6
:1078100013F043BB5A34002037B5C0F30F44A4F52E
:107820000054A4B2012C01900D4602D9784603F011
:1078300049FD054B3821142201FB0431284603B0D1
:10784000BDE8304013F029BB7034002037B5C0F3D9
:107850000F44A4F50054A4B2012C019014D80C4B91
:10786000187810F004050DD10A48382303FB0404EE
:107870001422204613F011FB94F8343023F0060351
:1078800084F83430002000E0052003B030BD00BF94
:10789000E23400207034002010B50E4C702200211C
:1078A000204613F005FB062200210B4813F000FBD5
:1078B00010220021094813F0FBFA4FF0FF31084A6B
:1078C00061600123E260A384E1636264A4F85C3038
:1078D00010BD00BF703400205A340020E434002072
:1078E000FFFF02002DE9F04FD5B0044607A80F4670
:1078F00004929946BDF8786102F068FB6F4BBDF8C1
:107900001E10049A382000FB0430B0F80C8041456A
:1079100005D84FF0100A504655B0BDE8F08FBDF8BD
:107920001C10049108AD002A00F0938002F10C01B4
:1079300003C9B2F81EB0B2F824A0127F85E8030094
:10794000002A00F09680382202FB0434647CFF2C6D
:1079500001D15B4B1C78B9F1000F02D1784603F0DE
:10796000B1FC16B9784603F0ADFC0AAB18462422E8
:107970000021059313F09CFA504610AA594603F0D3
:107980001FF9059B82460028C5D1049A9C7295E890
:1079900003009044BA7ADA72FA7A1A7383E8030021
:1079A000FA68A3F8088051461846C3F810909E82E2
:1079B0001A620BF0B7F882460028ACD1414C22681D
:1079C00092041AD5404B1B68042B16DD2F213F482B
:1079D00013F05EFB00284ED02F213C4813F058FBDB
:1079E000411C3B4B3A88D3F804350192394A009246
:1079F000052040F2A9120DF0C7F823689B048AD530
:107A0000314B1B68042B86DD334B802E196828BF51
:107A10008026002313ACB34236D100222F212B48FD
:107A200004F8132013F034FB00283BD02F21274803
:107A300013F02EFB411C264B284AD3F80435019243
:107A4000274A009202944FF4D57205200DF09CF85D
:107A500061E7B0F804B0C0880593294602F030FB16
:107A600048BB6A88002A3FF454AF4FF6FF7A059B63
:107A700069E714466FE75C21144813F009FB08B16D
:107A80005C21AAE71149ACE719F80320100902F0BC
:107A90000F02085C04F81300885C04EB4302013316
:107AA0005070B8E75C21094813F0F2FA08B15C2184
:107AB000BDE70649BFE74FF0050A2CE77034002008
:107AC000FC2D0020142E0020102E0020D8BB030017
:107AD00000100140F4BB0300182E002008BC030076
:107AE0008FB9030013B50190000C01280C4602D099
:107AF000784603F0E7FB6388012B0DD1A388022BA6
:107B00000AD12388022B07D1044A137843F00103DA
:107B10001370002002B010BD0B20FBE7E234002000
:107B200037B50190000CB0F5805F0FD1094B187884
:107B300010F0040408D1084D0222284613F0ADF9D4
:107B40006B7923F006036B71002000E0052003B081
:107B500030BD00BFE23400205A34002007B5104B7E
:107B60001B785B0709D40F4A12F8303043F0040346
:107B700002F8303003B05DF804FB00F540500223FA
:107B8000ADF80430ADF8060001980FF07DF900283B
:107B9000F0D0784603B05DF804EB03F093BB00BF70
:107BA000E2340020E434002007B5124B1B7813F0B8
:107BB000040F114B08D113F8302042F0020203F8F1
:107BC000302003B05DF804FB03EBC003022200F594
:107BD00040505B68ADF80420ADF80600DB43694611
:107BE000019800930FF0F2F80028EAD0784603F0ED
:107BF00069FBE6E7E2340020E434002007B5134BCC
:107C000013491B7813F0040F0BD1382303FB00102A
:107C100090F8343043F0020380F8343003B05DF85C
:107C200004FB0223ADF8043000F50053ADF8063034
:107C3000382303FB001101980FF0C8F80028EDD09D
:107C4000784603B05DF804EB03F03CBBE23400205F
:107C50007034002007B50C4B1B785B0707D40B4A28
:107C6000537943F00203537103B05DF804FB0749F5
:107C700007480FF0ABF80028F6D0784603B05DF85F
:107C800004EB03F01FBB00BFE23400205A34002095
:107C9000020000104A0901F01F034FF0FF31994024
:107CA00050F82230194009D04B420B400449594347
:107CB000C90E044B585C00EB421070471820704707
:107CC00031B57C07B8BB03002DE9F04F85B0814684
:107CD000924698460E9F0D4611B9784603F0F2FA87
:107CE00003AB524629464846FFF74EFD18B90398A4
:107CF00005B0BDE8F08F69882B884FF6FF7291427E
:107D000030D1B3F5807F34BF4FF0010B4FF0020B41
:107D10002E895E44B6B230460FF0C9FD044680B3EA
:107D20006A882B884FF6FF708242D9B21DD06270EC
:107D3000120A2170A2702A89696804EB0B0013F003
:107D4000ACF800962346524629464846FFF7CAFD3E
:107D5000039018B9B8F1000F00D077B920460FF0A2
:107D6000A8FDC4E74FF0030BD2E713F47F4F1DBF0C
:107D70001B0A237061702170DDE7C8F800403E8067
:107D8000B6E70420B4E700002DE9F04F504E3378F9
:107D900013F0020785B003D00B2005B0BDE8F08FCB
:107DA00013F0010F4B4C18D0A0464FF6FF79BB469D
:107DB000B8F80C304B450CD0B8F8060048455ED1F9
:107DC000B8F80E50022D5FD1382303FB074383F828
:107DD00012B008F13808002F4FD033783E4D43F0F1
:107DE000040333702B7813F0040064D1990701D594
:107DF000FFF7DAFE2B7823F006032B702B7A5A0755
:107E00005DD50120FFF7AAFE2B7A23F006032B7223
:107E1000324D6B79980701D5FFF71CFF6B7923F082
:107E200002036B7194F83430990702D50020FFF7F4
:107E3000E5FE94F8343023F0020384F8343094F8EB
:107E40006C309A0702D50120FFF7D8FE94F86C3009
:107E500023F0020384F86C303378DB0735D42048F4
:107E60000290022302A9ADF80C300EF0AFFF10B162
:107E7000784603F027FA05208FE7012798E702F0FC
:107E8000B9F800289CD087E7134B03EBC5050435F0
:107E900000212846FFF7FEFE1828824694D01FFADC
:107EA0008AF002F0F1F800287FF476AF0AF10101C0
:107EB0001729EED988E70020FFF750FE9AE79F07C1
:107EC000A2D50120FFF770FE9EE7002065E700BF06
:107ED000E234002070340020E43400205A340020C2
:107EE000020001002DE9F04F00F114048FB00546A7
:107EF000204603F0B5F88146002876D04FF6FF7390
:107F0000ADF832302B7D012B72D10DA802F05EF856
:107F1000EB8ABDF834209B1A9BB209934E46554C10
:107F20004FF0000A002E7CD0A788099BFA1A57420E
:107F3000574194F82C30E98B03F0010320460A9353
:107F4000FFF798FB29880B90A28C68884FF00008F7
:107F5000904576D34FF00008C346474B1B689B04FF
:107F600025D5464B1B68062B21DD2F21444813F0F5
:107F70008FF8002875D02F21414813F089F8411C53
:107F80000B9A404BD3F80435CDF818B0CDE9047204
:107F90000A9A039234F8062C029234F8082C0192C3
:107FA000394A0092072040F21C420CF0EDFD0A9B7A
:107FB000BBB1B7B10B9BA3B1BBF1000F11D02B7DAF
:107FC000012B1FFA8AF704D1A26A2946384601F02C
:107FD00001F8236AA26A03EBC80329465B683846A6
:107FE00098473834BAF1000F18D00FB0BDE8F08FC1
:107FF000EB8A04339BB2032B0AD90DF132012046E0
:1080000002F0BAF840B1784603F05CF9002686E742
:1080100000230646099382E7064680E74FF0010AEF
:1080200080E7E08801280AD8184BBDF8321003EB2E
:10803000C0000430FFF71EFB00F0010779E730466F
:10804000FAE7236A03EBC80C33F838308B4203D1CC
:10805000BCF80230834202D008F1010878E7CB4631
:108060007BE75C21064813F013F808B15C2183E735
:10807000034985E778340020142E0020102E0020BC
:10808000D8BB03000010014048BB0300E4340020CB
:108090002DE9F04303681D7805F0C002402AD1B0F5
:1080A00004460FD003D86AB10026354610E0802A76
:1080B00000F09D80C02AF7D19A785E78ADB246EA8A
:1080C000022605E0ADB27F2D00F08E804FF6FF76E0
:1080D0005A4B1A6812F4005F984619D0584B1B6827
:1080E000042B15DD2F21574812F0D2FF002800F095
:1080F00082802F21534812F0CBFF411C524B534A30
:10810000D3F8043500920195FD2205200CF03CFDCA
:10811000E06902F09FF88146A06902F087F84FF607
:10812000FF739E42ADF81450ADF8166027686BD10E
:10813000FF2D8CBF022301234FF6FF721F4496428E
:108140000697A38862D1FF2D8CBF022201229B1AC1
:10815000227A8DF820206289ADF82220E268099207
:10816000227C8DF82820628AADF82A2062690B9261
:1081700094F820208DF83020626A0D92D8F8002003
:10818000ADF832909BB29204ADF81C30ADF83800D7
:1081900027D52B4A1268042A23DD2D4A802B10682C
:1081A00028BF802300220FAC9A4231D100232F2117
:1081B000244804F8123012F06BFF002835D02F212C
:1081C000204812F065FF411C1F4B224AD3F80435AA
:1081D0000192214A009202944FF48A7205200CF019
:1081E000D3FC05A8FFF77EFE51B0BDE8F0835B78B5
:1081F00043EA05256AE75C21124812F049FF08B1FD
:108200005C2177E70F4979E7032395E703229EE78F
:10821000B95C0D0901F00F01455D04F81250455C91
:1082200004EB420101324D70BEE75C21054812F0BB
:108230002FFF08B15C21C3E70249C5E7142E0020D7
:10824000102E0020D8BB0300001001409DBB03008E
:10825000182E0020B0BB03008FB90300037813B1C0
:10826000142B03D070470430FFF712BFC388022BD2
:1082700001BF034A137843F002031370704700BF35
:10828000E2340020F0B5064685B014461D4681B1A3
:108290007AB173B103AB0022FFF776FA10B90398F5
:1082A00005B0F0BD0095234600223046FFF71AFBCB
:1082B000F6E70E20F4E7000007B5FFF7EDFA00F04F
:1082C000CBFE174A137803F0FC036FF3820313709D
:1082D000144B18680EF0D8FD134801900EF0D4FD31
:1082E00043F20103ADF8063001980EF0CDFD4FF4D6
:1082F0008053ADF8063001980EF0C6FD4FF40053E0
:10830000ADF8063001980EF0BFFD42F20103ADF862
:108310000630019803B05DF804EB0EF0B5BD00BF68
:10832000E234002038BB03000200003008B5FFF73C
:10833000B3FA0948094B03600AF0F6FB00F07EFE31
:10834000FFF716F8FFF708F9054A137803F0FC0366
:108350006FF38203137008BD643400205D82020055
:10836000E23400202DE9F0410D460446002800F0DB
:10837000BE80002900F0BB80C3681BB18368002B5E
:1083800000F0B5804FF6FF732B80E3681BB9A3683C
:10839000002B40F0AE80A388002B40F0AC8002F0B0
:1083A00083FE10B10F20BDE8F081564BA78806224E
:1083B00002FB07329178D278D14219466AD1D4E9CA
:1083C00002870026B74240F08B802A884E4E4FF637
:1083D000FF739A4243D196F8343013F0010305D06D
:1083E00096F86C30DB0700F18A80012338222B805D
:1083F00002FB03634FF6FF70D8802B8802FB0363F8
:1084000098802B88A78802FB03639F812B8867884D
:1084100002FB03635F802B8827885343F7522B8826
:1084200002FB036250742288A38882424FF0060246
:1084300002FB03130BBF9A78DA78013201320CBFCA
:108440009A70DA702B88382202FB036393F8342089
:1084500042F0010283F834202888FFF7CFFB2B88F5
:108460002169382202FB0363002019632B88A1686D
:1084700002FB036399622B88E16802FB0363998521
:108480002B88616902FB036399612B8802FB0366F9
:10849000B38288E71C4B2288B3F80CC06688BC45C1
:1084A00007D1B3F802C0B44503D1B3F800C0944576
:1084B0000CD0B3F84400B84281D1588FB0427FF459
:1084C0007EAF188F90427FF47AAF01203822288047
:1084D00002FB003090F83430DA077FF570AF61E7C7
:1084E00058F83600FFF7D3F838B101366AE70E20A6
:1084F00059E7092057E7052055E7072053E70420EF
:1085000051E700BF5A340020703400207FB5054683
:108510000E4619B30DF10A030022009303ABADF828
:108520000A20FFF7D1FB044688B90D48039B382287
:108530006A438118C97C49070CD002F11301BDF8C8
:108540000A200092014432462846FFF717F82046D9
:1085500004B070BD18460FF0ACF9F8E70E24F6E74A
:108560007034002013B514460A4639B134B10023E3
:1085700000932146FFF7A8FB02B010BD0E20FBE7D9
:1085800010B50446FFF7A4F870B117290ED8084AB1
:10859000382303FB0423DA888A4203D0D98020469B
:1085A000FFF72CFB002000E0052010BD0720FCE7B2
:1085B0007034002010B5044651B1FFF789F848B176
:1085C000054B382202FB04340020E3880B8010BDE9
:1085D0000E20FCE70520FAE770340020012838B5AA
:1085E0001BD80F4B382202FB003292F83440E407CC
:1085F00013D5D27C01F0070402F00705A54204D18F
:10860000C1F3C404B4EBD20F05D0382202FB00330F
:10861000D974FFF7F3FA002000E0052038BD00BF51
:108620007034002069B101280DD8084B382202FBB4
:10863000003090F83430DB0705D5C37C0B70002088
:1086400070470E2070470520704700BF703400202F
:1086500038B50446154699B192B1FFF739F888B19B
:108660000A48382303FB040083696BB1837CC3F39E
:1086700001030B70837CC3F385032B70002038BD8E
:108680000E20FCE70520FAE70620F8E7703400200A
:108690002DE9F3410DF107020DF106010546FFF743
:1086A000D7FF10B1784602F00DFE284E9DF80770F6
:1086B0009DF80610382303FB05633C46B3F824807D
:1086C000032923D8DFE801F005021A1E07EB87040F
:1086D0006400B4FBF8F3092B1CD8002F33D0012B16
:1086E00038BF0123DFB20021382000FB05603A4685
:1086F0001430FEF759FE02B0BDE8F081642417FB88
:1087000004F4E6E741F270747C43E2E7784602F055
:10871000D9FDDEE7632B05D80A220121B3FBF2F372
:10872000DFB2E1E741F26F72934295BF642241F2FA
:108730007072B3FBF2F3B3FBF2F399BFDFB2022125
:10874000DFB20321D0E73946CEE700BF7034002006
:10875000012810B50FD80B4A382404FB002393F8E6
:108760003420D20707D59A693AB141B19984FFF70D
:108770008FFF002010BD0520FCE70620FAE7072048
:10878000F8E700BF70340020012838B5044629D826
:10879000174B382000FB043090F8345015F0010FCF
:1087A0001D461FD08369FBB13F2A1FD803291DD85E
:1087B000837CB2EB930F03D103F003038B420FD002
:1087C000382303FB0453987C62F38700024661F36D
:1087D000010220469A74FFF75BFF2046FFF70EFA6E
:1087E000002000E0052038BD0620FCE70720FAE75E
:1087F0007034002038B5044602F056FC18BB204601
:10880000FEF766FF08B3134D382202FB0452D289EB
:10881000022A16D1104A137813F0010003D0137AFC
:10882000D90714D4012043F0010302F83030382373
:1088300003FB045380B2D881FFF7B6F92046FFF757
:10884000DDF9002038BD0F20FCE70520FAE7042001
:10885000F8E700BF70340020E43400202DE9F04137
:1088600004468846FEF734FFD0B1114B382202FB94
:108870000434E689022E16D0172916D80D4FF500BC
:1088800004357819FEF7F6FE40B9012303FA08F122
:108890007B590B437B513046FFF786F9002000E0FF
:1088A0000520BDE8F0810620FBE70720F9E700BFBF
:1088B00070340020E4340020F8B504460F46FEF77B
:1088C00007FFD8B1104B382202FB0434E589022D92
:1088D00016D0172916D80D4EEC0004343019FEF7C7
:1088E000C9FE50B1012303FA07F13359284623EAA0
:1088F00001033351FFF758F90020F8BD0520FCE7CC
:108900000620FAE70720F8E770340020E43400205E
:108910002DE9F843064615460F4641B33AB3FEF734
:10892000D7FE30B3164B382202FB0636F389022BF2
:1089300021D00024DFF84C90B5F800802C80F0891D
:1089400001280ED809EBC00021460430FEF792FE44
:1089500038B12B88984510D927F813402B8801335C
:108960002B800134182CEAD10020BDE8F8830E20BA
:10897000FBE70520F9E70620F7E70920F5E700BF48
:1089800070340020E43400202DE9F0410746884689
:10899000FEF79EFEA0B1082915D838250B4E7D4361
:1089A00008357019FEF766FE40B9012303FA08F195
:1089B000735938460B437351FFF720F9002000E04C
:1089C0000520BDE8F0810720FBE700BF70340020E0
:1089D000F8B506460F46FEF77BFEA8B1082915D864
:1089E00038240B4D744308342819FEF743FE50B168
:1089F000012303FA07F12B59304623EA01032B51D7
:108A0000FFF7FCF80020F8BD0520FCE70720FAE797
:108A1000703400202DE9F041064615460F46F9B1A5
:108A2000F2B1FEF755FEE8B1104BB5F800803822E0
:108A3000002402FB06362C80083621463046FEF71D
:108A400019FE38B12B8898450ED927F813402B888A
:108A500001332B800134082CEFD10020BDE8F081D8
:108A60000E20FBE70520F9E70920F7E77034002026
:108A700010B50446FEF72CFE70B108290ED8084A3E
:108A8000382303FB04239A888A4203D09980204626
:108A9000FFF7B4F8002000E0052010BD0720FCE738
:108AA0007034002010B5044651B1FEF711FE48B1F4
:108AB000054B382202FB04340020A3880B8010BD34
:108AC0000E20FCE70520FAE770340020030605D4E9
:108AD000012803D0024B1870002070470720704710
:108AE000FC2D0020014B1878704700BFFC2D0020A2
:108AF00010B50446FEF7ECFD60B1074A382303FBCE
:108B000004231A7C8A4203D019742046FFF776F8B2
:108B1000002000E0052010BD7034002010B5044690
:108B200051B1FEF7D5FD48B1054B382202FB0434A4
:108B30000020237C0B7010BD0E20FCE70520FAE717
:108B40007034002010B50446FEF7C2FD80B181F0FC
:108B500080037E2B0ED9084A382303FB04235A7C5A
:108B60008A4203D059742046FFF748F8002000E0FD
:108B7000052010BD0720FCE77034002010B5044626
:108B800051B1FEF7A5FD48B1054B382202FB043474
:108B90000020637C0B7010BD0E20FCE70520FAE777
:108BA0007034002021B128B9034B1B880B8070471B
:108BB0000E207047052070475A34002021B128B993
:108BC000034B9B780B7070470E2070470520704751
:108BD0005A34002021B128B9034BDB780B70704761
:108BE0000E207047052070475A34002010B5044607
:108BF00061B1FEF76DFD58B1064B382060431A187D
:108C000052884A801B5A0B80002010BD0E20FCE7C2
:108C10000520FAE77034002073B5019112B310B14A
:108C2000052002B070BD4FF6FF730F4913808B898A
:108C3000BDF80440BDF8065008462BB94E88AE4238
:108C400002D10988A1420AD0B0F84430002BE7D104
:108C5000438FAB42E4D1038FA342E1D101231380C0
:108C60000020DEE70E20DCE770340020F0B509B309
:108C700002B308BB124E1588108002236FF037072D
:108C80001088A8421AD207FB036494F8A4C01CF011
:108C9000010F09D0B4F87C4034B9C3F1020421F8C3
:108CA0001040108801301080012B01D10020F0BD50
:108CB0000123E5E70E20FAE70520F8E70920F6E7AB
:108CC0007034002010B5044651B1FEF701FD48B1E3
:108CD000054B382202FB04340020236B0B6010BDCF
:108CE0000E20FCE70520FAE770340020F8B50746AF
:108CF000FEF7EEFC00B33825104C7D43002205F151
:108D00001400114666192044FEF74EFB384600F069
:108D1000E9F9F08801F08EF94FF0FF33736005F147
:108D20001003234400245C709C70DC703846B475DA
:108D3000FEF764FF2046F8BD0520FCE770340020F4
:108D4000082837B505461CD80DF106010020FFF7AD
:108D5000A9FE28B9BDF80630AB4201D1FFF7C6FF26
:108D60000DF106010120FFF79DFE044658B9BDF83C
:108D70000630AB4202D10120FFF7B8FF204603B016
:108D800030BD0724FAE70024F8E700002DE9F04F92
:108D90005A4DB5F8703085B0804613B9784602F068
:108DA00091FA574CDFF86CA14FF6FF7308F57A790A
:108DB000A5F87230002604F1040B94F82830CBB1EA
:108DC000A369A3EB0903002B19DA002384F82830E8
:108DD000B5F87030013BA5F8703003A92088FFF783
:108DE00071FF10B1784602F06DFAE36903992088AB
:108DF000012298472C34002E50D10126DDE7236A4A
:108E0000A3EB0902002A66DAA5F872602C2101FBA7
:108E100006B12088FFF77AFB0746E8B1DAF80030A0
:108E20009B0417D5374B1B68042B13DD2F213648C5
:108E300012F02EF9E8B12F21334812F029F9411C24
:108E4000324B334AD3F80435009201978022052033
:108E50000BF09AFE082F15D1D4E908231A445B00C1
:108E600022626362A269236AD31A002BC2DA2262E9
:108E7000C0E75C21244812F00BF908B15C21DBE764
:108E80002149DDE7042F01D00F2F20D12C2303FB34
:108E90000656B36B03F51C434033B363B5F870302B
:108EA0004BB3B5F87230012B02D9784602F00AFABA
:108EB000B5F872302C2202FB03539B6BB3EB080214
:108EC00048BFA8EB0302EA6005B0BDE8F08F784622
:108ED00002F0F8F9C6E7B5F872204FF6FF718A4242
:108EE00006D02C2101FB0252926B9B1A002B81DAD7
:108EF000A5F872607EE7EB60E6E700BFF83400207B
:108F000010350020102E002010BC0300001001407E
:108F100035BC0300142E002038B52C4C2C2303FB49
:108F20000043054693F8403013B9784602F0CAF979
:108F3000B4F8703013B9784602F0C4F92C2202FB61
:108F40000542002382F84030B4F87030013B9BB2F8
:108F5000A4F87030A3B3B4F87230AB4235D1926B41
:108F60001B4B134494F84020EAB1A26BD11A00299C
:108F7000B8BF13464FF6FF72B8BF002294F86C10CA
:108F8000A1B1616ECB1A002B10DA0123A4F8723064
:108F9000B4F872300D482C2202FB0344A16BBDE8EB
:108FA00038400AF006B84FF6FF72E7E74FF6FF7356
:108FB0009A42A4F87220EBD1784602F083F9E7E7F1
:108FC0000248BDE8384009F0DDBF38BDF834002064
:108FD000008793030128F8B505460E46174602D9C7
:108FE000784602F06FF90AF001FD134B93F8402028
:108FF00012B11A8BAA421DD093F86C20B2B1B3F80B
:109000004420AA4212D101202C2404FB00343388CE
:10901000A28D9A420AD1E28D73889A4206D1FFF757
:109020007BFF636B0022394628469847BDE8F8402D
:109030000AF01CBD0020E7E7F834002010B5044C0E
:1090400074220021204611F033FF024BA36010BDB3
:10905000F83400208D8D020073B51F4C0AF0C6FC59
:10906000B4F870302BB100232046A4F8703009F01A
:1090700089FF94F840307BB1258B1848666B00213E
:109080002C2211F015FF01A92846FFF71BFEF0B9AD
:10909000022201992846B04794F86C309BB1B4F88D
:1090A00044500F48246E00212C2211F001FF01A929
:1090B0002846FFF707FE10B1784602F003F90222B6
:1090C00001992846A0470AF0D1FC02B070BD78464D
:1090D00002F0F8F8DCE700BFF8340020103500207B
:1090E0003C350020012873B505462DD8174C0AF0F1
:1090F0007DFC94F8403013B1238BAB4220D094F820
:109100006C30FBB1B4F84430AB421BD10126304681
:10911000FFF702FF01A92846FFF7D4FD10B17846FA
:1091200002F0D0F82C2303FB06440222636B019962
:109130002846984700240AF099FC204602B070BDEA
:109140000026E4E70524F6E70524F6E7F8340020D6
:109150004A09012301F01F0103FA01F150F82230FE
:10916000194214BF0120002070474A09012301F071
:109170001F0103FA01F150F822300B4340F822306E
:1091800070470000A0F1100189B2072902D80248F7
:10919000FFF7DEBF00207047743500202DE9F0474F
:1091A0004FF6FF73DFF84080DFF840900B800746F2
:1091B0000D4600241E464FF0AC0A21464046FFF7FC
:1091C000C7FF40B10AFB04F333F80930BB4206D1B4
:1091D0002C80BDE8F0872B88B34208BF2C80013477
:1091E000042CEAD10020F4E7A4370020A83700209F
:1091F0002DE9F0474FF6FF73DFF84080DFF840902D
:109200000B8007460D4600241E464FF02A0A2146D1
:109210004046FFF79DFF40B10AFB04F333F80930E5
:10922000BB4206D12C80BDE8F0872B88B34208BF33
:109230002C800134082CEAD10020F4E7B835002056
:10924000BC35002013B50190000C01280C4602D05B
:10925000784602F037F8042323800123A3800823F3
:10926000638023811023E38002B010BD37B5C0F3C3
:109270000F44A4F58054A4B20F2C01900D4602D9DE
:10928000784602F01FF821460648FFF761FF10B943
:10929000784602F017F8044B33F824302B8003B0E3
:1092A00030BD00BF6C3500207835002010B5044675
:1092B00010B9784602F006F80A4B002293F84210E3
:1092C00090B269B1A3420AD003F121018C4206D0C9
:1092D0000132042A03F1AC03F0D14FF6FF7010BD48
:1092E000A342F4E7CA37002013B50190000C02280E
:1092F0000C4602D0784601F0E5FF074B1B68DB0700
:1093000002D4784601F0DEFF04490422204602B070
:10931000BDE8104011F0C1BD70350020903700202D
:1093200037B5C0F30F44A4F50054A4B2072C019044
:109330000D4602D9784601F0C5FF21460948FFF7DE
:1093400007FF10B9784601F0BDFF0749142000FB64
:10935000041110220431284603B0BDE8304011F05A
:109360009CBD00BF74350020583A002073B5040C32
:10937000B4F5A04F01900D4602D0784601F0A2FF4F
:10938000A4F5A044A4B221460B48FFF7E1FE10B9B2
:10939000784601F097FF16235C43084EA11D10226A
:1093A0003144281D11F079FD325B2A8033195B8826
:1093B0006B8002B070BD00BF0C370020103700205A
:1093C000F8B5A1F1100514246C430B4F0646201D7F
:1093D00031461022384411F060FD391930460BF047
:1093E00001FB10B1784601F06DFF29460348BDE846
:1093F000F840FFF7BABE00BF583A0020743500208D
:1094000073B5050C0E46A5F5005189B207290190E8
:109410000CD80848FFF79CFE30B9A5F5FF5110396C
:1094200089B23046FFF7CCFF002000E0052002B0F3
:1094300070BD00BF74350020F7B5C0F30F44A4F52C
:109440004054A5B2032D01900E4602D9784601F092
:1094500039FF00212422304611F02AFD2946134805
:10946000FFF776FE10B9784601F02CFFAC24104FC0
:109470006C433D193B5B338095F86430B370A11C9D
:1094800010223944F01C11F008FD95F8643053B1F6
:1094900004F112011022394406F1130003B0BDE8B3
:1094A000F04011F0FABC03B0F0BD00BFA4370020BB
:1094B000A837002073B5C0F30F44A4F58044A5B2CB
:1094C000072D01900E4602D9784601F0FBFE0021DF
:1094D0002622304611F0ECFC29461248FFF738FEF0
:1094E00010B9784601F0EEFE2A246C430E4DA11D02
:1094F00010222944701D11F0D0FC2A5B32802B19F8
:109500005A8872809B7D337153B104F11901102286
:10951000294406F1150002B0BDE8704011F0BDBC51
:1095200002B070BDB8350020BC3500202DE9F041F7
:109530001E4CAC255543164605F1680362192344B9
:109540000F469367804610B9194B01221A7005F136
:109550002201214438460BF00CFA10B1784601F094
:10956000B1FE05F17C01214438460BF013FA10B12D
:10957000784601F0A7FEA81C39461022204411F0BD
:109580008CFC05F1120010220021204411F090FC07
:10959000AC237343E21824F80380002382F864307C
:1095A00031460448BDE8F041FFF7DFBDA837002091
:1095B0008E370020A437002037B5C0F30F440D4686
:1095C00004F54054A4B20190224628880331FFF7E5
:1095D000ADFF0748AB78AC2202FB0404054A84F8CF
:1095E00064301378002043F00403137003B030BDDF
:1095F000A8370020A03700202DE9F8432A255D4335
:10960000144C91460746A81D10220E462044494698
:10961000984611F042FC05F1190000211022204467
:1096200011F046FC691D214448460BF099F910B130
:10963000784601F047FE2A2202FB08F2A318002117
:10964000197199755E80A75241460348BDE8F843F9
:10965000FFF78BBDBC350020B8350020F7B5C0F34F
:109660000F44A4F58044A4B2072C01900D462ED8D7
:1096700021461848FFF76CFD10B1002003B0F0BD83
:10968000154F698828882A2623466A1D6643FFF7F6
:10969000B3FFBB192A799A752B79002BEDD01535BC
:1096A00006F1190029461022384411F0F6FB06F1A4
:1096B0001801394428460BF053F910B1784601F0EF
:1096C00001FE2A2000FB04742379E375D5E7052009
:1096D000D4E700BFB8350020BC3500202DE9F341A8
:1096E0000190000C00F50054A4B2072C0E4632D9AC
:1096F00000F5805084B2072C2FD80125194A137821
:1097000043F004031370308871882346321DFFF73D
:1097100073FF2A2714486743C31980469D75F5B126
:10972000143607F1190031461022404411F0B5FB00
:1097300007F11801414430460BF012F910B1784698
:1097400001F0C0FD2A2000FB048400202379E3758A
:1097500002B0BDE8F0810025D0E70520F8E72846F3
:10976000F6E700BFA0370020BC35002073B50646E1
:1097700010460C461546FFF7EBFC10B9784601F091
:10978000A1FD01232644ADF80430ADF80660019830
:109790000DF07AFB10B1784601F094FD62090123C7
:1097A00004F01F0403FA04F455F8223023EA0403FA
:1097B00045F8223002B070BD2DE9F0474FF6FF7337
:1097C000DFF84C80DFF84CA00B8007460D460024E4
:1097D0004FF0140921464046FFF7BAFC064650B93F
:1097E0002A884FF6FF739A4200D12C800134082C4E
:1097F000F0D1002608E01022394609FB04A011F040
:109800003DFB0028F2D12C803046BDE8F08700BF38
:10981000743500205C3A002001460148FFF798BCEF
:109820006C35002013B50190000C01280C4602D0C5
:10983000784601F047FD2388042B13D1A388012B20
:1098400010D16388082B0DD12389082B0AD1E38816
:10985000102B07D1044A137843F001031370002042
:1098600002B010BD0B20FBE7A037002008B528B9D7
:10987000784601F027FD4FF6FF700BE0064B98424B
:10988000F9D303F501729042F5D8C01AAC23B0FBAE
:10989000F3F080B208BD00BF1C38002008B528B91D
:1098A000784601F00FFD4FF6FF7008BD0A4B984255
:1098B00009D303F59372904205D8C01A2A23B0FB4E
:1098C000F3F080B2F1E7054A4FF6FF73904214BF00
:1098D00018460820E9E700BFC035002014370020F3
:1098E00037B50190000C02280D4602D0784601F0F1
:1098F000E9FC084C2368DB0708D404222946064803
:1099000011F0CBFA236843F001032360002003B079
:1099100030BD00BF7035002090370020F7B5C0F390
:109920000F44A4F54054A4B2032C01900D4628D84E
:1099300021461548FFF70CFC10B1002003B0F0BD24
:109940002246E91C2888114FFFF7F0FDAC214C435B
:10995000AB783A1982F86430002BEED0133504F15D
:109960001200294610223844433411F096FA39196E
:1099700028460AF0FEFF0028DFD0784601F0A2FC5E
:10998000DBE70520DAE700BFA4370020A837002076
:1099900037B50023054610460C46ADF80030FFF7FA
:1099A000D7FB10B9784601F08DFC01232C44ADF8AB
:1099B0000430ADF80640694601980DF007FA10B181
:1099C000784601F07FFC03B030BD00002DE9F74F71
:1099D000804692460E46002951D008F063FF0228C7
:1099E000814627D020F00207FBB2012B22D14FF68F
:1099F000FF74334B334A0025A3465C450ED1104615
:109A0000294601930092FFF7A3FBDDE9002328B963
:109A1000ACB20135102DF0D1002305E033F825104C
:109A20004145F6D1ACB20123BAF1000F04D1B9F12E
:109A3000030F26D010201FE0FFB2012FFAD19BB9EF
:109A40004FF6FF72944221D01D4A1E4822F824800E
:109A500002EB840221465380FFF787FB194A214617
:109A60004FF48050FFF794FF154B348003EB8404D0
:109A7000A3780133A370002003B0BDE8F08F0E205F
:109A8000FAE7ABB94FF6FF72944201D10420F3E735
:109A90000B4A0C4822F8248002EB840221465380B2
:109AA000FFF763FB074A21464FF48050FFF770FF32
:109AB000034B348003EB8404E3780133E370DAE78B
:109AC000783500206C3500202DE9F3414FF6FF7703
:109AD0000E461446ADF80670804650B349B30DF1FA
:109AE0000601FFF769FEBDF8063003F11005ADB2BF
:109AF00060B9BB421FD029464046FFF761FC0F4AC0
:109B0000BDF806104FF40050FFF742FFBDF80630D5
:109B10000B4A3580142101FB032334B9DA78013272
:109B2000DA70002002B0BDE8F0819A7801329A70B4
:109B3000F7E70E20F6E70420F4E700BF74350020B5
:109B4000583A002041090B4A00F01F004FF0FF3344
:109B5000834052F82100034009D05A421A40064B74
:109B60005343DB0E054AD05C00EB411070470420E4
:109B7000704700BFA437002031B57C07DBBC030071
:109B80004FF6FF730B80084B1B6813F0010307D0DF
:109B9000064B1B88834205D108230B8001207047A8
:109BA00008220A80002070470C3700201037002060
:109BB0000F2810B5044602D8FFF72EFE28B920461C
:109BC000FFF7E0FA00F0010010BD0120FAE7000005
:109BD0000F2838B5044613D8FFF71EFE80B1144B8A
:109BE00003EB8402907848B9D578FDB923F8245066
:109BF000104A21464FF48050FFF7B8FD002015E0D1
:109C00002046FFF7BFFA80B1A4F1100189B20A4AD9
:109C100014234B43D418A0780028EFD1E4782CB952
:109C2000D4524FF40050054AE6E7052038BD00BF86
:109C3000783500206C350020583A0020743500201B
:109C40002DE9F3410190000CB0F5A04F19D10F4E52
:109C5000346814F0010412D10D4D0F88B1F8028060
:109C600010220431A81D11F018F9012321463046B5
:109C70006C712B71A5F802802F80FFF776FA002017
:109C800000E0052002B0BDE8F08100BF0C370020E5
:109C90001037002073B5C0F30F44A4F58054A4B26C
:109CA0000F2C01900E4611D821460A48FFF750FAB2
:109CB00050B9094B328823F8242003EB8403214652
:109CC00058800448FFF751FA002000E0052002B058
:109CD00070BD00BF6C350020783500200388012B53
:109CE00015D14388A3F54052032A04D8142902D180
:109CF000A3F5C04307E0A3F58042072A07D824292B
:109D000003D1A3F5A043438001E01429F0D07047AC
:109D10007FB52C4A137813F0020451D1D90712D41D
:109D2000294A10685168128901AB03C301A94FF099
:109D300001101A800DF04AF810B1784601F0C2FA0D
:109D4000052004B070BD13F00400FAD064F3820360
:109D500013701E4D1E4B019321462846FFF7F8F95C
:109D600068B1A6B206F54053ADF8063001980DF083
:109D70008BF82A4631464FF44050FFF709FE013474
:109D8000042CE9D14FF48043124DADF80630002485
:109D900021462846FFF7DCF968B1A6B206F58043F4
:109DA000ADF8063001980DF06FF82A4631464FF4B1
:109DB0008040FFF7EDFD0134082CE9D10020C0E719
:109DC0000B20BEE7A037002058BC0300A4370020BA
:109DD00001000030B835002037B500234948194646
:109DE000C2180433402BD1709170F9D10023464939
:109DF0001C46CA181433A02BD4709470F9D10422D5
:109E00000021424811F054F804220021404811F08A
:109E10004FF8042200213F4811F04AF804220021A3
:109E20003D4811F045F8042200213C4811F040F86B
:109E3000002104223A4811F03BF83A4B3A4A1C8080
:109E40005C803A4B1C70137803F0FE0364F341030B
:109E50001370374B18680DF017F8364B18680DF073
:109E600013F80123ADF804304FF4805441F210058B
:109E7000ADF8064001340198A4B20DF005F8AC42EB
:109E8000F6D14FF4005442F20805ADF80640013413
:109E90000198A4B20CF0F8FFAC42F6D14FF4405355
:109EA000ADF8063001980CF0EFFF43F20103ADF876
:109EB000063001980CF0E8FF43F20203ADF80630DB
:109EC00001980CF0E1FF43F20303ADF8063001986E
:109ED0000CF0DAFF4FF4804444F20805ADF8064078
:109EE00001340198A4B20CF0CFFFAC42F6D14FF48C
:109EF000A043ADF80630019803B0BDE830400CF047
:109F0000C3BF00BF78350020583A002070350020CC
:109F10006C35002074350020A4370020B8350020AF
:109F20000C37002090370020A03700208E3700200B
:109F300062BC030066BC0300064808B5064B03601C
:109F400008F0F2FD054A137803F0FD036FF30003F8
:109F5000137008BD943700207DA60200A0370020B2
:109F600070B5054610B9784601F0ACF9154E306869
:109F700010F0010423D128886B880344984201DB48
:109F80000B2070BD08F08EFC0128F9D128886B8861
:109F90001844013880B208F085FC0128F0D13368FC
:109FA000094843F0010304222946336010F075FF8D
:109FB000022032462146FFF7EBFC2046E1E70F2066
:109FC000DFE700BF703500209037002010B5044651
:109FD00010B9784601F076F9204604220249BDE81E
:109FE000104010F05ABF00BF903700200122FFF749
:109FF000EDBC000010B50446FFF7DAFD78B10F2C78
:10A0000089BF084B084B103C14228CBF02FB043460
:10A0100003EB84040020A3780133A37010BD052056
:10A02000FCE700BF583A0020783500200122FFF7F6
:10A030004BBD00000F2810B504460DD8FFF7ECFB10
:10A0400050B10C4B03EB84039A78013A9A70204686
:10A05000BDE81040FFF7BCBD2046FFF793F830B1D4
:10A06000054AA4F11003142101FB0323ECE70520AA
:10A0700010BD00BF78350020583A00200022FFF7BD
:10A08000A5BC0022FFF720BD10B50446FFF790FDE8
:10A0900078B10F2C89BF084B084B103C14228CBFA1
:10A0A00002FB043403EB84040020E3780133E37003
:10A0B00010BD0520FCE700BF583A0020783500208D
:10A0C00038B505460C4609B30F280ED8FFF7A4FB98
:10A0D00058B1104B33F82520628033F8250008F082
:10A0E000E1FB20700020606038BD2846FFF74AF889
:10A0F00070B11423103D084A5D430020535B638018
:10A1000004351544022365602370EDE70E20EBE76C
:10A110000520E9E778350020583A002013B50446B9
:10A12000FFF746FD08B369462046FFF7C9FFC0B9EF
:10A130009DF80030032B0BD10D4B03EB8403DA7831
:10A140009AB1013ADA702046FFF742FD02B010BD25
:10A15000022B08D1074AA4F11003142101FB0323A9
:10A16000EDE70020F2E70F20F0E70520EEE700BF63
:10A1700078350020583A00202DE9F7430D46044673
:10A1800000283CD000293AD0408808F08BFB0228F8
:10A1900024D0032801D0012833D14FF6FF73DFF814
:10A1A0006880DFF8689067882B8000241E4621466F
:10A1B0004046FEF7CDFF40B139F82430BB4208D10C
:10A1C0002C80002003B0BDE8F0832B88B34208BF89
:10A1D0002C800134102CEAD10520F3E760684FF69B
:10A1E000FF73ADF8063050B10DF10601FFF7E4FA48
:10A1F0000028F1D0BDF8063010332B80E1E70E20A7
:10A20000E0E71020DEE700BF6C3500207835002045
:10A2100007B50DF10601FEF7C1FF20B1BDF806003C
:10A2200003B05DF804FB4FF6FF70F9E708B1FFF7E4
:10A230003DB84FF6FF70704707B50DF10601FEF708
:10A24000D7FF20B1BDF8060003B05DF804FB4FF660
:10A25000FF70F9E708B1FFF721BB4FF6FF707047B9
:10A2600038B504460D4669B107280DD801460748A0
:10A27000FEF76EFF40B12A206043054B1B5A2B802E
:10A28000002038BD0E20FCE70520FAE7B835002095
:10A29000BC350020082870B504460E463CD800297D
:10A2A00038D0082821D001461C48FEF751FF00286D
:10A2B00032D01B4D2A2303FB04535B88032B02D9A6
:10A2C000784600F0FFFF2A2303FB04531548598802
:10A2D000FEF73EFF10B9784600F0F4FF2A2303FB97
:10A2E000045463883380002070BD0F4B1B68DB076C
:10A2F00012D50E4C6388032B02D9784600F0E2FF9A
:10A3000061880848FEF724FF0028EAD1784600F06B
:10A31000D9FFE6E70E20E7E70520E5E7B83500209E
:10A32000BC350020A43700200C3700201037002057
:10A33000F0B50746C7B015460E46002970D0002A72
:10A340006ED0B0F5805F6DD21146FEF727FF2A88E8
:10A35000044670B13648AC2303FB0200314610229C
:10A36000023010F08BFD00280CBF03200F2047B0F7
:10A37000F0BD4FF6FF739A4256D031463846FFF78C
:10A38000D5F82C4A29884FF44050FFF701FB284BA1
:10A390002988AC2202FB013138468C3108F0D2FB0F
:10A3A000254B186810F48020E1D0244B1B68062B45
:10A3B0003CDD234B1A68204605AC335C190903F0D9
:10A3C0000F03515C04F81010D15C04EB4003013022
:10A3D00010285970F1D100232F211A4884F8203019
:10A3E00010F056FE98B12F21164810F051FE411C76
:10A3F000154B164AD3F804350192154A00920720EE
:10A4000002944FF413620AF0BFFB0020AFE75C2117
:10A410000C4810F03DFE08B15C21E5E70949E7E78B
:10A420000E20A4E70720A2E70420A0E720469EE72D
:10A43000A8370020A4370020142E0020102E002062
:10A44000182E0020A4BC030000100140CEBC030065
:10A450008FB90300032838B504460D460DD80146D0
:10A460000748FEF775FE40B1064BAC2202FB0434F0
:10A47000002094F864302B7038BD0520FCE700BF45
:10A48000A4370020A83700202DE9F0410646884671
:10A4900000294CD003284CD801462748FEF758FE27
:10A4A000002846D0254BAC2474431A191D4692F857
:10A4B000642062B1012A07D104F112001022414642
:10A4C000184410F0DBFC00B10820BDE8F08104F175
:10A4D00012071F4441461022384610F0DEFC04F1FA
:10A4E0004301294440460AF044FA10B1784600F08E
:10A4F000E9FE04F19401294438460AF04BFA10B100
:10A50000784600F0DFFEAC237343E918012281F89E
:10A51000642004F1A401E85A294407F03BFF4FF4FA
:10A520004050054A3146FFF733FA0020CDE70E20B0
:10A53000CBE70520C9E700BFA4370020A8370020DB
:10A54000032810B504461DD801461048FEF700FE4A
:10A55000C0B10F48AC236343C11891F86420012AAD
:10A5600012D1022281F8642003F1A4010144C05AEF
:10A5700007F010FF4FF44050044A2146FFF708FA55
:10A58000002010BD0520FCE70820FAE7A4370020D2
:10A59000A837002003282DE9F843074660D8014674
:10A5A0003148FEF7D5FD00285AD0304DAC247C430D
:10A5B00005EB040898F86430002B53D004F1120125
:10A5C000A01C10222944284410F067FC04F1430128
:10A5D00004F1220021222944284410F05EFC04F1F9
:10A5E000940104F17C0018222944284410F055FC01
:10A5F000002604F18C0188F864603246285BDFF89D
:10A600007880294407F0C6FE3446194EA8F1130994
:10A6100021463046FEF79CFDB0B12A20154D60431F
:10A6200005446B88BB420FD1AB7D6BB108EB0001D9
:10A630001222484410F031FC0023AB753246A1B21F
:10A640004FF48040FFF7A4F90134082CE0D14FF417
:10A650004050054A3946FFF79BF90020BDE8F883D2
:10A660000520FBE70820F9E7A4370020A8370020E1
:10A67000B8350020BC350020D335002070B50378F4
:10A68000042B02D0142B20D070BDD0E90146457EAA
:10A690002046FFF7EBF84FF6FF729042F4D02034DB
:10A6A000A642F1D10D4AAC2101FB002393F864309E
:10A6B0002DB1012BE8D1BDE87040FFF741BF002B61
:10A6C000E2D0BDE87040FFF765BFC388012B01BF32
:10A6D000034A137843F002031370D5E7A83700202C
:10A6E000A03700202DE9F0470D46064600B3F9B12A
:10A6F0000024DFF84480DFF844900F680C604FF0CE
:10A70000AC0A21464046FEF723FD58B12B689F4214
:10A7100010D00AFB04F232F8092026F813202B6827
:10A7200001332B600134042CEBD10020BDE8F0870D
:10A730000E20FBE70920F9E7A4370020A837002006
:10A740002DE9F04F8246C9B0884699461746002A3F
:10A7500000F08680002B00F0838008F0A3F8012829
:10A7600083467FD1B8F1030F7ED841464248FEF7B9
:10A77000EFFC002878D00DF11A015046FFF700FADF
:10A780000446002872D1BDF81A504FF6FF739D425F
:10A790006ED0083D1626394B05936E43B01D10222E
:10A7A0003946184410F079FB059B354823F806A07C
:10A7B0009A192946547182F804B0A2F80280FEF773
:10A7C000D4FCBDF81A102E4A08394FF4A04089B2C3
:10A7D000FFF7DEF8BDF81A30A9F80030294B1868E9
:10A7E00010F4802030D0284B1B68062B42DD274B0D
:10A7F0001A68204607AC3B5C190903F00F03515C53
:10A8000004F81010D15C04EB40030130102859709B
:10A81000F1D100232F211E4884F8203010F038FC9D
:10A82000A8B12F211A4810F033FC411C194B1A4AC9
:10A83000D3F804350192194A0092072002944FF48C
:10A8400023620AF0A1F9002049B0BDE8F08F5C2135
:10A850000F4810F01DFC08B15C21E3E70C49E5E767
:10A860000E20F1E71020EFE70520EDE70F20EBE7E2
:10A870000420E9E72046E7E7A4370020103700204E
:10A880000C370020142E0020102E0020182E00203F
:10A89000A4BC03000010014097BC03008FB9030063
:10A8A0002DE9F0410746C6B088461E461546002AE7
:10A8B00071D0002B6FD003296FD83C48FEF748FCBD
:10A8C00000286AD0B7F5805F69D231463846FEF776
:10A8D0008FFC3388044678B135482A2202FB0300F6
:10A8E00029461022063010F0C9FA00280CBF0320B8
:10A8F0000F2046B0BDE8F0814FF6FF72934250D072
:10A900002A4641463846FEF777FE4FF48040294AF2
:10A910003188FFF73DF8284B186810F48020E8D004
:10A92000264B1B68062B3EDD254B1A68204605ACDE
:10A930002B5C190903F00F03515C04F81010D15C73
:10A9400004EB4003013010285970F1D100232F216E
:10A950001C4884F8203010F09BFB98B12F21194837
:10A9600010F096FB411C184B184AD3F8043501929D
:10A97000174A00920720029440F67F220AF004F959
:10A980000020B6E75C210F4810F082FB08B15C2183
:10A99000E5E70C49E7E70E20ABE70520A9E707202C
:10A9A000A7E70420A5E72046A3E700BFA4370020BF
:10A9B000BC350020B8350020142E0020102E0020B9
:10A9C000182E0020A4BC0300001001408ABC030024
:10A9D0008FB90300F8B505460E4600293DD007287B
:10A9E0003DD801461F48FEF7B3FB002837D01E486C
:10A9F0001E492A246C430319AC275A8807FB02120C
:10AA0000074692F86420012A09D104F1190108448B
:10AA1000997D31B11022314610F030FA00B1082092
:10AA2000F8BD9A753146102210F037FA04F118017A
:10AA30003944304609F094FF10B1784600F042FCEA
:10AA40002A2303FB05734FF480401A79DA752946EF
:10AA5000044AFEF79DFF0020E2E70E20E0E7052014
:10AA6000DEE700BFB8350020BC350020A837002045
:10AA7000072810B504460CD801460748FEF768FBC6
:10AA800038B14FF48040044A2146FEF76FFE0020A3
:10AA900010BD0520FCE700BFB835002003282DE9D4
:10AAA000F04105463ED801462048FEF751FB0028FC
:10AAB00038D00020FFF746F8002404282AD1012CC2
:10AAC00032D01B4E1B4F00244FF02A08214630463F
:10AAD000FEF73EFB58B108FB04735B88AB4206D11E
:10AAE000A0B2FFF7C5FF10B1784600F0EBFB0134D0
:10AAF000082CEBD1AC236B430F4AD35A0BB90F4A46
:10AB000013704FF44050094A2946FEF72FFE0020EB
:10AB1000BDE8F0810130032804F10104CFD8FFF72C
:10AB200011F8CAE70520F3E70F20F1E7A43700206A
:10AB3000B8350020BC350020A83700208E37002013
:10AB40002DE9F84F064615460F4669B362B3032850
:10AB50002CD801461748FEF7FBFA38B30024DFF87B
:10AB600058A0DFF85880D5F800902C604FF02A0BE1
:10AB700021465046FEF7ECFA80B10BFB04F208EBDD
:10AB800002035B88B34209D12B68994510D032F893
:10AB9000082027F813202B6801332B600134082C80
:10ABA000E6D10020BDE8F88F0E20FBE70520F9E78D
:10ABB0000920F7E7A4370020B8350020BC35002075
:10ABC00070B506460C461546002A45D0082945D8DA
:10ABD00012BF244824480021FEF7BAFA00283DD0CD
:10ABE0004FF6FF739E4207D1082C17BF1F4A204B18
:10ABF0002A2303FB04235E88032E31D831461D48E7
:10AC0000FEF7A6FA60B3082C1B4923D0AC2303FB44
:10AC10000613164A93F86430022B08D12A236343A3
:10AC2000D018807D18B1173313446B6004E02A23D9
:10AC300003FB042404346C60AC2303FB06F00B1804
:10AC400093F86430022B0CBF433022300844286054
:10AC5000002070BD094BE8E70E20FAE70520F8E771
:10AC60000820F6E7B83500200C370020BC3500205E
:10AC700010370020A4370020A83700201437002008
:10AC800038B50D46FFF7C4FA044675B103280ED84F
:10AC900001460848FEF75CFA48B1074BAC2202FBBC
:10ACA000043422342C60002038BD0E20FCE705203F
:10ACB000FAE700BFA4370020A83700202DE9F843A9
:10ACC000074690460E4611B9784600F0FBFAB8F1F7
:10ACD000000F02D1784600F0F5FA306807F07F07E0
:10ACE00030BB002400233360C8F800301B4BDFF872
:10ACF0007090AC2505FB0435A3B2032B16D8214672
:10AD00004846FEF725FA00B395F8643095F822001E
:10AD100005F12201ABB1874205F1430395F84320C9
:10AD200016D1BA420FD13160C8F80030BDE8F883BF
:10AD3000FEF7BCFA4FF6FF739842D2D0441CA4B27F
:10AD4000D0E7874201D1316005E0AC350134D3E76B
:10AD50009742FAD133600023E6E700BFA83700200E
:10AD6000A43700202DE9F04704468846164612B95C
:10AD7000784600F0A7FA14B9784600F0A3FA204606
:10AD8000FFF754FA4FF6FF739842074603D10023AA
:10AD90003360BDE8F087306800B3FEF77FFD441CE8
:10ADA0001148DFF848A02A2505FB04050535814632
:10ADB000072CECD821465046FEF7CAF980B135F889
:10ADC000033CBB420CD12B7888EA03039B0607D1D6
:10ADD0002A2000FB049404343460DAE70446DFE7F9
:10ADE00001342A35E4E700BFBC350020B835002027
:10ADF00038B504460D4611B9784600F063FA34B10F
:10AE0000044B33F8042BA2420CBF1C4600242C60D8
:10AE100038BD00BF103700202DE9F04707469146A6
:10AE2000884611B9784600F04DFAB9F1000F02D109
:10AE3000784600F047FAD8F8000000284CD0FEF71A
:10AE400015FD441C254EDFF89CA0AC2505FB0465D0
:10AE50008C353BE021465046FEF77AF9A0B315F851
:10AE6000283C4BB94FB108222946384610F006F865
:10AE7000B0FA80F0400901E0CFB9012020B3184BAF
:10AE80001B78FBB1AC236343F35AB3FA83F35B093A
:10AE9000AC20444332197434264482F87430C8F824
:10AEA000006092F8643089F80030BDE8F08708222D
:10AEB000294638460FF0E2FF0028DED0082205F1CF
:10AEC0001801D2E70123E3E70134AC35032CC1D9E3
:10AED0000023C8F80030E8E70446B3E7A8370020AD
:10AEE0008E370020A43700202DE9F74306460C4694
:10AEF00007F0D8FC02285FD0032818D0012801D021
:10AF0000002011E0484B1B6813F00103F8D0474BB9
:10AF10001A889642F4D35B8813449E424FF0000394
:10AF2000EEDA66802070636003B0BDE8F083002332
:10AF30006360A6F57F43FC3B66802070032B16D828
:10AF400001A252F823F000BF01AF020001AF0200DE
:10AF500059AF0200B5AF020001A901200CF055FC69
:10AF600010B1784600F0AEF99DF80400DCE74FF62A
:10AF7000FF752F4FDFF8C0900024A84645450FD13C
:10AF800021464846FEF7E4F850B9A5B20134102C2A
:10AF9000F4D10BF0B7FA4088831B58425841C3E7FD
:10AFA00037F82420B2424FEA8403EFD13B44DB78E8
:10AFB000002BEBD00120B7E76068E8B94FF6FF73CC
:10AFC000ADF80430BDF80450DFF87080194F072D3C
:10AFD0004FF6FF7394BF01350025ADF804304FF0F4
:10AFE0001409082D8CD029464046FEF7B1F848B91F
:10AFF000ADF804500135F4E701A9FEF7DDFB0028A8
:10B00000DCD0DFE709FB05F3DA5BB242F2D1FA18D4
:10B01000D278002A3FF474AF043302221F446680C2
:10B020002270676080E700BF7035002090370020F5
:10B0300078350020583A00206C3500207435002007
:10B0400038B50C46054600B111B9784600F03AF91A
:10B05000024B1A882A805B88238038BD90370020F5
:10B0600007B50378022B0AD0032B01D0012B17D18F
:10B0700069464088FFF738FF03B05DF804FB694676
:10B080004068FEF799FB0028F6D0BDF80030054A6D
:10B09000142101FB0323D878003018BF0120EBE70F
:10B0A0000020E9E7583A002007B501A8FEF78EFF17
:10B0B000BDF80400003018BF012003B05DF804FBA8
:10B0C0000620704730B5754B14461B6841F20102EB
:10B0D000904287B00D4603F480437ED01ED80128ED
:10B0E00045D0002B5DD06E4B1B68002B59DD2F2106
:10B0F0006C480FF0CDFF002800F0C4802F21694874
:10B100000FF0C6FF411C684B684AD3F80435009223
:10B1100001957B22012009F037FD42E044F2010253
:10B12000904200F0858044F202029042D9D1002B77
:10B1300037D05B4B1B68002B33DD2F2159480FF0B4
:10B14000A7FF00286BD02F2156480FF0A1FF411C0C
:10B15000554B2288D3F8043503926268CDE9015239
:10B16000534A009201206C2209F00EFD19E0C3B190
:10B170004B4B1B68002B14DD2F214A480FF088FF32
:10B1800010B32F2147480FF083FF411C464B494A1B
:10B19000D3F804350092CDE901546022012009F072
:10B1A000F3FC4FF0A0434FF4F012C3F81825C3F896
:10B1B0000C25EFF3108372B64DF6AD6C3E4A137852
:10B1C000002B68D107B030BD5C2136480FF060FF1E
:10B1D00008B15C21D6E73349D8E7002BE1D0304BEA
:10B1E0001B68002BDDDD2F212E480FF051FF68B1C9
:10B1F0002F212C480FF04CFF411C2B4B2F4AD3F82A
:10B2000004350092CDE901546322C7E75C2125484B
:10B210000FF03EFF08B15C21EBE72249EDE75C212E
:10B2200020480FF035FF08B15C218DE71D498FE7FD
:10B23000002BB6D01A4B1B68002BB2DD2F2119480A
:10B240000FF026FFA8B12F2116480FF021FF411C57
:10B25000154B2268D3F8043504926268CDE9025296
:10B26000A2680192164A00920120772209F08CFC14
:10B2700097E75C210B480FF00BFF08B15C21E3E777
:10B280000849E5E75C2107480FF002FF08B15C219F
:10B2900035E7044937E730BF91E700BF142E00209F
:10B2A000102E0020FBBC0300001001409FBD0300D6
:10B2B0005FBD030023BD0300FD2D00203DBD030045
:10B2C0007EBD030007B50023ADF800300146054BF5
:10B2D00001936A4644F20200FFF7F4FE03B05DF802
:10B2E00004FB00BF07BC03002DE9F04F0C4689B0FA
:10B2F000814600B111B97846FFF7E4FF2388152B8A
:10B3000002D87846FFF7DEFF4FF6FF724FF42013A6
:10B31000CDE905230025012305A90A224846ADF8F9
:10B320001C30ADF806500FF0B8FD0A2323800DF154
:10B330000E012846FDF742FC10B17846FFF7C2FF28
:10B340000DF10F010020FDF745FC10B17846FFF725
:10B35000B9FF03A90020FDF725FC10B17846FFF7DF
:10B36000B1FF08AA02230DF1080822F81A3D414650
:10B370000020FDF77BFC10B17846FFF7A3FF208883
:10B38000042203A948440FF088FD26889DF80E305A
:10B390000436B6B2268053B10027BDF806A03D465C
:10B3A0004FF6FF7B574515D323881D4425809DF814
:10B3B0000F3063B12388BDF80670002699443546E6
:10B3C0004FF6FF7ABE421DD323881D44258009B065
:10B3D000BDE8F08F04A938F81700FDF707FC10B19D
:10B3E0007846FFF76FFFBDF810305B4508D1A8190C
:10B3F00002220DF1120148440FF04FFD0235ADB2AB
:10B400000137CFE704A938F81600FDF7EFFB10B1BC
:10B410007846FFF757FFBDF8103053450FD0022292
:10B4200004A909EB05000FF038FDA81C02220DF15C
:10B43000120119FA80F00FF030FD0435ADB201367B
:10B44000C0E70000024B1B6803B11847704700BFFC
:10B45000F83A002013B5044601A8FEF7B7FDBDF881
:10B460000400001B18BF4FF0FF3080B202B010BDC7
:10B4700037B504460BF04AF80546002301A80093AF
:10B48000FEF7A4FD6946288AFFF7FAFB30B9009B56
:10B490006360BDF80430238003B030BD0520FBE7B6
:10B4A0001FB50193BDF81830ADF808300023ADF892
:10B4B00000208DF80A304FF6FF720223ADF802200B
:10B4C0008DF80B306A46079B0393FDF74BF805B0E8
:10B4D0005DF804FB7FB505460E46002003A98DF8F4
:10B4E00008000CF092F910B17846FFF7EBFE9DF8DA
:10B4F0000D309DF80820013B0A2104AC63F30202E1
:10B50000BDF80E30B3FBF1F3013B63F3C70204F85F
:10B51000082D07F019FB01230190009348F2250242
:10B52000234631462846FFF7BBFF04B070BD7FB508
:10B530000B89012B06460D4631D14C688DF804303D
:10B540002378C3F3020301338DF805302378DA083A
:10B550000A2302FB0333142BB8BF142301A90020D4
:10B56000ADF806300CF040F910B17846FFF7AAFEAE
:10B5700030462946FFF7AEFF0023CDE90233112301
:10B580008DF808302378C3F302038DF80C3023784C
:10B5900002A8C3F3C4038DF80D30FFF753FF04B0C6
:10B5A00070BD0B890BB9FFF795BF704737B50446DF
:10B5B0000D4607F0C9FA084B1860084B01221A70B3
:10B5C00000230190009348F24A0229462046FFF7E3
:10B5D00067FF03B030BD00BF003B0020FC3A0020F5
:10B5E00030B50B89032B85B005460C4618D14B6846
:10B5F0009A78012A14D800228DF80C201B88ADF807
:10B600000D3002238DF80F3007F09EFA04230190CD
:10B61000009348F2480203AB21462846FFF740FF5B
:10B6200005B030BD30B585B004460D468DF80C2010
:10B63000ADF80D3007F088FA03230190009348F22B
:10B64000440203AB29462046FFF72AFF05B030BD70
:10B6500030B585B004460D46002303A90120ADF89E
:10B6600008300CF0D2F810B17846FFF72BFE9DF8A9
:10B670000C308DF808309DF80D309DF80920013B05
:10B6800063F30202BDF80E308DF80920142B15D19A
:10B69000D2B212F0070111D161F3C7028DF809206F
:10B6A00007F052FA02230190009348F2280202ABFD
:10B6B00029462046FFF7F4FE05B030BD0A22B3FB51
:10B6C000F2F39DF80920013B63F3C702E6E77FB57B
:10B6D0000B89022B05460E463ED14C682378012B80
:10B6E0003AD803F001038DF804306378C3F3020302
:10B6F00001338DF80530637883BB1423ADF8063031
:10B70000BDF80630142B38BF142301A90120ADF871
:10B7100006300CF069F810B17846FFF7D3FD2846E3
:10B720003146FFF795FF0023CDE9023312238DF850
:10B73000083023785A1E534253418DF80C306378F9
:10B74000C3F302038DF80D30637802A8C3F3C4037A
:10B750008DF80E30FFF776FE04B070BDDB080133C4
:10B7600003EB83035B00C9E70B890BB9FFF770BFDD
:10B77000704770B586B00D46ADF80F309DF82C308F
:10B78000ADF80D2000218B4204460A988DF80C106C
:10B7900014BF07260926CDF8110007F0D5F903AB31
:10B7A000CDE9006048F21F0229462046FFF778FEE7
:10B7B00006B070BD30B587B00446039306AB8DF874
:10B7C000142033F80C2DADF815209B788DF8173028
:10B7D0000D4607F0B9F904230190009348F20302E3
:10B7E00005AB29462046FFF75BFE07B030BD2DE9CB
:10B7F000F0430B89022B87B081460C4638D14B6849
:10B800001F88C7F30B00FEF703FDA38C834280461D
:10B8100031D13B460C2221464846FFF703FF27E083
:10B8200036F81500FEF708FD26F815000135019BD6
:10B83000AB42F5D82EE036F81500FDF781FA10B1CD
:10B840007846FFF73FFD0135019BAB42F3D83B46FD
:10B85000484600222146FFF7E5FE0023029373606D
:10B86000304619238DF80830ADF80C80FFF7EAFD5B
:10B8700007B0BDE8F0834FF6FF73984202AEE6D002
:10B8800006AA082342F8143D3146FFF759F9054648
:10B890000028CCD04046FFF701F905460028D3D058
:10B8A0000F28B6D03B460422B5E70000F0B50B895F
:10B8B000122B85B007460D4625D14E680A883446BE
:10B8C00048F2400334F8020B9A42C0F30B001CD13B
:10B8D00021460DF10602FEF72BFD182304460F2C1E
:10B8E0008DF80830BDF80630ADF80C3096BF0C4B23
:10B8F00010221A5D338829463846FFF793FE14B9A3
:10B9000002A8FFF79FFD05B0F0BDFEF781FC2146C0
:10B91000ADF80600FEF7B8FD1A230446DFE700BFC6
:10B92000B8BD03002DE9F0431F460B8847F6E578C4
:10B9300043449BB2102B87B005460C46164656D89A
:10B940004FF0010909FA03F313F0EF011BD113F4CF
:10B95000803060D15B044AD50146052203A80FF070
:10B96000A7FA63688DF80C701A88ADF80D205B8813
:10B97000ADF80F3007F0E8F805230093019003AB12
:10B9800048F22A022FE00922002103A80FF090FAC2
:10B9900023888DF80C7043449BB2072B0AD809FA10
:10B9A00003F313F00B0F09D113F004022DD113F0A0
:10B9B000E00F1FD17846FFF785FC09E063681A881D
:10B9C000ADF80D205A88ADF80F205B68CDF8113026
:10B9D000002E14BF0726092607F0B6F8CDE900604F
:10B9E00003AB48F21F0221462846FFF759FD07B076
:10B9F000BDE8F083636833F8121BADF80D108DF8C5
:10BA00000F208DF810201B68E0E7636833F8022BE5
:10BA1000ADF80D20F7E7072203A80FF049FA636895
:10BA20008DF80C701A88ADF80D209A88ADF81120A9
:10BA30005B88ADF80F3007F087F80723009301907B
:10BA400003AB48F22C02CEE773B502AA022322F818
:10BA5000063D01A90646FCF75BFF062825D010B17C
:10BA60007846FFF72FFC0025BDF80220ABB29A42C2
:10BA700002D8002002B070BDACB2640002AB234417
:10BA8000304633F8041CFCF717FF10B17846FFF777
:10BA900019FC02AB1C4434F8040CFEF73FFB10B158
:10BAA0007846FFF70FFC0135DEE70820E2E72DE9D5
:10BAB000F0438DB01C46154606460F46092200216C
:10BAC0000DF125000FF0F4F900230DF10B012046D4
:10BAD0008DF82030ADF82150FDF720F810B17846F0
