:020000022000DC
:1070000000FD032025DB03004DDB03004FDB030005
:1070100051DB030053DB030055DB030000000000DD
:1070200000000000000000000000000057DB03002B
:1070300059DB0300000000005BDB03005DDB0300A5
:107040005FDB03005FDB03005FDB03005FDB03004C
:107050005FDB03005FDB0300598102005FDB03009D
:107060005FDB03005FDB0300911A03005FDB0300BB
:107070005FDB03005FDB03005FDB03005FDB03001C
:107080005FDB03007DB10300B5D302005FDB0300CB
:107090004DB203005FDB0300F98D02005FDB0300EC
:1070A0005FDB03005FDB03005FDB03005FDB0300EC
:1070B0005FDB03005FDB0300000000000000000056
:1070C0005FDB03005FDB03005FDB03005FDB0300CC
:1070D0005FDB03005FDB03005FDB03005FDB0300BC
:1070E0005FDB03005FDB03005FDB030000000000E9
:1070F000000000005FDB0300000000005FDB030016
:10710000000000000000000000000000000000007F
:10711000000000000000000000000000000000006F
:10712000000000000000000000000000000000005F
:10713000000000000000000000000000000000004F
:10714000000000000000000000000000000000003F
:10715000000000000000000000000000000000002F
:10716000000000000000000000000000000000001F
:10717000000000000000000000000000000000000F
:1071800000000000000000000000000000000000FF
:1071900000000000000000000000000000000000EF
:1071A00000000000000000000000000000000000DF
:1071B00000000000000000000000000000000000CF
:1071C00000000000000000000000000000000000BF
:1071D00000000000000000000000000000000000AF
:1071E000000000000000000000000000000000009F
:1071F000000000000000000000000000000000008F
:1072000010B5054C237833B9044B13B10448AFF3E0
:1072100000800123237010BDE82E00200000000034
:10722000B40C040008B5034B1BB103490348AFF38A
:10723000008008BD00000000EC2E0020B40C04000B
:10724000154B002B08BF134B9D46A3F5803A002138
:107250008B460F461348144A121A18F065F80F4B64
:10726000002B00D098470E4B002B00D098470020F1
:10727000002104000D000D48002802D00C48AFF397
:10728000008018F003F82000290000F063FB17F0DD
:10729000E9FF00BF0000080000FD0320000000001F
:1072A00000000000E82E00204C5A002000000000E2
:1072B0000000000041DF704730B52D4B14461B68BD
:1072C000526887B00D4603F4804352B3F3B1294BA3
:1072D0001B68032B1ADD2F21274818F0F5F8B8B1E9
:1072E0002F21254818F0F0F8411C244B6268D3F890
:1072F0000435049262780392227802926A8801929D
:107300001F4A00920420AD2207F04CF807B030BDB0
:107310005C21194818F0D8F808B15C21E1E716495A
:10732000E3E7002BF2D0134B1B68032BEEDD2F217C
:10733000114818F0C9F890B12F210F4818F0C4F87F
:10734000411C0E4B2278D3F8043502926A880192D0
:107350000C4A00920420B22207F024F8D6E75C2100
:10736000054818F0B1F808B15C21E6E70249E8E702
:107370003C2E0020382E0020E1F5030000100140D3
:107380000CF603005EF60300012A07B531D009D3DD
:10739000022A56D03C4AA021032003B05DF804EB3A
:1073A00016F0EBBB394B1B68590416D5384B1B68DC
:1073B000032B12DD2F21344818F086F880B12F21DD
:1073C000314818F081F8411C324B334AD3F8043568
:1073D00000929322042006F0E5FF03B05DF804FB61
:1073E0005C21294818F070F808B15C21E8E72649CB
:1073F000EAE7062232214FF4F03000F017FE234B6B
:107400001B685A04E9D5224B1B68032BE5DD2F21AD
:107410001D4818F059F858B12F211B4818F054F89E
:10742000411C1C4B1D4AD3F8043500929822D1E729
:107430005C21154818F048F808B15C21EDE71249C5
:10744000EFE7124B1B685B04C7D5114B1B68032B7E
:10745000C3DD2F210C4818F037F858B12F210A4806
:1074600018F032F8411C0B4B0D4AD3F8043500924A
:107470009C22AFE75C21044818F026F808B15C2193
:10748000EDE70149EFE700BFE1F503003C2E0020E6
:10749000382E0020001001407FF503009FF5030007
:1074A000BFF5030070B5734E33685C0486B00546C3
:1074B00017D5714B1B68032B13DD2F216F4818F074
:1074C00003F8A0B12F216D4817F0FEFF411C6C4B53
:1074D0006C4AD3F8043500920195C822042006F0C6
:1074E00061FF032D0FD8DFE805F00B3B0B3B5C2160
:1074F000624817F0E9FF08B15C21E4E75F49E6E77D
:1075000001238DF80C30604A13788DF80D30591C2A
:10751000117064233221CDE904313368580419D540
:10752000554B1B68032B15DD2F21544817F0CCFF5A
:10753000C0B12F21514817F0C7FF411C504B9DF897
:107540000C20D3F804350192504A00920420E32223
:1075500006F028FF032D58D8DFE805F00D0D2A2A84
:107560000023CEE75C21454817F0AEFF08B15C214F
:10757000E0E74249E2E7464C208811F00FFD03A9FD
:10758000204604AA0CF062FE9DF80C1004460D2063
:1075900000F036FD072C43D068D8002C35D0042CE1
:1075A00011D0364A40F21111204616F0E6FA2CE0CE
:1075B00003A9022304AA37480CF098FE9DF80C108A
:1075C00004460E20E4E733685A0418D52A4B1B689A
:1075D000032B14DD2F21294817F076FFB8B12F2196
:1075E000264817F071FF411C254B2B4AD3F8043570
:1075F0000092019540F20112042006F0D3FE06220B
:1076000032214FF4F03000F011FD06B070BD5C2166
:107610001A4817F059FF08B15C21E1E71749E3E781
:1076200033685B04F1D5144B1B68032BEDDD2F2170
:10763000124817F049FF80B12F21104817F044FF7E
:10764000411C0F4B154AD3F804350092019540F2C6
:107650000D12042006F0A6FED7E75C21074817F0BC
:1076600033FF08B15C21E8E70449EAE7082CAAD017
:10767000112C95E73C2E0020382E0020E1F5030068
:107680000010014087F603006D2F00209AF60300DA
:10769000042F0020382F0020B5F60300CCF603009D
:1076A0003038032801D8FFF7FDBE704737B5274BA8
:1076B0001B685B0418D5264B1B68032B14DD2F2198
:1076C000244817F001FF002835D02F21214817F05A
:1076D000FBFE411C204B214AD3F8043500920420C4
:1076E00040F2211206F05EFE1D4C1E4D2563002364
:1076F00001212046A36284F82C3084F82D300CF050
:1077000079FD20B1134A4FF4957116F036FA002333
:10771000022115486566E36584F8603084F86130BD
:107720000CF068FD80B10B4A4FF4957103B0BDE8D1
:10773000304016F022BA5C21064817F0C5FE08B1A9
:107740005C21C3E70349C5E703B030BD3C2E0020F0
:10775000382E0020E1F50300001001409AF70300E5
:10776000042F0020F8F60300382F002007B5037817
:107770001C2B2ED1184B1B685B0416D5174B1B68AE
:10778000032B12DD2F21164817F09EFEC0B12F21CA
:10779000134817F099FE411C124B134AD3F80435D5
:1077A00000920420B82206F0FDFD0322C8214FF408
:1077B000F03000F03BFC03B05DF804EB00F078BA69
:1077C0005C21074817F080FE08B15C21E0E704491E
:1077D000E2E703B05DF804FB3C2E0020382E0020C9
:1077E000E1F503000010014004F7030010B5044662
:1077F00000214FF4F03004EB840400F00DFC620033
:1078000032214FF4C030BDE8104000F00FBC00F052
:107810003FBC00001FB5304C2268520417D52F4BD7
:107820001B68032B13DD2F212D4817F04DFE002878
:1078300040D02F212A4817F047FE411C294B2A4AE5
:10784000D3F8043500920420702206F0ABFD00F05E
:107850004BFE00F071FE03A812F0C2FB23685B042C
:1078600019D51E4B1B68032B15DD2F211C4817F063
:107870002BFE40B32F211A4817F026FE411C194B4E
:10788000BDF80C20D3F804350192184A0092042068
:107890007B2206F087FD00F0FBFB00214FF4F03067
:1078A00000F0BAFB0422C8214FF4F03000F0BEFB18
:1078B00004B010BD5C210A4817F006FE08B15C2137
:1078C000B8E70749BAE75C21054817F0FDFD08B1A4
:1078D0005C21D0E70249D2E73C2E0020382E002060
:1078E000E1F5030000100140BAF70300D4F70300EC
:1078F00007B5134B1B685B0416D5124B1B68012B95
:1079000012DD2F21104817F0DFFD80B12F210E4826
:1079100017F0DAFD411C0D4B0D4AD3F804350092E7
:107920000220852206F03EFD03B05DF804FB5C21D9
:10793000054817F0C9FD08B15C21E8E70249EAE70C
:107940003C2E0020382E0020E1F5030000100140FD
:1079500060F5030000B55E4C5E4A8DB0042146F22E
:10796000010006F003FD2268520419D55A4B1B682A
:10797000032B15DD2F21594817F0A6FD002800F034
:107980008F802F21554817F09FFD411C544B554ABD
:10799000D3F804350092042040F2491206F002FDAB
:1079A00013F09EFD20B14D4A40F24B1116F0E5F860
:1079B00000F07EFB4C4800F0A7FB20B1474A40F2A4
:1079C0004F1116F0DAF800F075FD00F08DFD00F0B3
:1079D000B3FD0021202203A817F0A6FC01238DF897
:1079E0000C3007238DF80F3006238DF814303F4BF1
:1079F00007933F493F4B0B9303A800F01BF9E8B1F5
:107A00000B285FD123685B0418D5334B1B68032B0D
:107A100014DD2F21314817F057FD002849D02F21C0
:107A20002E4817F051FD411C2D4B334AD3F8043535
:107A30000092042040F23D1206F0B4FC64212F486D
:107A400000F07EFA2A4B1B7883B92D4D0FCD03AC85
:107A50000FC495E8030084E8030003A800F018FAB7
:107A600020B11E4A4FF4B67116F087F801F040FCC1
:107A700000F0A2FB00F054F820B1184A40F2711156
:107A800016F07BF800214FF4F03000F0C5FA022226
:107A9000C8214FF4F03000F0C9FAFFF70BFCFCE707
:107AA0005C210E4817F010FD08B15C216AE70B4914
:107AB0006CE75C21094817F007FD08B15C21AFE7CE
:107AC0000649B1E7054A4FF4A17116F056F8B5E73B
:107AD0003C2E002041E30200382E0020E1F5030097
:107AE000001001401DF70300A57402006D7702002D
:107AF0006C2F0020AD7602004CF70300A176020047
:107B000048F5030010B5044607F094F938B123781E
:107B10000E2B04D10020BDE8104004F0DDBB10BDE9
:107B200008B513F0D9FA20B10BF0D8FE08B10BF06C
:107B300057FEBDE8084004F007BB000070B5837D28
:107B4000C27D86B043EA0223ADF814300446032315
:107B500005A80E46ADF8163012F00CFA05460028BE
:107B600045D104AA2146208A12F0E8FB05460028E8
:107B70003DD10DF112033246BDF81010E08A12F02B
:107B8000EFFD0546002832D1217ED4F8120001F025
:107B9000010103F081FF10B1784601F071FBBDF8DF
:107BA00012000EF0D3FE054608BB174B1B681B03E3
:107BB0001DD5164B1B68062B19DD2F21144817F015
:107BC00083FCB8B12F21124817F07EFC411C227EA5
:107BD000104B02F00102D3F804350292D4F81220BF
:107BE00001920D4A00920720C62206F0DBFB2846D0
:107BF00006B070BD5C21064817F066FC08B15C2138
:107C0000E1E70349E3E700BF3C2E0020382E0020C7
:107C100016F803000010014035F8030008B504F021
:107C2000A9FE10F099FA12F0EFF8BDE8084003F051
:107C30002FBD000073B50E460546A0B304F020FA30
:107C4000044668BB12F082F910F0CEFA28690EF0F3
:107C50004DFE044620BB2B7F0193AB690093014688
:107C60006B69124859220FF017F90446C0B92B6A04
:107C700003B1984708F074FC12F062F805460FF063
:107C8000DDFF0B2D01D00B2802D1FFF7C7FF0B241E
:107C900013F022FA054608B10BF060FD06B135700D
:107CA000204602B070BD0E24FAE700BF702F0020FE
:107CB00008B507F0BFF820B10020BDE8084004F087
:107CC0000BBB0248BDE8084004F0ACBA002E00200F
:107CD00030B5274D297885B019B1012803D0032884
:107CE0003FD005B030BD04AC002344F8083D214628
:107CF00000F030FF08B115F033FF204600F094FF8C
:107D000008B115F02DFF04A9012341F8043D0DF140
:107D1000060012F0F7FC08B115F022FFBDF80600CE
:107D200012F07CFA0DF1050112F09AFB08B115F082
:107D300017FF0BF013FD9DF8051000200CF06EF9F5
:107D400010B1784601F09CFA04F0FEF908B115F084
:107D500007FF00232B70074B1B68002BC1D09847EF
:107D6000BFE700F0C9FF0028BBD015F0F9FEB8E767
:107D7000CA2F0020CC2F002008B503781C2B0CD173
:107D8000064B1B784BB100F0F3FF08B115F0E8FE8D
:107D90000348BDE8084004F047BA08BDCA2F0020D8
:107DA0000C2E002010B50749074814F01DF80246B4
:107DB00038B90649064809690323BDE8104014F0A4
:107DC0002CB810BDE42F002050330020CC2F002011
:107DD0001C32002010B50378023B082B4AD8DFE89C
:107DE00003F01E051249493849493F00224B5B68A0
:107DF000002B3FD0007A00283CD0204A012111708E
:107E0000BDE8104018471C4B9B68002B32D01B4A22
:107E1000117879B300211170BDE810401847184B54
:107E20001A784AB9144BDB6813B114490A709847A1
:107E3000BDE81040FFF7B6BF124B134801221A707D
:107E400004F0F0F904F0D6F9A0B1BDE8104015F047
:107E500087BE094B0D485969102214F023F8F3E747
:107E6000D0E90210FFF76AFE08B115F079FE044B65
:107E700001221A7010BD00BFCC2F0020C82F002097
:107E8000C92F0020CA2F00200C2E00201C320020F9
:107E900070B51C4A1C4E5168044686B0106803AB8E
:107EA00003C31189927A19809A700FCC35460FC599
:107EB00094E8030085E80300736903B3134B009350
:107EC000134A1449144803AB13F060FFA8B91348D0
:107ED00015F08EFB0146104813F072FF68B9104888
:107EE00015F0F8FC48B90E4815F026FD01460A4881
:107EF00013F066FF08B9FFF755FF06B070BD072005
:107F0000FBE700BF55F80300CC2F0020D57D020011
:107F1000E42F0020503300201C32002004300020C9
:107F2000CC31002010B5054C226832B115F056FF57
:107F3000002802DB23689847F8E710BD9033002043
:107F4000154B164A10B50C4618600121144813F061
:107F500021FB18B1134A4A2115F00FFE610C0023D2
:107F6000E00341F26F728B4208BF824210D24FF49D
:107F70007A72002316F0F6FF014600220A4813F039
:107F80001BFB38B1074A4B21BDE8104015F0F5BD89
:107F90000521F2E710BD00BF90330020257F0200CD
:107FA00060F8030064F803009433002070B5104CAF
:107FB000206808B915F0D4FD4FF0A0450D4ED5F856
:107FC000043532685340C5F804352368013B23600B
:107FD00063B9094813F038FB3268D5F8043523EA51
:107FE0000203064A12681343C5F8043570BD00BF8A
:107FF000B4330020B8330020BC330020E433002029
:10800000012303FA00F04FF0A04311B1C3F80C05AF
:108010007047C3F8080570474FF0A04311B1C3F88B
:108020000C057047C3F8080570470000F8B52AB37F
:10803000132923D9124B134D5200013A4FF0A0449B
:108040001A602860D4F8043518400F4B4FF4FA76C4
:10805000186000274FF40040E0FB01674FF47A728C
:1080600000233046394616F07DFF002201460748BE
:1080700013F0A2FA10B92B68C4F80C35F8BD00BF94
:10808000B4330020B8330020E4330020BC33002098
:1080900008B5054813F0D8FA044B1A684FF0A0430E
:1080A000C3F8082508BD00BFBC330020B83300204A
:1080B00008B54FF0A04303224FF40051C3F8342712
:1080C000C3F808154FF48041C3F83827C3F80815E2
:1080D0004FF40041C3F83C27C3F80815C3F8402704
:1080E0004FF48032C3F808250121054A054813F0F2
:1080F00051FA18B1BDE8084015F032BD08BD00BF07
:10810000AD7F020088F80300D8B10F4B0F4A18600A
:108110004FF0A0430020C3F82C27C3F83027C3F842
:108120006027C3F864270A4B4FF00042C3F80423CA
:10813000C3F87C01074BC02283F8062340221A6053
:1081400070470E20704700BFDC3300200C00030096
:108150000060004000E100E0124B70B50024124EB8
:10816000124DC3F87C414FF0A043A15DD3F8102518
:1081700001238B40934311D00D49D5F804250B689A
:10818000981A48BFD01A43F23333984206D9D5F82B
:1081900004350B60074B20461B6898470134042CBC
:1081A000E1D170BD006000408CF803000010014078
:1081B000E0330020DC33002070B50446CEB0002848
:1081C00064D03C4D2A6852042FD53B4B1B68032BCF
:1081D0002BDD3A4B0DAE19680023E25C100902F06A
:1081E0000F02085C06F81300885C06EB43020133BB
:1081F000102B5070F1D100232F21314886F8203008
:1082000017F062F9002843D02F212D4817F05CF9B0
:10821000411C2C4B2C4AD3F8043501922B4A009276
:1082200002964122042006F0BDF82B685B042DD590
:10823000214B1B68032B29DD2F21214817F044F91E
:1082400000282ED02F211E4817F03EF9411C1D4B4F
:10825000E27BD3F804350B92A27B0A92627B0992EF
:10826000227B0892E27A0792A27A0692627A0592BB
:10827000227A0492E2880392A288029222680192F2
:10828000134A00920420462206F08CF84EB070BDCE
:108290005C210B4817F018F908B15C21B5E70849D3
:1082A000B7E75C21064817F00FF908B15C21CAE76F
:1082B0000349CCE73C2E0020382E0020402E002021
:1082C00090F8030000100140B8F80300CAF803005A
:1082D000D2F8030072DF704773DF704774DF7047B6
:1082E000F0B52F4CA3B005460E46174600211022CC
:1082F000204617F019F82B482B4A03782B49C3EB7B
:10830000431C62440133614403F00103A2601F2255
:1083100003702160A280A28100213C2204A817F0F2
:1083200003F8062301AA8DF813300E9201233C2294
:10833000002113A88DF80230ADF820308DF83C30C4
:10834000ADF80050CDF824D0ADF80450ADF8087069
:10835000039616F0E9FF0223221D21688DF84C30A8
:1083600004A800F0CBF908B115F0FAFB104AA16897
:1083700013A800F0C3F908B115F0F2FB0D4A084943
:108380000D48FFF7A7FF082804D1002204490A4836
:10839000FFF7A0FF08B115F0E3FB23B0F0BD00BF6D
:1083A00028340020E833002038340020E93300204E
:1083B000343400201C2E0020182E0020B0F5202F71
:1083C0000AD20A23B0FBF3F310B1002B08BF01233C
:1083D000034A9381916070474FF6FF73F8E700BF3F
:1083E0001C2E002008B5064B01211878FFF774FFFA
:1083F00008B115F0B5FB0020BDE8084004F00CBD45
:10840000182E002008B5054B1878FFF767FF18B144
:10841000BDE8084015F0A4BB08BD00BF182E002021
:1084200076DF70477ADF70477CDF704715F098BBC6
:1084300003F0FCBE07B503784BB93B214088FFF73A
:10844000EFFF08B303B05DF804EB15F089BB012B17
:108450001AD1134B1B685B0416D5124B1B68032BF8
:1084600012DD2F21104817F02FF880B12F210E4870
:1084700017F02AF8411C0D4B0D4AD3F80435009231
:108480000420682205F08EFF03B05DF804FB5C2138
:10849000054817F019F808B15C21E8E70249EAE756
:1084A0003C2E0020382E002024F90300001001404B
:1084B00054F9030013B500F01FFC08B115F050FB90
:1084C00002AC002344F8043D0120214600F042FBA9
:1084D00008B115F045FB204600F0A6FB08B115F0E9
:1084E0003FFB02B010BD00001FB504AC11231048C3
:1084F00004F80C3D16F0E0FF0D4982B22046FFF76C
:1085000093FF08B115F02CFB08220DEB02000021AF
:1085100016F00AFF074A4FF0C87302A8CDE90223FC
:10852000FFF780FF08B115F01BFB04B010BD00BFC2
:1085300012F903007800C80010B58AB001AC082217
:108540000021204616F0F0FE124A4FF0C873CDE924
:10855000012300211C2203A816F0E6FE4FF480330D
:1085600040F6CD41CDE9041303238DF818300023E4
:10857000ADF81A308DF81C30074B089303A8074B51
:108580000394099300F03CFD08B115F0E9FA0AB034
:1085900010BD00BF7800C800358402002D840200A1
:1085A00070B5EFF3108672B60C4A946801239CB93B
:1085B00093600B4B0B4DD3F8801029401160C3F82A
:1085C0008050D3F8841051604FF0FF32C3F88420FC
:1085D000047006B962B670BD0370FAE7A0590020B6
:1085E00000E100E0FC06FFBD10B5084B9A685AB1E7
:1085F00050B9EFF3108172B6054A1C6814605C68CC
:108600005460986001B962B610BD00BFA059002047
:1086100000E100E06DDF704779DF70477DDF704774
:1086200064DF70472DE9F74F0C9CBDF834B0278804
:10863000002580468A4691462E46B8F80020B24270
:108640000BDC35B12288013AD21B92B2FF2A39D80D
:10865000DA55002003B0BDE8F08FD8F8042052F8B6
:108660002600019000220DF1030101A8FFF7D8FFB9
:108670000028EFD19DF803204A4521D12288002D02
:1086800014BF0020022002EB09010144594519DC06
:108690003DB9013292B2228003F802A02288013251
:1086A000228022880DF103011A4401A8FFF7B8FFC8
:1086B0000028CFD121889DF803200A44228001257B
:1086C0000136BAE70C20C5E72DE9F341089CBDF857
:1086D00024501746CDE9004502220646FFF7A2FFC7
:1086E00048B9102239463046CDE9084502B0BDE808
:1086F000F041FFF797BF02B0BDE8F0812DE9F04FE0
:1087000000231688138090F82D3085B007460D465B
:10871000144653B3082E01D80C2026E102A8FFF717
:1087200079FF002840F0218113880822CA54238849
:1087300001339BB21B222380CA542088013080B2AF
:10874000208006220DF10901284416F0E2FD23885D
:108750009DF8082006339BB212F0FE0218BF0122DA
:108760002380EA54238801332380BB78FBB123881C
:108770000433B342D0D802A8FFF74EFF002840F0E0
:10878000F48023880322EA54238801339BB2192200
:108790002380EA542388BDF8082001339BB2E918EE
:1087A0002380EA54120A4A70238802332380FA781D
:1087B0009AB12388D91CB142AED80221E95423884A
:1087C00001339BB201212380E95423880B449BB2DF
:1087D0002380EA5423880B4423807A68AAB1238833
:1087E000D91CB14298D8022192F90020E95423887B
:1087F00001339BB20A212380E954238801339BB2C1
:108800002380EA542388013323803B89002B40F0E6
:10881000A0803B8A5BB1CDE900462B4607220321AD
:1088200007F11000FFF750FF002840F09E803B8BBF
:108830005BB1CDE900462B461522142107F1180043
:10884000FFF742FF002840F090803A6A002A40F08B
:108850008F80D7F82480B8F1000F30D0B8F80430FA
:108860002188981C8A1C0244B2423FF655AFFE286C
:108870003FF652AF03336B54238801339BB2FF2280
:108880002380EA54238801339BB22380B8F8002068
:10889000EA54E918120A4A702088023080B2208017
:1088A000B8F804205AB1D8F8081000296AD0284432
:1088B00016F02FFD2388B8F804201344238097F87E
:1088C0002C30002B40F09980387800284DD03B8820
:1088D000012B57D021888A1CB2423FF61DAF0128D8
:1088E00005D17B7802330B449E42FFF415AF023E64
:1088F000761A04A9B6B221F8086DA818FFF78EFE03
:1089000098BB3978BDF80820022900F0BB807B783D
:10891000934202D3B24240F2B380012940F0B480C6
:108920009BB29E42C0F0B080ADF808300821BDF87F
:108930000830FE2B3FF6F0AE22880133AB5422887C
:10894000013292B22280A95422881344238000204D
:108950000BE0CDE900462B460622022107F1080074
:10896000FFF7B2FE00283FF454AF05B0BDE8F08F2A
:10897000B4F800C00CF10603B3423FF6CDAE118847
:10898000052901D80720F0E76FF4486E01EB0E03CC
:108990009BB24FF27D3E7345F4D95388052BF1D934
:1089A0006FF44860181880B27045EBD94FF6FF702D
:1089B000814203D0834201D09942E3D8052305F8D0
:1089C0000C30238801339BB212212380E954238881
:1089D00001339BB223801188E954E818090A4170D9
:1089E000238802339BB223805288EA54E918120A82
:1089F0004A702388023323802BE7BB6A002BC1D047
:108A00004FF000094FF00C0A4FF0160B97F82C307E
:108A10005FFA89F293427FF657AFB96A0AFB02F216
:108A200001EB0208B8F80430981CFE283FF674AE3B
:108A3000208803332B54238801339BB2238005F80D
:108A400003B0238801339BB223808A5AEA54E91881
:108A5000120A4A702088023080B22080B8F80420C0
:108A60005AB1D8F8081000298CD0284416F051FCCF
:108A70002388B8F804201344238009F10109C5E7CD
:108A8000092154E7B242FBD9ADF808604EE7016016
:108A90000B6843604A68934204BF002343607047F9
:108AA000436843B1026891680B4443605268934243
:108AB00004BF0023436070474BDF70471FB50D4C68
:108AC00001A8FFF7F9FF70B9214602A8FFF7DFFF01
:108AD000039B002BF4D00198D3E90021904702A812
:108AE000FFF7DEFFF4E7052801D015F039F804B0F0
:108AF00010BD00BF80F9030060DF704769DF704779
:108B000061DF704730B5114B1B78A9B0E3B1104D50
:108B100094240DF1020103A8ADF80240FFF7F0FF25
:108B200070B9294601A8FFF7B2FF029B002BF0D0D5
:108B300003A8D3E90021904701A8FFF7B1FFF4E7AC
:108B4000052801D015F00CF829B030BD763400208E
:108B50008CF90300F0B5074685B00D4600295ED0BC
:108B6000304B0B600C22002101A816F0DDFB012622
:108B700006232A68ADF8083001A920208DF804707A
:108B80008DF80660FFF7BAFF0C22002101A816F04D
:108B9000CBFB00242A688DF8056001A940208DF8E0
:108BA00006408DF80740FFF7A9FF0C22214601A8D7
:108BB00016F0BAFB45232A68ADF8063001A9232038
:108BC0008DF80470FFF79AFF0C22214601A816F0D9
:108BD000ABFB2A688DF8044001A93046FFF78EFFF1
:108BE0000C22214601A816F09FFB4FF4B0632A68BF
:108BF000019301A9A120FFF781FF0C22214601A8C2
:108C000016F092FB9DF804302A68334301A9A02096
:108C10008DF80430FFF772FF204605B0F0BD0E203E
:108C2000FBE700BF002E002008B5FFF765FF10B975
:108C3000014B01221A7008BD7634002010DF704706
:108C400011DF704713B5044609496846FFF71FFF57
:108C5000019808B902B010BDD0E90031204698470C
:108C600018B16846FFF71CFFF2E71120F2E700BFDA
:108C70009CF9030013B5044607496846FFF707FF50
:108C8000019B0BB902B010BD2046D3E900219047EB
:108C90006846FFF705FFF3E7B4F90300064B9A684F
:108CA00022B11A6822F480021A607047034B4FF415
:108CB0008002C3F880207047A059002000E100E046
:108CC0000B4991F816335A09EC231341DB0706D5FB
:108CD000084B9A683AB94FF480030B60704742F230
:108CE000020014F03DBF1A6842F480021A60704717
:108CF00000E100E0A0590020F7B5184F3C785CBBBC
:108D0000174E012520463570FFF79CFF112820D013
:108D10002046FFF7AFFF134B1868019002A800F838
:108D2000054DFFF73DFC104901A8FFF787FF0446FA
:108D3000B0FA80F0400938709DF80300FFF754FC4A
:108D40003CB90A4B34701C70FFF7BAFF2846FFF796
:108D500091FF204603B0F0BD0824FAE778340020E4
:108D60007734002098F903008190020079340020C4
:108D7000F7B5154F3B7813B3144E01203070FFF751
:108D800061FF11284FF000051BD00220FFF772FF92
:108D900002A800F8015DFFF703FCFFF751FF04464E
:108DA0009DF807003D70FFF71FFC2CB93470FFF7EA
:108DB00075FF0320FFF75EFF204603B0F0BD0824D7
:108DC000FAE72C46F8E700BF78340020773400201B
:108DD00007B508496846FFF75AFE019B13B903B06F
:108DE0005DF804FBD3E9002090476846FFF758FE82
:108DF000F3E700BFA8F90300FFF7EABF75DF70478C
:108E000076DF70477ADF70477BDF7047034B1A8845
:108E100082420CBF18460020704700BF98340020E3
:108E2000024B9B6903B11847704700BF7C34002098
:108E300037B585B22846FFF7E9FF034670B1164CF7
:108E4000017A227B91420BD200F10A012846FFF7FA
:108E5000D5FFE8B1112801D0FFF7E2FF03B030BD24
:108E6000237C0022027243B13B212846FFF7C8FF52
:108E700030F0080301D0FFF7D3FF6369002BEDD07A
:108E800000228DF80420ADF8065001A89847E5E7C8
:108E90001A7A01321A72E1E77C34002013B50B46CE
:108EA000497A0F4C024669B9D4E901101C7A002CAA
:108EB00018BF0146586812F07FFB08B1FFF7B0FFFA
:108EC00002B010BD002119726369002BF8D0012196
:108ED000ADF806008DF8041001A89847F0E700BF30
:108EE0007C34002030B583880588B3F5FA7F24BF31
:108EF0006FF4F9729C184A8838BF002495420CD848
:108F00004088904209D38A88A24206D303F2F31024
:108F1000904234BF0020012030BD0020FCE700005B
:108F200070B50388112B014648D002D8102B1ED0F3
:108F300070BD122B52D0502BFAD12F4BC288DB8937
:108F40009A42F5D1038A022BF2D186883046FFF788
:108F50005DFF05460028EBD001F1120000F08AF811
:108F600030BB686812F070FB0028E1D009E0C37BD9
:108F7000012BDDD14FF6FF70FFF748FF054620B902
:108F80000420BDE87040FFF74BBF8E881B4A068067
:108F9000002303721368C5F80A300A30536843602F
:108FA0001031FFF79FFF144B6872DB89002BBFD194
:108FB00029463046BDE87040FFF770BF8088FFF754
:108FC00025FF04460028B3D0406812F03DFB08B1ED
:108FD000FFF726FF4FF6FF732380A9E78688304608
:108FE000FFF714FF05460028A2D008310A30FFF72A
:108FF00079FF6872DCE700BF7C340020AC340020CD
:10900000F8B5064650B305460FCD154F3C460FC484
:1090100095E8070084E807003068124B3B60B8B160
:10902000FFF7F0FEC8B931680A681A604A685A60EA
:109030000D480E4A4FF6FF7303800D4B40F8043F76
:10904000002112F0A7FA002814BF0320002004E03A
:109050001846FFF7D9FE0028EAD0F8BD0E20FCE73D
:109060007C340020AC34002098340020318E020083
:10907000B4340020007800F00100704706207047EB
:1090800030B5754B14461B6841F20102904287B01F
:109090000D4603F480437ED01ED8012845D0002B16
:1090A0005DD06E4B1B68002B59DD2F216C4816F0EC
:1090B0000BFA002800F0C4802F21694816F004FA4A
:1090C000411C684B684AD3F80435009201957B2215
:1090D000012005F067F942E044F20102904200F0FD
:1090E000858044F202029042D9D1002B37D05B4BED
:1090F0001B68002B33DD2F21594816F0E5F90028B5
:109100006BD02F21564816F0DFF9411C554B2288B1
:10911000D3F8043503926268CDE90152534A0092B4
:1091200001206C2205F03EF919E0C3B14B4B1B68DE
:10913000002B14DD2F214A4816F0C6F910B32F2159
:10914000474816F0C1F9411C464B494AD3F804354B
:109150000092CDE901546022012005F023F94FF07F
:10916000A0434FF4F032C3F81825C3F80C25EFF3F1
:10917000108372B64DF6AD6C3E4A1378002B68D161
:1091800007B030BD5C21364816F09EF908B15C216D
:10919000D6E73349D8E7002BE1D0304B1B68002BD2
:1091A000DDDD2F212E4816F08FF968B12F212C48D4
:1091B00016F08AF9411C2B4B2F4AD3F80435009244
:1091C000CDE901546322C7E75C21254816F07CF9FC
:1091D00008B15C21EBE72249EDE75C21204816F05D
:1091E00073F908B15C218DE71D498FE7002BB6D0DC
:1091F0001A4B1B68002BB2DD2F21194816F064F9B9
:10920000A8B12F21164816F05FF9411C154B2268B2
:10921000D3F8043504926268CDE90252A268019243
:10922000164A00920120772205F0BCF897E75C21EE
:109230000B4816F049F908B15C21E3E70849E5E776
:109240005C21074816F040F908B15C2135E7044974
:1092500037E730BF91E700BF3C2E0020382E0020BA
:10926000C0F903000010014064FA030024FA03006F
:10927000E8F90300342E002002FA030043FA030049
:1092800007B50023ADF800300146054B01936A464F
:1092900044F20200FFF7F4FE03B05DF804FB00BFE8
:1092A000FF04040001461022014816F032B800BF46
:1092B000D434002010B50B4C0B490822204616F080
:1092C00028F80822A018094916F023F8E3790422A7
:1092D00062F30713E371237A022262F38713237286
:1092E00010BD00BFD434002060000010A4000010A6
:1092F00000487047D4340020064B002203F58071EB
:109300005A805A6003F8082B8B42F9D1024B1A603D
:10931000704700BFE4340020E4350020F0B50C4B6A
:109320000C4C1B68064620227BB1013B14F833002D
:1093300050B104EBC3056F88B74202D16D688D420E
:1093400002D0013AF0D11046F0BD1F23EEE700BF76
:10935000E4350020E434002030B5084A084C136896
:1093600004EBC3056960012104F833100B44202B82
:1093700008BF00236880136030BD00BFE4350020C3
:10938000E4340020C0F30C038B42084438BFA0F53E
:109390000050C01A70470000F0B50D4B0D4A1E6812
:1093A00000218E4212D0156800230AE052F8044CC6
:1093B00004EBC30714F83340844201D17868F0BD50
:1093C00001339D42F2D101310832EAE70020F6E78D
:1093D0006C3600207436002000B58DB048B9991C59
:1093E00007D0012101A88DF80410CDE9023201F067
:1093F0003BFA034B186803F007FF0DB05DF804FB60
:109400007836002010B50378044613B97846FFF784
:1094100037FF607A431C01209840013810BD2DE9C8
:10942000F0410E468EB015461C46074610B97846E8
:10943000FFF726FF16B97846FFF722FF636AA27886
:1094400002330593E378A2F10800002B14BF012139
:1094500002210DF1040842424241434604F10C004E
:1094600004F005F8A3788DF83430237BADF8205054
:10947000022B16FA85F5CDE906870B960C950FD1D0
:10948000236913B97846FFF7FBFE2369099310237C
:1094900005A8ADF8283003F0E6FF0EB0BDE8F08176
:1094A0000023F5E7B2F5C07F2DE9F04781468846F5
:1094B000174602D97846FFF7E3FE244B00257022B9
:1094C0009A4602FB053494F8486046B9384607F0DE
:1094D000CAFEE06638B900242046BDE8F0870135B1
:1094E000042DEED1F7E730224946204615F011FF52
:1094F000B8F1010FE664A4F84A701DD1144B84F84A
:1095000052601B7D84F8513084F8536084F85060B9
:10951000D9F8283063656FF00103A3620D4BA4F8FE
:109520005860A3632464012002F066FA702303FBF1
:1095300005A585F84880CFE76FF00103A362064BCD
:10954000A36584F868602466044BEAE7943600203B
:109550007C360020559A0200A5A202004D9A020016
:1095600010B50446C06E07F080FE04F1300003F031
:1095700075F894F84830022B03D104F1500003F041
:109580006DF820467022002115F0CEFE002084F8F0
:109590004800BDE8104002F02FBA10B590F84830EE
:1095A000012B8CB0044602D07846FFF769FE0123F8
:1095B0008DF8043001A8636D029301F055F920463F
:1095C000FFF7CEFF0CB010BD037BD3B190F916208E
:1095D000002A18DBC27D5AB1022B12D090F9033059
:1095E000002B10DB8378002B0CBF00200720704776
:1095F000C2780AB9012B06D1037833B98378042BDA
:10960000F2E71020704707207047002070470000E5
:109610001FB500220B468DF80F2028B302300860DA
:1096200018460DF10F0103F020FF9DF80F30DBB15C
:10963000144B1B685B0717D5134B1B68032B13DDFB
:109640002F21124815F040FF98B12F210F4815F037
:109650003BFF411C0E4B0F4AD3F804350092042007
:1096600040F2064204F09EFE9DF80F0005B05DF842
:1096700004FB5C21054815F027FF08B15C21E5E7F4
:109680000249E7E73C2E0020382E0020D1FA0300E3
:1096900000100140EEFA030070B504468CB0237848
:1096A000808AD4E90612E3B1E38805F019FE054685
:1096B000A0B12C22002101A8A68AE46915F034FE8D
:1096C0000F238DF804304FF0000364F3000301A86A
:1096D000ADF808608DF80A3001F0C6F828460CB0E5
:1096E00070BD05F0F9FDE2E72DE9F04F99461378DA
:1096F000D2F81880F3B007468A46144623B1D188C1
:109700004046FFF73FFE9061E378A278002BA2F17C
:10971000080003AD14BF0121022104F10C064242EE
:109720002B464241304603F0A2FEA278C4F81880CE
:10973000CDE908571FFA8AF5AB1A9BB21F44ADF862
:109740002830E3780E974FF0000812AF0D978DF890
:109750003C20ADF83080002B65D04FF0100B04F1A9
:10976000240A237BC4F82480022B02BF2369ADF8AE
:1097700030B00B93206A2179524611F01FFB606ACA
:1097800030BB237B022B05D13146E08911F0D8FB99
:109790000028E6D1374B1B685B0741D5364B1B6869
:1097A000052B3DDD2F21354815F08EFE002858D0C1
:1097B0002F21324815F088FE411C314B314AD3F835
:1097C00004350092062040F2F26204F0EBFD27E03F
:1097D00007A9FFF71DFF0028CCD02046FFF75CFF4C
:1097E000F0B9A2780B908DF81C0096E80300A38ACC
:1097F000ADF82A30AD1A0CAB01228DF8282083E891
:109800000300A37D8DF84030236A0E9307A8636A96
:109810000897ADF824500F93CDF8449001F024F848
:1098200073B0BDE8F08F227B012AB3D1A046E08956
:10983000B4F814A048F8243F414611F005FB07A9ED
:10984000606AFFF7E5FE0028C7D1606241465046D6
:1098500011F0FAFA07A9606AFFF7DAFE002899D03A
:10986000BBE75C21054815F02FFE08B15C21A0E79D
:109870000249A2E73C2E0020382E0020D1FA030036
:1098800000100140BFFB0300C37D0A7830B5002BF8
:109890003DD0C37822F07F0203F07F031A430A70A1
:1098A0000B78027803F07F0343EAC2130B7003784E
:1098B00063B38378083B5A425A414B7803F07F03E5
:1098C00043EAC2134B708A78C58802F00302C5F3DD
:1098D000861442EA850223F07F032343D2B28A70C2
:1098E0004B70CB78057A03F01F03C5F3C10422F057
:1098F000030243EA45132243DBB2CB708A70427AFB
:1099000023F01F0302F01F021343CB7030BDC47855
:1099100022F0400343EA8413DBB20B70027923F098
:109920003F0302F03F0213430B70B9E738B590F8DC
:109930004830012B044602D07846FFF7A1FC02F024
:10994000CDFE237B074A012B05BFD2E90315A37D7A
:10995000D16805FB0311014404F13000BDE8384033
:1099600002F093BE7C360020F0B50D4691B004465F
:1099700010B97846FFF784FC94F84830022B19D1CF
:10998000E188A069FFF7FEFCE1690A061618284A7B
:109990004FEA112343F10007136830465E1C16603E
:1099A00003F00703234A1B013946D618A78AD7526A
:1099B000C6E902012C22002105A8666D15F0B4FC51
:1099C000102305A88DF8143006968DF81C5000F071
:1099D0004BFF2046FFF7C4FD174B1B685B071BD5E9
:1099E000164B1B68032B17DD2F21154815F06CFD56
:1099F000A0B12F21124815F067FD411C114BD3F87F
:109A00000435029594F8482001920F4A00920420F0
:109A10004FF4FA7204F0C6FC11B0F0BD5C210848A6
:109A200015F052FD08B15C21E4E70549E6E700BF07
:109A300068360020E83500203C2E0020382E00201B
:109A4000D1FA030000100140A0FA030008460021EB
:109A5000FFF78ABF10B591F84830012B0C4602D0B1
:109A60007846FFF70DFC94F851305BB1013B84F868
:109A70005130002384F85030084BBDE8104018687E
:109A800003F0C2BB217B0129204603D1BDE8104071
:109A9000FFF76ABFBDE81040FFF77FBD78360020B2
:109AA0002DE9F04F044689B00F4609B100230B6041
:109AB00004F10C0394F8505001934FF001084FF05B
:109AC000000B627AAA4203D2002009B0BDE8F08FF1
:109AD000E16C08FA05F30B4259D1E37D2572002BA6
:109AE0000CBF0C260826954206FB05FA237808BF12
:109AF000B4F84A608DF818B008BFA6EB0A06002B30
:109B000014BF4FF004094FF0010906EB0903049359
:109B1000019B0293A36A039302A8E36A059303F0EF
:109B200040FE0028D1D1079B994445B994F85330A1
:109B30002BB9A36984F85380C3F30C03E380E37D5E
:109B40008BB994F8523073B915B17846FFF798FB8A
:109B5000B4F84A10A2788A1AE16E23460846FFF745
:109B60005EFC84F8528007992046FFF78DFEE16E77
:109B700032465144484615F0CCFB02A803F032FEB1
:109B800017B13B6801333B606B1C84F850300135E2
:109B9000EDB296E72DE9F04307468FB010468846B0
:109BA00015469946FFF778FD0446002860D1EE7807
:109BB000002E40F0AE80B8F1060F59D138787A788F
:109BC000DFF8A8C1830103F4FE5343EA9203D7F8F8
:109BD00002204FF0700812BA674608FB04C696F8D8
:109BE0004810012925D1B6F814E0E9898E4520D125
:109BF000F18899421DD1B6F858E0A98ABEF1000F4C
:109C000001D08E4515D110F0800F4FF070033BD07E
:109C100003FB0473A3F85810702303FB0474E56C72
:109C20001543E564002A61D103213046FFF79CFE0D
:109C30001EE00134042CD0D1464B1B685B0717D5BE
:109C4000454B1B68012B13DD2F21444815F03CFCCC
:109C500088B12F21414815F037FC411C404B414A47
:109C6000D3F80435009202204FF4CD6204F09AFB41
:109C70000FB0BDE8F0835C21384815F025FC08B131
:109C80005C21E7E73549E9E703FB0473DB898B4295
:109C9000C2D0304B1B685A07EAD52F4B1B68012BEB
:109CA000E6DD2F212D4815F00FFCB0B12F212B48F8
:109CB00015F00AFC411C2A4BAA8AD3F804350292FB
:109CC000702202FB04740220E2890192264A00926B
:109CD0004FF4CE6204F066FBCAE75C211F4815F022
:109CE000F3FB08B15C21E2E71C49E4E73046FFF7EB
:109CF00089FB854203D13046FFF74FFCB8E70021CE
:109D000084F850103046FFF7CBFE3046FFF70EFECA
:109D1000AEE73046FFF740FB03460028A8D005F128
:109D20000C012A6A0B9203C9AA8AADF8222009AA5B
:109D300082E80300AA7D8DF830202A788DF8202053
:109D4000EA6A8DF81460CDE906780D92494605A8B7
:109D500098478DE73C2E0020382E0020D1FA0300D2
:109D60000010014001FB03002FFB0300943600208C
:109D7000F0B5C37D15468278002B2A4414BF4FF4FA
:109D800080734FF4C0739342C7B00E4679D3404CF2
:109D90000023E11891F84870012F08D1B1F814C0E0
:109DA000878ABC4503D1CF89C1898F426BD070337C
:109DB000B3F5E07FEDD10121FFF774FB04460028E5
:109DC00063D02A463146C06E15F0A3FA002304A9D9
:109DD00020460493FFF764FE30F0040506464BD19D
:109DE000049B13B12046FFF7A1FD2A4B1B685B07BC
:109DF00028D5294B1B68032B24DDB4F84A10274BC8
:109E00008029186828BF8021002305AE8B421CD111
:109E100000222F21224806F8132015F055FB10B31D
:109E20002F211F4815F050FB411C1E4B1E4AD3F832
:109E3000043501921D4A0092029640F255520420C8
:109E400004F0B0FA284647B0F0BDE26ED25C1709C4
:109E500002F00F02C75D06F81370875C06EB430241
:109E600001335770D2E75C210D4815F02DFB08B186
:109E70005C21D6E70A49D8E72046FFF771FB354653
:109E8000E0E70925DEE70825DCE70425DAE700BF7F
:109E9000943600203C2E0020382E0020402E00203A
:109EA000D1FA030000100140C3FA0300CAF803000E
:109EB0002DE9F041044686B0808A0F46164602F02E
:109EC00041F8012844D12046FFF77EFB054638B90A
:109ED00023784BB1324639462046FFF749FF054605
:109EE000284606B0BDE8F081E27DA378002A33441D
:109EF00014BF0B220F22934228D80133029304F19E
:109F00000C030093A36A01938DF81000E36A039396
:109F1000684603F046FC05460028E1D10599204635
:109F200001F10108FFF7B0FCE37D43B13246394649
:109F3000404615F0EEF9684603F054FCD0E723469E
:109F4000324641463846FFF76AFAF4E70925C7E783
:109F50001025C5E710B54FF4E0720021134815F045
:109F6000E3F9002405F09EFA114B12481C602146CB
:109F7000802215F0D9F9104B1049114A11489C75EF
:109F8000C3E9001210494CF25032C3E902211A61B0
:109F900040F604029A8203F019F90C4B18600C4B3E
:109FA0000C481C60BDE8104005F086BB94360020CC
:109FB00068360020E83500207C3600208096980026
:109FC000F04902009DA7020020A10700783600207A
:109FD0006C360020D993020005F076B930B50446FE
:109FE0008DB0002860D00369002B5DD0C369002BC1
:109FF0005AD08569002D57D05A788DF804201A78E8
:10A000000993838A82F001020B2B8DF80320027BD7
:10A010003AD90121022A8DF8001001D1234A927DFC
:10A02000002A3BD1042213448DF802200B330C226A
:10A0300093FBF2F3013B8DF8093000238DF80830D3
:10A0400094E8030000238DF8173003AB83E8030086
:10A050002389ADF81430A37A8DF81630236A0A9359
:10A060002046DF2308950B9311F012F828B12378CE
:10A07000012B0CBF2023FF230B93A28A2169684682
:10A08000FFF716FF0DB030BDC17A0029C1D1012AFA
:10A090000CBF012200228DF8002001D10822C2E766
:10A0A00004238DF80230CBE70E20EBE77C3600204E
:10A0B00070B50E4690B00446002862D04368002B6D
:10A0C0005FD08569002D5CD003788DF813300023B4
:10A0D0000D9383680B2B94BF027B012202F00101D8
:10A0E0008DF8101000218DF8121032B10733DB0803
:10A0F000013B8DF819308DF8181004F1100292E828
:10A10000030001238DF8273007AB83E80300E389C0
:10A11000ADF82430237F8DF82630236A0C95CDE9E5
:10A120000E63194B1B685B071BD5184B1B68062B6E
:10A1300017DD2F21164815F0C7F9C8B12F21144893
:10A1400015F0C2F9411C134BA269D3F804350292F1
:10A1500022780192104A0092072040F2F57204F032
:10A1600021F9D4E9011204A8FFF7A2FE10B070BDD6
:10A170005C21074815F0A8F908B15C21DFE7044924
:10A18000E1E70E20F2E700BF3C2E0020382E002031
:10A19000D1FA03000010014070FB030070B5037B8F
:10A1A000012B8EB004460D466DD1384B1B689805C7
:10A1B00018D5374B1B68032B14DD2F21354815F0BC
:10A1C00083F9002853D02F21324815F07DF9411C26
:10A1D000314B324AD3F804350092042040F2622217
:10A1E00004F0E0F802AE0B220021304615F09CF896
:10A1F0009DF80920E3888DF80D5002F0030242EA31
:10A2000083028DF809202A0E8DF80A202A0C8DF879
:10A210000B202A0A8DF80C2062780696911E4A427D
:10A220004A41C3F3861343EAC2138DF8083006236C
:10A23000079301238DF82430A38AADF8263000233C
:10A240000A938DF814308DF82030E389ADF8223070
:10A25000E36A0D93A37D226A0B928BB96FF0010123
:10A2600005A88DF83030FFF723FF0EB070BD5C21DC
:10A27000084815F029F908B15C21A5E70549A7E7C9
:10A28000074B5B7DEAE70020EFE700BF3C2E002094
:10A29000382E0020D1FA03000010014090FA03008C
:10A2A0007C36002010B591F84830022B0C4602D0C5
:10A2B0007846FEF7E5FF022384F8683094F84830CA
:10A2C000022B06D1E16C2046FFF768FF08B984F83D
:10A2D000680010BD2DE9F04F0D469FB0144698461A
:10A2E0000646002800F04C82002A00F0498221B97D
:10A2F000092738461FB0BDE8F08F1822214615A85F
:10A3000015F007F83378002059B2CA0F81428DF852
:10A310004820ACBF0122042295428DF84900E7D3C2
:10A320009DF85F70EFB103F07F0381428DF84B30F1
:10A330008DF84A002EDA7278B378920102F4FE5258
:10A3400042EA9302ADF84E20DB00F27803F01803E6
:10A3500043EA521302F01F028DF850308DF851205D
:10A3600018E0C3F38010002903F03F038DF84B0081
:10A370008DF84C3008DA96F90130002BACBF04237D
:10A3800008238DF84A30D6E704231A4495428DF805
:10A390004A30ADD300231B9398F80030032B02D929
:10A3A0007846FEF76DFF98F80020AB4BBDF85C00D7
:10A3B00053F822301D9301F0C5FD012840F0E281E1
:10A3C00012A8FFF701F90746002892D1014608229A
:10A3D00005A814F0A9FF05A9608810F0B1FD28B107
:10A3E0009DF8493043F001038DF84930D4E9031258
:10A3F000208904F0A1FF002857D19DF84930002B97
:10A400003FF477AF13F001031CBF069A16929DF834
:10A410004820002A00F0A281BDF84E101898FEF7DF
:10A42000B1FF199B4FEA03694FEA132A19EB0003A6
:10A430004AF10004CDE90234BDF85C00874C0021EC
:10A440000B5B834209D16318D3E90223DDE9029A49
:10A450009A4508BF91453FF44CAF10318029EFD1A8
:10A460007F4A0023702101FB032494F848C0BCF10B
:10A47000020F23D1B4F814C084451FD1E188A0692C
:10A48000FEF780FFE1690A0612EB00094FEA11238B
:10A4900043F1000ADDE902239A4508BF914531D214
:10A4A00005212046FFF760FA0BE09DF8493003F0E4
:10A4B000FE038DF84930002B9FD11AE70133042B9E
:10A4C000D1D1BDF84E30BDF85C00DDE9181204F0C2
:10A4D0005BFF002800F0D280BDF84E30BDF85C0074
:10A4E000DDE9181204F084FF00283FF402AF12A83F
:10A4F000FEF788FF014612A8FFF750FE12A8FFF7EB
:10A50000CBF8F6E6DDE90223534508BF4A45FFF4E0
:10A51000F0AE544B1B685B071CD5534B1B68032BD9
:10A5200018DD2F21514814F0CFFF002800F0FC80E7
:10A530002F214E4814F0C8FF411C4D4B9DF8502070
:10A54000D3F8043501924B4A009204204FF465720F
:10A5500003F028FF94F84830022B02D07846FEF72B
:10A560008FFEDFF81491D9F800A002F0B7F80AEBDB
:10A57000000104F1300002F088F8237B012B1AD18E
:10A5800094F86830BBB994F84830022B02D0784672
:10A59000FEF776FED9E9013299F8151002FB013970
:10A5A00002F09CF800EB090104F1500002F06DF894
:10A5B000012384F868309DF85010E36C01228A4032
:10A5C00013427FF496AE1343E3649DF85F30627AE2
:10A5D000002B0CBF4FF00C094FF008098A42A5F17F
:10A5E000040509FB01F940F0A88009EB0503A4F874
:10A5F0004A30A269189B9A420BD20DF1540EBEE864
:10A600000F0004F10C0CACE80F009EE803008CE88E
:10A610000300E06E2A46311D484414F07AFE2046BD
:10A62000E56CFEF7EFFE85427FF463AEE16C2046F9
:10A63000FFF7B4FD6378DA070AD5E37DE06EB4F87E
:10A640004A10002B00F0858043462246FFF7A2FA0D
:10A650002046FEF785FF4CE680FA0300E83500202F
:10A66000943600203C2E0020382E0020D1FA030022
:10A6700000100140AFFB03007C3600209DF85F20F6
:10A680009DF85130002A0CBF0C24082403FB04441D
:10A690000CBF4FF4C0734FF480739C4228D93A4BDF
:10A6A0001B6859077FF525AE384B1B68002B7FF7D9
:10A6B00020AE2F21364814F007FF80B12F213448F7
:10A6C00014F002FF411C334B334AD3F80435009297
:10A6D00001944FF45C72012003F064FE09E65C21F2
:10A6E0002B4814F0F1FE08B15C21E8E72849EAE7BD
:10A6F0002246022112A8FEF7D5FE044600287FF468
:10A7000008AF014612A8FFF749FD2C22214607A8F1
:10A7100014F00AFE10238DF81C3007A802238DF8D0
:10A72000243000F0A1F8E4E55C21194814F0CCFED7
:10A7300008B15C21FDE61649FFE6002B0CBF0C2397
:10A7400008239D423FF455AF04212046FFF70CF942
:10A75000CFE543462246FEF7C7FF79E7002B3FF4DB
:10A76000C8AD9DF85F30701C691E23B1434612AA24
:10A77000FFF710FABDE5434612AAFEF7B5FFB8E5AC
:10A780000E27B6E51027B4E53C2E0020382E002019
:10A79000D1FA0300001001409BFB03002DE9F341B7
:10A7A000194E00243746A046351995F84830012B3C
:10A7B0000CD102A9284641F8048DFFF771F904284D
:10A7C00001D0019B13B12846FFF7B0F87034B4F5FF
:10A7D000E07FE9D100257C1994F84830022B0AD19A
:10A7E00094F86830022B06D1E16C2046FFF7D6FCC6
:10A7F00008B984F868007035B5F5E07FEBD1012029
:10A8000002B0BDE8F08100BF943600202DE9F04190
:10A8100088460746E8B1124E3468C4B92546454516
:10A8200007D1104BC3E90075012333602046BDE812
:10A83000F08107EBC5035B685BB117F835000306D1
:10A8400009D450B1FEF7A8FD38B90135E7E7042473
:10A85000ECE70E24EAE70B24E8E70F24E6E700BF65
:10A860006C36002070360020F8B5074610B97846DF
:10A87000FEF706FD0F4E346894B10F4D01232B7087
:10A8800023791BB954F8043C384698472468002CB7
:10A89000F6D12B78022B03D13168064C09B9297007
:10A8A000F8BD0B790E6813B1204603F001FD314667
:10A8B000F4E700BF583800205438002010B5044693
:10A8C00010B97846FEF7DCFC00232372211D0248F4
:10A8D000BDE8104003F0CBBC5838002010B504464A
:10A8E00010B97846FEF7CCFC074A1378013B012BE0
:10A8F00004D8022313700123237210BD211D0348C5
:10A90000BDE8104003F0D4BC543800205838002073
:10A910000B888268D25A073222F00302134402885D
:10A920009BB2043A934288BF00230B80704713B553
:10A930008368CB1A02A921F8023DFFF7E9FFBDF8B1
:10A9400006308068184402B010BD70B50646154642
:10A950000C4611BB7846FEF793FCFEB17846FEF735
:10A960008FFC6B1E2344B3F1005F34D94FF080524B
:10A97000D2F80C2102F50022B3EB822F2ED2042D47
:10A9800002D87846FEF77CFC35800023043D7380B6
:10A99000B380B4602580A37070BD10B97846FEF70F
:10A9A0006FFCB4F1005F12D94FF08053D3F80C3133
:10A9B00003F50023B4EB832FD3D34FF08053D3F8A8
:10A9C0000C3103F50053B4EB832FC7D2C9E7B4F5BC
:10A9D000000FF2D8C2E7B3F5000F08D94FF080524C
:10A9E000D2F80C2102F50052B3EB822FC7D3784680
:10A9F000FEF746FCC3E738B5044610B97846FEF7C3
:10AA00003FFC6288A36813449B78012B02D17846EF
:10AA1000FEF736FCEFF3108572B6A268A1881144E8
:10AA20008B78032B0AD12046FFF781FFA368C31A56
:10AA300063800023837005B962B638BD002393702C
:10AA40006380A380F7E7F8B50E461546044610B9B3
:10AA50007846FEF715FC16B97846FEF711FC6288B9
:10AA6000A36813449B78012B02D17846FEF708FCBB
:10AA7000002D37D02388043B9BB29D4232D8EFF3A0
:10AA8000108772B66188A388EA1D22F003029942FA
:10AA900092B204D25B1A9A4210DD042016E018D953
:10AAA0002088401A904209D29A42F6D8032881BFE2
:10AAB000A3685B1804229A70002363806288A168EF
:10AAC0008B188D5201229A700020336007B962B64C
:10AAD000F8BDA26813449B78002BDED1937063808D
:10AAE000A380EBE70920F3E7F8B50D4616460446C8
:10AAF00010B97846FEF7C4FB15B97846FEF7C0FBDF
:10AB0000AB78012B02D07846FEF7BAFB2B88B34214
:10AB100002D27846FEF7B4FB16B97846FEF7B0FBD2
:10AB2000EFF3108772B60223AB70E1182E80204637
:10AB3000FFF7EEFE6288A38893421FBFA3689B18AD
:10AB400000229A7007B962B6F8BD70B50D4604468A
:10AB500010B97846FEF794FB15B97846FEF790FBDE
:10AB6000EFF3108672B6A288A36813449A78042A79
:10AB700006D1211D2046FFF7CBFEA288A36813440F
:10AB80009A78022A03D0032A08D0052003E0032282
:10AB90009A702B60002006B962B670BD7846FEF749
:10ABA0006FFBF7E738B5044610B97846FEF768FB47
:10ABB000EFF3108572B6A088A16801448B78042B4E
:10ABC00003D12046FFF7B3FE01468878831E584222
:10ABD000584105B962B638BD38B5044610B9784653
:10ABE000FEF74EFBEFF3108572B6A088A168014412
:10ABF0008878C31E012B05D9831E5842584105B9D8
:10AC000062B638BD2046FFF792FE0146F0E7F8B580
:10AC10000D46044610B97846FEF732FB15B9784662
:10AC2000FEF72EFBEFF3108672B6AB78012B19D02E
:10AC3000032B22D1A288A36813449D4202D07846F8
:10AC4000FEF71EFB0027AF70211D2046FFF760FEB8
:10AC5000A288A36813449B78042B00D1A78006B96F
:10AC600062B6F8BD6288A36813449D4202D078465C
:10AC7000FEF706FB0023AB70F1E77846FEF700FB1A
:10AC8000EDE710B5EFF3108472B682888168114445
:10AC90008B78042B02D1FFF74AFE01468878B0FA80
:10ACA00080F0400904B962B610BD037942799B1A5D
:10ACB00003F57F2303F6FF7300EB033070470000BA
:10ACC00010B5054884681C22002114F02DFB204695
:10ACD000BDE8104004F0BEB85C38002070B5194CD7
:10ACE000E36813B97846FEF7CBFA237E13B17846B2
:10ACF000FEF7C6FA6368092B02D97846FEF7C0FA58
:10AD0000114D0026636855F823309847022811D06A
:10AD100003280DD0012810D163680133092B63602B
:10AD200002D97846FEF7ACFA237E002BEAD004E085
:10AD30006660F9E7237E0BB1207070BDBDE87040FE
:10AD4000FFF7BEBF5C38002044FC030010B5038849
:10AD5000044613B97846FEF793FA2088074B04EBB4
:10AD6000800030EA030203D06288B2F5FE4F04D1BE
:10AD70001C4004F580542078204410BD00F0FFFFF3
:10AD800070B504460E4647F6FE65FFF7DFFFB0429A
:10AD900007D2844205D24388013B9BB2AB42F4D830
:10ADA00070BD0020FCE700000B78032B094B04BFAB
:10ADB00000221A761A78012A03D11B7E43B9FFF7C5
:10ADC0008DBF022A04D10B78032B01D1FFF778BF86
:10ADD000704700BF5C38002010B50C4CE368187851
:10ADE000002203F58051184404F02AFC50B9E168B0
:10ADF0000846FFF75AFF814206D001F58051E16015
:10AE0000032010BD0120FCE70220FAE75C38002097
:10AE10001FB50A4B02221B688DF800200193084AD7
:10AE20004FF4805369460120029300F0CDFFB0FA41
:10AE300080F0400905B05DF804FB00BF7C380020BD
:10AE4000783800201FB50123CDE902210190054A81
:10AE50008DF800306946184600F0B6FF05B05DF881
:10AE600004FB00BF783800202DE9F047254BD86857
:10AE700002794179013A91421E4603D10120587668
:10AE8000BDE8F08700F580531F491C781C440B680F
:10AE900013F8045F1D44FFF708FF6388013B9BB272
:10AEA00047F6FE62934200F58057884604D9204653
:10AEB0003946FFF765FF0446DFF850A04FF001095F
:10AEC0002CB9B4FA84F4640974760120D8E7D8F870
:10AED00000106288284601F5805104F0B1FB054658
:10AEE0000028EED004225146204686F81890FFF73D
:10AEF000A9FF28B920463946FFF742FF0446DFE79D
:10AF00000020BDE75C3800207C380020ECFD030009
:10AF100038B5104CE36818784FF6FF7203F580518E
:10AF2000184404F08DFB88B1E36819780B4498420B
:10AF30000CD0657E0849094B0422002D08BF194634
:10AF4000FFF780FF20B90120207638BD0120FCE703
:10AF50000020FAE75C380020F4FD0300F0FD030058
:10AF600070B50C4D0C4EE96830680C780430224600
:10AF7000FFF768FF58B9336804F0FC0404341C443C
:10AF8000EB686C611A7813442B61012070BD0020BE
:10AF9000FCE700BF5C3800207C38002008B5054B7A
:10AFA000054918680422FFF74DFFB0FA80F0400908
:10AFB00008BD00BF7C3800206838002010B5074B62
:10AFC000074C1968E06840F6FC720431FFF73AFF5D
:10AFD00010B90120207610BD0020FCE77C3800204D
:10AFE0005C38002010B50C4CE1680846FFF75DFEA8
:10AFF00081420AD1094B0A4918680422FFF722FF4F
:10B0000040B901232376022010BD01F58051E16093
:10B010000320F9E70020F7E75C3800207C380020A7
:10B02000803800202DE9F74F324C236913B9784658
:10B03000FEF726F9636913B97846FEF721F9DFF8C0
:10B04000B89047F6FE6A6369D4E9030603EA090883
:10B05000A8EB0308FFF729FE7388013B9BB2534519
:10B0600008F5805800F5805B06D930465946FFF751
:10B0700087FE0646002835D0354600275D4519D2A3
:10B080002A8807EB8202904509D986EA050313EA6C
:10B09000090F04D16B88013B9BB2534502D957B9C4
:10B0A000012318E028460192FFF750FE019A054659
:10B0B0001746E3E7E7B13A4631466069FFF7C2FE5B
:10B0C00090B963691F44676115B97846FEF7D8F8EF
:10B0D0002561002335B1698847F6FF72914201D09E
:10B0E000002BB0D0012000E0002003B0BDE8F08FBD
:10B0F0000123EFE75C38002000F0FFFF1FB50A4B8B
:10B100000222DB688DF800200193084A4FF4805337
:10B1100069460120029300F057FEB0FA80F0400922
:10B1200005B05DF804FB00BF5C38002078380020D3
:10B130001FB540F6F8731B685A1C0CD1374B1A68C0
:10B14000013202D01A68002A54D14FF0805251695E
:10B1500013694B4303E0002BF7D0A3F58053304C29
:10B16000A3F5805323602F4B1B68DB0223D52E4BA6
:10B170001B68062B1FDD2F212C4814F0A5F9002891
:10B180003AD02F21294814F09FF9411C40F6F8725B
:10B19000274B1268D3F80435501C08BF1F4A20689B
:10B1A00008BF1268CDE90120224A009207204FF41F
:10B1B0001A7203F0F7F8236819684B1E03332BD873
:10B1C000C1F30B0343BB1C4A1C48D1600121117021
:10B1D0001B4913765376936051F82340844214D16F
:10B1E00053600120174900F0DFFDFFF777FD0120D4
:10B1F00004B010BD1B68B0E75C210C4814F064F982
:10B2000008B15C21BEE70949C0E701330A2BE3D14D
:10B210007846FEF735F8E4E70020E9E7141000105F
:10B220007C3800203C2E0020382E0020E8FB030054
:10B230000010014010FC03005C380020FDB002004B
:10B2400044FC0300A9AD020010B5044610B97846CD
:10B25000FEF716F8094B187860B1E068D9684379B1
:10B26000A0EB0333994206D3FFF71FFD81428CBF49
:10B270000020012010BD0020FCE700BF5C3800204A
:10B28000024B1878003018BF012070475C3800204E
:10B2900038B50E4C2378054613B17846FDF7F0FF1C
:10B2A0002B78032B02D07846FDF7EAFFEB68E360CA
:10B2B000012000230649A560636023762070637631
:10B2C00000F072FDBDE83840FFF708BD5C38002093
:10B2D000A9AD0200014B1868704700BF7C38002000
:10B2E00010B5044610B97846FDF7CAFF63681BB174
:10B2F00023680BB1A36813B97846FDF7C1FFA368B3
:10B300005A1E1A4202D07846FDF7BAFF0023C4E95C
:10B31000033310BD70B50E460446F0B18368F3B137
:10B32000EFF3108572B6D0E90331994203D105B924
:10B3300062B605250FE04EB18368013B0B40D0E9B2
:10B340000012304602FB031113F0E3FF23690133BF
:10B35000236135B962B6284670BD0E25FBE7092585
:10B36000F9E70025F7E70000024AD2F80034002B85
:10B37000FBD0704700E00140C0F30B0310B5E3B908
:10B38000E9B1104C0223C4F80435FFF7EDFF01F6D4
:10B39000FF7121F47F6121F00F010144884205D142
:10B3A0000020C4F80405FFF7DFFF10BDC4F808054E
:10B3B000FFF7DAFF00F58050F0E71020F5E70920ED
:10B3C000F3E700BF00E0014070B540EA010414F06B
:10B3D00003041BD1E2B195071AD10E4E0123C6F822
:10B3E00004359508FFF7C0FFAC4205D10020C6F830
:10B3F0000405FFF7B9FF70BD51F824305A1C03D083
:10B4000040F82430FFF7B0FF0134EDE71020F2E7F9
:10B410000920F0E700E0014041F2826398429DBFBD
:10B42000024B1878C0F3C000012070470B39002090
:10B4300013B50190000C01280C4602D07846FDF7A8
:10B440001FFF084A0849236813600B7843F0010383
:10B450000B7083F00203C3F340030020137102B0AA
:10B4600010BD00BF043900200B39002013B5019036
:10B47000000C02280C4602D07846FDF701FF084B6D
:10B4800022681A6022791A71064A00205871987150
:10B49000D871137843F00203137002B010BD00BFDF
:10B4A000FC3800200B39002007B50190000C032860
:10B4B00002D07846FDF7E4FE03480522002103B0E0
:10B4C0005DF804EB13F030BF0439002007B501909C
:10B4D000000C042802D07846FDF7D2FE034808226B
:10B4E000002103B05DF804EB13F01EBFFC38002010
:10B4F00013B50190000C03280C4602D07846FDF7E6
:10B50000BFFE04490522204602B0BDE8104013F0FA
:10B5100000BF00BF0439002013B50190000C0328C0
:10B520000C4602D07846FDF7ABFE052221460548C1
:10B5300013F0EFFE044A1378002043F00103137068
:10B5400002B010BD043900200B39002013B5019062
:10B55000000C04280C4602D07846FDF791FE044901
:10B560000822204602B0BDE8104013F0D2BE00BF52
:10B57000FC38002013B50190000C04280C4602D0C2
:10B580007846FDF77DFE08222146054813F0C1FEEE
:10B59000044A1378002043F00203137002B010BD78
:10B5A000FC3800200B39002000B50A4B1A7B9B6841
:10B5B0008DB0012A08BF03F1FF3303900CA8049358
:10B5C000022300F82C3D8DF80820FFF74DF90DB04F
:10B5D0005DF804FBB0380020074A1378590709D5F5
:10B5E0000178122906D10549086805496FF38203DD
:10B5F00048601370704700BF0B39002004390020E9
:10B60000B03800201FB50F490B785A0717D40E4ADF
:10B61000526802F50052B2F1807F02920FD80B4AB5
:10B6200043F0040312780B704FF4403002A98DF8F8
:10B630000C2004F0F9FF10B17846FDF721FE05B0AB
:10B640005DF804FB0B390020B03800200C390020D5
:10B650001FB5002303930C4B9A6802920B4A1B7B85
:10B660008DF80C3013780133DBB202A94FF480203F
:10B6700013708DF80F3004F0D7FF10B17846FDF746
:10B68000FFFD05B05DF804FBB03800200C39002048
:10B6900007B54FF4403005F025F84FF4802005F051
:10B6A00021F814220021064813F03EFE054B1A78BB
:10B6B0006FF345121A7003B05DF804EBFFF7A2BFF9
:10B6C000B03800200B39002010B50C4C142200219A
:10B6D000204613F029FE01F001F8094B094A0A49F6
:10B6E0009A600022C3E9031258605A61074B6260F6
:10B6F000197862F3C301197010BD00BFB038002083
:10B700008C38002069B80200008793030B390020B1
:10B7100037B5244D2B78DB062BD42348234B03600D
:10B7200000F080FD2248234B036000F07BFD2B7866
:10B7300013F020020ED103F00303032B1E4C1AD08A
:10B740002260A26022732282FFF782FF2368636077
:10B75000FFF758FF4FF4803004F0C4FF4FF400307F
:10B7600004F0C0FF154800F057FF2B7843F010039A
:10B770002B7003B030BD124B1A68A2601A79227385
:10B780009879597941EA00212182D9790D4B1970B4
:10B790000D4B1879884202D00AB92260D6E71B689F
:10B7A0002360D3E70B390020A438002005B902003C
:10B7B000F0380020D9B50200B03800208C380020C5
:10B7C000FC3800200C3900200439002010B501F0AD
:10B7D0008DFC0D4A137BA3B9947B94B9108AFFF7B3
:10B7E0001BFE70B1012313739368148201339360BD
:10B7F000FFF72EFF2046FFF7D7FE01F0B7FC2046EB
:10B8000010BD0824F9E700BFB038002010B501F0E2
:10B810006DFC144A547B9CB1917B09BB108AFFF7E5
:10B82000FBFD044660B1137B51732BB1012B0BD090
:10B830007846FDF725FD03E0FFF7C8FF0028F7D1A4
:10B8400001F094FC204610BD0846C2E900111173B6
:10B850001182FFF7A9FEFFF7FBFEFFF7D3FEEFE72C
:10B860000024EDE7B03800201FB5244C227B2AB11C
:10B87000012A0FD07846FDF703FD1CE0208AFFF770
:10B88000CBFDC0B1FFF7C2FF638A0BB1013B6382FE
:10B8900004B010BD218A0846FFF7BEFD58B142F240
:10B8A000B013994288BF6273FFF7B0FF0028EBD155
:10B8B000637B002BE8D1238A01339BB21E211846FB
:10B8C0002382B3FBF1F201FB12339BB2002BDBD1DD
:10B8D000A3680293237B8DF80C30094BADF80D0063
:10B8E0001B788DF80F3002A94FF4802004F09CFEE5
:10B8F0000028C9D07846FDF7C3FCC5E7B038002062
:10B900000C39002010B50378042B0ED143681B7846
:10B910005BB11D4B4269197B047E71BB598A01BB27
:10B92000012C996802D08A4203D810BD4C1CA24257
:10B9300019D92A318A42F8D8997B0029F5D184682F
:10B940009A60124A1A61C3E9001159731973FFF71B
:10B950007FFEFFF757FE04F11000BDE81040FFF72F
:10B9600023BE012CE1D1996801318A42DDD1012247
:10B970005A73BDE81040FFF749BF0129D5D1012C0A
:10B98000D3D09968F1E700BFB03800200000062D41
:10B9900038B5164CD4E900239A4205461FD2207BC5
:10B9A000134B1449012808BF0B469A4207D263681B
:10B9B0002268403B9A4208D3FFF724FE05E00123AA
:10B9C0006373FFF723FF0028F1D0EFF3108072B606
:10B9D00023685A1C22602B6028B962B638BDFFF775
:10B9E00011FE0F20FAE70020F8E700BFB038002072
:10B9F000FFFF7F0000E0FF0010B50C4A13681446FB
:10BA000028B101200A4903448873136010BD13B99B
:10BA10007846FDF735FC2368013B2360002BF5D108
:10BA2000034A9373BDE81040FFF7F0BE843800204E
:10BA3000B038002000B58DB00323ADF808000CA885
:10BA40008DF8102000F82C3D0391FEF70DFF0DB08E
:10BA50005DF804FB014B9868704700BFB0380020C8
:10BA6000034B98681B7B012B08BF00F1FF30704728
:10BA7000B0380020044B9B685840C20748BF03F110
:10BA8000FF331846704700BFB0380020014B187BC9
:10BA9000704700BFB038002038B50C4A137813F057
:10BAA000200411D10A4D43F0200313702973A860BC
:10BAB0002C82FFF7CDFD2046FFF776FDC5E9004457
:10BAC000FFF7A0FD204638BD0820FCE70B39002019
:10BAD000B03800202DE9F8431D4CDFF8789000269F
:10BAE0000221204602F05AFA5FFA86F8054600273E
:10BAF000ADB967B12946204602F0B7FA082806D149
:10BB000054F8043C1BB12A46494640469847013642
:10BB1000032E04F1BC04E3D10120BDE8F88354F8FE
:10BB2000043C34F80C2C13B129464046984734F8AD
:10BB30000C3C02210133204624F80C3C02F04AFA66
:10BB40000221204602F02AFA01370546D0E700BF5D
:10BB5000243900207CFC030038B5012104460C3058
:10BB600002F01CFA054620B3164BC4F89C300023A3
:10BB7000C4F8A03003786268012B07D0022B1AD0DA
:10BB80007846FDF77DFB4FF4FA7306E081688B1A67
:10BB9000990829234B4303F5FA730B4A934294BF48
:10BBA000C4F8A830C4F8A8200123C4F8AC4084F835
:10BBB000B830284638BD83689B1A1A0B034B534391
:10BBC000E9E700BFF1BB020060850100084C0100FD
:10BBD00010B50446FFF7C0FF48B104F19C0005F022
:10BBE000EDFF20B17846BDE81040FDF749BB10BD20
:10BBF0002DE9F74F4A4B1B7880460D463BB106F0C6
:10BC000013F8002385F8B83003B0BDE8F08F01F1D8
:10BC10000C09D1F8A8704846012102F0BFF9064688
:10BC200010B97846FDF72CFBDFF8FCA0A7F5FA77F2
:10BC300000244FF0290B3378012BA7EB040406D026
:10BC4000022B3BD07846FDF71BFB00231FE06B68FF
:10BC5000B268B4FBFBF4D21AA400944228BF144685
:10BC600024B901937846FDF70BFB019BF1687068DE
:10BC700023F00303224619441844FFF7A5FB10B133
:10BC80007846FDF7FDFA6B681C446C60B3686A681F
:10BC90009A422AD105F0C8FF4846012102F09AF9DC
:10BCA00000236B6085F8B8301E4B186801F0ACFAC1
:10BCB000284603B0BDE8F04FFFF78ABF6B68B26853
:10BCC000B4FBFAF4D21A2403944228BF144624B9D0
:10BCD00001937846FDF7D4FA019B706823F00303C3
:10BCE00021461844FFF748FBC9E701F0F3F8337821
:10BCF000B0EB080448BFA8EB0004012B0DD0022BC9
:10BD000006D153462344BB4295D905F08DFFCFE7BA
:10BD10007846FDF7B5FA0023F4E72923F2E700BFE0
:10BD20001439002010390020084C010070B51B4860
:10BD30001B4C01F04BFA1B4B186004F11C0341F241
:10BD400003060825636104F10C0004F11803236164
:10BD5000A681A57302F065F904F1D803C4F8D030C8
:10BD600004F1C80004F1D403C4F8CC30A4F8C860CE
:10BD700084F8CA5002F055F904F5CA73C4F88C313E
:10BD800004F5C873A4F8846184F88651C4F8883136
:10BD900004F5C270BDE8704002F043B9D5BA0200A4
:10BDA0001839002010390020022838B504460D4605
:10BDB00002D97846FDF764FA024BBC2202FB043438
:10BDC000A56038BD1839002002282DE9F84F074634
:10BDD0000C46924602D97846FDF752FA14B97846D5
:10BDE000FDF74EFA2378012B12D16368990702D030
:10BDF0007846FDF745FAE3689A0702D07846FDF7E2
:10BE00003FFAA3689B0711D07846FDF739FA0DE099
:10BE1000022B0DD16368C3F30B0313B17846FDF712
:10BE20002FFAA368C3F30B03002BEDD1A36813B95A
:10BE30007846FDF725FAEFF3108872B6BC257D43EE
:10BE4000224E05F10C09B1440021484602F0A6F843
:10BE5000834690B30021484602F0BCF810222146E8
:10BE6000584613F056FABAF1000F03D073195B88E5
:10BE7000AAF80030BC2303FB07677B8897F8B8401B
:10BE800001337B8004BB124B1F78BFB97019FFF7D9
:10BE900063FEB8F1000F0ED162B6444640B105F121
:10BEA0009C00304405F08AFE10B17846FDF7E8F9B1
:10BEB0002046BDE8F88F3C46F0E70424B8F1000FB7
:10BEC000F6D1A0460020E7E70024F7E71839002064
:10BED0001439002070B5EFF3108672B6144C236845
:10BEE00018BB13B97846FDF7CBF92368013B2360F3
:10BEF00093B9104D95F8B83013B92846FFF768FE8E
:10BF000095F8743113B90C48FFF762FE95F830329A
:10BF100013B90A48FFF75CFE2368094A003318BFCB
:10BF20000123137006B962B670BD01332360F3E7D5
:10BF30004C3B002018390020D4390020903A0020D2
:10BF40001439002010B1800B014B185C704700BF02
:10BF50008CFC030012DF704713B501F0B3FC0446FC
:10BF6000D8B1134B1B685B0617D5124B1B68012B0E
:10BF700013DD2F21104813F0A7FA80B12F210E48AE
:10BF800013F0A2FA411C0D4B0D4AD3F80435009270
:10BF900001946C22022002F005FA02B010BD5C216F
:10BFA000054813F091FA08B15C21E8E70249EAE795
:10BFB0003C2E0020382E0020B5FC0300001001406C
:10BFC000D1FC030070B58AB006F0E8FA04460028F8
:10BFD00034D000238DF8103006460FCE05AD0FC5C6
:10BFE00033682B60627D052A0CD9207D00F00F0399
:10BFF000072B07D004AB063A04F11D0100F00F0037
:10C0000005F060F9114B1A68AAB104AB0393237DC4
:10C01000C3F303038DF80430637D062B89BF063B11
:10C0200000238DF8053004F11D0398BF8DF805300D
:10C03000029301A89047204606F09AFA06F0C8FA43
:10C0400080F00100C0B20AB070BD00BF543B0020B8
:10C0500000B50A4B1A78032A8DB00CD104221A704D
:10C0600000212C2201A813F05FF91C2301A88DF8F0
:10C070000430FEF7F9FB0DB05DF804FB503B0020E7
:10C08000F7B52E4F3A780546002A4DD100284DD0FD
:10C09000067A0F2E01D0062E4AD105F0E3F8E868A3
:10C0A00000283ED0FDF7FEF80DF10700FFF752FF24
:10C0B000044698BB9DF80730012B3BD1FDF71CF9D6
:10C0C00000F094FA304600F0C3FFE87800F01AF967
:10C0D00000F0F6FD05F008FD194806F011FB05F02B
:10C0E00071FA05F0C5F8FFF721FE04F0E9F900F058
:10C0F0003FFC05F077F804F097FE284601F03AFB84
:10C10000FDF728FF03F086FDFCF7B8FF08B106280D
:10C1100012D10C4B00221A6001233B70204603B061
:10C12000F0BDFDF7C7F8BFE70824F7E70E24F5E7F1
:10C130000724F3E70224F1E70446EFE7503B002031
:10C14000C5BF0200543B002037B5244D2A78012A90
:10C1500005D002D3033A012A38D9082428E006F092
:10C16000E9F901F017FBFDF737FFFCF787FF0446FD
:10C1700050B3062828D01A4B1B685B0418D5194BFE
:10C180001B68012B14DD2F21174813F09DF990B186
:10C190002F21154813F098F9411C144B144AD3F879
:10C1A0000435009201944FF4AF72022002F0FAF8C5
:10C1B000204603B030BD5C210B4813F085F908B16F
:10C1C0005C21E6E70849E8E700F06EFF05F0E8FCCF
:10C1D00004460028ECD102232B70E9E7503B0020F5
:10C1E0003C2E0020382E0020B5FC0300001001403A
:10C1F00090FC030008B5084B1A78022A0AD10322E2
:10C2000006481A7005F092FC18B17846FDF738F828
:10C21000002008BD0820FCE7503B002051C0020070
:10C22000FDF7DCBEFEF74ABBFEF758BB08B500F0D1
:10C2300017FD002008BD07F0EFBA0000044B1A6894
:10C240000132B2F1704F08BF01221A6018687047BE
:10C25000583B002010B5044610B97846FDF710F899
:10C260000023C4E9003310BD38B50D46044610B9AB
:10C270007846FDF705F815B97846FDF701F8002373
:10C280006B60EFF3108372B6226822B92560656097
:10C2900003B962B638BD62685560F8E710B5044668
:10C2A00010B97846FCF7ECFFEFF3108272B6206805
:10C2B00008B143682360236803B9636002B962B6BA
:10C2C00010BD10B5044610B97846FCF7D9FF2068B8
:10C2D00010BD35DF7047000008B54FF0FF30FFF7A5
:10C2E000F8FFBFF34F8F0549054BCA6802F4E062BF
:10C2F0001343CB60BFF34F8F00BFFDE700ED00E0BD
:10C300000400FA0507289ABF024B33F81000FA2000
:10C31000704700BFFAFC0300024B5868103840B267
:10C32000704700BF00ED00E0084A202390FBF3F3C4
:10C3300052F82330424202F01F0200F01F0058BFA3
:10C34000504223FA00F000F00100704700E100E0E5
:10C3500046DF704730B501F110031032103013F88A
:10C36000014D12F8015D8B4284EA050400F8014D8D
:10C37000F5D130BD2DE9F047144690B002F10F051C
:10C38000102288462D1101460DEB0200994604F05B
:10C390000F0412F0BEFF002D51D0002C4FD101260A
:10C3A000B2461022002108A812F0BEFF04A8FFF731
:10C3B000CFFF01220DF13F0110AB13F9100D1F4605
:10C3C00093F800C04FEA4C0C5FFA8CFC83F800C075
:10C3D00013F801EF4CEADE1C994203F801CCEFD1CF
:10C3E0009DF83F305B00DBB20028B8BF83F08703C5
:10C3F0008DF83F30531C9A454FF00202DCD2013DCC
:10C4000008EB0511FEB10CAA6846FFF7A3FF102246
:10C4100000210CA812F088FF0024AC4225DB3A462C
:10C42000694608A8FFF796FF04A8FFF791FF1022BE
:10C430003946484612F06DFF10B0BDE8F08700267F
:10C440004FF0020AADE72246684612F062FF10ABD9
:10C450002344802203F8402C0134102C02D10CAA72
:10C460006946D1E70DF80460F6E708EB0412394697
:10C4700008A8FFF76FFF04A8FFF76AFF0134CCE7B5
:10C4800038B5124B1A6804462AB11A6845685268D2
:10C49000AA1A002A0DDA1A6862611C609A880132B1
:10C4A00092B29A8012B97846FCF7EAFE0123237013
:10C4B00038BD19684A691AB15068401B002802DB70
:10C4C00062614C61EAE71146F4E700BF603B00207F
:10C4D00010B5124B1A68824204461A460BD14269C3
:10C4E0001A609A8892B2511E89B299808AB97846A8
:10C4F000FCF7C6FE0DE01B685BB15969A1420BD188
:10C500006169596193889BB2591E89B29180002B51
:10C51000EDD00023237010BD0B46EDE7603B0020FB
:10C52000014B186800F070BE5C3B0020044B1A6899
:10C5300022B11B680349586800F05AB900F0AEB93F
:10C54000603B002021C502002DE9F04100F0C6F853
:10C55000254E054637464FF00008336823B133684F
:10C560005B685B1B642B06D400F0B8F8FFF7DEFFB6
:10C570000120BDE8F08134682378012B02D0784691
:10C58000FCF77EFE63693B60BB88C4F814809BB2F5
:10C590005A1E92B2BA8013B97846FCF771FEA368AE
:10C5A00013B97846FCF76CFE0223284623702169F4
:10C5B000A368984700F092F82378022B0546CCD167
:10C5C000E2680AB92270C8E763686FF06301891AEC
:10C5D0001344091AD018C14204D463602046FFF7FF
:10C5E0004FFFBAE70346F5E7603B002008B5082295
:10C5F0000021064812F098FE054800F0E7FD054BC3
:10C600001860BDE8084000F05CB800BF603B002047
:10C6100049C502005C3B002010B5044600F0CCFE8A
:10C6200010B97846FCF72CFE14B97846FCF728FEC2
:10C63000A36813B97846FCF723FE2378012B02D1B7
:10C640007846FCF71DFE002363612046FFF718FFC4
:10C6500000F044F8BDE81040FFF768BF10B504468D
:10C6600000F0AAFE10B97846FCF70AFE14B9784625
:10C67000FCF706FE2046FFF72BFF0023636100F066
:10C680002DF8BDE81040FFF751BF38B504460D4600
:10C6900000F092FE10B97846FCF7F2FD14B9784626
:10C6A000FCF7EEFD2046FFF713FF002363612046F1
:10C6B0006560FFF7E5FE00F011F8BDE83840FFF7D0
:10C6C00035BF08B50EF0D0FF38B90EF009FF20B124
:10C6D0007846BDE80840FCF7D3BD08BD10B5EFF3C0
:10C6E000108072B60C4A0D4B1968D2F80435D2F896
:10C6F0000441012C04BFD2F80435013100B962B6FF
:10C70000074843EA01614FF480420023E0FB012324
:10C71000D00B40EA434010BD00100140683B0020B0
:10C7200040420F0010B50A4B0A4C4FF40032C3F8D8
:10C730004823C3F80823226812B97846FCF7A0FD05
:10C740002468FFF7CBFF2346BDE81040184700BF21
:10C7500000100140743B002010B5EFF3108072B65A
:10C760001E4B1F490022C3F804210A6801320A60E7
:10C7700000B962B61B4A116809B31168013911602A
:10C780001268E2B9184AD3F804051168884217D232
:10C79000EFF3108072B6D3F8041514680131A1428A
:10C7A0002ABFD3F8042512680232C3F8442500B921
:10C7B00062B64FF40032C3F84423C3F8042310BD1B
:10C7C0000A4C226812B97846FCF75AFD2468FFF734
:10C7D00085FF2346BDE81040184700BF0010014008
:10C7E000683B00206C3B0020703B0020743B002025
:10C7F00037B50023044601930D4611B97846FCF77E
:10C800003FFD204B1D60FFF769FF031B002BB8BFE6
:10C81000241A1D481D4AA8BF00244FF400450021DA
:10C820000023E5FB040112F09DFBEFF3108301935D
:10C8300072B6174A174CD2F804350228C3F1FF111B
:10C8400001F57F4138BF02208142134910D30344D0
:10C85000C2F844354FF40033C2F84433C2F804330D
:10C86000002323600B60019B03B962B603B030BDA7
:10C8700003F17F43013303441A0E0132226023F097
:10C880007F43EFE7743B002020A1070040420F00E8
:10C89000001001406C3B0020703B0020074B4FF420
:10C8A0000032C3F84823C3F80823054A0023136065
:10C8B000044A1360044A1360704700BF001001402F
:10C8C0006C3B0020703B0020743B002030DF704741
:10C8D00031DF704710B5D0E900238468C168A2EB4E
:10C8E000731283EAF43303600C441344114444602C
:10C8F0008160C360184610BD37B50C46054610B9B7
:10C900007846FCF7BDFC00239C4201D803B030BD43
:10C910000DF10700FFF7DAFF9DF807100029F7D0A7
:10C92000E21A914288BF8DF80720E8189DF8071099
:10C93000FFF7CEFF9DF807201344E5E737B504461F
:10C9400002A8002340F8043D0421FFF7D5FF074B60
:10C950002360019BE360C4E9013314252046FFF7FF
:10C96000B9FF013DFAD103B030BD00BFED5EEAF181
:10C970007047000007B52648019003F0B3FE4FF45E
:10C980008173ADF80630019803F0ACFE4FF482736A
:10C99000ADF80630019803F0A5FE40F20113ADF8A2
:10C9A0000630019803F09EFE40F20313ADF8063006
:10C9B000019803F097FE40F20513ADF80630019898
:10C9C00003F090FE4FF48373ADF80630019803F046
:10C9D00089FE40F20713ADF80630019803F082FE9D
:10C9E0004FF40073ADF80630019803F07BFE4FF46E
:10C9F0000C73ADF80630019803F074FE4FF4047325
:10CA0000ADF80630019803B05DF804EB03F06ABEA0
:10CA10000300000148DF704749DF70474ADF704775
:10CA2000064A032313741168054B536140F6D8621C
:10CA3000914288BF43F2B0629A607047A43B0020E5
:10CA4000C43B0020054B1B68A0F1780228335843F3
:10CA5000034BB0FBF3F0101A704700BFC03B00203F
:10CA600040420F0038B50E4A0E4C01236371136823
:10CA7000002501331360257400F086FA05F04AF9A9
:10CA80002068FFF7DFFF084A0146284600F0F0F96A
:10CA900020B17846BDE83840FCF7F2BB38BD00BF96
:10CAA000D83B0020A43B002021CA020010B41F4B39
:10CAB0005A6928B11968DC6811440134DC601960D6
:10CAC000996801240131E24001291C7499605A617E
:10CAD0001C680ED002291AD05B69154A1C44944286
