:020000021000EC
:10C0000000FD0120D52A0300FD2A0300FF2A0300BA
:10C01000012B0300032B0300052B0300000000008D
:10C02000000000000000000000000000072B0300DB
:10C03000092B0300000000000B2B03000D2B030055
:10C040000F2B03000F2B03000F2B03000F2B0300FC
:10C050000F2B03000F2B030059D101000F2B0300FE
:10C060000F2B03000F2B0300856A02000F2B030028
:10C070000F2B03000F2B03000F2B03000F2B0300CC
:10C080000F2B030071010300A92302000F2B0300F3
:10C09000410203000F2B0300EDDD01000F2B030015
:10C0A0000F2B03000F2B03000F2B03000F2B03009C
:10C0B0000F2B03000F2B0300000000000000000006
:10C0C0000F2B03000F2B03000F2B03000F2B03007C
:10C0D0000F2B03000F2B03000F2B03000F2B03006C
:10C0E0000F2B030000000000000000000000000013
:10C0F000000000000F2B0300000000000F2B0300C6
:10C10000000000000000000000000000000000002F
:10C11000000000000000000000000000000000001F
:10C12000000000000000000000000000000000000F
:10C1300000000000000000000000000000000000FF
:10C1400000000000000000000000000000000000EF
:10C1500000000000000000000000000000000000DF
:10C1600000000000000000000000000000000000CF
:10C1700000000000000000000000000000000000BF
:10C1800000000000000000000000000000000000AF
:10C19000000000000000000000000000000000009F
:10C1A000000000000000000000000000000000008F
:10C1B000000000000000000000000000000000007F
:10C1C000000000000000000000000000000000006F
:10C1D000000000000000000000000000000000005F
:10C1E000000000000000000000000000000000004F
:10C1F000000000000000000000000000000000003F
:10C2000010B5054C237833B9044B13B10448AFF390
:10C2100000800123237010BD482000200000000092
:10C22000645C030008B5034B1BB103490348AFF33B
:10C23000008008BD000000004C200020645C03006A
:10C24000154B002B08BF134B9D46A3F5803A0021E8
:10C250008B460F461348144A121A18F03DF80F4B3C
:10C26000002B00D098470E4B002B00D098470020A1
:10C27000002104000D000D48002802D00C48AFF347
:10C28000008017F0DBFF2000290000F063FB17F0AF
:10C29000C1FF00BF0000080000FD012000000000F9
:10C2A0000000000048200020AC4B002000000000EF
:10C2B0000000000041DF704730B52D4B14461B686D
:10C2C000526887B00D4603F4804352B3F3B1294B53
:10C2D0001B68032B1ADD2F21274818F0CDF8B8B1C1
:10C2E0002F21254818F0C8F8411C244B6268D3F868
:10C2F0000435049262780392227802926A8801924D
:10C300001F4A00920420AD2207F046F807B030BD66
:10C310005C21194818F0B0F808B15C21E1E7164932
:10C32000E3E7002BF2D0134B1B68032BEEDD2F212C
:10C33000114818F0A1F890B12F210F4818F09CF87F
:10C34000411C0E4B2278D3F8043502926A88019280
:10C350000C4A00920420B22207F01EF8D6E75C21B6
:10C36000054818F089F808B15C21E6E70249E8E7DA
:10C370009C1F0020981F00209145030000100140E1
:10C38000BC4503000E460300012A07B531D009D38E
:10C39000022A56D03C4AA021032003B05DF804EBEA
:10C3A00016F0C3BB394B1B68590416D5384B1B68B4
:10C3B000032B12DD2F21344818F05EF880B12F21B5
:10C3C000314818F059F8411C324B334AD3F8043540
:10C3D00000929322042006F0DFFF03B05DF804FB17
:10C3E0005C21294818F048F808B15C21E8E72649A3
:10C3F000EAE7062232214FF4F03000F017FE234B1B
:10C400001B685A04E9D5224B1B68032BE5DD2F215D
:10C410001D4818F031F858B12F211B4818F02CF89E
:10C42000411C1C4B1D4AD3F8043500929822D1E7D9
:10C430005C21154818F020F808B15C21EDE712499D
:10C44000EFE7124B1B685B04C7D5114B1B68032B2E
:10C45000C3DD2F210C4818F00FF858B12F210A48DE
:10C4600018F00AF8411C0B4B0D4AD3F80435009222
:10C470009C22AFE75C21044817F0FEFF08B15C2165
:10C48000EDE70149EFE700BF914503009C1F002045
:10C49000981F0020001001402F4503004F45030066
:10C4A0006F45030070B5734E33685C0486B0054673
:10C4B00017D5714B1B68032B13DD2F216F4817F025
:10C4C000DBFFA0B12F216D4817F0D6FF411C6C4B4C
:10C4D0006C4AD3F8043500920195C822042006F076
:10C4E0005BFF032D0FD8DFE805F00B3B0B3B5C2116
:10C4F000624817F0C1FF08B15C21E4E75F49E6E755
:10C5000001238DF80C30604A13788DF80D30591CDA
:10C51000117064233221CDE904313368580419D5F0
:10C52000554B1B68032B15DD2F21544817F0A4FF32
:10C53000C0B12F21514817F09FFF411C504B9DF86F
:10C540000C20D3F804350192504A00920420E322D3
:10C5500006F022FF032D58D8DFE805F00D0D2A2A3A
:10C560000023CEE75C21454817F086FF08B15C2127
:10C57000E0E74249E2E7464C208811F009FD03A9B3
:10C58000204604AA0CF05CFE9DF80C1004460D2019
:10C5900000F036FD072C43D068D8002C35D0042C91
:10C5A00011D0364A40F21111204616F0BEFA2CE0A6
:10C5B00003A9022304AA37480CF092FE9DF80C1040
:10C5C00004460E20E4E733685A0418D52A4B1B684A
:10C5D000032B14DD2F21294817F04EFFB8B12F216E
:10C5E000264817F049FF411C254B2B4AD3F8043548
:10C5F0000092019540F20112042006F0CDFE0622C1
:10C6000032214FF4F03000F011FD06B070BD5C2116
:10C610001A4817F031FF08B15C21E1E71749E3E759
:10C6200033685B04F1D5144B1B68032BEDDD2F2120
:10C63000124817F021FF80B12F21104817F01CFF7E
:10C64000411C0F4B154AD3F804350092019540F276
:10C650000D12042006F0A0FED7E75C21074817F072
:10C660000BFF08B15C21E8E70449EAE7082CAAD0EF
:10C67000112C95E79C1F0020981F00209145030076
:10C680000010014037460300CD2000204A46030039
:10C690006420002098200020654603007C460300AB
:10C6A0003038032801D8FFF7FDBE704737B5274B58
:10C6B0001B685B0418D5264B1B68032B14DD2F2148
:10C6C000244817F0D9FE002835D02F21214817F033
:10C6D000D3FE411C204B214AD3F80435009204209C
:10C6E00040F2211206F058FE1D4C1E4D256300231A
:10C6F00001212046A36284F82C3084F82D300CF000
:10C7000073FD20B1134A4FF4957116F00EFA002311
:10C71000022115486566E36584F8603084F861306D
:10C720000CF062FD80B10B4A4FF4957103B0BDE887
:10C73000304016F0FAB95C21064817F09DFE08B1AA
:10C740005C21C3E70349C5E703B030BD9C1F00204F
:10C75000981F002091450300001001404A47030044
:10C7600064200020A84603009820002007B5037825
:10C770001C2B2ED1184B1B685B0416D5174B1B685E
:10C78000032B12DD2F21164817F076FEC0B12F21A2
:10C79000134817F071FE411C124B134AD3F80435AD
:10C7A00000920420B82206F0F7FD0322C8214FF4BE
:10C7B000F03000F03BFC03B05DF804EB00F078BA19
:10C7C0005C21074817F058FE08B15C21E0E70449F6
:10C7D000E2E703B05DF804FB9C1F0020981F0020D7
:10C7E0009145030000100140B446030010B5044613
:10C7F00000214FF4F03004EB840400F00DFC6200E3
:10C8000032214FF4C030BDE8104000F00FBC00F002
:10C810003FBC00001FB5304C2268520417D52F4B87
:10C820001B68032B13DD2F212D4817F025FE002850
:10C8300040D02F212A4817F01FFE411C294B2A4ABD
:10C84000D3F8043500920420702206F0A5FD00F014
:10C850004BFE00F071FE03A812F0BCFB23685B04E2
:10C8600019D51E4B1B68032B15DD2F211C4817F013
:10C8700003FE40B32F211A4817F0FEFD411C194B4F
:10C88000BDF80C20D3F804350192184A0092042018
:10C890007B2206F081FD00F0FBFB00214FF4F0301D
:10C8A00000F0BAFB0422C8214FF4F03000F0BEFBC8
:10C8B00004B010BD5C210A4817F0DEFD08B15C2110
:10C8C000B8E70749BAE75C21054817F0D5FD08B17C
:10C8D0005C21D0E70249D2E79C1F0020981F00206E
:10C8E00091450300001001406A470300844703009C
:10C8F00007B5134B1B685B0416D5124B1B68012B45
:10C9000012DD2F21104817F0B7FD80B12F210E48FE
:10C9100017F0B2FD411C0D4B0D4AD3F804350092BF
:10C920000220852206F038FD03B05DF804FB5C218F
:10C93000054817F0A1FD08B15C21E8E70249EAE7E4
:10C940009C1F0020981F002091450300001001400B
:10C950001045030000B55E4C5E4A8DB0042146F2DE
:10C96000010006F0FDFC2268520419D55A4B1B68E1
:10C97000032B15DD2F21594817F07EFD002800F00C
:10C980008F802F21554817F077FD411C544B554A95
:10C99000D3F804350092042040F2491206F0FCFC62
:10C9A00013F098FD20B14D4A40F24B1116F0BDF83E
:10C9B00000F07EFB4C4800F0A7FB20B1474A40F254
:10C9C0004F1116F0B2F800F075FD00F08DFD00F08B
:10C9D000B3FD0021202203A817F07EFC01238DF86F
:10C9E0000C3007238DF80F3006238DF814303F4BA1
:10C9F00007933F493F4B0B9303A800F01BF9E8B1A5
:10CA00000B285FD123685B0418D5334B1B68032BBD
:10CA100014DD2F21314817F02FFD002849D02F2198
:10CA20002E4817F029FD411C2D4B334AD3F804350D
:10CA30000092042040F23D1206F0AEFC64212F4823
:10CA400000F07EFA2A4B1B7883B92D4D0FCD03AC35
:10CA50000FC495E8030084E8030003A800F018FA67
:10CA600020B11E4A4FF4B67116F05FF801F03AFC9F
:10CA700000F0A2FB00F054F820B1184A40F2711106
:10CA800016F053F800214FF4F03000F0C5FA0222FE
:10CA9000C8214FF4F03000F0C9FAFFF70BFCFCE7B7
:10CAA0005C210E4817F0E8FC08B15C216AE70B49ED
:10CAB0006CE75C21094817F0DFFC08B15C21AFE7A7
:10CAC0000649B1E7054A4FF4A17116F02EF8B5E713
:10CAD0009C1F002035330200981F00209145030061
:10CAE00000100140CD460300A5C401006DC7010040
:10CAF000CC200020ADC60100FC460300A1C6010009
:10CB0000F844030010B5044607F08EF938B12378D5
:10CB10000E2B04D10020BDE8104004F0D7BB10BD9F
:10CB200008B513F0D3FA20B10BF0D2FE08B10BF028
:10CB300051FEBDE8084004F001BB000070B5837DE4
:10CB4000C27D86B043EA0223ADF8143004460323C5
:10CB500005A80E46ADF8163012F006FA0546002874
:10CB600045D104AA2146208A12F0E2FB054600289E
:10CB70003DD10DF112033246BDF81010E08A12F0DB
:10CB8000E9FD0546002832D1217ED4F8120001F0DB
:10CB9000010103F07BFF10B1784601F06BFBBDF89B
:10CBA00012000EF0CDFE054608BB174B1B681B0399
:10CBB0001DD5164B1B68062B19DD2F21144817F0C5
:10CBC0005BFCB8B12F21124817F056FC411C227EA5
:10CBD000104B02F00102D3F804350292D4F812206F
:10CBE00001920D4A00920720C62206F0D5FB284686
:10CBF00006B070BD5C21064817F03EFC08B15C2110
:10CC0000E1E70349E3E700BF9C1F0020981F0020D5
:10CC1000C647030000100140E547030008B504F0D3
:10CC2000A3FE10F093FA12F0E9F8BDE8084003F013
:10CC300029BD000073B50E460546A0B304F01AFAEC
:10CC4000044668BB12F07CF910F0C8FA28690EF0AF
:10CC500047FE044620BB2B7F0193AB69009301463E
:10CC60006B69124859220FF011F90446C0B92B6ABA
:10CC700003B1984708F06EFC12F05CF805460FF01F
:10CC8000D7FF0B2D01D00B2802D1FFF7C7FF0B24D4
:10CC900013F01CFA054608B10BF05AFD06B13570C9
:10CCA000204602B070BD0E24FAE700BFD02000205D
:10CCB00008B507F0B9F820B10020BDE8084004F03D
:10CCC00005BB0248BDE8084004F0A6BA601F00207A
:10CCD00030B5274D297885B019B1012803D0032834
:10CCE0003FD005B030BD04AC002344F8083D2146D8
:10CCF00000F030FF08B115F00BFF204600F08EFF6A
:10CD000008B115F005FF04A9012341F8043D0DF118
:10CD1000060012F0F1FC08B115F0FAFEBDF80600AD
:10CD200012F076FA0DF1050112F094FB08B115F03E
:10CD3000EFFE0BF00DFD9DF8051000200CF068F9DA
:10CD400010B1784601F096FA04F0F8F908B115F040
:10CD5000DFFE00232B70074B1B68002BC1D09847C8
:10CD6000BFE700F0C3FF0028BBD015F0D1FEB8E745
:10CD70002A2100202C21002008B503781C2B0CD17F
:10CD8000064B1B784BB100F0EDFF08B115F0C0FE6B
:10CD90000348BDE8084004F041BA08BD2A2100203C
:10CDA0006C1F002010B50749074814F017F8024619
:10CDB00038B90649064809690323BDE8104014F054
:10CDC00026B810BD44210020B02400202C210020D2
:10CDD0007C23002010B50378023B082B4AD8DFE8FB
:10CDE00003F01E051249493849493F00224B5B6850
:10CDF000002B3FD0007A00283CD0204A012111703E
:10CE0000BDE8104018471C4B9B68002B32D01B4AD2
:10CE1000117879B300211170BDE810401847184B04
:10CE20001A784AB9144BDB6813B114490A70984751
:10CE3000BDE81040FFF7B6BF124B134801221A702D
:10CE400004F0EAF904F0D0F9A0B1BDE8104015F003
:10CE50005FBE094B0D485969102214F01DF8F3E725
:10CE6000D0E90210FFF76AFE08B115F051FE044B3D
:10CE700001221A7010BD00BF2C21002028210020A3
:10CE8000292100202A2100206C1F00207C23002063
:10CE900070B51C4A1C4E5168044686B0106803AB3E
:10CEA00003C31189927A19809A700FCC35460FC549
:10CEB00094E8030085E80300736903B3134B009300
:10CEC000134A1449144803AB13F05AFFA8B9134886
:10CED00015F088FB0146104813F06CFF68B9104844
:10CEE00015F0F2FC48B90E4815F020FD01460A483D
:10CEF00013F060FF08B9FFF755FF06B070BD0720BB
:10CF0000FBE700BF054803002C210020D5CD010020
:10CF100044210020B02400207C2300206421002034
:10CF20002C23002010B5054C226832B115F02EFFDD
:10CF3000002802DB23689847F8E710BDF0240020A2
:10CF4000154B164A10B50C4618600121144813F011
:10CF50001BFB18B1134A4A2115F0E7FD610C0023B1
:10CF6000E00341F26F728B4208BF824210D24FF44D
:10CF70007A72002316F0CEFF014600220A4813F011
:10CF800015FB38B1074A4B21BDE8104015F0CDBD67
:10CF90000521F2E710BD00BFF024002025CF0100DD
:10CFA0001048030014480300F424002070B5104C0E
:10CFB000206808B915F0ACFD4FF0A0450D4ED5F82E
:10CFC000043532685340C5F804352368013B2360BB
:10CFD00063B9094813F032FB3268D5F8043523EA07
:10CFE0000203064A12681343C5F8043570BD00BF3A
:10CFF00014250020182500201C2500204425002091
:10D00000012303FA00F04FF0A04311B1C3F80C055F
:10D010007047C3F8080570474FF0A04311B1C3F83B
:10D020000C057047C3F8080570470000F8B52AB32F
:10D03000132923D9124B134D5200013A4FF0A0444B
:10D040001A602860D4F8043518400F4B4FF4FA7674
:10D05000186000274FF40040E0FB01674FF47A723C
:10D0600000233046394616F055FF00220146074896
:10D0700013F09CFA10B92B68C4F80C35F8BD00BF4A
:10D080001425002018250020442500201C25002000
:10D0900008B5054813F0D2FA044B1A684FF0A043C4
:10D0A000C3F8082508BD00BF1C2500201825002056
:10D0B00008B54FF0A04303224FF40051C3F83427C2
:10D0C000C3F808154FF48041C3F83827C3F8081592
:10D0D0004FF40041C3F83C27C3F80815C3F84027B4
:10D0E0004FF48032C3F808250121054A054813F0A2
:10D0F0004BFA18B1BDE8084015F00ABD08BD00BFE5
:10D10000ADCF010038480300D8B10F4B0F4A18606B
:10D110004FF0A0430020C3F82C27C3F83027C3F8F2
:10D120006027C3F864270A4B4FF00042C3F804237A
:10D13000C3F87C01074BC02283F8062340221A6003
:10D1400070470E20704700BF3C2500200C000300F4
:10D150000060004000E100E0124B70B50024124E68
:10D16000124DC3F87C414FF0A043A15DD3F81025C8
:10D1700001238B40934311D00D49D5F804250B684A
:10D18000981A48BFD01A43F23333984206D9D5F8DB
:10D1900004350B60074B20461B6898470134042C6C
:10D1A000E1D170BD006000403C4803000010014028
:10D1B000402500203C25002070B50446CEB0002854
:10D1C00064D03C4D2A6852042FD53B4B1B68032B7F
:10D1D0002BDD3A4B0DAE19680023E25C100902F01A
:10D1E0000F02085C06F81300885C06EB430201336B
:10D1F000102B5070F1D100232F21314886F82030B8
:10D2000017F03AF9002843D02F212D4817F034F9B0
:10D21000411C2C4B2C4AD3F8043501922B4A009226
:10D2200002964122042006F0B7F82B685B042DD546
:10D23000214B1B68032B29DD2F21214817F01CF9F6
:10D2400000282ED02F211E4817F016F9411C1D4B27
:10D25000E27BD3F804350B92A27B0A92627B09929F
:10D26000227B0892E27A0792A27A0692627A05926B
:10D27000227A0492E2880392A288029222680192A2
:10D28000134A00920420462206F086F84EB070BD84
:10D290005C210B4817F0F0F808B15C21B5E70849AC
:10D2A000B7E75C21064817F0E7F808B15C21CAE748
:10D2B0000349CCE79C1F0020981F0020A01F0020DE
:10D2C0004048030000100140684803007A4803000A
:10D2D0008248030072DF704773DF704774DF704766
:10D2E000F0B52F4CA3B005460E461746002110227C
:10D2F000204616F0F1FF2B482B4A03782B49C3EB4D
:10D30000431C62440133614403F00103A2601F2205
:10D3100003702160A280A28100213C2204A816F0A3
:10D32000DBFF062301AA8DF813300E9201233C2265
:10D33000002113A88DF80230ADF820308DF83C3074
:10D34000ADF80050CDF824D0ADF80450ADF8087019
:10D35000039616F0C1FF0223221D21688DF84C3080
:10D3600004A800F0CBF908B115F0D2FB104AA1686F
:10D3700013A800F0C3F908B115F0CAFB0D4A08491B
:10D380000D48FFF7A7FF082804D1002204490A48E6
:10D39000FFF7A0FF08B115F0BBFB23B0F0BD00BF45
:10D3A00088250020482500209825002049250020B8
:10D3B000942500207C1F0020781F0020B0F5202F2E
:10D3C0000AD20A23B0FBF3F310B1002B08BF0123EC
:10D3D000034A9381916070474FF6FF73F8E700BFEF
:10D3E0007C1F002008B5064B01211878FFF774FF59
:10D3F00008B115F08DFB0020BDE8084004F006BD23
:10D40000781F002008B5054B1878FFF767FF18B1A3
:10D41000BDE8084015F07CBB08BD00BF781F0020A8
:10D4200076DF70477ADF70477CDF704715F070BB9E
:10D4300003F0F6BE07B503784BB93B214088FFF7F0
:10D44000EFFF08B303B05DF804EB15F061BB012BEF
:10D450001AD1134B1B685B0416D5124B1B68032BA8
:10D4600012DD2F21104817F007F880B12F210E4848
:10D4700017F002F8411C0D4B0D4AD3F80435009209
:10D480000420682205F088FF03B05DF804FB5C21EE
:10D49000054816F0F1FF08B15C21E8E70249EAE728
:10D4A0009C1F0020981F0020D4480300001001405A
:10D4B0000449030013B500F019FC08B115F028FB6E
:10D4C00002AC002344F8043D0120214600F042FB59
:10D4D00008B115F01DFB204600F0A0FB08B115F0C7
:10D4E00017FB02B010BD00001FB504AC112310489B
:10D4F00004F80C3D16F0B8FF0D4982B22046FFF744
:10D5000093FF08B115F004FB08220DEB0200002187
:10D5100016F0E2FE074A4FF0C87302A8CDE90223D5
:10D52000FFF780FF08B115F0F3FA04B010BD00BF9B
:10D53000C24803007800C80010B58AB001AC0822C8
:10D540000021204616F0C8FE124A4FF0C873CDE9FC
:10D55000012300211C2203A816F0BEFE4FF48033E5
:10D5600040F6CD41CDE9041303238DF81830002394
:10D57000ADF81A308DF81C30074B089303A8074B01
:10D580000394099300F036FD08B115F0C1FA0AB012
:10D5900010BD00BF7800C80035D401002DD40100B3
:10D5A00070B5EFF3108672B60C4A946801239CB9EB
:10D5B00093600B4B0B4DD3F8801029401160C3F8DA
:10D5C0008050D3F8841051604FF0FF32C3F88420AC
:10D5D000047006B962B670BD0370FAE7004B002014
:10D5E00000E100E0FC06FFBD10B5084B9A685AB197
:10D5F00050B9EFF3108172B6054A1C6814605C687C
:10D600005460986001B962B610BD00BF004B0020A5
:10D6100000E100E06DDF704779DF70477DDF704724
:10D6200064DF70472DE9F74F0C9CBDF834B02788B4
:10D63000002580468A4691462E46B8F80020B24220
:10D640000BDC35B12288013AD21B92B2FF2A39D8BD
:10D65000DA55002003B0BDE8F08FD8F8042052F866
:10D660002600019000220DF1030101A8FFF7D8FF69
:10D670000028EFD19DF803204A4521D12288002DB2
:10D6800014BF0020022002EB09010144594519DCB6
:10D690003DB9013292B2228003F802A02288013201
:10D6A000228022880DF103011A4401A8FFF7B8FF78
:10D6B0000028CFD121889DF803200A44228001252B
:10D6C0000136BAE70C20C5E72DE9F341089CBDF807
:10D6D00024501746CDE9004502220646FFF7A2FF77
:10D6E00048B9102239463046CDE9084502B0BDE8B8
:10D6F000F041FFF797BF02B0BDE8F0812DE9F04F90
:10D7000000231688138090F82D3085B007460D460B
:10D71000144653B3082E01D80C2026E102A8FFF7C7
:10D7200079FF002840F0218113880822CA542388F9
:10D7300001339BB21B222380CA542088013080B25F
:10D74000208006220DF10901284416F0BAFD238835
:10D750009DF8082006339BB212F0FE0218BF01228A
:10D760002380EA54238801332380BB78FBB12388CC
:10D770000433B342D0D802A8FFF74EFF002840F090
:10D78000F48023880322EA54238801339BB21922B0
:10D790002380EA542388BDF8082001339BB2E9189E
:10D7A0002380EA54120A4A70238802332380FA78CD
:10D7B0009AB12388D91CB142AED80221E9542388FA
:10D7C00001339BB201212380E95423880B449BB28F
:10D7D0002380EA5423880B4423807A68AAB12388E3
:10D7E000D91CB14298D8022192F90020E95423882B
:10D7F00001339BB20A212380E954238801339BB271
:10D800002380EA542388013323803B89002B40F096
:10D81000A0803B8A5BB1CDE900462B46072203215D
:10D8200007F11000FFF750FF002840F09E803B8B6F
:10D830005BB1CDE900462B461522142107F11800F3
:10D84000FFF742FF002840F090803A6A002A40F03B
:10D850008F80D7F82480B8F1000F30D0B8F80430AA
:10D860002188981C8A1C0244B2423FF655AFFE281C
:10D870003FF652AF03336B54238801339BB2FF2230
:10D880002380EA54238801339BB22380B8F8002018
:10D89000EA54E918120A4A702088023080B22080C7
:10D8A000B8F804205AB1D8F8081000296AD02844E2
:10D8B00016F007FD2388B8F804201344238097F856
:10D8C0002C30002B40F09980387800284DD03B88D0
:10D8D000012B57D021888A1CB2423FF61DAF012888
:10D8E00005D17B7802330B449E42FFF415AF023E14
:10D8F000761A04A9B6B221F8086DA818FFF78EFEB3
:10D9000098BB3978BDF80820022900F0BB807B78ED
:10D91000934202D3B24240F2B380012940F0B48076
:10D920009BB29E42C0F0B080ADF808300821BDF82F
:10D930000830FE2B3FF6F0AE22880133AB5422882C
:10D94000013292B22280A9542288134423800020FD
:10D950000BE0CDE900462B460622022107F1080024
:10D96000FFF7B2FE00283FF454AF05B0BDE8F08FDA
:10D97000B4F800C00CF10603B3423FF6CDAE1188F7
:10D98000052901D80720F0E76FF4486E01EB0E037C
:10D990009BB24FF27D3E7345F4D95388052BF1D9E4
:10D9A0006FF44860181880B27045EBD94FF6FF70DD
:10D9B000814203D0834201D09942E3D8052305F880
:10D9C0000C30238801339BB212212380E954238831
:10D9D00001339BB223801188E954E818090A417089
:10D9E000238802339BB223805288EA54E918120A32
:10D9F0004A702388023323802BE7BB6A002BC1D0F7
:10DA00004FF000094FF00C0A4FF0160B97F82C302E
:10DA10005FFA89F293427FF657AFB96A0AFB02F2C6
:10DA200001EB0208B8F80430981CFE283FF674AEEB
:10DA3000208803332B54238801339BB2238005F8BD
:10DA400003B0238801339BB223808A5AEA54E91831
:10DA5000120A4A702088023080B22080B8F8042070
:10DA60005AB1D8F8081000298CD0284416F029FCA7
:10DA70002388B8F804201344238009F10109C5E77D
:10DA8000092154E7B242FBD9ADF808604EE70160C6
:10DA90000B6843604A68934204BF002343607047A9
:10DAA000436843B1026891680B44436052689342F3
:10DAB00004BF0023436070474BDF70471FB50D4C18
:10DAC00001A8FFF7F9FF70B9214602A8FFF7DFFFB1
:10DAD000039B002BF4D00198D3E90021904702A8C2
:10DAE000FFF7DEFFF4E7052801D015F011F804B0C8
:10DAF00010BD00BF3049030060DF704769DF704729
:10DB000061DF704730B5114B1B78A9B0E3B1104D00
:10DB100094240DF1020103A8ADF80240FFF7F0FFD5
:10DB200070B9294601A8FFF7B2FF029B002BF0D085
:10DB300003A8D3E90021904701A8FFF7B1FFF4E75C
:10DB4000052801D014F0E4FF29B030BDD62500200F
:10DB50003C4903007FB505460C4600295AD02E4BA0
:10DB60000B600C22002101A816F0B6FB012606234B
:10DB70002268ADF8083001A920208DF804508DF8F6
:10DB80000660FFF7BBFF0C22002101A816F0A4FBE2
:10DB900022688DF8056001A94020FFF7AFFF0C2235
:10DBA000002101A816F098FB45232268ADF8063045
:10DBB00001A923208DF80450FFF7A0FF0C220021BB
:10DBC00001A816F089FB002522688DF8045001A9F0
:10DBD0003046FFF793FF0C22294601A816F07CFB84
:10DBE0004FF4B0632268019301A9A120FFF786FFDB
:10DBF0000C22294601A816F06FFB9DF8043022681C
:10DC0000334301A9A0208DF80430FFF777FF2846A1
:10DC100004B070BD0E20FBE7601F002008B5FFF7C1
:10DC20006BFF10B9014B01221A7008BDD6250020E8
:10DC300010DF704711DF704713B504460949684685
:10DC4000FFF725FF019808B902B010BDD0E90031F7
:10DC50002046984718B16846FFF722FFF2E71120E7
:10DC6000F2E700BF4C49030013B504460749684674
:10DC7000FFF70DFF019B0BB902B010BD2046D3E9A1
:10DC8000002190476846FFF70BFFF3E76449030064
:10DC9000064B9A6822B11A6822F480021A60704713
:10DCA000034B4FF48002C3F880207047004B0020E4
:10DCB00000E100E00B4991F816335A09EC231341B7
:10DCC000DB0706D5084B9A683AB94FF480030B601E
:10DCD000704742F2020014F01BBF1A6842F480023F
:10DCE0001A60704700E100E0004B0020F7B5184FC4
:10DCF0003C785CBB174E012520463570FFF79CFF32
:10DD0000112820D02046FFF7AFFF134B1868019071
:10DD100002A800F8054DFFF743FC104901A8FFF7E2
:10DD200087FF0446B0FA80F0400938709DF8030080
:10DD3000FFF75AFC3CB90A4B34701C70FFF7BAFF6E
:10DD40002846FFF791FF204603B0F0BD0824FAE70C
:10DD5000D8250020D72500204849030075E00100A0
:10DD6000D9250020F7B5154F3B7813B3144E012089
:10DD70003070FFF761FF11284FF000051BD0022023
:10DD8000FFF772FF02A800F8015DFFF709FCFFF73B
:10DD900051FF04469DF807003D70FFF725FC2CB9A4
:10DDA0003470FFF775FF0320FFF75EFF204603B0D6
:10DDB000F0BD0824FAE72C46F8E700BFD82500207C
:10DDC000D725002007B508496846FFF760FE019B8C
:10DDD00013B903B05DF804FBD3E90020904768460F
:10DDE000FFF75EFEF3E700BF58490300FFF7EABF05
:10DDF00075DF704776DF70477ADF70477BDF7047EB
:10DE0000034B1A8882420CBF18460020704700BF9F
:10DE1000F8250020024B9B6903B11847704700BFEB
:10DE2000DC25002037B585B22846FFF7E9FF034619
:10DE300070B1164C017A227B91420BD200F10A019B
:10DE40002846FFF7D5FFE8B1112801D0FFF7E2FF20
:10DE500003B030BD237C0022027243B13B2128462F
:10DE6000FFF7C8FF30F0080301D0FFF7D3FF636965
:10DE7000002BEDD000228DF80420ADF8065001A84B
:10DE80009847E5E71A7A01321A72E1E7DC250020AB
:10DE900013B50B46497A0F4C024669B9D4E9011013
:10DEA0001C7A002C18BF0146586812F07FFB08B19D
:10DEB000FFF7B0FF02B010BD002119726369002B9B
:10DEC000F8D00121ADF806008DF8041001A898479C
:10DED000F0E700BFDC25002030B583880588B3F566
:10DEE000FA7F24BF6FF4F9729C184A8838BF002467
:10DEF00095420CD84088904209D38A88A24206D322
:10DF000003F2F310904234BF0020012030BD002006
:10DF1000FCE7000070B50388112B014648D002D8F9
:10DF2000102B1ED070BD122B52D0502BFAD12F4B7C
:10DF3000C288DB899A42F5D1038A022BF2D1868806
:10DF40003046FFF75DFF05460028EBD001F11200D7
:10DF500000F08AF830BB686812F070FB0028E1D04E
:10DF600009E0C37B012BDDD14FF6FF70FFF748FFBF
:10DF7000054620B90420BDE87040FFF74BBF8E88EE
:10DF80001B4A0680002303721368C5F80A300A3062
:10DF9000536843601031FFF79FFF144B6872DB89B1
:10DFA000002BBFD129463046BDE87040FFF770BF57
:10DFB0008088FFF725FF04460028B3D0406812F0A0
:10DFC0003DFB08B1FFF726FF4FF6FF732380A9E75B
:10DFD00086883046FFF714FF05460028A2D0083196
:10DFE0000A30FFF779FF6872DCE700BFDC2500200C
:10DFF0000C260020F8B5064650B305460FCD154F48
:10E000003C460FC495E8070084E807003068124BCF
:10E010003B60B8B1FFF7F0FEC8B931680A681A6012
:10E020004A685A600D480E4A4FF6FF7303800D4B45
:10E0300040F8043F002112F0A7FA002814BF032083
:10E04000002004E01846FFF7D9FE0028EAD0F8BD0A
:10E050000E20FCE7DC2500200C260020F8250020FF
:10E0600025DE010014260020007800F00100704732
:10E070000620704730B5754B14461B6841F201020B
:10E08000904287B00D4603F480437ED01ED801280D
:10E0900045D0002B5DD06E4B1B68002B59DD2F2126
:10E0A0006C4816F0E9F9002800F0C4802F21694877
:10E0B00016F0E2F9411C684B684AD3F80435009227
:10E0C00001957B22012005F067F942E044F201024C
:10E0D000904200F0858044F202029042D9D1002B98
:10E0E00037D05B4B1B68002B33DD2F21594816F0CE
:10E0F000C3F900286BD02F21564816F0BDF9411CFA
:10E10000554B2288D3F8043503926268CDE9015259
:10E11000534A009201206C2205F03EF919E0C3B188
:10E120004B4B1B68002B14DD2F214A4816F0A4F935
:10E1300010B32F21474816F09FF9411C464B494A1E
:10E14000D3F804350092CDE901546022012005F096
:10E1500023F94FF0A0434FF4F032C3F81825C3F869
:10E160000C25EFF3108372B64DF6AD6C3E4A137872
:10E17000002B68D107B030BD5C21364816F07CF921
:10E1800008B15C21D6E73349D8E7002BE1D0304B0A
:10E190001B68002BDDDD2F212E4816F06DF968B1CC
:10E1A0002F212C4816F068F9411C2B4B2F4AD3F82D
:10E1B00004350092CDE901546322C7E75C2125486C
:10E1C00016F05AF908B15C21EBE72249EDE75C2132
:10E1D000204816F051F908B15C218DE71D498FE701
:10E1E000002BB6D01A4B1B68002BB2DD2F2119482B
:10E1F00016F042F9A8B12F21164816F03DF9411C3E
:10E20000154B2268D3F8043504926268CDE90252B6
:10E21000A2680192164A00920120772205F0BCF80C
:10E2200097E75C210B4816F027F908B15C21E3E77A
:10E230000849E5E75C21074816F01EF908B15C21A2
:10E2400035E7044937E730BF91E700BF9C1F002046
:10E25000981F00207049030000100140144A030079
:10E26000D449030098490300941F0020B2490300D9
:10E27000F349030007B50023ADF800300146054B14
:10E2800001936A4644F20200FFF7F4FE03B05DF822
:10E2900004FB00BFAF54030001461022014816F0F2
:10E2A00010B800BF3426002010B50B4C0B490822D3
:10E2B000204616F006F80822A018094916F001F8C1
:10E2C000E379042262F30713E371237A022262F3F3
:10E2D0008713237210BD00BF342600206000001099
:10E2E000A40000100048704734260020064B00228E
:10E2F00003F580715A805A6003F8082B8B42F9D1DC
:10E30000024B1A60704700BF4426002044270020BB
:10E31000F0B50C4B0C4C1B68064620227BB1013B30
:10E3200014F8330050B104EBC3056F88B74202D133
:10E330006D688D4202D0013AF0D11046F0BD1F2326
:10E34000EEE700BF442700204426002030B5084AED
:10E35000084C136804EBC3056960012104F833100D
:10E360000B44202B08BF00236880136030BD00BF22
:10E370004427002044260020C0F30C038B420844AD
:10E3800038BFA0F50050C01A70470000F0B50D4B23
:10E390000D4A1E6800218E4212D0156800230AE043
:10E3A00052F8044C04EBC30714F83340844201D103
:10E3B0007868F0BD01339D42F2D101310832EAE7BD
:10E3C0000020F6E7CC270020D427002000B58DB030
:10E3D00048B9991C07D0012101A88DF80410CDE996
:10E3E000023201F03BFA034B186803F007FF0DB04F
:10E3F0005DF804FBD827002010B50378044613B954
:10E400007846FFF737FF607A431C012098400138B7
:10E4100010BD2DE9F0410E468EB015461C4607464C
:10E4200010B97846FFF726FF16B97846FFF722FFA6
:10E43000636AA27802330593E378A2F10800002B07
:10E4400014BF012102210DF104084242424143461A
:10E4500004F10C0004F005F8A3788DF83430237B28
:10E46000ADF82050022B16FA85F5CDE906870B96FC
:10E470000C950FD1236913B97846FFF7FBFE23698A
:10E480000993102305A8ADF8283003F0E6FF0EB07D
:10E49000BDE8F0810023F5E7B2F5C07F2DE9F04734
:10E4A00081468846174602D97846FFF7E3FE244B9B
:10E4B000002570229A4602FB053494F8486046B95C
:10E4C000384607F0CAFEE06638B900242046BDE8A9
:10E4D000F0870135042DEED1F7E73022494620467A
:10E4E00015F0EFFEB8F1010FE664A4F84A701DD1F3
:10E4F000144B84F852601B7D84F8513084F85360CB
:10E5000084F85060D9F8283063656FF00103A36286
:10E510000D4BA4F85860A3632464012002F066FA4E
:10E52000702303FB05A585F84880CFE76FF0010352
:10E53000A362064BA36584F868602466044BEAE78F
:10E54000F4270020DC27002049EA010099F20100AD
:10E5500041EA010010B50446C06E07F080FE04F1E8
:10E56000300003F075F894F84830022B03D104F121
:10E57000500003F06DF820467022002115F0ACFE2B
:10E58000002084F84800BDE8104002F02FBA10B512
:10E5900090F84830012B8CB0044602D07846FFF743
:10E5A00069FE01238DF8043001A8636D029301F028
:10E5B00055F92046FFF7CEFF0CB010BD037BD3B159
:10E5C00090F91620002A18DBC27D5AB1022B12D016
:10E5D00090F90330002B10DB8378002B0CBF002058
:10E5E00007207047C2780AB9012B06D1037833B9E6
:10E5F0008378042BF2E71020704707207047002033
:10E60000704700001FB500220B468DF80F2028B37D
:10E610000230086018460DF10F0103F020FF9DF84D
:10E620000F30DBB1144B1B685B0717D5134B1B680E
:10E63000032B13DD2F21124815F01EFF98B12F2157
:10E640000F4815F019FF411C0E4B0F4AD3F8043543
:10E650000092042040F2064204F09EFE9DF80F0056
:10E6600005B05DF804FB5C21054815F005FF08B115
:10E670005C21E5E70249E7E79C1F0020981F002086
:10E68000814A0300001001409E4A030070B5044611
:10E690008CB02378808AD4E90612E3B1E38805F0D0
:10E6A00019FE0546A0B12C22002101A8A68AE46922
:10E6B00015F012FE0F238DF804304FF0000364F3C1
:10E6C000000301A8ADF808608DF80A3001F0C6F823
:10E6D00028460CB070BD05F0F9FDE2E72DE9F04FDA
:10E6E00099461378D2F81880F3B007468A46144644
:10E6F00023B1D1884046FFF73FFE9061E378A278CE
:10E70000002BA2F1080003AD14BF0121022104F186
:10E710000C0642422B464241304603F0A2FEA2784C
:10E72000C4F81880CDE908571FFA8AF5AB1A9BB2D6
:10E730001F44ADF82830E3780E974FF0000812AF71
:10E740000D978DF83C20ADF83080002B65D04FF050
:10E75000100B04F1240A237BC4F82480022B02BF8F
:10E760002369ADF830B00B93206A2179524611F03D
:10E770001FFB606A30BB237B022B05D13146E08949
:10E7800011F0D8FB0028E6D1374B1B685B0741D559
:10E79000364B1B68052B3DDD2F21354815F06CFEEF
:10E7A000002858D02F21324815F066FE411C314B0D
:10E7B000314AD3F804350092062040F2F26204F0A8
:10E7C000EBFD27E007A9FFF71DFF0028CCD020466E
:10E7D000FFF75CFFF0B9A2780B908DF81C0096E86B
:10E7E0000300A38AADF82A30AD1A0CAB01228DF8D4
:10E7F000282083E80300A37D8DF84030236A0E9320
:10E8000007A8636A0897ADF824500F93CDF8449099
:10E8100001F024F873B0BDE8F08F227B012AB3D158
:10E82000A046E089B4F814A048F8243F414611F00E
:10E8300005FB07A9606AFFF7E5FE0028C7D1606203
:10E840004146504611F0FAFA07A9606AFFF7DAFE6E
:10E85000002899D0BBE75C21054815F00DFE08B1F2
:10E860005C21A0E70249A2E79C1F0020981F00201E
:10E87000814A0300001001406F4B0300C37D0A78FA
:10E8800030B5002B3DD0C37822F07F0203F07F0328
:10E890001A430A700B78027803F07F0343EAC2132D
:10E8A0000B70037863B38378083B5A425A414B7824
:10E8B00003F07F0343EAC2134B708A78C58802F0E5
:10E8C0000302C5F3861442EA850223F07F03234343
:10E8D000D2B28A704B70CB78057A03F01F03C5F370
:10E8E000C10422F0030243EA45132243DBB2CB709A
:10E8F0008A70427A23F01F0302F01F021343CB7089
:10E9000030BDC47822F0400343EA8413DBB20B70BD
:10E91000027923F03F0302F03F0213430B70B9E783
:10E9200038B590F84830012B044602D07846FFF7FE
:10E93000A1FC02F0CDFE237B074A012B05BFD2E9E3
:10E940000315A37DD16805FB0311014404F13000D8
:10E95000BDE8384002F093BEDC270020F0B50D463C
:10E9600091B0044610B97846FFF784FC94F848301B
:10E97000022B19D1E188A069FFF7FEFCE1690A06C4
:10E980001618284A4FEA112343F10007136830464E
:10E990005E1C166003F00703234A1B013946D61894
:10E9A000A78AD752C6E902012C22002105A8666D6C
:10E9B00015F092FC102305A88DF8143006968DF8FA
:10E9C0001C5000F04BFF2046FFF7C4FD174B1B689F
:10E9D0005B071BD5164B1B68032B17DD2F21154832
:10E9E00015F04AFDA0B12F21124815F045FD411C3C
:10E9F000114BD3F80435029594F8482001920F4A40
:10EA0000009204204FF4FA7204F0C6FC11B0F0BD7D
:10EA10005C21084815F030FD08B15C21E4E70549A8
:10EA2000E6E700BFC8270020482700209C1F0020E1
:10EA3000981F0020814A030000100140504A030043
:10EA400008460021FFF78ABF10B591F84830012B26
:10EA50000C4602D07846FFF70DFC94F851305BB1BC
:10EA6000013B84F85130002384F85030084BBDE856
:10EA70001040186803F0C2BB217B0129204603D156
:10EA8000BDE81040FFF76ABFBDE81040FFF77FBD4B
:10EA9000D82700202DE9F04F044689B00F4609B170
:10EAA00000230B6004F10C0394F8505001934FF0D5
:10EAB00001084FF0000B627AAA4203D2002009B08D
:10EAC000BDE8F08FE16C08FA05F30B4259D1E37D04
:10EAD0002572002B0CBF0C260826954206FB05FA72
:10EAE000237808BFB4F84A608DF818B008BFA6EBC9
:10EAF0000A06002B14BF4FF004094FF0010906EB82
:10EB000009030493019B0293A36A039302A8E36A97
:10EB1000059303F040FE0028D1D1079B994445B9E5
:10EB200094F853302BB9A36984F85380C3F30C03D2
:10EB3000E380E37D8BB994F8523073B915B1784610
:10EB4000FFF798FBB4F84A10A2788A1AE16E2346C0
:10EB50000846FFF75EFC84F8528007992046FFF7CD
:10EB60008DFEE16E32465144484615F0AAFB02A8DC
:10EB700003F032FE17B13B6801333B606B1C84F835
:10EB800050300135EDB296E72DE9F04307468FB0DE
:10EB90001046884615469946FFF778FD044600283A
:10EBA00060D1EE78002E40F0AE80B8F1060F59D15A
:10EBB00038787A78DFF8A8C1830103F4FE5343EA7A
:10EBC0009203D7F802204FF0700812BA674608FB8C
:10EBD00004C696F84810012925D1B6F814E0E98951
:10EBE0008E4520D1F18899421DD1B6F858E0A98A06
:10EBF000BEF1000F01D08E4515D110F0800F4FF0FF
:10EC000070033BD003FB0473A3F85810702303FB7D
:10EC10000474E56C1543E564002A61D10321304694
:10EC2000FFF79CFE1EE00134042CD0D1464B1B683C
:10EC30005B0717D5454B1B68012B13DD2F2144487B
:10EC400015F01AFC88B12F21414815F015FC411C24
:10EC5000404B414AD3F80435009202204FF4CD6274
:10EC600004F09AFB0FB0BDE8F0835C21384815F042
:10EC700003FC08B15C21E7E73549E9E703FB0473CE
:10EC8000DB898B42C2D0304B1B685A07EAD52F4B29
:10EC90001B68012BE6DD2F212D4815F0EDFBB0B1EF
:10ECA0002F212B4815F0E8FB411C2A4BAA8AD3F8E8
:10ECB00004350292702202FB04740220E289019260
:10ECC000264A00924FF4CE6204F066FBCAE75C214C
:10ECD0001F4815F0D1FB08B15C21E2E71C49E4E7CD
:10ECE0003046FFF789FB854203D13046FFF74FFCE2
:10ECF000B8E7002184F850103046FFF7CBFE3046CD
:10ED0000FFF70EFEAEE73046FFF740FB0346002854
:10ED1000A8D005F10C012A6A0B9203C9AA8AADF8A2
:10ED2000222009AA82E80300AA7D8DF830202A78E3
:10ED30008DF82020EA6A8DF81460CDE906780D92EE
:10ED4000494605A898478DE79C1F0020981F002082
:10ED5000814A030000100140B14A0300DF4A03006A
:10ED6000F4270020F0B5C37D15468278002B2A4495
:10ED700014BF4FF480734FF4C0739342C7B00E4674
:10ED800079D3404C0023E11891F84870012F08D145
:10ED9000B1F814C0878ABC4503D1CF89C1898F429D
:10EDA0006BD07033B3F5E07FEDD10121FFF774FB39
:10EDB0000446002863D02A463146C06E15F081FA19
:10EDC000002304A920460493FFF764FE30F00405F5
:10EDD00006464BD1049B13B12046FFF7A1FD2A4BF9
:10EDE0001B685B0728D5294B1B68032B24DDB4F86F
:10EDF0004A10274B8029186828BF8021002305AEC0
:10EE00008B421CD100222F21224806F8132015F036
:10EE100033FB10B32F211F4815F02EFB411C1E4B56
:10EE20001E4AD3F8043501921D4A0092029640F220
:10EE30005552042004F0B0FA284647B0F0BDE26E07
:10EE4000D25C170902F00F02C75D06F81370875CE9
:10EE500006EB430201335770D2E75C210D4815F0F1
:10EE60000BFB08B15C21D6E70A49D8E72046FFF73B
:10EE700071FB3546E0E70925DEE70825DCE70425D8
:10EE8000DAE700BFF42700209C1F0020981F002015
:10EE9000A01F0020814A030000100140734A0300B4
:10EEA0007A4803002DE9F041044686B0808A0F4677
:10EEB000164602F041F8012844D12046FFF77EFBB8
:10EEC000054638B923784BB1324639462046FFF71C
:10EED00049FF0546284606B0BDE8F081E27DA378EB
:10EEE000002A334414BF0B220F22934228D8013347
:10EEF000029304F10C030093A36A01938DF81000B0
:10EF0000E36A0393684603F046FC05460028E1D116
:10EF10000599204601F10108FFF7B0FCE37D43B1FC
:10EF200032463946404615F0CCF9684603F054FCA9
:10EF3000D0E72346324641463846FFF76AFAF4E7FF
:10EF40000925C7E71025C5E710B54FF4E072002189
:10EF5000134815F0C1F9002405F09EFA114B124830
:10EF60001C602146802215F0B7F9104B1049114A58
:10EF700011489C75C3E9001210494CF25032C3E9A4
:10EF800002211A6140F604029A8203F019F90C4B2F
:10EF900018600C4B0C481C60BDE8104005F086BBA7
:10EFA000F4270020C827002048270020DC27002065
:10EFB00080969800F049020091F7010020A1070017
:10EFC000D8270020CC270020CDE3010005F076B93A
:10EFD00030B504468DB0002860D00369002B5DD0A9
:10EFE000C369002B5AD08569002D57D05A788DF807
:10EFF00004201A780993838A82F001020B2B8DF882
:10F000000320027B3AD90121022A8DF8001001D198
:10F01000234A927D002A3BD1042213448DF802201A
:10F020000B330C2293FBF2F3013B8DF809300023E4
:10F030008DF8083094E8030000238DF8173003ABF7
:10F0400083E803002389ADF81430A37A8DF81630D5
:10F05000236A0A932046DF2308950B9311F012F8D8
:10F0600028B12378012B0CBF2023FF230B93A28A06
:10F0700021696846FFF716FF0DB030BDC17A00293F
:10F08000C1D1012A0CBF012200228DF8002001D13C
:10F090000822C2E704238DF80230CBE70E20EBE70D
:10F0A000DC27002070B50E4690B00446002862D0E0
:10F0B0004368002B5FD08569002D5CD003788DF804
:10F0C000133000230D9383680B2B94BF027B012226
:10F0D00002F001018DF8101000218DF8121032B1EC
:10F0E0000733DB08013B8DF819308DF8181004F157
:10F0F000100292E8030001238DF8273007AB83E864
:10F100000300E389ADF82430237F8DF82630236A8D
:10F110000C95CDE90E63194B1B685B071BD5184B8B
:10F120001B68062B17DD2F21164815F0A5F9C8B16D
:10F130002F21144815F0A0F9411C134BA269D3F8F4
:10F140000435029222780192104A0092072040F280
:10F15000F57204F021F9D4E9011204A8FFF7A2FE28
:10F1600010B070BD5C21074815F086F908B15C212C
:10F17000DFE70449E1E70E20F2E700BF9C1F002013
:10F18000981F0020814A030000100140204B03001B
:10F1900070B5037B012B8EB004460D466DD1384B04
:10F1A0001B68980518D5374B1B68032B14DD2F21DE
:10F1B000354815F061F9002853D02F21324815F059
:10F1C0005BF9411C314B324AD3F8043500920420DC
:10F1D00040F2622204F0E0F802AE0B220021304639
:10F1E00015F07AF89DF80920E3888DF80D5002F0AB
:10F1F000030242EA83028DF809202A0E8DF80A20C4
:10F200002A0C8DF80B202A0A8DF80C2062780696BD
:10F21000911E4A424A41C3F3861343EAC2138DF852
:10F2200008300623079301238DF82430A38AADF814
:10F23000263000230A938DF814308DF82030E389AE
:10F24000ADF82230E36A0D93A37D226A0B928BB94D
:10F250006FF0010105A88DF83030FFF723FF0EB0E5
:10F2600070BD5C21084815F007F908B15C21A5E7DD
:10F270000549A7E7074B5B7DEAE70020EFE700BF02
:10F280009C1F0020981F0020814A030000100140AD
:10F29000404A0300DC27002010B591F84830022BCB
:10F2A0000C4602D07846FEF7E5FF022384F868306A
:10F2B00094F84830022B06D1E16C2046FFF768FF36
:10F2C00008B984F8680010BD2DE9F04F0D469FB0D5
:10F2D000144698460646002800F04C82002A00F0AA
:10F2E000498221B9092738461FB0BDE8F08F18229E
:10F2F000214615A814F0E5FF3378002059B2CA0F53
:10F3000081428DF84820ACBF0122042295428DF83D
:10F310004900E7D39DF85F70EFB103F07F038142AE
:10F320008DF84B308DF84A002EDA7278B37892015E
:10F3300002F4FE5242EA9302ADF84E20DB00F2786E
:10F3400003F0180343EA521302F01F028DF8503005
:10F350008DF8512018E0C3F38010002903F03F031B
:10F360008DF84B008DF84C3008DA96F90130002BFF
:10F37000ACBF042308238DF84A30D6E704231A448F
:10F3800095428DF84A30ADD300231B9398F8003096
:10F39000032B02D97846FEF76DFF98F80020AB4B9F
:10F3A000BDF85C0053F822301D9301F0C5FD012823
:10F3B00040F0E28112A8FFF701F90746002892D138
:10F3C0000146082205A814F087FF05A9608810F0FF
:10F3D000B1FD28B19DF8493043F001038DF8493063
:10F3E000D4E90312208904F0A1FF002857D19DF829
:10F3F0004930002B3FF477AF13F001031CBF069A8E
:10F4000016929DF84820002A00F0A281BDF84E1007
:10F410001898FEF7B1FF199B4FEA03694FEA132AC8
:10F4200019EB00034AF10004CDE90234BDF85C0099
:10F43000874C00210B5B834209D16318D3E9022377
:10F44000DDE9029A9A4508BF91453FF44CAF10316F
:10F450008029EFD17F4A0023702101FB032494F817
:10F4600048C0BCF1020F23D1B4F814C084451FD1A9
:10F47000E188A069FEF780FFE1690A0612EB000946
:10F480004FEA112343F1000ADDE902239A4508BF40
:10F49000914531D205212046FFF760FA0BE09DF837
:10F4A000493003F0FE038DF84930002B9FD11AE755
:10F4B0000133042BD1D1BDF84E30BDF85C00DDE93D
:10F4C000181204F05BFF002800F0D280BDF84E3027
:10F4D000BDF85C00DDE9181204F084FF00283FF459
:10F4E00002AF12A8FEF788FF014612A8FFF750FEF0
:10F4F00012A8FFF7CBF8F6E6DDE90223534508BF73
:10F500004A45FFF4F0AE544B1B685B071CD5534BC8
:10F510001B68032B18DD2F21514814F0ADFF002884
:10F5200000F0FC802F214E4814F0A6FF411C4D4BEB
:10F530009DF85020D3F8043501924B4A00920420E4
:10F540004FF4657203F028FF94F84830022B02D084
:10F550007846FEF78FFEDFF81491D9F800A002F08C
:10F56000B7F80AEB000104F1300002F088F8237BC1
:10F57000012B1AD194F86830BBB994F84830022BAB
:10F5800002D07846FEF776FED9E9013299F81510D7
:10F5900002FB013902F09CF800EB090104F1500074
:10F5A00002F06DF8012384F868309DF85010E36C88
:10F5B00001228A4013427FF496AE1343E3649DF820
:10F5C0005F30627A002B0CBF4FF00C094FF0080936
:10F5D0008A42A5F1040509FB01F940F0A88009EB76
:10F5E0000503A4F84A30A269189B9A420BD20DF188
:10F5F000540EBEE80F0004F10C0CACE80F009EE8BE
:10F6000003008CE80300E06E2A46311D484414F0E4
:10F6100058FE2046E56CFEF7EFFE85427FF463AEB0
:10F62000E16C2046FFF7B4FD6378DA070AD5E37D85
:10F63000E06EB4F84A10002B00F085804346224665
:10F64000FFF7A2FA2046FEF785FF4CE6304A03009A
:10F6500048270020F42700209C1F0020981F00202E
:10F66000814A0300001001405F4B0300DC270020AB
:10F670009DF85F209DF85130002A0CBF0C2408240F
:10F6800003FB04440CBF4FF4C0734FF480739C42DF
:10F6900028D93A4B1B6859077FF525AE384B1B68B4
:10F6A000002B7FF720AE2F21364814F0E5FE80B105
:10F6B0002F21344814F0E0FE411C334B334AD3F879
:10F6C0000435009201944FF45C72012003F064FE53
:10F6D00009E65C212B4814F0CFFE08B15C21E8E775
:10F6E0002849EAE72246022112A8FEF7D5FE044681
:10F6F00000287FF408AF014612A8FFF749FD2C222D
:10F70000214607A814F0E8FD10238DF81C3007A847
:10F7100002238DF8243000F0A1F8E4E55C211948BB
:10F7200014F0AAFE08B15C21FDE61649FFE6002BA5
:10F730000CBF0C2308239D423FF455AF0421204603
:10F74000FFF70CF9CFE543462246FEF7C7FF79E7FE
:10F75000002B3FF4C8AD9DF85F30701C691E23B1CB
:10F76000434612AAFFF710FABDE5434612AAFEF778
:10F77000B5FFB8E50E27B6E51027B4E59C1F0020BD
:10F78000981F0020814A0300001001404B4B0300EA
:10F790002DE9F341194E00243746A046351995F856
:10F7A0004830012B0CD102A9284641F8048DFFF7FF
:10F7B00071F9042801D0019B13B12846FFF7B0F876
:10F7C0007034B4F5E07FE9D100257C1994F8483015
:10F7D000022B0AD194F86830022B06D1E16C204646
:10F7E000FFF7D6FC08B984F868007035B5F5E07FFE
:10F7F000EBD1012002B0BDE8F08100BFF42700206A
:10F800002DE9F04188460746E8B1124E3468C4B984
:10F810002546454507D1104BC3E9007501233360E8
:10F820002046BDE8F08107EBC5035B685BB117F8C4
:10F830003500030609D450B1FEF7A8FD38B90135EB
:10F84000E7E70424ECE70E24EAE70B24E8E70F24BB
:10F85000E6E700BFCC270020D0270020F8B50746F8
:10F8600010B97846FEF706FD0F4E346894B10F4D7F
:10F8700001232B7023791BB954F8043C3846984770
:10F880002468002CF6D12B78022B03D13168064C6A
:10F8900009B92970F8BD0B790E6813B1204603F041
:10F8A00001FD3146F4E700BFB8290020B42900204B
:10F8B00010B5044610B97846FEF7DCFC002323722D
:10F8C000211D0248BDE8104003F0CBBCB829002040
:10F8D00010B5044610B97846FEF7CCFC074A1378F9
:10F8E000013B012B04D8022313700123237210BDA6
:10F8F000211D0348BDE8104003F0D4BCB42900200A
:10F90000B82900200B888268D25A073222F00302FD
:10F91000134402889BB2043A934288BF00230B80B1
:10F92000704713B58368CB1A02A921F8023DFFF78F
:10F93000E9FFBDF806308068184402B010BD70B50C
:10F94000064615460C4611BB7846FEF793FCFEB101
:10F950007846FEF78FFC6B1E2344B3F1005F34D969
:10F960004FF08052D2F80C2102F50022B3EB822F27
:10F970002ED2042D02D87846FEF77CFC3580002379
:10F98000043D7380B380B4602580A37070BD10B94E
:10F990007846FEF76FFCB4F1005F12D94FF0805348
:10F9A000D3F80C3103F50023B4EB832FD3D34FF0FE
:10F9B0008053D3F80C3103F50053B4EB832FC7D237
:10F9C000C9E7B4F5000FF2D8C2E7B3F5000F08D9C4
:10F9D0004FF08052D2F80C2102F50052B3EB822F87
:10F9E000C7D37846FEF746FCC3E738B5044610B9DE
:10F9F0007846FEF73FFC6288A36813449B78012B8E
:10FA000002D17846FEF736FCEFF3108572B6A26895
:10FA1000A18811448B78032B0AD12046FFF781FF80
:10FA2000A368C31A63800023837005B962B638BD2A
:10FA3000002393706380A380F7E7F8B50E46154660
:10FA4000044610B97846FEF715FC16B97846FEF75D
:10FA500011FC6288A36813449B78012B02D178467D
:10FA6000FEF708FC002D37D02388043B9BB29D4253
:10FA700032D8EFF3108772B66188A388EA1D22F0AE
:10FA80000302994292B204D25B1A9A4210DD04201A
:10FA900016E018D92088401A904209D29A42F6D826
:10FAA000032881BFA3685B1804229A700023638037
:10FAB0006288A1688B188D5201229A7000203360F1
:10FAC00007B962B6F8BDA26813449B78002BDED15B
:10FAD00093706380A380EBE70920F3E7F8B50D4648
:10FAE0001646044610B97846FEF7C4FB15B97846A9
:10FAF000FEF7C0FBAB78012B02D07846FEF7BAFBCD
:10FB00002B88B34202D27846FEF7B4FB16B978468A
:10FB1000FEF7B0FBEFF3108772B60223AB70E1186B
:10FB20002E802046FFF7EEFE6288A38893421FBF17
:10FB3000A3689B1800229A7007B962B6F8BD70B529
:10FB40000D46044610B97846FEF794FB15B9784681
:10FB5000FEF790FBEFF3108672B6A288A3681344F9
:10FB60009A78042A06D1211D2046FFF7CBFEA288F1
:10FB7000A36813449A78022A03D0032A08D00520E8
:10FB800003E003229A702B60002006B962B670BDB4
:10FB90007846FEF76FFBF7E738B5044610B97846AC
:10FBA000FEF768FBEFF3108572B6A088A1680144E8
:10FBB0008B78042B03D12046FFF7B3FE01468878EB
:10FBC000831E5842584105B962B638BD38B504465F
:10FBD00010B97846FEF74EFBEFF3108572B6A08899
:10FBE000A16801448878C31E012B05D9831E5842A1
:10FBF000584105B962B638BD2046FFF792FE01466E
:10FC0000F0E7F8B50D46044610B97846FEF732FB2A
:10FC100015B97846FEF72EFBEFF3108672B6AB7877
:10FC2000012B19D0032B22D1A288A36813449D4233
:10FC300002D07846FEF71EFB0027AF70211D20463C
:10FC4000FFF760FEA288A36813449B78042B00D1C1
:10FC5000A78006B962B6F8BD6288A36813449D42C6
:10FC600002D07846FEF706FB0023AB70F1E778463A
:10FC7000FEF700FBEDE710B5EFF3108472B6828853
:10FC8000816811448B78042B02D1FFF74AFE0146AC
:10FC90008878B0FA80F0400904B962B610BD0379E3
:10FCA00042799B1A03F57F2303F6FF7300EB0330C1
:10FCB0007047000010B5054884681C22002114F02C
:10FCC0000BFB2046BDE8104004F0BEB8BC29002064
:10FCD00070B5194CE36813B97846FEF7CBFA237E6A
:10FCE00013B17846FEF7C6FA6368092B02D9784645
:10FCF000FEF7C0FA114D0026636855F82330984787
:10FD0000022811D003280DD0012810D163680133D7
:10FD1000092B636002D97846FEF7ACFA237E002BEC
:10FD2000EAD004E06660F9E7237E0BB1207070BD75
:10FD3000BDE87040FFF7BEBFBC290020F44B0300B4
:10FD400010B50388044613B97846FEF793FA208865
:10FD5000074B04EB800030EA030203D06288B2F55F
:10FD6000FE4F04D11C4004F580542078204410BD7F
:10FD700000F0FFFF70B504460E4647F6FE65FFF73C
:10FD8000DFFFB04207D2844205D24388013B9BB2D9
:10FD9000AB42F4D870BD0020FCE700000B78032BC9
:10FDA000094B04BF00221A761A78012A03D11B7E60
:10FDB00043B9FFF78DBF022A04D10B78032B01D181
:10FDC000FFF778BF704700BFBC29002010B50C4C6E
:10FDD000E3681878002203F58051184404F02AFCE7
:10FDE00050B9E1680846FFF75AFF814206D001F595
:10FDF0008051E160032010BD0120FCE70220FAE7FA
:10FE0000BC2900201FB50A4B02221B688DF8002078
:10FE10000193084A4FF4805369460120029300F091
:10FE2000CDFFB0FA80F0400905B05DF804FB00BFDB
:10FE3000DC290020D82900201FB50123CDE90221AB
:10FE40000190054A8DF800306946184600F0B6FF6B
:10FE500005B05DF804FB00BFD82900202DE9F0476C
:10FE6000254BD86802794179013A91421E4603D167
:10FE700001205876BDE8F08700F580531F491C78B3
:10FE80001C440B6813F8045F1D44FFF708FF6388E8
:10FE9000013B9BB247F6FE62934200F580578846CD
:10FEA00004D920463946FFF765FF0446DFF850A025
:10FEB0004FF001092CB9B4FA84F464097476012076
:10FEC000D8E7D8F800106288284601F5805104F080
:10FED000B1FB05460028EED004225146204686F8A4
:10FEE0001890FFF7A9FF28B920463946FFF742FFCF
:10FEF0000446DFE70020BDE7BC290020DC29002004
:10FF00009C4D030038B5104CE36818784FF6FF722B
:10FF100003F58051184404F08DFB88B1E36819782B
:10FF20000B4498420CD0657E0849094B0422002DF1
:10FF300008BF1946FFF780FF20B90120207638BDA1
:10FF40000120FCE70020FAE7BC290020A44D0300B3
:10FF5000A04D030070B50C4D0C4EE96830680C786C
:10FF600004302246FFF768FF58B9336804F0FC04F8
:10FF700004341C44EB686C611A7813442B61012033
:10FF800070BD0020FCE700BFBC290020DC29002058
:10FF900008B5054B054918680422FFF74DFFB0FA74
:10FFA00080F0400908BD00BFDC290020C8290020DE
:10FFB00010B5074B074C1968E06840F6FC72043135
:10FFC000FFF73AFF10B90120207610BD0020FCE7B2
:10FFD000DC290020BC29002010B50C4CE168084643
:10FFE000FFF75DFE81420AD1094B0A4918680422D5
:10FFF000FFF722FF40B901232376022010BD01F54F
:020000022000DC
:100000008051E1600320F9E70020F7E7BC290020D8
:10001000DC290020E02900202DE9F74F324C23692C
:1000200013B97846FEF726F9636913B97846FEF7E7
:1000300021F9DFF8B89047F6FE6A6369D4E9030650
:1000400003EA0908A8EB0308FFF729FE7388013BC0
:100050009BB2534508F5805800F5805B06D93046C1
:100060005946FFF787FE0646002835D0354600275B
:100070005D4519D22A8807EB8202904509D986EAA4
:10008000050313EA090F04D16B88013B9BB253456A
:1000900002D957B9012318E028460192FFF750FE14
:1000A000019A05461746E3E7E7B13A4631466069EB
:1000B000FFF7C2FE90B963691F44676115B97846BE
:1000C000FEF7D8F82561002335B1698847F6FF723D
:1000D000914201D0002BB0D0012000E0002003B0FD
:1000E000BDE8F08F0123EFE7BC29002000F0FFFFFF
:1000F0001FB50A4B0222DB688DF800200193084AE5
:100100004FF4805369460120029300F057FEB0FA85
:1001100080F0400905B05DF804FB00BFBC29002059
:10012000D82900201FB540F6F8731B685A1C0CD163
:10013000374B1A68013202D01A68002A54D14FF0A6
:100140008052516913694B4303E0002BF7D0A3F5AC
:100150008053304CA3F5805323602F4B1B68DB0288
:1001600023D52E4B1B68062B1FDD2F212C4814F0A6
:1001700083F900283AD02F21294814F07DF9411C39
:1001800040F6F872274B1268D3F80435501C08BFAC
:100190001F4A206808BF1268CDE90120224A009258
:1001A00007204FF41A7203F0F7F8236819684B1E02
:1001B00003332BD8C1F30B0343BB1C4A1C48D1604B
:1001C000012111701B4913765376936051F8234037
:1001D000844214D153600120174900F0DFFDFFF77E
:1001E00077FD012004B010BD1B68B0E75C210C480E
:1001F00014F042F908B15C21BEE70949C0E70133B8
:100200000A2BE3D17846FEF735F8E4E70020E9E76A
:1002100014100010DC2900209C1F0020981F0020D3
:10022000984B030000100140C04B0300BC29002084
:10023000F1000200F44B03009DFD010010B50446DF
:1002400010B97846FEF716F8094B187860B1E068E7
:10025000D9684379A0EB0333994206D3FFF71FFD1A
:1002600081428CBF0020012010BD0020FCE700BFB0
:10027000BC290020024B1878003018BF01207047BD
:10028000BC29002038B50E4C2378054613B17846BA
:10029000FDF7F0FF2B78032B02D07846FDF7EAFF3D
:1002A000EB68E360012000230649A56063602376C4
:1002B0002070637600F072FDBDE83840FFF708BD9E
:1002C000BC2900209DFD0100014B1868704700BF4C
:1002D000DC29002010B5044610B97846FDF7CAFFA6
:1002E00063681BB123680BB1A36813B97846FDF7A7
:1002F000C1FFA3685A1E1A4202D07846FDF7BAFF22
:100300000023C4E9033310BD70B50E460446F0B1B6
:100310008368F3B1EFF3108572B6D0E903319942E7
:1003200003D105B962B605250FE04EB18368013BE4
:100330000B40D0E90012304602FB031113F0C1FF5D
:1003400023690133236135B962B6284670BD0E2595
:10035000FBE70925F9E70025F7E70000024AD2F894
:100360000034002BFBD0704700E00140C0F30B03CA
:1003700010B5E3B9E9B1104C0223C4F80435FFF716
:10038000EDFF01F6FF7121F47F6121F00F010144BF
:10039000884205D10020C4F80405FFF7DFFF10BD37
:1003A000C4F80805FFF7DAFF00F58050F0E71020E9
:1003B000F5E70920F3E700BF00E0014070B540EA2F
:1003C000010414F003041BD1E2B195071AD10E4EBB
:1003D0000123C6F804359508FFF7C0FFAC4205D1EC
:1003E0000020C6F80405FFF7B9FF70BD51F82430AE
:1003F0005A1C03D040F82430FFF7B0FF0134EDE77A
:100400001020F2E70920F0E700E0014041F28263AA
:1004100098429DBF024B1878C0F3C000012070477E
:100420006B2A002013B50190000C01280C4602D065
:100430007846FDF71FFF084A0849236813600B78C8
:1004400043F001030B7083F00203C3F34003002069
:10045000137102B010BD00BF642A00206B2A002077
:1004600013B50190000C02280C4602D07846FDF727
:1004700001FF084B22681A6022791A71064A00208F
:1004800058719871D871137843F00203137002B059
:1004900010BD00BF5C2A00206B2A002007B5019028
:1004A000000C032802D07846FDF7E4FE034805223D
:1004B000002103B05DF804EB13F00EBF642A0020A6
:1004C00007B50190000C042802D07846FDF7D2FE53
:1004D00003480822002103B05DF804EB13F0FCBED2
:1004E0005C2A002013B50190000C03280C4602D0B2
:1004F0007846FDF7BFFE04490522204602B0BDE85C
:10050000104013F0DEBE00BF642A002013B5019036
:10051000000C03280C4602D07846FDF7ABFE0522FE
:100520002146054813F0CDFE044A1378002043F01D
:100530000103137002B010BD642A00206B2A002052
:1005400013B50190000C04280C4602D07846FDF744
:1005500091FE04490822204602B0BDE8104013F085
:10056000B0BE00BF5C2A002013B50190000C042827
:100570000C4602D07846FDF77DFE0822214605484C
:1005800013F09FFE044A1378002043F00203137017
:1005900002B010BD5C2A00206B2A002000B50A4B77
:1005A0001A7B9B688DB0012A08BF03F1FF330390CB
:1005B0000CA80493022300F82C3D8DF80820FFF7C7
:1005C0004DF90DB05DF804FB102A0020074A13789E
:1005D000590709D50178122906D105490868054946
:1005E0006FF3820348601370704700BF6B2A0020CE
:1005F000642A0020102A00201FB50F490B785A07E3
:1006000017D40E4A526802F50052B2F1807F02926E
:100610000FD80B4A43F0040312780B704FF44030AC
:1006200002A98DF80C2004F0F9FF10B17846FDF70F
:1006300021FE05B05DF804FB6B2A0020102A002083
:100640006C2A00201FB5002303930C4B9A6802927A
:100650000B4A1B7B8DF80C3013780133DBB202A9F7
:100660004FF4802013708DF80F3004F0D7FF10B1D5
:100670007846FDF7FFFD05B05DF804FB102A002069
:100680006C2A002007B54FF4403005F025F84FF4F0
:10069000802005F021F814220021064813F01CFEEA
:1006A000054B1A786FF345121A7003B05DF804EB2E
:1006B000FFF7A2BF102A00206B2A002010B50C4CB7
:1006C00014220021204613F007FE01F001F8094B27
:1006D000094A0A499A600022C3E9031258605A6124
:1006E000074B6260197862F3C301197010BD00BF37
:1006F000102A0020EC2900205D08020000879303E7
:100700006B2A002037B5244D2B78DB062BD42348E9
:10071000234B036000F080FD2248234B036000F070
:100720007BFD2B7813F020020ED103F00303032B83
:100730001E4C1AD02260A26022732282FFF782FF31
:1007400023686360FFF758FF4FF4803004F0C4FF64
:100750004FF4003004F0C0FF154800F057FF2B782D
:1007600043F010032B7003B030BD124B1A68A26027
:100770001A7922739879597941EA00212182D9792D
:100780000D4B19700D4B1879884202D00AB92260BE
:10079000D6E71B682360D3E76B2A0020042A0020D9
:1007A000F9080200502A0020CD050200102A00207E
:1007B000EC2900205C2A00206C2A0020642A0020FA
:1007C00010B501F08DFC0D4A137BA3B9947B94B94D
:1007D000108AFFF71BFE70B1012313739368148214
:1007E00001339360FFF72EFF2046FFF7D7FE01F09D
:1007F000B7FC204610BD0824F9E700BF102A0020EE
:1008000010B501F06DFC144A547B9CB1917B09BB7F
:10081000108AFFF7FBFD044660B1137B51732BB1C7
:10082000012B0BD07846FDF725FD03E0FFF7C8FF4D
:100830000028F7D101F094FC204610BD0846C2E91B
:10084000001111731182FFF7A9FEFFF7FBFEFFF7FE
:10085000D3FEEFE70024EDE7102A00201FB5244C5B
:10086000227B2AB1012A0FD07846FDF703FD1CE058
:10087000208AFFF7CBFDC0B1FFF7C2FF638A0BB13F
:10088000013B638204B010BD218A0846FFF7BEFD1C
:1008900058B142F2B013994288BF6273FFF7B0FFBC
:1008A0000028EBD1637B002BE8D1238A01339BB274
:1008B0001E2118462382B3FBF1F201FB12339BB2D7
:1008C000002BDBD1A3680293237B8DF80C30094BFE
:1008D000ADF80D001B788DF80F3002A94FF4802081
:1008E00004F09CFE0028C9D07846FDF7C3FCC5E79C
:1008F000102A00206C2A002010B50378042B0ED19A
:1009000043681B785BB11D4B4269197B047E71BB48
:10091000598A01BB012C996802D08A4203D810BDC4
:100920004C1CA24219D92A318A42F8D8997B002955
:10093000F5D184689A60124A1A61C3E900115973AB
:100940001973FFF77FFEFFF757FE04F11000BDE8B3
:100950001040FFF723BE012CE1D1996801318A4292
:10096000DDD101225A73BDE81040FFF749BF0129CC
:10097000D5D1012CD3D09968F1E700BF102A00200F
:100980000000062D38B5164CD4E900239A420546DE
:100990001FD2207B134B1449012808BF0B469A42F3
:1009A00007D263682268403B9A4208D3FFF724FECF
:1009B00005E001236373FFF723FF0028F1D0EFF375
:1009C000108072B623685A1C22602B6028B962B668
:1009D00038BDFFF711FE0F20FAE70020F8E700BF4F
:1009E000102A0020FFFF7F0000E0FF0010B50C4A36
:1009F0001368144628B101200A4903448873136020
:100A000010BD13B97846FDF735FC2368013B236020
:100A1000002BF5D1034A9373BDE81040FFF7F0BEF9
:100A2000E4290020102A002000B58DB00323ADF882
:100A300008000CA88DF8102000F82C3D0391FEF75B
:100A40000DFF0DB05DF804FB014B9868704700BFC7
:100A5000102A0020034B98681B7B012B08BF00F174
:100A6000FF307047102A0020044B9B685840C20793
:100A700048BF03F1FF331846704700BF102A00201B
:100A8000014B187B704700BF102A002038B50C4A74
:100A9000137813F0200411D10A4D43F02003137092
:100AA0002973A8602C82FFF7CDFD2046FFF776FD65
:100AB000C5E90044FFF7A0FD204638BD0820FCE74B
:100AC0006B2A0020102A00202DE9F8431D4CDFF886
:100AD000789000260221204602F05AFA5FFA86F842
:100AE00005460027ADB967B12946204602F0B7FA9E
:100AF000082806D154F8043C1BB12A464946404612
:100B000098470136032E04F1BC04E3D10120BDE86F
:100B1000F88354F8043C34F80C2C13B129464046B1
:100B2000984734F80C3C02210133204624F80C3C51
:100B300002F04AFA0221204602F02AFA013705465D
:100B4000D0E700BF842A00202C4C030038B50121D7
:100B500004460C3002F01CFA054620B3164BC4F8CC
:100B60009C300023C4F8A03003786268012B07D0C2
:100B7000022B1AD07846FDF77DFB4FF4FA7306E09E
:100B800081688B1A99082B234B4303F5FA730B4AA0
:100B9000934294BFC4F8A830C4F8A8200123C4F835
:100BA000AC4084F8B830284638BD83689B1A1A0BCD
:100BB000034B5343E9E700BFE50B020060850100EA
:100BC000CC55010010B50446FFF7C0FF48B104F151
:100BD0009C0005F0EDFF20B17846BDE81040FDF720
:100BE00049BB10BD2DE9F74F4A4B1B7880460D4697
:100BF0003BB106F013F8002385F8B83003B0BDE828
:100C0000F08F01F10C09D1F8A8704846012102F0DB
:100C1000BFF9064610B97846FDF72CFBDFF8FCA0BB
:100C2000A7F5FA7700244FF02B0B3378012BA7EBB5
:100C3000040406D0022B3BD07846FDF71BFB0023B3
:100C40001FE06B68B268B4FBFBF4D21AA4009442B4
:100C500028BF144624B901937846FDF70BFB019B8E
:100C6000F168706823F00303224619441844FFF723
:100C7000A5FB10B17846FDF7FDFA6B681C446C606B
:100C8000B3686A689A422AD105F0C8FF4846012134
:100C900002F09AF900236B6085F8B8301E4B186893
:100CA00001F0ACFA284603B0BDE8F04FFFF78ABF69
:100CB0006B68B268B4FBFAF4D21A2403944228BFDA
:100CC000144624B901937846FDF7D4FA019B706865
:100CD00023F0030321461844FFF748FBC9E701F05E
:100CE000F3F83378B0EB080448BFA8EB0004012BFD
:100CF0000DD0022B06D153462344BB4295D905F0B3
:100D00008DFFCFE77846FDF7B5FA0023F4E72B23F4
:100D1000F2E700BF742A0020702A0020CC550100A1
:100D200070B51B481B4C01F04BFA1B4B186004F1CB
:100D30001C0341F203060825636104F10C0004F171
:100D400018032361A681A57302F065F904F1D803A5
:100D5000C4F8D03004F1C80004F1D403C4F8CC3096
:100D6000A4F8C86084F8CA5002F055F904F5CA73B3
:100D7000C4F88C3104F5C873A4F8846184F88651F2
:100D8000C4F8883104F5C270BDE8704002F043B980
:100D9000C90A0200782A0020702A0020022838B5EB
:100DA00004460D4602D97846FDF764FA024BBC2290
:100DB00002FB0434A56038BD782A002002282DE902
:100DC000F84F07460C46924602D97846FDF752FA8C
:100DD00014B97846FDF74EFA2378012B12D16368D7
:100DE000990702D07846FDF745FAE3689A0702D0E2
:100DF0007846FDF73FFAA3689B0711D07846FDF7C8
:100E000039FA0DE0022B0DD16368C3F30B0313B164
:100E10007846FDF72FFAA368C3F30B03002BEDD13F
:100E2000A36813B97846FDF725FAEFF3108872B678
:100E3000BC257D43224E05F10C09B14400214846F2
:100E400002F0A6F8834690B30021484602F0BCF8B1
:100E500010222146584613F034FABAF1000F03D09D
:100E600073195B88AAF80030BC2303FB07677B88F3
:100E700097F8B84001337B8004BB124B1F78BFB991
:100E80007019FFF763FEB8F1000F0ED162B6444649
:100E900040B105F19C00304405F08AFE10B178465F
:100EA000FDF7E8F92046BDE8F88F3C46F0E704245A
:100EB000B8F1000FF6D1A0460020E7E70024F7E7DD
:100EC000782A0020742A002070B5EFF3108672B6DD
:100ED000144C236818BB13B97846FDF7CBF9236887
:100EE000013B236093B9104D95F8B83013B92846EB
:100EF000FFF768FE95F8743113B90C48FFF762FEEE
:100F000095F8303213B90A48FFF75CFE2368094AA6
:100F1000003318BF0123137006B962B670BD0133E8
:100F20002360F3E7AC2C0020782A0020342B00202B
:100F3000F02B0020742A002010B1800B014B185CAC
:100F4000704700BF3C4C030012DF704713B501F03F
:100F5000B3FC0446D8B1134B1B685B0617D5124B84
:100F60001B68012B13DD2F21104813F085FA80B187
:100F70002F210E4813F080FA411C0D4B0D4AD3F877
:100F80000435009201946C22022002F005FA02B0AE
:100F900010BD5C21054813F06FFA08B15C21E8E749
:100FA0000249EAE79C1F0020981F0020654C0300BF
:100FB00000100140814C030070B58AB006F0E8FAD9
:100FC0000446002834D000238DF8103006460FCE9A
:100FD00005AD0FC533682B60627D052A0CD9207DD5
:100FE00000F00F03072B07D004AB063A04F11D01F4
:100FF00000F00F0005F060F9114B1A68AAB104ABBC
:101000000393237DC3F303038DF80430637D062B24
:1010100089BF063B00238DF8053004F11D0398BFFE
:101020008DF80530029301A89047204606F09AFA01
:1010300006F0C8FA80F00100C0B20AB070BD00BF6F
:10104000B42C002000B50A4B1A78032A8DB00CD1BD
:1010500004221A7000212C2201A813F03DF91C2350
:1010600001A88DF80430FEF7F9FB0DB05DF804FB24
:10107000B02C0020F7B52E4F3A780546002A4DD106
:1010800000284DD0067A0F2E01D0062E4AD105F049
:10109000E3F8E86800283ED0FDF7FEF80DF1070000
:1010A000FFF752FF044698BB9DF80730012B3BD158
:1010B000FDF71CF900F094FA304600F0C3FFE87821
:1010C00000F01AF900F0F6FD05F008FD194806F0E9
:1010D00011FB05F071FA05F0C5F8FFF721FE04F0E9
:1010E000E9F900F03FFC05F077F804F097FE284698
:1010F00001F03AFBFDF728FF03F086FDFCF7B8FF8F
:1011000008B1062812D10C4B00221A6001233B7053
:10111000204603B0F0BDFDF7C7F8BFE70824F7E7A6
:101120000E24F5E70724F3E70224F1E70446EFE78E
:10113000B02C0020B90F0200B42C002037B5244D8C
:101140002A78012A05D002D3033A012A38D9082483
:1011500028E006F0E9F901F017FBFDF737FFFCF78F
:1011600087FF044650B3062828D01A4B1B685B043F
:1011700018D5194B1B68012B14DD2F21174813F0CC
:101180007BF990B12F21154813F076F9411C144BCF
:10119000144AD3F80435009201944FF4AF72022040
:1011A00002F0FAF8204603B030BD5C210B4813F082
:1011B00063F908B15C21E6E70849E8E700F06EFF53
:1011C00005F0E8FC04460028ECD102232B70E9E787
:1011D000B02C00209C1F0020981F0020654C0300AD
:1011E00000100140404C030008B5084B1A78022A51
:1011F0000AD1032206481A7005F092FC18B178460D
:10120000FDF738F8002008BD0820FCE7B02C0020CE
:1012100045100200FDF7DCBEFEF74ABBFEF758BBE7
:1012200008B500F017FD002008BD07F0EFBA000078
:10123000044B1A680132B2F1704F08BF01221A60E4
:1012400018687047B82C002010B5044610B97846CD
:10125000FDF710F80023C4E9003310BD38B50D4682
:10126000044610B97846FDF705F815B97846FDF73C
:1012700001F800236B60EFF3108372B6226822B985
:101280002560656003B962B638BD62685560F8E7ED
:1012900010B5044610B97846FCF7ECFFEFF3108266
:1012A00072B6206808B143682360236803B963609D
:1012B00002B962B610BD10B5044610B97846FCF705
:1012C000D9FF206810BD35DF7047000008B54FF02A
:1012D000FF30FFF7F8FFBFF34F8F0549054BCA6892
:1012E00002F4E0621343CB60BFF34F8F00BFFDE712
:1012F00000ED00E00400FA0507289ABF024B33F81E
:101300001000FA20704700BFAA4C0300024B586837
:10131000103840B2704700BF00ED00E0084A2023BB
:1013200090FBF3F352F82330424202F01F0200F028
:101330001F0058BF504223FA00F000F00100704730
:1013400000E100E046DF704730B501F110031032D4
:10135000103013F8014D12F8015D8B4284EA050448
:1013600000F8014DF5D130BD2DE9F047144690B09D
:1013700002F10F05102288462D1101460DEB0200E7
:10138000994604F00F0412F09CFF002D51D0002C60
:101390004FD10126B2461022002108A812F09CFF6E
:1013A00004A8FFF7CFFF01220DF13F0110AB13F9A5
:1013B000100D1F4693F800C04FEA4C0C5FFA8CFCEE
:1013C00083F800C013F801EF4CEADE1C994203F8E1
:1013D00001CCEFD19DF83F305B00DBB20028B8BFF5
:1013E00083F087038DF83F30531C9A454FF002027B
:1013F000DCD2013D08EB0511FEB10CAA6846FFF7EF
:10140000A3FF102200210CA812F066FF0024AC42BA
:1014100025DB3A46694608A8FFF796FF04A8FFF7C0
:1014200091FF10223946484612F04BFF10B0BDE83C
:10143000F08700264FF0020AADE72246684612F018
:1014400040FF10AB2344802203F8402C0134102CC1
:1014500002D10CAA6946D1E70DF80460F6E708EB63
:101460000412394608A8FFF76FFF04A8FFF76AFFC8
:101470000134CCE738B5124B1A6804462AB11A6811
:1014800045685268AA1A002A0DDA1A6862611C605F
:101490009A88013292B29A8012B97846FCF7EAFE35
:1014A0000123237038BD19684A691AB15068401B7E
:1014B000002802DB62614C61EAE71146F4E700BFF5
:1014C000C02C002010B5124B1A68824204461A46FE
:1014D0000BD142691A609A8892B2511E89B29980E2
:1014E0008AB97846FCF7C6FE0DE01B685BB1596906
:1014F000A1420BD16169596193889BB2591E89B28F
:101500009180002BEDD00023237010BD0B46EDE73A
:10151000C02C0020014B186800F070BEBC2C0020CD
:10152000044B1A6822B11B680349586800F05AB985
:1015300000F0AEB9C02C0020151502002DE9F041D5
:1015400000F0C6F8254E054637464FF000083368D0
:1015500023B133685B685B1B642B06D400F0B8F8DA
:10156000FFF7DEFF0120BDE8F08134682378012B0E
:1015700002D07846FCF77EFE63693B60BB88C4F806
:1015800014809BB25A1E92B2BA8013B97846FCF707
:1015900071FEA36813B97846FCF76CFE0223284657
:1015A00023702169A368984700F092F82378022BF2
:1015B0000546CCD1E2680AB92270C8E763686FF0CB
:1015C0006301891A1344091AD018C14204D4636014
:1015D0002046FFF74FFFBAE70346F5E7C02C00208F
:1015E00008B508220021064812F076FE054800F0F2
:1015F000E7FD054B1860BDE8084000F05CB800BF8F
:10160000C02C00203D150200BC2C002010B5044663
:1016100000F0CCFE10B97846FCF72CFE14B97846E1
:10162000FCF728FEA36813B97846FCF723FE23785D
:10163000012B02D17846FCF71DFE00236361204692
:10164000FFF718FF00F044F8BDE81040FFF768BF4F
:1016500010B5044600F0AAFE10B97846FCF70AFE61
:1016600014B97846FCF706FE2046FFF72BFF00234F
:10167000636100F02DF8BDE81040FFF751BF38B5A9
:1016800004460D4600F092FE10B97846FCF7F2FDD4
:1016900014B97846FCF7EEFD2046FFF713FF002350
:1016A000636120466560FFF7E5FE00F011F8BDE8D4
:1016B0003840FFF735BF08B50EF0D0FF38B90EF04F
:1016C00009FF20B17846BDE80840FCF7D3BD08BD4E
:1016D00010B5EFF3108072B60C4A0D4B1968D2F8B2
:1016E0000435D2F80441012C04BFD2F8043501318D
:1016F00000B962B6074843EA01614FF48042002313
:10170000E0FB0123D00B40EA434010BD0010014034
:10171000C82C002040420F0010B50A4B0A4C4FF471
:101720000032C3F84823C3F80823226812B9784668
:10173000FCF7A0FD2468FFF7CBFF2346BDE810406F
:10174000184700BF00100140D42C002010B5EFF363
:10175000108072B61E4B1F490022C3F804210A688C
:1017600001320A6000B962B61B4A116809B31168F8
:10177000013911601268E2B9184AD3F804051168FA
:10178000884217D2EFF3108072B6D3F804151468AC
:101790000131A1422ABFD3F8042512680232C3F8EE
:1017A000442500B962B64FF40032C3F84423C3F8AD
:1017B000042310BD0A4C226812B97846FCF75AFD82
:1017C0002468FFF785FF2346BDE81040184700BF97
:1017D00000100140C82C0020CC2C0020D02C002070
:1017E000D42C002037B50023044601930D4611B9CF
:1017F0007846FCF73FFD204B1D60FFF769FF031B98
:10180000002BB8BF241A1D481D4AA8BF00244FF45E
:10181000004500210023E5FB040112F07BFBEFF300
:101820001083019372B6174A174CD2F80435022878
:10183000C3F1FF1101F57F4138BF022081421349F6
:1018400010D30344C2F844354FF40033C2F8443394
:10185000C2F80433002323600B60019B03B962B616
:1018600003B030BD03F17F43013303441A0E01324C
:10187000226023F07F43EFE7D42C002020A1070053
:1018800040420F0000100140CC2C0020D02C002042
:10189000074B4FF40032C3F84823C3F80823054A26
:1018A00000231360044A1360044A1360704700BFAA
:1018B00000100140CC2C0020D02C0020D42C002083
:1018C00030DF704731DF704710B5D0E900238468FE
:1018D000C168A2EB731283EAF43303600C4413442F
:1018E000114444608160C360184610BD37B50C4692
:1018F000054610B97846FCF7BDFC00239C4201D890
:1019000003B030BD0DF10700FFF7DAFF9DF80710B7
:101910000029F7D0E21A914288BF8DF80720E81815
:101920009DF80710FFF7CEFF9DF807201344E5E769
:1019300037B5044602A8002340F8043D0421FFF710
:10194000D5FF074B2360019BE360C4E901331425F5
:101950002046FFF7B9FF013DFAD103B030BD00BF0B
:10196000ED5EEAF17047000007B52648019003F0EC
:10197000B3FE4FF48173ADF80630019803F0ACFE6E
:101980004FF48273ADF80630019803F0A5FE40F2E3
:101990000113ADF80630019803F09EFE40F20313E8
:1019A000ADF80630019803F097FE40F20513ADF84C
:1019B0000630019803F090FE4FF48373ADF80630C3
:1019C000019803F089FE40F20713ADF80630019844
:1019D00003F082FE4FF40073ADF80630019803F077
:1019E0007BFE4FF40C73ADF80630019803F074FEE3
:1019F0004FF40473ADF80630019803B05DF804EBC2
:101A000003F06ABE0300000148DF704749DF7047FA
:101A10004ADF7047064A032313741168054B53616C
:101A200040F6D862914288BF43F2B0629A60704734
:101A3000042D0020242D0020054B1B68A0F1780206
:101A400028335843034BB0FBF3F0101A704700BF24
:101A5000202D002040420F0038B50E4A0E4C0123C5
:101A600063711368002501331360257400F086FA52
:101A700005F04AF92068FFF7DFFF084A01462846CB
:101A800000F0F0F920B17846BDE83840FCF7F2BB31
:101A900038BD00BF382D0020042D0020151A02008B
:101AA00010B41F4B5A6928B11968DC68114401341D
:101AB000DC601960996801240131E24001291C743D
:101AC00099605A611C680ED002291AD05B69154AC8
