:020000022000DC
:1060000000FD0020F9AC030021AD030023AD030027
:1060100025AD030027AD030029AD030000000000FB
:106020000000000000000000000000002BAD030095
:106030002DAD0300000000002FAD030031AD0300C3
:1060400033AD030033AD030033AD030033AD0300C4
:1060500033AD030033AD03003173020033AD0300F1
:1060600033AD030033AD0300E59B030033AD030004
:1060700033AD030033AD030033AD030033AD030094
:1060800033AD03006D100300C157030033AD0300AF
:106090003D11030033AD0300F577020033AD03007B
:1060A00033AD030033AD030033AD030033AD030064
:1060B00033AD030033AD030000000000000000001A
:1060C00033AD030033AD030033AD030033AD030044
:1060D00033AD030033AD030033AD03000000000017
:1060E00000000000000000000000000000000000B0
:1060F00000000000000000000000000000000000A0
:10610000000000000000000000000000000000008F
:10611000000000000000000000000000000000007F
:10612000000000000000000000000000000000006F
:10613000000000000000000000000000000000005F
:10614000000000000000000000000000000000004F
:10615000000000000000000000000000000000003F
:10616000000000000000000000000000000000002F
:10617000000000000000000000000000000000001F
:10618000000000000000000000000000000000000F
:1061900000000000000000000000000000000000FF
:1061A00000000000000000000000000000000000EF
:1061B00000000000000000000000000000000000DF
:1061C00000000000000000000000000000000000CF
:1061D00000000000000000000000000000000000BF
:1061E00000000000000000000000000000000000AF
:1061F000000000000000000000000000000000009F
:1062000010B5054C237833B9044B13B10448AFF3F0
:1062100000800123237010BDA02E0020000000008C
:1062200098E1030008B5034B1BB103490348AFF3E2
:10623000008008BD00000000A42E002098E10300AB
:10624000154B002B08BF134B9D46A3F5803A002148
:106250008B460F461348144A121A16F04FF90F4B8B
:10626000002B00D098470E4B002B00D09847002001
:10627000002104000D000D48002802D00C48AFF3A7
:10628000008016F0EDF82000290000F05DFD16F00A
:10629000D3F800BF0000080000FD0020000000004F
:1062A00000000000A02E002020520020000000006E
:1062B0000000000041DF704738B5174A1748002139
:1062C00002F0FCFA20B1164A40F24F1114F03FFDE3
:1062D000144D124C2988208808F09EFB20B1104AEA
:1062E0004FF4A87114F033FD2988208808F0FCFBD6
:1062F00020B10B4A40F2511114F029FD06212088EB
:1063000008F05CFC30B1064A4FF4A971BDE8384092
:1063100014F01DBD38BD00BF2963020038320020D3
:1063200048C90300BC2E0020F0B5704D02782B68E0
:106330000A2AC7B0044603F480431AD00B2A44D07B
:10634000042A40F0AC8063B3694B1B68032B28DD43
:106350002F21684816F0A2F970B32F21654816F076
:106360009DF9411C644B654AD3F804350092E42240
:1063700014E0B3B15E4B1B68032B12DD2F215D4887
:1063800016F08CF978B12F215A4816F087F9411C84
:10639000594B5B4AD3F804350092E022042010F0F8
:1063A00079F947B0F0BD5C21524816F077F908B191
:1063B0005C21E9E74F49EBE75C214E4816F06EF9A6
:1063C00008B15C21CAE74B49CCE7002B30D0484BE1
:1063D0001B68032B2CDD4B4B4768196805AE002367
:1063E000FA5C100902F00F02085C06F81300885CE2
:1063F00006EB43020133102B5070F1D100232F2103
:106400003C4886F8203016F049F9002835D02F2175
:10641000384816F043F9411C374B3B4AD3F8043552
:1064200001923A4A00920296E822042010F032F9D2
:106430002B685B0418D52E4B1B68032B14DD2F2112
:106440002C4816F02BF908B32F212A4816F026F90C
:10645000411C294B227AD3F8043501922C4A009230
:106460000420E92210F016F9207A2A4B61681022E4
:1064700003EB001016F037F893E75C211D4816F087
:106480000DF908B15C21C3E71A49C5E75C21194839
:1064900016F004F908B15C21D7E71649D9E7002BBB
:1064A0003FF47FAF124B1B68032B7FF77AAF2F218E
:1064B000104816F0F3F880B12F210E4816F0EEF8D0
:1064C000411C0D4B2278D3F804350192124A0092F8
:1064D0000420EE2210F0DEF863E75C21054816F098
:1064E000DDF808B15C21E8E70249EAE7102E002058
:1064F0000C2E002048C9030000100140BBCA030055
:1065000099CA0300142E0020D7CA0300E7CA03006B
:10651000EFCA03007C320020FECA030030B51E4BD8
:106520008BB00022039303F1F87303F6F523049371
:1065300003F17143A3F56E43059303F19F5303F5F4
:10654000B71303F60F430693144B07921B88ADF85D
:1065500022309DF82430ADF8202003F0FE030446DD
:106560000D4662F341030E490E488DF8243002F0C7
:1065700005FD18B10C4A8C2114F0E9FB009503AB22
:1065800005222146094802F0FBFC18B1064A8D217C
:1065900014F0DDFB0BB030BD50425F52F02D0020F7
:1065A000DA2E0020F831002048C90300C430002052
:1065B0002DE9F043A24C2378012B87B0254600F04B
:1065C0005D8106D3022B00F0B08178460BF0CCF849
:1065D00008E0312833D008DC0A2803D00D2801D088
:1065E00001300DD107B0BDE8F083332800F09B8067
:1065F000C0F28B80342800F0C680352800F0F0808F
:10660000904B1B685904EDD58F4B1B68032BE9DDBC
:106610002F218E4816F042F8002800F008812F2123
:106620008A4816F03BF8411C894B8A4AD3F8043556
:10663000009204204FF4957210F02CF8D2E7864BAC
:1066400001221A70CEE704A937F814004FEA440972
:1066500009F08EFD20B17D4A40F2051114F077FB60
:106660009DF81030012B02D078460BF07DF833688E
:106670005B041DD5744B1B68032B19DD2F21734858
:1066800016F00CF8002837D02F21704816F006F8C5
:10669000411C37F80920D8F804350292BDF81220C1
:1066A00001926E4A0092042040F209120FF0F2FFAC
:1066B00001346B4B634E1B68A342C4D833685F043C
:1066C00017D5614B1B68032B13DD2F215F4815F095
:1066D000E5FFF8B12F215D4815F0E0FF411C5C4B50
:1066E000604AD3F804350092042040F20B120FF0F8
:1066F000D1FF01232B7075E75C21544815F0CEFFC4
:1067000008B15C21C1E75149C3E70024564FDFF8C7
:106710004081CEE75C214D4815F0C0FF08B15C21F7
:10672000D9E74A49DBE7514802F008F90446002856
:106730003FF458AF434B1B685E047FF553AF424BA9
:106740001B68002B7FF74EAF2F21404815F0A6FFA6
:1067500080B12F213D4815F0A1FF411C3C4B444A1C
:10676000D3F804350092019440F2131201200FF087
:1067700091FF37E75C21354815F090FF08B15C21A7
:10678000E8E73249EAE7394802F0FAF80446002817
:106790003FF428AF2B4B1B685D047FF523AF2A4BDA
:1067A0001B68002B7FF71EAF2F21284815F076FFBE
:1067B00068B12F21254815F071FF411C244B2D4A4B
:1067C000D3F804350092019440F21B12CEE75C210D
:1067D0001E4815F063FF08B15C21EBE71B49EDE7AC
:1067E000184B1B68580417D5174B1B68032B13DD78
:1067F0002F21164815F052FF80B12F21134815F0B4
:106800004DFF411C124B1C4AD3F804350092042062
:106810004FF490720FF03EFF02236BE75C210B48B0
:1068200015F03CFF08B15C21E8E70849EAE75C2184
:10683000064815F033FF08B15C21F1E60349F3E6A1
:10684000AC320020102E00200C2E002048C903007E
:10685000001001403BC70300C62E00200CCB0300F4
:10686000D42E002026CB0300BE2E0020383200207C
:106870004DCB030078CB0300A4CB030030380928AC
:106880003FF6B0AE2F4B81B2188807F0BDFE2E4BFD
:1068900004461B6828B35A0418D52C4B1B68002BE0
:1068A00014DD2F212A4815F0F9FE88B12F21284840
:1068B00015F0F4FE411C274B274AD3F8043500920B
:1068C00001944FF49B7201200FF0E4FE002311E7C6
:1068D0005C211F4815F0E2FE08B15C21E7E71C4986
:1068E000E9E75B04F2D5194B1B68032BEEDD2F2182
:1068F000174815F0D3FE78B12F21154815F0CEFEBC
:10690000411C144B154AD3F80435009204204FF46F
:106910009D720FF0BFFED9E75C210D4815F0BEFE59
:1069200008B15C21E9E70A49EBE7303802283FF675
:1069300059AE0B4B042103EB0010FFF7EFFD0023D2
:1069400023704FE638320020102E00200C2E00203D
:1069500048C9030000100140C6CB0300EFCB030081
:106960007C3200202DE9F0410378C6B004460A2BA2
:1069700015D8DFE813F00B0017003C0014001400DA
:10698000140014009F01140021015E00A34D29781A
:10699000012904D10430FFF7C1FD00232B7046B05C
:1069A000BDE8F0819E4B1B685B04F8D59D4B1B68CE
:1069B000032BF4DD2F219C4815F070FE70B12F21C0
:1069C000994815F06BFE411C984B994AD3F8043551
:1069D00000929D2204200FF05DFEE0E75C219248CA
:1069E00015F05CFE08B15C21EAE78F49ECE78C4BBF
:1069F0001B685F04D3D58B4B1B68032BCFDD2F2186
:106A0000894815F04BFE58B12F21874815F046FEF6
:106A1000411C864B874AD3F804350092A122D9E75E
:106A20005C21814815F03AFE08B15C21EDE77E4912
:106A3000EFE77B4F3B685E041ED57A4B1B68032B48
:106A40001ADD2F21784815F029FE002800F09980E2
:106A50002F21754815F022FE411C774A734B12888E
:106A6000D3F804350292E268D28A0192734A009206
:106A70000420A6220FF00EFE3B685D0430D5694B62
:106A80001B68032B2CDD6E4BA668196805AD00232F
:106A9000F25C100902F00F02085C05F81300885C34
:106AA00005EB43020133102B5070F1D100232F214D
:106AB0005D4885F8203015F0F1FD00286AD02F21BF
:106AC000594815F0EBFD411C584B5E4AD3F804358C
:106AD00001925D4A00920295A72204200FF0DAFD90
:106AE0005A4DDFF880812968594E08EB4101308802
:106AF00009F0D6FA18B14C4AAA2114F028F92B68EB
:106B0000544AE0684C49C08A0988013302EB4303C8
:106B1000A26809F045FE18B1434AAE2114F017F9F6
:106B20003B6858041ED53F4B1B68032B1ADD2F21F1
:106B30003D4815F0B3FD002835D02F213A4815F017
:106B4000ADFD411C2A68394B38F81220D3F80435C2
:106B50000292E268D28A01923F4A00920420B32254
:106B60000FF098FD2B683D4A01332B601288338863
:106B7000C82113444FF4F0100422338000F07AFB54
:106B80000DE75C21284815F089FD08B15C2160E71C
:106B9000254962E75C21244815F080FD08B15C219D
:106BA0008EE7214990E75C211F4815F077FD08B179
:106BB0005C21C3E71C49C5E710230022012140687E
:106BC00002F00AFA164B054600284DD01B685904FE
:106BD0007FF5E5AE134B1B68002B7FF7E0AE2F214E
:106BE000114815F05BFD78B12F210F4815F056FDC7
:106BF000411C0E4B1A4AD3F8043500920195C3226A
:106C000001200FF047FDCAE65C21074815F046FD5C
:106C100008B15C21E9E70449EBE700BFC62E00207C
:106C2000102E00200C2E002048C903000010014047
:106C300070C9030095C90300D22E0020B5C9030016
:106C4000142E0020E9C90300E7CA0300D42E002057
:106C5000F02D0020C82E0020F1C90300D82E0020FE
:106C600023CA0300BE2E00202F4A1B68217A118000
:106C70005A047FF594AE2D4B1B68032B7FF78FAE24
:106C80002F212B4815F00AFD58B12F21284815F067
:106C900005FD411C274B284AD3F804350092C82231
:106CA00098E65C21224815F0F9FC08B15C21EDE77B
:106CB0001F49EFE7214B05AD03F11006186859682D
:106CC0002A4603C20833B3421546F7D1102205A95C
:106CD000606802F08DF918B1154AD12114F037F827
:106CE000174B1B685B047FF55AAE104B1B68032BD8
:106CF0007FF755AE2F210E4815F0D0FC58B12F214B
:106D00000B4815F0CBFC411C0A4B0E4AD3F8043556
:106D10000092D2225EE65C21054815F0BFFC08B166
:106D20005C21EDE70249EFE7D82E00200C2E002071
:106D300048C903000010014057CA03001CC70300E4
:106D4000102E002074CA030000B5AC4CAC4A93B0BE
:106D500004214FF4C0400FF081FC23685D0419D575
:106D6000A84B1B68032B15DD2F21A74815F096FCB7
:106D7000002800F089812F21A34815F08FFC411CC9
:106D8000A24BA34AD3F80435009204204FF4BC72FE
:106D90000FF080FC0AF01CFB20B19B4A4FF4BD7140
:106DA00013F0D5FF00F098FA00F086FB00212022B6
:106DB00009A815F0A3FB01238DF8243007238DF8D3
:106DC000273006238DF82C300DF10F01914B1193D4
:106DD00009A800F09DF9F8B10B2840F067812368FD
:106DE000580419D5874B1B68032B15DD2F218648C6
:106DF00015F054FC002800F050812F21824815F036
:106E00004DFC411C814B844AD3F804350092042088
:106E100040F263120FF03EFC9DF80F1039BB1022B8
:106E200005A815F06BFB7D4B1868049004A809F0C9
:106E3000F1F820B1744A40F26F1113F088FF784ADC
:106E40007849002009F0ECFA20B16F4A4FF4B8718C
:106E500013F07DFF7249744B098805AA002009F0E0
:106E60004BFD20B1684A40F2711113F070FF6421AC
:106E70006E4800F095F96E4A1068516809AB03C37B
:106E80001189927A19809A706A4B00936A4A6B4909
:106E90006B4809AB02F044F818B15B4A7B2113F050
:106EA00056FF684803F052FC0146654802F052F86C
:106EB00018B1554A7C2113F04AFF634801F082FD66
:106EC00001465F4802F046F818B14F4A7D2113F0A1
:106ED0003EFF584802F006F918B14B4A7E2113F0E4
:106EE00036FF5A4D0AF078FC00F052FA0423294686
:106EF00057482B6009F096F920B1434A4FF4C57109
:106F000013F025FF2B68C3B1013B514A09A932F8A0
:106F1000130009F02DF920B13B4A40F28F1113F014
:106F200016FF9DF82430012B02D078460AF01CFC95
:106F3000BDF82630474A10331380236859041CD506
:106F4000304B1B68032B18DD2F212F4815F0A6FBB3
:106F5000002800F0B1802F212B4815F09FFB411C29
:106F60003C4A2A4B1288D3F8043501923A4A0092DF
:106F7000042040F297120FF08DFB23685A041BD5B2
:106F8000204B1B68032B17DD2F211F4815F086FBB4
:106F9000002800F09A802F211B4815F07FFB411C30
:106FA0001A4B2A68D3F8043501922C4A0092042027
:106FB0004FF4CC720FF06EFB00F09CF820B1124A37
:106FC0004FF4CD7113F0C3FE23685B044ED50D4B17
:106FD0001B68032B4ADD2F210B4815F05FFB0028AF
:106FE0007CD02F21084815F059FB411C074B1C4A47
:106FF000D3F804350092042034E000BF102E0020A6
:10700000316603000C2E002048C903000010014027
:1070100066C80300B9620200AAC803002CC70300B7
:10702000D22E002056C80300BC2E0020B1650200FD
:1070300030C7030065690200DA2E0020F831002015
:10704000C4300020FC2E002038320020D42E002036
:10705000BE2E0020F02D0020F8C8030023C9030035
:107060003BC703004FF4CE720FF014FB00214FF426
:10707000F01000F0F5F80222C8214FF4F01000F0F3
:10708000F9F8FFF717F9FCE75C21194815F006FB42
:1070900008B15C2170E6164972E65C21144815F0CF
:1070A000FDFA08B15C21A9E61149ABE6104A4FF49C
:1070B000B47113F04CFEAFE65C210D4815F0EEFA0A
:1070C00008B15C2148E70A494AE75C21084815F005
:1070D000E5FA08B15C215FE7054961E75C210448F6
:1070E00015F0DCFA08B15C217CE701497EE700BFBE
:1070F00048C903000DF074BA08B50DF055FE07F04D
:1071000011F908F0DFFEBDE808400CF043BD0000B7
:1071100073B50E46054688B30DF0FEF9044650BB24
:1071200008F064FF07F046F9286905F005FD0446FC
:1071300008BB2B7F0193AB69009301466B69104834
:107140004FF6FF7205F0A8FF0446A0B92B6A03B101
:10715000984711F05DFB08F067FE054606F05CFEFF
:107160000B2D01D00B2802D1FFF7C6FF0B2409F02D
:107170002BFF06B13070204602B070BD0E24FAE736
:10718000B032002010B5054C226832B113F010FF68
:10719000002802DB23689847F8E710BD0833002079
:1071A000154B164A10B50C461860012114480AF018
:1071B00069F918B1134A4A2113F0C9FD610C002383
:1071C000E00341F26F728B4208BF824210D24FF44B
:1071D0007A72002314F0B0FF014600220A480AF038
:1071E00063F938B1074A4B21BDE8104013F0AFBD39
:1071F0000521F2E710BD00BF0833002085710200B1
:10720000FCCB030000CC03000C33002070B5104C05
:10721000206808B913F08EFD4FF0A0450D4ED5F84B
:10722000043532685340C5F804352368013B2360B8
:1072300063B909480AF080F93268D5F8043523EAC1
:107240000203064A12681343C5F8043570BD00BF37
:107250002C33002030330020343300205C330020F6
:107260004FF0A04311B1C3F80C057047C3F80805EF
:1072700070470000F8B52AB3132923D9124B134DD8
:107280005200013A4FF0A0441A602860D4F8043547
:1072900018400F4B4FF4FA76186000274FF4004067
:1072A000E0FB01674FF47A7200233046394614F050
:1072B00043FF0022014607480AF0F6F810B92B6890
:1072C000C4F80C35F8BD00BF2C330020303300204B
:1072D0005C3300203433002008B54FF0A043032274
:1072E0004FF40031C3F84427C3F808154FF4802148
:1072F000C3F84827C3F808154FF40021C3F84C27FA
:10730000C3F80815C3F850274FF48012C3F80825B6
:107310000121054A05480AF0B5F818B1BDE8084052
:1073200013F008BD08BD00BF0D72020024CC03009D
:10733000124B70B50024124E124DC3F87C414FF031
:10734000A043A15DD3F8102501238B40934311D0B6
:107350000D49D5F804250B68981A48BFD01A43F296
:107360003333984206D9D5F804350B60074B2046D5
:107370001B6898470134042CE1D170BD00600040C7
:1073800028CC030000100140583300205433002063
:1073900070B50446CEB0002864D03C4D2A68520433
:1073A0002FD53B4B1B68032B2BDD3A4B0DAE1968D9
:1073B0000023E25C100902F00F02085C06F81300DB
:1073C000885C06EB43020133102B5070F1D100238F
:1073D0002F21314886F8203015F060F9002843D07D
:1073E0002F212D4815F05AF9411C2C4B2C4AD3F86B
:1073F000043501922B4A00920296412204200FF09C
:1074000049F92B685B042DD5214B1B68032B29DD23
:107410002F21214815F042F900282ED02F211E4897
:1074200015F03CF9411C1D4BE27BD3F804350B925F
:10743000A27B0A92627B0992227B0892E27A0792EF
:10744000A27A0692627A0592227A0492E2880392E4
:10745000A288029222680192134A009204204622D6
:107460000FF018F94EB070BD5C210B4815F016F9FD
:1074700008B15C21B5E70849B7E75C21064815F07B
:107480000DF908B15C21CAE70349CCE7102E0020B2
:107490000C2E0020142E00202CCC030000100140E4
:1074A00054CC0300E7CA030066CC030060DF7047DA
:1074B00069DF70470DF0EEB810B588B000F04AF9FA
:1074C00008B113F037FC2B4B0393039B04930C225E
:1074D000002105A815F012F80023049A8DF8143045
:1074E00005A90120FFF7E4FF08B113F023FC0C22EB
:1074F000002105A815F002F8F823049A059305A9C0
:10750000A120FFF7D5FF08B113F014FC04A8FFF782
:10751000CDFF039B049A9A4204461CD0164B1B686D
:107520005B0418D5154B1B68012B14DD2F21144863
:1075300015F0B4F8A8B12F21114815F0AFF8411C8F
:10754000104B049AD3F8043501920F4A009202209E
:10755000A2220FF09FF814B1204613F0EBFB08B005
:1075600010BD5C21064815F099F808B15C21E3E7ED
:107570000349E5E7F02D0020102E00200C2E0020FE
:10758000A6CC030000100140D6CC030070B5EFF389
:10759000108672B60C4A946801239CB993600B4B19
:1075A0000B4DD3F8801029401160C3F88050D3F8F8
:1075B000841051604FF0FF32C3F88420047006B984
:1075C00062B670BD0370FAE77451002000E100E07C
:1075D000FC06FFBD10B5084B9A685AB150B9EFF3DD
:1075E000108172B6054A1C6814605C68546098602B
:1075F00001B962B610BD00BF7451002000E100E087
:1076000001600B6843604A68934204BF00234360F3
:107610007047436843B1026891680B444360526805
:10762000934204BF0023436070474BDF7047000064
:107630001FB50D4C01A8FFF7F8FF70B9214602A84D
:10764000FFF7DEFF039B002BF4D00198D3E9002164
:10765000904702A8FFF7DDFFF4E7052801D013F0FB
:1076600069FB04B010BD00BF10CD030061DF70479F
:1076700030B5114B1B7891B0E3B1104D34240DF1AE
:10768000020103A8ADF80240FFF7F0FF70B92946E8
:1076900001A8FFF7B5FF029B002BF0D003A8D3E9A8
:1076A0000021904701A8FFF7B4FFF4E7052801D0B7
:1076B00013F040FB11B030BD603300201CCD03003F
:1076C00010DF704713B5044609496846FFF798FF75
:1076D000019808B902B010BDD0E9003120469847A2
:1076E00018B16846FFF795FFF2E71120F2E700BFF7
:1076F0002CCD030013B5044607496846FFF780FF09
:10770000019B0BB902B010BD2046D3E90021904780
:107710006846FFF77EFFF3E744CD03000B4991F87D
:1077200016335A09EC231341DB0706D5084B9A6838
:107730003AB94FF480030B60704742F2020013F035
:10774000F9BA1A6842F480021A60704700E100E05A
:1077500074510020F7B5184F3C785CBB174E0125DB
:1077600020463570FFF7AEFF112820D02046FFF7E6
:10777000C1FF134B1868019002A800F8054DFFF7F0
:1077800005FF104901A8FFF79BFF0446B0FA80F0FF
:10779000400938709DF80300FFF71CFF3CB90A4B05
:1077A00034701C70FFF7BAFF2846FFF7A3FF20468E
:1077B00003B0F0BD0824FAE76233002061330020F3
:1077C00028CD0300691503006333002007B508497D
:1077D0006846FFF715FF019B13B903B05DF804FB82
:1077E000D3E9002090476846FFF713FFF3E700BF97
:1077F00038CD0300FFF7EABF13B5154B1B689B0498
:10780000044619D5134B1B68012B15DD2F21124897
:1078100014F044FF98B12F210F4814F03FFF411C92
:107820000E4B227ED3F8043501920D4A00920220BD
:107830004FF4B0720EF02EFF207E02B010BD5C211E
:10784000054814F02BFF08B15C21E5E70249E7E7A2
:10785000102E00200C2E0020B1D00300001001409B
:10786000E9D003001FB50023024601A8CDE901338A
:1078700003938DF80410904705B05DF804FB0000F9
:107880007FB5067E4B68042E04465D680ED12B78CA
:10789000002B36D003690221DB6804309847E06B87
:1078A0003146FFF7DFFF012004B070BD164B1B68A7
:1078B0009B041BD5154B1B68032B17DD2F21144888
:1078C00014F0ECFEA0B12F21114814F0E7FE411C8A
:1078D000104B227ED3F8043502922A7801920E4A88
:1078E0000092042040F286220EF0D4FE207EDBE7D8
:1078F0005C21074814F0D2FE08B15C21E4E704499A
:10790000E6E70220D0E700BF102E00200C2E00205A
:10791000B1D00300001001404BD0030037B504463E
:10792000007E4B6802285D6829D003287BD0754B08
:1079300001281B6840F0C0802A7803F4005302B38A
:10794000012A43D0D3B1704B1B68042B16DD2F21C5
:107950006E4814F0A3FE00285CD02F216B4814F071
:107960009DFE411C6A4B2A78D3F804350192694A7E
:107970000092052040F2BB120EF08CFE207E03B078
:1079800030BD002BFBD0604B1B68042BF7DD2F2193
:107990005E4814F083FE80B12F215C4814F07EFE17
:1079A000411C5B4B5C4AD3F804350092052040F241
:1079B000B3120EF06FFE0120E1E75C21534814F092
:1079C0006DFE08B15C21E8E75049EAE7BBB14E4BD8
:1079D0001B68042B13DD2F214C4814F05FFE80B18F
:1079E0002F214A4814F05AFE411C494B4B4AD3F808
:1079F00004350092052040F2B7120EF04BFE022033
:107A0000BDE75C21414814F049FE08B15C21E8E77C
:107A10003E49EAE75C213D4814F040FE08B15C2194
:107A20009CE73A499EE72B78052B1DD801A252F816
:107A300023F000BFB77902004D7A0200577A0200A6
:107A4000617A0200657A0200FF7902000621E06B8C
:107A5000FFF708FFD3E70821E06BFFF703FFAAE772
:107A60000521F9E70921F7E7264B1B689A04A2D5FF
:107A7000254B1B68032B9EDD2F21244814F00EFE9E
:107A800088B12F21214814F009FE411C204B2A788F
:107A9000D3F804350192224A0092042040F2DF120A
:107AA0000EF0F8FD87E75C21184814F0F7FD08B1E7
:107AB0005C21E7E71549E9E79B047FF55FAF124BCF
:107AC0001B68032B7FF75AAF2F21104814F0E6FDF7
:107AD00078B12F210D4814F0E1FD411C0C4B2A78A0
:107AE000D3F8043501920B4A009204204FF4F2724D
:107AF00042E75C21054814F0D1FD08B15C21E9E7BB
:107B00000249EBE7102E00200C2E0020B1D003001C
:107B100000100140B7CE03008ACE0300A3CE0300BD
:107B2000CCCE030037B50446007E052829D14B682A
:107B30005D682B78032B5AD8DFE803F0022E5557E7
:107B40003F4B1B68990417D53E4B1B68042B13DD74
:107B50002F213D4814F0A2FDA8B12F213A4814F07E
:107B60009DFD411C394B3A4AD3F80435009205205B
:107B70004FF4C6720EF08EFD0021E06BFFF772FE2F
:107B8000012003B030BD5C212F4814F087FD08B1FF
:107B90005C21E3E72C49E5E7294B1B689A0417D5DC
:107BA000284B1B68042B13DD2F21274814F076FD8A
:107BB00080B12F21244814F071FD411C234B254A2C
:107BC000D3F804350092052040F291120EF062FDC8
:107BD0000121D2E75C211C4814F060FD08B15C2152
:107BE000E8E71949EAE70221C7E70321C5E7144B93
:107BF0001B689B04C4D5134B1B68012BC0DD2F21D0
:107C0000114814F04BFD88B12F210F4814F046FDA8
:107C1000411C0E4B2A78D3F8043501920E4A00928B
:107C2000022040F2A1120EF035FDA9E75C210648C2
:107C300014F034FD08B15C21E7E70349E9E700BF30
:107C4000102E00200C2E0020B1D0030000100140A7
:107C5000E9CF03000BD003002FD0030010B5037E43
:107C6000032B044603D3042B05D9052B0CD07846EF
:107C700009F07AFD0CE0036902210430DB689847C3
:107C80000421E06BFFF7EEFD0A21E06BFFF7EAFD50
:107C9000012010BD70B50385012316464FF6FF7510
:107CA0000C4A80F82A30022301844584426280F81D
:107CB0002B3004460CF0F4FC2686E062658604F165
:107CC0001C0007F04FFA20B17846BDE8704009F07B
:107CD0004BBD70BD6533002013B5037E012B0446F8
:107CE00009D1002348F2670248F26401FFF7D2FF8E
:107CF000052002B010BD144B1B689B0419D5134B13
:107D00001B68012B15DD2F21114814F0C7FC90B121
:107D10002F210F4814F0C2FC411C0E4B227ED3F8D9
:107D2000043501920C4A0092022040F27D120EF0BE
:107D3000B1FC207EDDE75C21054814F0AFFC08B102
:107D40005C21E6E70249E8E7102E00200C2E002017
:107D5000B1D0030000100140AECF030013B5037E85
:107D6000012B044609D1002348F2670248F265015D
:107D7000FFF790FF052002B010BD144B1B689B0459
:107D800019D5134B1B68012B15DD2F21114814F059
:107D900085FC90B12F210F4814F080FC411C0E4B44
:107DA000227ED3F8043501920C4A009202204FF44F
:107DB000B7720EF06FFC207EDDE75C21054814F001
:107DC0006DFC08B15C21E6E70249E8E7102E0020CF
:107DD0000C2E0020B1D0030000100140CCCF0300D6
:107DE00037B5037E022B04460D4614D18B88412BF8
:107DF00002D9784609F0B8FCAA881B48A91D14F0DE
:107E000072FB2046AB8848F260021221FFF742FF66
:107E1000042003B030BD154B1B689B0419D5144BCF
:107E20001B68012B15DD2F21124814F037FC90B18F
:107E30002F21104814F032FC411C0F4B227ED3F846
:107E4000043501920D4A0092022040F2D9220EF030
:107E500021FC207EDDE75C21064814F01FFC08B100
:107E60005C21E6E70349E8E765330020102E002097
:107E70000C2E0020B1D00300001001403BCF0300C6
:107E800010B5037E012B044611D10A2380F840303F
:107E900010220431084814F026FB2046102348F233
:107EA000630248F26201FFF7F5FE032010BD784639
:107EB00009F05AFC207EF9E76533002013B5037EF4
:107EC000022B04460CD11B4B0A791A7048F261014F
:107ED000012348F26302FFF7DDFE032002B010BD6C
:107EE000154B1B689B0419D5144B1B68012B15DD22
:107EF0002F21134814F0D2FB90B12F21104814F019
:107F0000CDFB411C0F4B227ED3F8043501920E4A63
:107F10000092022040F23E220EF0BCFB0120DDE781
:107F20005C21074814F0BAFB08B15C21E6E704497C
:107F3000E8E700BF65330020102E00200C2E002043
:107F4000B1D003000010014060CE03002DE9F041E4
:107F5000384C237896B0804653B90123364E374FBC
:107F6000237004A936480BF057FC20B1002323707E
:107F700016B0BDE8F08133689A041AD5314B1B68FE
:107F8000042B16DD2F21304814F088FB00283ED04A
:107F90002F212D4814F082FB411C9DF81020D7F8AA
:107FA00004350192294A0092052040F2ED220EF09C
:107FB00071FB9DF81020264B04A953F8223040464F
:107FC000984798F8183083420546CAD033689B0416
:107FD0001AD51C4B1B68042B16DD2F211A4814F0F0
:107FE0005DFBE8B12F21184814F058FB411C98F8AC
:107FF0001820D7F804350192164A0092029540F2F3
:10800000F72205200EF046FB88F81850A9E75C21FE
:108010000D4814F043FB08B15C21BAE70A49BCE7FC
:108020005C21094814F03AFB08B15C21DBE7064902
:10803000DDE700BF64330020102E00200010014057
:10804000A83300200C2E0020B1D0030038D103004B
:1080500028CE030044D1030030B5154695B00C4638
:1080600011B9784609F080FB012D2DD005D3022DE2
:1080700065D0784609F078FB56E0434B1B689904BD
:1080800052D5424B1B68042B4EDD2F21404814F083
:1080900005FB80B12F213E4814F000FB411C3D4BF5
:1080A000228CD3F8043501923B4A00920520E92244
:1080B0000EF0F0FA38E05C21354814F0EFFA08B120
:1080C0005C21E8E73249EAE72F4B1B689A0418D590
:1080D0002E4B1B68012B14DD2F212D4814F0DEFAE6
:1080E00020B32F212A4814F0D9FA411C294B228CA5
:1080F000D3F804350192294A00920220EE220EF0B4
:10810000C9FA0021482202A814F0F8F90D2302A9A7
:1081100023488DF808300BF057FB10B1784609F072
:1081200023FB2046FFF712FF15B030BD5C21184835
:1081300014F0B4FA08B15C21D4E71549D6E7124B24
:108140001B689B04F0D5114B1B68012BECDD2F2124
:108150000F4814F0A3FA70B12F210D4814F09EFAC5
:10816000411C0C4B228CD3F8043501920D4A00922D
:108170000220F6229CE75C21054814F08FFA08B132
:108180005C21EAE70249ECE7102E00200C2E0020CB
:10819000B1D00300001001407ACD030094CD03005C
:1081A000A8330020B9CD030030B50D4693B0044686
:1081B00010B9784609F0D8FA48220021684614F030
:1081C0009DF90723694606488DF800308DF8045064
:1081D0000BF0FAFA201FFFF7B9FE13B030BD00BF55
:1081E000A833002070B50E4692B0054600B111B913
:1081F000784609F0B9FA2B7D012B14D112AC0B2370
:1082000004F8483D1022314601A814F06CF92146CB
:1082100006480BF0D9FA044610B9281FFFF796FE5E
:10822000204612B070BD0824FAE700BFA833002032
:1082300030B50C4693B0D0B1C9B10C200D4D8DF8BE
:1082400000000DF10600ADF8042014F04CF92B6885
:10825000227883F84020694607480BF0B5FA0446B7
:1082600010B92868FFF772FE204613B030BD0E2407
:10827000FAE700BF4C340020A833002008B506F010
:10828000B5F930F0040304D07846BDE8084009F0A1
:108290006BBA08BDF0B5037E022B89B005460E46C9
:1082A00025D0042B414B1B685BD19A0418D5404B59
:1082B0001B68042B14DD2F213E4814F0EFF9002831
:1082C00039D02F213B4814F0E9F9411C3A4B3B4A85
:1082D000D3F80435009205204FF424720EF0DAF939
:1082E000288806F00BFF10B1784609F03DFA736854
:1082F0005B681B7843BB324A049203AA05920224AE
:108300000122ADF818208DF81A308DF81B400CF0C2
:10831000C7F92F460323079004AA716837F8040BA6
:108320008DF80C30FFF7AAFF2B6938465B68984739
:10833000204609B0F0BD5C211E4814F0AFF908B129
:108340005C21BFE71B49C1E71E4B32791A702846F2
:10835000012348F2630248F26101FFF79BFC03200E
:10836000E7E79B0417D5124B1B68032B13DD2F2166
:10837000104814F093F980B12F210E4814F08EF9B3
:10838000411C0D4B104AD3F804350092042040F2F2
:10839000AF220EF07FF9287ECBE75C21054814F070
:1083A0007DF908B15C21E8E70249EAE7102E0020D8
:1083B0000C2E0020B1D003000010014070D003004B
:1083C0006080FFFF653300207ED00300F0B58BB0E6
:1083D000474B069305AB079301230446ADF82030C5
:1083E00000238DF8223002238DF823300F460CF045
:1083F00057F9237E0990022B01D0042B4FD17B68C3
:108400005E6894F8403032789A422BD2394B1B6820
:108410009A041CD5384B1B68032B18DD2F213748D5
:1084200014F03CF9A8B12F21344814F037F9411C5D
:10843000334B94F84020D3F80435029232780192FD
:10844000304A009204204FF416720EF023F9207E79
:1084500023E05C21294814F021F908B15C21E3E70D
:108460002649E5E7208806F049FE20B1052802D01C
:10847000784609F079F92546002306AA796835F887
:10848000040B8DF81430FFF7F9FE7A68236912891E
:108490001B6828463146984702200BB0F0BD154BAB
:1084A0001B689B04D3D5144B1B68032BCFDD2F21F6
:1084B000124814F0F3F888B12F21104814F0EEF8A8
:1084C000411C0F4B227ED3F8043501920E4A0092D4
:1084D00004204FF41B720EF0DDF8B8E75C2107486A
:1084E00014F0DCF808B15C21E7E70449E9E700BFD4
:1084F0006080FFFF102E00200C2E0020B1D0030062
:108500000010014057CF030081CF0300F0B54B6846
:108510005E68037E013B8BB004460F46032B75D883
:10852000DFE803F009090202008806F0E7FD10B158
:10853000784609F019F94B4B069305AB00220793D7
:108540000223ADF820308DF822208DF823300CF076
:10855000A7F8254640F20513099006AA796835F870
:10856000040BADF81430FFF789FE3378042B1AD8CA
:10857000DFE803F01203070707000721E06BFFF7AE
:1085800071F923697178DB68284698470421E06B0C
:10859000FFF768F9012004E0236928469B689847A3
:1085A00002200BB0F0BD23690221DB682846984702
:1085B0000421E06BFFF756F92B4B1B689A04E9D5B1
:1085C0002A4B1B68012BE5DD2F21294814F066F8A2
:1085D00098B12F21264814F061F8411C254B227ECA
:1085E000D3F80435029232780192234A0092022095
:1085F0004FF409720EF04EF8CCE75C211C4814F0E1
:108600004DF808B15C21E5E71949E7E7164B1B680F
:108610009B041BD5154B1B68012B17DD2F2114481C
:1086200014F03CF8A0B12F21114814F037F8411C88
:10863000104B227ED3F804350292327801920F4A11
:108640000092022040F22A220EF024F8207EA8E7B1
:108650005C21074814F022F808B15C21E4E70449E2
:10866000E6E700BF6380FFFF102E00200C2E0020E5
:10867000B1D0030000100140ECCE03000FCF030087
:10868000F0B58BB02F4B069302AB0446079300273F
:1086900002230E46ADF820308DF823308DF822707D
:1086A0000BF0FEFF237E71680990012B4D6815D1F8
:1086B0002B7C20888DF8093006AA8DF80870FFF70A
:1086C000DDFD0B238DF80C302B7C8DF814300495D8
:1086D000E36B03A89847207E0BB0F0BD1A4B1B68D4
:1086E0009B0419D5194B1B68032B15DD2F21184846
:1086F00013F0D4FFE0B12F21154813F0CFFF411C38
:10870000144B227ED3F804350192134A00920420C0
:108710004FF4A9720DF0BEFF01238DF8083006AAB0
:108720002B7C716820888DF80930FFF7A7FDD2E710
:108730005C21074813F0B2FF08B15C21DCE7044973
:10874000DEE700BF6D80FFFF102E00200C2E002002
:10875000B1D003000010014014D103002DE9F04115
:108760000C469EB0154612B9784608F0FDFF514BF5
:1087700001AA03F1280C174618685968164603C663
:10878000083363453246F7D11B883380218812298C
:1087900009D108238DF830302389013B402B14D9AF
:1087A0001EB0BDE8F0810022062000FB02F3FE5A55
:1087B0008E4237D11EAA1344228933F8721C91428B
:1087C000EED113F8703C8DF830301EAE4FF6FF78C6
:1087D00026F8788D2888314605F030FF60B9BDF85D
:1087E0000000404508D0394607F0C2FC20B9BDF86A
:1087F0000620E3899A4224D04FF6FF73ADF8063085
:10880000238848F263029342CAD00FD8112B05D3B4
:10881000122B48F2600221D99342C1D0784608F069
:10882000A3FFBDE70132072ABFD1B9E748F26A01C9
:108830008B422BD048F26C018B4233D048F2670256
:10884000EAE70CA91C480D940AF0BEFF10B1784667
:1088500008F08AFF2846FFF779FBA1E704238DF88B
:1088600000300123ADF80C3000238DF80E300223C8
:10887000ADF8042002968DF80F300BF011FF3A4648
:10888000049021462888FFF7F9FC89E705238DF835
:10889000003048F26703ADF8043002960123ADF8CA
:1088A0000C30EAE70623ADF80030ADF8042002965C
:1088B0000223F4E750CD0300A833002030B50D4665
:1088C00087B0044640B33AB3144BC26318601448EF
:1088D00002238360134B0360482343600AF05AFF6E
:1088E000114B0093114B02930723CDE9033421462A
:1088F00000236846ADF80450059305F077FD48B9AC
:108900002388A3830A4BA3630A4B63630123237663
:10891000094B187007B030BD0E20FBE74C34002027
:10892000A8330020BC330020FFFF0480F0CD0300FB
:1089300059800200008793036433002030B5054658
:1089400093B0B0B1037E012B15D1482200216846B7
:1089500013F0D4FD0223694608488DF800300AF070
:1089600033FF044610B92846FFF7F0FA204613B04B
:1089700030BD0E24FAE70824F8E700BFA833002032
:1089800030B5054693B0B0B1037E012B15D1482216
:108990000021684613F0B2FD0323694608488DF8AC
:1089A00000300AF011FF044610B92846FFF7CEFA4E
:1089B000204613B030BD0E24FAE70824F8E700BFC4
:1089C000A833002010B5044610B9784608F0CCFE54
:1089D00004232372014BE360201D10BDDCCD030096
:1089E00000B5036993F80B2189B05AB1002283F8CE
:1089F0000B21022201938DF800208DF80810DB680E
:108A00006846984709B05DF804FB10B5046994F80E
:108A10000B31012B88B010D18DF8003068460194DD
:108A2000E368984704F1F50294F83111A06800F06A
:108A300083FB20B9032384F80B3108B010BDA06874
:108A4000836802211B699847F7E71FB5044600F1C8
:108A5000D50100F1A5036A4600F09AFC6946A068BA
:108A600000F0A1FB10B90F2384F80B3104B010BD46
:108A700030B590F80C3189B00446032B3BD8DFE8C1
:108A800003F0312B1D0200F1C505294600F05CFD05
:108A900005238DF8003094F806318DF8093094F8EC
:108AA00007318DF8083001940395102384F80B31B9
:108AB0006846E3689847002009B030BD06238DF86A
:108AC000003090F806318DF8093090F807318DF8B4
:108AD000083001900B23E9E707238DF8003001905F
:108AE0000C23E3E710220021C53013F007FD2046D8
:108AF000FFF7ABFFE0E70320DEE710B588B00446E0
:108B000000F0D2FD88B10A2384F80B310B238DF8D5
:108B100000306369039304F11803029368460194DB
:108B2000E3689847002008B010BD04F158012046C2
:108B300000F0F0FC0028F6D12046FFF799FFF2E79D
:108B400010B5046994F80B31062B88B01DD194F848
:108B500008315BB108238DF80030092384F80B310C
:108B60000194E3686846984708B010BD2169A06881
:108B700000F006FB18B9082384F80B31F4E7A0686D
:108B8000836802211B699847EEE7072BECD120464A
:108B9000FFF7B3FFE8E70000F0B50D46A7B00469A2
:108BA0000E782846114600F0B9FA08B1092E04D90A
:108BB000A068836802211B691AE1324694F80B1100
:108BC00094F8090100F07EFD48BB904B1B681B0721
:108BD000EED58F4B1B68042BEADD2F218D4813F057
:108BE0005DFD98B12F218B4813F058FD411C94F87E
:108BF0000B21894BD3F80435CDE90162874A0092F5
:108C0000052040F235120DF045FDD1E75C21814889
:108C100013F044FD08B15C21E5E77E49E7E72B78D6
:108C2000013B082BC4D801A252F823F0518C02005A
:108C3000B18B0200B98C0200E18C0200E98C0200C9
:108C40000D8D0200B18B0200CF8D0200F58D020068
:108C50000B22691C04F1F60013F045FC042384F890
:108C60000B3109238DF874306B788DF87C301E94AD
:108C70006A88130A43EA0223ADF87D302B798DF818
:108C80007F306B798DF88030AB798DF88130B5F815
:108C90000720130A43EA0223ADF882306B7A8DF87D
:108CA00084306A89130A43EA0223ADF88530E36809
:108CB0001DA8984727B0F0BD0135284600F01EFCDE
:108CC00000283FF475AF4022294604F1180013F044
:108CD0000AFC2046FFF711FF00287FF469AFE9E79F
:108CE0002046FFF7B2FEF7E7691C102204F1E50009
:108CF00013F0F9FB04F1A501A06800F067FA002861
:108D00007FF456AF112384F80B31D3E71022691C8E
:108D100004F1B50013F0E7FB204600F061FC0028E9
:108D20003FF446AF05AD09AE04F178032A4631465B
:108D300020460DAF00F08CFB0723102204F58C7148
:108D400038468DF8503013F0CEFBD4F82A31B4F801
:108D50002E211BBACDF84730130A43EA0223B4F898
:108D60002821ADF84B30130A43EA022394F830214E
:108D7000ADF844309DF846301F97C2F3400161F3CF
:108D80000003C2F3000262F341036FF387038DF81F
:108D900046301923ADF880300DF1510323930DF1C6
:108DA0006A03249300232193ADF888301DA808237B
:108DB000CDE91D658DF894300CF05BFD14A9A06819
:108DC00000F017FA00287FF4F3AE13239BE70A2381
:108DD0008DF8743004F178031F9304F58C731E949E
:108DE0002093E3681DA89847A06883681B69002149
:108DF00098475FE70C238DF874306B781E948DF8DC
:108E00007C30E3681DA89847D2E600BF102E0020F2
:108E10000C2E00206CD103000010014090D1030003
:108E200070B5044690F80B010E46B8B9A5680C4918
:108E3000E960194684F8090184F8312104F58C7041
:108E4000192213F050FBAB68064ADB68314628460E
:108E5000984710B9012384F80B3170BD0820FCE756
:108E60005CD103000087930337B5044690F80B01EB
:108E7000042836D1012907D0102B01D813B919B114
:108E800009202CE00029FBD094F8100184F80C1183
:108E9000012908BF102300F0010088BF8DF80420CD
:108EA00084F8072184F8063184F8080198BF00236C
:108EB0004FF002058DF802008DF8031004F1F50261
:108EC0006946A06894BFADF804308DF80530ADF860
:108ED000005000F045F910B9062384F80B3103B0B7
:108EE00030BD0820FBE790F80B310B3B012B01D87C
:108EF000FFF7ABBD0820704700790B79C31A5842C1
:108F00005841704710B5431E00F11002073013F8A6
:108F1000011F12F8014D1C7083421170F7D110BD72
:108F200038B5049D88B181B17AB173B16DB190F853
:108F30000B4164B9C0E90351426119460B2200F2AA
:108F40000D1013F0D0FA204638BD0E20FCE70820A3
:108F5000FAE7000038B50D46044650B149B1064A5B
:108F60000DF03AFB20B92C612A79636813436360E2
:108F700038BD0E20FCE700BFF98E020000F058BAA1
:108F80002DE9F0410E4617461D469DF8188004460F
:108F9000F0B1E9B1E3B11B8AB3F5805F02D30B20D6
:108FA000BDE8F081E88A0BF031FA0128F7D120689A
:108FB00048B9A06070B12B463A4631462046BDE81C
:108FC000F041FFF72DBF03794345F2D00068EFE78A
:108FD0000E20E5E70620E3E710B490F809411CB93C
:108FE0005DF8044BFFF740BF08205DF8044B704765
:108FF000F8B50E461546044600286FD000296DD0FE
:10900000102A6DD890F80631934269D190F80C314E
:10901000012B0DD1C53013F066FA94F809312A46B8
:1090200031462046002B55D1BDE8F840FFF75BBF25
:1090300090F80921DAB9022B21D190F80731032BDE
:109040001DD82946304600F00DFBC0B104F1C5071C
:1090500004223146384613F046FA0C22002104F16E
:10906000C90013F04BFA3846FFF74CFFD5E7012A49
:1090700005D1032B03D190F80731022BE0E794F8D8
:109080000931EBB994F80C31022B01D00820F8BD5E
:1090900094F80731042BF9D12946304600F0CEFA76
:1090A0000028F3D004F1C5072A463146384613F0AC
:1090B0001AFA05F1C500C5F1100200212044D0E7DD
:1090C000012BE3D194F80C31032BDFD194F8073155
:1090D000032BE0E7BDE8F84008F044BA0E20D6E7DD
:1090E0000920D4E708B518B100F0F4F8002008BD55
:1090F0000E20FCE770B5044616460D4611B97846B9
:1091000008F032FB14B9784608F02EFBA36832460B
:10911000294620461B68BDE87040184748B10378CF
:10912000092B05D8034AD05C431A5842584170476E
:1091300000207047B3D1030013B5002304468DF817
:10914000051010460DF1050101228DF8043013F0D1
:10915000CAF9022201A92046FFF7CCFF02B010BDD8
:1091600038B505460C4602F10C000131052213F01A
:10917000BAF9214628460622BDE83840FFF7BABFB3
:1091800030B593B012AC032304F8443D05464022A9
:109190000DF1050013F0A7F9412221462846FFF7FB
:1091A000A9FF13B030BD30B587B006AC052304F875
:1091B000143D054610220DEB030013F094F9112223
:1091C00021462846FFF796FF07B030BD30B587B07F
:1091D00006AC062304F8143D054610220DF10500E7
:1091E00013F081F9112221462846FFF783FF07B0CB
:1091F00030BD2222FFF77EBF70B506468AB0144606
:109200000D4609B3084613F041FA6A4681B2284672
:109210000CF091FB042269460DF1220013F063F972
:10922000162564BAADF8204008F0D6FA102201469F
:109230000DEB020013F057F92B4604AA002130462B
:109240000EF052FB0AB070BD1225EAE7F0B50F46EA
:1092500089B01446064610B9784608F085FA14B964
:10926000784608F081FA07F0FB03122B25D1184D40
:109270002A6812B320220021684613F03FF9102219
:10928000314601A8079413F02EF923785A1E534251
:1092900053410021162F8DF814308DF800100ED197
:1092A0000123042206F112010DF116008DF815308C
:1092B00013F019F92B686846984709B0F0BD0422ED
:1092C0000DF116008DF8151013F018F9F2E700BF34
:1092D0005034002010B5044610B9784608F044FA1E
:1092E000014B1C6010BD00BF503400200A78034BB6
:1092F00082B000201A7002B0704700BF55340020C1
:10930000024B1B780B7082B002B0704755340020BE
:10931000024B82B000221A7002B070475534002010
:1093200073B505460A4E68460C460BF0FFFC002359
:1093300024219C4201D802B070BD1DF80300B0FB8F
:10934000F1F201FB1202D2B2B25CEA540133F0E74F
:10935000C2D1030037B50D46042104460DEB0100D0
:109360000BF0E4FC094B019953F82520B1FBF2F313
:1093700002FB131304221BBA0DEB020104F10C00D3
:10938000019313F0B0F803B030BD00BFE8D1030083
:109390002DE9F0410446ACB00F46904600F1F501CE
:1093A000112207A81E4613F09EF894F8093104F123
:1093B0001805402293BB21690DF12D0013F093F89D
:1093C000402229460DF16D0013F08DF83A4607A8AA
:1093D00091210CF0B0FA03AD04233A46009304F156
:1093E0005800124B019520210CF0BBFA3046102199
:1093F0000BF09CFC3146102207A813F074F804F11E
:10940000C50110220BA813F06EF84346202207A9CD
:1094100028460CF02CFA2CB0BDE8F08129460DF15D
:109420002D0013F060F840222169CBE722D203001F
:1094300038B504460D4612F085FD29460246204601
:1094400012F084FD012814BF0320002038BD000065
:109450002DE9F043044697B08946904600F1D501C6
:1094600010220AA81F4613F03EF894F8093104F1BF
:10947000B50604F1A505102293BB29460EA813F0EA
:1094800032F81022314612A813F02DF85834042572
:1094900002AA0AA830210CF04EFA02AA2046CDF802
:1094A00004900095124B20210CF05BFA06ABCDE93D
:1094B000005302AA0F4B204620210CF052FA0DF166
:1094C0001B010D22404613F00EF8CDE900570A4B60
:1094D00002AA202120460CF044FA17B0BDE8F08320
:1094E00031460EA812F0FFFF10222946CBE700BF3D
:1094F00027D203002CD2030031D2030010B504465A
:1095000012F020FD0146204612F0FCFD003018BF8D
:10951000012010BD70B500F11804054620460E4626
:10952000FFF7ECFF10B9784608F01EF96D6912F0EC
:1095300009FD324603462946204612F045FD002823
:109540000CBF0320002070BD37B590F80631013BF9
:10955000072B04460D4602D9784608F005F910227B
:109560000021284612F0CAFF94F80C31022B03D0D8
:10957000032B16D003B030BD94F80731042BF9D873
:10958000DFE803F01E1E1E03090094F806112846AA
:10959000FFF7E0FEEEE794F806112846FFF7C0FE5D
:1095A000E8E794F80731032BE4D801A252F823F03E
:1095B000C1950200C19502008B95020097950200AB
:1095C00001210DF1070094F806410BF0AFFB9DF867
:1095D0000720B2FBF4F304FB13230133EB73C9E759
:1095E00030B593B002AD04230446009300F1D502D8
:1095F000114B0195202158300CF0B3F904F1B5015D
:1096000010220AA812F06FFF04F1C50110220EA863
:1096100012F069FF06AB0AA9284620220CF027F9B0
:10962000102204F1E50106A812F04EFFB0FA80F016
:10963000400913B030BD00BF22D2030010B502466E
:10964000131ADBB2994201D8012010BD12F8013B78
:10965000A3F13004092CF3D9413B192BF0D9002098
:10966000F3E70000082937B505460C4602D97846CD
:1096700008F07AF8042229460DEB020012F033FFBD
:10968000044B53F82400019B984294BF0020012012
:1096900003B030BDE8D10300024B014618680FF05B
:1096A0005BB900BFBED1030007B50DF10700FFF79E
:1096B000F3FF10B1784608F057F89DF8070003B0A3
:1096C0005DF804FB0A4B5B5C60B923F0800342F059
:1096D00040018B4204D0092A14BF002001207047AA
:1096E0000120704723F0400342F080008342F3E7FB
:1096F0000CD20300D1F8B83108461B69012100F5EE
:10970000D8701847F8B5114D2B68064613B978463E
:1097100008F02AF8EFF3108772B62C68B4420BD128
:10972000D6F8C4312B6007B962B6F8BD13B97846D4
:1097300008F01AF8D4F8C441D4F8C431B342F5D1D2
:10974000D6F8C431C4F8C431EDE700BF5834002066
:109750002DE9F0418846911C064615461F460FF03C
:10976000FEFF044600B36B1C4374292383742A460E
:109770004146133012F0B7FE2771EFF3108772B62F
:10978000D6F8A85101356B1CC6F8A85102D178460D
:1097900007F0EAFF07B962B630462560214610F0AF
:1097A00019F80020BDE8F0810420FBE700B5D0F8EF
:1097B0009C3089B01BBA00934FF43063ADF804308D
:1097C0008DF80610062307226946FFF7C1FF09B08E
:1097D0005DF804FB00B5D0F89C3089B01BBA00934B
:1097E0008DF804100123062269468DF80530FFF735
:1097F000AFFF09B05DF804FB00B5D0F89C3089B02C
:109800001BBA00934FF4E063ADF804300622012345
:109810006946FFF79DFF09B05DF804FB2DE9F041B3
:1098200090F8E030022B88B0044602D0784607F06A
:109830009BFF94F8E330002B42D194F8A130032B26
:1098400002D0784607F090FF94F8E030022B02D067
:10985000784607F089FFD4F89C2094F8E13012BADA
:10986000009294F8A3208DF804209DF8052002F0C2
:10987000FC02142B03F102014FF01700B1FBF0F1D1
:1098800061F387021D468DF8052028BF142594F842
:10989000E2208DF808201B022A4604F1E4010DF1B4
:1098A0000900ADF8063012F01EFE012305F1090291
:1098B00069462046FFF74CFF80B9012384F8E33066
:1098C00094F8E3501726022794F8E18008F1020388
:1098D000B3FBF6F30133DBB2AB4202D808B0BDE80C
:1098E000F0816B1E03EB4301C3EBC101D4F89C3044
:1098F000143189B21BBAA8EB0108009394F8A33085
:109900008DF804301FFA88F89DF80530B8F1170F6C
:1099100028BF4FF0170867F30103E43165F38703AD
:10992000424621440DF106008DF8053012F0DBFDB2
:10993000012308F1060269462046FFF709FF0028C7
:10994000CCD194F8E330013384F8E3300135BBE740
:1099500010B5044610B9784607F006FFA4F5D87490
:1099600094F8A130012B09D12046FFF7CBFE204609
:109970000FF0B6FF002084F8A10010BD0820FCE71E
:1099800070B590F8A130023B022B04460D4602D977
:10999000784607F0E9FE2046FFF7B4FE94F8A030C1
:1099A000012B02D0784607F0DFFE20460FF098FF2B
:1099B000002384F8A03084F8E03084F8A13004F16A
:1099C000C0000BF065F8D4F8BC31294604F5D87016
:1099D000DB68BDE87040184738B50D46044610B93D
:1099E000784607F0C1FE022D02D9784607F0BCFE8A
:1099F000A4F5D87494F8A13013F0FB0F0FD0023BFC
:109A0000012B02D9784607F0AFFE29462046FFF722
:109A1000CDFE28B9042384F8A13084F8A45038BDC1
:109A200029462046BDE83840FFF7AABF10B50446D6
:109A30000BF06EF8D4F8DC10014404F1C000BDE86E
:109A400010400BF03CB8000013B50446EFF3108251
:109A500072B6174B1968C0F8C411186002B962B623
:109A6000144B1B681B0718D5134B1B68032B14DD05
:109A70002F21124812F012FE88B12F210F4812F048
:109A80000DFE411C0E4B0F4AD3F804350092019491
:109A90004FF4CC7204200CF0FDFD02B010BD5C212F
:109AA000064812F0FBFD08B15C21E7E70349E9E74E
:109AB00058340020102E00200C2E002036D2030037
:109AC0000010014059D2030037B591F8A130032BA3
:109AD00005460C464ED191F8E030022B4AD1D1F820
:109AE000D8301B1A002B14DA01212046FFF75EFE46
:109AF00048B9042384F8A130012384F8A430C4F8C1
:109B0000B40003B030BD1D4BC4F8B430C4F8D85015
:109B1000F7E71B4B1B681B071AD51A4B1B68042B56
:109B200016DD2F21184812F0B9FDD0B12F211648AB
:109B300012F0B4FD411C154B94F8E420D3F8043521
:109B40000192134A0092052040F2C2320CF0A2FDAD
:109B50000023204684F8E33003B0BDE83040FFF72F
:109B60005DBE5C21084812F099FD08B15C21DEE77A
:109B70000549E0E70023C4F8B430C2E740420F00D3
:109B8000102E00200C2E002036D2030000100140C1
:109B90000AD60300D0F8A8318B4206D1012380F801
:109BA000AC31024B18680BF035BD7047F42D002026
:109BB00038B5124B1C6800250CB9012038BD94F84B
:109BC000AC3193B194F8A12084F8AC51042A94F8F4
:109BD000E0300DD1022B03D104F1A8000AF058FFA8
:109BE00094F8A4102046FFF7CBFED4F8C441E3E775
:109BF000022BFAD12046FFF711FEF6E75834002079
:109C00002DE9F0410E4617469846054610B97846AC
:109C100007F0AAFDA5F5D87494F8A020012A03D175
:109C200094F8A130002B50D10023012AC4F8DC8025
:109C3000C4F8CC3084F8E03084F8A33084F8A23043
:109C400084F8A130C4F8A83113D0012384F8A030DF
:109C50001F4BC4F8B0301F4BC4F8C830C4F8B8402C
:109C6000C4F8D0408023A5F188021B4920460FF09C
:109C700063FE0023802284F8A320C4F89C3084F87B
:109C8000A2303A4631462046FFF7B6FA054610B9EB
:109C9000784607F069FDFF232B714FF0FF332B60EF
:109CA0004FF4FA6120460FF0EEFD294620460FF0F2
:109CB00091FD20460FF036FD2046FFF7C5FE01233B
:109CC00084F8A1300020BDE8F0810820FBE700BF48
:109CD000C99A0200F5960200959B0200F0B50F4666
:109CE00089B01646054610B9784607F03DFDA5F542
:109CF000D87494F8A010012903D194F8A130002B56
:109D00005FD100230129C4F8DC60C4F8CC3084F8AA
:109D1000E03084F8A33084F8A23084F8A130C4F88D
:109D2000A83113D0012384F8A030274BC4F8B030F9
:109D3000264BC4F8C830C4F8B840C4F8D0408023DB
:109D4000A5F18802224920460FF0F6FDA5F58A7696
:109D5000304604210AF0EAFF002384F8A330802370
:109D600084F8A23033681BBA009310224FF440737A
:109D700039460DF10600ADF8043012F0B4FB0623AD
:109D8000162269462046FFF7E3FC0646B0B90AF002
:109D9000BFFE00F5EF2101F50471A5F1F0000AF016
:109DA0008EFE3C2120460FF06EFD20460FF0BAFCDF
:109DB0002046FFF749FE022384F8A130304609B05F
:109DC000F0BD0826FAE700BFC99A0200F596020026
:109DD000959B020030B5074D0246FF23141AA1429D
:109DE00002DCD843C0B230BD12F8014B6340EB5CDB
:109DF000F4E700BF85D203002DE9F0410B78012B79
:109E000092B005460C4602D0784607F0ADFC261D00
:109E100061783046FFF7DEFFA378834226D195F8BC
:109E2000A21028460027FFF7D5FCE77095F8A2207E
:109E3000531C03F07F0322F07F02134385F8A23006
:109E400094F801803146424601A812F04CFB2846A6
:109E50002770FFF7EBFDD5F8BC3142461B6801A91E
:109E600005F5D870984712B0BDE8F0810023237043
:109E7000F9E700002DE9FF4188461446054610B970
:109E8000784607F071FC14B9784607F06DFC2B6832
:109E90001BBAEFF3108172B6A44E34686CB901B9E5
:109EA00062B6687900F00303032B00F29C80DFE8C0
:109EB00013F00B005801D7016202D4F89C209342A2
:109EC000EDD0D4F8C441E9E7002C00F08C8094F880
:109ED000A130032B40F0878094F8E020002A40F066
:109EE0008E802A7994F8A2309A4230D1EB881B0AEE
:109EF00084F8E13017220233B3FBF2F30133DBB213
:109F0000072B07D9022104F5D87004B0BDE8F04151
:109F1000FFF762BD2B7A84F8E230A8F1090801232B
:109F200084F8E03084F8E330424605F1090104F199
:109F3000E40012F0D8FA94F8E130984553D104F1D6
:109F4000E001204604B0BDE8F041FFF755BF784B73
:109F50001B6803F0080328D2BBB1764B1B68042BA7
:109F600013DD2F21744812F099FBA8B12F217248FC
:109F700012F094FB411C714B714AD3F804350092E6
:109F80004FF4347205200CF085FB2979204604B08B
:109F9000BDE8F041FFF71EBC5C21674812F07EFB74
:109FA00008B15C21E3E76449E5E7E3B1614B1B6875
:109FB000012B18DD2F21604812F070FBB0B12F216A
:109FC0005D4812F06BFB411C5C4B94F8A220D3F867
:109FD000043502922A7901925A4A009240F2D5221F
:109FE00002200CF057FB04B0BDE8F0815C21524820
:109FF00012F054FB08B15C21E2E74F49E4E74C4B17
:10A000001B68022A03F0080373D1297994F8A2206F
:10A01000914220D2002BB8D0464B1B68042BB4DDF4
:10A020002F21454812F03AFB60B12F21424812F02F
:10A0300035FB411C414B424AD3F8043500924FF4A2
:10A0400037729FE75C213C4812F028FB08B15C2185
:10A05000ECE73949EEE725D9002BC4D0354B1B6816
:10A06000012BC0DD2F21344812F018FB88B12F21BD
:10A07000314812F013FB411C304B94F8A220D3F866
:10A08000043502922A7901922E4A009240F2E1228E
:10A09000A6E75C21284812F001FB08B15C21E7E744
:10A0A0002549E9E7002B9ED0224B1B68042B9ADD43
:10A0B0002F21214812F0F2FA90B12F211E4812F000
:10A0C000EDFA411C1D4B94F8A220D3F804350292FE
:10A0D0002A7901921C4A0092052040F2E52280E78D
:10A0E0005C21154812F0DAFA08B15C21E6E7124962
:10A0F000E8E7002B3FF477AF0E4B1B68012B7FF78F
:10A1000072AF2F210C4812F0C9FA08B32F210A4868
:10A1100012F0C4FA411C094B0C4AD3F804350092E2
:10A1200040F2EA2202200CF0B5FA5CE75834002035
:10A13000102E00200C2E002036D20300001001400B
:10A140009CD30300ECD3030036D403006FD4030088
:10A150005C21B54812F0A2FA08B15C21D7E7B249F8
:10A16000D9E7002C3FF43FAF94F8A130032B7FF4E4
:10A170003AAFAE4B94F8E0201B68022A03F00803C4
:10A180004BD1297994F8A320914246D1D3B1A84B61
:10A190001B68032B16DD2F21A34812F07FFA98B31A
:10A1A0002F21A14812F07AFA411CA24B94F8E42026
:10A1B000D3F804350192A04A0092042040F22532DF
:10A1C0000CF068FA002504F1A800C4F8B4500AF0B5
:10A1D0005FFC20460FF084FB94F8A32084F8E05045
:10A1E000531C03F07F0322F07F02134384F8A33053
:10A1F0002046FFF71BFCD4F8BC315B6804F5D8702F
:10A2000004B0BDE8F04118475C21874812F046FAD7
:10A2100008B15C21C5E78449C7E7002B3FF4E3AEF2
:10A22000834B1B68012B7FF7DEAE2F217E4812F097
:10A2300035FA60B12F217C4812F030FA411C7D4B79
:10A240007E4AD3F80435009240F237326AE75C2147
:10A25000754812F023FA08B15C21ECE77249EEE789
:10A26000002C3FF4C0AE94F8A130032B7FF4BBAEBA
:10A2700094F8E060297994F8A230012E4CD19942EB
:10A2800025D194F8E33080080341DA073FF5ABAEFF
:10A290001727013807FB0040A8F10602A91DF83076
:10A2A00012F021F96B7994F8E3209B0806FA03F386
:10A2B000134394F8E1200232B2FBF7F70137DBB227
:10A2C000FFB284F8E330BE400133B34236E6574B69
:10A2D0001B681B077FF587AE554B1B68012B7FF76B
:10A2E00082AE2F21504812F0D9F960B12F214E488B
:10A2F00012F0D4F9411C4F4B514AD3F80435009267
:10A3000040F20F320EE75C21474812F0C7F908B15E
:10A310005C21ECE74449EEE79942FFF437AE7FF663
:10A3200062AE424B1B681F077FF55DAE404B1B685A
:10A33000012B7FF758AE2F213B4812F0AFF988B1BF
:10A340002F21394812F0AAF9411C3A4B94F8A22067
:10A35000D3F8043502922A7901923A4A009240F2E7
:10A360001B323DE65C21304812F098F908B15C21BF
:10A37000E7E72D49E9E78008012875D023D30228B3
:10A3800000F0D380294B1B681B077FF52CAE284BB0
:10A390001B68012B7FF727AE2F21234812F07EF98F
:10A3A000002800F027812F211F4812F077F9411C67
:10A3B0006A79204B9208D3F804350192224A009220
:10A3C00040F29932A4E0B8F1160F7FF40CAE07F01A
:10A3D00003FA10220146A81D12F076F800287FF437
:10A3E00002AE002C40F01181EFF3108372B6346896
:10A3F00024B9002B7FF4F7AD62B6F4E594F8A12000
:10A40000012A00F00081D4F8C441F1E75C2106483C
:10A4100012F044F908B15C211AE103491CE1002360
:10A42000C4F89C30DFE500BF36D20300102E0020B8
:10A430000C2E002000100140A1D40300BCD4030066
:10A44000DCD403000DD50300E3D50300032B7FF418
:10A45000CAAD94F8E030002B7FF4C5AD204604B0BF
:10A46000BDE8F041FFF7C8B9002C3FF4BCADB8F12E
:10A47000060F7FF4B8AD94F8A130814D022B2AD19C
:10A4800020460FF02DFA142120460FF0FCF92B681E
:10A490001D0740F1EB807B4B1B68032B40F3E680EC
:10A4A0002F21794812F0FAF860B12F21764812F086
:10A4B000F5F8411C754B764AD3F80435009240F20A
:10A4C0007532D0E05C21704812F0E8F808B15C21E8
:10A4D000ECE76D49EEE72B6818077FF584AD694B13
:10A4E0001B68012B7FF77FAD2F21674812F0D6F84C
:10A4F00090B12F21644812F0D1F8411C634B94F8BD
:10A50000A120D3F804350192624A009240F27D32D4
:10A5100002200CF0BFF866E55C215B4812F0BEF843
:10A5200008B15C21E6E75849E8E7002C3FF45BAD51
:10A53000B8F1070F7FF457AD94F8A130504E023BAD
:10A54000012B30D894F8E030022B03D104F1A8009D
:10A550000AF09EFAA9792046FFF712FA3368190724
:10A560007FF541AD474B1B68032B7FF73CAD2F2197
:10A57000454812F093F868B12F21434812F08EF845
:10A58000411C424B444AD3F804350092042040F267
:10A590008F32C8E55C213C4812F080F808B15C219C
:10A5A000EBE73949EDE733681A077FF51CAD354B0A
:10A5B0001B68012B7FF717AD2F21334812F06EF87F
:10A5C00078B12F21304812F069F8411C2F4B94F8D4
:10A5D000A120D3F804350192304A00924FF46572FD
:10A5E00096E75C21284812F059F808B15C21E9E7A8
:10A5F0002549EBE75C21244812F050F808B15C21B2
:10A60000D2E62149D4E603B962B694F8A130012B11
:10A610007FF41CAF2B681BBA2046C4F89C30142171
:10A620000FF031F92046FFF7E7F800287FF4F7AE86
:10A63000134B1B681E0719D5124B1B68032B15DD26
:10A640002F21114812F02AF800283FF4DFAE2F2105
:10A650000D4812F023F8411C0C4B0D4AD3F8043579
:10A6600000924FF4567204200CF014F8032384F87F
:10A67000A1302046FFF7DAF9D4F8BC319B68BDE57C
:10A68000102E00200C2E002036D2030000100140B6
:10A6900053D5030069D503009AD50300B0D5030054
:10A6A0002DE9F843A0F5D874804694F8A130032B27
:10A6B0000F46164640D1412A40D810F8D05C002DF4
:10A6C0003ED12046FFF7B2F90AF022FA1723B11C57
:10A6D000B1FBF3F10131CBB2216F594301F5F41114
:10A6E000184B01F5906148F8FC1C81460144C4F800
:10A6F000B030A8F584700AF0E2F9134B4B4448F8E7
:10A70000D83C022384F8E0303146C4F8B84084F8DD
:10A71000E35084F8E1603846FFF75CFB324684F88A
:10A72000E2003946A8F1CC0011F0DDFE2046FFF72B
:10A7300075F82846BDE8F8830820FBE70920F9E70B
:10A740001120F7E7C99A020080C3C90138B5044651
:10A7500010B9784607F008F8084D2B68013303D18B
:10A7600007480AF039FF2860012384F8B431054B0B
:10A77000C4F8B83104F5D87038BD00BFF42D0020FE
:10A78000B19B020088D303002DE9F04F0C4689B03D
:10A79000814600B111B9784606F0E6FF2388192BEF
:10A7A00002D8784606F0E0FF4FF6FF724FF4201310
:10A7B000CDE905230025012305A90A224846ADF865
:10A7C0001C30ADF8025011F08EFE0A2323800DF1EB
:10A7D0000601284604F02EFA10B1784606F0C4FFB0
:10A7E0000DF10701002004F031FA10B1784606F0AF
:10A7F000BBFF01A9002004F011FA10B1784606F061
:10A80000B3FF08AA03230DF10C0822F81E3D4146B0
:10A81000002004F067FA10B1784606F0A5FF208802
:10A8200004220DEB0201484411F05DFE26889DF8DC
:10A8300006300436B6B2268053B10027BDF802A018
:10A840003D464FF6FF7B574515D323881D44258091
:10A850009DF8073063B12388BDF802700026994443
:10A8600035464FF6FF7ABE421DD323881D4425800E
:10A8700009B0BDE8F08F02A938F8170004F0F2F92A
:10A8800010B1784606F070FFBDF808305B4508D17E
:10A89000A81902220DF10A01484411F024FE0235E4
:10A8A000ADB20137CFE702A938F8160004F0DAF9A3
:10A8B00010B1784606F058FFBDF8083053450FD068
:10A8C000022202A909EB050011F00DFEA81C0222CC
:10A8D0000DF10A0119FA80F011F005FE0435ADB250
:10A8E0000136C0E7024B1B6803B11847704700BF31
:10A8F0005C34002013B5044601A805F0C1FBBDF887
:10A900000400001B18BF4FF0FF3080B202B010BD32
:10A9100037B504460DF080FB0546002301A80093DF
:10A9200005F0AEFB6946288A06F086F930B9009B2F
:10A930006360BDF80430238003B030BD0520FBE721
:10A940001FB50193BDF81830ADF808300023ADF8FD
:10A9500000208DF80A304FF6FF720223ADF8022076
:10A960008DF80B306A46079B039303F03FFE05B05A
:10A970005DF804FB7FB505460E46002003A98DF85F
:10A9800008000EF0C8FC10B1784606F0EDFE9DF808
:10A990000D309DF80820013B0A2104AC63F302024C
:10A9A000BDF80E30B3FBF1F3013B63F3C70204F8CB
:10A9B000082D09F075FE01230190009348F225024D
:10A9C000234631462846FFF7BBFF04B070BD7FB574
:10A9D0000B89012B06460D4631D14C688DF80430A9
:10A9E0002378C3F3020301338DF805302378DA08A6
:10A9F0000A2302FB0333142BB8BF142301A9002040
:10AA0000ADF806300EF076FC10B1784606F0ACFEDC
:10AA100030462946FFF7AEFF0023CDE9023311236C
:10AA20008DF808302378C3F302038DF80C302378B7
:10AA300002A8C3F3C4038DF80D30FFF753FF04B031
:10AA400070BD0B890BB9FFF795BF704737B504464A
:10AA50000D4609F025FE084B1860084B01221A70BC
:10AA600000230190009348F24A0229462046FFF74E
:10AA700067FF03B030BD00BF6434002060340020A5
:10AA800030B50B89032B85B005460C4618D14B68B1
:10AA90009A78012A14D800228DF80C201B88ADF872
:10AAA0000D3002238DF80F3009F0FAFD04230190D8
:10AAB000009348F2480203AB21462846FFF740FFC7
:10AAC00005B030BD30B585B004460D468DF80C207C
:10AAD000ADF80D3009F0E4FD03230190009348F236
:10AAE000440203AB29462046FFF72AFF05B030BDDC
:10AAF00030B585B004460D46002303A90120ADF80A
:10AB000008300EF008FC10B1784606F02DFE9DF8D6
:10AB10000C308DF808309DF80D309DF80920013B70
:10AB200063F30202BDF80E308DF80920142B15D105
:10AB3000D2B212F0070111D161F3C7028DF80920DA
:10AB400009F0AEFD02230190009348F2280202AB07
:10AB500029462046FFF7F4FE05B030BD0A22B3FBBC
:10AB6000F2F39DF80920013B63F3C702E6E77FB5E6
:10AB70000B89022B05460E463ED14C682378012BEB
:10AB80003AD803F001038DF804306378C3F302036D
:10AB900001338DF80530637883BB1423ADF806309C
:10ABA000BDF80630142B38BF142301A90120ADF8DD
:10ABB00006300EF09FFB10B1784606F0D5FD284612
:10ABC0003146FFF795FF0023CDE9023312238DF8BC
:10ABD000083023785A1E534253418DF80C30637865
:10ABE000C3F302038DF80D30637802A8C3F3C403E6
:10ABF0008DF80E30FFF776FE04B070BDDB08013330
:10AC000003EB83035B00C9E70B890BB9FFF770BF48
:10AC1000704770B586B00D46ADF80F309DF82C30FA
:10AC2000ADF80D2000218B4204460A988DF80C10D7
:10AC300014BF07260926CDF8110009F031FD03AB3A
:10AC4000CDE9006048F21F0229462046FFF778FE52
:10AC500006B070BD30B587B00446039306AB8DF8DF
:10AC6000142033F80C2DADF815209B788DF8173093
:10AC70000D4609F015FD04230190009348F20302EC
:10AC800005AB29462046FFF75BFE07B030BD2DE936
:10AC9000F0430B89022B85B081460C4638D14B68B6
:10ACA0001E88C6F30B0005F037FBA38C83420746D2
:10ACB00031D133460C2221464846FFF703FF27E0F7
:10ACC00038F8150005F03CFB28F815000135029B0B
:10ACD000AB42F5D82EE038F8150004F06BF810B14F
:10ACE000784606F041FD0135029BAB42F3D833466E
:10ACF000484600222146FFF7E5FE0023CDE9023356
:10AD000002A819238DF80830ADF80C70FFF7EAFDA2
:10AD100005B0BDE8F0834FF6FF739842E7D00DF120
:10AD20000408012302AA4146029305F003FF0546E9
:10AD30000028CCD0384605F0C3FE05460028D3D005
:10AD40000F28B6D033460422B5E70000F0B50B89D2
:10AD5000122B85B007460D4625D14E680A88344629
:10AD600048F2400334F8020B9A42C0F30B001CD1A6
:10AD700021460DF1060205F053FB182304460F2C63
:10AD80008DF80830BDF80630ADF80C3096BF0C4B8E
:10AD900010221A5D338829463846FFF793FE14B90E
:10ADA00002A8FFF79FFD05B0F0BD05F0B5FA2146FA
:10ADB000ADF8060005F0D6FB1A230446DFE700BF16
:10ADC0001ED603002DE9F0431F460B8847F6E578B1
:10ADD00043449BB2102B87B005460C46164656D806
:10ADE0004FF0010909FA03F313F0EF011BD113F43B
:10ADF000803060D15B044AD50146052203A811F0DA
:10AE00007DFB63688DF80C701A88ADF80D205B88A7
:10AE1000ADF80F3009F044FC05230093019003AB1B
:10AE200048F22A022FE00922002103A811F066FB54
:10AE300023888DF80C7043449BB2072B0AD809FA7B
:10AE400003F313F00B0F09D113F004022DD113F00B
:10AE5000E00F1FD1784606F087FC09E063681A8886
:10AE6000ADF80D205A88ADF80F205B68CDF8113091
:10AE7000002E14BF0726092609F012FCCDE9006058
:10AE800003AB48F21F0221462846FFF759FD07B0E1
:10AE9000BDE8F083636833F8121BADF80D108DF830
:10AEA0000F208DF810201B68E0E7636833F8022B51
:10AEB000ADF80D20F7E7072203A811F01FFB636828
:10AEC0008DF80C701A88ADF80D209A88ADF8112015
:10AED0005B88ADF80F3009F0E3FB07230093019086
:10AEE00003AB48F22C02CEE77FB504AA032322F875
:10AEF0000A3D02A9064603F053FD062825D010B1ED
:10AF0000784606F031FC0025BDF80620ABB29A4227
:10AF100002D8002004B070BDACB2640004AB23447E
:10AF2000304633F8081C03F00FFD10B1784606F0E8
:10AF30001BFC04AB1C4434F8080C05F047F910B1B5
:10AF4000784606F011FC0135DEE70820E2E72DE93E
:10AF5000F0438DB01C46154606460F4609220021D7
:10AF60000DF1250011F0CAFA00230DF10B01204666
:10AF70008DF82030ADF8215003F00CFE10B178466A
:10AF800006F0F2FB9DF826309DF80B2062F30413C7
:10AF90006FF3471305A920468DF8263003F062FEB3
:10AFA00010B1784606F0E0FBBDF81450BDF816303D
:10AFB0004FF6FF7295420DF10E0120460EBFADF81F
:10AFC0002A30ADF82C30ADF82A5003F037FB10B121
:10AFD000784606F0C9FBBDF80E004FF6FF739842A5
:10AFE00018D100238DF823308DF824304FF6FF73ED
:10AFF0009D4214BF0E250C2509F052FB08ABCDE98C
:10B00000005048F2190239463046FFF799FC0DB05E
:10B01000BDE8F08306A905F0ABF810B1784606F05C
:10B02000A3FBBDF81A30ADF8233004A9204603F085
:10B0300075FD05288046D4D0002848D10DF11201B5
:10B04000BDF8100005F090F90528814604D18DF86F
:10B0500023808DF82480C9E70028C7D19DF81230DD
:10B060008DF825309DF8133003F00F029DF826303F
:10B0700023F00F0313430DF1270120468DF82630EE
:10B0800003F0B8FD0122494603A811F037FA0DF18B
:10B090000D0203A9204603F01FFB9DF80C209DF82C
:10B0A0000D3002A943EA821320468DF8283003F0C0
:10B0B000FDFA9DF808209DF82930C2F3020161F3E2
:10B0C0000203D20862F3C7038DF829308EE7784671
:10B0D00006F04AFB8AE7F0B50B89032B87B00746D9
:10B0E0000C4619D14D6804238DF80C302B88ADF82F
:10B0F0000D3000238DF80F302888C0F30B0005F0C9
:10B100000BF90DF10B01064605F01CFAD0B9AB782E
:10B11000022B03D0032B32D007B0F0BD9DF80B30CB
:10B120005A1E012AF8D8012B06D1304605F064FAE0
:10B1300010B1784606F018FB00238DF80C3002237E
:10B140008DF80F3009F0ACFA04230190009348F217
:10B15000170203AB21463846FFF7F2FB9DF80C308F
:10B16000002BD9D1CDE9043308238DF8103004A881
:10B170009DF80F308DF81430FFF7B4FBCCE79DF845
:10B180000B30032BC8D033B1304605F059FA10B15B
:10B19000784606F0E9FA00238DF80C30D0E770B558
:10B1A0000D89012D86B006460C461ED14B681878D5
:10B1B0008DF80F0003F0C6FCB8B90523CDE90400F3
:10B1C0008DF8103004A89DF80F308DF81430FFF77B
:10B1D00089FB09F065FA0DF10F03CDE9005048F243
:10B1E0000E0221463046FFF7ABFB06B070BD7FB5BF
:10B1F0000E4605460DF0F4F804AC04F8040D09F011
:10B200004FFA01230190009348F20B022346314686
:10B210002846FFF795FB04B070BD0B890BB9FFF70B
:10B22000E6BF704770B50B89092B8CB006460D46FA
:10B230005CD14C682388ADF81C30A3782BB1102B5F
:10B2400056D8013B012202FA03F30893E37843B195
:10B25000112B9DBF03F1FF33012202FA03F34FF0DC
:10B26000FF33099323798DF82830B4F8053003F0C3
:10B270000F03ADF82A30B4F80730ADF82C30B4F82D
:10B28000070005F049F84FF6FF73984237D10423C1
:10B290008DF810302388ADF81130E3788DF8143034
:10B2A000A3788DF8133023798DF81530B4F8053074
:10B2B00003F00F03ADF81630B4F80730ADF81830CE
:10B2C00009F0EEF90A2301900093062204AB294607
:10B2D0003046FFF735FB9DF810303BB914238DF84D
:10B2E000083002A807AB0393FFF7FCFA0CB070BD5F
:10B2F000FF2B4FF6FF7318BF4FF0FF33A5E707A8EA
:10B300000CF08EFE00280CBF00230F23C0E70000C6
:10B3100037B50378012B03D00E2B1DD003B030BD01
:10B32000154B42681B689A42F8D1144C2378012BC4
:10B33000F4D1FBF7E1FE0BF0F5FE10B90223237008
:10B34000ECE700251C236846CDE900558DF8003058
:10B35000FFF7C8FA2570E1E7084D2B78022BDDD105
:10B3600000241C236846CDE900448DF80030FFF727
:10B37000B9FA2C70D2E700BF64340020603400209A
:10B3800030B50B89022B85B005460C4614D14A68AE
:10B3900000218DF80C101288ADF80D208DF80F30BB
:10B3A00009F07EF904230190009348F2480203ABB0
:10B3B00021462846FFF7C4FA05B030BD7FB504AC7E
:10B3C000022304F8043D05460E4609F069F90123FD
:10B3D0000190009348F21402234631462846FFF7B5
:10B3E000AFFA04B070BD0A89012A05D14B681B78F9
:10B3F000012B01D8FFF7E2BF70470B890BB9FFF7AC
:10B40000DDBF70477FB504AC022304F8043D054658
:10B410000E4609F045F901230190009348F211020C
:10B42000234631462846FFF78BFA04B070BD0A89DF
:10B43000012A05D14B681B78012B01D8FFF7E2BF29
:10B4400070470B890BB9FFF7DDBF704770B50B89EB
:10B4500086B006460D46FBB906A9012341F8043D16
:10B4600003A805F07FF9059B9AB25B0803EB430341
:10B4700002F0010404A903A803EB440401F08CFBCF
:10B4800009F00EF9A4B2CDE9004004AB48F2430242
:10B4900029463046FFF754FA06B070BDF0B50B8967
:10B4A000022B87B006460D4632D14F6806AC012309
:10B4B000388844F80C3DC0F30B0004F02DFF224601
:10B4C00002A905F037FB3B88ADF8113018B105280B
:10B4D00020D010231FE0039C8DF81000A2B2640856
:10B4E00004EB440402F0010304EB430403340DF1C4
:10B4F000130102A8A4B201F04FFB09F0D1F804AB8C
:10B50000CDE9004048F2020229463046FFF718FA1A
:10B5100007B0F0BD04238DF810300324EDE7F0B53B
:10B5200016460A881F4648F218039A4287B0054615
:10B530000C4605D048F21A039A4201D0032A2CD1B6
:10B540000E22002102A810F0D9FF23888DF8087080
:10B5500048F21802934209D048F21A0293421ED0D0
:10B56000032B20D1636833F8092B02E0636833F8BA
:10B57000022BADF809201B68CDF81230002E14BF45
:10B580000C260E2609F08CF802ABCDE9006048F2DB
:10B59000190221462846FFF7D3F907B0F0BD6368CA
:10B5A00033F8172BE5E7784606F0DEF8E6E77FB5D7
:10B5B0000B89022B06460C461FD14D682888C0F324
:10B5C0000B0004F0A9FE0DF10B0104F0BBFF0023FA
:10B5D00003932B88ADF80D3088B99DF80B308DF8AA
:10B5E0000F3009F05DF804230190009348F2170230
:10B5F00003AB21463046FFF7A3F904B070BD042326
:10B600008DF80C30EDE77FB50B8906460D4683B902
:10B6100003F0A4FA04AC04F8010D09F041F8012389
:10B620000190009348F20E02234629463046FFF768
:10B6300087F904B070BD37B50B89012B05460C4660
:10B6400018D14B681A78012A14D80022CDE90022BB
:10B6500004228DF800201878431E584258418DF876
:10B6600004000CF0ADFE28462146FFF7C0FD6846F9
:10B67000FFF738F903B030BD70B50B89012B8AB0E4
:10B6800006460D4618D10AA900238DF80C301A235E
:10B6900021F81E3D0DF10D00FFF776F8BDF80A40C8
:10B6A00008F0FEFF0134A4B2CDE9004003AB022252
:10B6B00029463046FFF744F90AB070BD2DE9F0473E
:10B6C0000B89132B88B080460C4670D14E68B57834
:10B6D000707837783388ADF814304FEA051A4AEAA3
:10B6E000101A00F00F0047EA00208DF8165004F001
:10B6F00013FE00238DF81830F21C07AB014681467B
:10B70000504605F0F9F8384B1B685B0406461CD51B
:10B71000364B1B68032B18DD2F21354810F0BEFF78
:10B72000F8B12F21324810F0B9FF411C314BBDF860
:10B730001C20D3F8043501922F4A0092CDF808A0BE
:10B7400040F2752204200AF0A5FF0F2E48D8DFE84A
:10B7500006F03E4747114049473347474747474769
:10B7600047315C21224810F099FF08B15C21D9E7EC
:10B770001F49DBE70DF11201BDF81C0004F006FEC5
:10B7800010B1784605F0F0FFBDF812204A4514BF0D
:10B79000042200228DF814708DF81650059B214666
:10B7A0004046FFF757FA16B906A8FFF79BF808B00E
:10B7B000BDE8F0870622EDE78DF814708DF816507D
:10B7C000059B032221464046FFF744FAEFE700229B
:10B7D000E0E78DF814708DF81650059B0522F1E70F
:10B7E0001022D7E70422D5E7102E00200C2E0020CF
:10B7F0002ED60300001001405ED6030073B50D463F
:10B80000164603F0CDF80528044607D006281AD0BE
:10B81000B8B933889C4204D3002000E0022002B073
:10B8200070BD6946288804F0A3FC50B99DF800302B
:10B83000023B012B05D8BDF8023025F8023B01344C
:10B84000E7E71020EBE70820E9E72DE9F0410B8955
:10B85000042B8CB006460D4612D14C684FF6FF788B
:10B8600067882088ADF81270ADF81080FFF742F8B5
:10B87000404508D10123012229463046FFF7A2FAAC
:10B880000CB0BDE8F08103AA049903F001FA08B1F5
:10B890000223F0E70CAA052322F8223D05A9BDF8F2
:10B8A0000C00FFF7ABFF03460028E4D1BDF80E20E3
:10B8B0008DF820002388ADF8213005A952000DF144
:10B8C0002500ADF8237010F00EFEBDF80E4008F014
:10B8D000E7FE64000534A4B2CDE9004008AB48F2AD
:10B8E0002A0229463046FFF72BF8C9E708B590B180
:10B8F000B0F5004F06D8002301334008DBB2FBD17E
:10B90000184608BD4FF6FF73984206D0784605F0FA
:10B910002BFF1023F4E70346F2E7FF23F0E708B517
:10B9200070B1B0F5803F06D8002301334008DBB288
:10B93000FBD1184608BD784605F016FF1123F8E73D
:10B940000346F6E770B50C4686B005460CF064FB7E
:10B950002189064619BB8DF80C100388ADF80D300F
:10B960004368012B1DD8DBB2B0688DF80F30FFF7AC
:10B97000D6FF337B8DF81130F389ADF81230338A5E
:10B98000ADF814308DF8100008F08AFE0A230190FB
:10B990000093062203AB21462846FEF7D1FF06B0EE
:10B9A00070BDB3F5004F07D8013B5B08CAB201F187
:10B9B0000101FAD1931CD6E74FF6FF72934204D0EF
:10B9C000784605F0D1FE1023CEE7FF23CCE7F0B593
:10B9D0000E8987B007460D462EBB0CF019FB8DF87B
:10B9E0000C60038804460BB14288F2B900238DF83D
:10B9F0000D308DF80E308DF80F308DF810308DF839
:10BA000011308DF812308DF813308DF8143008F0A5
:10BA100047FE09230190009348F23C0203AB2946FC
:10BA20003846FEF78DFF07B0F0BDADF80D30438806
:10BA3000ADF80F304068FFF759FF8DF81200A0688D
:10BA4000FFF76DFFA3898DF813308DF81100E3899E
:10BA5000DBE72DE9F04F0B89132B85B080460D46AF
:10BA60003ED14C68607823882778ADF804304FEADF
:10BA7000101B002300F00F00A6788DF80660CDE9BA
:10BA8000023347EA002001238DF8083004F044FC1B
:10BA90004FF6FF7A5045814633D04BEA061004F04A
:10BAA0004FFC5045ADF80C002DD00DF1020104F013
:10BAB0006DFC10B1784605F057FEBDF802304B45DD
:10BAC00011D011248DF804708DF80660019B224678
:10BAD00029464046FFF7BEF814B902A8FEF702FF58
