:020000022000DC
:1070000000FD03200DB9030035B9030037B90300B3
:1070100039B903003BB903003DB90300000000008B
:107020000000000000000000000000003FB9030065
:1070300041B903000000000043B9030045B9030053
:1070400047B9030047B9030047B9030047B9030034
:1070500047B9030047B90300BD7A020047B90300EE
:1070600047B9030047B903004D06030047B90300C1
:1070700047B9030047B9030047B9030047B9030004
:1070800047B90300A588030029C2020047B90300DD
:107090007589030047B90300817F020047B90300E7
:1070A00047B9030047B9030047B9030047B90300D4
:1070B00047B9030047B903000000000000000000CA
:1070C00047B9030047B9030047B9030047B90300B4
:1070D00047B9030047B9030047B9030047B90300A4
:1070E00047B9030047B9030047B903000000000097
:1070F0000000000047B903000000000047B903008A
:10710000000000000000000000000000000000007F
:10711000000000000000000000000000000000006F
:10712000000000000000000000000000000000005F
:10713000000000000000000000000000000000004F
:10714000000000000000000000000000000000003F
:10715000000000000000000000000000000000002F
:10716000000000000000000000000000000000001F
:10717000000000000000000000000000000000000F
:1071800000000000000000000000000000000000FF
:1071900000000000000000000000000000000000EF
:1071A00000000000000000000000000000000000DF
:1071B00000000000000000000000000000000000CF
:1071C00000000000000000000000000000000000BF
:1071D00000000000000000000000000000000000AF
:1071E000000000000000000000000000000000009F
:1071F000000000000000000000000000000000008F
:1072000010B5054C237833B9044B13B10448AFF3E0
:1072100000800123237010BDA82E00200000000074
:10722000A4E9030008B5034B1BB103490348AFF3BE
:10723000008008BD00000000AC2E0020A4E903007F
:10724000154B002B08BF134B9D46A3F5803A002138
:107250008B460F461348144A121A15F0F7FE0F4BCF
:10726000002B00D098470E4B002B00D098470020F1
:10727000002104000D000D48002802D00C48AFF397
:10728000008015F095FE2000290000F045F915F06A
:107290007BFE00BF0000080000FD0320000000008E
:1072A00000000000A82E0020005400200000000074
:1072B0000000000041DF704707B5194B1B685B04F5
:1072C00016D5184B1B68032B12DD2F21164815F01D
:1072D0008DFFC8B12F21144815F088FF411C134BB6
:1072E000134AD3F80435009204205C2205F006FF0F
:1072F000002110480DF046FB78B10B4A5D2103B028
:107300005DF804EB14F02DBB5C21074815F06EFF0F
:1073100008B15C21DFE70449E1E703B05DF804FB55
:10732000082E0020042E002016D303000010014078
:107330003ED303009430002010B5044600214FF4E2
:10734000F03004EB840400F041FB620032214FF482
:10735000C030BDE8104000F043BB00F073BB00003C
:1073600030B5634C226852048BB018D5614B1B6852
:10737000032B14DD2F21604815F038FF002800F0A2
:10738000A5802F215C4815F031FF411C5B4B5C4A06
:10739000D3F80435009204206F2205F0AFFE04A854
:1073A00010F0E8FA23685B041BD5524B1B68032BD3
:1073B00017DD2F21504815F019FF002800F08F80AD
:1073C0002F214D4815F012FF411C4C4BBDF81020E9
:1073D000D3F8043501924B4A00920420732205F041
:1073E0008DFE00F02FFB00214FF4F03000F0EEFA9C
:1073F000C8214FF4F030042200F0F2FA0AA9012368
:1074000041F8143D0DF10E0010F0DEFD18B13A4ABE
:107410007B2114F0A6FABDF80E0010F0C9FB102273
:107420000446002106A815F011FE374B06AA214696
:10743000002010F093FE18B12F4A7F2114F091FA2A
:107440003249012010F0A6FA18B12B4A802114F01D
:1074500088FA2D4D2E4C298820880EF087FF18B110
:10746000254A812114F07DFA284B208819880EF0D6
:1074700075FD18B1204A822114F073FA29882088FA
:107480000EF0DCFF18B11C4A832114F06AFA0621C1
:1074900020880FF03DF818B1174A842114F061FAE2
:1074A0001B480DF0BFFA18B1134A852114F059FAA0
:1074B00018480BF0C7FF014615480DF0C7FA18B180
:1074C0000D4A862114F04DFA0BB030BD5C210A48FC
:1074D00015F08CFE08B15C2154E7074956E75C21A2
:1074E000054815F083FE08B15C216AE702496CE7A4
:1074F000082E0020042E002016D3030000100140A7
:107500005ED3030078D30300C42E00209030002007
:1075100094300020C82E002000B55C4C5C4A8DB031
:1075200004214FF4C04005F0CDFD2268520417D568
:10753000584B1B68032B13DD2F21574815F056FEBF
:10754000002877D02F21544815F050FE411C534B92
:10755000534AD3F8043500920420A22205F0CEFD50
:1075600011F052FB18B14C4AA42114F0FAF900F0C2
:1075700079FA00F067FB0021202203A815F066FDD0
:1075800001238DF80C3007238DF80F3006238DF87A
:1075900014304449444B0B9303A800F00DF9E0B1BB
:1075A0000B2859D123685B0417D53A4B1B68032B72
:1075B00013DD2F21384815F019FE002843D02F2164
:1075C000354815F013FE411C344B384AD3F80435C6
:1075D00000920420962205F091FD324B1B78002B7F
:1075E0003FD1334D0FCD03AC0FC495E8030084E8C1
:1075F000030003A800F084F918B1274ABA2114F057
:10760000B0F900F0F9FD00F089FA00F057F818B170
:10761000214AC42114F0A5F900214FF4F03000F004
:10762000D5F90222C8214FF4F03000F0D9F9FFF764
:1076300041FEFCE75C21184815F0D8FD08B15C213B
:1076400081E7154983E75C21134815F0CFFD08B1A8
:107650005C21B5E71049B7E70F4A9B2114F081F987
:10766000BBE714480DF0DEF918B10B4ABE2114F047
:1076700078F911480BF0E6FE01460E480DF0E6F9E8
:107680000028BED0044ABF21B9E700BF082E002061
:1076900099D00200042E002016D3030000100140F0
:1076A00084D20300C62E0020B9720200C8D20300A3
:1076B0006CD2030094300020C82E002003F0C4BC1C
:1076C00070B5837DC27D86B043EA0223ADF81430E5
:1076D0000446012305A80E46ADF8163010F014F943
:1076E0000546002845D104AA2146208A10F0CAFA8E
:1076F000054600283DD10DF112033246BDF81010A9
:10770000E08A10F07FFC0546002832D1217ED4F8B3
:10771000120001F0010103F057F910B1784600F0B2
:1077200033FDBDF8120013F041FD054608BB174BB1
:107730001B681B031DD5164B1B68062B19DD2F215B
:10774000144815F053FDB8B12F21124815F04EFD25
:10775000411C227E104B02F00102D3F80435029244
:10776000D4F8122001920D4A00920720C62205F09B
:10777000C5FC284606B070BD5C21064815F036FDF4
:1077800008B15C21E1E70349E3E700BF082E0020D0
:10779000042E0020C1D3030000100140E0D30300F9
:1077A00008B504F035F80EF067FA10F009F8BDE8F6
:1077B000084002F005BF000073B50E46054688B3C9
:1077C00003F0DEFB044650BB10F08AF80EF09CFA82
:1077D000286913F0BBFC044608BB2B7F0193AB69FF
:1077E000009301466B6910484FF6FF7213F066FF75
:1077F0000446A0B92B6A03B1984707F03DFD0FF08E
:1078000091FF05460DF0B2FF0B2D01D00B2802D1E0
:10781000FFF7C6FF0B2410F0F3FF06B130702046CF
:1078200002B070BD0E24FAE7C030002010B5074941
:1078300007480AF0E7F9024638B9064906480969D7
:107840000123BDE810400AF0F6B910BD3431002024
:10785000503400201C3100201C33002010B5037868
:10786000023B082B2CD8DFE803F01B05102B2B2C38
:107870002B2B38001E4B5B6813B3007A00B31D4AF4
:1078800001211170BDE810401847194B9B68BBB12E
:10789000184A1178A1B100211170BDE810401847B5
:1078A000154B1A78124B42B9DB6813B111490A70B3
:1078B0009847BDE81040FFF7B9BF1B68002BECD11B
:1078C00010BD0B4B0D48596910220AF0F9F9002838
:1078D000F6D0BDE8104014F037B8D0E90210FFF739
:1078E000EFFE08B114F030F8034B01221A70E7E7FD
:1078F0001C31002018310020193100201C330020D9
:1079000070B5164A164E5168044686B0106803AB2F
:1079100003C31189927A19809A700FCC35460FC52E
:1079200094E8030085E803007369A3B10D4B00934D
:107930000D4A0E490E4803AB0AF036F948B90D4816
:107940000BF080FD01460A480AF048F908B9FFF734
:107950006DFF06B070BD0720FBE700BF00D4030039
:107960001C3100205D7802003431002050340020AA
:107970001C3300205431002070B5104C206808B929
:1079800013F0E2FF4FF0A0450D4ED5F804353268F4
:107990005340C5F804352368013B236063B90948A7
:1079A00011F0E6F93268D5F8043523EA0203064AF5
:1079B00012681343C5F8043570BD00BF9034002031
:1079C0009434002098340020C03400204FF0A043AD
:1079D00011B1C3F80C057047C3F8080570470000E3
:1079E000F8B52AB3132923D9124B134D5200013A8B
:1079F0004FF0A0441A602860D4F8043518400F4BAB
:107A00004FF4FA76186000274FF40040E0FB01675E
:107A10004FF47A7200233046394615F035F90022CA
:107A20000146074811F05CF910B92B68C4F80C3511
:107A3000F8BD00BF9034002094340020C0340020F2
:107A40009834002008B5054811F092F9044B1A68E3
:107A50004FF0A043C3F8082508BD00BF98340020AC
:107A60009434002008B54FF0A04303224FF4005196
:107A7000C3F83427C3F808154FF48041C3F83827FA
:107A8000C3F808154FF40041C3F83C27C3F80815A4
:107A9000C3F840274FF48032C3F808250121054A76
:107AA000054811F00BF918B1BDE8084013F04CBFC0
:107AB00008BD00BF797902000CD40300124B70B5E9
:107AC0000024124E124DC3F87C414FF0A043A15D3B
:107AD000D3F8102501238B40934311D00D49D5F8DD
:107AE00004250B68981A48BFD01A43F233339842E2
:107AF00006D9D5F804350B60074B20461B6898471C
:107B00000134042CE1D170BD0060004010D40300AA
:107B100000100140BC340020B834002070B5044689
:107B2000CEB0002864D03C4D2A6852042FD53B4B80
:107B30001B68032B2BDD3A4B0DAE19680023E25C6A
:107B4000100902F00F02085C06F81300885C06EBCF
:107B500043020133102B5070F1D100232F21314803
:107B600086F8203015F042FB002843D02F212D4805
:107B700015F03CFB411C2C4B2C4AD3F804350192E8
:107B80002B4A009202964122042005F0B7FA2B6896
:107B90005B042DD5214B1B68032B29DD2F212148A8
:107BA00015F024FB00282ED02F211E4815F01EFBB7
:107BB000411C1D4BE27BD3F804350B92A27B0A9249
:107BC000627B0992227B0892E27A0792A27A06925D
:107BD000627A0592227A0492E2880392A288029243
:107BE00022680192134A00920420462205F086FA88
:107BF0004EB070BD5C210B4815F0F8FA08B15C215D
:107C0000B5E70849B7E75C21064815F0EFFA08B177
:107C10005C21CAE70349CCE7082E0020042E00208F
:107C20000C2E002014D40300001001403CD40300AB
:107C30004ED4030056D4030060DF704769DF7047FD
:107C400003F05CBA10B588B000F04AF908B113F03F
:107C50007BFE2B4B0393039B04930C22002105A86E
:107C600015F0F4F90023049A8DF8143005A90120C9
:107C7000FFF7E4FF08B113F067FE0C22002105A80E
:107C800015F0E4F9F823049A059305A9A120FFF75C
:107C9000D5FF08B113F058FE04A8FFF7CDFF039BF2
:107CA000049A9A4204461CD0164B1B685B0418D5F4
:107CB000154B1B68012B14DD2F21144815F096FA83
:107CC000A8B12F21114815F091FA411C104B049ACC
:107CD000D3F8043501920F4A00920220A22205F047
:107CE0000DFA14B1204613F02FFE08B010BD5C2130
:107CF000064815F07BFA08B15C21E3E70349E5E7A4
:107D0000002E0020082E0020042E002096D4030010
:107D100000100140C6D4030070B5EFF3108672B6B0
:107D20000C4A946801239CB993600B4B0B4DD3F81C
:107D3000801029401160C3F88050D3F8841051603E
:107D40004FF0FF32C3F88420047006B962B670BDEC
:107D50000370FAE75453002000E100E0FC06FFBD89
:107D600010B5084B9A685AB150B9EFF3108172B64A
:107D7000054A1C6814605C685460986001B962B67A
:107D800010BD00BF5453002000E100E001600B680B
:107D900043604A68934204BF0023436070474368CE
:107DA00043B1026891680B4443605268934204BF38
:107DB0000023436070474BDF704700001FB50D4C38
:107DC00001A8FFF7F8FF70B9214602A8FFF7DEFF10
:107DD000039B002BF4D00198D3E90021904702A81F
:107DE000FFF7DDFFF4E7052801D013F0ADFD04B087
:107DF00010BD00BF00D5030061DF704730B5114BE7
:107E00001B7891B0E3B1104D34240DF1020103A8A9
:107E1000ADF80240FFF7F0FF70B9294601A8FFF75F
:107E2000B5FF029B002BF0D003A8D3E900219047B7
:107E300001A8FFF7B4FFF4E7052801D013F084FD93
:107E400011B030BDC43400200CD5030010DF7047E2
:107E500013B5044609496846FFF798FF019808B929
:107E600002B010BDD0E900312046984718B16846ED
:107E7000FFF795FFF2E71120F2E700BF1CD50300E2
:107E800013B5044607496846FFF780FF019B0BB90D
:107E900002B010BD2046D3E9002190476846FFF7A5
:107EA0007EFFF3E734D503000B4991F816335A09E6
:107EB000EC231341DB0706D5084B9A683AB94FF417
:107EC00080030B60704742F2020013F03DBD1A6858
:107ED00042F480021A60704700E100E05453002031
:107EE000F7B5184F3C785CBB174E0125204635701E
:107EF000FFF7AEFF112820D02046FFF7C1FF134B3C
:107F00001868019002A800F8054DFFF705FF104919
:107F100001A8FFF79BFF0446B0FA80F040093870D3
:107F20009DF80300FFF71CFF3CB90A4B34701C702E
:107F3000FFF7BAFF2846FFF7A3FF204603B0F0BDC6
:107F40000824FAE7C6340020C534002018D5030001
:107F5000897F0200C734002007B508496846FFF74B
:107F600015FF019B13B903B05DF804FBD3E90020B2
:107F700090476846FFF713FFF3E700BF28D50300DB
:107F8000FFF7EABF0620704730B5754B14461B68F3
:107F900041F20102904287B00D4603F480437ED047
:107FA0001ED8012845D0002B5DD06E4B1B68002BDE
:107FB00059DD2F216C4815F019F9002800F0C48014
:107FC0002F21694815F012F9411C684B684AD3F813
:107FD0000435009201957B22012005F08FF842E0E4
:107FE00044F20102904200F0858044F20202904285
:107FF000D9D1002B37D05B4B1B68002B33DD2F21F1
:10800000594815F0F3F800286BD02F21564815F089
:10801000EDF8411C554B2288D3F804350392626871
:10802000CDE90152534A009201206C2205F066F816
:1080300019E0C3B14B4B1B68002B14DD2F214A48BC
:1080400015F0D4F810B32F21474815F0CFF8411C94
:10805000464B494AD3F804350092CDE901546022D9
:10806000012005F04BF84FF0A0434FF4F032C3F875
:108070001825C3F80C25EFF3108372B64DF6AD6CDE
:108080003E4A1378002B68D107B030BD5C213648DA
:1080900015F0ACF808B15C21D6E73349D8E7002BDE
:1080A000E1D0304B1B68002BDDDD2F212E4815F071
:1080B0009DF868B12F212C4815F098F8411C2B4BE6
:1080C0002F4AD3F804350092CDE901546322C7E763
:1080D0005C21254815F08AF808B15C21EBE72249BC
:1080E000EDE75C21204815F081F808B15C218DE7AF
:1080F0001D498FE7002BB6D01A4B1B68002BB2DD51
:108100002F21194815F072F8A8B12F21164815F043
:108110006DF8411C154B2268D3F80435049262684F
:10812000CDE90252A2680192164A009201207722FC
:1081300004F0E4FF97E75C210B4815F057F808B10D
:108140005C21E3E70849E5E75C21074815F04EF8B4
:1081500008B15C2135E7044937E730BF91E700BF3C
:10816000082E0020042E002040D5030000100140FE
:10817000E4D50300A4D5030068D50300002E002039
:1081800082D50300C3D5030007B50023ADF8003046
:108190000146054B01936A4644F20200FFF7F4FEE4
:1081A00003B05DF804FB00BF1FE503000146102289
:1081B000014814F040BF00BFC834002010B50B4C7C
:1081C0000B490822204614F036FF0822A01809495E
:1081D00014F031FFE379042262F30713E371237A89
:1081E000022262F38713237210BD00BFC83400203F
:1081F00060000010A400001000487047C834002040
:10820000064B002203F580715A805A6003F8082B50
:108210008B42F9D1024B1A60704700BFD83400205E
:10822000D8350020F0B50C4B0C4C1B6806462022BC
:108230007BB1013B14F8330050B104EBC3056F88E8
:10824000B74202D16D688D4202D0013AF0D110469A
:10825000F0BD1F23EEE700BFD8350020D834002042
:1082600030B5084A084C136804EBC3056960012166
:1082700004F833100B44202B08BF002368801360E0
:1082800030BD00BFD8350020D8340020C0F30C0327
:108290008B42084438BFA0F50050C01A7047000058
:1082A000F0B50D4B0D4A1E6800218E4212D01568A4
:1082B00000230AE052F8044C04EBC30714F83340DF
:1082C000844201D17868F0BD01339D42F2D1013181
:1082D0000832EAE70020F6E7643600206C3600201A
:1082E00000B58DB048B9991C07D0012101A88DF8BF
:1082F0000410CDE9023201F03BFA034B186803F099
:10830000BDFE0DB05DF804FB7036002010B503789B
:10831000044613B97846FFF737FF607A431C012003
:108320009840013810BD2DE9F0410E468EB015463B
:108330001C46074610B97846FFF726FF16B978465F
:10834000FFF722FF636AA27802330593E378A2F174
:108350000800002B14BF012102210DF10408424244
:108360004241434604F10C0003F0BBFFA3788DF8B3
:108370003430237BADF82050022B16FA85F5CDE979
:1083800006870B960C950FD1236913B97846FFF732
:10839000FBFE23690993102305A8ADF8283003F0EC
:1083A0009CFF0EB0BDE8F0810023F5E7B2F5C07F79
:1083B0002DE9F04781468846174602D97846FFF7EF
:1083C000E3FE244B002570229A4602FB053494F804
:1083D000486046B9384607F024FDE06638B9002405
:1083E0002046BDE8F0870135042DEED1F7E73022B5
:1083F0004946204614F01FFEB8F1010FE664A4F8C8
:108400004A701DD1144B84F852601B7D84F85130A2
:1084100084F8536084F85060D9F8283063656FF0B1
:108420000103A3620D4BA4F85860A36324640120E8
:1084300002F07AFA702303FB05A585F84880CFE7A0
:108440006FF00103A362064BA36584F8686024669D
:10845000044BEAE78C360020743600205D89020068
:10846000AD9102005589020010B50446C06E07F0B8
:10847000DAFC04F1300003F03FF894F84830022BA6
:1084800003D104F1500003F037F820467022002198
:1084900014F0DCFD002084F84800BDE8104002F034
:1084A00043BA10B590F84830012B8CB0044602D086
:1084B0007846FFF769FE01238DF8043001A8636D4B
:1084C000029301F055F92046FFF7CEFF0CB010BD26
:1084D000037BD3B190F91620002A18DBC27D5AB174
:1084E000022B12D090F90330002B10DB8378002B85
:1084F0000CBF002007207047C2780AB9012B06D1B3
:10850000037833B98378042BF2E7102070470720F3
:1085100070470020704700001FB500220B468DF801
:108520000F2028B30230086018460DF10F0103F048
:10853000D6FE9DF80F30DBB1144B1B685B0717D5D7
:10854000134B1B68032B13DD2F21124814F04EFE32
:1085500098B12F210F4814F049FE411C0E4B0F4AD1
:10856000D3F804350092042040F2064204F0C6FD20
:108570009DF80F0005B05DF804FB5C21054814F080
:1085800035FE08B15C21E5E70249E7E7082E002047
:10859000042E002051D60300001001406ED60300C7
:1085A00070B504468CB02378808AD4E90612E3B112
:1085B000E38805F041FD0546A0B12C22002101A869
:1085C000A68AE46914F042FD0F238DF804304FF0C1
:1085D000000364F3000301A8ADF808608DF80A30C9
:1085E00001F0C6F828460CB070BD05F021FDE2E7A9
:1085F0002DE9F04F99461378D2F81880F3B007466A
:108600008A46144623B1D1884046FFF73FFE906169
:10861000E378A278002BA2F1080003AD14BF01217A
:10862000022104F10C0642422B464241304603F03F
:1086300058FEA278C4F81880CDE908571FFA8AF5C9
:10864000AB1A9BB21F44ADF82830E3780E974FF079
:10865000000812AF0D978DF83C20ADF83080002B4C
:1086600065D04FF0100B04F1240A237BC4F824805A
:10867000022B02BF2369ADF830B00B93206A217939
:1086800052460FF05BFF606A30BB237B022B05D1A3
:108690003146E0890FF0EAFF0028E6D1374B1B682E
:1086A0005B0741D5364B1B68052B3DDD2F21354837
:1086B00014F09CFD002858D02F21324814F096FD6C
:1086C000411C314B314AD3F804350092062040F268
:1086D000F26204F013FD27E007A9FFF71DFF002851
:1086E000CCD02046FFF75CFFF0B9A2780B908DF854
:1086F0001C0096E80300A38AADF82A30AD1A0CAB33
:1087000001228DF8282083E80300A37D8DF84030F6
:10871000236A0E9307A8636A0897ADF824500F9355
:10872000CDF8449001F024F873B0BDE8F08F227BBF
:10873000012AB3D1A046E089B4F814A048F8243F38
:1087400041460FF02FFF07A9606AFFF7E5FE0028FA
:10875000C7D16062414650460FF024FF07A9606A06
:10876000FFF7DAFE002899D0BBE75C21054814F03A
:108770003DFD08B15C21A0E70249A2E7082E0020D8
:10878000042E002051D60300001001403FD7030003
:10879000C37D0A7830B5002B3DD0C37822F07F022C
:1087A00003F07F031A430A700B78027803F07F030B
:1087B00043EAC2130B70037863B38378083B5A42D1
:1087C0005A414B7803F07F0343EAC2134B708A7817
:1087D000C58802F00302C5F3861442EA850223F03D
:1087E0007F032343D2B28A704B70CB78057A03F0B3
:1087F0001F03C5F3C10422F0030243EA45132243D9
:10880000DBB2CB708A70427A23F01F0302F01F02A2
:108810001343CB7030BDC47822F0400343EA841385
:10882000DBB20B70027923F03F0302F03F021343E7
:108830000B70B9E738B590F84830012B044602D0E8
:108840007846FFF7A1FC02F097FE237B074A012B35
:1088500005BFD2E90315A37DD16805FB03110144CF
:1088600004F13000BDE8384002F05DBE74360020EF
:10887000F0B50D4691B0044610B97846FFF784FC78
:1088800094F84830022B19D1E188A069FFF7FEFC6B
:10889000E1690A061618284A4FEA112343F1000736
:1088A000136830465E1C166003F00703234A1B0161
:1088B0003946D618A78AD752C6E902012C220021D0
:1088C00005A8666D14F0C2FB102305A88DF81430BE
:1088D00006968DF81C5000F04BFF2046FFF7C4FDB4
:1088E000174B1B685B071BD5164B1B68032B17DD4B
:1088F0002F21154814F07AFCA0B12F21124814F052
:1089000075FC411C114BD3F80435029594F84820AE
:1089100001920F4A009204204FF4FA7204F0EEFB29
:1089200011B0F0BD5C21084814F060FC08B15C2176
:10893000E4E70549E6E700BF60360020E0350020A7
:10894000082E0020042E002051D603000010014004
:1089500020D6030008460021FFF78ABF10B591F822
:108960004830012B0C4602D07846FFF70DFC94F8F6
:1089700051305BB1013B84F85130002384F8503012
:10898000084BBDE81040186803F078BB217B012933
:10899000204603D1BDE81040FFF76ABFBDE8104094
:1089A000FFF77FBD703600202DE9F04F044689B0F7
:1089B0000F4609B100230B6004F10C0394F85050EA
:1089C00001934FF001084FF0000B627AAA4203D2E4
:1089D000002009B0BDE8F08FE16C08FA05F30B4206
:1089E00059D1E37D2572002B0CBF0C260826954239
:1089F00006FB05FA237808BFB4F84A608DF818B072
:108A000008BFA6EB0A06002B14BF4FF004094FF075
:108A1000010906EB09030493019B0293A36A0393E4
:108A200002A8E36A059303F0F6FD0028D1D1079B65
:108A3000994445B994F853302BB9A36984F853800D
:108A4000C3F30C03E380E37D8BB994F8523073B920
:108A500015B17846FFF798FBB4F84A10A2788A1A45
:108A6000E16E23460846FFF75EFC84F852800799C2
:108A70002046FFF78DFEE16E32465144484614F021
:108A8000DAFA02A803F0E8FD17B13B6801333B6056
:108A90006B1C84F850300135EDB296E72DE9F043B8
:108AA00007468FB01046884615469946FFF778FD71
:108AB0000446002860D1EE78002E40F0AE80B8F178
:108AC000060F59D138787A78DFF8A8C1830103F40A
:108AD000FE5343EA9203D7F802204FF0700812BA0F
:108AE000674608FB04C696F84810012925D1B6F858
:108AF00014E0E9898E4520D1F18899421DD1B6F85C
:108B000058E0A98ABEF1000F01D08E4515D110F0B2
:108B1000800F4FF070033BD003FB0473A3F8581091
:108B2000702303FB0474E56C1543E564002A61D1EE
:108B300003213046FFF79CFE1EE00134042CD0D107
:108B4000464B1B685B0717D5454B1B68012B13DD94
:108B50002F21444814F04AFB88B12F21414814F0DA
:108B600045FB411C404B414AD3F80435009202209A
:108B70004FF4CD6204F0C2FA0FB0BDE8F0835C217F
:108B8000384814F033FB08B15C21E7E73549E9E7E1
:108B900003FB0473DB898B42C2D0304B1B685A073E
:108BA000EAD52F4B1B68012BE6DD2F212D4814F051
:108BB0001DFBB0B12F212B4814F018FB411C2A4B90
:108BC000AA8AD3F804350292702202FB04740220B0
:108BD000E2890192264A00924FF4CE6204F08EFAA6
:108BE000CAE75C211F4814F001FB08B15C21E2E7F1
:108BF0001C49E4E73046FFF789FB854203D1304644
:108C0000FFF74FFCB8E7002184F850103046FFF71B
:108C1000CBFE3046FFF70EFEAEE73046FFF740FBD7
:108C200003460028A8D005F10C012A6A0B9203C95B
:108C3000AA8AADF8222009AA82E80300AA7D8DF84D
:108C400030202A788DF82020EA6A8DF81460CDE96A
:108C500006780D92494605A898478DE7082E002012
:108C6000042E002051D603000010014081D60300DD
:108C7000AFD603008C360020F0B5C37D1546827850
:108C8000002B2A4414BF4FF480734FF4C0739342F7
:108C9000C7B00E4679D3404C0023E11891F84870D4
:108CA000012F08D1B1F814C0878ABC4503D1CF8900
:108CB000C1898F426BD07033B3F5E07FEDD10121D4
:108CC000FFF774FB0446002863D02A463146C06E85
:108CD00014F0B1F9002304A920460493FFF764FEC1
:108CE00030F0040506464BD1049B13B12046FFF734
:108CF000A1FD2A4B1B685B0728D5294B1B68032B5A
:108D000024DDB4F84A10274B8029186828BF802139
:108D1000002305AE8B421CD100222F21224806F8E9
:108D2000132014F063FA10B32F211F4814F05EFAD9
:108D3000411C1E4B1E4AD3F8043501921D4A009275
:108D4000029640F25552042004F0D8F9284647B064
:108D5000F0BDE26ED25C170902F00F02C75D06F8A3
:108D60001370875C06EB430201335770D2E75C2136
:108D70000D4814F03BFA08B15C21D6E70A49D8E760
:108D80002046FFF771FB3546E0E70925DEE70825B9
:108D9000DCE70425DAE700BF8C360020082E00202F
:108DA000042E00200C2E002051D60300001001409C
:108DB00043D603004ED403002DE9F041044686B0AB
:108DC000808A0F46164602F055F8012844D1204605
:108DD000FFF77EFB054638B923784BB1324639465A
:108DE0002046FFF749FF0546284606B0BDE8F0815A
:108DF000E27DA378002A334414BF0B220F22934252
:108E000028D80133029304F10C030093A36A019361
:108E10008DF81000E36A0393684603F0FCFB0546F7
:108E20000028E1D10599204601F10108FFF7B0FCC7
:108E3000E37D43B132463946404614F0FCF86846BB
:108E400003F00AFCD0E72346324641463846FFF796
:108E50006AFAF4E70925C7E71025C5E710B54FF40E
:108E6000E0720021134814F0F1F8002405F0C6F96F
:108E7000114B12481C602146802214F0E7F8104B79
:108E80001049114A11489C75C3E9001210494CF26F
:108E90005032C3E902211A6140F604029A8203F0BB
:108EA000CFF80C4B18600C4B0C481C60BDE8104010
:108EB00005F0AEBA8C36002060360020E035002088
:108EC0007436002080969800F0490200A5960200B2
:108ED00020A107007036002064360020E1820200E5
:108EE00005F09EB830B504468DB0002860D0036907
:108EF000002B5DD0C369002B5AD08569002D57D057
:108F00005A788DF804201A780993838A82F0010236
:108F10000B2B8DF80320027B3AD90121022A8DF810
:108F2000001001D1234A927D002A3BD10422134430
:108F30008DF802200B330C2293FBF2F3013B8DF8EA
:108F4000093000238DF8083094E8030000238DF8E1
:108F5000173003AB83E803002389ADF81430A37AFC
:108F60008DF81630236A0A932046DF2308950B9369
:108F70000FF022FC28B12378012B0CBF2023FF2304
:108F80000B93A28A21696846FFF716FF0DB030BD2A
:108F9000C17A0029C1D1012A0CBF012200228DF81B
:108FA000002001D10822C2E704238DF80230CBE76C
:108FB0000E20EBE77436002070B50E4690B00446E4
:108FC000002862D04368002B5FD08569002D5CD0FB
:108FD00003788DF8133000230D9383680B2B94BF17
:108FE000027B012202F001018DF8101000218DF8A2
:108FF000121032B10733DB08013B8DF819308DF8C0
:10900000181004F1100292E8030001238DF82730B4
:1090100007AB83E80300E389ADF82430237F8DF8A4
:109020002630236A0C95CDE90E63194B1B685B074C
:109030001BD5184B1B68062B17DD2F21164814F083
:10904000D5F8C8B12F21144814F0D0F8411C134BA7
:10905000A269D3F80435029222780192104A009254
:10906000072040F2F57204F049F8D4E9011204A88F
:10907000FFF7A2FE10B070BD5C21074814F0B6F8EF
:1090800008B15C21DFE70449E1E70E20F2E700BF09
:10909000082E0020042E002051D6030000100140AD
:1090A000F0D6030070B5037B012B8EB004460D464D
:1090B0006DD1384B1B68980518D5374B1B68032BAF
:1090C00014DD2F21354814F091F8002853D02F21BA
:1090D000324814F08BF8411C314B324AD3F8043536
:1090E0000092042040F2622204F008F802AE0B2243
:1090F0000021304613F0AAFF9DF80920E3888DF87F
:109100000D5002F0030242EA83028DF809202A0E74
:109110008DF80A202A0C8DF80B202A0A8DF80C20D5
:1091200062780696911E4A424A41C3F3861343EA87
:10913000C2138DF808300623079301238DF82430DD
:10914000A38AADF8263000230A938DF814308DF8E9
:109150002030E389ADF82230E36A0D93A37D226AC3
:109160000B928BB96FF0010105A88DF83030FFF735
:1091700023FF0EB070BD5C21084814F037F808B129
:109180005C21A5E70549A7E7074B5B7DEAE70020DF
:10919000EFE700BF082E0020042E002051D6030068
:1091A0000010014010D603007436002010B591F86D
:1091B0004830022B0C4602D07846FEF7E5FF02232A
:1091C00084F8683094F84830022B06D1E16C2046D0
:1091D000FFF768FF08B984F8680010BD2DE9F04F6B
:1091E0000D469FB0144698460646002800F04C8273
:1091F000002A00F0498221B9092738461FB0BDE88E
:10920000F08F1822214615A813F015FF337800209F
:1092100059B2CA0F81428DF84820ACBF0122042206
:1092200095428DF84900E7D39DF85F70EFB103F0E8
:109230007F0381428DF84B308DF84A002EDA727828
:10924000B378920102F4FE5242EA9302ADF84E2046
:10925000DB00F27803F0180343EA521302F01F0216
:109260008DF850308DF8512018E0C3F3801000299C
:1092700003F03F038DF84B008DF84C3008DA96F977
:109280000130002BACBF042308238DF84A30D6E709
:1092900004231A4495428DF84A30ADD300231B9322
:1092A00098F80030032B02D97846FEF76DFF98F846
:1092B0000020AB4BBDF85C0053F822301D9301F049
:1092C000D9FD012840F0E28112A8FFF701F9074615
:1092D000002892D10146082205A813F0B7FE05A97F
:1092E00060880FF0C3F928B19DF8493043F00103BD
:1092F0008DF84930D4E90312208904F0C9FE002812
:1093000057D19DF84930002B3FF477AF13F001039C
:109310001CBF069A16929DF84820002A00F0A281F0
:10932000BDF84E101898FEF7B1FF199B4FEA03697C
:109330004FEA132A19EB00034AF10004CDE9023485
:10934000BDF85C00874C00210B5B834209D1631898
:10935000D3E90223DDE9029A9A4508BF91453FF41B
:109360004CAF10318029EFD17F4A0023702101FBDF
:10937000032494F848C0BCF1020F23D1B4F814C000
:1093800084451FD1E188A069FEF780FFE1690A06E4
:1093900012EB00094FEA112343F1000ADDE9022331
:1093A0009A4508BF914531D205212046FFF760FA62
:1093B0000BE09DF8493003F0FE038DF84930002B97
:1093C0009FD11AE70133042BD1D1BDF84E30BDF83F
:1093D0005C00DDE9181204F083FE002800F0D28062
:1093E000BDF84E30BDF85C00DDE9181204F0ACFEAB
:1093F00000283FF402AF12A8FEF788FF014612A82A
:10940000FFF750FE12A8FFF7CBF8F6E6DDE90223DE
:10941000534508BF4A45FFF4F0AE544B1B685B0749
:109420001CD5534B1B68032B18DD2F21514813F01B
:10943000DDFE002800F0FC802F214E4813F0D6FE00
:10944000411C4D4B9DF85020D3F8043501924B4AF6
:10945000009204204FF4657203F050FE94F84830F7
:10946000022B02D07846FEF78FFEDFF81491D9F870
:1094700000A002F081F80AEB000104F1300002F0D4
:1094800052F8237B012B1AD194F86830BBB994F8B9
:109490004830022B02D07846FEF776FED9E9013239
:1094A00099F8151002FB013902F066F800EB09018A
:1094B00004F1500002F037F8012384F868309DF879
:1094C0005010E36C01228A4013427FF496AE13439E
:1094D000E3649DF85F30627A002B0CBF4FF00C09FB
:1094E0004FF008098A42A5F1040509FB01F940F093
:1094F000A88009EB0503A4F84A30A269189B9A4298
:109500000BD20DF1540EBEE80F0004F10C0CACE8C8
:109510000F009EE803008CE80300E06E2A46311D30
:10952000484413F088FD2046E56CFEF7EFFE8542C7
:109530007FF463AEE16C2046FFF7B4FD6378DA0791
:109540000AD5E37DE06EB4F84A10002B00F0858068
:1095500043462246FFF7A2FA2046FEF785FF4CE677
:1095600000D60300E03500208C360020082E0020B5
:10957000042E002051D60300001001402FD7030015
:10958000743600209DF85F209DF85130002A0CBFF2
:109590000C24082403FB04440CBF4FF4C0734FF4A5
:1095A00080739C4228D93A4B1B6859077FF525AE3A
:1095B000384B1B68002B7FF720AE2F21364813F065
:1095C00015FE80B12F21344813F010FE411C334B9F
:1095D000334AD3F80435009201944FF45C720120B1
:1095E00003F08CFD09E65C212B4813F0FFFD08B168
:1095F0005C21E8E72849EAE72246022112A8FEF7A3
:10960000D5FE044600287FF408AF014612A8FFF7F4
:1096100049FD2C22214607A813F018FD10238DF8D0
:109620001C3007A802238DF8243000F0A1F8E4E5EF
:109630005C21194813F0DAFD08B15C21FDE61649FA
:10964000FFE6002B0CBF0C2308239D423FF455AFCF
:1096500004212046FFF70CF9CFE543462246FEF7EA
:10966000C7FF79E7002B3FF4C8AD9DF85F30701C51
:10967000691E23B1434612AAFFF710FABDE543461F
:1096800012AAFEF7B5FFB8E50E27B6E51027B4E538
:10969000082E0020042E002051D6030000100140A7
:1096A0001BD703002DE9F341194E00243746A0468D
:1096B000351995F84830012B0CD102A9284641F8FC
:1096C000048DFFF771F9042801D0019B13B12846DE
:1096D000FFF7B0F87034B4F5E07FE9D100257C19CC
:1096E00094F84830022B0AD194F86830022B06D146
:1096F000E16C2046FFF7D6FC08B984F868007035A5
:10970000B5F5E07FEBD1012002B0BDE8F08100BFEC
:109710008C3600202DE9F04188460746E8B1124E0C
:109720003468C4B92546454507D1104BC3E90075D7
:10973000012333602046BDE8F08107EBC5035B6879
:109740005BB117F83500030609D450B1FEF7A8FD48
:1097500038B90135E7E70424ECE70E24EAE70B24E7
:10976000E8E70F24E6E700BF6436002068360020F3
:10977000F8B5074610B97846FEF706FD0F4E346877
:1097800094B10F4D01232B7023791BB954F8043C7D
:10979000384698472468002CF6D12B78022B03D149
:1097A0003168064C09B92970F8BD0B790E6813B100
:1097B000204603F028FC3146F4E700BF5038002073
:1097C0004C38002010B5044610B97846FEF7DCFC92
:1097D00000232372211D0248BDE8104003F0F2BBB4
:1097E000503800200B888268D25A073222F00302D8
:1097F000134402889BB2043A934288BF00230B8033
:10980000704713B58368CB1A02A921F8023DFFF710
:10981000E9FFBDF806308068184402B010BD70B58D
:10982000064615460C4611BB7846FEF7ADFCFEB168
:109830007846FEF7A9FC6B1E2344B3F1005F34D9D0
:109840004FF08052D2F80C2102F50022B3EB822FA8
:109850002ED2042D02D87846FEF796FC35800023E0
:10986000043D7380B380B4602580A37070BD10B9CF
:109870007846FEF789FCB4F1005F12D94FF08053AF
:10988000D3F80C3103F50023B4EB832FD3D34FF07F
:109890008053D3F80C3103F50053B4EB832FC7D2B8
:1098A000C9E7B4F5000FF2D8C2E7B3F5000F08D945
:1098B0004FF08052D2F80C2102F50052B3EB822F08
:1098C000C7D37846FEF760FCC3E738B5044610B945
:1098D0007846FEF759FC6288A36813449B78012BF5
:1098E00002D17846FEF750FCEFF3108572B6A268FD
:1098F000A18811448B78032B0AD12046FFF781FF02
:10990000A368C31A63800023837005B962B638BDAB
:10991000002393706380A380F7E7F8B50E461546E1
:10992000044610B97846FEF72FFC16B97846FEF7C4
:109930002BFC6288A36813449B78012B02D17846E4
:10994000FEF722FC002D37D02388043B9BB29D42BA
:1099500032D8EFF3108772B66188A388EA1D22F02F
:109960000302994292B204D25B1A9A4210DD04209B
:1099700016E018D92088401A904209D29A42F6D8A7
:10998000032881BFA3685B1804229A7000236380B8
:109990006288A1688B188D5201229A700020336072
:1099A00007B962B6F8BDA26813449B78002BDED1DC
:1099B00093706380A380EBE70920F3E7F8B50D46C9
:1099C0001646044610B97846FEF7DEFB15B9784610
:1099D000FEF7DAFBAB78012B02D07846FEF7D4FB1A
:1099E0002B88B34202D27846FEF7CEFB16B97846F2
:1099F000FEF7CAFBEFF3108772B60223AB70E118D3
:109A00002E802046FFF7EEFE6288A38893421FBF98
:109A1000A3689B1800229A7007B962B6F8BD70B5AA
:109A20000D46044610B97846FEF7AEFB15B97846E8
:109A3000FEF7AAFBEFF3108672B6A288A368134460
:109A40009A78042A06D1211D2046FFF7CBFEA28872
:109A5000A36813449A78022A03D0032A08D0052069
:109A600003E003229A702B60002006B962B670BD35
:109A70007846FEF789FBF7E738B5044610B9784613
:109A8000FEF782FBEFF3108572B6A088A16801444F
:109A90008B78042B03D12046FFF7B3FE014688786C
:109AA000831E5842584105B962B638BD38B50446E0
:109AB00010B97846FEF768FBEFF3108572B6A08800
:109AC000A16801448878C31E012B05D9831E584222
:109AD000584105B962B638BD2046FFF792FE0146EF
:109AE000F0E7F8B50D46044610B97846FEF74CFB92
:109AF00015B97846FEF748FBEFF3108672B6AB78DF
:109B0000012B19D0032B22D1A288A36813449D42B4
:109B100002D07846FEF738FB0027AF70211D2046A3
:109B2000FFF760FEA288A36813449B78042B00D142
:109B3000A78006B962B6F8BD6288A36813449D4247
:109B400002D07846FEF720FB0023AB70F1E77846A1
:109B5000FEF71AFBEDE710B5EFF3108472B68288BA
:109B6000816811448B78042B02D1FFF74AFE01462D
:109B70008878B0FA80F0400904B962B610BD037964
:109B800042799B1A03F57F2303F6FF7300EB033042
:109B90007047000010B5054884681C22002113F0AE
:109BA00055FA2046BDE8104004F000B854380020B3
:109BB00070B5194CE36813B97846FEF7E5FA237ED1
:109BC00013B17846FEF7E0FA6368092B02D97846AC
:109BD000FEF7DAFA114D0026636855F823309847EE
:109BE000022811D003280DD0012810D16368013359
:109BF000092B636002D97846FEF7C6FA237E002B54
:109C0000EAD004E06660F9E7237E0BB1207070BDF6
:109C1000BDE87040FFF7BEBF54380020C4D7030032
:109C200010B50388044613B97846FEF7ADFA2088CC
:109C3000074B04EB800030EA030203D06288B2F5E0
:109C4000FE4F04D11C4004F580542078204410BD00
:109C500000F0FFFF70B504460E4647F6FE65FFF7BD
:109C6000DFFFB04207D2844205D24388013B9BB25A
:109C7000AB42F4D870BD0020FCE700000B78032B4A
:109C8000094B04BF00221A761A78012A03D11B7EE1
:109C900043B9FFF78DBF022A04D10B78032B01D102
:109CA000FFF778BF704700BF5438002010B50C4C48
:109CB000E3681878002203F58051184404F06CFB27
:109CC00050B9E1680846FFF75AFF814206D001F516
:109CD0008051E160032010BD0120FCE70220FAE77B
:109CE000543800201FB50A4B02221B688DF8002053
:109CF0000193084A4FF4805369460120029300F013
:109D0000FBFFB0FA80F0400905B05DF804FB00BF2E
:109D100074380020703800201FB50123CDE90221DE
:109D20000190054A8DF800306946184600F0E4FFBE
:109D300005B05DF804FB00BF703800202DE9F04746
:109D4000254BD86802794179013A91421E4603D1E8
:109D500001205876BDE8F08700F580531F491C7834
:109D60001C440B6813F8045F1D44FFF708FF638869
:109D7000013B9BB247F6FE62934200F5805788464E
:109D800004D920463946FFF765FF0446DFF850A0A6
:109D90004FF001092CB9B4FA84F4640974760120F7
:109DA000D8E7D8F800106288284601F5805104F001
:109DB000F3FA05460028EED004225146204686F8E4
:109DC0001890FFF7A9FF28B920463946FFF742FF50
:109DD0000446DFE70020BDE7543800207438002037
:109DE0006CD9030038B5104CE36818784FF6FF7251
:109DF00003F58051184404F0CFFA88B1E36819786C
:109E00000B4498420CD0657E0849094B0422002D72
:109E100008BF1946FFF780FF20B90120207638BD22
:109E20000120FCE70020FAE75438002074D9030031
:109E300070D9030070B50C4D0C4EE96830680C7891
:109E400004302246FFF768FF58B9336804F0FC0479
:109E500004341C44EB686C611A7813442B610120B4
:109E600070BD0020FCE700BF54380020743800208B
:109E700008B5054B054918680422FFF74DFFB0FAF5
:109E800080F0400908BD00BF743800206038002011
:109E900010B5074B074C1968E06840F6FC720431B6
:109EA000FFF73AFF10B90120207610BD0020FCE733
:109EB000743800205438002010B50C4CE168084676
:109EC000FFF75DFE81420AD1094B0A491868042256
:109ED000FFF722FF40B901232376022010BD01F5D0
:109EE0008051E1600320F9E70020F7E754380020B3
:109EF00074380020783800202DE9F74F324C236960
:109F000013B97846FEF740F9636913B97846FEF74E
:109F10003BF9DFF8B89047F6FE6A6369D4E90306B7
:109F200003EA0908A8EB0308FFF729FE7388013B41
:109F30009BB2534508F5805800F5805B06D9304642
:109F40005946FFF787FE0646002835D035460027DC
:109F50005D4519D22A8807EB8202904509D986EA25
:109F6000050313EA090F04D16B88013B9BB25345EB
:109F700002D957B9012318E028460192FFF750FE95
:109F8000019A05461746E3E7E7B13A46314660696C
:109F9000FFF7C2FE90B963691F44676115B978463F
:109FA000FEF7F2F82561002335B1698847F6FF72A4
:109FB000914201D0002BB0D0012000E0002003B07E
:109FC000BDE8F08F0123EFE75438002000F0FFFFD9
:109FD0001FB50A4B0222DB688DF800200193084A66
:109FE0004FF4805369460120029300F085FEB0FAD9
:109FF00080F0400905B05DF804FB00BF5438002034
:10A00000703800201FB540F6F8731B685A1C0CD13D
:10A01000374B1A68013202D01A68002A54D14FF027
:10A020008052516913694B4303E0002BF7D0A3F52D
:10A030008053304CA3F5805323602F4B1B68DB0209
:10A0400023D52E4B1B68062B1FDD2F212C4813F028
:10A05000CDF800283AD02F21294813F0C7F8411C29
:10A0600040F6F872274B1268D3F80435501C08BF2D
:10A070001F4A206808BF1268CDE90120224A0092D9
:10A0800007204FF41A7203F039F8236819684B1E41
:10A0900003332BD8C1F30B0343BB1C4A1C48D160CC
:10A0A000012111701B4913765376936051F82340B8
:10A0B000844214D153600120174900F00DFEFFF7D0
:10A0C00077FD012004B010BD1B68B0E75C210C488F
:10A0D00013F08CF808B15C21BEE70949C0E70133F1
:10A0E0000A2BE3D17846FEF74FF8E4E70020E9E7D2
:10A0F0001410001074380020082E0020042E0020B8
:10A1000068D703000010014090D7030054380020A6
:10A11000D19F0200C4D703007D9C020010B5044605
:10A1200010B97846FEF730F8094B187860B1E0684E
:10A13000D9684379A0EB0333994206D3FFF71FFD9B
:10A1400081428CBF0020012010BD0020FCE700BF31
:10A1500054380020024B1878003018BF0120704797
:10A160005438002038B50E4C2378054613B1784694
:10A17000FEF70AF82B78032B02D07846FEF704F896
:10A18000EB68E360012000230649A5606360237645
:10A190002070637600F0A0FDBDE83840FFF708BDF1
:10A1A000543800207D9C0200014B1868704700BFA6
:10A1B0007438002010B5044610B97846FDF7E4FF66
:10A1C00063681BB123680BB1A36813B97846FDF728
:10A1D000DBFFA3685A1E1A4202D07846FDF7D4FF6F
:10A1E0000023C4E9033310BD38B50546F0B1E9B129
:10A1F0008368EBB1EFF3108472B6D0E902302A69BC
:10A200001A44824203D104B962B604240CE0013B33
:10A210000340D5E9000202FB030012F00CFFEB68DB
:10A220000133EB6034B962B6204638BD0E24FBE73B
:10A230000924F9E70024F7E770B50E460446F0B1AB
:10A240008368F3B1EFF3108572B6D0E90331994218
:10A2500003D105B962B605250FE04EB18368013B15
:10A260000B40D0E90012304602FB031112F0E3FE6E
:10A2700023690133236135B962B6284670BD0E25C6
:10A28000FBE70925F9E70025F7E7C3680361704795
:10A29000D0E90320101A7047024AD2F80034002B8C
:10A2A000FBD0704700E00140C0F30B0310B5E3B9E9
:10A2B000E9B1104C0223C4F80435FFF7EDFF01F6B5
:10A2C000FF7121F47F6121F00F010144884205D123
:10A2D0000020C4F80405FFF7DFFF10BDC4F808052F
:10A2E000FFF7DAFF00F58050F0E71020F5E70920CE
:10A2F000F3E700BF00E0014070B540EA010414F04C
:10A3000003041BD1E2B195071AD10E4E0123C6F802
:10A3100004359508FFF7C0FFAC4205D10020C6F810
:10A320000405FFF7B9FF70BD51F824305A1C03D063
:10A3300040F82430FFF7B0FF0134EDE71020F2E7DA
:10A340000920F0E700E0014041F2826398429DBF9E
:10A35000024B1878C0F3C000012070470339002079
:10A3600013B50190000C01280C4602D07846FDF789
:10A370000BFF084A0849236813600B7843F0010378
:10A380000B7083F00203C3F340030020137102B08B
:10A3900010BD00BFFC3800200339002013B5019028
:10A3A000000C02280C4602D07846FDF7EDFE084B63
:10A3B00022681A6022791A71064A00205871987131
:10A3C000D871137843F00203137002B010BD00BFC0
:10A3D000F43800200339002007B50190000C032851
:10A3E00002D07846FDF7D0FE03480522002103B0D5
:10A3F0005DF804EB12F02ABEFC38002007B501908E
:10A40000000C042802D07846FDF7BEFE034808225F
:10A41000002103B05DF804EB12F018BEF438002000
:10A4200013B50190000C03280C4602D07846FDF7C6
:10A43000ABFE04490522204602B0BDE8104012F0F0
:10A44000FABD00BFFC38002013B50190000C0328B2
:10A450000C4602D07846FDF797FE052221460548B6
:10A4600012F0E9FD044A1378002043F00103137051
:10A4700002B010BDFC3800200339002013B5019054
:10A48000000C04280C4602D07846FDF77DFE0449F6
:10A490000822204602B0BDE8104012F0CCBD00BF3B
:10A4A000F438002013B50190000C04280C4602D0AB
:10A4B0007846FDF769FE08222146054812F0BBFDEB
:10A4C000044A1378002043F00203137002B010BD59
:10A4D000F43800200339002000B50A4B1A7B9B6832
:10A4E0008DB0012A08BF03F1FF3303900CA8049339
:10A4F000022300F82C3D8DF80820FFF739F90DB044
:10A500005DF804FBA8380020074A1378590709D5DD
:10A510000178122906D10549086805496FF38203BD
:10A5200048601370704700BF03390020FC380020DA
:10A53000A83800201FB50F490B785A0717D40E4AC8
:10A54000526802F50052B2F1807F02920FD80B4A96
:10A5500043F0040312780B704FF4403002A98DF8D9
:10A560000C2004F0EDFE10B17846FDF70DFE05B0AD
:10A570005DF804FB03390020A838002004390020CE
:10A580001FB5002303930C4B9A6802920B4A1B7B66
:10A590008DF80C3013780133DBB202A94FF4802020
:10A5A00013708DF80F3004F0CBFE10B17846FDF734
:10A5B000EBFD05B05DF804FBA8380020043900204D
:10A5C00007B54FF4403004F019FF4FF4802004F039
:10A5D00015FF14220021064812F038FD054B1A78A9
:10A5E0006FF345121A7003B05DF804EBFFF7A2BFDA
:10A5F000A83800200339002010B50C4C142200218B
:10A60000204612F023FD00F0B7FF094B094A0A4922
:10A610009A600022C3E9031258605A61074B6260D6
:10A62000197862F3C301197010BD00BFA83800206B
:10A630008438002099A70200008793030339002083
:10A6400037B5244D2B78DB062BD42348234B0360EE
:10A6500000F052FD2248234B036000F04DFD2B78A3
:10A6600013F020020ED103F00303032B1E4C1AD06B
:10A670002260A26022732282FFF782FF2368636058
:10A68000FFF758FF4FF4803004F0B8FE4FF400306D
:10A6900004F0B4FE154800F00DFF2B7843F01003D2
:10A6A0002B7003B030BD124B1A68A2601A79227366
:10A6B0009879597941EA00212182D9790D4B197095
:10A6C0000D4B1879884202D00AB92260D6E71B6880
:10A6D0002360D3E7033900209C38002035A802000E
:10A6E000E838002009A50200A8380020843800209E
:10A6F000F438002004390020FC38002010B501F0A7
:10A700002FFC0D4A137BA3B9947B94B9108AFFF7F1
:10A710001BFE70B10123137393681482013393609D
:10A72000FFF72EFF2046FFF7D7FE01F059FC204629
:10A7300010BD0824F9E700BFA838002010B501F0CB
:10A740000FFC144A547B9CB1917B09BB108AFFF724
:10A75000FBFD044660B1137B51732BB1012B0BD071
:10A760007846FDF711FD03E0FFF7C8FF0028F7D199
:10A7700001F036FC204610BD0846C2E900111173F5
:10A780001182FFF7A9FEFFF7FBFEFFF7D3FEEFE70D
:10A790000024EDE7A83800201FB5244C227B2AB105
:10A7A000012A0FD07846FDF7EFFC1CE0208AFFF766
:10A7B000CBFDC0B1FFF7C2FF638A0BB1013B6382DF
:10A7C00004B010BD218A0846FFF7BEFD58B142F221
:10A7D000B013994288BF6273FFF7B0FF0028EBD136
:10A7E000637B002BE8D1238A01339BB21E211846DC
:10A7F0002382B3FBF1F201FB12339BB2002BDBD1BE
:10A80000A3680293237B8DF80C30094BADF80D0043
:10A810001B788DF80F3002A94FF4802004F090FDD2
:10A820000028C9D07846FDF7AFFCC5E7A83800205E
:10A830000439002010B50378042B0ED143681B782F
:10A840005BB11D4B4269197B047E71BB598A01BB08
:10A85000012C996802D08A4203D810BD4C1CA24238
:10A8600019D92A318A42F8D8997B0029F5D1846810
:10A870009A60124A1A61C3E9001159731973FFF7FC
:10A880007FFEFFF757FE04F11000BDE81040FFF710
:10A8900023BE012CE1D1996801318A42DDD1012228
:10A8A0005A73BDE81040FFF749BF0129D5D1012CEB
:10A8B000D3D09968F1E700BFA83800200000062D2A
:10A8C00038B5164CD4E900239A4205461FD2207BA6
:10A8D000134B1449012808BF0B469A4207D26368FC
:10A8E0002268403B9A4208D3FFF724FE05E001238B
:10A8F0006373FFF723FF0028F1D0EFF3108072B6E7
:10A9000023685A1C22602B6028B962B638BDFFF755
:10A9100011FE0F20FAE70020F8E700BFA83800205A
:10A92000FFFF7F0000E0FF0010B50C4A13681446DB
:10A9300028B101200A4903448873136010BD13B97C
:10A940007846FDF721FC2368013B2360002BF5D1FD
:10A95000034A9373BDE81040FFF7F0BE7C38002037
:10A96000A838002000B58DB00323ADF808000CA86E
:10A970008DF8102000F82C3D0391FEF7F9FE0DB084
:10A980005DF804FB014B9868704700BFA8380020B1
:10A99000034B98681B7B012B08BF00F1FF30704709
:10A9A000A8380020044B9B685840C20748BF03F1F9
:10A9B000FF331846704700BFA8380020014B187BB2
:10A9C000704700BFA838002038B50C4A137813F040
:10A9D000200411D10A4D43F0200313702973A8609D
:10A9E0002C82FFF7CDFD2046FFF776FDC5E9004438
:10A9F000FFF7A0FD204638BD0820FCE70339002002
:10AA0000A83800202DE9F8431D4CDFF87890002687
:10AA10000221204602F0E4F95FFA86F80546002795
:10AA2000ADB967B12946204602F041FA082806D19F
:10AA300054F8043C1BB12A46494640469847013623
:10AA4000032E04F1BC04E3D10120BDE8F88354F8DF
:10AA5000043C34F80C2C13B129464046984734F88E
:10AA60000C3C02210133204624F80C3C02F0D4F9BE
:10AA70000221204602F0B4F901370546D0E700BFB5
:10AA80001C390020FCD7030038B5012104460C30E6
:10AA900002F0A6F9054620B3164BC4F89C300023FB
:10AAA000C4F8A03003786268012B07D0022B1AD0BB
:10AAB0007846FDF769FB4FF4FA7306E081688B1A5C
:10AAC000990829234B4303F5FA730B4A934294BF29
:10AAD000C4F8A830C4F8A8200123C4F8AC4084F816
:10AAE000B830284638BD83689B1A1A0B034B534372
:10AAF000E9E700BF21AB020060850100084C0100BE
:10AB000010B50446FFF7C0FF48B104F19C0005F002
:10AB10000FFE20B17846BDE81040FDF735BB10BDF3
:10AB20002DE9F74F4A4B1B7880460D463BB105F0A7
:10AB300035FE002385F8B83003B0BDE8F08F01F191
:10AB40000C09D1F8A8704846012102F049F90646DF
:10AB500010B97846FDF718FBDFF8FCA0A7F5FA77E7
:10AB600000244FF0290B3378012BA7EB040406D007
:10AB7000022B3BD07846FDF707FB00231FE06B68F4
:10AB8000B268B4FBFBF4D21AA400944228BF144666
:10AB900024B901937846FDF7F7FA019BF1687068D4
:10ABA00023F00303224619441844FFF7A5FB10B114
:10ABB0007846FDF7E9FA6B681C446C60B3686A6814
:10ABC0009A422AD105F0EAFD4846012102F024F913
:10ABD00000236B6085F8B8301E4B186801F04EFA00
:10ABE000284603B0BDE8F04FFFF78ABF6B68B26834
:10ABF000B4FBFAF4D21A2403944228BF144624B9B1
:10AC000001937846FDF7C0FA019B706823F00303B7
:10AC100021461844FFF748FBC9E701F095F833785F
:10AC2000B0EB080448BFA8EB0004012B0DD0022BA9
:10AC300006D153462344BB4295D905F0AFFDCFE77B
:10AC40007846FDF7A1FA0023F4E72923F2E700BFD5
:10AC50000C39002008390020084C010070B51B4851
:10AC60001B4C01F0EDF91B4B186004F11C0341F281
:10AC700003060825636104F10C0004F11803236145
:10AC8000A681A57302F0EFF804F1D803C4F8D03020
:10AC900004F1C80004F1D403C4F8CC30A4F8C860AF
:10ACA00084F8CA5002F0DFF804F5CA73C4F88C3196
:10ACB00004F5C873A4F8846184F88651C4F8883117
:10ACC00004F5C270BDE8704002F0CDB805AA0200DC
:10ACD0001039002008390020022838B504460D46F6
:10ACE00002D97846FDF750FA024BBC2202FB04342D
:10ACF000A56038BD1039002002282DE9F84F07461D
:10AD00000C46924602D97846FDF73EFA14B97846C9
:10AD1000FDF73AFA2378012B12D16368990702D024
:10AD20007846FDF731FAE3689A0702D07846FDF7D6
:10AD30002BFAA3689B0711D07846FDF725FA0DE0A2
:10AD4000022B0DD16368C3F30B0313B17846FDF7F3
:10AD50001BFAA368C3F30B03002BEDD1A36813B94F
:10AD60007846FDF711FAEFF3108872B6BC257D43E3
:10AD7000224E05F10C09B1440021484602F030F89A
:10AD8000834690B30021484602F046F8102221463F
:10AD9000584612F050F9BAF1000F03D073195B88CE
:10ADA000AAF80030BC2303FB07677B8897F8B840FC
:10ADB00001337B8004BB124B1F78BFB97019FFF7BA
:10ADC00063FEB8F1000F0ED162B6444640B105F102
:10ADD0009C00304405F0ACFC10B17846FDF7D4F986
:10ADE0002046BDE8F88F3C46F0E70424B8F1000F98
:10ADF000F6D1A0460020E7E70024F7E7103900204D
:10AE00000C39002070B5EFF3108672B6144C23682D
:10AE100018BB13B97846FDF7B7F92368013B2360E7
:10AE200093B9104D95F8B83013B92846FFF768FE6E
:10AE300095F8743113B90C48FFF762FE95F830327B
:10AE400013B90A48FFF75CFE2368094A003318BFAC
:10AE50000123137006B962B670BD01332360F3E7B6
:10AE6000443B002010390020CC390020883A0020D3
:10AE70000C39002010B1800B014B185C704700BFEB
:10AE80000CD8030012DF704713B501F055FC0446DF
:10AE9000D8B1134B1B685B0617D5124B1B68012BEF
:10AEA00013DD2F21104812F0A1F980B12F210E4897
:10AEB00012F09CF9411C0D4B0D4AD3F80435009259
:10AEC00001946C22022002F019F902B010BD5C213D
:10AED000054812F08BF908B15C21E8E70249EAE77E
:10AEE000082E0020042E002035D803000010014059
:10AEF00051D8030070B58AB006F00AF9044600285C
:10AF000034D000238DF8103006460FCE05AD0FC5A6
:10AF100033682B60627D052A0CD9207D00F00F0379
:10AF2000072B07D004AB063A04F11D0100F00F0017
:10AF300004F0A6FF114B1A68AAB104AB0393237D5A
:10AF4000C3F303038DF80430637D062B89BF063BF2
:10AF500000238DF8053004F11D0398BF8DF80530EE
:10AF6000029301A89047204606F0BCF806F0EAF8E4
:10AF700080F00100C0B20AB070BD00BF4C3B0020A1
:10AF8000F7B52E4F3A780546002A4DD100284DD00E
:10AF9000067A0F2E01D0062E4AD104F041FFE86850
:10AFA00000283ED0FDF702F90DF10700FFF76AFF18
:10AFB000044698BB9DF80730012B3BD1FDF720F9E3
:10AFC00000F062FA304600F07DFFE87800F0E8F823
:10AFD00000F0BEFD05F066FB194806F04BF905F0E0
:10AFE000CFF804F023FFFFF739FE04F0F5F800F086
:10AFF0000DFC04F0D5FE04F0F5FC284601F0F4FA4F
:10B00000FDF72CFF03F0A4FCFCF7BCFF08B10628F9
:10B0100012D10C4B00221A6001233B70204603B072
:10B02000F0BDFDF7CBF8BFE70824F7E70E24F5E7FE
:10B030000724F3E70224F1E70446EFE7483B00204A
:10B04000F5AE02004C3B002037B5244D2A78012A8A
:10B0500005D002D3033A012A38D9082428E006F0A3
:10B0600023F801F0D1FAFDF73BFFFCF78BFF044614
:10B0700050B3062828D01A4B1B685B0418D5194B0F
:10B080001B68012B14DD2F21174812F0AFF890B187
:10B090002F21154812F0AAF8411C144B144AD3F87A
:10B0A0000435009201944FF4AF72022002F026F8AA
:10B0B000204603B030BD5C210B4812F097F808B170
:10B0C0005C21E6E70849E8E700F028FF05F022FBED
:10B0D00004460028ECD102232B70E9E7483B00200E
:10B0E000082E0020042E002035D803000010014057
:10B0F00010D80300FDF7F6BEFEF764BB08B500F0FC
:10B10000F7FC002008BD7047044B1A680132B2F109
:10B11000704F08BF01221A6018687047503B00202A
:10B1200010B5044610B97846FDF72EF80023C4E99F
:10B13000003310BD38B50D46044610B97846FDF70A
:10B1400023F815B97846FDF71FF800236B60EFF37D
:10B15000108372B6226822B92560656003B962B6B1
:10B1600038BD62685560F8E710B5044610B97846F6
:10B17000FDF70AF8EFF3108272B6206808B1436851
:10B180002360236803B9636002B962B610BD10B5CD
:10B19000044610B97846FCF7F7FF206810BD0000A0
:10B1A00007289ABF024B33F81000FA20704700BFFF
:10B1B0007AD80300024B5868103840B2704700BF7D
:10B1C00000ED00E0084A202390FBF3F352F823300F
:10B1D000424202F01F0200F01F0058BF504223FA03
:10B1E00000F000F00100704700E100E046DF70472A
:10B1F00030B501F110031032103013F8014D12F880
:10B20000015D8B4284EA050400F8014DF5D130BDA3
:10B210002DE9F047144690B002F10F051022884640
:10B220002D1101460DEB0200994604F00F0411F0B8
:10B2300002FF002D51D0002C4FD10126B246102222
:10B24000002108A811F002FF04A8FFF7CFFF012298
:10B250000DF13F0110AB13F9100D1F4693F800C01C
:10B260004FEA4C0C5FFA8CFC83F800C013F801EF36
:10B270004CEADE1C994203F801CCEFD19DF83F3037
:10B280005B00DBB20028B8BF83F087038DF83F3046
:10B29000531C9A454FF00202DCD2013D08EB051128
:10B2A000FEB10CAA6846FFF7A3FF102200210CA8EC
:10B2B00011F0CCFE0024AC4225DB3A46694608A8D2
:10B2C000FFF796FF04A8FFF791FF10223946484682
:10B2D00011F0B1FE10B0BDE8F08700264FF0020A71
:10B2E000ADE72246684611F0A6FE10AB234480224B
:10B2F00003F8402C0134102C02D10CAA6946D1E786
:10B300000DF80460F6E708EB0412394608A8FFF7C9
:10B310006FFF04A8FFF76AFF0134CCE738B5124B82
:10B320001A6804462AB11A6845685268AA1A002A9F
:10B330000DDA1A6862611C609A88013292B29A80B2
:10B3400012B97846FCF720FF0123237038BD196835
:10B350004A691AB15068401B002802DB62614C61E7
:10B36000EAE71146F4E700BF583B002010B5124B46
:10B370001A68824204461A460BD142691A609A88BA
:10B3800092B2511E89B299808AB97846FCF7FCFEC8
:10B390000DE01B685BB15969A1420BD1616959612C
:10B3A00093889BB2591E89B29180002BEDD0002367
:10B3B000237010BD0B46EDE7583B0020014B186889
:10B3C00000F05CBE543B0020044B1A6822B11B689D
:10B3D0000349586800F05AB900F0AEB9583B002054
:10B3E000BDB302002DE9F04100F0C6F8254E054638
:10B3F00037464FF00008336823B133685B685B1B46
:10B40000642B06D400F0B8F8FFF7DEFF0120BDE89A
:10B41000F08134682378012B02D07846FCF7B4FE23
:10B4200063693B60BB88C4F814809BB25A1E92B219
:10B43000BA8013B97846FCF7A7FEA36813B978461B
:10B44000FCF7A2FE0223284623702169A3689847CF
:10B4500000F092F82378022B0546CCD1E2680AB9B5
:10B460002270C8E763686FF06301891A1344091AF0
:10B47000D018C14204D463602046FFF74FFFBAE7FB
:10B480000346F5E7583B002008B50822002106488E
:10B4900011F0DCFD054800F0D3FD054B1860BDE858
:10B4A000084000F05CB800BF583B0020E5B3020044
:10B4B000543B002010B5044600F0B8FE10B97846A1
:10B4C000FCF762FE14B97846FCF75EFEA36813B978
:10B4D0007846FCF759FE2378012B02D17846FCF719
:10B4E00053FE002363612046FFF718FF00F044F885
:10B4F000BDE81040FFF768BF10B5044600F096FEA7
:10B5000010B97846FCF740FE14B97846FCF73CFECB
:10B510002046FFF72BFF0023636100F02DF8BDE804
:10B520001040FFF751BF38B504460D4600F07EFECF
:10B5300010B97846FCF728FE14B97846FCF724FECB
:10B540002046FFF713FF0023636120466560FFF785
:10B55000E5FE00F011F8BDE83840FFF735BF08B54B
:10B560000DF016FC38B90DF04FFB20B17846BDE860
:10B570000840FCF709BE08BD10B5EFF3108072B6A5
:10B580000C4A0D4B1968D2F80435D2F80441012C4D
:10B5900004BFD2F80435013100B962B6074843EA66
:10B5A00001614FF480420023E0FB0123D00B40EA0D
:10B5B000434010BD00100140603B002040420F009E
:10B5C00010B50A4B0A4C4FF40032C3F84823C3F8B5
:10B5D0000823226812B97846FCF7D6FD2468FFF7E5
:10B5E000CBFF2346BDE81040184700BF00100140C4
:10B5F0006C3B002010B5EFF3108072B61E4B1F4954
:10B600000022C3F804210A6801320A6000B962B658
:10B610001B4A116809B31168013911601268E2B957
:10B62000184AD3F804051168884217D2EFF3108046
:10B6300072B6D3F8041514680131A1422ABFD3F8B9
:10B64000042512680232C3F8442500B962B64FF4EB
:10B650000032C3F84423C3F8042310BD0A4C226807
:10B6600012B97846FCF790FD2468FFF785FF234662
:10B67000BDE81040184700BF00100140603B0020AB
:10B68000643B0020683B00206C3B002037B5002362
:10B69000044601930D4611B97846FCF775FD204B21
:10B6A0001D60FFF769FF031B002BB8BF241A1D485C
:10B6B0001D4AA8BF00244FF4004500210023E5FBEC
:10B6C000040111F0E1FAEFF31083019372B6174A07
:10B6D000174CD2F804350228C3F1FF1101F57F4160
:10B6E00038BF02208142134910D30344C2F84435C5
:10B6F0004FF40033C2F84433C2F80433002323600C
:10B700000B60019B03B962B603B030BD03F17F4308
:10B71000013303441A0E0132226023F07F43EFE726
:10B720006C3B002020A1070040420F0000100140A8
:10B73000643B0020683B0020074B4FF40032C3F805
:10B740004823C3F80823054A00231360044A136002
:10B75000044A1360704700BF00100140643B0020A2
:10B76000683B00206C3B002030DF704731DF7047C2
:10B7700010B5D0E900238468C168A2EB731283EA94
:10B78000F43303600C441344114444608160C3608B
:10B79000184610BD37B50C46054610B97846FCF77B
:10B7A000F3FC00239C4201D803B030BD0DF107002B
:10B7B000FFF7DAFF9DF807100029F7D0E21A91424F
:10B7C00088BF8DF80720E8189DF80710FFF7CEFF17
:10B7D0009DF807201344E5E737B5044602A8002387
:10B7E00040F8043D0421FFF7D5FF074B2360019B80
:10B7F000E360C4E9013314252046FFF7B9FF013D9A
:10B80000FAD103B030BD00BFED5EEAF17047000031
:10B8100007B52348019003F0F1FD4FF48173ADF8B3
:10B820000630019803F0EAFD4FF48273ADF806305C
:10B83000019803F0E3FD40F20113ADF806300198E2
:10B8400003F0DCFD40F20313ADF80630019803F07D
:10B85000D5FD40F20513ADF80630019803F0CEFD9A
:10B860004FF48373ADF80630019803F0C7FD40F242
:10B870000713ADF80630019803F0C0FD4FF40073D4
:10B88000ADF80630019803F0B9FD4FF40C73ADF834
:10B890000630019803B05DF804EB03F0AFBD00BFC4
:10B8A0000300000148DF704749DF70474ADF7047F7
:10B8B000064A032313741168054B536140F6D8629E
:10B8C000914288BF43F2B0629A6070479C3B00206F
:10B8D000BC3B0020054B1B68A0F17802283358437D
:10B8E000034BB0FBF3F0101A704700BFB83B0020C9
:10B8F00040420F0038B50E4A0E4C012363711368A5
:10B90000002501331360257400F078FA04F0BCFFC1
:10B910002068FFF7DFFF084A0146284600F0E2F9F9
:10B9200020B17846BDE83840FCF72EBC38BD00BFDA
:10B93000D03B00209C3B0020B1B8020010B41F4B4C
:10B940005A6928B11968DC6811440134DC60196057
:10B95000996801240131E24001291C7499605A61FF
:10B960001C680ED002291AD05B69154A1C44944207
:10B9700003D840F6D76293421CD85DF8044BFFF71A
:10B98000B9BFB2F5FA7F03D130B900225A61EBE7B3
:10B9900040F6D8618A42E7D840F6D862F6E7DA681E
:10B9A000022A02D1064A121BF0E7012ADCD1002844
:10B9B000EBD0D9E75DF8044B704700BF9C3B0020FB
:10B9C0008096980070B5424C424D012323712B782C
:10B9D0001BB1414B1E78002E5BD00023237404283A
:10B9E00053D8DFE800F0034D4A4844003B4DA179AD
:10B9F000AA68C4E9023323682260002934D00121F7
:10BA000021743749002B08BF0B46991AB1F57A7F8C
:10BA100026D39A4224D8616143F2B06043F698225B
:10BA2000C5E9020201236B71A371237C023B012B48
:10BA30000DD8637943B104F043FF2068FFF74AFF54
:10BA400000F00EFA00236371234B00221A70237C4E
:10BA50002448022B04BF012323760023237170BDE9
:10BA60004FF47A736361D7E7FFF744FFD4E701200F
:10BA7000FFF764FFD9E70020FAE704F0B3FED4E74C
:10BA800000F082F904F0E6FECFE77846FCF77CFB95
:10BA9000CBE700F059F92B782060022B0FD0032B55
:10BAA00006D0012B10D10223237400232B70BCE796
:10BAB0000A4B0D490D4A5E71C3E90212A6710323B8
:10BAC0002374064B6361F0E77846FCF75DFBECE717
:10BAD0009C3B0020CD3B0020CC3B0020BC3B002009
:10BAE00080969800AC3B0020A0860100FF1FA107B4
:10BAF000043808B5042825D8DFE800F016220A0328
:10BB00000F00114B1B7E012B1CD1FFF7CDFEC8B1DE
:10BB10007846BDE80840FCF737BB0B4B00221A768D
:10BB2000BDE8084004F004BF08480123437143F610
:10BB3000982240F6D863C0E90232FFF7B7FEE6E785
:10BB40000248FAE708BD00BF9C3B0020BC3B002038
:10BB50000D4A4FF480710023918043F2B06C43F69C
:10BB600098211370C2E902C1084A1060084A137094
:10BB7000084A1370084A1360084A1371537113601E
:10BB80001376012393717047BC3B0020B83B002023
:10BB9000CC3B0020CD3B0020D03B00209C3B002034
:10BBA00010B50E4C227E012A0CD004D3022A0CBF01
:10BBB0001120002010BD0A48FFF774FE10B178462E
:10BBC000FCF7E2FA0748FFF771FE10B17846FCF780
:10BBD000DBFA022323760020ECE700BF9C3B002029
:10BBE000C5B90200BC3B0020074B1B7C023B012B6C
:10BBF00007D9064B1878013802288CBF0020012095
:10BC000070470120704700BF9C3B0020CD3B0020C7
:10BC1000014B1868704700BF9C3B002010B5074BD4
:10BC2000587948B11868FFF755FE044600F08CF8C3
:10BC30000346201A48BF181B10BD00BF9C3B0020C4
:10BC4000014B1879704700BF9C3B0020EFF3108335
:10BC500072B6054A527922B1044A4FF48071C2F893
:10BC6000001103B962B670479C3B002000E100E080
:10BC7000044B1B7E022B04D1034B01221A70FFF7E9
:10BC8000E5BF70479C3B0020CD3B0020064B1B7E50
:10BC9000022B07D10128054B0CBF032202221A7088
:10BCA000FFF7D4BF704700BF9C3B0020CD3B002076
:10BCB000064B19781A4631B128B90549097811B1EE
:10BCC0001870FFF7C3BF1070704700BFCC3B002057
:10BCD000CD3B0020024B1B6803B962B6704700BF22
:10BCE000E43B0020022810B522D8EFF31084114B5A
:10BCF0001C6072B6104B43F82020104B002243F812
:10BD000020200F4B1B787BB1830003F1804303F5A8
:10BD100000431030C3F84021012202FA00F0094A22
:10BD2000C2F80403C3F84015FFF7D4FF002010BD8C
:10BD30000720FCE7E43B0020D43B0020F03B002040
:10BD4000E03B00200080004008B5EFF310820A4B72
:10BD50001A6072B6094B1B7853B1094B0022C3F825
:10BD60004C210122DA64D3F84C05FFF7B3FF08BD7C
:10BD7000044B1868F9E700BFE43B0020E03B0020DB
:10BD800000800040E83B00202DE9F84FDFF85880A4
:10BD9000DFF858900024A70007F1804505F500451D
:10BDA000D5F84031D3B1D8F8043304F1100201269C
:10BDB0009640334212D057F809B0BBF1000F02D1C0
:10BDC0007846FCF7E1F94FF0000A49F807A0C8F8F7
:10BDD0000863FFF7B9FFD847C5F840A10134032C29
:10BDE000D9D1BDE8F88F00BF00800040D43B0020CF
:10BDF000014B1B6818447047EC3B002008B5134BFF
:10BE00000022C3F84025C3F84021D3F84011C3F8FD
:10BE10004425C3F84421D3F84411C3F84825C3F896
:10BE20004821D3F848310A4B1B681BB9094B4FF422
:10BE300080721A60084B01221A70FFF79DFB0146C1
:10BE4000FFF782FF054B081A186008BD008000400C
:10BE5000E43B002000E100E0E03B0020EC3B002060
:10BE60000B4A0C4900231360536093600A4A0B602D
:10BE700010600A4A4B6013708B60094B4FF0FF3221
:10BE8000C3F80823074B4FF48072C3F88021704732
:10BE9000F03B0020D43B0020E83B0020E03B0020AA
:10BEA0000080004000E100E0044B1B780F2B1EBF18
:10BEB000034B4FF48022C3F800217047483D002017
:10BEC00000E100E010B5104C104B207010480360EA
:10BED0001023C0E90133FEF76DF90E48FFF720F992
:10BEE00023780F2B0AD0072B09D8EC221A41D2074E
:10BEF00005D55B01084ADBB282F8123310BD7846E3
:10BF0000BDE81040FCF740B9483D0020103C00203F
:10BF1000FC3B00204C3D002000E100E00D4B1B7875
:10BF20000F2B0DD00C4991F812335A09EC23134111
:10BF3000DB0706D5094B9A6832B94FF480230B60B2
:10BF400070477846FCF720B91A6842F480221A60DC
:10BF5000704700BF483D002000E100E0545300203E
:10BF6000F8B5EFF3108772B617480268511C0160EC
:10BF700002BB164B1B780F2B21D0EFF3108C72B63F
:10BF8000134A144C95680123E5B99360124B134E84
:10BF9000D3F8801031401160C3F88060D3F884106A
:10BFA00051604FF0FF32C3F884202570BCF1000FC0
:10BFB00000D162B6036813B97846FCF7E5F807B913
:10BFC00062B6F8BD2370F1E7103D0020483D002027
:10BFD00054530020493D002000E100E0FC06FFBD75
:10BFE00038B5EFF3108572B6104C236813B9784654
:10BFF000FCF7CAF82368013B2360A3B90C4B1B78FC
:10C000000F2B10D00B4B9A686AB10B4A127852B9B9
:10C01000EFF3108072B609491C680C605C684C60D4
:10C020009A6000B962B605B962B638BD103D00200D
:10C03000483D002054530020493D002000E100E02D
:10C0400038B5054610B97846FCF79EF8094C2368C8
:10C050000A2B02D97846FCF797F8EFF3108372B6F3
:10C060002068421C2260044A42F8205003B962B69C
:10C0700038BD00BF143D0020183D002010B50E4B08
:10C080001B688342044602D87846FCF77DF8EFF33C
:10C09000108072B6094A6109012304F01F0403FAF3
:10C0A00004F452F82130234342F82130FFF7FCFE1C
:10C0B00000B962B610BD00BF143D0020443D002011
:10C0C00070B50D461646044610B97846FCF75CF884
:10C0D00015B97846FCF758F8EFF3108372B60022D2
:10C0E000C4E902562274246003B962B670BD000030
:10C0F00070B5044610B97846FCF746F8A36813B942
:10C100007846FCF741F8EFF3108672B6237C03F013
:10C11000FF055BB90123064823742146FFF70AF89F
:10C12000FFF7C2FE284606B962B670BD1120FAE7D5
:10C130004C3D002010B5044610B97846FCF724F8B1
:10C14000207C10BD2DE9FF47314E337813B178467E
:10C15000FCF71AF80125DFF8C8802E4FDFF8C490ED
:10C1600035700024D8F80030A34212D82A48DFF8EE
:10C17000A880FEF7F9FF002750BB284C69462046EF
:10C18000FEF75AF890B300232846337004B0BDE898
:10C19000F087610904F01F020123934057F8212022
:10C1A000134213D0EFF3108072B657F8212022EA21
:10C1B000030347F8213000B962B659F82430984794
:10C1C000824618B92046FFF759FF55460134C9E7A2
:10C1D0000468237C13B97846FBF7D6FFD4E9023014
:10C1E000984727744046FEF7BFFFC5E79DF800302B
:10C1F00043B1012BC2D1019B002BBFD0DDE902016D
:10C200009847BBE7019B002BB8D002989847B5E749
:10C21000543D0020443D00204C3D0020FC3B0020CC
:10C22000143D0020183D0020FFF78CBF07B5FEF736
:10C23000C1FF8DF803009DF803301749F02B0DD195
:10C240000B780F2B25D01220FEF7BCFF80F00100E9
:10C25000C0B200F0010003B05DF804FB9DF80330AC
:10C260005BB2002BADBF03F1604303F00F030B4A39
:10C2700003F56143B4BFD35C93F800335B090193CA
:10C28000019A0B78934204D0019A9342DBD30020A9
:10C29000DFE70120DDE700BF483D002014ED00E0AE
:10C2A00046DF704730B58DB00D461446014610226A
:10C2B000684610F0C0FE102229460DEB020010F077
:10C2C000BAFE6846FFF7ECFF102208A9204610F0DE
:10C2D000B2FE0DB030BDFEF79BBF01F04FBD01F0C7
:10C2E00077BD30B4032956D8DFE801F00227275084
:10C2F00000241C70817A5A7861F306025A70C17A60
:10C30000D2B261F3C7125A70C1680D04C1F307427B
:10C3100005F47F0501F47F412A430A43C2F3072154
:10C320009A70120C1A71D9700189DC710A0A42EAFA
:10C330000122A3F805201C7222E01970597801F03F
:10C34000800162F3C7115970C1680C04C1F3074240
:10C3500004F47F0401F47F4122430A439A70C2F33C
:10C360000721120C1A71D97001890A0A42EA0122C6
:10C37000A3F8052041880A0A42EA0122A3F807200F
:10C38000026912BAC3F8092030BC704703220024A6
:10C390001A705C70B8E7784630BCFBF7F5BE7FB525
:10C3A0000E461546044600B112B97846FBF7ECFE7E
:10C3B00010220021684610F049FE2B4632462146E5
:10C3C0006846FEF725FF04B070BD2DE9FF410B9DC7
:10C3D000884616461C46074610B10AB103B115B986
:10C3E0007846FBF7D1FE6B46424639463046FEF7AB
:10C3F0000FFF2B469DF8282021466846FEF708FFD0
:10C4000004B0BDE8F0810000F0B50D468FB01446D1
:10C410001F46064608B101B113B97846FBF7B4FED2
:10C420001CB97846FBF7B0FE01E0102CF9D8254B7B
:10C430001868009005AA68460421FFF7B0FF01AB19
:10C44000314605A81022FEF7E3FE2246294605A83C
:10C4500010F0F1FD0EAB2344012203F8242C05ABB0
:10C46000A218194601A892B2FEF7D2FE9DF8233019
:10C470003E4603F07F0306F8013B2246294609A801
:10C4800010F0D9FD04F110050EAB1D441134A4B217
:10C49000022305F8243C2246334605A901A8FEF7ED
:10C4A000B7FE3146102205A810F0C5FD032305F89C
:10C4B000243C224607F1110305A901A8FEF7A8FEB6
:10C4C0000FB0F0BD8AD8030070B50D4688B006469F
:10C4D00000B111B97846FBF757FE114C04212068D2
:10C4E000019004AA0DEB0100FFF759FF04AB3146A0
:10C4F00018461022FEF78CFE234602A953F8040FBB
:10C5000002901B798DF80C3004AB18460522FEF71B
:10C510007FFE082206A9284610F08DFD08B070BDE8
:10C520008ED8030070B50D4686B0064600B111B92D
:10C530007846FBF729FE0F4C54F8040B009002AA32
:10C5400068460421FFF72BFF02AB31461846102244
:10C55000FEF75EFE2068019002AB042218460DEB48
:10C560000201FEF755FE9DF8173003F03F032B70D4
:10C5700006B070BD97D8030030B50268037CD17A4D
:10C5800087B000298DF8043083680CBF042108218E
:10C5900009330B44CDE90232436804930446C3686F
:10C5A0000593694601A801F039FFD0B1237C012B26
:10C5B0000ED02568FEF7ECF9286120680C30FEF7F4
:10C5C0007FF9054620B101F0A5FF284607B030BD30
:10C5D0002168009800F091FB009B093363610025FE
:10C5E000F3E70425F1E7000008B5064B30B9186001
:10C5F000FEF702F8BDE8084002F0C4BB42681A60CA
:10C60000F6E700BF583D002008B5FEF719F8BDE871
:10C61000084002F0F5BB10B5044610B97846FBF7A8
:10C62000B3FD236813B97846FBF7AEFD23685B6959
:10C6300013B97846FBF7A8FD237C012B02D9784675
:10C64000FBF7A2FDE36813B97846FBF79DFD204692
:10C65000BDE81040FFF790BF70B50446C6B010B9F2
:10C660007846FBF791FD636913B97846FBF78CFDBB
:10C67000236813B97846FBF787FD23685B6913B914
:10C680007846FBF781FD606900F094FB234B1B6843
:10C690009B0706462FD5224B1B68042B2BDD214B15
:10C6A00005AD19680023F25C100902F00F02085C66
:10C6B00005F81300885C05EB430201331D2B507015
:10C6C000F1D100232F21184885F83A3010F08EFD63
:10C6D000D8B12F21144810F089FD411C134B144A86
:10C6E000D3F804350192134A009202954FF49572E3
:10C6F000052000F003FD00233246A168206800F009
:10C70000BDFA01F0E1FE46B070BD5C21064810F0B4
:10C710006DFD08B15C21DDE70349DFE7082E00204D
:10C72000042E00200C2E0020EAD803000010014047
:10C7300005D903004ED403002DE9F0470F46D4B0CD
:10C7400091460546002800F03C8100F035FB0DF1D4
:10C750002C089D4E421B2946404610F06CFC336865
:10C7600099072AD5994B1B68042B26DD984B802FFF
:10C770003846196828BF8020002313AC834240F05C
:10C78000878000222F21934804F8132010F02EFDFB
:10C79000002800F08E802F218E4810F027FD411CCC
:10C7A0008D4B8E4AD3F8043501928D4A0092029443
:10C7B00040F24F12052000F0A1FC002305AC0093CD
:10C7C0002A4643463946204600F00EFA82460028A3
:10C7D00040F0C2802378002B00F0BE80E268B2F106
:10C7E000807F80F0B980E27A12B1022B00F0B48031
:10C7F00094F90A30002BC0F2AF80336813F0020FB7
:10C8000013AD27D0714B1B68042B23DD704B802F99
:10C810003846196828BF80200023834252D1002265
:10C820002F216C4805F8132010F0E0FC00285BD0A5
:10C830002F21684810F0DAFC411C674B694AD3F895
:10C8400004350192664A009202954FF4AC720520BD
:10C8500000F054FC636913B97846FBF795FC394640
:10C86000204600F09FFA5FFA80F841464B46224688
:10C870000DF13500FCF7B2FC2946824620890BF009
:10C88000F5FE002839D0E1682089FBF7E9FC63E078
:10C89000EA5C4FEA121C02F00F0211F80CC004F817
:10C8A00013C011F802C004EB4302013382F801C047
:10C8B00064E75C21474810F099FC08B15C216BE704
:10C8C00044496DE718F803204FEA121C02F00F02EA
:10C8D00011F80CC005F813C011F802C005EB4302B3
:10C8E000013382F801C098E75C213A4810F07EFCE1
:10C8F00008B15C219DE737499FE7012003F080FAEA
:10C900000028C0D0A37A012BBDD92378012B27D0D2
:10C91000354BA27A1B6853BBA37A2C60013BA372F0
:10C920004FF0FF336B60DF23EB6028460123C5F82F
:10C9300008802B74FFF720FE0746F0B942460DF140
:10C940003501686910F077FB2846FFF785FEA37A6A
:10C950000133A372002F96D0504654B0BDE8F08743
:10C96000294660880BF082FE0028D1D08BE76188D1
:10C97000208998470028CFD185E733689B07E6D503
:10C98000124B1B68012BE2DD2F21124810F02EFC08
:10C9900070B12F210F4810F029FC411C0E4B134A97
:10C9A000D3F8043500920220A92200F0A7FBCEE7BD
:10C9B0005C21084810F01AFC08B15C21EAE705493F
:10C9C000ECE74FF00E0AC7E7082E0020042E0020E7
:10C9D0000C2E0020EAD80300001001409FD803006D
:10C9E0004ED40300AED80300583D0020BDD803004C
:10C9F00008B510B1012801D1032008BD7846FBF726
:10CA0000C3FB0020F9E770B5064688B00D46144612
:10CA10000021052204A810F019FB336907221BBA74
:10CA2000A9180DF11900CDF8153010F004FB70694C
:10CA30006A46113004A9FFF735FCAB1D0DF1060065
:10CA4000E21D13F8011910F8014DAB4281EA04010F
:10CA500002F8011DF5D108B070BD00002DE9F041CC
:10CA6000D4B01E4600238DF81730ADF83C300E933D
:10CA7000D31D0C93F31D10935A9B43610F460DF188
:10CA80001808114632460446CDF82C80FFF7BBFF4C
:10CA90007378DB09E372737803F07F03A372F37892
:10CAA000B2781B0243EA024332791343E36073799D
:10CAB000B07940EA03202081FEF7DCF9012869D132
:10CAC000E27A002AA7F1090314BF08220422934244
:10CAD00060D3E1682089FBF7A5FB0546002859D102
