:020000022000DC
:1070000000FD032071CD030099CD03009BCD03004B
:107010009DCD03009FCD0300A1CD03000000000023
:10702000000000000000000000000000A3CD0300ED
:10703000A5CD030000000000A7CD0300A9CD0300EB
:10704000ABCD0300ABCD0300ABCD0300ABCD030054
:10705000ABCD0300ABCD03002DA00200ABCD0300F0
:10706000ABCD0300ABCD0300392A0300ABCD030049
:10707000ABCD0300ABCD0300ABCD0300ABCD030024
:10708000ABCD0300E9A8030015E60200ABCD030079
:10709000B9A90300ABCD0300D5A30200ABCD03001B
:1070A000ABCD0300ABCD0300ABCD0300ABCD0300F4
:1070B000ABCD0300ABCD03000000000000000000DA
:1070C000ABCD0300ABCD0300ABCD0300ABCD0300D4
:1070D000ABCD0300ABCD0300ABCD0300ABCD0300C4
:1070E000ABCD0300ABCD0300ABCD0300000000002F
:1070F00000000000ABCD030000000000ABCD03009A
:10710000000000000000000000000000000000007F
:10711000000000000000000000000000000000006F
:10712000000000000000000000000000000000005F
:10713000000000000000000000000000000000004F
:10714000000000000000000000000000000000003F
:10715000000000000000000000000000000000002F
:10716000000000000000000000000000000000001F
:10717000000000000000000000000000000000000F
:1071800000000000000000000000000000000000FF
:1071900000000000000000000000000000000000EF
:1071A00000000000000000000000000000000000DF
:1071B00000000000000000000000000000000000CF
:1071C00000000000000000000000000000000000BF
:1071D00000000000000000000000000000000000AF
:1071E000000000000000000000000000000000009F
:1071F000000000000000000000000000000000008F
:1072000010B5054C237833B9044B13B10448AFF3E0
:1072100000800123237010BDC82E00200000000054
:107220002406040008B5034B1BB103490348AFF320
:10723000008008BD00000000CC2E002024060400C1
:10724000154B002B08BF134B9D46A3F5803A002138
:107250008B460F461348144A121A17F08BF90F4B3E
:10726000002B00D098470E4B002B00D098470020F1
:10727000002104000D000D48002802D00C48AFF397
:10728000008017F029F92000290000F029FF17F0ED
:107290000FF900BF0000080000FD032000000000FF
:1072A00000000000C82E00209455002000000000BF
:1072B0000000000041DF704770B59E4C23685E04FB
:1072C000C6B019D59C4B1B68032B15DD2F219B489D
:1072D00017F02AFA002800F0F6802F21974817F0BF
:1072E00023FA411C964B974AD3F8043500920420A8
:1072F00040F20F2208F0F8F823685D0420D58E4B89
:107300001B68032B1CDD2F218C4817F00DFA002879
:1073100000F0E2802F21894817F006FA411C8A4AC2
:10732000874BD088D3F80435039050880290128898
:107330000192864A0092042040F2112208F0D4F80B
:107340002368580434D57C4B1B68032B30DD804BFD
:107350007D4E196805AD0023F21892F82C20100913
:1073600002F00F02085C05F81300885C05EB43028D
:107370000133102B5070EFD100232F216F4885F877
:10738000203017F0D1F9002800F0AF802F216B4892
:1073900017F0CAF9411C6A4B6E4AD3F804350192C2
:1073A0006D4A0092029540F21222042008F09CF8E7
:1073B0002368590433D5604B1B68032B2FDD644BC6
:1073C000614E196805AD0023F218127B100902F016
:1073D0000F02085C05F81300885C05EB43020133DB
:1073E000102B5070F0D100232F21544885F8203005
:1073F00017F09AF9002800F081802F214F4817F0EC
:1074000093F9411C4E4B554AD3F804350192524A28
:107410000092029540F21322042008F065F82368D8
:107420005A0432D5444B1B68032B2EDD484B464E85
:10743000196805AD0023F218127F100902F00F023F
:10744000085C05F81300885C05EB43020133102B40
:107450005070F0D100232F21384885F8203017F0E4
:1074600063F9002853D02F21344817F05DF9411CEF
:10747000334B3B4AD3F804350192374A00920295C8
:107480004FF40572042008F02FF823685B0418D528
:10749000294B1B68032B14DD2F21284817F044F9D2
:1074A00000283DD02F21254817F03EF9411C244BE0
:1074B0002C4AD3F804350092042040F2152208F03B
:1074C00013F846B070BD5C211C4817F02DF908B1C7
:1074D0005C2103E7194905E75C21184817F024F9F6
:1074E00008B15C2117E7154919E75C21134817F02B
:1074F0001BF908B15C214AE710494CE75C210F48B1
:1075000017F012F908B15C2178E70C497AE75C21A1
:107510000A4817F009F908B15C21A5E70749A7E770
:107520005C21064817F000F908B15C21BBE703496C
:10753000BDE700BF242E0020202E0020ECE8030031
:10754000001001401CE903002C2F002036E9030045
:10755000282E002077E9030080E9030088E9030072
:1075600091E903009AE903001FB51B4B03901B68C8
:107570005B0416D5194B1B68042B12DD2F2118480C
:1075800017F0D2F8F8B12F21154817F0CDF8411CAB
:10759000144B154AD3F8043500920520882207F0D1
:1075A000A3FFBDF80C30102B02D0784603F016F87C
:1075B0000E4C3C220021204616F0DCFF4FF4807375
:1075C000E38004B010BD5C21054817F0ADF808B1A8
:1075D0005C21D9E70249DBE7242E0020202E002081
:1075E000ECE803000010014030EB03002C2F0020DA
:1075F0001FB51A4B03901B685B040C4616D5184B3D
:107600001B68042B12DD2F21164817F08DF8E0B10E
:107610002F21144817F088F8411C134B134AD3F854
:107620000435009205207F2207F05EFFBDF80C3084
:10763000102B02D0784602F0D1FF0D493C222046A3
:1076400004B0BDE8104016F08ABF5C21054817F071
:107650006BF808B15C21DCE70249DEE7242E00204C
:10766000202E0020ECE803000010014049EB03004D
:107670002C2F00201FB51D4B03901B685B040C468C
:1076800016D51B4B1B68042B12DD2F21194817F050
:107690004BF810B32F21174817F046F8411C164B32
:1076A000164AD3F8043500920520712207F01CFF1A
:1076B000BDF80C30102B02D0784602F08FFF3C2230
:1076C00021460F4816F03CFF20B13C2221460C48D1
:1076D00016F045FF002004B010BD5C21054817F0EE
:1076E00023F808B15C21D6E70249D8E7242E002010
:1076F000202E0020ECE803000010014061EB0300A5
:107700002C2F002007B5224B1B685B0417D5214B9B
:107710001B68032B13DD2F211F4817F005F850B30A
:107720002F211D4817F000F8411C1C4B1C4AD3F8B0
:1077300004350092042040F2B51207F0D5FE194B33
:1077400019484FF0FF321A609A800CF0DDF920B131
:10775000114A40F2BD1115F036FB144A14480021BD
:107760000FF0CAF880B10C4A4FF4DF7103B05DF836
:1077700004EB15F028BB5C21074816F0D5FF08B1D3
:107780005C21CEE70449D0E703B05DF804FB00BFFD
:10779000242E0020202E0020ECE8030000100140E1
:1077A00064EC0300E42E0020B57702009D7902000E
:1077B000EC2E002073B5184B1B685B0404460D4685
:1077C000164617D5154B1B68032B13DD2F211448C4
:1077D00016F0AAFFB0B12F21114816F0A5FF411CE9
:1077E000104B114AD3F804350092042040F21312D2
:1077F00007F07AFE32462946204602B0BDE87040C6
:1078000002F028B85C21064816F08EFF08B15C2112
:10781000E2E70349E4E700BF242E0020202E0020E9
:10782000ECE8030000100140C4E7030007B5184B63
:107830001B685B0419D5174B1B68032B15DD2F2123
:10784000154816F071FFC8B12F21134816F06CFFD0
:10785000411C124A124B5288D3F804350192114A46
:1078600000920420D82207F03FFE0F4B00210E208B
:10787000197003B05DF804EB02F03CBB5C210648D4
:1078800016F052FF08B15C21DFE70349E1E700BFD2
:10789000242E0020202E0020ECE803002C2F0020B6
:1078A00000100140D9E70300292F002007B5164B2F
:1078B0001B685B0416D5154B1B68032B12DD2F21AB
:1078C000134816F031FFB0B12F21114816F02CFFEC
:1078D000411C104B104AD3F8043500920420E922D1
:1078E00007F002FE0D4B00210D20197003B05DF86A
:1078F00004EB02F0FFBA5C21054816F015FF08B151
:107900005C21E2E70249E4E7242E0020202E00203B
:10791000ECE8030000100140A4E80300292F002038
:1079200013B5194B1B685B04044619D5174B1B682C
:10793000032B15DD2F21164816F0F6FEC8B12F21B6
:10794000134816F0F1FE411C124B2278D3F804358F
:107950000192114A0092042040F2071207F0C4FD80
:1079600023781C2B0ED1002002B0BDE8104005F09A
:10797000F7BD5C21064816F0D7FE08B15C21DFE7B1
:107980000349E1E702B010BD242E0020202E002084
:10799000ECE803000010014016E8030030B50B7856
:1079A00085B00C462BBB194B1B685B0421D5184BCB
:1079B0001B68032B1DDD2F21164816F0B5FED0B134
:1079C0002F21144816F0B0FE411C6268124B5088FB
:1079D0005269D3F804351578247BADB992F90D209E
:1079E0000190CDE902420D4A00920420FE2207F0E8
:1079F0007BFD05B030BD5C21064816F095FE08B150
:107A00005C21DEE70349E0E70022E9E7242E0020BD
:107A1000202E0020ECE803000010014056E803008F
:107A200013B503780E2B22D1164B1B685B0417D5B8
:107A3000154B1B68042B13DD2F21144816F074FE20
:107A4000B8B12F21114816F06FFE411C104B114A9E
:107A5000D3F804350092052040F25B1207F044FD94
:107A60000D4C23781BB9FFF727FC0123237002B0CC
:107A700010BD5C21054816F057FE08B15C21E1E716
:107A80000249E3E7242E0020202E0020ECE803002A
:107A9000001001408BE80300682F002013B51F4938
:107AA000044616F027FE10B91D4802B010BD1D494E
:107AB000204616F01FFE0028F6D01B49204616F07F
:107AC00019FE40B3194B1B685B0416D5184B1B6895
:107AD000002B12DB2F21174816F026FE90B12F2124
:107AE000144816F021FE411C134B144AD3F80435F8
:107AF00000920020B22207F0F7FC784602F06EFDFB
:107B00000020D2E75C210B4816F00EFE08B15C2184
:107B1000E6E70849E8E70A48C7E700BFBFEC03000B
:107B200084EC0300DAEC0300F3EC0300242E0020C5
:107B3000202E0020ECE803000010014013ED0300AC
:107B40009FEC030073B59D4D2B685904044640F12A
:107B5000AB819B4E3268032A40F3AD812F219948B7
:107B600016F0E2FDB0B12F21964816F0DDFD411C64
:107B7000954B621CD3F804350192944A009204207C
:107B800040F28D1207F0B0FC6CB1032C00F036818E
:107B900002B070BD5C218B4816F0C6FD08B15C21B7
:107BA000E2E78849E4E78A4E2B68327803F48043A1
:107BB000002A40F0E080874C22886188914231D2CF
:107BC000BBB17F4B1B68032B13DD2F217D4816F0C3
:107BD000ABFDF0B12F217B4816F0A6FD411C7A4B7E
:107BE0007D4AD3F804350092042040F2251207F0B4
:107BF0007BFCA368A0880193002302210093774AAD
:107C000001F09CFF01210E2002F074F90123337072
:107C1000BEE75C216B4816F087FD08B15C21DAE70E
:107C20006849DCE762BBBBB1654B1B68032B13DD06
:107C30002F21644816F078FDC8B12F21614816F055
:107C400073FD411C604B664AD3F804350092042052
:107C500040F22F1207F048FC624A0323E188022019
:107C600001F04CF801F0CAF801210D20CCE75C21AD
:107C7000544816F059FD08B15C21DFE75149E1E7AE
:107C80001E2A52D8C3B14E4B1B68032B14DD2F2183
:107C90004C4816F049FD002835D02F21494816F0F0
:107CA00043FD411C484B504AD3F804350092042050
:107CB00040F23B1207F018FCA068FFF7EFFE2A68BD
:107CC0004A4B12F4804F18601D4619D03C4B1B687C
:107CD000032B15DD2F213B4816F026FDE0B12F21A7
:107CE000384816F021FD411C374B2A68D3F804357B
:107CF00001923F4A0092042040F23F1207F0F4FB49
:107D000001233A4AAAE75C212E4816F00DFD08B17E
:107D10005C21C3E72B49C5E75C212A4816F004FD26
:107D200008B15C21DCE72749DEE7002B3FF430AFE8
:107D3000234B1B68032B7FF72BAF2F21214816F015
:107D4000F3FC78B12F211F4816F0EEFC411C1E4BAE
:107D5000284AD3F8043500924FF4A472042007F0A7
:107D6000C3FB15E75C21174816F0DEFC08B15C2167
:107D7000E9E71449EBE7002B3FF40AAF104B1B680F
:107D8000032B7FF705AF2F210E4816F0CDFC60B115
:107D90002F210C4816F0C8FC411C0B4B164AD3F897
:107DA000043500924FF4A872D8E75C21054816F01C
:107DB000BBFC08B15C21ECE70249EEE7242E002071
:107DC000202E0020ECE8030000100140DCE9030055
:107DD000292F00202C2F0020EFE90300482F00203E
:107DE00022EA03000C2E002051EA0300702F00202D
:107DF00080EA030096EA0300AFEA03002B685A0406
:107E000017D53368032B14DD2F212E4816F08CFC78
:107E1000002837D02F212B4816F086FC411C2A4B16
:107E20002A4AD3F804350092042040F29B1207F04E
:107E30005BFB01F025F8264B186809F0D5FC00F033
:107E4000E9FA0422C8214FF4803002F069F82B6867
:107E50005B047FF59DAE1F4B1B68032B7FF798AE2D
:107E60002F21184816F060FCA8B12F21154816F0F4
:107E70005BFC411C144B184AD3F80435009240F2C5
:107E8000A1126BE75C210F4816F04EFC08B15C2193
:107E9000C1E70C49C3E75C210A4816F045FC08B16C
:107EA0005C21E3E70749E5E700283FF47CAE0328BF
:107EB0007FF46EAEBDE700283FF475AE03287FF473
:107EC00067AE9EE7ECE8030000100140DDEA030026
:107ED000C0E70300202E0020F5EA03003038042814
:107EE00001D8FFF72FBE704707B50749074809F0CB
:107EF0001DFC28B1784603B05DF804EB02F06EBBC0
:107F000003B05DF804FB00BF2C2F0020100001001F
:107F100037B5394D394C2A6812F4804F18D0384B98
:107F20001B68032B14DD2F21364816F0FDFB70B3C0
:107F30002F21344816F0F8FB411C334B6288D3F8EC
:107F400004350192314A00920420BD2207F0CCFA98
:107F500000210E2001F0CEFF638801336380FFF71C
:107F6000C3FF63881E2B1BD8A068FFF797FD284A24
:107F7000E18810600123022000F0C0FE00F03EFF07
:107F800001210D2003B0BDE8304001F0B3BF5C21FA
:107F90001C4816F0C9FB08B15C21CAE71949CCE7B7
:107FA0002B685B0416D5164B1B68032B12DD2F21A3
:107FB000144816F0B9FBB0B12F21124816F0B4FBEB
:107FC000411C114B134AD3F8043500920420D022EF
:107FD00007F08AFA0422C8214FF4F03003B0BDE85C
:107FE000304001F09DBF5C21064816F09DFB08B1B2
:107FF0005C21E2E70349E4E7242E00202C2F002037
:10800000202E0020ECE80300001001402FE80300C0
:108010006C2F002096EA030007B5184B1B685B0421
:1080200016D5174B1B68032B12DD2F21154816F0B0
:108030007BFBD0B12F21134816F076FB411C124B6D
:10804000124AD3F8043500920420DF2207F04CFADC
:1080500000210D2001F04EFF01210E2001F04AFF0A
:1080600003B05DF804EBFFF73FBF5C21054816F055
:108070005BFB08B15C21DEE70249E0E7242E00202B
:10808000202E0020ECE8030000100140D3E803009C
:10809000FFF72ABF10B5104CA188208910F002F913
:1080A00020B10E4A4FF4B97114F08DFEA1882089D9
:1080B00010F06AF920B1094A40F2731114F083FEFE
:1080C00020880EF009F930B1044A4FF4BB71BDE8C5
:1080D000104014F078BE10BDE42E0020ECE8030040
:1080E00000B5B14CB14A93B004214FF4C04007F041
:1080F000DFF923685E0419D5AD4B1B68032B15DD32
:108100002F21AC4816F010FB002800F0DD802F2155
:10811000A84816F009FB411CA74BA84AD3F8043520
:10812000009204204FF4FF7207F0DEF912F08EFD8A
:1081300020B1A04A4FF4007114F045FE01F022FF77
:108140009F4801F04BFF20B19A4A4FF4017114F09F
:108150003AFE01F0A1FF0021202209A816F00AFA38
:1081600001238DF8243007238DF8273006238DF85E
:108170002C30944B0D930DF10B01934B119309A8E7
:1081800000F054F9F8B10B2840F0B08023685D048A
:1081900019D5874B1B68032B15DD2F21854816F059
:1081A000C3FA002800F099802F21824816F0BCFA0B
:1081B000411C814B854AD3F80435009204204FF4CA
:1081C000E87207F091F98248824D05F073F9824B0D
:1081D0002946186809F0EAFA002800F08D8000238B
:1081E0002B604FF48073EB80FFF77EFE7B4E0FCE4B
:1081F00003AD0FC596E8030085E8030003A800F06F
:10820000F1FE9DF80B30002B40F0A6802368590446
:1082100019D5674B1B68032B15DD2F21654816F018
:1082200083FA002800F08F802F21624816F07CFA34
:10823000411C614B6A4AD3F80435009204204FF484
:10824000F67207F051F900F0F1FEFFF723FFFFF798
:108250004BFE6449644801F0CBFD6421634801F0A2
:10826000E9FD23685B0419D5514B1B68032B15DD11
:108270002F21504816F058FA002800F0BF802F2117
:108280004C4816F051FA411C4B4B594AD3F804356F
:108290000092042040F21B2207F026F905F0B2F804
:1082A00020B1444A40F2212114F08DFD00214FF409
:1082B000F03001F02BFE0222C8214FF4F03001F023
:1082C0002FFEFEF7F7FFFCE75C213A4816F02CFA88
:1082D00008B15C211CE737491EE75C21354816F0E0
:1082E00023FA08B15C2160E7324962E7314A40F283
:1082F000D51114F068FD66E7236858047FF576AF62
:108300002B4B1B68032B7FF771AF2F21294816F0E9
:108310000BFA78B12F21274816F006FA411C264B9C
:10832000344AD3F80435009204204FF4C37207F0A6
:10833000DBF85BE75C211F4816F0F6F908B15C2119
:10834000E9E71C49EBE75C211A4816F0EDF908B1A2
:108350005C216AE717496CE723685A0417D5144B68
:108360001B68032B13DD2F21124816F0DDF988B1AD
:108370002F21104816F0D8F9411C0F4B1E4AD3F894
:108380000435009204204FF4FA7207F0ADF800F0C3
:10839000ADFD5EE75C21074816F0C6F908B15C2127
:1083A000E7E70449E9E700BF242E002085F4020036
:1083B000202E0020ECE803000010014079EB0300C0
:1083C000457B02002179020005770200ADEB030036
:1083D000002E00202C2F0020C0E70300A8E7030098
:1083E0000FEC03002D780200117F0200DD7E0200F9
:1083F0005AEC0300FBEB030046EC03005C2104484D
:1084000016F092F908B15C213AE701493CE700BF58
:10841000ECE8030008B505F0F1FB0FF0B1FB11F03B
:10842000A7F9BDE8084004F0C7BA000073B50E46CE
:10843000054680B304F082FF044648BB11F024FADD
:108440000FF0F4FB28690DF017FF044600BB2B7FEB
:108450000193AB69009301466B69104859220EF0F5
:10846000C3F90446A0B92B6A03B1984709F0FAF89A
:1084700011F030F905460FF0F9F80B2D01D00B285B
:1084800002D1FFF7C7FF0B2412F0DCF906B1307000
:10849000204602B070BD0E24FAE700BF742F002002
:1084A0002DE9F04F0378C9B004460A2B00F21C8175
:1084B000DFE813F00B00F1036A011A011A011A0137
:1084C0001A01B2031A0107035E029C4F3B78012B8D
:1084D00040F00A819A4D2B685E0435D5994B1B6894
:1084E000032B31DD984B0430196807AE002310F8D8
:1084F000012B4FEA121C02F00F0211F80CC003F816
:1085000006C011F802C0F2180233202B82F801C015
:10851000EDD100232F218D4886F8203016F004F984
:10852000002800F0E4802F21884816F0FDF8411C57
:10853000874B884AD3F804350192874A0092029605
:108540008A22042006F0D0FFE3691B78FBB92B6870
:1085500058041CD57B4B1B68032B18DD2F217B484F
:1085600016F0E2F8002800F0CB802F21774816F0B3
:10857000DBF8411CE269764B92F90D20D3F8043503
:108580000192764A009204208E2206F0ADFF637DB0
:10859000002B00F0A9802B68590435D5694B1B6866
:1085A000032B31DD684B04F11600196807AE002378
:1085B00010F8012B4FEA121C02F00F0211F80CC048
:1085C00003F806C011F802C0F2180233082B82F833
:1085D00001C0EDD100232F215C48337216F0A4F8BE
:1085E000002800F096802F21584816F09DF8411C75
:1085F000574B5B4AD3F804350192574A00920296D2
:108600009322042006F070FFDFF874B1DFF8749154
:1086100000269BF80030B34266D9D9F8003053F8F1
:1086200026804FEA860AB8F1000F00F084804046A9
:1086300016F072F807AA81B2404606F0A6F80422A6
:1086400007A904F1160015F07BFF002873D12B68F1
:108650005A0417D53B4B1B68032B13DD2F213B48D6
:1086600016F062F800285DD02F21384816F05CF82B
:10867000411C374B3B4AD3F8043500920420992221
:1086800006F032FFD9F80030374D53F80A20374B47
:1086900000211A6007A8192215F06CFF2B89ADF88C
:1086A0002C306968324B0C311B88ADF83230102207
:1086B00007A815F054FF2F492F48043412F05EFE2E
:1086C00018B1224A6E2114F07EFB0123AA7A2B48AE
:1086D0000093214607AB12F053FE18B11B4A6F21DD
:1086E00014F071FB03233B7049B0BDE8F08F5C21AF
:1086F000164816F019F808B15C2115E7134917E779
:108700005C21124816F010F808B15C212EE70F49E1
:1087100030E75C210D4816F007F808B15C2163E7EB
:108720000A4965E75C21094815F0FEFF08B15C21A4
:108730009BE706499DE701366BE700BFEC3200205E
:10874000242E0020202E0020282E00204EED030095
:10875000001001408CED030080E9030092ED03005E
:108760009DED0300A7ED0300F03200205033002000
:108770004A330020D02F002009330020B8310020D8
:108780004E330020543300206B4E6C4D336813F48D
:10879000804F1CD06A4B1B68032B18DD2F216948C2
:1087A00015F0C2FF002839D02F21664815F0BCFF14
:1087B000411C654A654B1278D3F8043502922A7839
:1087C0000192634A00920420A62206F08DFE2B78C7
:1087D000032B61D133685C4E327803F480437AB363
:1087E000B3B1574B1B68032B12DD2F21554815F0F1
:1087F0009BFFE0B12F21534815F096FF411C534BCE
:10880000544AD3F8043500920420AB2206F06CFEE3
:1088100001232B703378013B337065E75C214948B5
:1088200015F082FF08B15C21BFE74649C1E75C2132
:10883000444815F079FF08B15C21DCE74149DEE7E7
:10884000DBB13F4B1B68002B17DD2F213D4815F096
:108850006BFFC0B12F213B4815F066FF411C3E4A1B
:108860003A4B1288D3F804350292227A01923B4A9D
:1088700000920120B22206F037FE00232B70384B05
:108880005B69984730E75C212E4815F04DFF08B131
:108890005C21E0E72B49E2E7022B7FF425AF304C67
:1088A0002D4A636810881A882E49988001320F88F3
:1088B0001A80DA88B0F5807F3A44DA8002BF2A4A0B
:1088C00012689A60E3680F469847236998473368AF
:1088D0005B041BD51A4B1B68032B17DD2F2119488E
:1088E00015F022FFF8B12F21164815F01DFF411C8D
:1088F000164B3A88D3F80435029262689288019246
:108900001A4A00920420C42206F0EEFD6268002498
:10891000936890880193009423461C32022101F051
:108920000DF92C70E0E65C21064815F0FDFE08B15B
:108930005C21D9E70349DBE7242E0020EC3200203C
:10894000202E00204EED030049330020001001408E
:10895000CBED030012EE03004A33002034EE030097
:10896000F03200204C3300205033002077EE03001B
:10897000984F3A68560417D5974B1B68032B13DDA5
:108980002F21964815F0D0FE00287FD02F21934844
:1089900015F0CAFE411C924B924AD3F8043500925E
:1089A0000420CF2206F0A0FD8F4B02221A703B68F4
:1089B0005D0417D5884B1B68032B13DD2F218748D7
:1089C00015F0B2FE00286AD02F21844815F0ACFEC5
:1089D000411C834B854AD3F8043500920420D422ED
:1089E00006F082FDE3688249D88A10F0A7FF18B12B
:1089F0007A4AD62114F0E7F97E4DE06829687E4B6B
:108A0000A2684988C08A11F0EFFAA84618B1734AE3
:108A1000DA2114F0D8F9784E30880BF0DFF818B16D
:108A20006E4ADD2114F0CFF9714D308829880BF0A2
:108A300093F818B1694ADF2114F0C5F93B6858046E
:108A40007FF552AE644B1B68032B7FF74DAE2F2191
:108A5000624815F069FE58B32F21604815F064FE96
:108A6000411C5F4B3288D3F804350492D8F80020BB
:108A7000528803922A880292E268D28A01925F4A5F
:108A800000920420E52206F02FFD2DE65C215348DC
:108A900015F04AFE08B15C2179E750497BE75C217B
:108AA0004E4815F041FE08B15C218EE74B4990E736
:108AB0005C214A4815F038FE08B15C21CDE74749F2
:108AC000CFE74F4B027A1A80012110230022406821
:108AD00012F082FC054600283FF406AE3D4C2268A9
:108AE000510418D53C4B1B68002B14DD2F213B484B
:108AF00015F01AFE002833D02F21384815F014FE47
:108B0000411C374B3F4AD3F8043500920195F522BA
:108B1000012006F0E9FC23683B4C334D217803F437
:108B2000804379B3B3B12C4B1B68032B12DD2F218B
:108B30002A4815F0F9FDE0B12F21284815F0F4FD81
:108B4000411C274B314AD3F8043500920420F82207
:108B500006F0CAFC01232B702378013B2370C3E588
:108B60005C211E4815F0E0FD08B15C21C5E71B49FA
:108B7000C7E75C21194815F0D7FD08B15C21DCE797
:108B80001649DEE7002B3FF478AE134B1B68032B2E
:108B90007FF773AE2F21114815F0C6FD88B12F2144
:108BA0000E4815F0C1FD411C194A0D4B1288D3F82F
:108BB00004350192174A00920420FF2206F094FC2B
:108BC0005BE65C21054815F0AFFD08B15C21E7E7E5
:108BD0000249E9E7242E0020202E00204EED03005C
:108BE00000100140AEEE0300EC320020CFEE030097
:108BF000CC2F0020F0320020CE2F0020F7EE030013
:108C00004C33002039EF03004933002069EF0300A3
:108C10004A33002077EF0300314B07AD03F1100614
:108C2000186859682A4603C20833B3421546F7D17B
:108C3000102207A9606812F0DBFB20B1294A4FF42B
:108C4000867114F0C0F8284B1B685A047FF54CADB0
:108C5000264B1B68032B7FF747AD2F21214815F0CA
:108C600063FD78B12F211F4815F05EFD411C204B9C
:108C7000204AD3F80435009240F20D12042006F089
:108C800033FC31E55C21174815F04EFD08B15C213D
:108C9000E9E71449EBE7144B1B685B047FF524AD4F
:108CA000124B1B68032B7FF71FAD2F210D4815F0CA
:108CB0003BFD60B12F210B4815F036FD411C0C4BDC
:108CC0000D4AD3F8043500924FF48972D6E75C213F
:108CD000044815F029FD08B15C21ECE70149EEE7F5
:108CE0002EED03004EED0300242E0020202E002048
:108CF00000100140DEEF030003F0030010B586B062
:108D000002B133BB2C4B1B685B0417D52B4B1B6884
:108D1000002B13DD2F212A4815F006FD80B12F21ED
:108D2000274815F001FD411C264B274AD3F804358E
:108D3000009201204FF4907206F0D6FB06B010BDF1
:108D40005C211F4815F0F0FC08B15C21E8E71C49E4
:108D5000EAE71E4C20701E481E4C01801E4901206F
:108D600008701E490A601E4A137022780ABB1D4A09
:108D70001068516803AB03C31189927A19809A7005
:108D8000194B0093194A1A491A4803AB12F0C8FA52
:108D900018B10B4A782114F016F8174813F0DEFECC
:108DA0000146144812F0D6FA18B1054A792114F098
:108DB0000AF801232370C1E7242E0020202E002072
:108DC0004EED03000010014061F003004933002024
:108DD0004A33002008330020EC32002054330020B6
:108DE0004E3300203EED0300A1840200D02F00206E
:108DF00009330020B8310020F02F002007B51A4BAE
:108E00001B685B0417D5194B1B68032B13DD2F213F
:108E1000174815F089FCD0B12F21154815F084FCB6
:108E2000411C144B144AD3F804350092042040F23C
:108E30002F1206F059FB114812F054FB80B10C4A76
:108E40004FF4987103B05DF804EB13F0BCBF5C21E4
:108E5000074815F069FC08B15C21DEE70449E0E74A
:108E600003B05DF804FB00BF242E0020202E00205C
:108E70004EED030000100140B3F00300A184020096
:108E800007B5154B1B685B0417D5144B1B68032BE8
:108E900013DD2F21124815F047FC98B12F211048FF
:108EA00015F042FC411C0F4B0F4AD3F804350092D9
:108EB000042040F2351206F017FB03B05DF804EB16
:108EC00012F018BB5C21064815F02EFC08B15C219D
:108ED000E5E70349E7E700BF242E0020202E00200D
:108EE0004EED030000100140AEF0030070B588B0F5
:108EF00008AD012345F8043D0DF11600294611F097
:108F000055F820B1314A40F2411113F05CFF079B44
:108F1000012B02D0784601F061FB2D4CBDF8160004
:108F2000266810F01DFE236870805A884FF6FF7384
:108F30009A4202D1784601F051FB23682A46191D56
:108F4000588811F035FA20B1204A40F2451113F04B
:108F50003AFF06A810F0E2FC2168BDF8180011F0F5
:108F6000EFF820B1194A40F2491113F02CFF194BC8
:108F70001B685B041ED5184B1B68032B1ADD2F21C1
:108F8000124815F0D1FBB8B12F21104815F0CCFBD9
:108F9000411C2268114B1088D3F804350390908847
:108FA0000290528801920E4A009204204FF4A67259
:108FB00006F09AFA08B070BD5C21044815F0B4FBC5
:108FC00008B15C21E1E70149E3E700BF4EED030092
:108FD000F0320020242E0020202E0020001001401E
:108FE00022F0030038B5C368044613B9784601F08F
:108FF000F5FA636913B9784601F0F0FA236913B9F9
:10900000784601F0EBFA0FCC054D0FC5054A002359
:10901000137094E80300044A137085E8030038BD18
:10902000F032002008330020EC3200201FB5374B0F
:109030001868039003A810F03BFC20B1344A40F2BA
:109040005F1113F0C0FE334C606810210C3004F047
:1090500097FD606810211C3004F092FD60681021BB
:109060002C3004F08DFDD4E90021002002320C31B7
:1090700010F0FAFD20B1264A40F2671113F0A3FE6A
:10908000254B1B685B041AD5244B1B68032B16DD8C
:109090002F211F4815F048FB70B32F211C4815F0F5
:1090A00043FB411C22681E4B5288D3F804350192C1
:1090B0001C4A009204204FF4B47206F015FAD4E969
:1090C000001200200B1D1C32498811F053F820B10A
:1090D0000F4A40F2691113F076FED4E90032012004
:1090E0002C32598810F080FF20B1094A4FF4B67134
:1090F00013F069FE04B010BD5C21054815F014FBA7
:1091000008B15C21CAE70249CCE700BF4AED030081
:109110004EED0300F0320020242E0020202E0020EF
:10912000001001409BF0030030B50446018085B07B
:109130001046154604F07CF81F4B20711B88A38154
:109140000023A3731E222374A3741C4BE273012219
:1091500062741A88E580A4F813205B88A4F815309F
:10916000174B1B685B041BD5164B1B68032B17DDC5
:109170002F21154815F0D8FAA0B12F21124815F06B
:10918000D3FA411C114BE288D3F8043502922288AD
:1091900001920F4A009204204FF4947206F0A4F951
:1091A00005B030BD5C21084815F0BEFA08B15C215D
:1091B000E4E70549E6E700BF583300205A330020B2
:1091C000242E0020202E0020E1F00300001001409A
:1091D00017F1030010B5054804F084FB044B054A61
:1091E0001A60054BBDE810401B6818477C3300200F
:1091F000182E002088F203006C33002030B59B4B02
:109200001B681B78013B8DB00A2B00F20D83DFE851
:1092100013F00B004D007E00B300E8005901AE01D1
:109220000902D702F1026402914B1B685D0417D555
:10923000904B1B68032B13DD2F218F4815F074FA18
:1092400058B32F218C4815F06FFA411C8B4B8C4A78
:10925000D3F80435009204204FF4B07206F044F9BC
:1092600000200AF0CFFC874B02225A8000221A709D
:109270005A60002800F07081834C0AF01FFE2378AA
:10928000002B00F0D882013B237004F06BFB7F4978
:109290000144201D04F03DFB5EE15C21764815F0A1
:1092A00043FA08B15C21CDE77349CFE7704B1B68E7
:1092B0005C041BD56F4B1B68032B17DD2F216E48F9
:1092C00015F032FAD0B12F216B4815F02DFA411C60
:1092D0006A4B02220120D3F80435CDE901206C4A03
:1092E000009204204FF4B57206F0FEF8012102202E
:1092F0000AF0ACFD634B48F22502B6E75C215E48FC
:1093000015F012FA08B15C21DEE75B49E0E7584B43
:109310001B685B0417D5574B1B68032B13DD2F21EC
:10932000554815F001FAF0B12F21534815F0FCF91A
:10933000411C524B574AD3F80435009204204FF495
:10934000BA7206F0D1F8544B1A68544B1988544B32
:1093500018880AF07BFC4B4B48F203025A80022229
:109360001A70504A84E75C21434815F0DDF908B1D2
:109370005C21DAE74049DCE73D4B1B685D0417D50B
:109380003C4B1B68032B13DD2F213B4815F0CCF918
:10939000F0B12F21384815F0C7F9411C374B424A2C
:1093A000D3F804350092042040F27F1206F09CF8B6
:1093B0003A4B3E4A19883E4B069218880AF076FDD1
:1093C000304B48F23E025A8001221A70394A4FE768
:1093D0005C21294815F0A8F908B15C21DAE7264993
:1093E000DCE7234B344C1B6813F4804F19D0214B1E
:1093F0001B68032B15DD2F211F4815F095F958B375
:109400002F211D4815F090F9411C1C4B6288D3F8A0
:1094100004350192294A009204204FF4C77206F0E5
:1094200063F86278237843EA0223ADF81830E278D3
:10943000A37843EA0223ADF81A30184B069A19882C
:109440001B4B18880AF032FD0E4B48F23E025A8040
:1094500001221A701A4A0BE75C21074815F064F9DB
:1094600008B15C21CDE70449CFE700BF182E0020EA
:10947000242E0020202E0020E1F0030000100140E7
:1094800045F103006033002078330020404B4C004E
:109490005FF103008FF103009C330020583300205C
:1094A000683300207EF203009EF10300FFFF0200FC
:1094B0005E33002080F2030094330020BBF10300F0
:1094C00081F20300AC4C23881BB9AC4B1B880133E1
:1094D0002380AB4BAB4D1B6813F4804F1CD0AA4BC1
:1094E0001B68032B18DD2F21A84815F01DF9002853
:1094F00034D02F21A54815F017F9411CA44B228820
:10950000D3F8043502926A880192A24A009204209C
:1095100040F2A11205F0E8FF6A782B78208843EA30
:109520000223ADF81830EA78AB7843EA0223ADF8AD
:109530001A30994B069A19880AF0B8FC974B48F2F2
:109540003E025A8001221A70954A5A6000287FF420
:1095500093AE2388013323800DB030BD5C218B484E
:1095600015F0E2F808B15C21C4E78849C6E7162285
:1095700000210DF11A0014F0FDFF804B864A1B8874
:10958000ADF8183001238DF81C30ADF81E308DF881
:1095900029304FF0FF338DF82B308DF82C3002231B
:1095A0008DF82D3000238DF82E30754B12881B68F6
:1095B000ADF824201E228DF827205C044FF006020F
:1095C0008DF828201AD5704B1B68032B16DD2F2130
:1095D0006E4815F0A9F8E0B12F216C4815F0A4F8F9
:1095E000411C6B4BBDF81E20D3F8043501926D4A27
:1095F000009204204FF4E17205F076FF06A80AF00D
:109600005DFB664B48F219025A8001221A70664AC5
:109610002EE65C215D4815F087F808B15C21DCE797
:109620005A49DEE7162200210DF11A0014F0A2FFBC
:10963000524B5E4C1B88ADF81830D80754BF4FF41E
:10964000817340F20113ADF81E30534B1B88ADF807
:10965000243001221E238DF81C208DF8273022880B
:10966000ADF82B2001238DF829306288ADF82D202C
:10967000434A126851041CD5434B1B68032B18DD69
:109680002F21424815F050F8F0B12F213F4815F036
:109690004BF8411C3E4BBDF81E20D3F80435029216
:1096A00062880192424A009204204FF4F27205F05F
:1096B0001BFF06A80AF002FB384B48F219025A8039
:1096C00001221A703B4AD3E55C21304815F02CF892
:1096D00008B15C21DAE72D49DCE7294B1B685A0405
:1096E00018D5294B1B68032B14DD2F21274815F0B3
:1096F0001BF8002837D02F21244815F015F8411CFD
:10970000234B2D4AD3F804350092042040F2EF1287
:1097100005F0EAFE194B18880023079303238DF800
:109720001830C3074CBF4CF203034CF20203ADF8F0
:109730001A301E4B59781A7842EA0122ADF81420EB
:109740009A78DB7842EA0323ADF8163006AA059B27
:1097500006CA0AF055FB114B48F21F025A8001223B
:109760001A70164A84E55C21084814F0DDFF08B140
:109770005C21C1E70549C3E7983300205E33002030
:10978000242E00205A330020202E0020E1F0030078
:1097900000100140D8F1030058330020603300204E
:1097A00082F2030007F2030083F2030094330020E7
:1097B00044F2030084F2030069F2030085F203001F
:1097C000182200210DEB020014F0D4FE1B4B198867
:1097D00001314CF2030289B206A8FFF7A5FC06A8E6
:1097E0000AF06CFA164B48F219025A8001221A70DC
:1097F000144A3DE5182200210DEB020014F0BAFED8
:109800000E4B198802314CF2020289B206A8FFF70A
:109810008BFC06A80AF052FA094B48F219025A804A
:1098200001221A70084A23E5084A4FF408710520FE
:1098300013F0C9FA20E5FFF7CDFC8DE65E3300207A
:109840006033002086F2030087F20300E1F003009A
:10985000FFF7D4BCF0B50D4685B0002856D19A4D1F
:109860002A68560418D5994B1B68032B14DD2F2149
:10987000974814F059FF002836D02F21944814F04F
:1098800053FF411C934B944AD3F8043500920420B3
:1098900040F2762205F028FE904C2388002B00F041
:1098A000CD802B685D0417D5884B1B68032B13DD17
:1098B0002F21874814F038FFF8B12F21844814F085
:1098C00033FF411C834B864AD3F8043500920420B1
:1098D00040F27A2205F008FE2388013B238005B080
:1098E000BDE8F040FFF78ABC5C21794814F01CFF0A
:1098F00008B15C21C2E77649C4E75C21744814F0E2
:1099000013FF08B15C21D9E77149DBE7022828D1B0
:1099100011B9784600F062FE724C23681B780BB1D7
:109920000C2B29D1684B1B6858041AD5674B1B6850
:10993000012B16DD2F21664814F0F6FE98B12F2179
:10994000634814F0F1FE411C2268624B1278D3F890
:1099500004350192644A0092022040F24E2205F042
:10996000C3FD05B0F0BD5C21594814F0DDFE08B11F
:109970005C21E5E75649E7E75C4E2F887388BB42D8
:1099800027D0514B1B685904EBD5504B1B68002B5B
:10999000E7DD2F214E4814F0C7FE88B12F214C4837
:1099A00014F0C2FE411C4B4BD3F804350297728869
:1099B00001924F4A00920120E52205F095FDD0E783
:1099C0005C21434814F0B0FE08B15C21E7E7404950
:1099D000E9E748F219018B426A6806D033D8022BB6
:1099E0005ED048F203018B4238D115783378002BD2
:1099F00000F08880344B1B685B0419D5334B1B681F
:109A0000032B15DD2F21324814F08EFE002852D092
:109A10002F212F4814F088FE411C2E4B354AD3F8D5
:109A200004350092019540F20B12042005F05CFD14
:109A3000726830781346991A88425FD805B0BDE83D
:109A4000F040FFF7C7BB48F225018B4228D048F20F
:109A50003E018B42C9D048F21F01C4E71A4B1B6874
:109A60005A0417D5194B1B68002B13DD2F211848FA
:109A700014F05AFEB0B12F21154814F055FE411CC8
:109A8000144B1D4AD3F80435009201204FF4817223
:109A900005F02AFD0E4A40F20311052013F093F958
:109AA000FF25A3E75C210A4814F03EFE08B15C21C3
:109AB000E2E70749E4E75C21054814F035FE08B108
:109AC0005C21A6E70249A8E7242E0020202E0020D2
:109AD000E1F003000010014089F20300743300201C
:109AE000B4F20300182E0020BFF203006033002000
:109AF000F1F203003BF303001BF3030013F8011B17
:109B00008D4298D123680A485A1C5B7822600C2B3E
:109B10004FF0030202707FF4E2AE043003F0E2FE85
:109B2000044B2360044B1B6805B0BDE8F0401847A8
:109B30007833002088F20300703300202DE9F043D1
:109B4000944FDFF8A8823C68247889B03CB3D8F8F9
:109B50000030580417D5904B1B68002B13DD2F21C4
:109B60008E4814F0E1FD88B12F218C4814F0DCFD03
:109B7000411C8B4B8B4AD3F804350092012040F2F4
:109B8000922205F0B1FC09B0BDE8F0835C21834866
:109B900014F0CAFD08B15C21E7E78049E9E7824C8F
:109BA000824E20808248834D018083498348C8606B
:109BB0004FF0030981F80090814911980A60814AA9
:109BC00081491380814BBDF840201A8014F092FD2A
:109BD000002840F092800123B3701023F37000221C
:109BE000AA70EB704FF0FF33337073702B706B7093
:109BF000D8F800305A041BD5674B1B68032B17DDC0
:109C00002F21664814F090FD002800F0B1802F212C
:109C1000624814F089FD411C614B2288D3F8043559
:109C200001926B4A0092042040F2B12205F05CFCE4
:109C30004FF6FF732288ADF81430ADF8163005A941
:109C4000012306A88DF81830ADF81A200FF03CFF5C
:109C500020B1524A4FF4107113F0B5F80DF116010E
:109C6000BDF81A0010F06CFA20B14C4A40F24121C4
:109C700013F0A9F8BDF8160009F0B0FF20B1474A6B
:109C80004FF4117113F09FF8BDF81410BDF81600D1
:109C900009F062FF20B1414A40F2452113F093F8E8
:109CA000D8F800305B041ED53B4B1B68032B1ADD34
:109CB0002F213A4814F038FD002862D02F21374870
:109CC00014F032FD411C364BBDF81420D3F8043596
:109CD0000292BDF8162001923E4A0092042040F202
:109CE000462205F001FC2388B3F5807F0CBF3A4B78
:109CF0003A4B3B60FFF782FA45E73949119814F077
:109D0000F9FC00283FF467AF3649119814F0F2FCD3
:109D100028B9102386F80290F370022260E7D8F881
:109D20000030590417D51C4B1B68002B13DD2F2165
:109D30001A4814F0F9FC90B12F21184814F0F4FCE3
:109D4000411C174B284AD3F804350092012040F2F9
:109D5000AA2205F0C9FB784600F040FC42E75C21EE
:109D60000E4814F0E1FC08B15C21E6E70B49E8E796
:109D70005C210A4814F0D8FC08B15C2148E7074987
:109D80004AE75C21054814F0CFFC08B15C2196E756
:109D9000024998E7182E0020202E0020E1F0030051
:109DA0000010014055F303005E3300205A330020B9
:109DB000743300209433002078330020519802003F
:109DC0009C33002058330020BFEC03006833002090
:109DD000A9F30300C3F30300D7F00300F9F3030072
:109DE000DAEC0300F3EC030089F30300242E0020D7
:109DF00038B50C46054610B9784600F0EFFB14B9AB
:109E0000784600F0EBFB024B1D60024B1C6038BD36
:109E1000703300206C33002010B5054C226832B13D
:109E200013F002F9002802DB23689847F8E710BD19
:109E3000A0330020154B164A10B50C4618600121BE
:109E4000144810F05DFF18B1134A4A2112F0BBFF0D
:109E5000610C0023E00341F26F728B4208BF824223
:109E600010D24FF47A72002314F0A2F901460022B6
:109E70000A4810F057FF38B1074A4B21BDE810409F
:109E800012F0A1BF0521F2E710BD00BFA0330020F2
:109E9000199E020004F4030008F40300A433002018
:109EA00070B5104C206808B912F080FF4FF0A04543
:109EB0000D4ED5F8043532685340C5F80435236893
:109EC000013B236063B9094810F074FF3268D5F88C
:109ED000043523EA0203064A12681343C5F8043521
:109EE00070BD00BFC4330020C8330020CC33002035
:109EF000F4330020012303FA00F04FF0A04311B126
:109F0000C3F80C057047C3F8080570474FF0A0432D
:109F100011B1C3F80C057047C3F80805704700007D
:109F2000F8B52AB3132923D9124B134D5200013A25
:109F30004FF0A0441A602860D4F8043518400F4B45
:109F40004FF4FA76186000274FF40040E0FB0167F9
:109F50004FF47A7200233046394614F029F9002272
:109F60000146074810F0DEFE10B92B68C4F80C3526
:109F7000F8BD00BFC4330020C8330020F4330020F4
:109F8000CC33002008B54FF0A04303224FF400511A
:109F9000C3F83427C3F808154FF48041C3F83827B5
:109FA000C3F808154FF40041C3F83C27C3F808155F
:109FB000C3F840274FF48032C3F808250121054A31
:109FC000054810F09DFE18B1BDE8084012F0EEBE45
:109FD00008BD00BFA19E02002CF40300D8B10F4BB6
:109FE0000F4A18604FF0A0430020C3F82C27C3F895
:109FF0003027C3F86027C3F864270A4B4FF00042AC
:10A00000C3F80423C3F87C01074BC02283F806235E
:10A0100040221A6070470E20704700BFEC330020CA
:10A020000C0003000060004000E100E0124B70B53E
:10A030000024124E124DC3F87C414FF0A043A15DA5
:10A04000D3F8102501238B40934311D00D49D5F847
:10A0500004250B68981A48BFD01A43F2333398424C
:10A0600006D9D5F804350B60074B20461B68984786
:10A070000134042CE1D170BD0060004030F40300D5
:10A0800000100140F0330020EC33002060DF704707
:10A0900069DF704703F010BA10B588B000F04AF9D4
:10A0A00008B112F083FE2B4B0393039B04930C2205
:10A0B000002105A814F05EFA0023049A8DF81430EC
:10A0C00005A90120FFF7E4FF08B112F06FFE0C2292
:10A0D000002105A814F04EFAF823049A059305A967
:10A0E000A120FFF7D5FF08B112F060FE04A8FFF72A
:10A0F000CDFF039B049A9A4204461CD0164B1B6862
:10A100005B0418D5154B1B68012B14DD2F21144857
:10A1100014F00AFBA8B12F21114814F005FB411CD3
:10A12000104B049AD3F8043501920F4A0092022092
:10A13000A22205F0D9F914B1204612F037FE08B07A
:10A1400010BD5C21064814F0EFFA08B15C21E3E78A
:10A150000349E5E7002E0020242E0020202E0020B9
:10A1600034F403000010014064F4030070B5EFF311
:10A17000108672B60C4A946801239CB993600B4B0D
:10A180000B4DD3F8801029401160C3F88050D3F8EC
:10A19000841051604FF0FF32C3F88420047006B978
:10A1A00062B670BD0370FAE7E854002000E100E0F9
:10A1B000FC06FFBD10B5084B9A685AB150B9EFF3D1
:10A1C000108172B6054A1C6814605C68546098601F
:10A1D00001B962B610BD00BFE854002000E100E004
:10A1E00001600B6843604A68934204BF00234360E8
:10A1F0007047436843B1026891680B4443605268FA
:10A20000934204BF0023436070474BDF7047000058
:10A210001FB50D4C01A8FFF7F8FF70B9214602A841
:10A22000FFF7DEFF039B002BF4D00198D3E9002158
:10A23000904702A8FFF7DDFFF4E7052801D012F0F0
:10A24000B5FD04B010BD00BFA0F4030061DF70478E
:10A2500030B5114B1B7891B0E3B1104D34240DF1A2
:10A26000020103A8ADF80240FFF7F0FF70B92946DC
:10A2700001A8FFF7B5FF029B002BF0D003A8D3E99C
:10A280000021904701A8FFF7B4FFF4E7052801D0AB
:10A2900012F08CFD11B030BDF8330020ACF4030097
:10A2A00010DF704713B5044609496846FFF798FF69
:10A2B000019808B902B010BDD0E900312046984796
:10A2C00018B16846FFF795FFF2E71120F2E700BFEB
:10A2D000BCF4030013B5044607496846FFF780FF46
:10A2E000019B0BB902B010BD2046D3E90021904775
:10A2F0006846FFF77EFFF3E7D4F403000B4991F8BB
:10A3000016335A09EC231341DB0706D5084B9A682C
:10A310003AB94FF480030B60704742F2020012F02A
:10A3200045BD1A6842F480021A60704700E100E0FF
:10A33000E8540020F7B5184F3C785CBB174E012558
:10A3400020463570FFF7AEFF112820D02046FFF7DA
:10A35000C1FF134B1868019002A800F8054DFFF7E4
:10A3600005FF104901A8FFF79BFF0446B0FA80F0F3
:10A37000400938709DF80300FFF71CFF3CB90A4BF9
:10A3800034701C70FFF7BAFF2846FFF7A3FF204682
:10A3900003B0F0BD0824FAE7FA330020F9330020B7
:10A3A000B8F40300DDA30200FB33002007B5084921
:10A3B0006846FFF715FF019B13B903B05DF804FB76
:10A3C000D3E9002090476846FFF713FFF3E700BF8B
:10A3D000C8F40300FFF7EABF0620704730B5754B9D
:10A3E00014461B6841F20102904287B00D4603F407
:10A3F00080437ED01ED8012845D0002B5DD06E4B07
:10A400001B68002B59DD2F216C4814F08DF90028B2
:10A4100000F0C4802F21694814F086F9411C684B74
:10A42000684AD3F80435009201957B22012005F09B
:10A430005BF842E044F20102904200F0858044F271
:10A4400002029042D9D1002B37D05B4B1B68002B06
:10A4500033DD2F21594814F067F900286BD02F21E4
:10A46000564814F061F9411C554B2288D3F8043545
:10A4700003926268CDE90152534A009201206C2296
:10A4800005F032F819E0C3B14B4B1B68002B14DD0B
:10A490002F214A4814F048F910B32F21474814F0EF
:10A4A00043F9411C464B494AD3F804350092CDE9A3
:10A4B00001546022012005F017F84FF0A0434FF43B
:10A4C000F032C3F81825C3F80C25EFF3108372B6E9
:10A4D0004DF6AD6C3E4A1378002B68D107B030BD05
:10A4E0005C21364814F020F908B15C21D6E73349E5
:10A4F000D8E7002BE1D0304B1B68002BDDDD2F218E
:10A500002E4814F011F968B12F212C4814F00CF9E1
:10A51000411C2B4B2F4AD3F804350092CDE901544E
:10A520006322C7E75C21254814F0FEF808B15C21DE
:10A53000EBE72249EDE75C21204814F0F5F808B17B
:10A540005C218DE71D498FE7002BB6D01A4B1B68A5
:10A55000002BB2DD2F21194814F0E6F8A8B12F2105
:10A56000164814F0E1F8411C154B2268D3F8043565
:10A5700004926268CDE90252A2680192164A0092E2
:10A580000120772204F0B0FF97E75C210B4814F01C
:10A59000CBF808B15C21E3E70849E5E75C2107480F
:10A5A00014F0C2F808B15C2135E7044937E730BF41
:10A5B00091E700BF242E0020202E0020E0F40300AD
:10A5C0000010014084F5030044F5030008F5030082
:10A5D0001C2E002022F5030063F5030007B50023BD
:10A5E000ADF800300146054B01936A4644F2020083
:10A5F000FFF7F4FE03B05DF804FB00BFDBE90300E6
:10A6000001461022014813F0AABF00BFFC3300200E
:10A6100010B50B4C0B490822204613F0A0FF08226E
:10A62000A018094913F09BFFE379042262F3071392
:10A63000E371237A022262F38713237210BD00BFF5
:10A64000FC33002060000010A40000100048704798
:10A65000FC330020064B002203F580715A805A60BB
:10A6600003F8082B8B42F9D1024B1A60704700BFE8
:10A670000C3400200C350020F0B50C4B0C4C1B6842
:10A68000064620227BB1013B14F8330050B104EBA5
:10A69000C3056F88B74202D16D688D4202D0013A7E
:10A6A000F0D11046F0BD1F23EEE700BF0C350020AF
:10A6B0000C34002030B5084A084C136804EBC3057D
:10A6C0006960012104F833100B44202B08BF0023DC
:10A6D0006880136030BD00BF0C3500200C340020B2
:10A6E000C0F30C038B42084438BFA0F50050C01AD9
:10A6F00070470000F0B50D4B0D4A1E6800218E42D8
:10A7000012D0156800230AE052F8044C04EBC3078A
:10A7100014F83340844201D17868F0BD01339D4282
:10A72000F2D101310832EAE70020F6E79435002043
:10A730009C35002000B58DB048B9991C07D0012187
:10A7400001A88DF80410CDE9023201F03BFA034B69
:10A75000186803F089FE0DB05DF804FBA0350020F9
:10A7600010B50378044613B97846FFF737FF607ACF
:10A77000431C01209840013810BD2DE9F0410E46E0
:10A780008EB015461C46074610B97846FFF726FFDF
:10A7900016B97846FFF722FF636AA2780233059361
:10A7A000E378A2F10800002B14BF012102210DF172
:10A7B000040842424241434604F10C0003F087FF83
:10A7C000A3788DF83430237BADF82050022B16FA95
:10A7D00085F5CDE906870B960C950FD1236913B942
:10A7E0007846FFF7FBFE23690993102305A8ADF80F
:10A7F000283003F068FF0EB0BDE8F0810023F5E7D4
:10A80000B2F5C07F2DE9F04781468846174602D948
:10A810007846FFF7E3FE244B002570229A4602FBA0
:10A82000053494F8486046B9384607F0F0FCE06615
:10A8300038B900242046BDE8F0870135042DEED15B
:10A84000F7E730224946204613F089FEB8F1010FA0
:10A85000E664A4F84A701DD1144B84F852601B7D45
:10A8600084F8513084F8536084F85060D9F8283067
:10A8700063656FF00103A3620D4BA4F85860A363F6
:10A880002464012002F04CFA702303FB05A585F82F
:10A890004880CFE76FF00103A362064BA36584F8FD
:10A8A00068602466044BEAE7BC350020A43500202C
:10A8B000B1AD020001B60200A9AD020010B5044618
:10A8C000C06E07F0A6FC04F1300003F00BF894F81A
:10A8D0004830022B03D104F1500003F003F8204666
:10A8E0007022002113F046FE002084F84800BDE8E5
:10A8F000104002F015BA10B590F84830012B8CB01A
:10A90000044602D07846FFF769FE01238DF8043033
:10A9100001A8636D029301F055F92046FFF7CEFFC1
:10A920000CB010BD037BD3B190F91620002A18DBC0
:10A93000C27D5AB1022B12D090F90330002B10DBEC
:10A940008378002B0CBF002007207047C2780AB91B
:10A95000012B06D1037833B98378042BF2E710205A
:10A960007047072070470020704700001FB5002285
:10A970000B468DF80F2028B30230086018460DF101
:10A980000F0103F0A2FE9DF80F30DBB1144B1B68E2
:10A990005B0717D5134B1B68032B13DD2F211248C0
:10A9A00013F0C2FE98B12F210F4813F0BDFE411CD9
:10A9B0000E4B0F4AD3F804350092042040F20642B1
:10A9C00004F092FD9DF80F0005B05DF804FB5C21DA
:10A9D000054813F0A9FE08B15C21E5E70249E7E765
:10A9E000242E0020202E0020F1F50300001001404D
:10A9F0000EF6030070B504468CB02378808AD4E943
:10AA00000612E3B1E38805F00DFD0546A0B12C2246
:10AA1000002101A8A68AE46913F0ACFD0F238DF88C
:10AA200004304FF0000364F3000301A8ADF80860A0
:10AA30008DF80A3001F0C6F828460CB070BD05F05C
:10AA4000EDFCE2E72DE9F04F99461378D2F8188033
:10AA5000F3B007468A46144623B1D1884046FFF733
:10AA60003FFE9061E378A278002BA2F1080003ADCD
:10AA700014BF0121022104F10C0642422B4642413F
:10AA8000304603F024FEA278C4F81880CDE90857B8
:10AA90001FFA8AF5AB1A9BB21F44ADF82830E37851
:10AAA0000E974FF0000812AF0D978DF83C20ADF8CF
:10AAB0003080002B65D04FF0100B04F1240A237B6B
:10AAC000C4F82480022B02BF2369ADF830B00B9389
:10AAD000206A217952460FF04BFD606A30BB237B20
:10AAE000022B05D13146E0890FF0E2FD0028E6D1C6
:10AAF000374B1B685B0741D5364B1B68052B3DDD8B
:10AB00002F21354813F010FE002858D02F2132484D
:10AB100013F00AFE411C314B314AD3F80435009240
:10AB2000062040F2F26204F0DFFC27E007A9FFF7FD
:10AB30001DFF0028CCD02046FFF75CFFF0B9A278BB
:10AB40000B908DF81C0096E80300A38AADF82A301C
:10AB5000AD1A0CAB01228DF8282083E80300A37DF9
:10AB60008DF84030236A0E9307A8636A0897ADF802
:10AB700024500F93CDF8449001F024F873B0BDE851
:10AB8000F08F227B012AB3D1A046E089B4F814A04B
:10AB900048F8243F41460FF01FFD07A9606AFFF700
:10ABA000E5FE0028C7D16062414650460FF014FD13
:10ABB00007A9606AFFF7DAFE002899D0BBE75C219D
:10ABC000054813F0B1FD08B15C21A0E70249A2E7F6
:10ABD000242E0020202E0020F1F50300001001405B
:10ABE000DFF60300C37D0A7830B5002B3DD0C37873
:10ABF00022F07F0203F07F031A430A700B78027879
:10AC000003F07F0343EAC2130B70037863B38378C6
:10AC1000083B5A425A414B7803F07F0343EAC21380
:10AC20004B708A78C58802F00302C5F3861442EAA5
:10AC3000850223F07F032343D2B28A704B70CB7816
:10AC4000057A03F01F03C5F3C10422F0030243EAAF
:10AC500045132243DBB2CB708A70427A23F01F0384
:10AC600002F01F021343CB7030BDC47822F04003C2
:10AC700043EA8413DBB20B70027923F03F0302F046
:10AC80003F0213430B70B9E738B590F84830012BF9
:10AC9000044602D07846FFF7A1FC02F063FE237B56
:10ACA000074A012B05BFD2E90315A37DD16805FB37
:10ACB0000311014404F13000BDE8384002F029BE20
:10ACC000A4350020F0B50D4691B0044610B9784681
:10ACD000FFF784FC94F84830022B19D1E188A06971
:10ACE000FFF7FEFCE1690A061618284A4FEA11230D
:10ACF00043F10007136830465E1C166003F007033B
:10AD0000234A1B013946D618A78AD752C6E9020141
:10AD10002C22002105A8666D13F02CFC102305A839
:10AD20008DF8143006968DF81C5000F04BFF20462D
:10AD3000FFF7C4FD174B1B685B071BD5164B1B6841
:10AD4000032B17DD2F21154813F0EEFCA0B12F21A6
:10AD5000124813F0E9FC411C114BD3F8043502955D
:10AD600094F8482001920F4A009204204FF4FA729E
:10AD700004F0BAFB11B0F0BD5C21084813F0D4FC1C
:10AD800008B15C21E4E70549E6E700BF9035002003
:10AD900010350020242E0020202E0020F1F5030085
:10ADA00000100140C0F5030008460021FFF78ABFEC
:10ADB00010B591F84830012B0C4602D07846FFF7C9
:10ADC0000DFC94F851305BB1013B84F85130002305
:10ADD00084F85030084BBDE81040186803F044BBBD
:10ADE000217B0129204603D1BDE81040FFF76ABF4F
:10ADF000BDE81040FFF77FBDA03500202DE9F04FE2
:10AE0000044689B00F4609B100230B6004F10C031E
:10AE100094F8505001934FF001084FF0000B627A04
:10AE2000AA4203D2002009B0BDE8F08FE16C08FA15
:10AE300005F30B4259D1E37D2572002B0CBF0C2684
:10AE40000826954206FB05FA237808BFB4F84A6045
:10AE50008DF818B008BFA6EB0A06002B14BF4FF000
:10AE600004094FF0010906EB09030493019B0293C7
:10AE7000A36A039302A8E36A059303F0C2FD0028C6
:10AE8000D1D1079B994445B994F853302BB9A369A4
:10AE900084F85380C3F30C03E380E37D8BB994F80B
:10AEA000523073B915B17846FFF798FBB4F84A10E1
:10AEB000A2788A1AE16E23460846FFF75EFC84F802
:10AEC000528007992046FFF78DFEE16E32465144CD
:10AED000484613F044FB02A803F0B4FD17B13B68E9
:10AEE00001333B606B1C84F850300135EDB296E7BE
:10AEF0002DE9F04307468FB010468846154699461F
:10AF0000FFF778FD0446002860D1EE78002E40F06F
:10AF1000AE80B8F1060F59D138787A78DFF8A8C139
:10AF2000830103F4FE5343EA9203D7F802204FF063
:10AF3000700812BA674608FB04C696F84810012943
:10AF400025D1B6F814E0E9898E4520D1F1889942DF
:10AF50001DD1B6F858E0A98ABEF1000F01D08E4588
:10AF600015D110F0800F4FF070033BD003FB04733A
:10AF7000A3F85810702303FB0474E56C1543E564D3
:10AF8000002A61D103213046FFF79CFE1EE0013408
:10AF9000042CD0D1464B1B685B0717D5454B1B686B
:10AFA000012B13DD2F21444813F0BEFB88B12F2164
:10AFB000414813F0B9FB411C404B414AD3F80435DA
:10AFC000009202204FF4CD6204F08EFA0FB0BDE87B
:10AFD000F0835C21384813F0A7FB08B15C21E7E758
:10AFE0003549E9E703FB0473DB898B42C2D0304B60
:10AFF0001B685A07EAD52F4B1B68012BE6DD2F2172
:10B000002D4813F091FBB0B12F212B4813F08CFB8E
:10B01000411C2A4BAA8AD3F804350292702202FB03
:10B0200004740220E2890192264A00924FF4CE6213
:10B0300004F05AFACAE75C211F4813F075FB08B107
:10B040005C21E2E71C49E4E73046FFF789FB8542D3
:10B0500003D13046FFF74FFCB8E7002184F85010C9
:10B060003046FFF7CBFE3046FFF70EFEAEE7304628
:10B07000FFF740FB03460028A8D005F10C012A6A1F
:10B080000B9203C9AA8AADF8222009AA82E803001C
:10B09000AA7D8DF830202A788DF82020EA6A8DF874
:10B0A0001460CDE906780D92494605A898478DE7CA
:10B0B000242E0020202E0020F1F503000010014076
:10B0C00021F603004FF60300BC350020F0B5C37D28
:10B0D00015468278002B2A4414BF4FF480734FF436
:10B0E000C0739342C7B00E4679D3404C0023E11899
:10B0F00091F84870012F08D1B1F814C0878ABC4577
:10B1000003D1CF89C1898F426BD07033B3F5E07F13
:10B11000EDD10121FFF774FB0446002863D02A46D5
:10B120003146C06E13F01BFA002304A92046049395
:10B13000FFF764FE30F0040506464BD1049B13B1C3
:10B140002046FFF7A1FD2A4B1B685B0728D5294B3A
:10B150001B68032B24DDB4F84A10274B802918689C
:10B1600028BF8021002305AE8B421CD100222F2155
:10B17000224806F8132013F0D7FA10B32F211F48E6
:10B1800013F0D2FA411C1E4B1E4AD3F8043501922B
:10B190001D4A0092029640F25552042004F0A4F990
:10B1A000284647B0F0BDE26ED25C170902F00F02EC
:10B1B000C75D06F81370875C06EB430201335770D6
:10B1C000D2E75C210D4813F0AFFA08B15C21D6E755
:10B1D0000A49D8E72046FFF771FB3546E0E7092525
:10B1E000DEE70825DCE70425DAE700BFBC350020F0
:10B1F000242E0020202E0020282E0020F1F5030010
:10B2000000100140E3F5030080E903002DE9F0415F
:10B21000044686B0808A0F46164602F009F80128D7
:10B2200044D12046FFF77EFB054638B923784BB161
:10B23000324639462046FFF749FF0546284606B004
:10B24000BDE8F081E27DA378002A334414BF0B22CD
:10B250000F22934228D80133029304F10C03009388
:10B26000A36A01938DF81000E36A0393684603F024
:10B27000C8FB05460028E1D10599204601F10108E7
:10B28000FFF7B0FCE37D43B132463946404613F048
:10B2900066F9684603F0D6FBD0E7234632464146BE
:10B2A0003846FFF76AFAF4E70925C7E71025C5E72E
:10B2B00010B54FF4E0720021134813F05BF900243D
:10B2C00005F092F9114B12481C602146802213F0C0
:10B2D00051F9104B1049114A11489C75C3E90012ED
:10B2E00010494CF25032C3E902211A6140F60402BF
:10B2F0009A8203F09BF80C4B18600C4B0C481C60B6
:10B30000BDE8104005F07ABABC3500209035002029
:10B3100010350020A435002080969800F0490200E6
:10B32000F9BA020020A10700A035002094350020C2
:10B3300035A7020005F06AB830B504468DB0002884
:10B3400060D00369002B5DD0C369002B5AD085699A
:10B35000002D57D05A788DF804201A780993838AE3
:10B3600082F001020B2B8DF80320027B3AD90121D8
:10B37000022A8DF8001001D1234A927D002A3BD188
:10B38000042213448DF802200B330C2293FBF2F3BA
:10B39000013B8DF8093000238DF8083094E8030054
:10B3A00000238DF8173003AB83E803002389ADF841
:10B3B0001430A37A8DF81630236A0A932046DF23CF
:10B3C00008950B930FF01AFA28B12378012B0CBFC4
:10B3D0002023FF230B93A28A21696846FFF716FFFB
:10B3E0000DB030BDC17A0029C1D1012A0CBF0122A4
:10B3F00000228DF8002001D10822C2E704238DF835
:10B400000230CBE70E20EBE7A435002070B50E46E6
:10B4100090B00446002862D04368002B5FD0856955
:10B42000002D5CD003788DF8133000230D938368D2
:10B430000B2B94BF027B012202F001018DF810104A
:10B4400000218DF8121032B10733DB08013B8DF873
:10B4500019308DF8181004F1100292E8030001234E
:10B460008DF8273007AB83E80300E389ADF824307B
:10B47000237F8DF82630236A0C95CDE90E63194B96
:10B480001B685B071BD5184B1B68062B17DD2F218C
:10B49000164813F049F9C8B12F21144813F044F9A4
:10B4A000411C134BA269D3F8043502922278019211
:10B4B000104A0092072040F2F57204F015F8D4E922
:10B4C000011204A8FFF7A2FE10B070BD5C2107486E
:10B4D00013F02AF908B15C21DFE70449E1E70E2007
:10B4E000F2E700BF242E0020202E0020F1F50300FB
:10B4F0000010014090F6030070B5037B012B8EB065
:10B5000004460D466DD1384B1B68980518D5374B4E
:10B510001B68032B14DD2F21354813F005F9002893
:10B5200053D02F21324813F0FFF8411C314B324ADF
:10B53000D3F804350092042040F2622203F0D4FFD5
:10B5400002AE0B220021304613F014F89DF80920BA
:10B55000E3888DF80D5002F0030242EA83028DF871
:10B5600009202A0E8DF80A202A0C8DF80B202A0AB1
:10B570008DF80C2062780696911E4A424A41C3F328
:10B58000861343EAC2138DF808300623079301237C
:10B590008DF82430A38AADF8263000230A938DF865
:10B5A00014308DF82030E389ADF82230E36A0D9332
:10B5B000A37D226A0B928BB96FF0010105A88DF86B
:10B5C0003030FFF723FF0EB070BD5C21084813F048
:10B5D000ABF808B15C21A5E70549A7E7074B5B7D00
:10B5E000EAE70020EFE700BF242E0020202E0020F5
:10B5F000F1F5030000100140B0F50300A435002070
:10B6000010B591F84830022B0C4602D07846FEF770
:10B61000E5FF022384F8683094F84830022B06D105
:10B62000E16C2046FFF768FF08B984F8680010BD98
:10B630002DE9F04F0D469FB0144698460646002867
:10B6400000F04C82002A00F0498221B909273846CF
:10B650001FB0BDE8F08F1822214615A812F07FFF19
:10B660003378002059B2CA0F81428DF84820ACBF10
:10B670000122042295428DF84900E7D39DF85F70BE
:10B68000EFB103F07F0381428DF84B308DF84A0013
:10B690002EDA7278B378920102F4FE5242EA9302F3
:10B6A000ADF84E20DB00F27803F0180343EA5213A2
:10B6B00002F01F028DF850308DF8512018E0C3F3CE
:10B6C0008010002903F03F038DF84B008DF84C30BB
:10B6D00008DA96F90130002BACBF042308238DF85B
:10B6E0004A30D6E704231A4495428DF84A30ADD348
:10B6F00000231B9398F80030032B02D97846FEF7FD
:10B700006DFF98F80020AB4BBDF85C0053F8223079
:10B710001D9301F08DFD012840F0E28112A8FFF792
:10B7200001F90746002892D10146082205A812F027
:10B7300021FF05A960880EF0BBFF28B19DF84930B4
:10B7400043F001038DF84930D4E90312208904F055
:10B7500095FE002857D19DF84930002B3FF477AF74
:10B7600013F001031CBF069A16929DF84820002A88
:10B7700000F0A281BDF84E101898FEF7B1FF199B9A
:10B780004FEA03694FEA132A19EB00034AF1000458
:10B79000CDE90234BDF85C00874C00210B5B83428D
:10B7A00009D16318D3E90223DDE9029A9A4508BF5B
:10B7B00091453FF44CAF10318029EFD17F4A0023EF
:10B7C000702101FB032494F848C0BCF1020F23D17F
:10B7D000B4F814C084451FD1E188A069FEF780FF4A
:10B7E000E1690A0612EB00094FEA112343F1000A4E
:10B7F000DDE902239A4508BF914531D20521204653
:10B80000FFF760FA0BE09DF8493003F0FE038DF876
:10B810004930002B9FD11AE70133042BD1D1BDF859
:10B820004E30BDF85C00DDE9181204F04FFE002830
:10B8300000F0D280BDF84E30BDF85C00DDE9181292
:10B8400004F078FE00283FF402AF12A8FEF788FF4C
:10B85000014612A8FFF750FE12A8FFF7CBF8F6E654
:10B86000DDE90223534508BF4A45FFF4F0AE544BCF
:10B870001B685B071CD5534B1B68032B18DD2F215E
:10B88000514812F051FF002800F0FC802F214E4853
:10B8900012F04AFF411C4D4B9DF85020D3F804355F
:10B8A00001924B4A009204204FF4657203F01CFE93
:10B8B00094F84830022B02D07846FEF78FFEDFF86E
:10B8C0001491D9F800A002F04DF80AEB000104F140
:10B8D000300002F01EF8237B012B1AD194F8683057
:10B8E000BBB994F84830022B02D07846FEF776FEBA
:10B8F000D9E9013299F8151002FB013902F032F84A
:10B9000000EB090104F1500002F003F8012384F870
:10B9100068309DF85010E36C01228A4013427FF496
:10B9200096AE1343E3649DF85F30627A002B0CBF40
:10B930004FF00C094FF008098A42A5F1040509FBF4
:10B9400001F940F0A88009EB0503A4F84A30A26988
:10B95000189B9A420BD20DF1540EBEE80F0004F171
:10B960000C0CACE80F009EE803008CE80300E06ECE
:10B970002A46311D484412F0F2FD2046E56CFEF7E0
:10B98000EFFE85427FF463AEE16C2046FFF7B4FD25
:10B990006378DA070AD5E37DE06EB4F84A10002B2D
:10B9A00000F0858043462246FFF7A2FA2046FEF7C4
:10B9B00085FF4CE6A0F5030010350020BC350020C3
:10B9C000242E0020202E0020F1F50300001001405D
:10B9D000CFF60300A43500209DF85F209DF851307C
:10B9E000002A0CBF0C24082403FB04440CBF4FF4B2
:10B9F000C0734FF480739C4228D93A4B1B68590797
:10BA00007FF525AE384B1B68002B7FF720AE2F212A
:10BA1000364812F089FE80B12F21344812F084FE9E
:10BA2000411C334B334AD3F80435009201944FF450
:10BA30005C72012003F058FD09E65C212B4812F0EE
:10BA400073FE08B15C21E8E72849EAE722460221B3
:10BA500012A8FEF7D5FE044600287FF408AF014681
:10BA600012A8FFF749FD2C22214607A812F082FDFB
:10BA700010238DF81C3007A802238DF8243000F025
:10BA8000A1F8E4E55C21194812F04EFE08B15C21F2
:10BA9000FDE61649FFE6002B0CBF0C2308239D4250
:10BAA0003FF455AF04212046FFF70CF9CFE543469C
:10BAB0002246FEF7C7FF79E7002B3FF4C8AD9DF89B
:10BAC0005F30701C691E23B1434612AAFFF710FABB
:10BAD000BDE5434612AAFEF7B5FFB8E50E27B6E569
:10BAE0001027B4E5242E0020202E0020F1F50300BD
:10BAF00000100140BBF603002DE9F341194E00246C
:10BB00003746A046351995F84830012B0CD102A9CB
:10BB1000284641F8048DFFF771F9042801D0019BF4
:10BB200013B12846FFF7B0F87034B4F5E07FE9D1DF
:10BB300000257C1994F84830022B0AD194F868301B
:10BB4000022B06D1E16C2046FFF7D6FC08B984F839
:10BB500068007035B5F5E07FEBD1012002B0BDE89B
:10BB6000F08100BFBC3500202DE9F0418846074632
:10BB7000E8B1124E3468C4B92546454507D1104B8B
:10BB8000C3E90075012333602046BDE8F08107EB6F
:10BB9000C5035B685BB117F83500030609D450B1E3
:10BBA000FEF7A8FD38B90135E7E70424ECE70E24D9
:10BBB000EAE70B24E8E70F24E6E700BF943500200E
:10BBC00098350020F8B5074610B97846FEF706FD0F
:10BBD0000F4E346894B10F4D01232B7023791BB99C
:10BBE00054F8043C384698472468002CF6D12B784A
:10BBF000022B03D13168064C09B92970F8BD0B79C5
:10BC00000E6813B1204603F0F4FB3146F4E700BFA1
:10BC1000803700207C37002010B5044610B97846E4
:10BC2000FEF7DCFC00232372211D0248BDE8104012
:10BC300003F0BEBB803700200B888268D25A0732DF
:10BC400022F00302134402889BB2043A934288BF55
:10BC500000230B80704713B58368CB1A02A921F823
:10BC6000023DFFF7E9FFBDF806308068184402B0D6
:10BC700010BD70B5064615460C4611BB7846FEF75A
:10BC8000ADFCFEB17846FEF7A9FC6B1E2344B3F170
:10BC9000005F34D94FF08052D2F80C2102F5002217
:10BCA000B3EB822F2ED2042D02D87846FEF796FCF5
:10BCB00035800023043D7380B380B4602580A37079
:10BCC00070BD10B97846FEF789FCB4F1005F12D957
:10BCD0004FF08053D3F80C3103F50023B4EB832FDE
:10BCE000D3D34FF08053D3F80C3103F50053B4EBAA
:10BCF000832FC7D2C9E7B4F5000FF2D8C2E7B3F576
:10BD0000000F08D94FF08052D2F80C2102F50052F2
:10BD1000B3EB822FC7D37846FEF760FCC3E738B594
:10BD2000044610B97846FEF759FC6288A3681344AC
:10BD30009B78012B02D17846FEF750FCEFF310857B
:10BD400072B6A268A18811448B78032B0AD12046D1
:10BD5000FFF781FFA368C31A63800023837005B9CE
:10BD600062B638BD002393706380A380F7E7F8B50F
:10BD70000E461546044610B97846FEF72FFC16B954
:10BD80007846FEF72BFC6288A36813449B78012B4E
:10BD900002D17846FEF722FC002D37D02388043BE1
:10BDA0009BB29D4232D8EFF3108772B66188A388A8
:10BDB000EA1D22F00302994292B204D25B1A9A421F
:10BDC00010DD042016E018D92088401A904209D2CC
:10BDD0009A42F6D8032881BFA3685B1804229A70A0
:10BDE000002363806288A1688B188D5201229A70AB
:10BDF0000020336007B962B6F8BDA26813449B788F
:10BE0000002BDED193706380A380EBE70920F3E77A
:10BE1000F8B50D461646044610B97846FEF7DEFB27
:10BE200015B97846FEF7DAFBAB78012B02D07846DD
:10BE3000FEF7D4FB2B88B34202D27846FEF7CEFB46
:10BE400016B97846FEF7CAFBEFF3108772B60223E5
:10BE5000AB70E1182E802046FFF7EEFE6288A388C3
:10BE600093421FBFA3689B1800229A7007B962B65D
:10BE7000F8BD70B50D46044610B97846FEF7AEFB26
:10BE800015B97846FEF7AAFBEFF3108672B6A288C2
:10BE9000A36813449A78042A06D1211D2046FFF78F
:10BEA000CBFEA288A36813449A78022A03D0032AFF
:10BEB00008D0052003E003229A702B60002006B909
:10BEC00062B670BD7846FEF789FBF7E738B50446E1
:10BED00010B97846FEF782FBEFF3108572B6A088A2
:10BEE000A16801448B78042B03D12046FFF7B3FEF1
:10BEF00001468878831E5842584105B962B638BD5C
:10BF000038B5044610B97846FEF768FBEFF31085A4
:10BF100072B6A088A16801448878C31E012B05D998
:10BF2000831E5842584105B962B638BD2046FFF716
:10BF300092FE0146F0E7F8B50D46044610B9784682
:10BF4000FEF74CFB15B97846FEF748FBEFF3108679
:10BF500072B6AB78012B19D0032B22D1A288A3682B
:10BF600013449D4202D07846FEF738FB0027AF709D
:10BF7000211D2046FFF760FEA288A36813449B782A
:10BF8000042B00D1A78006B962B6F8BD6288A36809
:10BF900013449D4202D07846FEF720FB0023AB708D
:10BFA000F1E77846FEF71AFBEDE710B5EFF31084E2
:10BFB00072B68288816811448B78042B02D1FFF716
:10BFC0004AFE01468878B0FA80F0400904B962B6AA
:10BFD00010BD037942799B1A03F57F2303F6FF73A3
:10BFE00000EB03307047000010B5054884681C2240
:10BFF000002112F0BFFA2046BDE8104003F0CCBF8C
:10C000008437002070B5194CE36813B97846FEF701
:10C01000E5FA237E13B17846FEF7E0FA6368092B50
:10C0200002D97846FEF7DAFA114D0026636855F812
:10C0300023309847022811D003280DD0012810D1B1
:10C0400063680133092B636002D97846FEF7C6FAAC
:10C05000237E002BEAD004E06660F9E7237E0BB173
:10C06000207070BDBDE87040FFF7BEBF8437002070
:10C0700064F7030010B50388044613B97846FEF749
:10C08000ADFA2088074B04EB800030EA030203D0AE
:10C090006288B2F5FE4F04D11C4004F5805420782C
:10C0A000204410BD00F0FFFF70B504460E4647F671
:10C0B000FE65FFF7DFFFB04207D2844205D2438816
:10C0C000013B9BB2AB42F4D870BD0020FCE70000FE
:10C0D0000B78032B094B04BF00221A761A78012A29
:10C0E00003D11B7E43B9FFF78DBF022A04D10B7821
:10C0F000032B01D1FFF778BF704700BF84370020C2
:10C1000010B50C4CE3681878002203F580511844F0
:10C1100004F038FB50B9E1680846FFF75AFF814246
:10C1200006D001F58051E160032010BD0120FCE73D
:10C130000220FAE7843700201FB50A4B02221B6851
:10C140008DF800200193084A4FF48053694601207E
:10C15000029300F0AFFFB0FA80F0400905B05DF83F
:10C1600004FB00BFA4370020A03700201FB5012327
:10C17000CDE902210190054A8DF800306946184644
:10C1800000F098FF05B05DF804FB00BFA037002069
:10C190002DE9F047254BD86802794179013A91425F
:10C1A0001E4603D101205876BDE8F08700F5805384
:10C1B0001F491C781C440B6813F8045F1D44FFF7EB
:10C1C00008FF6388013B9BB247F6FE62934200F58D
:10C1D0008057884604D920463946FFF765FF044654
:10C1E000DFF850A04FF001092CB9B4FA84F46409C7
:10C1F00074760120D8E7D8F800106288284601F547
:10C20000805104F0BFFA05460028EED004225146C2
:10C21000204686F81890FFF7A9FF28B9204639462E
:10C22000FFF742FF0446DFE70020BDE78437002028
:10C23000A43700200CF9030038B5104CE3681878D7
:10C240004FF6FF7203F58051184404F09BFA88B151
:10C25000E36819780B4498420CD0657E0849094B75
:10C260000422002D08BF1946FFF780FF20B90120E6
:10C27000207638BD0120FCE70020FAE78437002053
:10C2800014F9030010F9030070B50C4D0C4EE96869
:10C2900030680C7804302246FFF768FF58B93368DD
:10C2A00004F0FC0404341C44EB686C611A781344F9
:10C2B0002B61012070BD0020FCE700BF8437002007
:10C2C000A437002008B5054B054918680422FFF77C
:10C2D0004DFFB0FA80F0400908BD00BFA437002030
:10C2E0009037002010B5074B074C1968E06840F6FE
:10C2F000FC720431FFF73AFF10B90120207610BD1F
:10C300000020FCE7A43700208437002010B50C4C37
:10C31000E1680846FFF75DFE81420AD1094B0A49F0
:10C3200018680422FFF722FF40B901232376022078
:10C3300010BD01F58051E1600320F9E70020F7E727
:10C3400084370020A4370020A83700202DE9F74FBC
:10C35000324C236913B97846FEF740F9636913B983
:10C360007846FEF73BF9DFF8B89047F6FE6A636956
:10C37000D4E9030603EA0908A8EB0308FFF729FE3E
:10C380007388013B9BB2534508F5805800F5805BEC
:10C3900006D930465946FFF787FE0646002835D0B5
:10C3A000354600275D4519D22A8807EB8202904561
:10C3B00009D986EA050313EA090F04D16B88013B0A
:10C3C0009BB2534502D957B9012318E02846019280
:10C3D000FFF750FE019A05461746E3E7E7B13A46F4
:10C3E00031466069FFF7C2FE90B963691F44676117
:10C3F00015B97846FEF7F2F82561002335B1698852
:10C4000047F6FF72914201D0002BB0D0012000E02E
:10C41000002003B0BDE8F08F0123EFE78437002050
:10C4200000F0FFFF1FB50A4B0222DB688DF80020E9
:10C430000193084A4FF4805369460120029300F0AB
:10C4400039FEB0FA80F0400905B05DF804FB00BF8A
:10C4500084370020A03700201FB540F6F8731B6812
:10C460005A1C0CD1374B1A68013202D01A68002AC4
:10C4700054D14FF08052516913694B4303E0002BB4
:10C48000F7D0A3F58053304CA3F5805323602F4B96
:10C490001B68DB0223D52E4B1B68062B1FDD2F21CB
:10C4A0002C4812F041F900283AD02F21294812F0E7
:10C4B0003BF9411C40F6F872274B1268D3F804355B
:10C4C000501C08BF1F4A206808BF1268CDE9012030
:10C4D000224A009207204FF41A7203F005F82368ED
:10C4E00019684B1E03332BD8C1F30B0343BB1C4A03
:10C4F0001C48D160012111701B491376537693605B
:10C5000051F82340844214D153600120174900F0B0
:10C51000C1FDFFF777FD012004B010BD1B68B0E737
:10C520005C210C4812F000F908B15C21BEE7094912
:10C53000C0E701330A2BE3D17846FEF74FF8E4E772
:10C540000020E9E714100010A4370020242E00205A
:10C55000202E002008F703000010014030F70300F0
:10C560008437002025C4020064F70300D1C0020014
:10C5700010B5044610B97846FEF730F8094B187824
:10C5800060B1E068D9684379A0EB0333994206D3E0
:10C59000FFF71FFD81428CBF0020012010BD00204D
:10C5A000FCE700BF84370020024B1878003018BF2A
:10C5B000012070478437002038B50E4C237805469B
:10C5C00013B17846FEF70AF82B78032B02D0784691
:10C5D000FEF704F8EB68E360012000230649A5603C
:10C5E000636023762070637600F054FDBDE8384028
:10C5F000FFF708BD84370020D1C00200014B186846
:10C60000704700BFA437002010B5044610B9784623
:10C61000FDF7E4FF63681BB123680BB1A36813B98E
:10C620007846FDF7DBFFA3685A1E1A4202D078460F
:10C63000FDF7D4FF0023C4E9033310BD70B50E46E7
:10C640000446F0B18368F3B1EFF3108572B6D0E918
:10C650000331994203D105B962B605250FE04EB109
:10C660008368013B0B40D0E90012304602FB031106
:10C6700011F075FF23690133236135B962B628468D
:10C6800070BD0E25FBE70925F9E70025F7E7000057
:10C69000024AD2F80034002BFBD0704700E0014082
:10C6A000C0F30B0310B5E3B9E9B1104C0223C4F891
:10C6B0000435FFF7EDFF01F6FF7121F47F6121F0F2
:10C6C0000F010144884205D10020C4F80405FFF79A
:10C6D000DFFF10BDC4F80805FFF7DAFF00F5805052
:10C6E000F0E71020F5E70920F3E700BF00E0014084
:10C6F00070B540EA010414F003041BD1E2B19507C0
:10C700001AD10E4E0123C6F804359508FFF7C0FF75
:10C71000AC4205D10020C6F80405FFF7B9FF70BD93
:10C7200051F824305A1C03D040F82430FFF7B0FFF2
:10C730000134EDE71020F2E70920F0E700E00140C6
:10C7400041F2826398429DBF024B1878C0F3C0004B
:10C75000012070473338002013B50190000C0128E8
:10C760000C4602D07846FDF739FF084A084923688D
:10C7700013600B7843F001030B7083F00203C3F3E3
:10C7800040030020137102B010BD00BF2C38002000
:10C790003338002013B50190000C02280C4602D05B
:10C7A0007846FDF71BFF084B22681A6022791A7140
:10C7B000064A002058719871D871137843F002032B
:10C7C000137002B010BD00BF2438002033380020A1
:10C7D00007B50190000C032802D07846FDF7FEFE55
:10C7E00003480522002103B05DF804EB11F0C2BE3E
:10C7F0002C38002007B50190000C042802D07846A0
:10C80000FDF7ECFE03480822002103B05DF804EBBD
:10C8100011F0B0BE2438002013B50190000C03289D
:10C820000C4602D07846FDF7D9FE04490522204681
:10C8300002B0BDE8104011F092BE00BF2C380020BD
:10C8400013B50190000C03280C4602D07846FDF782
:10C85000C5FE05222146054811F081FE044A1378E1
:10C86000002043F00103137002B010BD2C380020EB
:10C870003338002013B50190000C04280C4602D078
:10C880007846FDF7ABFE04490822204602B0BDE819
:10C89000104011F064BE00BF2438002013B5019091
:10C8A000000C04280C4602D07846FDF797FE0822BB
:10C8B0002146054811F053FE044A1378002043F046
:10C8C0000203137002B010BD24380020333800205A
:10C8D00000B50A4B1A7B9B688DB0012A08BF03F193
:10C8E000FF3303900CA80493022300F82C3D8DF82D
:10C8F0000820FFF767F90DB05DF804FBD83700207A
:10C90000074A1378590709D50178122906D1054934
:10C91000086805496FF3820348601370704700BFD1
:10C92000333800202C380020D83700201FB50F499D
:10C930000B785A0717D40E4A526802F50052B2F12A
:10C94000807F02920FD80B4A43F0040312780B70D9
:10C950004FF4403002A98DF80C2004F0E7FE10B12E
:10C960007846FDF73BFE05B05DF804FB3338002048
:10C97000D8370020343800201FB5002303930C4B18
:10C980009A6802920B4A1B7B8DF80C3013780133A6
:10C99000DBB202A94FF4802013708DF80F3004F041
:10C9A000C5FE10B17846FDF719FE05B05DF804FB31
:10C9B000D83700203438002007B54FF4403004F059
:10C9C00013FF4FF4802004F00FFF142200210648CB
:10C9D00011F0D0FD054B1A786FF345121A7003B0B1
:10C9E0005DF804EBFFF7A2BFD837002033380020F2
:10C9F00010B50C4C14220021204611F0BBFD00F0B4
:10CA0000B1FF094B094A0A499A600022C3E903129F
:10CA100058605A61074B6260197862F3C30119705C
:10CA200010BD00BFD8370020B437002091CB0200E2
:10CA3000008793033338002037B5244D2B78DB066D
:10CA40002BD42348234B036000F034FD2248234BB2
:10CA5000036000F02FFD2B7813F020020ED103F0BD
:10CA60000303032B1E4C1AD02260A2602273228281
:10CA7000FFF782FF23686360FFF758FF4FF48030B1
:10CA800004F0B2FE4FF4003004F0AEFE154800F0A2
:10CA900007FF2B7843F010032B7003B030BD124B0F
:10CAA0001A68A2601A7922739879597941EA0021AB
:10CAB0002182D9790D4B19700D4B1879884202D01B
:10CAC0000AB92260D6E71B682360D3E73338002019
:10CAD000CC3700202DCC02001838002001C90200FC
