:020000021000EC
:10C0000000FD01202D1D0300551D0300571D0300D9
:10C01000591D03005B1D03005D1D030000000000AF
:10C020000000000000000000000000005F1D030091
:10C03000611D030000000000631D0300651D030077
:10C04000671D0300671D0300671D0300671D0300D4
:10C05000671D0300671D03002DF00100671D03002D
:10C06000671D0300671D0300397A0200671D030086
:10C07000671D0300671D0300671D0300671D0300A4
:10C08000671D0300E9F8020015360200671D030072
:10C09000B9F90200671D0300D5F30100671D030015
:10C0A000671D0300671D0300671D0300671D030074
:10C0B000671D0300671D0300000000000000000072
:10C0C000671D0300671D0300671D0300671D030054
:10C0D000671D0300671D0300671D0300671D030044
:10C0E000671D0300000000000000000000000000C9
:10C0F00000000000671D030000000000671D030032
:10C10000000000000000000000000000000000002F
:10C11000000000000000000000000000000000001F
:10C12000000000000000000000000000000000000F
:10C1300000000000000000000000000000000000FF
:10C1400000000000000000000000000000000000EF
:10C1500000000000000000000000000000000000DF
:10C1600000000000000000000000000000000000CF
:10C1700000000000000000000000000000000000BF
:10C1800000000000000000000000000000000000AF
:10C19000000000000000000000000000000000009F
:10C1A000000000000000000000000000000000008F
:10C1B000000000000000000000000000000000007F
:10C1C000000000000000000000000000000000006F
:10C1D000000000000000000000000000000000005F
:10C1E000000000000000000000000000000000004F
:10C1F000000000000000000000000000000000003F
:10C2000010B5054C237833B9044B13B10448AFF390
:10C2100000800123237010BD2820002000000000B2
:10C22000D455030008B5034B1BB103490348AFF3D2
:10C23000008008BD000000002C200020D455030021
:10C24000154B002B08BF134B9D46A3F5803A0021E8
:10C250008B460F461348144A121A17F069F90F4B10
:10C26000002B00D098470E4B002B00D098470020A1
:10C27000002104000D000D48002802D00C48AFF347
:10C28000008017F007F92000290000F029FF17F0BF
:10C29000EDF800BF0000080000FD012000000000D4
:10C2A0000000000028200020F446002000000000CC
:10C2B0000000000041DF704770B59E4C23685E04AB
:10C2C000C6B019D59C4B1B68032B15DD2F219B484D
:10C2D00017F008FA002800F0F6802F21974817F091
:10C2E00001FA411C964B974AD3F80435009204207A
:10C2F00040F20F2208F0F8F823685D0420D58E4B39
:10C300001B68032B1CDD2F218C4817F0EBF900284C
:10C3100000F0E2802F21894817F0E4F9411C8A4A95
:10C32000874BD088D3F80435039050880290128848
:10C330000192864A0092042040F2112208F0D4F8BB
:10C340002368580434D57C4B1B68032B30DD804BAD
:10C350007D4E196805AD0023F21892F82C201009C3
:10C3600002F00F02085C05F81300885C05EB43023D
:10C370000133102B5070EFD100232F216F4885F827
:10C38000203017F0AFF9002800F0AF802F216B4864
:10C3900017F0A8F9411C6A4B6E4AD3F80435019294
:10C3A0006D4A0092029540F21222042008F09CF897
:10C3B0002368590433D5604B1B68032B2FDD644B76
:10C3C000614E196805AD0023F218127B100902F0C6
:10C3D0000F02085C05F81300885C05EB430201338B
:10C3E000102B5070F0D100232F21544885F82030B5
:10C3F00017F078F9002800F081802F214F4817F0BE
:10C4000071F9411C4E4B554AD3F804350192524AFA
:10C410000092029540F21322042008F065F8236888
:10C420005A0432D5444B1B68032B2EDD484B464E35
:10C43000196805AD0023F218127F100902F00F02EF
:10C44000085C05F81300885C05EB43020133102BF0
:10C450005070F0D100232F21384885F8203017F094
:10C4600041F9002853D02F21344817F03BF9411CE3
:10C47000334B3B4AD3F804350192374A0092029578
:10C480004FF40572042008F02FF823685B0418D5D8
:10C49000294B1B68032B14DD2F21284817F022F9A4
:10C4A00000283DD02F21254817F01CF9411C244BB2
:10C4B0002C4AD3F804350092042040F2152208F0EB
:10C4C00013F846B070BD5C211C4817F00BF908B199
:10C4D0005C2103E7194905E75C21184817F002F9C8
:10C4E00008B15C2117E7154919E75C21134817F0DB
:10C4F000F9F808B15C214AE710494CE75C210F4884
:10C5000017F0F0F808B15C2178E70C497AE75C2174
:10C510000A4817F0E7F808B15C21A5E70749A7E743
:10C520005C21064817F0DEF808B15C21BBE703493F
:10C53000BDE700BF841F0020801F0020A838030033
:10C5400000100140D83803008C200020F23803008E
:10C55000881F0020333903003C39030044390300AD
:10C560004D390300563903001FB51B4B03901B6860
:10C570005B0416D5194B1B68042B12DD2F211848BC
:10C5800017F0B0F8F8B12F21154817F0ABF8411C9F
:10C59000144B154AD3F8043500920520882207F081
:10C5A000A3FFBDF80C30102B02D0784603F016F82C
:10C5B0000E4C3C220021204616F0BAFF4FF4807347
:10C5C000E38004B010BD5C21054817F08BF808B17A
:10C5D0005C21D9E70249DBE7841F0020801F00208F
:10C5E000A838030000100140EC3A03008C20002022
:10C5F0001FB51A4B03901B685B040C4616D5184BED
:10C600001B68042B12DD2F21164817F06BF8E0B1E0
:10C610002F21144817F066F8411C134B134AD3F826
:10C620000435009205207F2207F05EFFBDF80C3034
:10C63000102B02D0784602F0D1FF0D493C22204653
:10C6400004B0BDE8104016F068BF5C21054817F043
:10C6500049F808B15C21DCE70249DEE7841F0020CD
:10C66000801F0020A838030000100140053B030094
:10C670008C2000201FB51D4B03901B685B040C46EB
:10C6800016D51B4B1B68042B12DD2F21194817F000
:10C6900029F810B32F21174817F024F8411C164B26
:10C6A000164AD3F8043500920520712207F01CFFCA
:10C6B000BDF80C30102B02D0784602F08FFF3C22E0
:10C6C00021460F4816F01AFF20B13C2221460C48A3
:10C6D00016F023FF002004B010BD5C21054817F0C0
:10C6E00001F808B15C21D6E70249D8E7841F002091
:10C6F000801F0020A8380300001001401D3B0300EC
:10C700008C20002007B5224B1B685B0417D5214BFA
:10C710001B68032B13DD2F211F4816F0E3FF50B3D6
:10C720002F211D4816F0DEFF411C1C4B1C4AD3F87C
:10C7300004350092042040F2B51207F0D5FE194BE3
:10C7400019484FF0FF321A609A800CF0DDF920B1E1
:10C75000114A40F2BD1115F014FB144A144800218F
:10C760000FF0CAF880B10C4A4FF4DF7103B05DF8E6
:10C7700004EB15F006BB5C21074816F0B3FF08B1C7
:10C780005C21CEE70449D0E703B05DF804FB00BFAD
:10C79000841F0020801F0020A838030000100140E3
:10C7A000203C030044200020B5C701009DC90100C2
:10C7B0004C20002073B5184B1B685B0404460D46E3
:10C7C000164617D5154B1B68032B13DD2F21144874
:10C7D00016F088FFB0B12F21114816F083FF411CDD
:10C7E000104B114AD3F804350092042040F2131282
:10C7F00007F07AFE32462946204602B0BDE8704076
:10C8000002F028B85C21064816F06CFF08B15C21E4
:10C81000E2E70349E4E700BF841F0020801F0020F7
:10C82000A8380300001001408037030007B5184BFB
:10C830001B685B0419D5174B1B68032B15DD2F21D3
:10C84000154816F04FFFC8B12F21134816F04AFFC4
:10C85000411C124A124B5288D3F804350192114AF6
:10C8600000920420D82207F03FFE0F4B00210E203B
:10C87000197003B05DF804EB02F03CBB5C21064884
:10C8800016F030FF08B15C21DFE70349E1E700BFA4
:10C89000841F0020801F0020A83803008C20002067
:10C8A00000100140953703008920002007B5164B82
:10C8B0001B685B0416D5154B1B68032B12DD2F215B
:10C8C000134816F00FFFB0B12F21114816F00AFFE0
:10C8D000411C104B104AD3F8043500920420E92281
:10C8E00007F002FE0D4B00210D20197003B05DF81A
:10C8F00004EB02F0FFBA5C21054816F0F3FE08B124
:10C900005C21E2E70249E4E7841F0020801F002049
:10C91000A83803000010014060380300892000207F
:10C9200013B5194B1B685B04044619D5174B1B68DC
:10C93000032B15DD2F21164816F0D4FEC8B12F2188
:10C94000134816F0CFFE411C124B2278D3F8043561
:10C950000192114A0092042040F2071207F0C4FD30
:10C9600023781C2B0ED1002002B0BDE8104005F04A
:10C97000F7BD5C21064816F0B5FE08B15C21DFE783
:10C980000349E1E702B010BD841F0020801F002092
:10C99000A838030000100140D237030030B50B78EF
:10C9A00085B00C462BBB194B1B685B0421D5184B7B
:10C9B0001B68032B1DDD2F21164816F093FED0B106
:10C9C0002F21144816F08EFE411C6268124B5088CD
:10C9D0005269D3F804351578247BADB992F90D204E
:10C9E0000190CDE902420D4A00920420FE2207F098
:10C9F0007BFD05B030BD5C21064816F073FE08B122
:10CA00005C21DEE70349E0E70022E9E7841F00201C
:10CA1000801F0020A83803000010014012380300D6
:10CA200013B503780E2B22D1164B1B685B0417D568
:10CA3000154B1B68042B13DD2F21144816F052FEF2
:10CA4000B8B12F21114816F04DFE411C104B114A70
:10CA5000D3F804350092052040F25B1207F044FD44
:10CA60000D4C23781BB9FFF727FC0123237002B07C
:10CA700010BD5C21054816F035FE08B15C21E1E7E8
:10CA80000249E3E7841F0020801F0020A83803002C
:10CA90000010014047380300C820002013B51F498B
:10CAA000044616F005FE10B91D4802B010BD1D4920
:10CAB000204616F0FDFD0028F6D01B49204616F052
:10CAC000F7FD40B3194B1B685B0416D5184B1B6868
:10CAD000002B12DB2F21174816F004FE90B12F21F6
:10CAE000144816F0FFFD411C134B144AD3F80435CB
:10CAF00000920020B22207F0F7FC784602F06EFDAB
:10CB00000020D2E75C210B4816F0ECFD08B15C2157
:10CB1000E6E70849E8E70A48C7E700BF7B3C0300AF
:10CB2000403C0300963C0300AF3C0300841F002000
:10CB3000801F0020A838030000100140CF3C0300F4
:10CB40005B3C030073B59D4D2B685904044640F1CE
:10CB5000AB819B4E3268032A40F3AD812F21994867
:10CB600016F0C0FDB0B12F21964816F0BBFD411C58
:10CB7000954B621CD3F804350192944A009204202C
:10CB800040F28D1207F0B0FC6CB1032C00F036813E
:10CB900002B070BD5C218B4816F0A4FD08B15C2189
:10CBA000E2E78849E4E78A4E2B68327803F4804351
:10CBB000002A40F0E080874C22886188914231D27F
:10CBC000BBB17F4B1B68032B13DD2F217D4816F073
:10CBD00089FDF0B12F217B4816F084FD411C7A4B72
:10CBE0007D4AD3F804350092042040F2251207F064
:10CBF0007BFCA368A0880193002302210093774A5D
:10CC000001F09CFF01210E2002F074F90123337022
:10CC1000BEE75C216B4816F065FD08B15C21DAE7E0
:10CC20006849DCE762BBBBB1654B1B68032B13DDB6
:10CC30002F21644816F056FDC8B12F21614816F027
:10CC400051FD411C604B664AD3F804350092042024
:10CC500040F22F1207F048FC624A0323E1880220C9
:10CC600001F04CF801F0CAF801210D20CCE75C215D
:10CC7000544816F037FD08B15C21DFE75149E1E780
:10CC80001E2A52D8C3B14E4B1B68032B14DD2F2133
:10CC90004C4816F027FD002835D02F21494816F0C2
:10CCA00021FD411C484B504AD3F804350092042022
:10CCB00040F23B1207F018FCA068FFF7EFFE2A686D
:10CCC0004A4B12F4804F18601D4619D03C4B1B682C
:10CCD000032B15DD2F213B4816F004FDE0B12F2179
:10CCE000384816F0FFFC411C374B2A68D3F804354E
:10CCF00001923F4A0092042040F23F1207F0F4FBF9
:10CD000001233A4AAAE75C212E4816F0EBFC08B151
:10CD10005C21C3E72B49C5E75C212A4816F0E2FCF9
:10CD200008B15C21DCE72749DEE7002B3FF430AF98
:10CD3000234B1B68032B7FF72BAF2F21214816F0C5
:10CD4000D1FC78B12F211F4816F0CCFC411C1E4BA2
:10CD5000284AD3F8043500924FF4A472042007F057
:10CD6000C3FB15E75C21174816F0BCFC08B15C2139
:10CD7000E9E71449EBE7002B3FF40AAF104B1B68BF
:10CD8000032B7FF705AF2F210E4816F0ABFC60B1E7
:10CD90002F210C4816F0A6FC411C0B4B164AD3F869
:10CDA000043500924FF4A872D8E75C21054816F0CC
:10CDB00099FC08B15C21ECE70249EEE7841F0020F2
:10CDC000801F0020A838030000100140983903009C
:10CDD000892000208C200020AB390300A8200020EF
:10CDE000DE3903006C1F00200D3A0300D020002024
:10CDF0003C3A0300523A03006B3A03002B685A0492
:10CE000017D53368032B14DD2F212E4816F06AFC4A
:10CE1000002837D02F212B4816F064FC411C2A4BE8
:10CE20002A4AD3F804350092042040F29B1207F0FE
:10CE30005BFB01F025F8264B186809F0D5FC00F0E3
:10CE4000E9FA0422C8214FF4803002F069F82B6817
:10CE50005B047FF59DAE1F4B1B68032B7FF798AEDD
:10CE60002F21184816F03EFCA8B12F21154816F0C6
:10CE700039FC411C144B184AD3F80435009240F297
:10CE8000A1126BE75C210F4816F02CFC08B15C2165
:10CE9000C1E70C49C3E75C210A4816F023FC08B13E
:10CEA0005C21E3E70749E5E700283FF47CAE03286F
:10CEB0007FF46EAEBDE700283FF475AE03287FF423
:10CEC00067AE9EE7A838030000100140993A0300BE
:10CED0007C370300801F0020B13A0300303804285B
:10CEE00001D8FFF72FBE704707B50749074809F07B
:10CEF0001DFC28B1784603B05DF804EB02F06EBB70
:10CF000003B05DF804FB00BF8C200020100001007E
:10CF100037B5394D394C2A6812F4804F18D0384B48
:10CF20001B68032B14DD2F21364816F0DBFB70B392
:10CF30002F21344816F0D6FB411C334B6288D3F8BE
:10CF400004350192314A00920420BD2207F0CCFA48
:10CF500000210E2001F0CEFF638801336380FFF7CC
:10CF6000C3FF63881E2B1BD8A068FFF797FD284AD4
:10CF7000E18810600123022000F0C0FE00F03EFFB7
:10CF800001210D2003B0BDE8304001F0B3BF5C21AA
:10CF90001C4816F0A7FB08B15C21CAE71949CCE789
:10CFA0002B685B0416D5164B1B68032B12DD2F2153
:10CFB000144816F097FBB0B12F21124816F092FBDF
:10CFC000411C114B134AD3F8043500920420D0229F
:10CFD00007F08AFA0422C8214FF4F03003B0BDE80C
:10CFE000304001F09DBF5C21064816F07BFB08B184
:10CFF0005C21E2E70349E4E7841F00208C20002045
:10D00000801F0020A838030000100140EB37030008
:10D01000CC200020523A030007B5184B1B685B0474
:10D0200016D5174B1B68032B12DD2F21154816F060
:10D0300059FBD0B12F21134816F054FB411C124B61
:10D04000124AD3F8043500920420DF2207F04CFA8C
:10D0500000210D2001F04EFF01210E2001F04AFFBA
:10D0600003B05DF804EBFFF73FBF5C21054816F005
:10D0700039FB08B15C21DEE70249E0E7841F0020AC
:10D08000801F0020A8380300001001408F380300E3
:10D09000FFF72ABF10B5104CA188208910F002F9C3
:10D0A00020B10E4A4FF4B97114F06BFEA1882089AB
:10D0B00010F06AF920B1094A40F2731114F061FED0
:10D0C00020880EF009F930B1044A4FF4BB71BDE875
:10D0D000104014F056BE10BD44200020A8380300B4
:10D0E00000B5B14CB14A93B004214FF4C04007F0F1
:10D0F000DFF923685E0419D5AD4B1B68032B15DDE2
:10D100002F21AC4816F0EEFA002800F0DD802F2128
:10D11000A84816F0E7FA411CA74BA84AD3F80435F3
:10D12000009204204FF4FF7207F0DEF912F08EFD3A
:10D1300020B1A04A4FF4007114F023FE01F022FF49
:10D140009F4801F04BFF20B19A4A4FF4017114F04F
:10D1500018FE01F0A1FF0021202209A816F0E8F92D
:10D1600001238DF8243007238DF8273006238DF80E
:10D170002C30944B0D930DF10B01934B119309A897
:10D1800000F054F9F8B10B2840F0B08023685D043A
:10D1900019D5874B1B68032B15DD2F21854816F009
:10D1A000A1FA002800F099802F21824816F09AFAFF
:10D1B000411C814B854AD3F80435009204204FF47A
:10D1C000E87207F091F98248824D05F073F9824BBD
:10D1D0002946186809F0EAFA002800F08D8000233B
:10D1E0002B604FF48073EB80FFF77EFE7B4E0FCEFB
:10D1F00003AD0FC596E8030085E8030003A800F01F
:10D20000F1FE9DF80B30002B40F0A68023685904F6
:10D2100019D5674B1B68032B15DD2F21654816F0C8
:10D2200061FA002800F08F802F21624816F05AFA28
:10D23000411C614B6A4AD3F80435009204204FF434
:10D24000F67207F051F900F0F1FEFFF723FFFFF748
:10D250004BFE6449644801F0CBFD6421634801F052
:10D26000E9FD23685B0419D5514B1B68032B15DDC1
:10D270002F21504816F036FA002800F0BF802F21E9
:10D280004C4816F02FFA411C4B4B594AD3F8043541
:10D290000092042040F21B2207F026F905F0B2F8B4
:10D2A00020B1444A40F2212114F06BFD00214FF4DB
:10D2B000F03001F02BFE0222C8214FF4F03001F0D3
:10D2C0002FFEFEF7F7FFFCE75C213A4816F00AFA5A
:10D2D00008B15C211CE737491EE75C21354816F090
:10D2E00001FA08B15C2160E7324962E7314A40F255
:10D2F000D51114F046FD66E7236858047FF576AF34
:10D300002B4B1B68032B7FF771AF2F21294816F099
:10D31000E9F978B12F21274816F0E4F9411C264B92
:10D32000344AD3F80435009204204FF4C37207F056
:10D33000DBF85BE75C211F4816F0D4F908B15C21EB
:10D34000E9E71C49EBE75C211A4816F0CBF908B174
:10D350005C216AE717496CE723685A0417D5144B18
:10D360001B68032B13DD2F21124816F0BBF988B17F
:10D370002F21104816F0B6F9411C0F4B1E4AD3F866
:10D380000435009204204FF4FA7207F0ADF800F073
:10D39000ADFD5EE75C21074816F0A4F908B15C21F9
:10D3A000E7E70449E9E700BF841F00208544020045
:10D3B000801F0020A838030000100140353B030007
:10D3C00045CB010021C9010005C70100693B0300ED
:10D3D000601F00208C2000207C370300643703008E
:10D3E000CB3B03002DC8010011CF0100DDCE0100B1
:10D3F000163C0300B73B0300023C03005C210448D9
:10D4000016F070F908B15C213AE701493CE700BF2A
:10D41000A838030008B505F0F1FB0FF0B1FB11F0DF
:10D42000A7F9BDE8084004F0C7BA000073B50E467E
:10D43000054680B304F082FF044648BB11F024FA8D
:10D440000FF0F4FB28690DF017FF044600BB2B7F9B
:10D450000193AB69009301466B69104859220EF0A5
:10D46000C3F90446A0B92B6A03B1984709F0FAF84A
:10D4700011F030F905460FF0F9F80B2D01D00B280B
:10D4800002D1FFF7C7FF0B2412F0DCF906B13070B0
:10D49000204602B070BD0E24FAE700BFD420002061
:10D4A0002DE9F04F0378C9B004460A2B00F21C8125
:10D4B000DFE813F00B00F1036A011A011A011A01E7
:10D4C0001A01B2031A0107035E029C4F3B78012B3D
:10D4D00040F00A819A4D2B685E0435D5994B1B6844
:10D4E000032B31DD984B0430196807AE002310F888
:10D4F000012B4FEA121C02F00F0211F80CC003F8C6
:10D5000006C011F802C0F2180233202B82F801C0C5
:10D51000EDD100232F218D4886F8203016F0E2F857
:10D52000002800F0E4802F21884816F0DBF8411C29
:10D53000874B884AD3F804350192874A00920296B5
:10D540008A22042006F0D0FFE3691B78FBB92B6820
:10D5500058041CD57B4B1B68032B18DD2F217B48FF
:10D5600016F0C0F8002800F0CB802F21774816F085
:10D57000B9F8411CE269764B92F90D20D3F80435D5
:10D580000192764A009204208E2206F0ADFF637D60
:10D59000002B00F0A9802B68590435D5694B1B6816
:10D5A000032B31DD684B04F11600196807AE002328
:10D5B00010F8012B4FEA121C02F00F0211F80CC0F8
:10D5C00003F806C011F802C0F2180233082B82F8E3
:10D5D00001C0EDD100232F215C48337216F082F890
:10D5E000002800F096802F21584816F07BF8411C47
:10D5F000574B5B4AD3F804350192574A0092029682
:10D600009322042006F070FFDFF874B1DFF8749104
:10D6100000269BF80030B34266D9D9F8003053F8A1
:10D6200026804FEA860AB8F1000F00F08480404659
:10D6300016F050F807AA81B2404606F0A6F8042278
:10D6400007A904F1160015F059FF002873D12B68C3
:10D650005A0417D53B4B1B68032B13DD2F213B4886
:10D6600016F040F800285DD02F21384816F03AF81F
:10D67000411C374B3B4AD3F80435009204209922D1
:10D6800006F032FFD9F80030374D53F80A20374BF7
:10D6900000211A6007A8192215F04AFF2B89ADF85E
:10D6A0002C306968324B0C311B88ADF832301022B7
:10D6B00007A815F032FF2F492F48043412F05EFE00
:10D6C00018B1224A6E2114F05CFB0123AA7A2B4880
:10D6D0000093214607AB12F053FE18B11B4A6F218D
:10D6E00014F04FFB03233B7049B0BDE8F08F5C2181
:10D6F000164815F0F7FF08B15C2115E7134917E745
:10D700005C21124815F0EEFF08B15C212EE70F49AD
:10D7100030E75C210D4815F0E5FF08B15C2163E7B7
:10D720000A4965E75C21094815F0DCFF08B15C2176
:10D730009BE706499DE701366BE700BF4C240020BC
:10D74000841F0020801F0020881F00200A3D030046
:10D7500000100140483D03003C3903004E3D0300EA
:10D76000593D0300633D030050240020B0240020F5
:10D77000AA24002030210020692400201823002042
:10D78000AE240020B42400206B4E6C4D336813F49B
:10D79000804F1CD06A4B1B68032B18DD2F21694872
:10D7A00015F0A0FF002839D02F21664815F09AFF08
:10D7B000411C654A654B1278D3F8043502922A78E9
:10D7C0000192634A00920420A62206F08DFE2B7877
:10D7D000032B61D133685C4E327803F480437AB313
:10D7E000B3B1574B1B68032B12DD2F21554815F0A1
:10D7F00079FFE0B12F21534815F074FF411C534BC2
:10D80000544AD3F8043500920420AB2206F06CFE93
:10D8100001232B703378013B337065E75C21494865
:10D8200015F060FF08B15C21BFE74649C1E75C2104
:10D83000444815F057FF08B15C21DCE74149DEE7B9
:10D84000DBB13F4B1B68002B17DD2F213D4815F046
:10D8500049FFC0B12F213B4815F044FF411C3E4A0F
:10D860003A4B1288D3F804350292227A01923B4A4D
:10D8700000920120B22206F037FE00232B70384BB5
:10D880005B69984730E75C212E4815F02BFF08B103
:10D890005C21E0E72B49E2E7022B7FF425AF304C17
:10D8A0002D4A636810881A882E49988001320F88A3
:10D8B0001A80DA88B0F5807F3A44DA8002BF2A4ABB
:10D8C00012689A60E3680F4698472369984733685F
:10D8D0005B041BD51A4B1B68032B17DD2F2119483E
:10D8E00015F000FFF8B12F21164815F0FBFE411C82
:10D8F000164B3A88D3F804350292626892880192F6
:10D900001A4A00920420C42206F0EEFD6268002448
:10D91000936890880193009423461C32022101F001
:10D920000DF92C70E0E65C21064815F0DBFE08B12D
:10D930005C21D9E70349DBE7841F00204C24002049
:10D94000801F00200A3D0300A92400200010014090
:10D95000873D0300CE3D0300AA240020F03D0300D4
:10D9600050240020AC240020B0240020333E0300CB
:10D97000984F3A68560417D5974B1B68032B13DD55
:10D980002F21964815F0AEFE00287FD02F21934816
:10D9900015F0A8FE411C924B924AD3F80435009230
:10D9A0000420CF2206F0A0FD8F4B02221A703B68A4
:10D9B0005D0417D5884B1B68032B13DD2F21874887
:10D9C00015F090FE00286AD02F21844815F08AFEB9
:10D9D000411C834B854AD3F8043500920420D4229D
:10D9E00006F082FDE3688249D88A10F0A7FF18B1DB
:10D9F0007A4AD62114F0C5F97E4DE06829687E4B3D
:10DA0000A2684988C08A11F0EFFAA84618B1734A93
:10DA1000DA2114F0B6F9784E30880BF0DFF818B13F
:10DA20006E4ADD2114F0ADF9714D308829880BF074
:10DA300093F818B1694ADF2114F0A3F93B68580440
:10DA40007FF552AE644B1B68032B7FF74DAE2F2141
:10DA5000624815F047FE58B32F21604815F042FE8A
:10DA6000411C5F4B3288D3F804350492D8F800206B
:10DA7000528803922A880292E268D28A01925F4A0F
:10DA800000920420E52206F02FFD2DE65C2153488C
:10DA900015F028FE08B15C2179E750497BE75C214D
:10DAA0004E4815F01FFE08B15C218EE74B4990E708
:10DAB0005C214A4815F016FE08B15C21CDE74749C4
:10DAC000CFE74F4B027A1A800121102300224068D1
:10DAD00012F082FC054600283FF406AE3D4C226859
:10DAE000510418D53C4B1B68002B14DD2F213B48FB
:10DAF00015F0F8FD002833D02F21384815F0F2FD3D
:10DB0000411C374B3F4AD3F8043500920195F5226A
:10DB1000012006F0E9FC23683B4C334D217803F4E7
:10DB2000804379B3B3B12C4B1B68032B12DD2F213B
:10DB30002A4815F0D7FDE0B12F21284815F0D2FD75
:10DB4000411C274B314AD3F8043500920420F822B7
:10DB500006F0CAFC01232B702378013B2370C3E538
:10DB60005C211E4815F0BEFD08B15C21C5E71B49CC
:10DB7000C7E75C21194815F0B5FD08B15C21DCE769
:10DB80001649DEE7002B3FF478AE134B1B68032BDE
:10DB90007FF773AE2F21114815F0A4FD88B12F2116
:10DBA0000E4815F09FFD411C194A0D4B1288D3F801
:10DBB00004350192174A00920420FF2206F094FCDB
:10DBC0005BE65C21054815F08DFD08B15C21E7E7B7
:10DBD0000249E9E7841F0020801F00200A3D03005E
:10DBE000001001406A3E03004C2400208B3E0300DD
:10DBF0002C210020502400202E210020B33E0300C1
:10DC0000AC240020F53E0300A9240020253F03009A
:10DC1000AA240020333F0300314B07AD03F1100667
:10DC2000186859682A4603C20833B3421546F7D12B
:10DC3000102207A9606812F0DBFB20B1294A4FF4DB
:10DC4000867114F09EF8284B1B685A047FF54CAD82
:10DC5000264B1B68032B7FF747AD2F21214815F07A
:10DC600041FD78B12F211F4815F03CFD411C204B90
:10DC7000204AD3F80435009240F20D12042006F039
:10DC800033FC31E55C21174815F02CFD08B15C210F
:10DC9000E9E71449EBE7144B1B685B047FF524ADFF
:10DCA000124B1B68032B7FF71FAD2F210D4815F07A
:10DCB00019FD60B12F210B4815F014FD411C0C4BD0
:10DCC0000D4AD3F8043500924FF48972D6E75C21EF
:10DCD000044815F007FD08B15C21ECE70149EEE7C7
:10DCE000EA3C03000A3D0300841F0020801F00203F
:10DCF000001001409A3F0300BF3F030010B586B0FB
:10DD000002B133BB2C4B1B685B0417D52B4B1B6834
:10DD1000002B13DD2F212A4815F0E4FC80B12F21C0
:10DD2000274815F0DFFC411C264B274AD3F8043561
:10DD3000009201204FF4907206F0D6FB06B010BDA1
:10DD40005C211F4815F0CEFC08B15C21E8E71C49B6
:10DD5000EAE71E4C20701E481E4C01801E4901201F
:10DD600008701E490A601E4A137022780ABB1D4AB9
:10DD70001068516803AB03C31189927A19809A70B5
:10DD8000194B0093194A1A491A4803AB12F0C8FA02
:10DD900018B10B4A782113F0F4FF174813F0DEFE98
:10DDA0000146144812F0D6FA18B1054A792113F049
:10DDB000E8FF01232370C1E7841F0020801F00209B
:10DDC0000A3D0300001001401D400300A92400206B
:10DDD000AA240020682400204C240020B424002021
:10DDE000AE240020FA3C0300A1D401003021002021
:10DDF00069240020182300205021002007B51A4B69
:10DE00001B685B0417D5194B1B68032B13DD2F21EF
:10DE1000174815F067FCD0B12F21154815F062FCAA
:10DE2000411C144B144AD3F804350092042040F2EC
:10DE30002F1206F059FB114812F054FB80B10C4A26
:10DE40004FF4987103B05DF804EB13F09ABF5C21B6
:10DE5000074815F047FC08B15C21DEE70449E0E71C
:10DE600003B05DF804FB00BF841F0020801F00206A
:10DE70000A3D0300001001406F400300A1D40100DF
:10DE800007B5154B1B685B0417D5144B1B68032B98
:10DE900013DD2F21124815F025FC98B12F211048D1
:10DEA00015F020FC411C0F4B0F4AD3F804350092AB
:10DEB000042040F2351206F017FB03B05DF804EBC6
:10DEC00012F018BB5C21064815F00CFC08B15C216F
:10DED000E5E70349E7E700BF841F0020801F00201B
:10DEE0000A3D0300001001406A40030070B588B08D
:10DEF00008AD012345F8043D0DF11600294611F047
:10DF000055F820B1314A40F2411113F03AFF079B16
:10DF1000012B02D0784601F061FB2D4CBDF81600B4
:10DF2000266810F01DFE236870805A884FF6FF7334
:10DF30009A4202D1784601F051FB23682A46191D06
:10DF4000588811F035FA20B1204A40F2451113F0FB
:10DF500018FF06A810F0E2FC2168BDF8180011F0C7
:10DF6000EFF820B1194A40F2491113F00AFF194B9A
:10DF70001B685B041ED5184B1B68032B1ADD2F2171
:10DF8000124815F0AFFBB8B12F21104815F0AAFBCD
:10DF9000411C2268114B1088D3F8043503909088F7
:10DFA0000290528801920E4A009204204FF4A67209
:10DFB00006F09AFA08B070BD5C21044815F092FB97
:10DFC00008B15C21E1E70149E3E700BF0A3D030036
:10DFD00050240020841F0020801F002000100140DA
:10DFE000DE3F030038B5C368044613B9784601F034
:10DFF000F5FA636913B9784601F0F0FA236913B9A9
:10E00000784601F0EBFA0FCC054D0FC5054A002309
:10E01000137094E80300044A137085E8030038BDC8
:10E0200050240020682400204C2400201FB5374BCA
:10E030001868039003A810F03BFC20B1344A40F26A
:10E040005F1113F09EFE334C606810210C3004F019
:10E0500097FD606810211C3004F092FD606810216B
:10E060002C3004F08DFDD4E90021002002320C3167
:10E0700010F0FAFD20B1264A40F2671113F081FE3C
:10E08000254B1B685B041AD5244B1B68032B16DD3C
:10E090002F211F4815F026FB70B32F211C4815F0C7
:10E0A00021FB411C22681E4B5288D3F80435019293
:10E0B0001C4A009204204FF4B47206F015FAD4E919
:10E0C000001200200B1D1C32498811F053F820B1BA
:10E0D0000F4A40F2691113F054FED4E900320120D6
:10E0E0002C32598810F080FF20B1094A4FF4B671E4
:10E0F00013F047FE04B010BD5C21054815F0F2FA9C
:10E1000008B15C21CAE70249CCE700BF063D030025
:10E110000A3D030050240020841F0020801F00209F
:10E12000001001405740030030B50446018085B01F
:10E130001046154604F07CF81F4B20711B88A38104
:10E140000023A3731E222374A3741C4BE2730122C9
:10E1500062741A88E580A4F813205B88A4F815304F
:10E16000174B1B685B041BD5164B1B68032B17DD75
:10E170002F21154815F0B6FAA0B12F21124815F03D
:10E18000B1FA411C114BE288D3F80435029222887F
:10E1900001920F4A009204204FF4947206F0A4F901
:10E1A00005B030BD5C21084815F09CFA08B15C212F
:10E1B000E4E70549E6E700BFB8240020BA240020C0
:10E1C000841F0020801F00209D400300001001409C
:10E1D000D340030010B5054804F084FB044B054A06
:10E1E0001A60054BBDE810401B681847DC2400206E
:10E1F000781F002044420300CC24002030B59B4B04
:10E200001B681B78013B8DB00A2B00F20D83DFE801
:10E2100013F00B004D007E00B300E8005901AE0181
:10E220000902D702F1026402914B1B685D0417D505
:10E23000904B1B68032B13DD2F218F4815F052FAEA
:10E2400058B32F218C4815F04DFA411C8B4B8C4A4A
:10E25000D3F80435009204204FF4B07206F044F96C
:10E2600000200AF0CFFC874B02225A8000221A704D
:10E270005A60002800F07081834C0AF01FFE23785A
:10E28000002B00F0D882013B237004F06BFB7F4928
:10E290000144201D04F03DFB5EE15C21764815F051
:10E2A00021FA08B15C21CDE77349CFE7704B1B68B9
:10E2B0005C041BD56F4B1B68032B17DD2F216E48A9
:10E2C00015F010FAD0B12F216B4815F00BFA411C54
:10E2D0006A4B02220120D3F80435CDE901206C4AB3
:10E2E000009204204FF4B57206F0FEF801210220DE
:10E2F0000AF0ACFD634B48F22502B6E75C215E48AC
:10E3000015F0F0F908B15C21DEE75B49E0E7584B16
:10E310001B685B0417D5574B1B68032B13DD2F219C
:10E32000554815F0DFF9F0B12F21534815F0DAF90F
:10E33000411C524B574AD3F80435009204204FF445
:10E34000BA7206F0D1F8544B1A68544B1988544BE2
:10E3500018880AF07BFC4B4B48F203025A800222D9
:10E360001A70504A84E75C21434815F0BBF908B1A4
:10E370005C21DAE74049DCE73D4B1B685D0417D5BB
:10E380003C4B1B68032B13DD2F213B4815F0AAF9EA
:10E39000F0B12F21384815F0A5F9411C374B424AFE
:10E3A000D3F804350092042040F27F1206F09CF866
:10E3B0003A4B3E4A19883E4B069218880AF076FD81
:10E3C000304B48F23E025A8001221A70394A4FE718
:10E3D0005C21294815F086F908B15C21DAE7264965
:10E3E000DCE7234B344C1B6813F4804F19D0214BCE
:10E3F0001B68032B15DD2F211F4815F073F958B347
:10E400002F211D4815F06EF9411C1C4B6288D3F872
:10E4100004350192294A009204204FF4C77206F095
:10E4200063F86278237843EA0223ADF81830E27883
:10E43000A37843EA0223ADF81A30184B069A1988DC
:10E440001B4B18880AF032FD0E4B48F23E025A80F0
:10E4500001221A701A4A0BE75C21074815F042F9AD
:10E4600008B15C21CDE70449CFE700BF781F002049
:10E47000841F0020801F00209D40030000100140E9
:10E4800001410300C0240020D8240020404B4C0050
:10E490001B4103004B410300FC240020B824002052
:10E4A000C82400203A4203005A410300FFFF020043
:10E4B000BE2400203C420300F424002077410300E6
:10E4C0003D420300AC4C23881BB9AC4B1B88013385
:10E4D0002380AB4BAB4D1B6813F4804F1CD0AA4B71
:10E4E0001B68032B18DD2F21A84815F0FBF8002826
:10E4F00034D02F21A54815F0F5F8411CA44B2288F3
:10E50000D3F8043502926A880192A24A009204204C
:10E5100040F2A11205F0E8FF6A782B78208843EAE0
:10E520000223ADF81830EA78AB7843EA0223ADF85D
:10E530001A30994B069A19880AF0B8FC974B48F2A2
:10E540003E025A8001221A70954A5A6000287FF4D0
:10E5500093AE2388013323800DB030BD5C218B48FE
:10E5600015F0C0F808B15C21C4E78849C6E7162257
:10E5700000210DF11A0014F0DBFF804B864A1B8846
:10E58000ADF8183001238DF81C30ADF81E308DF831
:10E5900029304FF0FF338DF82B308DF82C300223CB
:10E5A0008DF82D3000238DF82E30754B12881B68A6
:10E5B000ADF824201E228DF827205C044FF00602BF
:10E5C0008DF828201AD5704B1B68032B16DD2F21E0
:10E5D0006E4815F087F8E0B12F216C4815F082F8ED
:10E5E000411C6B4BBDF81E20D3F8043501926D4AD7
:10E5F000009204204FF4E17205F076FF06A80AF0BD
:10E600005DFB664B48F219025A8001221A70664A75
:10E610002EE65C215D4815F065F808B15C21DCE769
:10E620005A49DEE7162200210DF11A0014F080FF8E
:10E63000524B5E4C1B88ADF81830D80754BF4FF4CE
:10E64000817340F20113ADF81E30534B1B88ADF8B7
:10E65000243001221E238DF81C208DF827302288BB
:10E66000ADF82B2001238DF829306288ADF82D20DC
:10E67000434A126851041CD5434B1B68032B18DD19
:10E680002F21424815F02EF8F0B12F213F4815F008
:10E6900029F8411C3E4BBDF81E20D3F804350292E8
:10E6A00062880192424A009204204FF4F27205F00F
:10E6B0001BFF06A80AF002FB384B48F219025A80E9
:10E6C00001221A703B4AD3E55C21304815F00AF864
:10E6D00008B15C21DAE72D49DCE7294B1B685A04B5
:10E6E00018D5294B1B68032B14DD2F21274814F064
:10E6F000F9FF002837D02F21244814F0F3FF411CE4
:10E70000234B2D4AD3F804350092042040F2EF1237
:10E7100005F0EAFE194B18880023079303238DF8B0
:10E720001830C3074CBF4CF203034CF20203ADF8A0
:10E730001A301E4B59781A7842EA0122ADF814209B
:10E740009A78DB7842EA0323ADF8163006AA059BD7
:10E7500006CA0AF055FB114B48F21F025A800122EB
:10E760001A70164A84E55C21084814F0BBFF08B112
:10E770005C21C1E70549C3E7F8240020BE2400203E
:10E78000841F0020BA240020801F00209D40030029
:10E790000010014094410300B8240020C024002050
:10E7A0003E420300C34103003F420300F424002023
:10E7B000004203004042030025420300414203009F
:10E7C000182200210DEB020014F0B2FE1B4B198839
:10E7D00001314CF2030289B206A8FFF7A5FC06A896
:10E7E0000AF06CFA164B48F219025A8001221A708C
:10E7F000144A3DE5182200210DEB020014F098FEAA
:10E800000E4B198802314CF2020289B206A8FFF7BA
:10E810008BFC06A80AF052FA094B48F219025A80FA
:10E8200001221A70084A23E5084A4FF408710520AE
:10E8300013F0A7FA20E5FFF7CDFC8DE6BE240020FB
:10E84000C024002042420300434203009D400300D5
:10E85000FFF7D4BCF0B50D4685B0002856D19A4DCF
:10E860002A68560418D5994B1B68032B14DD2F21F9
:10E87000974814F037FF002836D02F21944814F021
:10E8800031FF411C934B944AD3F804350092042085
:10E8900040F2762205F028FE904C2388002B00F0F1
:10E8A000CD802B685D0417D5884B1B68032B13DDC7
:10E8B0002F21874814F016FFF8B12F21844814F057
:10E8C00011FF411C834B864AD3F804350092042083
:10E8D00040F27A2205F008FE2388013B238005B030
:10E8E000BDE8F040FFF78ABC5C21794814F0FAFEDD
:10E8F00008B15C21C2E77649C4E75C21744814F092
:10E90000F1FE08B15C21D9E77149DBE7022828D183
:10E9100011B9784600F062FE724C23681B780BB187
:10E920000C2B29D1684B1B6858041AD5674B1B6800
:10E93000012B16DD2F21664814F0D4FE98B12F214B
:10E94000634814F0CFFE411C2268624B1278D3F862
:10E9500004350192644A0092022040F24E2205F0F2
:10E96000C3FD05B0F0BD5C21594814F0BBFE08B1F1
:10E970005C21E5E75649E7E75C4E2F887388BB4288
:10E9800027D0514B1B685904EBD5504B1B68002B0B
:10E99000E7DD2F214E4814F0A5FE88B12F214C4809
:10E9A00014F0A0FE411C4B4BD3F80435029772883B
:10E9B00001924F4A00920120E52205F095FDD0E733
:10E9C0005C21434814F08EFE08B15C21E7E7404922
:10E9D000E9E748F219018B426A6806D033D8022B66
:10E9E0005ED048F203018B4238D115783378002B82
:10E9F00000F08880344B1B685B0419D5334B1B68CF
:10EA0000032B15DD2F21324814F06CFE002852D064
:10EA10002F212F4814F066FE411C2E4B354AD3F8A7
:10EA200004350092019540F20B12042005F05CFDC4
:10EA3000726830781346991A88425FD805B0BDE8ED
:10EA4000F040FFF7C7BB48F225018B4228D048F2BF
:10EA50003E018B42C9D048F21F01C4E71A4B1B6824
:10EA60005A0417D5194B1B68002B13DD2F211848AA
:10EA700014F038FEB0B12F21154814F033FE411CBC
:10EA8000144B1D4AD3F80435009201204FF48172D3
:10EA900005F02AFD0E4A40F20311052013F071F92A
:10EAA000FF25A3E75C210A4814F01CFE08B15C2195
:10EAB000E2E70749E4E75C21054814F013FE08B1DA
:10EAC0005C21A6E70249A8E7841F0020801F0020E0
:10EAD0009D4003000010014045420300D424002063
:10EAE00070420300781F00207B420300C0240020F6
:10EAF000AD420300F7420300D742030013F8011BA5
:10EB00008D4298D123680A485A1C5B7822600C2BEE
:10EB10004FF0030202707FF4E2AE043003F0E2FE35
:10EB2000044B2360044B1B6805B0BDE8F040184758
:10EB3000D824002044420300D02400202DE9F043D3
:10EB4000944FDFF8A8823C68247889B03CB3D8F8A9
:10EB50000030580417D5904B1B68002B13DD2F2174
:10EB60008E4814F0BFFD88B12F218C4814F0BAFDF7
:10EB7000411C8B4B8B4AD3F804350092012040F2A4
:10EB8000922205F0B1FC09B0BDE8F0835C21834816
:10EB900014F0A8FD08B15C21E7E78049E9E7824C61
:10EBA000824E20808248834D018083498348C8601B
:10EBB0004FF0030981F80090814911980A60814A59
:10EBC00081491380814BBDF840201A8014F070FDFC
:10EBD000002840F092800123B3701023F3700022CC
:10EBE000AA70EB704FF0FF33337073702B706B7043
:10EBF000D8F800305A041BD5674B1B68032B17DD70
:10EC00002F21664814F06EFD002800F0B1802F21FE
:10EC1000624814F067FD411C614B2288D3F804352B
:10EC200001926B4A0092042040F2B12205F05CFC94
:10EC30004FF6FF732288ADF81430ADF8163005A9F1
:10EC4000012306A88DF81830ADF81A200FF03CFF0C
:10EC500020B1524A4FF4107113F093F80DF11601E0
:10EC6000BDF81A0010F06CFA20B14C4A40F2412174
:10EC700013F087F8BDF8160009F0B0FF20B1474A3D
:10EC80004FF4117113F07DF8BDF81410BDF81600A3
:10EC900009F062FF20B1414A40F2452113F071F8BA
:10ECA000D8F800305B041ED53B4B1B68032B1ADDE4
:10ECB0002F213A4814F016FD002862D02F21374842
:10ECC00014F010FD411C364BBDF81420D3F8043568
:10ECD0000292BDF8162001923E4A0092042040F2B2
:10ECE000462205F001FC2388B3F5807F0CBF3A4B28
:10ECF0003A4B3B60FFF782FA45E73949119814F027
:10ED0000D7FC00283FF467AF3649119814F0D0FCC7
:10ED100028B9102386F80290F370022260E7D8F831
:10ED20000030590417D51C4B1B68002B13DD2F2115
:10ED30001A4814F0D7FC90B12F21184814F0D2FCD7
:10ED4000411C174B284AD3F804350092012040F2A9
:10ED5000AA2205F0C9FB784600F040FC42E75C219E
:10ED60000E4814F0BFFC08B15C21E6E70B49E8E768
:10ED70005C210A4814F0B6FC08B15C2148E7074959
:10ED80004AE75C21054814F0ADFC08B15C2196E728
:10ED9000024998E7781F0020801F00209D40030053
:10EDA0000010014011430300BE240020BA240020BB
:10EDB000D4240020F4240020D824002051E80100AD
:10EDC000FC240020B82400207B3C0300C824002041
:10EDD000654303007F43030093400300B5430300F2
:10EDE000963C0300AF3C030045430300841F002012
:10EDF00038B50C46054610B9784600F0EFFB14B95B
:10EE0000784600F0EBFB024B1D60024B1C6038BDE6
:10EE1000D0240020CC24002010B5054C226832B14B
:10EE200013F0E0F8002802DB23689847F8E710BDEC
:10EE300000250020154B164A10B50C46186001211C
:10EE4000144810F05DFF18B1134A4A2112F099FFDF
:10EE5000610C0023E00341F26F728B4208BF8242D3
:10EE600010D24FF47A72002314F080F90146002288
:10EE70000A4810F057FF38B1074A4B21BDE810404F
:10EE800012F07FBF0521F2E710BD00BF0025002072
:10EE900019EE0100C0430300C44303000425002011
:10EEA00070B5104C206808B912F05EFF4FF0A04515
:10EEB0000D4ED5F8043532685340C5F80435236843
:10EEC000013B236063B9094810F074FF3268D5F83C
:10EED000043523EA0203064A12681343C5F80435D1
:10EEE00070BD00BF24250020282500202C250020EF
:10EEF00054250020012303FA00F04FF0A04311B184
:10EF0000C3F80C057047C3F8080570474FF0A043DD
:10EF100011B1C3F80C057047C3F80805704700002D
:10EF2000F8B52AB3132923D9124B134D5200013AD5
:10EF30004FF0A0441A602860D4F8043518400F4BF5
:10EF40004FF4FA76186000274FF40040E0FB0167A9
:10EF50004FF47A7200233046394614F007F9002244
:10EF60000146074810F0DEFE10B92B68C4F80C35D6
:10EF7000F8BD00BF242500202825002054250020AE
:10EF80002C25002008B54FF0A04303224FF4005178
:10EF9000C3F83427C3F808154FF48041C3F8382765
:10EFA000C3F808154FF40041C3F83C27C3F808150F
:10EFB000C3F840274FF48032C3F808250121054AE1
:10EFC000054810F09DFE18B1BDE8084012F0CCBE17
:10EFD00008BD00BFA1EE0100E8430300D8B10F4B0C
:10EFE0000F4A18604FF0A0430020C3F82C27C3F845
:10EFF0003027C3F86027C3F864270A4B4FF000425C
:10F00000C3F80423C3F87C01074BC02283F806230E
:10F0100040221A6070470E20704700BF4C25002028
:10F020000C0003000060004000E100E0124B70B5EE
:10F030000024124E124DC3F87C414FF0A043A15D55
:10F04000D3F8102501238B40934311D00D49D5F8F7
:10F0500004250B68981A48BFD01A43F233339842FC
:10F0600006D9D5F804350B60074B20461B68984736
:10F070000134042CE1D170BD00600040EC4303007A
:10F0800000100140502500204C25002060DF704713
:10F0900069DF704703F010BA10B588B000F04AF984
:10F0A00008B112F061FE2B4B0393039B04930C22D7
:10F0B000002105A814F03CFA0023049A8DF81430BE
:10F0C00005A90120FFF7E4FF08B112F04DFE0C2264
:10F0D000002105A814F02CFAF823049A059305A939
:10F0E000A120FFF7D5FF08B112F03EFE04A8FFF7FC
:10F0F000CDFF039B049A9A4204461CD0164B1B6812
:10F100005B0418D5154B1B68012B14DD2F21144807
:10F1100014F0E8FAA8B12F21114814F0E3FA411CC9
:10F12000104B049AD3F8043501920F4A0092022042
:10F13000A22205F0D9F914B1204612F015FE08B04C
:10F1400010BD5C21064814F0CDFA08B15C21E3E75C
:10F150000349E5E7601F0020841F0020801F002076
:10F16000F0430300001001402044030070B5EFF3AA
:10F17000108672B60C4A946801239CB993600B4BBD
:10F180000B4DD3F8801029401160C3F88050D3F89C
:10F19000841051604FF0FF32C3F88420047006B928
:10F1A00062B670BD0370FAE74846002000E100E057
:10F1B000FC06FFBD10B5084B9A685AB150B9EFF381
:10F1C000108172B6054A1C6814605C6854609860CF
:10F1D00001B962B610BD00BF4846002000E100E062
:10F1E00001600B6843604A68934204BF0023436098
:10F1F0007047436843B1026891680B4443605268AA
:10F20000934204BF0023436070474BDF7047000008
:10F210001FB50D4C01A8FFF7F8FF70B9214602A8F1
:10F22000FFF7DEFF039B002BF4D00198D3E9002108
:10F23000904702A8FFF7DDFFF4E7052801D012F0A0
:10F2400093FD04B010BD00BF5C44030061DF704754
:10F2500030B5114B1B7891B0E3B1104D34240DF152
:10F26000020103A8ADF80240FFF7F0FF70B929468C
:10F2700001A8FFF7B5FF029B002BF0D003A8D3E94C
:10F280000021904701A8FFF7B4FFF4E7052801D05B
:10F2900012F06AFD11B030BD58250020684403000B
:10F2A00010DF704713B5044609496846FFF798FF19
:10F2B000019808B902B010BDD0E900312046984746
:10F2C00018B16846FFF795FFF2E71120F2E700BF9B
:10F2D0007844030013B5044607496846FFF780FFEA
:10F2E000019B0BB902B010BD2046D3E90021904725
:10F2F0006846FFF77EFFF3E7904403000B4991F85F
:10F3000016335A09EC231341DB0706D5084B9A68DC
:10F310003AB94FF480030B60704742F2020012F0DA
:10F3200023BD1A6842F480021A60704700E100E0D1
:10F3300048460020F7B5184F3C785CBB174E0125B6
:10F3400020463570FFF7AEFF112820D02046FFF78A
:10F35000C1FF134B1868019002A800F8054DFFF794
:10F3600005FF104901A8FFF79BFF0446B0FA80F0A3
:10F37000400938709DF80300FFF71CFF3CB90A4BA9
:10F3800034701C70FFF7BAFF2846FFF7A3FF204632
:10F3900003B0F0BD0824FAE75A25002059250020C3
:10F3A00074440300DDF301005B25002007B5084924
:10F3B0006846FFF715FF019B13B903B05DF804FB26
:10F3C000D3E9002090476846FFF713FFF3E700BF3B
:10F3D00084440300FFF7EABF0620704730B5754B41
:10F3E00014461B6841F20102904287B00D4603F4B7
:10F3F00080437ED01ED8012845D0002B5DD06E4BB7
:10F400001B68002B59DD2F216C4814F06BF9002884
:10F4100000F0C4802F21694814F064F9411C684B46
:10F42000684AD3F80435009201957B22012005F04B
:10F430005BF842E044F20102904200F0858044F221
:10F4400002029042D9D1002B37D05B4B1B68002BB6
:10F4500033DD2F21594814F045F900286BD02F21B6
:10F46000564814F03FF9411C554B2288D3F8043517
:10F4700003926268CDE90152534A009201206C2246
:10F4800005F032F819E0C3B14B4B1B68002B14DDBB
:10F490002F214A4814F026F910B32F21474814F0C1
:10F4A00021F9411C464B494AD3F804350092CDE975
:10F4B00001546022012005F017F84FF0A0434FF4EB
:10F4C000F032C3F81825C3F80C25EFF3108372B699
:10F4D0004DF6AD6C3E4A1378002B68D107B030BDB5
:10F4E0005C21364814F0FEF808B15C21D6E73349B8
:10F4F000D8E7002BE1D0304B1B68002BDDDD2F213E
:10F500002E4814F0EFF868B12F212C4814F0EAF8D7
:10F51000411C2B4B2F4AD3F804350092CDE90154FE
:10F520006322C7E75C21254814F0DCF808B15C21B0
:10F53000EBE72249EDE75C21204814F0D3F808B14D
:10F540005C218DE71D498FE7002BB6D01A4B1B6855
:10F55000002BB2DD2F21194814F0C4F8A8B12F21D7
:10F56000164814F0BFF8411C154B2268D3F8043537
:10F5700004926268CDE90252A2680192164A009292
:10F580000120772204F0B0FF97E75C210B4814F0CC
:10F59000A9F808B15C21E3E70849E5E75C210748E1
:10F5A00014F0A0F808B15C2135E7044937E730BF13
:10F5B00091E700BF841F0020801F00209C440300AF
:10F5C000001001404045030000450300C44403000F
:10F5D0007C1F0020DE4403001F45030007B5002305
:10F5E000ADF800300146054B01936A4644F2020033
:10F5F000FFF7F4FE03B05DF804FB00BF973903008A
:10F6000001461022014813F088BF00BF5C2500208E
:10F6100010B50B4C0B490822204613F07EFF082240
:10F62000A018094913F079FFE379042262F3071364
:10F63000E371237A022262F38713237210BD00BFA5
:10F640005C25002060000010A400001000487047F6
:10F650005C250020064B002203F580715A805A6019
:10F6600003F8082B8B42F9D1024B1A60704700BF98
:10F670006C2500206C260020F0B50C4B0C4C1B6850
:10F68000064620227BB1013B14F8330050B104EB55
:10F69000C3056F88B74202D16D688D4202D0013A2E
:10F6A000F0D11046F0BD1F23EEE700BF6C2600200E
:10F6B0006C25002030B5084A084C136804EBC305DC
:10F6C0006960012104F833100B44202B08BF00238C
:10F6D0006880136030BD00BF6C2600206C250020C0
:10F6E000C0F30C038B42084438BFA0F50050C01A89
:10F6F00070470000F0B50D4B0D4A1E6800218E4288
:10F7000012D0156800230AE052F8044C04EBC3073A
:10F7100014F83340844201D17868F0BD01339D4232
:10F72000F2D101310832EAE70020F6E7F4260020A2
:10F73000FC26002000B58DB048B9991C07D00121E6
:10F7400001A88DF80410CDE9023201F03BFA034B19
:10F75000186803F089FE0DB05DF804FB0027002057
:10F7600010B50378044613B97846FFF737FF607A7F
:10F77000431C01209840013810BD2DE9F0410E4690
:10F780008EB015461C46074610B97846FFF726FF8F
:10F7900016B97846FFF722FF636AA2780233059311
:10F7A000E378A2F10800002B14BF012102210DF122
:10F7B000040842424241434604F10C0003F087FF33
:10F7C000A3788DF83430237BADF82050022B16FA45
:10F7D00085F5CDE906870B960C950FD1236913B9F2
:10F7E0007846FFF7FBFE23690993102305A8ADF8BF
:10F7F000283003F068FF0EB0BDE8F0810023F5E784
:10F80000B2F5C07F2DE9F04781468846174602D9F8
:10F810007846FFF7E3FE244B002570229A4602FB50
:10F82000053494F8486046B9384607F0F0FCE066C5
:10F8300038B900242046BDE8F0870135042DEED10B
:10F84000F7E730224946204613F067FEB8F1010F72
:10F85000E664A4F84A701DD1144B84F852601B7DF5
:10F8600084F8513084F8536084F85060D9F8283017
:10F8700063656FF00103A3620D4BA4F85860A363A6
:10F880002464012002F04CFA702303FB05A585F8DF
:10F890004880CFE76FF00103A362064BA36584F8AD
:10F8A00068602466044BEAE71C2700200427002038
:10F8B000B1FD010001060200A9FD010010B50446DA
:10F8C000C06E07F0A6FC04F1300003F00BF894F8CA
:10F8D0004830022B03D104F1500003F003F8204616
:10F8E0007022002113F024FE002084F84800BDE8B7
:10F8F000104002F015BA10B590F84830012B8CB0CA
:10F90000044602D07846FFF769FE01238DF80430E3
:10F9100001A8636D029301F055F92046FFF7CEFF71
:10F920000CB010BD037BD3B190F91620002A18DB70
:10F93000C27D5AB1022B12D090F90330002B10DB9C
:10F940008378002B0CBF002007207047C2780AB9CB
:10F95000012B06D1037833B98378042BF2E710200A
:10F960007047072070470020704700001FB5002235
:10F970000B468DF80F2028B30230086018460DF1B1
:10F980000F0103F0A2FE9DF80F30DBB1144B1B6892
:10F990005B0717D5134B1B68032B13DD2F21124870
:10F9A00013F0A0FE98B12F210F4813F09BFE411CCD
:10F9B0000E4B0F4AD3F804350092042040F2064261
:10F9C00004F092FD9DF80F0005B05DF804FB5C218A
:10F9D000054813F087FE08B15C21E5E70249E7E737
:10F9E000841F0020801F0020AD450300001001404F
:10F9F000CA45030070B504468CB02378808AD4E9E8
:10FA00000612E3B1E38805F00DFD0546A0B12C22F6
:10FA1000002101A8A68AE46913F08AFD0F238DF85E
:10FA200004304FF0000364F3000301A8ADF8086050
:10FA30008DF80A3001F0C6F828460CB070BD05F00C
:10FA4000EDFCE2E72DE9F04F99461378D2F81880E3
:10FA5000F3B007468A46144623B1D1884046FFF7E3
:10FA60003FFE9061E378A278002BA2F1080003AD7D
:10FA700014BF0121022104F10C0642422B464241EF
:10FA8000304603F024FEA278C4F81880CDE9085768
:10FA90001FFA8AF5AB1A9BB21F44ADF82830E37801
:10FAA0000E974FF0000812AF0D978DF83C20ADF87F
:10FAB0003080002B65D04FF0100B04F1240A237B1B
:10FAC000C4F82480022B02BF2369ADF830B00B9339
:10FAD000206A217952460FF04BFD606A30BB237BD0
:10FAE000022B05D13146E0890FF0E2FD0028E6D176
:10FAF000374B1B685B0741D5364B1B68052B3DDD3B
:10FB00002F21354813F0EEFD002858D02F21324820
:10FB100013F0E8FD411C314B314AD3F80435009213
:10FB2000062040F2F26204F0DFFC27E007A9FFF7AD
:10FB30001DFF0028CCD02046FFF75CFFF0B9A2786B
:10FB40000B908DF81C0096E80300A38AADF82A30CC
:10FB5000AD1A0CAB01228DF8282083E80300A37DA9
:10FB60008DF84030236A0E9307A8636A0897ADF8B2
:10FB700024500F93CDF8449001F024F873B0BDE801
:10FB8000F08F227B012AB3D1A046E089B4F814A0FB
:10FB900048F8243F41460FF01FFD07A9606AFFF7B0
:10FBA000E5FE0028C7D16062414650460FF014FDC3
:10FBB00007A9606AFFF7DAFE002899D0BBE75C214D
:10FBC000054813F08FFD08B15C21A0E70249A2E7C8
:10FBD000841F0020801F0020AD450300001001405D
:10FBE0009B460300C37D0A7830B5002B3DD0C37817
:10FBF00022F07F0203F07F031A430A700B78027829
:10FC000003F07F0343EAC2130B70037863B3837876
:10FC1000083B5A425A414B7803F07F0343EAC21330
:10FC20004B708A78C58802F00302C5F3861442EA55
:10FC3000850223F07F032343D2B28A704B70CB78C6
:10FC4000057A03F01F03C5F3C10422F0030243EA5F
:10FC500045132243DBB2CB708A70427A23F01F0334
:10FC600002F01F021343CB7030BDC47822F0400372
:10FC700043EA8413DBB20B70027923F03F0302F0F6
:10FC80003F0213430B70B9E738B590F84830012BA9
:10FC9000044602D07846FFF7A1FC02F063FE237B06
:10FCA000074A012B05BFD2E90315A37DD16805FBE7
:10FCB0000311014404F13000BDE8384002F029BED0
:10FCC00004270020F0B50D4691B0044610B97846DF
:10FCD000FFF784FC94F84830022B19D1E188A06921
:10FCE000FFF7FEFCE1690A061618284A4FEA1123BD
:10FCF00043F10007136830465E1C166003F00703EB
:10FD0000234A1B013946D618A78AD752C6E90201F1
:10FD10002C22002105A8666D13F00AFC102305A80B
:10FD20008DF8143006968DF81C5000F04BFF2046DD
:10FD3000FFF7C4FD174B1B685B071BD5164B1B68F1
:10FD4000032B17DD2F21154813F0CCFCA0B12F2178
:10FD5000124813F0C7FC411C114BD3F8043502952F
:10FD600094F8482001920F4A009204204FF4FA724E
:10FD700004F0BAFB11B0F0BD5C21084813F0B2FCEE
:10FD800008B15C21E4E70549E6E700BFF026002062
:10FD900070260020841F0020801F0020AD45030036
:10FDA000001001407C45030008460021FFF78ABF90
:10FDB00010B591F84830012B0C4602D07846FFF779
:10FDC0000DFC94F851305BB1013B84F851300023B5
:10FDD00084F85030084BBDE81040186803F044BB6D
:10FDE000217B0129204603D1BDE81040FFF76ABFFF
:10FDF000BDE81040FFF77FBD002700202DE9F04F40
:10FE0000044689B00F4609B100230B6004F10C03CE
:10FE100094F8505001934FF001084FF0000B627AB4
:10FE2000AA4203D2002009B0BDE8F08FE16C08FAC5
:10FE300005F30B4259D1E37D2572002B0CBF0C2634
:10FE40000826954206FB05FA237808BFB4F84A60F5
:10FE50008DF818B008BFA6EB0A06002B14BF4FF0B0
:10FE600004094FF0010906EB09030493019B029377
:10FE7000A36A039302A8E36A059303F0C2FD002876
:10FE8000D1D1079B994445B994F853302BB9A36954
:10FE900084F85380C3F30C03E380E37D8BB994F8BB
:10FEA000523073B915B17846FFF798FBB4F84A1091
:10FEB000A2788A1AE16E23460846FFF75EFC84F8B2
:10FEC000528007992046FFF78DFEE16E324651447D
:10FED000484613F022FB02A803F0B4FD17B13B68BB
:10FEE00001333B606B1C84F850300135EDB296E76E
:10FEF0002DE9F04307468FB01046884615469946CF
:10FF0000FFF778FD0446002860D1EE78002E40F01F
:10FF1000AE80B8F1060F59D138787A78DFF8A8C1E9
:10FF2000830103F4FE5343EA9203D7F802204FF013
:10FF3000700812BA674608FB04C696F848100129F3
:10FF400025D1B6F814E0E9898E4520D1F18899428F
:10FF50001DD1B6F858E0A98ABEF1000F01D08E4538
:10FF600015D110F0800F4FF070033BD003FB0473EA
:10FF7000A3F85810702303FB0474E56C1543E56483
:10FF8000002A61D103213046FFF79CFE1EE00134B8
:10FF9000042CD0D1464B1B685B0717D5454B1B681B
:10FFA000012B13DD2F21444813F09CFB88B12F2136
:10FFB000414813F097FB411C404B414AD3F80435AC
:10FFC000009202204FF4CD6204F08EFA0FB0BDE82B
:10FFD000F0835C21384813F085FB08B15C21E7E72A
:10FFE0003549E9E703FB0473DB898B42C2D0304B10
:10FFF0001B685A07EAD52F4B1B68012BE6DD2F2122
:020000022000DC
:100000002D4813F06FFBB0B12F212B4813F06AFB82
:10001000411C2A4BAA8AD3F804350292702202FBB3
:1000200004740220E2890192264A00924FF4CE62C3
:1000300004F05AFACAE75C211F4813F053FB08B1D9
:100040005C21E2E71C49E4E73046FFF789FB854283
:1000500003D13046FFF74FFCB8E7002184F8501079
:100060003046FFF7CBFE3046FFF70EFEAEE73046D8
:10007000FFF740FB03460028A8D005F10C012A6ACF
:100080000B9203C9AA8AADF8222009AA82E80300CC
:10009000AA7D8DF830202A788DF82020EA6A8DF824
:1000A0001460CDE906780D92494605A898478DE77A
:1000B000841F0020801F0020AD4503000010014078
:1000C000DD4503000B4603001C270020F0B5C37D6F
:1000D00015468278002B2A4414BF4FF480734FF4E6
:1000E000C0739342C7B00E4679D3404C0023E11849
:1000F00091F84870012F08D1B1F814C0878ABC4527
:1001000003D1CF89C1898F426BD07033B3F5E07FC3
:10011000EDD10121FFF774FB0446002863D02A4685
:100120003146C06E13F0F9F9002304A92046049368
:10013000FFF764FE30F0040506464BD1049B13B173
:100140002046FFF7A1FD2A4B1B685B0728D5294BEA
:100150001B68032B24DDB4F84A10274B802918684C
:1001600028BF8021002305AE8B421CD100222F2105
:10017000224806F8132013F0B5FA10B32F211F48B8
:1001800013F0B0FA411C1E4B1E4AD3F804350192FD
:100190001D4A0092029640F25552042004F0A4F940
:1001A000284647B0F0BDE26ED25C170902F00F029C
:1001B000C75D06F81370875C06EB43020133577086
:1001C000D2E75C210D4813F08DFA08B15C21D6E727
:1001D0000A49D8E72046FFF771FB3546E0E70925D5
:1001E000DEE70825DCE70425DAE700BF1C2700204E
:1001F000841F0020801F0020881F0020AD450300C1
:10020000001001409F4503003C3903002DE9F041F7
:10021000044686B0808A0F46164602F009F8012887
:1002200044D12046FFF77EFB054638B923784BB111
:10023000324639462046FFF749FF0546284606B0B4
:10024000BDE8F081E27DA378002A334414BF0B227D
:100250000F22934228D80133029304F10C03009338
:10026000A36A01938DF81000E36A0393684603F0D4
:10027000C8FB05460028E1D10599204601F1010897
:10028000FFF7B0FCE37D43B132463946404613F0F8
:1002900044F9684603F0D6FBD0E723463246414690
:1002A0003846FFF76AFAF4E70925C7E71025C5E7DE
:1002B00010B54FF4E0720021134813F039F900240F
:1002C00005F092F9114B12481C602146802213F070
:1002D0002FF9104B1049114A11489C75C3E90012BF
:1002E00010494CF25032C3E902211A6140F604026F
:1002F0009A8203F09BF80C4B18600C4B0C481C6066
:10030000BDE8104005F07ABA1C270020F026002036
:10031000702600200427002080969800F0490200F3
:10032000F90A020020A1070000270020F42600207F
:1003300035F7010005F06AB830B504468DB00028E5
:1003400060D00369002B5DD0C369002B5AD085694A
:10035000002D57D05A788DF804201A780993838A93
:1003600082F001020B2B8DF80320027B3AD9012188
:10037000022A8DF8001001D1234A927D002A3BD138
:10038000042213448DF802200B330C2293FBF2F36A
:10039000013B8DF8093000238DF8083094E8030004
:1003A00000238DF8173003AB83E803002389ADF8F1
:1003B0001430A37A8DF81630236A0A932046DF237F
:1003C00008950B930FF01AFA28B12378012B0CBF74
:1003D0002023FF230B93A28A21696846FFF716FFAB
:1003E0000DB030BDC17A0029C1D1012A0CBF012254
:1003F00000228DF8002001D10822C2E704238DF8E5
:100400000230CBE70E20EBE70427002070B50E4644
:1004100090B00446002862D04368002B5FD0856905
:10042000002D5CD003788DF8133000230D93836882
:100430000B2B94BF027B012202F001018DF81010FA
:1004400000218DF8121032B10733DB08013B8DF823
:1004500019308DF8181004F1100292E803000123FE
:100460008DF8273007AB83E80300E389ADF824302B
:10047000237F8DF82630236A0C95CDE90E63194B46
:100480001B685B071BD5184B1B68062B17DD2F213C
:10049000164813F027F9C8B12F21144813F022F998
:1004A000411C134BA269D3F80435029222780192C1
:1004B000104A0092072040F2F57204F015F8D4E9D2
:1004C000011204A8FFF7A2FE10B070BD5C2107481E
:1004D00013F008F908B15C21DFE70449E1E70E20D9
:1004E000F2E700BF841F0020801F0020AD450300FD
:1004F000001001404C46030070B5037B012B8EB009
:1005000004460D466DD1384B1B68980518D5374BFE
:100510001B68032B14DD2F21354813F0E3F8002866
:1005200053D02F21324813F0DDF8411C314B324AB1
:10053000D3F804350092042040F2622203F0D4FF85
:1005400002AE0B220021304612F0F2FF9DF8092086
:10055000E3888DF80D5002F0030242EA83028DF821
:1005600009202A0E8DF80A202A0C8DF80B202A0A61
:100570008DF80C2062780696911E4A424A41C3F3D8
:10058000861343EAC2138DF808300623079301232C
:100590008DF82430A38AADF8263000230A938DF815
:1005A00014308DF82030E389ADF82230E36A0D93E2
:1005B000A37D226A0B928BB96FF0010105A88DF81B
:1005C0003030FFF723FF0EB070BD5C21084813F0F8
:1005D00089F808B15C21A5E70549A7E7074B5B7DD2
:1005E000EAE70020EFE700BF841F0020801F002003
:1005F000AD450300001001406C45030004270020B6
:1006000010B591F84830022B0C4602D07846FEF720
:10061000E5FF022384F8683094F84830022B06D1B5
:10062000E16C2046FFF768FF08B984F8680010BD48
:100630002DE9F04F0D469FB0144698460646002817
:1006400000F04C82002A00F0498221B9092738467F
:100650001FB0BDE8F08F1822214615A812F05DFFEB
:100660003378002059B2CA0F81428DF84820ACBFC0
:100670000122042295428DF84900E7D39DF85F706E
:10068000EFB103F07F0381428DF84B308DF84A00C3
:100690002EDA7278B378920102F4FE5242EA9302A3
:1006A000ADF84E20DB00F27803F0180343EA521352
:1006B00002F01F028DF850308DF8512018E0C3F37E
:1006C0008010002903F03F038DF84B008DF84C306B
:1006D00008DA96F90130002BACBF042308238DF80B
:1006E0004A30D6E704231A4495428DF84A30ADD3F8
:1006F00000231B9398F80030032B02D97846FEF7AD
:100700006DFF98F80020AB4BBDF85C0053F8223029
:100710001D9301F08DFD012840F0E28112A8FFF742
:1007200001F90746002892D10146082205A812F0D7
:10073000FFFE05A960880EF0BBFF28B19DF8493087
:1007400043F001038DF84930D4E90312208904F005
:1007500095FE002857D19DF84930002B3FF477AF24
:1007600013F001031CBF069A16929DF84820002A38
:1007700000F0A281BDF84E101898FEF7B1FF199B4A
:100780004FEA03694FEA132A19EB00034AF1000408
:10079000CDE90234BDF85C00874C00210B5B83423D
:1007A00009D16318D3E90223DDE9029A9A4508BF0B
:1007B00091453FF44CAF10318029EFD17F4A00239F
:1007C000702101FB032494F848C0BCF1020F23D12F
:1007D000B4F814C084451FD1E188A069FEF780FFFA
:1007E000E1690A0612EB00094FEA112343F1000AFE
:1007F000DDE902239A4508BF914531D20521204603
:10080000FFF760FA0BE09DF8493003F0FE038DF826
:100810004930002B9FD11AE70133042BD1D1BDF809
:100820004E30BDF85C00DDE9181204F04FFE0028E0
:1008300000F0D280BDF84E30BDF85C00DDE9181242
:1008400004F078FE00283FF402AF12A8FEF788FFFC
:10085000014612A8FFF750FE12A8FFF7CBF8F6E604
:10086000DDE90223534508BF4A45FFF4F0AE544B7F
:100870001B685B071CD5534B1B68032B18DD2F210E
:10088000514812F02FFF002800F0FC802F214E4825
:1008900012F028FF411C4D4B9DF85020D3F8043531
:1008A00001924B4A009204204FF4657203F01CFE43
:1008B00094F84830022B02D07846FEF78FFEDFF81E
:1008C0001491D9F800A002F04DF80AEB000104F1F0
:1008D000300002F01EF8237B012B1AD194F8683007
:1008E000BBB994F84830022B02D07846FEF776FE6A
:1008F000D9E9013299F8151002FB013902F032F8FA
:1009000000EB090104F1500002F003F8012384F820
:1009100068309DF85010E36C01228A4013427FF446
:1009200096AE1343E3649DF85F30627A002B0CBFF0
:100930004FF00C094FF008098A42A5F1040509FBA4
:1009400001F940F0A88009EB0503A4F84A30A26938
:10095000189B9A420BD20DF1540EBEE80F0004F121
:100960000C0CACE80F009EE803008CE80300E06E7E
:100970002A46311D484412F0D0FD2046E56CFEF7B2
:10098000EFFE85427FF463AEE16C2046FFF7B4FDD5
:100990006378DA070AD5E37DE06EB4F84A10002BDD
:1009A00000F0858043462246FFF7A2FA2046FEF774
:1009B00085FF4CE65C450300702600201C270020C4
:1009C000841F0020801F0020AD450300001001405F
:1009D0008B460300042700209DF85F209DF85130CE
:1009E000002A0CBF0C24082403FB04440CBF4FF462
:1009F000C0734FF480739C4228D93A4B1B68590747
:100A00007FF525AE384B1B68002B7FF720AE2F21DA
:100A1000364812F067FE80B12F21344812F062FE92
:100A2000411C334B334AD3F80435009201944FF400
:100A30005C72012003F058FD09E65C212B4812F09E
:100A400051FE08B15C21E8E72849EAE72246022185
:100A500012A8FEF7D5FE044600287FF408AF014631
:100A600012A8FFF749FD2C22214607A812F060FDCD
:100A700010238DF81C3007A802238DF8243000F0D5
:100A8000A1F8E4E55C21194812F02CFE08B15C21C4
:100A9000FDE61649FFE6002B0CBF0C2308239D4200
:100AA0003FF455AF04212046FFF70CF9CFE543464C
:100AB0002246FEF7C7FF79E7002B3FF4C8AD9DF84B
:100AC0005F30701C691E23B1434612AAFFF710FA6B
:100AD000BDE5434612AAFEF7B5FFB8E50E27B6E519
:100AE0001027B4E5841F0020801F0020AD450300BF
:100AF00000100140774603002DE9F341194E002410
:100B00003746A046351995F84830012B0CD102A97B
:100B1000284641F8048DFFF771F9042801D0019BA4
:100B200013B12846FFF7B0F87034B4F5E07FE9D18F
:100B300000257C1994F84830022B0AD194F86830CB
:100B4000022B06D1E16C2046FFF7D6FC08B984F8E9
:100B500068007035B5F5E07FEBD1012002B0BDE84B
:100B6000F08100BF1C2700202DE9F0418846074690
:100B7000E8B1124E3468C4B92546454507D1104B3B
:100B8000C3E90075012333602046BDE8F08107EB1F
:100B9000C5035B685BB117F83500030609D450B193
:100BA000FEF7A8FD38B90135E7E70424ECE70E2489
:100BB000EAE70B24E8E70F24E6E700BFF42600206D
:100BC000F8260020F8B5074610B97846FEF706FD6E
:100BD0000F4E346894B10F4D01232B7023791BB94C
:100BE00054F8043C384698472468002CF6D12B78FA
:100BF000022B03D13168064C09B92970F8BD0B7975
:100C00000E6813B1204603F0F4FB3146F4E700BF51
:100C1000E0280020DC28002010B5044610B97846F2
:100C2000FEF7DCFC00232372211D0248BDE81040C2
:100C300003F0BEBBE02800200B888268D25A07323E
:100C400022F00302134402889BB2043A934288BF05
:100C500000230B80704713B58368CB1A02A921F8D3
:100C6000023DFFF7E9FFBDF806308068184402B086
:100C700010BD70B5064615460C4611BB7846FEF70A
:100C8000ADFCFEB17846FEF7A9FC6B1E2344B3F120
:100C9000005F34D94FF08052D2F80C2102F50022C7
:100CA000B3EB822F2ED2042D02D87846FEF796FCA5
:100CB00035800023043D7380B380B4602580A37029
:100CC00070BD10B97846FEF789FCB4F1005F12D907
:100CD0004FF08053D3F80C3103F50023B4EB832F8E
:100CE000D3D34FF08053D3F80C3103F50053B4EB5A
:100CF000832FC7D2C9E7B4F5000FF2D8C2E7B3F526
:100D0000000F08D94FF08052D2F80C2102F50052A2
:100D1000B3EB822FC7D37846FEF760FCC3E738B544
:100D2000044610B97846FEF759FC6288A36813445C
:100D30009B78012B02D17846FEF750FCEFF310852B
:100D400072B6A268A18811448B78032B0AD1204681
:100D5000FFF781FFA368C31A63800023837005B97E
:100D600062B638BD002393706380A380F7E7F8B5BF
:100D70000E461546044610B97846FEF72FFC16B904
:100D80007846FEF72BFC6288A36813449B78012BFE
:100D900002D17846FEF722FC002D37D02388043B91
:100DA0009BB29D4232D8EFF3108772B66188A38858
:100DB000EA1D22F00302994292B204D25B1A9A42CF
:100DC00010DD042016E018D92088401A904209D27C
:100DD0009A42F6D8032881BFA3685B1804229A7050
:100DE000002363806288A1688B188D5201229A705B
:100DF0000020336007B962B6F8BDA26813449B783F
:100E0000002BDED193706380A380EBE70920F3E72A
:100E1000F8B50D461646044610B97846FEF7DEFBD7
:100E200015B97846FEF7DAFBAB78012B02D078468D
:100E3000FEF7D4FB2B88B34202D27846FEF7CEFBF6
:100E400016B97846FEF7CAFBEFF3108772B6022395
:100E5000AB70E1182E802046FFF7EEFE6288A38873
:100E600093421FBFA3689B1800229A7007B962B60D
:100E7000F8BD70B50D46044610B97846FEF7AEFBD6
:100E800015B97846FEF7AAFBEFF3108672B6A28872
:100E9000A36813449A78042A06D1211D2046FFF73F
:100EA000CBFEA288A36813449A78022A03D0032AAF
:100EB00008D0052003E003229A702B60002006B9B9
:100EC00062B670BD7846FEF789FBF7E738B5044691
:100ED00010B97846FEF782FBEFF3108572B6A08852
:100EE000A16801448B78042B03D12046FFF7B3FEA1
:100EF00001468878831E5842584105B962B638BD0C
:100F000038B5044610B97846FEF768FBEFF3108554
:100F100072B6A088A16801448878C31E012B05D948
:100F2000831E5842584105B962B638BD2046FFF7C6
:100F300092FE0146F0E7F8B50D46044610B9784632
:100F4000FEF74CFB15B97846FEF748FBEFF3108629
:100F500072B6AB78012B19D0032B22D1A288A368DB
:100F600013449D4202D07846FEF738FB0027AF704D
:100F7000211D2046FFF760FEA288A36813449B78DA
:100F8000042B00D1A78006B962B6F8BD6288A368B9
:100F900013449D4202D07846FEF720FB0023AB703D
:100FA000F1E77846FEF71AFBEDE710B5EFF3108492
:100FB00072B68288816811448B78042B02D1FFF7C6
:100FC0004AFE01468878B0FA80F0400904B962B65A
:100FD00010BD037942799B1A03F57F2303F6FF7353
:100FE00000EB03307047000010B5054884681C22F0
:100FF000002112F09DFA2046BDE8104003F0CCBF5E
:10100000E428002070B5194CE36813B97846FEF760
:10101000E5FA237E13B17846FEF7E0FA6368092B00
:1010200002D97846FEF7DAFA114D0026636855F8C2
:1010300023309847022811D003280DD0012810D161
:1010400063680133092B636002D97846FEF7C6FA5C
:10105000237E002BEAD004E06660F9E7237E0BB123
:10106000207070BDBDE87040FFF7BEBFE4280020CF
:101070002047030010B50388044613B97846FEF7ED
:10108000ADFA2088074B04EB800030EA030203D05E
:101090006288B2F5FE4F04D11C4004F580542078DC
:1010A000204410BD00F0FFFF70B504460E4647F621
:1010B000FE65FFF7DFFFB04207D2844205D24388C6
:1010C000013B9BB2AB42F4D870BD0020FCE70000AE
:1010D0000B78032B094B04BF00221A761A78012AD9
:1010E00003D11B7E43B9FFF78DBF022A04D10B78D1
:1010F000032B01D1FFF778BF704700BFE428002021
:1011000010B50C4CE3681878002203F580511844A0
:1011100004F038FB50B9E1680846FFF75AFF8142F6
:1011200006D001F58051E160032010BD0120FCE7ED
:101130000220FAE7E42800201FB50A4B02221B68B0
:101140008DF800200193084A4FF48053694601202E
:10115000029300F0AFFFB0FA80F0400905B05DF8EF
:1011600004FB00BF04290020002900201FB5012333
:10117000CDE902210190054A8DF8003069461846F4
:1011800000F098FF05B05DF804FB00BF00290020C7
:101190002DE9F047254BD86802794179013A91420F
:1011A0001E4603D101205876BDE8F08700F5805334
:1011B0001F491C781C440B6813F8045F1D44FFF79B
:1011C00008FF6388013B9BB247F6FE62934200F53D
:1011D0008057884604D920463946FFF765FF044604
:1011E000DFF850A04FF001092CB9B4FA84F4640977
:1011F00074760120D8E7D8F800106288284601F5F7
:10120000805104F0BFFA05460028EED00422514672
:10121000204686F81890FFF7A9FF28B920463946DE
:10122000FFF742FF0446DFE70020BDE7E428002087
:1012300004290020C848030038B5104CE36818782A
:101240004FF6FF7203F58051184404F09BFA88B101
:10125000E36819780B4498420CD0657E0849094B25
:101260000422002D08BF1946FFF780FF20B9012096
:10127000207638BD0120FCE70020FAE7E4280020B2
:10128000D0480300CC48030070B50C4D0C4EE96803
:1012900030680C7804302246FFF768FF58B933688D
:1012A00004F0FC0404341C44EB686C611A781344A9
:1012B0002B61012070BD0020FCE700BFE428002066
:1012C0000429002008B5054B054918680422FFF7DA
:1012D0004DFFB0FA80F0400908BD00BF042900208E
:1012E000F028002010B5074B074C1968E06840F65D
:1012F000FC720431FFF73AFF10B90120207610BDCF
:101300000020FCE704290020E428002010B50C4C44
:10131000E1680846FFF75DFE81420AD1094B0A49A0
:1013200018680422FFF722FF40B901232376022028
:1013300010BD01F58051E1600320F9E70020F7E7D7
:10134000E428002004290020082900202DE9F74F77
:10135000324C236913B97846FEF740F9636913B933
:101360007846FEF73BF9DFF8B89047F6FE6A636906
:10137000D4E9030603EA0908A8EB0308FFF729FEEE
:101380007388013B9BB2534508F5805800F5805B9C
:1013900006D930465946FFF787FE0646002835D065
:1013A000354600275D4519D22A8807EB8202904511
:1013B00009D986EA050313EA090F04D16B88013BBA
:1013C0009BB2534502D957B9012318E02846019230
:1013D000FFF750FE019A05461746E3E7E7B13A46A4
:1013E00031466069FFF7C2FE90B963691F446761C7
:1013F00015B97846FEF7F2F82561002335B1698802
:1014000047F6FF72914201D0002BB0D0012000E0DE
:10141000002003B0BDE8F08F0123EFE7E4280020AF
:1014200000F0FFFF1FB50A4B0222DB688DF8002099
:101430000193084A4FF4805369460120029300F05B
:1014400039FEB0FA80F0400905B05DF804FB00BF3A
:10145000E4280020002900201FB540F6F8731B681F
:101460005A1C0CD1374B1A68013202D01A68002A74
:1014700054D14FF08052516913694B4303E0002B64
:10148000F7D0A3F58053304CA3F5805323602F4B46
:101490001B68DB0223D52E4B1B68062B1FDD2F217B
:1014A0002C4812F01FF900283AD02F21294812F0B9
:1014B00019F9411C40F6F872274B1268D3F804352D
:1014C000501C08BF1F4A206808BF1268CDE90120E0
:1014D000224A009207204FF41A7203F005F823689D
:1014E00019684B1E03332BD8C1F30B0343BB1C4AB3
:1014F0001C48D160012111701B491376537693600B
:1015000051F82340844214D153600120174900F060
:10151000C1FDFFF777FD012004B010BD1B68B0E7E7
:101520005C210C4812F0DEF808B15C21BEE70949E5
:10153000C0E701330A2BE3D17846FEF74FF8E4E722
:101540000020E9E71410001004290020841F002067
:10155000801F0020C446030000100140EC46030039
:10156000E42800202514020020470300D1100200C7
:1015700010B5044610B97846FEF730F8094B1878D4
:1015800060B1E068D9684379A0EB0333994206D390
:10159000FFF71FFD81428CBF0020012010BD0020FD
:1015A000FCE700BFE4280020024B1878003018BF89
:1015B00001207047E428002038B50E4C23780546FA
:1015C00013B17846FEF70AF82B78032B02D0784641
:1015D000FEF704F8EB68E360012000230649A560EC
:1015E000636023762070637600F054FDBDE83840D8
:1015F000FFF708BDE4280020D1100200014B186855
:10160000704700BF0429002010B5044610B9784681
:10161000FDF7E4FF63681BB123680BB1A36813B93E
:101620007846FDF7DBFFA3685A1E1A4202D07846BF
:10163000FDF7D4FF0023C4E9033310BD70B50E4697
:101640000446F0B18368F3B1EFF3108572B6D0E9C8
:101650000331994203D105B962B605250FE04EB1B9
:101660008368013B0B40D0E90012304602FB0311B6
:1016700011F053FF23690133236135B962B628465F
:1016800070BD0E25FBE70925F9E70025F7E7000007
:10169000024AD2F80034002BFBD0704700E0014032
:1016A000C0F30B0310B5E3B9E9B1104C0223C4F841
:1016B0000435FFF7EDFF01F6FF7121F47F6121F0A2
:1016C0000F010144884205D10020C4F80405FFF74A
:1016D000DFFF10BDC4F80805FFF7DAFF00F5805002
:1016E000F0E71020F5E70920F3E700BF00E0014034
:1016F00070B540EA010414F003041BD1E2B1950770
:101700001AD10E4E0123C6F804359508FFF7C0FF25
:10171000AC4205D10020C6F80405FFF7B9FF70BD43
:1017200051F824305A1C03D040F82430FFF7B0FFA2
:101730000134EDE71020F2E70920F0E700E0014076
:1017400041F2826398429DBF024B1878C0F3C000FB
:10175000012070479329002013B50190000C012847
:101760000C4602D07846FDF739FF084A084923683D
:1017700013600B7843F001030B7083F00203C3F393
:1017800040030020137102B010BD00BF8C2900205F
:101790009329002013B50190000C02280C4602D0BA
:1017A0007846FDF71BFF084B22681A6022791A71F0
:1017B000064A002058719871D871137843F00203DB
:1017C000137002B010BD00BF8429002093290020AF
:1017D00007B50190000C032802D07846FDF7FEFE05
:1017E00003480522002103B05DF804EB11F0A0BE10
:1017F0008C29002007B50190000C042802D07846FF
:10180000FDF7ECFE03480822002103B05DF804EB6D
:1018100011F08EBE8429002013B50190000C03281E
:101820000C4602D07846FDF7D9FE04490522204631
:1018300002B0BDE8104011F070BE00BF8C2900203E
:1018400013B50190000C03280C4602D07846FDF732
:10185000C5FE05222146054811F05FFE044A1378B3
:10186000002043F00103137002B010BD8C2900204A
:101870009329002013B50190000C04280C4602D0D7
:101880007846FDF7ABFE04490822204602B0BDE8C9
:10189000104011F042BE00BF8429002013B5019012
:1018A000000C04280C4602D07846FDF797FE08226B
:1018B0002146054811F031FE044A1378002043F018
:1018C0000203137002B010BD842900209329002068
:1018D00000B50A4B1A7B9B688DB0012A08BF03F143
:1018E000FF3303900CA80493022300F82C3D8DF8DD
:1018F0000820FFF767F90DB05DF804FB38290020D8
:10190000074A1378590709D50178122906D10549E4
:10191000086805496FF3820348601370704700BF81
:10192000932900208C290020382900201FB50F4959
:101930000B785A0717D40E4A526802F50052B2F1DA
:10194000807F02920FD80B4A43F0040312780B7089
:101950004FF4403002A98DF80C2004F0E7FE10B1DE
:101960007846FDF73BFE05B05DF804FB93290020A7
:1019700038290020942900201FB5002303930C4B25
:101980009A6802920B4A1B7B8DF80C301378013356
:10199000DBB202A94FF4802013708DF80F3004F0F1
:1019A000C5FE10B17846FDF719FE05B05DF804FBE1
:1019B000382900209429002007B54FF4403004F066
:1019C00013FF4FF4802004F00FFF1422002106487B
:1019D00011F0AEFD054B1A786FF345121A7003B083
:1019E0005DF804EBFFF7A2BF3829002093290020FF
:1019F00010B50C4C14220021204611F099FD00F086
:101A0000B1FF094B094A0A499A600022C3E903124F
:101A100058605A61074B6260197862F3C30119700C
:101A200010BD00BF3829002014290020911B02009E
:101A3000008793039329002037B5244D2B78DB06CC
:101A40002BD42348234B036000F034FD2248234B62
:101A5000036000F02FFD2B7813F020020ED103F06D
:101A60000303032B1E4C1AD02260A2602273228231
:101A7000FFF782FF23686360FFF758FF4FF4803061
:101A800004F0B2FE4FF4003004F0AEFE154800F052
:101A900007FF2B7843F010032B7003B030BD124BBF
:101AA0001A68A2601A7922739879597941EA00215B
:101AB0002182D9790D4B19700D4B1879884202D0CB
:101AC0000AB92260D6E71B682360D3E79329002078
